{
	"identity_flattened.sol": {
		"AddressClaim": {
			"abi": [
				{
					"inputs": [],
					"stateMutability": "nonpayable",
					"type": "constructor"
				},
				{
					"inputs": [
						{
							"internalType": "address",
							"name": "owner",
							"type": "address"
						}
					],
					"name": "OwnableInvalidOwner",
					"type": "error"
				},
				{
					"inputs": [
						{
							"internalType": "address",
							"name": "account",
							"type": "address"
						}
					],
					"name": "OwnableUnauthorizedAccount",
					"type": "error"
				},
				{
					"anonymous": false,
					"inputs": [
						{
							"indexed": true,
							"internalType": "address",
							"name": "claimant",
							"type": "address"
						}
					],
					"name": "AddressClaimedEvent",
					"type": "event"
				},
				{
					"anonymous": false,
					"inputs": [
						{
							"indexed": true,
							"internalType": "address",
							"name": "previousOwner",
							"type": "address"
						},
						{
							"indexed": true,
							"internalType": "address",
							"name": "newOwner",
							"type": "address"
						}
					],
					"name": "OwnershipTransferred",
					"type": "event"
				},
				{
					"anonymous": false,
					"inputs": [
						{
							"indexed": false,
							"internalType": "address",
							"name": "account",
							"type": "address"
						}
					],
					"name": "Paused",
					"type": "event"
				},
				{
					"anonymous": false,
					"inputs": [
						{
							"indexed": false,
							"internalType": "address",
							"name": "account",
							"type": "address"
						}
					],
					"name": "Unpaused",
					"type": "event"
				},
				{
					"inputs": [],
					"name": "claimAddress",
					"outputs": [],
					"stateMutability": "nonpayable",
					"type": "function"
				},
				{
					"inputs": [
						{
							"internalType": "address",
							"name": "claimant",
							"type": "address"
						}
					],
					"name": "isAddressClaimed",
					"outputs": [
						{
							"internalType": "bool",
							"name": "",
							"type": "bool"
						}
					],
					"stateMutability": "view",
					"type": "function"
				},
				{
					"inputs": [],
					"name": "owner",
					"outputs": [
						{
							"internalType": "address",
							"name": "",
							"type": "address"
						}
					],
					"stateMutability": "view",
					"type": "function"
				},
				{
					"inputs": [],
					"name": "pause",
					"outputs": [],
					"stateMutability": "nonpayable",
					"type": "function"
				},
				{
					"inputs": [],
					"name": "paused",
					"outputs": [
						{
							"internalType": "bool",
							"name": "",
							"type": "bool"
						}
					],
					"stateMutability": "view",
					"type": "function"
				},
				{
					"inputs": [],
					"name": "renounceOwnership",
					"outputs": [],
					"stateMutability": "nonpayable",
					"type": "function"
				},
				{
					"inputs": [
						{
							"internalType": "address",
							"name": "newOwner",
							"type": "address"
						}
					],
					"name": "transferOwnership",
					"outputs": [],
					"stateMutability": "nonpayable",
					"type": "function"
				},
				{
					"inputs": [],
					"name": "unclaimAddress",
					"outputs": [],
					"stateMutability": "nonpayable",
					"type": "function"
				},
				{
					"inputs": [],
					"name": "unpause",
					"outputs": [],
					"stateMutability": "nonpayable",
					"type": "function"
				}
			],
			"devdoc": {
				"errors": {
					"OwnableInvalidOwner(address)": [
						{
							"details": "The owner is not a valid owner account. (eg. `address(0)`)"
						}
					],
					"OwnableUnauthorizedAccount(address)": [
						{
							"details": "The caller account is not authorized to perform an operation."
						}
					]
				},
				"events": {
					"Paused(address)": {
						"details": "Emitted when the pause is triggered by `account`."
					},
					"Unpaused(address)": {
						"details": "Emitted when the pause is lifted by `account`."
					}
				},
				"kind": "dev",
				"methods": {
					"claimAddress()": {
						"details": "Allows an address to claim itself."
					},
					"isAddressClaimed(address)": {
						"details": "Checks if an address has been claimed."
					},
					"owner()": {
						"details": "Returns the address of the current owner."
					},
					"pause()": {
						"details": "Pauses the contract. Only the owner can call this function."
					},
					"paused()": {
						"details": "Returns true if the contract is paused, and false otherwise."
					},
					"renounceOwnership()": {
						"details": "Leaves the contract without owner. It will not be possible to call `onlyOwner` functions. Can only be called by the current owner. NOTE: Renouncing ownership will leave the contract without an owner, thereby disabling any functionality that is only available to the owner."
					},
					"transferOwnership(address)": {
						"details": "Transfers ownership of the contract to a new account (`newOwner`). Can only be called by the current owner."
					},
					"unclaimAddress()": {
						"details": "Allows an address to unclaim itself."
					},
					"unpause()": {
						"details": "Unpauses the contract. Only the owner can call this function."
					}
				},
				"version": 1
			},
			"evm": {
				"assembly": "    /* \"identity_flattened.sol\":6665:7831  contract AddressClaim is Ownable, Pausable {... */\n  mstore(0x40, 0x80)\n    /* \"identity_flattened.sol\":6829:6865  constructor() Ownable(msg.sender) {} */\n  callvalue\n  dup1\n  iszero\n  tag_1\n  jumpi\n  0x00\n  dup1\n  revert\ntag_1:\n  pop\n    /* \"identity_flattened.sol\":6851:6861  msg.sender */\n  caller\n    /* \"identity_flattened.sol\":2259:2260  0 */\n  0x00\n    /* \"identity_flattened.sol\":2235:2261  initialOwner == address(0) */\n  0xffffffffffffffffffffffffffffffffffffffff\n  and\n    /* \"identity_flattened.sol\":2235:2247  initialOwner */\n  dup2\n    /* \"identity_flattened.sol\":2235:2261  initialOwner == address(0) */\n  0xffffffffffffffffffffffffffffffffffffffff\n  and\n  sub\n    /* \"identity_flattened.sol\":2231:2326  if (initialOwner == address(0)) {... */\n  tag_6\n  jumpi\n    /* \"identity_flattened.sol\":2312:2313  0 */\n  0x00\n    /* \"identity_flattened.sol\":2284:2315  OwnableInvalidOwner(address(0)) */\n  mload(0x40)\n  0x1e4fbdf700000000000000000000000000000000000000000000000000000000\n  dup2\n  mstore\n  0x04\n  add\n  tag_7\n  swap2\n  swap1\n  tag_8\n  jump\t// in\ntag_7:\n  mload(0x40)\n  dup1\n  swap2\n  sub\n  swap1\n  revert\n    /* \"identity_flattened.sol\":2231:2326  if (initialOwner == address(0)) {... */\ntag_6:\n    /* \"identity_flattened.sol\":2335:2367  _transferOwnership(initialOwner) */\n  tag_9\n    /* \"identity_flattened.sol\":2354:2366  initialOwner */\n  dup2\n    /* \"identity_flattened.sol\":2335:2353  _transferOwnership */\n  shl(0x20, tag_10)\n    /* \"identity_flattened.sol\":2335:2367  _transferOwnership(initialOwner) */\n  0x20\n  shr\n  jump\t// in\ntag_9:\n    /* \"identity_flattened.sol\":2187:2374  constructor(address initialOwner) {... */\n  pop\n    /* \"identity_flattened.sol\":5065:5070  false */\n  0x00\n    /* \"identity_flattened.sol\":5055:5062  _paused */\n  dup1\n  0x14\n    /* \"identity_flattened.sol\":5055:5070  _paused = false */\n  0x0100\n  exp\n  dup2\n  sload\n  dup2\n  0xff\n  mul\n  not\n  and\n  swap1\n  dup4\n  iszero\n  iszero\n  mul\n  or\n  swap1\n  sstore\n  pop\n    /* \"identity_flattened.sol\":6665:7831  contract AddressClaim is Ownable, Pausable {... */\n  jump(tag_13)\n    /* \"identity_flattened.sol\":3874:4061  function _transferOwnership(address newOwner) internal virtual {... */\ntag_10:\n    /* \"identity_flattened.sol\":3947:3963  address oldOwner */\n  0x00\n    /* \"identity_flattened.sol\":3966:3972  _owner */\n  dup1\n  0x00\n  swap1\n  sload\n  swap1\n  0x0100\n  exp\n  swap1\n  div\n  0xffffffffffffffffffffffffffffffffffffffff\n  and\n    /* \"identity_flattened.sol\":3947:3972  address oldOwner = _owner */\n  swap1\n  pop\n    /* \"identity_flattened.sol\":3991:3999  newOwner */\n  dup2\n    /* \"identity_flattened.sol\":3982:3988  _owner */\n  0x00\n  dup1\n    /* \"identity_flattened.sol\":3982:3999  _owner = newOwner */\n  0x0100\n  exp\n  dup2\n  sload\n  dup2\n  0xffffffffffffffffffffffffffffffffffffffff\n  mul\n  not\n  and\n  swap1\n  dup4\n  0xffffffffffffffffffffffffffffffffffffffff\n  and\n  mul\n  or\n  swap1\n  sstore\n  pop\n    /* \"identity_flattened.sol\":4045:4053  newOwner */\n  dup2\n    /* \"identity_flattened.sol\":4014:4054  OwnershipTransferred(oldOwner, newOwner) */\n  0xffffffffffffffffffffffffffffffffffffffff\n  and\n    /* \"identity_flattened.sol\":4035:4043  oldOwner */\n  dup2\n    /* \"identity_flattened.sol\":4014:4054  OwnershipTransferred(oldOwner, newOwner) */\n  0xffffffffffffffffffffffffffffffffffffffff\n  and\n  0x8be0079c531659141344cd1fd0a4f28419497f9722a3daafe3b4186f6b6457e0\n  mload(0x40)\n  mload(0x40)\n  dup1\n  swap2\n  sub\n  swap1\n  log3\n    /* \"identity_flattened.sol\":3937:4061  {... */\n  pop\n    /* \"identity_flattened.sol\":3874:4061  function _transferOwnership(address newOwner) internal virtual {... */\n  pop\n  jump\t// out\n    /* \"#utility.yul\":7:133   */\ntag_15:\n    /* \"#utility.yul\":44:51   */\n  0x00\n    /* \"#utility.yul\":84:126   */\n  0xffffffffffffffffffffffffffffffffffffffff\n    /* \"#utility.yul\":77:82   */\n  dup3\n    /* \"#utility.yul\":73:127   */\n  and\n    /* \"#utility.yul\":62:127   */\n  swap1\n  pop\n    /* \"#utility.yul\":7:133   */\n  swap2\n  swap1\n  pop\n  jump\t// out\n    /* \"#utility.yul\":139:235   */\ntag_16:\n    /* \"#utility.yul\":176:183   */\n  0x00\n    /* \"#utility.yul\":205:229   */\n  tag_21\n    /* \"#utility.yul\":223:228   */\n  dup3\n    /* \"#utility.yul\":205:229   */\n  tag_15\n  jump\t// in\ntag_21:\n    /* \"#utility.yul\":194:229   */\n  swap1\n  pop\n    /* \"#utility.yul\":139:235   */\n  swap2\n  swap1\n  pop\n  jump\t// out\n    /* \"#utility.yul\":241:359   */\ntag_17:\n    /* \"#utility.yul\":328:352   */\n  tag_23\n    /* \"#utility.yul\":346:351   */\n  dup2\n    /* \"#utility.yul\":328:352   */\n  tag_16\n  jump\t// in\ntag_23:\n    /* \"#utility.yul\":323:326   */\n  dup3\n    /* \"#utility.yul\":316:353   */\n  mstore\n    /* \"#utility.yul\":241:359   */\n  pop\n  pop\n  jump\t// out\n    /* \"#utility.yul\":365:587   */\ntag_8:\n    /* \"#utility.yul\":458:462   */\n  0x00\n    /* \"#utility.yul\":496:498   */\n  0x20\n    /* \"#utility.yul\":485:494   */\n  dup3\n    /* \"#utility.yul\":481:499   */\n  add\n    /* \"#utility.yul\":473:499   */\n  swap1\n  pop\n    /* \"#utility.yul\":509:580   */\n  tag_25\n    /* \"#utility.yul\":577:578   */\n  0x00\n    /* \"#utility.yul\":566:575   */\n  dup4\n    /* \"#utility.yul\":562:579   */\n  add\n    /* \"#utility.yul\":553:559   */\n  dup5\n    /* \"#utility.yul\":509:580   */\n  tag_17\n  jump\t// in\ntag_25:\n    /* \"#utility.yul\":365:587   */\n  swap3\n  swap2\n  pop\n  pop\n  jump\t// out\n    /* \"identity_flattened.sol\":6665:7831  contract AddressClaim is Ownable, Pausable {... */\ntag_13:\n  dataSize(sub_0)\n  dup1\n  dataOffset(sub_0)\n  0x00\n  codecopy\n  0x00\n  return\nstop\n\nsub_0: assembly {\n        /* \"identity_flattened.sol\":6665:7831  contract AddressClaim is Ownable, Pausable {... */\n      mstore(0x40, 0x80)\n      callvalue\n      dup1\n      iszero\n      tag_1\n      jumpi\n      0x00\n      dup1\n      revert\n    tag_1:\n      pop\n      jumpi(tag_2, lt(calldatasize, 0x04))\n      shr(0xe0, calldataload(0x00))\n      dup1\n      0x715018a6\n      gt\n      tag_12\n      jumpi\n      dup1\n      0x715018a6\n      eq\n      tag_7\n      jumpi\n      dup1\n      0x8456cb59\n      eq\n      tag_8\n      jumpi\n      dup1\n      0x8da5cb5b\n      eq\n      tag_9\n      jumpi\n      dup1\n      0xc92dbf85\n      eq\n      tag_10\n      jumpi\n      dup1\n      0xf2fde38b\n      eq\n      tag_11\n      jumpi\n      jump(tag_2)\n    tag_12:\n      dup1\n      0x05691ec8\n      eq\n      tag_3\n      jumpi\n      dup1\n      0x2b76364e\n      eq\n      tag_4\n      jumpi\n      dup1\n      0x3f4ba83a\n      eq\n      tag_5\n      jumpi\n      dup1\n      0x5c975abb\n      eq\n      tag_6\n      jumpi\n    tag_2:\n      0x00\n      dup1\n      revert\n        /* \"identity_flattened.sol\":6919:7139  function claimAddress() public whenNotPaused {... */\n    tag_3:\n      tag_13\n      tag_14\n      jump\t// in\n    tag_13:\n      stop\n        /* \"identity_flattened.sol\":7197:7319  function isAddressClaimed(address claimant) public view returns (bool) {... */\n    tag_4:\n      tag_15\n      0x04\n      dup1\n      calldatasize\n      sub\n      dup2\n      add\n      swap1\n      tag_16\n      swap2\n      swap1\n      tag_17\n      jump\t// in\n    tag_16:\n      tag_18\n      jump\t// in\n    tag_15:\n      mload(0x40)\n      tag_19\n      swap2\n      swap1\n      tag_20\n      jump\t// in\n    tag_19:\n      mload(0x40)\n      dup1\n      swap2\n      sub\n      swap1\n      return\n        /* \"identity_flattened.sol\":7766:7829  function unpause() public onlyOwner {... */\n    tag_5:\n      tag_21\n      tag_22\n      jump\t// in\n    tag_21:\n      stop\n        /* \"identity_flattened.sol\":5674:5758  function paused() public view virtual returns (bool) {... */\n    tag_6:\n      tag_23\n      tag_24\n      jump\t// in\n    tag_23:\n      mload(0x40)\n      tag_25\n      swap2\n      swap1\n      tag_20\n      jump\t// in\n    tag_25:\n      mload(0x40)\n      dup1\n      swap2\n      sub\n      swap1\n      return\n        /* \"identity_flattened.sol\":3255:3356  function renounceOwnership() public virtual onlyOwner {... */\n    tag_7:\n      tag_26\n      tag_27\n      jump\t// in\n    tag_26:\n      stop\n        /* \"identity_flattened.sol\":7626:7685  function pause() public onlyOwner {... */\n    tag_8:\n      tag_28\n      tag_29\n      jump\t// in\n    tag_28:\n      stop\n        /* \"identity_flattened.sol\":2600:2685  function owner() public view virtual returns (address) {... */\n    tag_9:\n      tag_30\n      tag_31\n      jump\t// in\n    tag_30:\n      mload(0x40)\n      tag_32\n      swap2\n      swap1\n      tag_33\n      jump\t// in\n    tag_32:\n      mload(0x40)\n      dup1\n      swap2\n      sub\n      swap1\n      return\n        /* \"identity_flattened.sol\":7375:7547  function unclaimAddress() public whenNotPaused {... */\n    tag_10:\n      tag_34\n      tag_35\n      jump\t// in\n    tag_34:\n      stop\n        /* \"identity_flattened.sol\":3505:3720  function transferOwnership(address newOwner) public virtual onlyOwner {... */\n    tag_11:\n      tag_36\n      0x04\n      dup1\n      calldatasize\n      sub\n      dup2\n      add\n      swap1\n      tag_37\n      swap2\n      swap1\n      tag_17\n      jump\t// in\n    tag_37:\n      tag_38\n      jump\t// in\n    tag_36:\n      stop\n        /* \"identity_flattened.sol\":6919:7139  function claimAddress() public whenNotPaused {... */\n    tag_14:\n        /* \"identity_flattened.sol\":5298:5317  _requireNotPaused() */\n      tag_40\n        /* \"identity_flattened.sol\":5298:5315  _requireNotPaused */\n      tag_41\n        /* \"identity_flattened.sol\":5298:5317  _requireNotPaused() */\n      jump\t// in\n    tag_40:\n        /* \"identity_flattened.sol\":6983:7000  _claimedAddresses */\n      0x01\n        /* \"identity_flattened.sol\":6983:7012  _claimedAddresses[msg.sender] */\n      0x00\n        /* \"identity_flattened.sol\":7001:7011  msg.sender */\n      caller\n        /* \"identity_flattened.sol\":6983:7012  _claimedAddresses[msg.sender] */\n      0xffffffffffffffffffffffffffffffffffffffff\n      and\n      0xffffffffffffffffffffffffffffffffffffffff\n      and\n      dup2\n      mstore\n      0x20\n      add\n      swap1\n      dup2\n      mstore\n      0x20\n      add\n      0x00\n      keccak256\n      0x00\n      swap1\n      sload\n      swap1\n      0x0100\n      exp\n      swap1\n      div\n      0xff\n      and\n        /* \"identity_flattened.sol\":6982:7012  !_claimedAddresses[msg.sender] */\n      iszero\n        /* \"identity_flattened.sol\":6974:7040  require(!_claimedAddresses[msg.sender], \"Address already claimed\") */\n      tag_43\n      jumpi\n      mload(0x40)\n      0x08c379a000000000000000000000000000000000000000000000000000000000\n      dup2\n      mstore\n      0x04\n      add\n      tag_44\n      swap1\n      tag_45\n      jump\t// in\n    tag_44:\n      mload(0x40)\n      dup1\n      swap2\n      sub\n      swap1\n      revert\n    tag_43:\n        /* \"identity_flattened.sol\":7082:7086  true */\n      0x01\n        /* \"identity_flattened.sol\":7050:7067  _claimedAddresses */\n      dup1\n        /* \"identity_flattened.sol\":7050:7079  _claimedAddresses[msg.sender] */\n      0x00\n        /* \"identity_flattened.sol\":7068:7078  msg.sender */\n      caller\n        /* \"identity_flattened.sol\":7050:7079  _claimedAddresses[msg.sender] */\n      0xffffffffffffffffffffffffffffffffffffffff\n      and\n      0xffffffffffffffffffffffffffffffffffffffff\n      and\n      dup2\n      mstore\n      0x20\n      add\n      swap1\n      dup2\n      mstore\n      0x20\n      add\n      0x00\n      keccak256\n      0x00\n        /* \"identity_flattened.sol\":7050:7086  _claimedAddresses[msg.sender] = true */\n      0x0100\n      exp\n      dup2\n      sload\n      dup2\n      0xff\n      mul\n      not\n      and\n      swap1\n      dup4\n      iszero\n      iszero\n      mul\n      or\n      swap1\n      sstore\n      pop\n        /* \"identity_flattened.sol\":7121:7131  msg.sender */\n      caller\n        /* \"identity_flattened.sol\":7101:7132  AddressClaimedEvent(msg.sender) */\n      0xffffffffffffffffffffffffffffffffffffffff\n      and\n      0x724e7ff186adc07f81795071386876998e66855c287fc3a53b5dec08e7b6bbd9\n      mload(0x40)\n      mload(0x40)\n      dup1\n      swap2\n      sub\n      swap1\n      log2\n        /* \"identity_flattened.sol\":6919:7139  function claimAddress() public whenNotPaused {... */\n      jump\t// out\n        /* \"identity_flattened.sol\":7197:7319  function isAddressClaimed(address claimant) public view returns (bool) {... */\n    tag_18:\n        /* \"identity_flattened.sol\":7262:7266  bool */\n      0x00\n        /* \"identity_flattened.sol\":7285:7302  _claimedAddresses */\n      0x01\n        /* \"identity_flattened.sol\":7285:7312  _claimedAddresses[claimant] */\n      0x00\n        /* \"identity_flattened.sol\":7303:7311  claimant */\n      dup4\n        /* \"identity_flattened.sol\":7285:7312  _claimedAddresses[claimant] */\n      0xffffffffffffffffffffffffffffffffffffffff\n      and\n      0xffffffffffffffffffffffffffffffffffffffff\n      and\n      dup2\n      mstore\n      0x20\n      add\n      swap1\n      dup2\n      mstore\n      0x20\n      add\n      0x00\n      keccak256\n      0x00\n      swap1\n      sload\n      swap1\n      0x0100\n      exp\n      swap1\n      div\n      0xff\n      and\n        /* \"identity_flattened.sol\":7278:7312  return _claimedAddresses[claimant] */\n      swap1\n      pop\n        /* \"identity_flattened.sol\":7197:7319  function isAddressClaimed(address claimant) public view returns (bool) {... */\n      swap2\n      swap1\n      pop\n      jump\t// out\n        /* \"identity_flattened.sol\":7766:7829  function unpause() public onlyOwner {... */\n    tag_22:\n        /* \"identity_flattened.sol\":2493:2506  _checkOwner() */\n      tag_48\n        /* \"identity_flattened.sol\":2493:2504  _checkOwner */\n      tag_49\n        /* \"identity_flattened.sol\":2493:2506  _checkOwner() */\n      jump\t// in\n    tag_48:\n        /* \"identity_flattened.sol\":7812:7822  _unpause() */\n      tag_51\n        /* \"identity_flattened.sol\":7812:7820  _unpause */\n      tag_52\n        /* \"identity_flattened.sol\":7812:7822  _unpause() */\n      jump\t// in\n    tag_51:\n        /* \"identity_flattened.sol\":7766:7829  function unpause() public onlyOwner {... */\n      jump\t// out\n        /* \"identity_flattened.sol\":5674:5758  function paused() public view virtual returns (bool) {... */\n    tag_24:\n        /* \"identity_flattened.sol\":5721:5725  bool */\n      0x00\n        /* \"identity_flattened.sol\":5744:5751  _paused */\n      dup1\n      0x14\n      swap1\n      sload\n      swap1\n      0x0100\n      exp\n      swap1\n      div\n      0xff\n      and\n        /* \"identity_flattened.sol\":5737:5751  return _paused */\n      swap1\n      pop\n        /* \"identity_flattened.sol\":5674:5758  function paused() public view virtual returns (bool) {... */\n      swap1\n      jump\t// out\n        /* \"identity_flattened.sol\":3255:3356  function renounceOwnership() public virtual onlyOwner {... */\n    tag_27:\n        /* \"identity_flattened.sol\":2493:2506  _checkOwner() */\n      tag_55\n        /* \"identity_flattened.sol\":2493:2504  _checkOwner */\n      tag_49\n        /* \"identity_flattened.sol\":2493:2506  _checkOwner() */\n      jump\t// in\n    tag_55:\n        /* \"identity_flattened.sol\":3319:3349  _transferOwnership(address(0)) */\n      tag_57\n        /* \"identity_flattened.sol\":3346:3347  0 */\n      0x00\n        /* \"identity_flattened.sol\":3319:3337  _transferOwnership */\n      tag_58\n        /* \"identity_flattened.sol\":3319:3349  _transferOwnership(address(0)) */\n      jump\t// in\n    tag_57:\n        /* \"identity_flattened.sol\":3255:3356  function renounceOwnership() public virtual onlyOwner {... */\n      jump\t// out\n        /* \"identity_flattened.sol\":7626:7685  function pause() public onlyOwner {... */\n    tag_29:\n        /* \"identity_flattened.sol\":2493:2506  _checkOwner() */\n      tag_60\n        /* \"identity_flattened.sol\":2493:2504  _checkOwner */\n      tag_49\n        /* \"identity_flattened.sol\":2493:2506  _checkOwner() */\n      jump\t// in\n    tag_60:\n        /* \"identity_flattened.sol\":7670:7678  _pause() */\n      tag_62\n        /* \"identity_flattened.sol\":7670:7676  _pause */\n      tag_63\n        /* \"identity_flattened.sol\":7670:7678  _pause() */\n      jump\t// in\n    tag_62:\n        /* \"identity_flattened.sol\":7626:7685  function pause() public onlyOwner {... */\n      jump\t// out\n        /* \"identity_flattened.sol\":2600:2685  function owner() public view virtual returns (address) {... */\n    tag_31:\n        /* \"identity_flattened.sol\":2646:2653  address */\n      0x00\n        /* \"identity_flattened.sol\":2672:2678  _owner */\n      dup1\n      0x00\n      swap1\n      sload\n      swap1\n      0x0100\n      exp\n      swap1\n      div\n      0xffffffffffffffffffffffffffffffffffffffff\n      and\n        /* \"identity_flattened.sol\":2665:2678  return _owner */\n      swap1\n      pop\n        /* \"identity_flattened.sol\":2600:2685  function owner() public view virtual returns (address) {... */\n      swap1\n      jump\t// out\n        /* \"identity_flattened.sol\":7375:7547  function unclaimAddress() public whenNotPaused {... */\n    tag_35:\n        /* \"identity_flattened.sol\":5298:5317  _requireNotPaused() */\n      tag_66\n        /* \"identity_flattened.sol\":5298:5315  _requireNotPaused */\n      tag_41\n        /* \"identity_flattened.sol\":5298:5317  _requireNotPaused() */\n      jump\t// in\n    tag_66:\n        /* \"identity_flattened.sol\":7440:7457  _claimedAddresses */\n      0x01\n        /* \"identity_flattened.sol\":7440:7469  _claimedAddresses[msg.sender] */\n      0x00\n        /* \"identity_flattened.sol\":7458:7468  msg.sender */\n      caller\n        /* \"identity_flattened.sol\":7440:7469  _claimedAddresses[msg.sender] */\n      0xffffffffffffffffffffffffffffffffffffffff\n      and\n      0xffffffffffffffffffffffffffffffffffffffff\n      and\n      dup2\n      mstore\n      0x20\n      add\n      swap1\n      dup2\n      mstore\n      0x20\n      add\n      0x00\n      keccak256\n      0x00\n      swap1\n      sload\n      swap1\n      0x0100\n      exp\n      swap1\n      div\n      0xff\n      and\n        /* \"identity_flattened.sol\":7432:7493  require(_claimedAddresses[msg.sender], \"Address not claimed\") */\n      tag_68\n      jumpi\n      mload(0x40)\n      0x08c379a000000000000000000000000000000000000000000000000000000000\n      dup2\n      mstore\n      0x04\n      add\n      tag_69\n      swap1\n      tag_70\n      jump\t// in\n    tag_69:\n      mload(0x40)\n      dup1\n      swap2\n      sub\n      swap1\n      revert\n    tag_68:\n        /* \"identity_flattened.sol\":7535:7540  false */\n      0x00\n        /* \"identity_flattened.sol\":7503:7520  _claimedAddresses */\n      0x01\n        /* \"identity_flattened.sol\":7503:7532  _claimedAddresses[msg.sender] */\n      0x00\n        /* \"identity_flattened.sol\":7521:7531  msg.sender */\n      caller\n        /* \"identity_flattened.sol\":7503:7532  _claimedAddresses[msg.sender] */\n      0xffffffffffffffffffffffffffffffffffffffff\n      and\n      0xffffffffffffffffffffffffffffffffffffffff\n      and\n      dup2\n      mstore\n      0x20\n      add\n      swap1\n      dup2\n      mstore\n      0x20\n      add\n      0x00\n      keccak256\n      0x00\n        /* \"identity_flattened.sol\":7503:7540  _claimedAddresses[msg.sender] = false */\n      0x0100\n      exp\n      dup2\n      sload\n      dup2\n      0xff\n      mul\n      not\n      and\n      swap1\n      dup4\n      iszero\n      iszero\n      mul\n      or\n      swap1\n      sstore\n      pop\n        /* \"identity_flattened.sol\":7375:7547  function unclaimAddress() public whenNotPaused {... */\n      jump\t// out\n        /* \"identity_flattened.sol\":3505:3720  function transferOwnership(address newOwner) public virtual onlyOwner {... */\n    tag_38:\n        /* \"identity_flattened.sol\":2493:2506  _checkOwner() */\n      tag_72\n        /* \"identity_flattened.sol\":2493:2504  _checkOwner */\n      tag_49\n        /* \"identity_flattened.sol\":2493:2506  _checkOwner() */\n      jump\t// in\n    tag_72:\n        /* \"identity_flattened.sol\":3609:3610  0 */\n      0x00\n        /* \"identity_flattened.sol\":3589:3611  newOwner == address(0) */\n      0xffffffffffffffffffffffffffffffffffffffff\n      and\n        /* \"identity_flattened.sol\":3589:3597  newOwner */\n      dup2\n        /* \"identity_flattened.sol\":3589:3611  newOwner == address(0) */\n      0xffffffffffffffffffffffffffffffffffffffff\n      and\n      sub\n        /* \"identity_flattened.sol\":3585:3676  if (newOwner == address(0)) {... */\n      tag_74\n      jumpi\n        /* \"identity_flattened.sol\":3662:3663  0 */\n      0x00\n        /* \"identity_flattened.sol\":3634:3665  OwnableInvalidOwner(address(0)) */\n      mload(0x40)\n      0x1e4fbdf700000000000000000000000000000000000000000000000000000000\n      dup2\n      mstore\n      0x04\n      add\n      tag_75\n      swap2\n      swap1\n      tag_33\n      jump\t// in\n    tag_75:\n      mload(0x40)\n      dup1\n      swap2\n      sub\n      swap1\n      revert\n        /* \"identity_flattened.sol\":3585:3676  if (newOwner == address(0)) {... */\n    tag_74:\n        /* \"identity_flattened.sol\":3685:3713  _transferOwnership(newOwner) */\n      tag_76\n        /* \"identity_flattened.sol\":3704:3712  newOwner */\n      dup2\n        /* \"identity_flattened.sol\":3685:3703  _transferOwnership */\n      tag_58\n        /* \"identity_flattened.sol\":3685:3713  _transferOwnership(newOwner) */\n      jump\t// in\n    tag_76:\n        /* \"identity_flattened.sol\":3505:3720  function transferOwnership(address newOwner) public virtual onlyOwner {... */\n      pop\n      jump\t// out\n        /* \"identity_flattened.sol\":5826:5932  function _requireNotPaused() internal view virtual {... */\n    tag_41:\n        /* \"identity_flattened.sol\":5896:5904  paused() */\n      tag_78\n        /* \"identity_flattened.sol\":5896:5902  paused */\n      tag_24\n        /* \"identity_flattened.sol\":5896:5904  paused() */\n      jump\t// in\n    tag_78:\n        /* \"identity_flattened.sol\":5895:5904  !paused() */\n      iszero\n        /* \"identity_flattened.sol\":5887:5925  require(!paused(), \"Pausable: paused\") */\n      tag_79\n      jumpi\n      mload(0x40)\n      0x08c379a000000000000000000000000000000000000000000000000000000000\n      dup2\n      mstore\n      0x04\n      add\n      tag_80\n      swap1\n      tag_81\n      jump\t// in\n    tag_80:\n      mload(0x40)\n      dup1\n      swap2\n      sub\n      swap1\n      revert\n    tag_79:\n        /* \"identity_flattened.sol\":5826:5932  function _requireNotPaused() internal view virtual {... */\n      jump\t// out\n        /* \"identity_flattened.sol\":2758:2920  function _checkOwner() internal view virtual {... */\n    tag_49:\n        /* \"identity_flattened.sol\":2828:2840  _msgSender() */\n      tag_83\n        /* \"identity_flattened.sol\":2828:2838  _msgSender */\n      tag_84\n        /* \"identity_flattened.sol\":2828:2840  _msgSender() */\n      jump\t// in\n    tag_83:\n        /* \"identity_flattened.sol\":2817:2840  owner() != _msgSender() */\n      0xffffffffffffffffffffffffffffffffffffffff\n      and\n        /* \"identity_flattened.sol\":2817:2824  owner() */\n      tag_85\n        /* \"identity_flattened.sol\":2817:2822  owner */\n      tag_31\n        /* \"identity_flattened.sol\":2817:2824  owner() */\n      jump\t// in\n    tag_85:\n        /* \"identity_flattened.sol\":2817:2840  owner() != _msgSender() */\n      0xffffffffffffffffffffffffffffffffffffffff\n      and\n      eq\n        /* \"identity_flattened.sol\":2813:2914  if (owner() != _msgSender()) {... */\n      tag_86\n      jumpi\n        /* \"identity_flattened.sol\":2890:2902  _msgSender() */\n      tag_87\n        /* \"identity_flattened.sol\":2890:2900  _msgSender */\n      tag_84\n        /* \"identity_flattened.sol\":2890:2902  _msgSender() */\n      jump\t// in\n    tag_87:\n        /* \"identity_flattened.sol\":2863:2903  OwnableUnauthorizedAccount(_msgSender()) */\n      mload(0x40)\n      0x118cdaa700000000000000000000000000000000000000000000000000000000\n      dup2\n      mstore\n      0x04\n      add\n      tag_88\n      swap2\n      swap1\n      tag_33\n      jump\t// in\n    tag_88:\n      mload(0x40)\n      dup1\n      swap2\n      sub\n      swap1\n      revert\n        /* \"identity_flattened.sol\":2813:2914  if (owner() != _msgSender()) {... */\n    tag_86:\n        /* \"identity_flattened.sol\":2758:2920  function _checkOwner() internal view virtual {... */\n      jump\t// out\n        /* \"identity_flattened.sol\":6492:6609  function _unpause() internal virtual whenPaused {... */\n    tag_52:\n        /* \"identity_flattened.sol\":5545:5561  _requirePaused() */\n      tag_90\n        /* \"identity_flattened.sol\":5545:5559  _requirePaused */\n      tag_91\n        /* \"identity_flattened.sol\":5545:5561  _requirePaused() */\n      jump\t// in\n    tag_90:\n        /* \"identity_flattened.sol\":6560:6565  false */\n      0x00\n        /* \"identity_flattened.sol\":6550:6557  _paused */\n      dup1\n      0x14\n        /* \"identity_flattened.sol\":6550:6565  _paused = false */\n      0x0100\n      exp\n      dup2\n      sload\n      dup2\n      0xff\n      mul\n      not\n      and\n      swap1\n      dup4\n      iszero\n      iszero\n      mul\n      or\n      swap1\n      sstore\n      pop\n        /* \"identity_flattened.sol\":6580:6602  Unpaused(_msgSender()) */\n      0x5db9ee0a495bf2e6ff9c91a7834c1ba4fdd244a5e8aa4e537bd38aeae4b073aa\n        /* \"identity_flattened.sol\":6589:6601  _msgSender() */\n      tag_93\n        /* \"identity_flattened.sol\":6589:6599  _msgSender */\n      tag_84\n        /* \"identity_flattened.sol\":6589:6601  _msgSender() */\n      jump\t// in\n    tag_93:\n        /* \"identity_flattened.sol\":6580:6602  Unpaused(_msgSender()) */\n      mload(0x40)\n      tag_94\n      swap2\n      swap1\n      tag_33\n      jump\t// in\n    tag_94:\n      mload(0x40)\n      dup1\n      swap2\n      sub\n      swap1\n      log1\n        /* \"identity_flattened.sol\":6492:6609  function _unpause() internal virtual whenPaused {... */\n      jump\t// out\n        /* \"identity_flattened.sol\":3874:4061  function _transferOwnership(address newOwner) internal virtual {... */\n    tag_58:\n        /* \"identity_flattened.sol\":3947:3963  address oldOwner */\n      0x00\n        /* \"identity_flattened.sol\":3966:3972  _owner */\n      dup1\n      0x00\n      swap1\n      sload\n      swap1\n      0x0100\n      exp\n      swap1\n      div\n      0xffffffffffffffffffffffffffffffffffffffff\n      and\n        /* \"identity_flattened.sol\":3947:3972  address oldOwner = _owner */\n      swap1\n      pop\n        /* \"identity_flattened.sol\":3991:3999  newOwner */\n      dup2\n        /* \"identity_flattened.sol\":3982:3988  _owner */\n      0x00\n      dup1\n        /* \"identity_flattened.sol\":3982:3999  _owner = newOwner */\n      0x0100\n      exp\n      dup2\n      sload\n      dup2\n      0xffffffffffffffffffffffffffffffffffffffff\n      mul\n      not\n      and\n      swap1\n      dup4\n      0xffffffffffffffffffffffffffffffffffffffff\n      and\n      mul\n      or\n      swap1\n      sstore\n      pop\n        /* \"identity_flattened.sol\":4045:4053  newOwner */\n      dup2\n        /* \"identity_flattened.sol\":4014:4054  OwnershipTransferred(oldOwner, newOwner) */\n      0xffffffffffffffffffffffffffffffffffffffff\n      and\n        /* \"identity_flattened.sol\":4035:4043  oldOwner */\n      dup2\n        /* \"identity_flattened.sol\":4014:4054  OwnershipTransferred(oldOwner, newOwner) */\n      0xffffffffffffffffffffffffffffffffffffffff\n      and\n      0x8be0079c531659141344cd1fd0a4f28419497f9722a3daafe3b4186f6b6457e0\n      mload(0x40)\n      mload(0x40)\n      dup1\n      swap2\n      sub\n      swap1\n      log3\n        /* \"identity_flattened.sol\":3937:4061  {... */\n      pop\n        /* \"identity_flattened.sol\":3874:4061  function _transferOwnership(address newOwner) internal virtual {... */\n      pop\n      jump\t// out\n        /* \"identity_flattened.sol\":6245:6360  function _pause() internal virtual whenNotPaused {... */\n    tag_63:\n        /* \"identity_flattened.sol\":5298:5317  _requireNotPaused() */\n      tag_97\n        /* \"identity_flattened.sol\":5298:5315  _requireNotPaused */\n      tag_41\n        /* \"identity_flattened.sol\":5298:5317  _requireNotPaused() */\n      jump\t// in\n    tag_97:\n        /* \"identity_flattened.sol\":6314:6318  true */\n      0x01\n        /* \"identity_flattened.sol\":6304:6311  _paused */\n      0x00\n      0x14\n        /* \"identity_flattened.sol\":6304:6318  _paused = true */\n      0x0100\n      exp\n      dup2\n      sload\n      dup2\n      0xff\n      mul\n      not\n      and\n      swap1\n      dup4\n      iszero\n      iszero\n      mul\n      or\n      swap1\n      sstore\n      pop\n        /* \"identity_flattened.sol\":6333:6353  Paused(_msgSender()) */\n      0x62e78cea01bee320cd4e420270b5ea74000d11b0c9f74754ebdbfc544b05a258\n        /* \"identity_flattened.sol\":6340:6352  _msgSender() */\n      tag_99\n        /* \"identity_flattened.sol\":6340:6350  _msgSender */\n      tag_84\n        /* \"identity_flattened.sol\":6340:6352  _msgSender() */\n      jump\t// in\n    tag_99:\n        /* \"identity_flattened.sol\":6333:6353  Paused(_msgSender()) */\n      mload(0x40)\n      tag_100\n      swap2\n      swap1\n      tag_33\n      jump\t// in\n    tag_100:\n      mload(0x40)\n      dup1\n      swap2\n      sub\n      swap1\n      log1\n        /* \"identity_flattened.sol\":6245:6360  function _pause() internal virtual whenNotPaused {... */\n      jump\t// out\n        /* \"identity_flattened.sol\":678:774  function _msgSender() internal view virtual returns (address) {... */\n    tag_84:\n        /* \"identity_flattened.sol\":731:738  address */\n      0x00\n        /* \"identity_flattened.sol\":757:767  msg.sender */\n      caller\n        /* \"identity_flattened.sol\":750:767  return msg.sender */\n      swap1\n      pop\n        /* \"identity_flattened.sol\":678:774  function _msgSender() internal view virtual returns (address) {... */\n      swap1\n      jump\t// out\n        /* \"identity_flattened.sol\":6004:6110  function _requirePaused() internal view virtual {... */\n    tag_91:\n        /* \"identity_flattened.sol\":6070:6078  paused() */\n      tag_103\n        /* \"identity_flattened.sol\":6070:6076  paused */\n      tag_24\n        /* \"identity_flattened.sol\":6070:6078  paused() */\n      jump\t// in\n    tag_103:\n        /* \"identity_flattened.sol\":6062:6103  require(paused(), \"Pausable: not paused\") */\n      tag_104\n      jumpi\n      mload(0x40)\n      0x08c379a000000000000000000000000000000000000000000000000000000000\n      dup2\n      mstore\n      0x04\n      add\n      tag_105\n      swap1\n      tag_106\n      jump\t// in\n    tag_105:\n      mload(0x40)\n      dup1\n      swap2\n      sub\n      swap1\n      revert\n    tag_104:\n        /* \"identity_flattened.sol\":6004:6110  function _requirePaused() internal view virtual {... */\n      jump\t// out\n        /* \"#utility.yul\":88:205   */\n    tag_108:\n        /* \"#utility.yul\":197:198   */\n      0x00\n        /* \"#utility.yul\":194:195   */\n      dup1\n        /* \"#utility.yul\":187:199   */\n      revert\n        /* \"#utility.yul\":334:460   */\n    tag_110:\n        /* \"#utility.yul\":371:378   */\n      0x00\n        /* \"#utility.yul\":411:453   */\n      0xffffffffffffffffffffffffffffffffffffffff\n        /* \"#utility.yul\":404:409   */\n      dup3\n        /* \"#utility.yul\":400:454   */\n      and\n        /* \"#utility.yul\":389:454   */\n      swap1\n      pop\n        /* \"#utility.yul\":334:460   */\n      swap2\n      swap1\n      pop\n      jump\t// out\n        /* \"#utility.yul\":466:562   */\n    tag_111:\n        /* \"#utility.yul\":503:510   */\n      0x00\n        /* \"#utility.yul\":532:556   */\n      tag_132\n        /* \"#utility.yul\":550:555   */\n      dup3\n        /* \"#utility.yul\":532:556   */\n      tag_110\n      jump\t// in\n    tag_132:\n        /* \"#utility.yul\":521:556   */\n      swap1\n      pop\n        /* \"#utility.yul\":466:562   */\n      swap2\n      swap1\n      pop\n      jump\t// out\n        /* \"#utility.yul\":568:690   */\n    tag_112:\n        /* \"#utility.yul\":641:665   */\n      tag_134\n        /* \"#utility.yul\":659:664   */\n      dup2\n        /* \"#utility.yul\":641:665   */\n      tag_111\n      jump\t// in\n    tag_134:\n        /* \"#utility.yul\":634:639   */\n      dup2\n        /* \"#utility.yul\":631:666   */\n      eq\n        /* \"#utility.yul\":621:684   */\n      tag_135\n      jumpi\n        /* \"#utility.yul\":680:681   */\n      0x00\n        /* \"#utility.yul\":677:678   */\n      dup1\n        /* \"#utility.yul\":670:682   */\n      revert\n        /* \"#utility.yul\":621:684   */\n    tag_135:\n        /* \"#utility.yul\":568:690   */\n      pop\n      jump\t// out\n        /* \"#utility.yul\":696:835   */\n    tag_113:\n        /* \"#utility.yul\":742:747   */\n      0x00\n        /* \"#utility.yul\":780:786   */\n      dup2\n        /* \"#utility.yul\":767:787   */\n      calldataload\n        /* \"#utility.yul\":758:787   */\n      swap1\n      pop\n        /* \"#utility.yul\":796:829   */\n      tag_137\n        /* \"#utility.yul\":823:828   */\n      dup2\n        /* \"#utility.yul\":796:829   */\n      tag_112\n      jump\t// in\n    tag_137:\n        /* \"#utility.yul\":696:835   */\n      swap3\n      swap2\n      pop\n      pop\n      jump\t// out\n        /* \"#utility.yul\":841:1170   */\n    tag_17:\n        /* \"#utility.yul\":900:906   */\n      0x00\n        /* \"#utility.yul\":949:951   */\n      0x20\n        /* \"#utility.yul\":937:946   */\n      dup3\n        /* \"#utility.yul\":928:935   */\n      dup5\n        /* \"#utility.yul\":924:947   */\n      sub\n        /* \"#utility.yul\":920:952   */\n      slt\n        /* \"#utility.yul\":917:1036   */\n      iszero\n      tag_139\n      jumpi\n        /* \"#utility.yul\":955:1034   */\n      tag_140\n      tag_108\n      jump\t// in\n    tag_140:\n        /* \"#utility.yul\":917:1036   */\n    tag_139:\n        /* \"#utility.yul\":1075:1076   */\n      0x00\n        /* \"#utility.yul\":1100:1153   */\n      tag_141\n        /* \"#utility.yul\":1145:1152   */\n      dup5\n        /* \"#utility.yul\":1136:1142   */\n      dup3\n        /* \"#utility.yul\":1125:1134   */\n      dup6\n        /* \"#utility.yul\":1121:1143   */\n      add\n        /* \"#utility.yul\":1100:1153   */\n      tag_113\n      jump\t// in\n    tag_141:\n        /* \"#utility.yul\":1090:1153   */\n      swap2\n      pop\n        /* \"#utility.yul\":1046:1163   */\n      pop\n        /* \"#utility.yul\":841:1170   */\n      swap3\n      swap2\n      pop\n      pop\n      jump\t// out\n        /* \"#utility.yul\":1176:1266   */\n    tag_114:\n        /* \"#utility.yul\":1210:1217   */\n      0x00\n        /* \"#utility.yul\":1253:1258   */\n      dup2\n        /* \"#utility.yul\":1246:1259   */\n      iszero\n        /* \"#utility.yul\":1239:1260   */\n      iszero\n        /* \"#utility.yul\":1228:1260   */\n      swap1\n      pop\n        /* \"#utility.yul\":1176:1266   */\n      swap2\n      swap1\n      pop\n      jump\t// out\n        /* \"#utility.yul\":1272:1381   */\n    tag_115:\n        /* \"#utility.yul\":1353:1374   */\n      tag_144\n        /* \"#utility.yul\":1368:1373   */\n      dup2\n        /* \"#utility.yul\":1353:1374   */\n      tag_114\n      jump\t// in\n    tag_144:\n        /* \"#utility.yul\":1348:1351   */\n      dup3\n        /* \"#utility.yul\":1341:1375   */\n      mstore\n        /* \"#utility.yul\":1272:1381   */\n      pop\n      pop\n      jump\t// out\n        /* \"#utility.yul\":1387:1597   */\n    tag_20:\n        /* \"#utility.yul\":1474:1478   */\n      0x00\n        /* \"#utility.yul\":1512:1514   */\n      0x20\n        /* \"#utility.yul\":1501:1510   */\n      dup3\n        /* \"#utility.yul\":1497:1515   */\n      add\n        /* \"#utility.yul\":1489:1515   */\n      swap1\n      pop\n        /* \"#utility.yul\":1525:1590   */\n      tag_146\n        /* \"#utility.yul\":1587:1588   */\n      0x00\n        /* \"#utility.yul\":1576:1585   */\n      dup4\n        /* \"#utility.yul\":1572:1589   */\n      add\n        /* \"#utility.yul\":1563:1569   */\n      dup5\n        /* \"#utility.yul\":1525:1590   */\n      tag_115\n      jump\t// in\n    tag_146:\n        /* \"#utility.yul\":1387:1597   */\n      swap3\n      swap2\n      pop\n      pop\n      jump\t// out\n        /* \"#utility.yul\":1603:1721   */\n    tag_116:\n        /* \"#utility.yul\":1690:1714   */\n      tag_148\n        /* \"#utility.yul\":1708:1713   */\n      dup2\n        /* \"#utility.yul\":1690:1714   */\n      tag_111\n      jump\t// in\n    tag_148:\n        /* \"#utility.yul\":1685:1688   */\n      dup3\n        /* \"#utility.yul\":1678:1715   */\n      mstore\n        /* \"#utility.yul\":1603:1721   */\n      pop\n      pop\n      jump\t// out\n        /* \"#utility.yul\":1727:1949   */\n    tag_33:\n        /* \"#utility.yul\":1820:1824   */\n      0x00\n        /* \"#utility.yul\":1858:1860   */\n      0x20\n        /* \"#utility.yul\":1847:1856   */\n      dup3\n        /* \"#utility.yul\":1843:1861   */\n      add\n        /* \"#utility.yul\":1835:1861   */\n      swap1\n      pop\n        /* \"#utility.yul\":1871:1942   */\n      tag_150\n        /* \"#utility.yul\":1939:1940   */\n      0x00\n        /* \"#utility.yul\":1928:1937   */\n      dup4\n        /* \"#utility.yul\":1924:1941   */\n      add\n        /* \"#utility.yul\":1915:1921   */\n      dup5\n        /* \"#utility.yul\":1871:1942   */\n      tag_116\n      jump\t// in\n    tag_150:\n        /* \"#utility.yul\":1727:1949   */\n      swap3\n      swap2\n      pop\n      pop\n      jump\t// out\n        /* \"#utility.yul\":1955:2124   */\n    tag_117:\n        /* \"#utility.yul\":2039:2050   */\n      0x00\n        /* \"#utility.yul\":2073:2079   */\n      dup3\n        /* \"#utility.yul\":2068:2071   */\n      dup3\n        /* \"#utility.yul\":2061:2080   */\n      mstore\n        /* \"#utility.yul\":2113:2117   */\n      0x20\n        /* \"#utility.yul\":2108:2111   */\n      dup3\n        /* \"#utility.yul\":2104:2118   */\n      add\n        /* \"#utility.yul\":2089:2118   */\n      swap1\n      pop\n        /* \"#utility.yul\":1955:2124   */\n      swap3\n      swap2\n      pop\n      pop\n      jump\t// out\n        /* \"#utility.yul\":2130:2303   */\n    tag_118:\n        /* \"#utility.yul\":2270:2295   */\n      0x4164647265737320616c726561647920636c61696d6564000000000000000000\n        /* \"#utility.yul\":2266:2267   */\n      0x00\n        /* \"#utility.yul\":2258:2264   */\n      dup3\n        /* \"#utility.yul\":2254:2268   */\n      add\n        /* \"#utility.yul\":2247:2296   */\n      mstore\n        /* \"#utility.yul\":2130:2303   */\n      pop\n      jump\t// out\n        /* \"#utility.yul\":2309:2675   */\n    tag_119:\n        /* \"#utility.yul\":2451:2454   */\n      0x00\n        /* \"#utility.yul\":2472:2539   */\n      tag_154\n        /* \"#utility.yul\":2536:2538   */\n      0x17\n        /* \"#utility.yul\":2531:2534   */\n      dup4\n        /* \"#utility.yul\":2472:2539   */\n      tag_117\n      jump\t// in\n    tag_154:\n        /* \"#utility.yul\":2465:2539   */\n      swap2\n      pop\n        /* \"#utility.yul\":2548:2641   */\n      tag_155\n        /* \"#utility.yul\":2637:2640   */\n      dup3\n        /* \"#utility.yul\":2548:2641   */\n      tag_118\n      jump\t// in\n    tag_155:\n        /* \"#utility.yul\":2666:2668   */\n      0x20\n        /* \"#utility.yul\":2661:2664   */\n      dup3\n        /* \"#utility.yul\":2657:2669   */\n      add\n        /* \"#utility.yul\":2650:2669   */\n      swap1\n      pop\n        /* \"#utility.yul\":2309:2675   */\n      swap2\n      swap1\n      pop\n      jump\t// out\n        /* \"#utility.yul\":2681:3100   */\n    tag_45:\n        /* \"#utility.yul\":2847:2851   */\n      0x00\n        /* \"#utility.yul\":2885:2887   */\n      0x20\n        /* \"#utility.yul\":2874:2883   */\n      dup3\n        /* \"#utility.yul\":2870:2888   */\n      add\n        /* \"#utility.yul\":2862:2888   */\n      swap1\n      pop\n        /* \"#utility.yul\":2934:2943   */\n      dup2\n        /* \"#utility.yul\":2928:2932   */\n      dup2\n        /* \"#utility.yul\":2924:2944   */\n      sub\n        /* \"#utility.yul\":2920:2921   */\n      0x00\n        /* \"#utility.yul\":2909:2918   */\n      dup4\n        /* \"#utility.yul\":2905:2922   */\n      add\n        /* \"#utility.yul\":2898:2945   */\n      mstore\n        /* \"#utility.yul\":2962:3093   */\n      tag_157\n        /* \"#utility.yul\":3088:3092   */\n      dup2\n        /* \"#utility.yul\":2962:3093   */\n      tag_119\n      jump\t// in\n    tag_157:\n        /* \"#utility.yul\":2954:3093   */\n      swap1\n      pop\n        /* \"#utility.yul\":2681:3100   */\n      swap2\n      swap1\n      pop\n      jump\t// out\n        /* \"#utility.yul\":3106:3275   */\n    tag_120:\n        /* \"#utility.yul\":3246:3267   */\n      0x41646472657373206e6f7420636c61696d656400000000000000000000000000\n        /* \"#utility.yul\":3242:3243   */\n      0x00\n        /* \"#utility.yul\":3234:3240   */\n      dup3\n        /* \"#utility.yul\":3230:3244   */\n      add\n        /* \"#utility.yul\":3223:3268   */\n      mstore\n        /* \"#utility.yul\":3106:3275   */\n      pop\n      jump\t// out\n        /* \"#utility.yul\":3281:3647   */\n    tag_121:\n        /* \"#utility.yul\":3423:3426   */\n      0x00\n        /* \"#utility.yul\":3444:3511   */\n      tag_160\n        /* \"#utility.yul\":3508:3510   */\n      0x13\n        /* \"#utility.yul\":3503:3506   */\n      dup4\n        /* \"#utility.yul\":3444:3511   */\n      tag_117\n      jump\t// in\n    tag_160:\n        /* \"#utility.yul\":3437:3511   */\n      swap2\n      pop\n        /* \"#utility.yul\":3520:3613   */\n      tag_161\n        /* \"#utility.yul\":3609:3612   */\n      dup3\n        /* \"#utility.yul\":3520:3613   */\n      tag_120\n      jump\t// in\n    tag_161:\n        /* \"#utility.yul\":3638:3640   */\n      0x20\n        /* \"#utility.yul\":3633:3636   */\n      dup3\n        /* \"#utility.yul\":3629:3641   */\n      add\n        /* \"#utility.yul\":3622:3641   */\n      swap1\n      pop\n        /* \"#utility.yul\":3281:3647   */\n      swap2\n      swap1\n      pop\n      jump\t// out\n        /* \"#utility.yul\":3653:4072   */\n    tag_70:\n        /* \"#utility.yul\":3819:3823   */\n      0x00\n        /* \"#utility.yul\":3857:3859   */\n      0x20\n        /* \"#utility.yul\":3846:3855   */\n      dup3\n        /* \"#utility.yul\":3842:3860   */\n      add\n        /* \"#utility.yul\":3834:3860   */\n      swap1\n      pop\n        /* \"#utility.yul\":3906:3915   */\n      dup2\n        /* \"#utility.yul\":3900:3904   */\n      dup2\n        /* \"#utility.yul\":3896:3916   */\n      sub\n        /* \"#utility.yul\":3892:3893   */\n      0x00\n        /* \"#utility.yul\":3881:3890   */\n      dup4\n        /* \"#utility.yul\":3877:3894   */\n      add\n        /* \"#utility.yul\":3870:3917   */\n      mstore\n        /* \"#utility.yul\":3934:4065   */\n      tag_163\n        /* \"#utility.yul\":4060:4064   */\n      dup2\n        /* \"#utility.yul\":3934:4065   */\n      tag_121\n      jump\t// in\n    tag_163:\n        /* \"#utility.yul\":3926:4065   */\n      swap1\n      pop\n        /* \"#utility.yul\":3653:4072   */\n      swap2\n      swap1\n      pop\n      jump\t// out\n        /* \"#utility.yul\":4078:4244   */\n    tag_122:\n        /* \"#utility.yul\":4218:4236   */\n      0x5061757361626c653a2070617573656400000000000000000000000000000000\n        /* \"#utility.yul\":4214:4215   */\n      0x00\n        /* \"#utility.yul\":4206:4212   */\n      dup3\n        /* \"#utility.yul\":4202:4216   */\n      add\n        /* \"#utility.yul\":4195:4237   */\n      mstore\n        /* \"#utility.yul\":4078:4244   */\n      pop\n      jump\t// out\n        /* \"#utility.yul\":4250:4616   */\n    tag_123:\n        /* \"#utility.yul\":4392:4395   */\n      0x00\n        /* \"#utility.yul\":4413:4480   */\n      tag_166\n        /* \"#utility.yul\":4477:4479   */\n      0x10\n        /* \"#utility.yul\":4472:4475   */\n      dup4\n        /* \"#utility.yul\":4413:4480   */\n      tag_117\n      jump\t// in\n    tag_166:\n        /* \"#utility.yul\":4406:4480   */\n      swap2\n      pop\n        /* \"#utility.yul\":4489:4582   */\n      tag_167\n        /* \"#utility.yul\":4578:4581   */\n      dup3\n        /* \"#utility.yul\":4489:4582   */\n      tag_122\n      jump\t// in\n    tag_167:\n        /* \"#utility.yul\":4607:4609   */\n      0x20\n        /* \"#utility.yul\":4602:4605   */\n      dup3\n        /* \"#utility.yul\":4598:4610   */\n      add\n        /* \"#utility.yul\":4591:4610   */\n      swap1\n      pop\n        /* \"#utility.yul\":4250:4616   */\n      swap2\n      swap1\n      pop\n      jump\t// out\n        /* \"#utility.yul\":4622:5041   */\n    tag_81:\n        /* \"#utility.yul\":4788:4792   */\n      0x00\n        /* \"#utility.yul\":4826:4828   */\n      0x20\n        /* \"#utility.yul\":4815:4824   */\n      dup3\n        /* \"#utility.yul\":4811:4829   */\n      add\n        /* \"#utility.yul\":4803:4829   */\n      swap1\n      pop\n        /* \"#utility.yul\":4875:4884   */\n      dup2\n        /* \"#utility.yul\":4869:4873   */\n      dup2\n        /* \"#utility.yul\":4865:4885   */\n      sub\n        /* \"#utility.yul\":4861:4862   */\n      0x00\n        /* \"#utility.yul\":4850:4859   */\n      dup4\n        /* \"#utility.yul\":4846:4863   */\n      add\n        /* \"#utility.yul\":4839:4886   */\n      mstore\n        /* \"#utility.yul\":4903:5034   */\n      tag_169\n        /* \"#utility.yul\":5029:5033   */\n      dup2\n        /* \"#utility.yul\":4903:5034   */\n      tag_123\n      jump\t// in\n    tag_169:\n        /* \"#utility.yul\":4895:5034   */\n      swap1\n      pop\n        /* \"#utility.yul\":4622:5041   */\n      swap2\n      swap1\n      pop\n      jump\t// out\n        /* \"#utility.yul\":5047:5217   */\n    tag_124:\n        /* \"#utility.yul\":5187:5209   */\n      0x5061757361626c653a206e6f7420706175736564000000000000000000000000\n        /* \"#utility.yul\":5183:5184   */\n      0x00\n        /* \"#utility.yul\":5175:5181   */\n      dup3\n        /* \"#utility.yul\":5171:5185   */\n      add\n        /* \"#utility.yul\":5164:5210   */\n      mstore\n        /* \"#utility.yul\":5047:5217   */\n      pop\n      jump\t// out\n        /* \"#utility.yul\":5223:5589   */\n    tag_125:\n        /* \"#utility.yul\":5365:5368   */\n      0x00\n        /* \"#utility.yul\":5386:5453   */\n      tag_172\n        /* \"#utility.yul\":5450:5452   */\n      0x14\n        /* \"#utility.yul\":5445:5448   */\n      dup4\n        /* \"#utility.yul\":5386:5453   */\n      tag_117\n      jump\t// in\n    tag_172:\n        /* \"#utility.yul\":5379:5453   */\n      swap2\n      pop\n        /* \"#utility.yul\":5462:5555   */\n      tag_173\n        /* \"#utility.yul\":5551:5554   */\n      dup3\n        /* \"#utility.yul\":5462:5555   */\n      tag_124\n      jump\t// in\n    tag_173:\n        /* \"#utility.yul\":5580:5582   */\n      0x20\n        /* \"#utility.yul\":5575:5578   */\n      dup3\n        /* \"#utility.yul\":5571:5583   */\n      add\n        /* \"#utility.yul\":5564:5583   */\n      swap1\n      pop\n        /* \"#utility.yul\":5223:5589   */\n      swap2\n      swap1\n      pop\n      jump\t// out\n        /* \"#utility.yul\":5595:6014   */\n    tag_106:\n        /* \"#utility.yul\":5761:5765   */\n      0x00\n        /* \"#utility.yul\":5799:5801   */\n      0x20\n        /* \"#utility.yul\":5788:5797   */\n      dup3\n        /* \"#utility.yul\":5784:5802   */\n      add\n        /* \"#utility.yul\":5776:5802   */\n      swap1\n      pop\n        /* \"#utility.yul\":5848:5857   */\n      dup2\n        /* \"#utility.yul\":5842:5846   */\n      dup2\n        /* \"#utility.yul\":5838:5858   */\n      sub\n        /* \"#utility.yul\":5834:5835   */\n      0x00\n        /* \"#utility.yul\":5823:5832   */\n      dup4\n        /* \"#utility.yul\":5819:5836   */\n      add\n        /* \"#utility.yul\":5812:5859   */\n      mstore\n        /* \"#utility.yul\":5876:6007   */\n      tag_175\n        /* \"#utility.yul\":6002:6006   */\n      dup2\n        /* \"#utility.yul\":5876:6007   */\n      tag_125\n      jump\t// in\n    tag_175:\n        /* \"#utility.yul\":5868:6007   */\n      swap1\n      pop\n        /* \"#utility.yul\":5595:6014   */\n      swap2\n      swap1\n      pop\n      jump\t// out\n\n    auxdata: 0xa2646970667358221220a3c2987e87e4f9f53194952a63673e7eeb6eec240e9ac6196f02a7da690af37664736f6c634300081a0033\n}\n",
				"bytecode": {
					"linkReferences": {},
					"object": "608060405234801561000f575f80fd5b50335f73ffffffffffffffffffffffffffffffffffffffff168173ffffffffffffffffffffffffffffffffffffffff1603610081575f6040517f1e4fbdf700000000000000000000000000000000000000000000000000000000815260040161007891906101af565b60405180910390fd5b610090816100af60201b60201c565b505f8060146101000a81548160ff0219169083151502179055506101c8565b5f805f9054906101000a900473ffffffffffffffffffffffffffffffffffffffff169050815f806101000a81548173ffffffffffffffffffffffffffffffffffffffff021916908373ffffffffffffffffffffffffffffffffffffffff1602179055508173ffffffffffffffffffffffffffffffffffffffff168173ffffffffffffffffffffffffffffffffffffffff167f8be0079c531659141344cd1fd0a4f28419497f9722a3daafe3b4186f6b6457e060405160405180910390a35050565b5f73ffffffffffffffffffffffffffffffffffffffff82169050919050565b5f61019982610170565b9050919050565b6101a98161018f565b82525050565b5f6020820190506101c25f8301846101a0565b92915050565b610a19806101d55f395ff3fe608060405234801561000f575f80fd5b5060043610610091575f3560e01c8063715018a611610064578063715018a6146100f75780638456cb59146101015780638da5cb5b1461010b578063c92dbf8514610129578063f2fde38b1461013357610091565b806305691ec8146100955780632b76364e1461009f5780633f4ba83a146100cf5780635c975abb146100d9575b5f80fd5b61009d61014f565b005b6100b960048036038101906100b491906107ad565b61027a565b6040516100c691906107f2565b60405180910390f35b6100d76102cc565b005b6100e16102de565b6040516100ee91906107f2565b60405180910390f35b6100ff6102f3565b005b610109610306565b005b610113610318565b604051610120919061081a565b60405180910390f35b61013161033f565b005b61014d600480360381019061014891906107ad565b610426565b005b6101576104aa565b60015f3373ffffffffffffffffffffffffffffffffffffffff1673ffffffffffffffffffffffffffffffffffffffff1681526020019081526020015f205f9054906101000a900460ff16156101e1576040517f08c379a00000000000000000000000000000000000000000000000000000000081526004016101d89061088d565b60405180910390fd5b6001805f3373ffffffffffffffffffffffffffffffffffffffff1673ffffffffffffffffffffffffffffffffffffffff1681526020019081526020015f205f6101000a81548160ff0219169083151502179055503373ffffffffffffffffffffffffffffffffffffffff167f724e7ff186adc07f81795071386876998e66855c287fc3a53b5dec08e7b6bbd960405160405180910390a2565b5f60015f8373ffffffffffffffffffffffffffffffffffffffff1673ffffffffffffffffffffffffffffffffffffffff1681526020019081526020015f205f9054906101000a900460ff169050919050565b6102d46104f4565b6102dc61057b565b565b5f8060149054906101000a900460ff16905090565b6102fb6104f4565b6103045f6105dc565b565b61030e6104f4565b61031661069d565b565b5f805f9054906101000a900473ffffffffffffffffffffffffffffffffffffffff16905090565b6103476104aa565b60015f3373ffffffffffffffffffffffffffffffffffffffff1673ffffffffffffffffffffffffffffffffffffffff1681526020019081526020015f205f9054906101000a900460ff166103d0576040517f08c379a00000000000000000000000000000000000000000000000000000000081526004016103c7906108f5565b60405180910390fd5b5f60015f3373ffffffffffffffffffffffffffffffffffffffff1673ffffffffffffffffffffffffffffffffffffffff1681526020019081526020015f205f6101000a81548160ff021916908315150217905550565b61042e6104f4565b5f73ffffffffffffffffffffffffffffffffffffffff168173ffffffffffffffffffffffffffffffffffffffff160361049e575f6040517f1e4fbdf7000000000000000000000000000000000000000000000000000000008152600401610495919061081a565b60405180910390fd5b6104a7816105dc565b50565b6104b26102de565b156104f2576040517f08c379a00000000000000000000000000000000000000000000000000000000081526004016104e99061095d565b60405180910390fd5b565b6104fc6106ff565b73ffffffffffffffffffffffffffffffffffffffff1661051a610318565b73ffffffffffffffffffffffffffffffffffffffff16146105795761053d6106ff565b6040517f118cdaa7000000000000000000000000000000000000000000000000000000008152600401610570919061081a565b60405180910390fd5b565b610583610706565b5f8060146101000a81548160ff0219169083151502179055507f5db9ee0a495bf2e6ff9c91a7834c1ba4fdd244a5e8aa4e537bd38aeae4b073aa6105c56106ff565b6040516105d2919061081a565b60405180910390a1565b5f805f9054906101000a900473ffffffffffffffffffffffffffffffffffffffff169050815f806101000a81548173ffffffffffffffffffffffffffffffffffffffff021916908373ffffffffffffffffffffffffffffffffffffffff1602179055508173ffffffffffffffffffffffffffffffffffffffff168173ffffffffffffffffffffffffffffffffffffffff167f8be0079c531659141344cd1fd0a4f28419497f9722a3daafe3b4186f6b6457e060405160405180910390a35050565b6106a56104aa565b60015f60146101000a81548160ff0219169083151502179055507f62e78cea01bee320cd4e420270b5ea74000d11b0c9f74754ebdbfc544b05a2586106e86106ff565b6040516106f5919061081a565b60405180910390a1565b5f33905090565b61070e6102de565b61074d576040517f08c379a0000000000000000000000000000000000000000000000000000000008152600401610744906109c5565b60405180910390fd5b565b5f80fd5b5f73ffffffffffffffffffffffffffffffffffffffff82169050919050565b5f61077c82610753565b9050919050565b61078c81610772565b8114610796575f80fd5b50565b5f813590506107a781610783565b92915050565b5f602082840312156107c2576107c161074f565b5b5f6107cf84828501610799565b91505092915050565b5f8115159050919050565b6107ec816107d8565b82525050565b5f6020820190506108055f8301846107e3565b92915050565b61081481610772565b82525050565b5f60208201905061082d5f83018461080b565b92915050565b5f82825260208201905092915050565b7f4164647265737320616c726561647920636c61696d65640000000000000000005f82015250565b5f610877601783610833565b915061088282610843565b602082019050919050565b5f6020820190508181035f8301526108a48161086b565b9050919050565b7f41646472657373206e6f7420636c61696d6564000000000000000000000000005f82015250565b5f6108df601383610833565b91506108ea826108ab565b602082019050919050565b5f6020820190508181035f83015261090c816108d3565b9050919050565b7f5061757361626c653a20706175736564000000000000000000000000000000005f82015250565b5f610947601083610833565b915061095282610913565b602082019050919050565b5f6020820190508181035f8301526109748161093b565b9050919050565b7f5061757361626c653a206e6f74207061757365640000000000000000000000005f82015250565b5f6109af601483610833565b91506109ba8261097b565b602082019050919050565b5f6020820190508181035f8301526109dc816109a3565b905091905056fea2646970667358221220a3c2987e87e4f9f53194952a63673e7eeb6eec240e9ac6196f02a7da690af37664736f6c634300081a0033",
					"opcodes": "PUSH1 0x80 PUSH1 0x40 MSTORE CALLVALUE DUP1 ISZERO PUSH2 0xF JUMPI PUSH0 DUP1 REVERT JUMPDEST POP CALLER PUSH0 PUSH20 0xFFFFFFFFFFFFFFFFFFFFFFFFFFFFFFFFFFFFFFFF AND DUP2 PUSH20 0xFFFFFFFFFFFFFFFFFFFFFFFFFFFFFFFFFFFFFFFF AND SUB PUSH2 0x81 JUMPI PUSH0 PUSH1 0x40 MLOAD PUSH32 0x1E4FBDF700000000000000000000000000000000000000000000000000000000 DUP2 MSTORE PUSH1 0x4 ADD PUSH2 0x78 SWAP2 SWAP1 PUSH2 0x1AF JUMP JUMPDEST PUSH1 0x40 MLOAD DUP1 SWAP2 SUB SWAP1 REVERT JUMPDEST PUSH2 0x90 DUP2 PUSH2 0xAF PUSH1 0x20 SHL PUSH1 0x20 SHR JUMP JUMPDEST POP PUSH0 DUP1 PUSH1 0x14 PUSH2 0x100 EXP DUP2 SLOAD DUP2 PUSH1 0xFF MUL NOT AND SWAP1 DUP4 ISZERO ISZERO MUL OR SWAP1 SSTORE POP PUSH2 0x1C8 JUMP JUMPDEST PUSH0 DUP1 PUSH0 SWAP1 SLOAD SWAP1 PUSH2 0x100 EXP SWAP1 DIV PUSH20 0xFFFFFFFFFFFFFFFFFFFFFFFFFFFFFFFFFFFFFFFF AND SWAP1 POP DUP2 PUSH0 DUP1 PUSH2 0x100 EXP DUP2 SLOAD DUP2 PUSH20 0xFFFFFFFFFFFFFFFFFFFFFFFFFFFFFFFFFFFFFFFF MUL NOT AND SWAP1 DUP4 PUSH20 0xFFFFFFFFFFFFFFFFFFFFFFFFFFFFFFFFFFFFFFFF AND MUL OR SWAP1 SSTORE POP DUP2 PUSH20 0xFFFFFFFFFFFFFFFFFFFFFFFFFFFFFFFFFFFFFFFF AND DUP2 PUSH20 0xFFFFFFFFFFFFFFFFFFFFFFFFFFFFFFFFFFFFFFFF AND PUSH32 0x8BE0079C531659141344CD1FD0A4F28419497F9722A3DAAFE3B4186F6B6457E0 PUSH1 0x40 MLOAD PUSH1 0x40 MLOAD DUP1 SWAP2 SUB SWAP1 LOG3 POP POP JUMP JUMPDEST PUSH0 PUSH20 0xFFFFFFFFFFFFFFFFFFFFFFFFFFFFFFFFFFFFFFFF DUP3 AND SWAP1 POP SWAP2 SWAP1 POP JUMP JUMPDEST PUSH0 PUSH2 0x199 DUP3 PUSH2 0x170 JUMP JUMPDEST SWAP1 POP SWAP2 SWAP1 POP JUMP JUMPDEST PUSH2 0x1A9 DUP2 PUSH2 0x18F JUMP JUMPDEST DUP3 MSTORE POP POP JUMP JUMPDEST PUSH0 PUSH1 0x20 DUP3 ADD SWAP1 POP PUSH2 0x1C2 PUSH0 DUP4 ADD DUP5 PUSH2 0x1A0 JUMP JUMPDEST SWAP3 SWAP2 POP POP JUMP JUMPDEST PUSH2 0xA19 DUP1 PUSH2 0x1D5 PUSH0 CODECOPY PUSH0 RETURN INVALID PUSH1 0x80 PUSH1 0x40 MSTORE CALLVALUE DUP1 ISZERO PUSH2 0xF JUMPI PUSH0 DUP1 REVERT JUMPDEST POP PUSH1 0x4 CALLDATASIZE LT PUSH2 0x91 JUMPI PUSH0 CALLDATALOAD PUSH1 0xE0 SHR DUP1 PUSH4 0x715018A6 GT PUSH2 0x64 JUMPI DUP1 PUSH4 0x715018A6 EQ PUSH2 0xF7 JUMPI DUP1 PUSH4 0x8456CB59 EQ PUSH2 0x101 JUMPI DUP1 PUSH4 0x8DA5CB5B EQ PUSH2 0x10B JUMPI DUP1 PUSH4 0xC92DBF85 EQ PUSH2 0x129 JUMPI DUP1 PUSH4 0xF2FDE38B EQ PUSH2 0x133 JUMPI PUSH2 0x91 JUMP JUMPDEST DUP1 PUSH4 0x5691EC8 EQ PUSH2 0x95 JUMPI DUP1 PUSH4 0x2B76364E EQ PUSH2 0x9F JUMPI DUP1 PUSH4 0x3F4BA83A EQ PUSH2 0xCF JUMPI DUP1 PUSH4 0x5C975ABB EQ PUSH2 0xD9 JUMPI JUMPDEST PUSH0 DUP1 REVERT JUMPDEST PUSH2 0x9D PUSH2 0x14F JUMP JUMPDEST STOP JUMPDEST PUSH2 0xB9 PUSH1 0x4 DUP1 CALLDATASIZE SUB DUP2 ADD SWAP1 PUSH2 0xB4 SWAP2 SWAP1 PUSH2 0x7AD JUMP JUMPDEST PUSH2 0x27A JUMP JUMPDEST PUSH1 0x40 MLOAD PUSH2 0xC6 SWAP2 SWAP1 PUSH2 0x7F2 JUMP JUMPDEST PUSH1 0x40 MLOAD DUP1 SWAP2 SUB SWAP1 RETURN JUMPDEST PUSH2 0xD7 PUSH2 0x2CC JUMP JUMPDEST STOP JUMPDEST PUSH2 0xE1 PUSH2 0x2DE JUMP JUMPDEST PUSH1 0x40 MLOAD PUSH2 0xEE SWAP2 SWAP1 PUSH2 0x7F2 JUMP JUMPDEST PUSH1 0x40 MLOAD DUP1 SWAP2 SUB SWAP1 RETURN JUMPDEST PUSH2 0xFF PUSH2 0x2F3 JUMP JUMPDEST STOP JUMPDEST PUSH2 0x109 PUSH2 0x306 JUMP JUMPDEST STOP JUMPDEST PUSH2 0x113 PUSH2 0x318 JUMP JUMPDEST PUSH1 0x40 MLOAD PUSH2 0x120 SWAP2 SWAP1 PUSH2 0x81A JUMP JUMPDEST PUSH1 0x40 MLOAD DUP1 SWAP2 SUB SWAP1 RETURN JUMPDEST PUSH2 0x131 PUSH2 0x33F JUMP JUMPDEST STOP JUMPDEST PUSH2 0x14D PUSH1 0x4 DUP1 CALLDATASIZE SUB DUP2 ADD SWAP1 PUSH2 0x148 SWAP2 SWAP1 PUSH2 0x7AD JUMP JUMPDEST PUSH2 0x426 JUMP JUMPDEST STOP JUMPDEST PUSH2 0x157 PUSH2 0x4AA JUMP JUMPDEST PUSH1 0x1 PUSH0 CALLER PUSH20 0xFFFFFFFFFFFFFFFFFFFFFFFFFFFFFFFFFFFFFFFF AND PUSH20 0xFFFFFFFFFFFFFFFFFFFFFFFFFFFFFFFFFFFFFFFF AND DUP2 MSTORE PUSH1 0x20 ADD SWAP1 DUP2 MSTORE PUSH1 0x20 ADD PUSH0 KECCAK256 PUSH0 SWAP1 SLOAD SWAP1 PUSH2 0x100 EXP SWAP1 DIV PUSH1 0xFF AND ISZERO PUSH2 0x1E1 JUMPI PUSH1 0x40 MLOAD PUSH32 0x8C379A000000000000000000000000000000000000000000000000000000000 DUP2 MSTORE PUSH1 0x4 ADD PUSH2 0x1D8 SWAP1 PUSH2 0x88D JUMP JUMPDEST PUSH1 0x40 MLOAD DUP1 SWAP2 SUB SWAP1 REVERT JUMPDEST PUSH1 0x1 DUP1 PUSH0 CALLER PUSH20 0xFFFFFFFFFFFFFFFFFFFFFFFFFFFFFFFFFFFFFFFF AND PUSH20 0xFFFFFFFFFFFFFFFFFFFFFFFFFFFFFFFFFFFFFFFF AND DUP2 MSTORE PUSH1 0x20 ADD SWAP1 DUP2 MSTORE PUSH1 0x20 ADD PUSH0 KECCAK256 PUSH0 PUSH2 0x100 EXP DUP2 SLOAD DUP2 PUSH1 0xFF MUL NOT AND SWAP1 DUP4 ISZERO ISZERO MUL OR SWAP1 SSTORE POP CALLER PUSH20 0xFFFFFFFFFFFFFFFFFFFFFFFFFFFFFFFFFFFFFFFF AND PUSH32 0x724E7FF186ADC07F81795071386876998E66855C287FC3A53B5DEC08E7B6BBD9 PUSH1 0x40 MLOAD PUSH1 0x40 MLOAD DUP1 SWAP2 SUB SWAP1 LOG2 JUMP JUMPDEST PUSH0 PUSH1 0x1 PUSH0 DUP4 PUSH20 0xFFFFFFFFFFFFFFFFFFFFFFFFFFFFFFFFFFFFFFFF AND PUSH20 0xFFFFFFFFFFFFFFFFFFFFFFFFFFFFFFFFFFFFFFFF AND DUP2 MSTORE PUSH1 0x20 ADD SWAP1 DUP2 MSTORE PUSH1 0x20 ADD PUSH0 KECCAK256 PUSH0 SWAP1 SLOAD SWAP1 PUSH2 0x100 EXP SWAP1 DIV PUSH1 0xFF AND SWAP1 POP SWAP2 SWAP1 POP JUMP JUMPDEST PUSH2 0x2D4 PUSH2 0x4F4 JUMP JUMPDEST PUSH2 0x2DC PUSH2 0x57B JUMP JUMPDEST JUMP JUMPDEST PUSH0 DUP1 PUSH1 0x14 SWAP1 SLOAD SWAP1 PUSH2 0x100 EXP SWAP1 DIV PUSH1 0xFF AND SWAP1 POP SWAP1 JUMP JUMPDEST PUSH2 0x2FB PUSH2 0x4F4 JUMP JUMPDEST PUSH2 0x304 PUSH0 PUSH2 0x5DC JUMP JUMPDEST JUMP JUMPDEST PUSH2 0x30E PUSH2 0x4F4 JUMP JUMPDEST PUSH2 0x316 PUSH2 0x69D JUMP JUMPDEST JUMP JUMPDEST PUSH0 DUP1 PUSH0 SWAP1 SLOAD SWAP1 PUSH2 0x100 EXP SWAP1 DIV PUSH20 0xFFFFFFFFFFFFFFFFFFFFFFFFFFFFFFFFFFFFFFFF AND SWAP1 POP SWAP1 JUMP JUMPDEST PUSH2 0x347 PUSH2 0x4AA JUMP JUMPDEST PUSH1 0x1 PUSH0 CALLER PUSH20 0xFFFFFFFFFFFFFFFFFFFFFFFFFFFFFFFFFFFFFFFF AND PUSH20 0xFFFFFFFFFFFFFFFFFFFFFFFFFFFFFFFFFFFFFFFF AND DUP2 MSTORE PUSH1 0x20 ADD SWAP1 DUP2 MSTORE PUSH1 0x20 ADD PUSH0 KECCAK256 PUSH0 SWAP1 SLOAD SWAP1 PUSH2 0x100 EXP SWAP1 DIV PUSH1 0xFF AND PUSH2 0x3D0 JUMPI PUSH1 0x40 MLOAD PUSH32 0x8C379A000000000000000000000000000000000000000000000000000000000 DUP2 MSTORE PUSH1 0x4 ADD PUSH2 0x3C7 SWAP1 PUSH2 0x8F5 JUMP JUMPDEST PUSH1 0x40 MLOAD DUP1 SWAP2 SUB SWAP1 REVERT JUMPDEST PUSH0 PUSH1 0x1 PUSH0 CALLER PUSH20 0xFFFFFFFFFFFFFFFFFFFFFFFFFFFFFFFFFFFFFFFF AND PUSH20 0xFFFFFFFFFFFFFFFFFFFFFFFFFFFFFFFFFFFFFFFF AND DUP2 MSTORE PUSH1 0x20 ADD SWAP1 DUP2 MSTORE PUSH1 0x20 ADD PUSH0 KECCAK256 PUSH0 PUSH2 0x100 EXP DUP2 SLOAD DUP2 PUSH1 0xFF MUL NOT AND SWAP1 DUP4 ISZERO ISZERO MUL OR SWAP1 SSTORE POP JUMP JUMPDEST PUSH2 0x42E PUSH2 0x4F4 JUMP JUMPDEST PUSH0 PUSH20 0xFFFFFFFFFFFFFFFFFFFFFFFFFFFFFFFFFFFFFFFF AND DUP2 PUSH20 0xFFFFFFFFFFFFFFFFFFFFFFFFFFFFFFFFFFFFFFFF AND SUB PUSH2 0x49E JUMPI PUSH0 PUSH1 0x40 MLOAD PUSH32 0x1E4FBDF700000000000000000000000000000000000000000000000000000000 DUP2 MSTORE PUSH1 0x4 ADD PUSH2 0x495 SWAP2 SWAP1 PUSH2 0x81A JUMP JUMPDEST PUSH1 0x40 MLOAD DUP1 SWAP2 SUB SWAP1 REVERT JUMPDEST PUSH2 0x4A7 DUP2 PUSH2 0x5DC JUMP JUMPDEST POP JUMP JUMPDEST PUSH2 0x4B2 PUSH2 0x2DE JUMP JUMPDEST ISZERO PUSH2 0x4F2 JUMPI PUSH1 0x40 MLOAD PUSH32 0x8C379A000000000000000000000000000000000000000000000000000000000 DUP2 MSTORE PUSH1 0x4 ADD PUSH2 0x4E9 SWAP1 PUSH2 0x95D JUMP JUMPDEST PUSH1 0x40 MLOAD DUP1 SWAP2 SUB SWAP1 REVERT JUMPDEST JUMP JUMPDEST PUSH2 0x4FC PUSH2 0x6FF JUMP JUMPDEST PUSH20 0xFFFFFFFFFFFFFFFFFFFFFFFFFFFFFFFFFFFFFFFF AND PUSH2 0x51A PUSH2 0x318 JUMP JUMPDEST PUSH20 0xFFFFFFFFFFFFFFFFFFFFFFFFFFFFFFFFFFFFFFFF AND EQ PUSH2 0x579 JUMPI PUSH2 0x53D PUSH2 0x6FF JUMP JUMPDEST PUSH1 0x40 MLOAD PUSH32 0x118CDAA700000000000000000000000000000000000000000000000000000000 DUP2 MSTORE PUSH1 0x4 ADD PUSH2 0x570 SWAP2 SWAP1 PUSH2 0x81A JUMP JUMPDEST PUSH1 0x40 MLOAD DUP1 SWAP2 SUB SWAP1 REVERT JUMPDEST JUMP JUMPDEST PUSH2 0x583 PUSH2 0x706 JUMP JUMPDEST PUSH0 DUP1 PUSH1 0x14 PUSH2 0x100 EXP DUP2 SLOAD DUP2 PUSH1 0xFF MUL NOT AND SWAP1 DUP4 ISZERO ISZERO MUL OR SWAP1 SSTORE POP PUSH32 0x5DB9EE0A495BF2E6FF9C91A7834C1BA4FDD244A5E8AA4E537BD38AEAE4B073AA PUSH2 0x5C5 PUSH2 0x6FF JUMP JUMPDEST PUSH1 0x40 MLOAD PUSH2 0x5D2 SWAP2 SWAP1 PUSH2 0x81A JUMP JUMPDEST PUSH1 0x40 MLOAD DUP1 SWAP2 SUB SWAP1 LOG1 JUMP JUMPDEST PUSH0 DUP1 PUSH0 SWAP1 SLOAD SWAP1 PUSH2 0x100 EXP SWAP1 DIV PUSH20 0xFFFFFFFFFFFFFFFFFFFFFFFFFFFFFFFFFFFFFFFF AND SWAP1 POP DUP2 PUSH0 DUP1 PUSH2 0x100 EXP DUP2 SLOAD DUP2 PUSH20 0xFFFFFFFFFFFFFFFFFFFFFFFFFFFFFFFFFFFFFFFF MUL NOT AND SWAP1 DUP4 PUSH20 0xFFFFFFFFFFFFFFFFFFFFFFFFFFFFFFFFFFFFFFFF AND MUL OR SWAP1 SSTORE POP DUP2 PUSH20 0xFFFFFFFFFFFFFFFFFFFFFFFFFFFFFFFFFFFFFFFF AND DUP2 PUSH20 0xFFFFFFFFFFFFFFFFFFFFFFFFFFFFFFFFFFFFFFFF AND PUSH32 0x8BE0079C531659141344CD1FD0A4F28419497F9722A3DAAFE3B4186F6B6457E0 PUSH1 0x40 MLOAD PUSH1 0x40 MLOAD DUP1 SWAP2 SUB SWAP1 LOG3 POP POP JUMP JUMPDEST PUSH2 0x6A5 PUSH2 0x4AA JUMP JUMPDEST PUSH1 0x1 PUSH0 PUSH1 0x14 PUSH2 0x100 EXP DUP2 SLOAD DUP2 PUSH1 0xFF MUL NOT AND SWAP1 DUP4 ISZERO ISZERO MUL OR SWAP1 SSTORE POP PUSH32 0x62E78CEA01BEE320CD4E420270B5EA74000D11B0C9F74754EBDBFC544B05A258 PUSH2 0x6E8 PUSH2 0x6FF JUMP JUMPDEST PUSH1 0x40 MLOAD PUSH2 0x6F5 SWAP2 SWAP1 PUSH2 0x81A JUMP JUMPDEST PUSH1 0x40 MLOAD DUP1 SWAP2 SUB SWAP1 LOG1 JUMP JUMPDEST PUSH0 CALLER SWAP1 POP SWAP1 JUMP JUMPDEST PUSH2 0x70E PUSH2 0x2DE JUMP JUMPDEST PUSH2 0x74D JUMPI PUSH1 0x40 MLOAD PUSH32 0x8C379A000000000000000000000000000000000000000000000000000000000 DUP2 MSTORE PUSH1 0x4 ADD PUSH2 0x744 SWAP1 PUSH2 0x9C5 JUMP JUMPDEST PUSH1 0x40 MLOAD DUP1 SWAP2 SUB SWAP1 REVERT JUMPDEST JUMP JUMPDEST PUSH0 DUP1 REVERT JUMPDEST PUSH0 PUSH20 0xFFFFFFFFFFFFFFFFFFFFFFFFFFFFFFFFFFFFFFFF DUP3 AND SWAP1 POP SWAP2 SWAP1 POP JUMP JUMPDEST PUSH0 PUSH2 0x77C DUP3 PUSH2 0x753 JUMP JUMPDEST SWAP1 POP SWAP2 SWAP1 POP JUMP JUMPDEST PUSH2 0x78C DUP2 PUSH2 0x772 JUMP JUMPDEST DUP2 EQ PUSH2 0x796 JUMPI PUSH0 DUP1 REVERT JUMPDEST POP JUMP JUMPDEST PUSH0 DUP2 CALLDATALOAD SWAP1 POP PUSH2 0x7A7 DUP2 PUSH2 0x783 JUMP JUMPDEST SWAP3 SWAP2 POP POP JUMP JUMPDEST PUSH0 PUSH1 0x20 DUP3 DUP5 SUB SLT ISZERO PUSH2 0x7C2 JUMPI PUSH2 0x7C1 PUSH2 0x74F JUMP JUMPDEST JUMPDEST PUSH0 PUSH2 0x7CF DUP5 DUP3 DUP6 ADD PUSH2 0x799 JUMP JUMPDEST SWAP2 POP POP SWAP3 SWAP2 POP POP JUMP JUMPDEST PUSH0 DUP2 ISZERO ISZERO SWAP1 POP SWAP2 SWAP1 POP JUMP JUMPDEST PUSH2 0x7EC DUP2 PUSH2 0x7D8 JUMP JUMPDEST DUP3 MSTORE POP POP JUMP JUMPDEST PUSH0 PUSH1 0x20 DUP3 ADD SWAP1 POP PUSH2 0x805 PUSH0 DUP4 ADD DUP5 PUSH2 0x7E3 JUMP JUMPDEST SWAP3 SWAP2 POP POP JUMP JUMPDEST PUSH2 0x814 DUP2 PUSH2 0x772 JUMP JUMPDEST DUP3 MSTORE POP POP JUMP JUMPDEST PUSH0 PUSH1 0x20 DUP3 ADD SWAP1 POP PUSH2 0x82D PUSH0 DUP4 ADD DUP5 PUSH2 0x80B JUMP JUMPDEST SWAP3 SWAP2 POP POP JUMP JUMPDEST PUSH0 DUP3 DUP3 MSTORE PUSH1 0x20 DUP3 ADD SWAP1 POP SWAP3 SWAP2 POP POP JUMP JUMPDEST PUSH32 0x4164647265737320616C726561647920636C61696D6564000000000000000000 PUSH0 DUP3 ADD MSTORE POP JUMP JUMPDEST PUSH0 PUSH2 0x877 PUSH1 0x17 DUP4 PUSH2 0x833 JUMP JUMPDEST SWAP2 POP PUSH2 0x882 DUP3 PUSH2 0x843 JUMP JUMPDEST PUSH1 0x20 DUP3 ADD SWAP1 POP SWAP2 SWAP1 POP JUMP JUMPDEST PUSH0 PUSH1 0x20 DUP3 ADD SWAP1 POP DUP2 DUP2 SUB PUSH0 DUP4 ADD MSTORE PUSH2 0x8A4 DUP2 PUSH2 0x86B JUMP JUMPDEST SWAP1 POP SWAP2 SWAP1 POP JUMP JUMPDEST PUSH32 0x41646472657373206E6F7420636C61696D656400000000000000000000000000 PUSH0 DUP3 ADD MSTORE POP JUMP JUMPDEST PUSH0 PUSH2 0x8DF PUSH1 0x13 DUP4 PUSH2 0x833 JUMP JUMPDEST SWAP2 POP PUSH2 0x8EA DUP3 PUSH2 0x8AB JUMP JUMPDEST PUSH1 0x20 DUP3 ADD SWAP1 POP SWAP2 SWAP1 POP JUMP JUMPDEST PUSH0 PUSH1 0x20 DUP3 ADD SWAP1 POP DUP2 DUP2 SUB PUSH0 DUP4 ADD MSTORE PUSH2 0x90C DUP2 PUSH2 0x8D3 JUMP JUMPDEST SWAP1 POP SWAP2 SWAP1 POP JUMP JUMPDEST PUSH32 0x5061757361626C653A2070617573656400000000000000000000000000000000 PUSH0 DUP3 ADD MSTORE POP JUMP JUMPDEST PUSH0 PUSH2 0x947 PUSH1 0x10 DUP4 PUSH2 0x833 JUMP JUMPDEST SWAP2 POP PUSH2 0x952 DUP3 PUSH2 0x913 JUMP JUMPDEST PUSH1 0x20 DUP3 ADD SWAP1 POP SWAP2 SWAP1 POP JUMP JUMPDEST PUSH0 PUSH1 0x20 DUP3 ADD SWAP1 POP DUP2 DUP2 SUB PUSH0 DUP4 ADD MSTORE PUSH2 0x974 DUP2 PUSH2 0x93B JUMP JUMPDEST SWAP1 POP SWAP2 SWAP1 POP JUMP JUMPDEST PUSH32 0x5061757361626C653A206E6F7420706175736564000000000000000000000000 PUSH0 DUP3 ADD MSTORE POP JUMP JUMPDEST PUSH0 PUSH2 0x9AF PUSH1 0x14 DUP4 PUSH2 0x833 JUMP JUMPDEST SWAP2 POP PUSH2 0x9BA DUP3 PUSH2 0x97B JUMP JUMPDEST PUSH1 0x20 DUP3 ADD SWAP1 POP SWAP2 SWAP1 POP JUMP JUMPDEST PUSH0 PUSH1 0x20 DUP3 ADD SWAP1 POP DUP2 DUP2 SUB PUSH0 DUP4 ADD MSTORE PUSH2 0x9DC DUP2 PUSH2 0x9A3 JUMP JUMPDEST SWAP1 POP SWAP2 SWAP1 POP JUMP INVALID LOG2 PUSH5 0x6970667358 0x22 SLT KECCAK256 LOG3 0xC2 SWAP9 PUSH31 0x87E4F9F53194952A63673E7EEB6EEC240E9AC6196F02A7DA690AF37664736F PUSH13 0x634300081A0033000000000000 "
				},
				"gasEstimates": {
					"creation": {
						"codeDepositCost": "517000",
						"executionCost": "infinite",
						"totalCost": "infinite"
					},
					"external": {
						"claimAddress()": "30163",
						"isAddressClaimed(address)": "2893",
						"owner()": "2559",
						"pause()": "infinite",
						"paused()": "2591",
						"renounceOwnership()": "infinite",
						"transferOwnership(address)": "infinite",
						"unclaimAddress()": "29064",
						"unpause()": "infinite"
					}
				},
				"methodIdentifiers": {
					"claimAddress()": "05691ec8",
					"isAddressClaimed(address)": "2b76364e",
					"owner()": "8da5cb5b",
					"pause()": "8456cb59",
					"paused()": "5c975abb",
					"renounceOwnership()": "715018a6",
					"transferOwnership(address)": "f2fde38b",
					"unclaimAddress()": "c92dbf85",
					"unpause()": "3f4ba83a"
				}
			},
			"storageLayout": {
				"storage": [
					{
						"astId": 35,
						"contract": "identity_flattened.sol:AddressClaim",
						"label": "_owner",
						"offset": 0,
						"slot": "0",
						"type": "t_address"
					},
					{
						"astId": 190,
						"contract": "identity_flattened.sol:AddressClaim",
						"label": "_paused",
						"offset": 20,
						"slot": "0",
						"type": "t_bool"
					},
					{
						"astId": 289,
						"contract": "identity_flattened.sol:AddressClaim",
						"label": "_claimedAddresses",
						"offset": 0,
						"slot": "1",
						"type": "t_mapping(t_address,t_bool)"
					}
				],
				"types": {
					"t_address": {
						"encoding": "inplace",
						"label": "address",
						"numberOfBytes": "20"
					},
					"t_bool": {
						"encoding": "inplace",
						"label": "bool",
						"numberOfBytes": "1"
					},
					"t_mapping(t_address,t_bool)": {
						"encoding": "mapping",
						"key": "t_address",
						"label": "mapping(address => bool)",
						"numberOfBytes": "32",
						"value": "t_bool"
					}
				}
			},
			"userdoc": {
				"kind": "user",
				"methods": {},
				"version": 1
			}
		}
	}
}