{
	"indentity_test_2.sol": {
		"XEAMToken": {
			"abi": [
				{
					"inputs": [
						{
							"internalType": "address",
							"name": "_encouragementFund",
							"type": "address"
						},
						{
							"internalType": "address",
							"name": "_emergencyFund",
							"type": "address"
						},
						{
							"internalType": "address",
							"name": "_marketingWallet",
							"type": "address"
						},
						{
							"internalType": "address",
							"name": "_stakingWallet",
							"type": "address"
						}
					],
					"stateMutability": "nonpayable",
					"type": "constructor"
				},
				{
					"inputs": [
						{
							"internalType": "address",
							"name": "spender",
							"type": "address"
						},
						{
							"internalType": "uint256",
							"name": "allowance",
							"type": "uint256"
						},
						{
							"internalType": "uint256",
							"name": "needed",
							"type": "uint256"
						}
					],
					"name": "ERC20InsufficientAllowance",
					"type": "error"
				},
				{
					"inputs": [
						{
							"internalType": "address",
							"name": "sender",
							"type": "address"
						},
						{
							"internalType": "uint256",
							"name": "balance",
							"type": "uint256"
						},
						{
							"internalType": "uint256",
							"name": "needed",
							"type": "uint256"
						}
					],
					"name": "ERC20InsufficientBalance",
					"type": "error"
				},
				{
					"inputs": [
						{
							"internalType": "address",
							"name": "approver",
							"type": "address"
						}
					],
					"name": "ERC20InvalidApprover",
					"type": "error"
				},
				{
					"inputs": [
						{
							"internalType": "address",
							"name": "receiver",
							"type": "address"
						}
					],
					"name": "ERC20InvalidReceiver",
					"type": "error"
				},
				{
					"inputs": [
						{
							"internalType": "address",
							"name": "sender",
							"type": "address"
						}
					],
					"name": "ERC20InvalidSender",
					"type": "error"
				},
				{
					"inputs": [
						{
							"internalType": "address",
							"name": "spender",
							"type": "address"
						}
					],
					"name": "ERC20InvalidSpender",
					"type": "error"
				},
				{
					"inputs": [
						{
							"internalType": "address",
							"name": "owner",
							"type": "address"
						}
					],
					"name": "OwnableInvalidOwner",
					"type": "error"
				},
				{
					"inputs": [
						{
							"internalType": "address",
							"name": "account",
							"type": "address"
						}
					],
					"name": "OwnableUnauthorizedAccount",
					"type": "error"
				},
				{
					"anonymous": false,
					"inputs": [
						{
							"indexed": true,
							"internalType": "address",
							"name": "owner",
							"type": "address"
						},
						{
							"indexed": true,
							"internalType": "address",
							"name": "spender",
							"type": "address"
						},
						{
							"indexed": false,
							"internalType": "uint256",
							"name": "value",
							"type": "uint256"
						}
					],
					"name": "Approval",
					"type": "event"
				},
				{
					"anonymous": false,
					"inputs": [
						{
							"indexed": true,
							"internalType": "address",
							"name": "previousOwner",
							"type": "address"
						},
						{
							"indexed": true,
							"internalType": "address",
							"name": "newOwner",
							"type": "address"
						}
					],
					"name": "OwnershipTransferred",
					"type": "event"
				},
				{
					"anonymous": false,
					"inputs": [
						{
							"indexed": false,
							"internalType": "uint256",
							"name": "amount",
							"type": "uint256"
						},
						{
							"indexed": false,
							"internalType": "string",
							"name": "category",
							"type": "string"
						}
					],
					"name": "TaxDistributed",
					"type": "event"
				},
				{
					"anonymous": false,
					"inputs": [
						{
							"indexed": true,
							"internalType": "address",
							"name": "from",
							"type": "address"
						},
						{
							"indexed": true,
							"internalType": "address",
							"name": "to",
							"type": "address"
						},
						{
							"indexed": false,
							"internalType": "uint256",
							"name": "value",
							"type": "uint256"
						}
					],
					"name": "Transfer",
					"type": "event"
				},
				{
					"inputs": [],
					"name": "BUY_TAX",
					"outputs": [
						{
							"internalType": "uint256",
							"name": "",
							"type": "uint256"
						}
					],
					"stateMutability": "view",
					"type": "function"
				},
				{
					"inputs": [],
					"name": "INITIAL_SUPPLY",
					"outputs": [
						{
							"internalType": "uint256",
							"name": "",
							"type": "uint256"
						}
					],
					"stateMutability": "view",
					"type": "function"
				},
				{
					"inputs": [],
					"name": "MAX_TX",
					"outputs": [
						{
							"internalType": "uint256",
							"name": "",
							"type": "uint256"
						}
					],
					"stateMutability": "view",
					"type": "function"
				},
				{
					"inputs": [],
					"name": "MAX_WALLET",
					"outputs": [
						{
							"internalType": "uint256",
							"name": "",
							"type": "uint256"
						}
					],
					"stateMutability": "view",
					"type": "function"
				},
				{
					"inputs": [],
					"name": "SELL_TAX",
					"outputs": [
						{
							"internalType": "uint256",
							"name": "",
							"type": "uint256"
						}
					],
					"stateMutability": "view",
					"type": "function"
				},
				{
					"inputs": [],
					"name": "SLIPPAGE",
					"outputs": [
						{
							"internalType": "uint256",
							"name": "",
							"type": "uint256"
						}
					],
					"stateMutability": "view",
					"type": "function"
				},
				{
					"inputs": [
						{
							"internalType": "address",
							"name": "owner",
							"type": "address"
						},
						{
							"internalType": "address",
							"name": "spender",
							"type": "address"
						}
					],
					"name": "allowance",
					"outputs": [
						{
							"internalType": "uint256",
							"name": "",
							"type": "uint256"
						}
					],
					"stateMutability": "view",
					"type": "function"
				},
				{
					"inputs": [
						{
							"internalType": "address",
							"name": "spender",
							"type": "address"
						},
						{
							"internalType": "uint256",
							"name": "value",
							"type": "uint256"
						}
					],
					"name": "approve",
					"outputs": [
						{
							"internalType": "bool",
							"name": "",
							"type": "bool"
						}
					],
					"stateMutability": "nonpayable",
					"type": "function"
				},
				{
					"inputs": [
						{
							"internalType": "address",
							"name": "account",
							"type": "address"
						}
					],
					"name": "balanceOf",
					"outputs": [
						{
							"internalType": "uint256",
							"name": "",
							"type": "uint256"
						}
					],
					"stateMutability": "view",
					"type": "function"
				},
				{
					"inputs": [],
					"name": "decimals",
					"outputs": [
						{
							"internalType": "uint8",
							"name": "",
							"type": "uint8"
						}
					],
					"stateMutability": "view",
					"type": "function"
				},
				{
					"inputs": [],
					"name": "emergencyFund",
					"outputs": [
						{
							"internalType": "address",
							"name": "",
							"type": "address"
						}
					],
					"stateMutability": "view",
					"type": "function"
				},
				{
					"inputs": [],
					"name": "encouragementFund",
					"outputs": [
						{
							"internalType": "address",
							"name": "",
							"type": "address"
						}
					],
					"stateMutability": "view",
					"type": "function"
				},
				{
					"inputs": [
						{
							"internalType": "address",
							"name": "",
							"type": "address"
						}
					],
					"name": "isExcludedFromFees",
					"outputs": [
						{
							"internalType": "bool",
							"name": "",
							"type": "bool"
						}
					],
					"stateMutability": "view",
					"type": "function"
				},
				{
					"inputs": [],
					"name": "marketingWallet",
					"outputs": [
						{
							"internalType": "address",
							"name": "",
							"type": "address"
						}
					],
					"stateMutability": "view",
					"type": "function"
				},
				{
					"inputs": [],
					"name": "name",
					"outputs": [
						{
							"internalType": "string",
							"name": "",
							"type": "string"
						}
					],
					"stateMutability": "view",
					"type": "function"
				},
				{
					"inputs": [],
					"name": "owner",
					"outputs": [
						{
							"internalType": "address",
							"name": "",
							"type": "address"
						}
					],
					"stateMutability": "view",
					"type": "function"
				},
				{
					"inputs": [],
					"name": "renounceOwnership",
					"outputs": [],
					"stateMutability": "nonpayable",
					"type": "function"
				},
				{
					"inputs": [],
					"name": "stakingWallet",
					"outputs": [
						{
							"internalType": "address",
							"name": "",
							"type": "address"
						}
					],
					"stateMutability": "view",
					"type": "function"
				},
				{
					"inputs": [],
					"name": "symbol",
					"outputs": [
						{
							"internalType": "string",
							"name": "",
							"type": "string"
						}
					],
					"stateMutability": "view",
					"type": "function"
				},
				{
					"inputs": [],
					"name": "totalSupply",
					"outputs": [
						{
							"internalType": "uint256",
							"name": "",
							"type": "uint256"
						}
					],
					"stateMutability": "view",
					"type": "function"
				},
				{
					"inputs": [
						{
							"internalType": "address",
							"name": "recipient",
							"type": "address"
						},
						{
							"internalType": "uint256",
							"name": "amount",
							"type": "uint256"
						}
					],
					"name": "transfer",
					"outputs": [
						{
							"internalType": "bool",
							"name": "",
							"type": "bool"
						}
					],
					"stateMutability": "nonpayable",
					"type": "function"
				},
				{
					"inputs": [
						{
							"internalType": "address",
							"name": "from",
							"type": "address"
						},
						{
							"internalType": "address",
							"name": "to",
							"type": "address"
						},
						{
							"internalType": "uint256",
							"name": "value",
							"type": "uint256"
						}
					],
					"name": "transferFrom",
					"outputs": [
						{
							"internalType": "bool",
							"name": "",
							"type": "bool"
						}
					],
					"stateMutability": "nonpayable",
					"type": "function"
				},
				{
					"inputs": [
						{
							"internalType": "address",
							"name": "newOwner",
							"type": "address"
						}
					],
					"name": "transferOwnership",
					"outputs": [],
					"stateMutability": "nonpayable",
					"type": "function"
				},
				{
					"inputs": [
						{
							"internalType": "address",
							"name": "account",
							"type": "address"
						},
						{
							"internalType": "bool",
							"name": "excluded",
							"type": "bool"
						}
					],
					"name": "updateExcludedAccountStatus",
					"outputs": [],
					"stateMutability": "nonpayable",
					"type": "function"
				}
			],
			"devdoc": {
				"errors": {
					"ERC20InsufficientAllowance(address,uint256,uint256)": [
						{
							"details": "Indicates a failure with the `spender`’s `allowance`. Used in transfers.",
							"params": {
								"allowance": "Amount of tokens a `spender` is allowed to operate with.",
								"needed": "Minimum amount required to perform a transfer.",
								"spender": "Address that may be allowed to operate on tokens without being their owner."
							}
						}
					],
					"ERC20InsufficientBalance(address,uint256,uint256)": [
						{
							"details": "Indicates an error related to the current `balance` of a `sender`. Used in transfers.",
							"params": {
								"balance": "Current balance for the interacting account.",
								"needed": "Minimum amount required to perform a transfer.",
								"sender": "Address whose tokens are being transferred."
							}
						}
					],
					"ERC20InvalidApprover(address)": [
						{
							"details": "Indicates a failure with the `approver` of a token to be approved. Used in approvals.",
							"params": {
								"approver": "Address initiating an approval operation."
							}
						}
					],
					"ERC20InvalidReceiver(address)": [
						{
							"details": "Indicates a failure with the token `receiver`. Used in transfers.",
							"params": {
								"receiver": "Address to which tokens are being transferred."
							}
						}
					],
					"ERC20InvalidSender(address)": [
						{
							"details": "Indicates a failure with the token `sender`. Used in transfers.",
							"params": {
								"sender": "Address whose tokens are being transferred."
							}
						}
					],
					"ERC20InvalidSpender(address)": [
						{
							"details": "Indicates a failure with the `spender` to be approved. Used in approvals.",
							"params": {
								"spender": "Address that may be allowed to operate on tokens without being their owner."
							}
						}
					],
					"OwnableInvalidOwner(address)": [
						{
							"details": "The owner is not a valid owner account. (eg. `address(0)`)"
						}
					],
					"OwnableUnauthorizedAccount(address)": [
						{
							"details": "The caller account is not authorized to perform an operation."
						}
					]
				},
				"events": {
					"Approval(address,address,uint256)": {
						"details": "Emitted when the allowance of a `spender` for an `owner` is set by a call to {approve}. `value` is the new allowance."
					},
					"Transfer(address,address,uint256)": {
						"details": "Emitted when `value` tokens are moved from one account (`from`) to another (`to`). Note that `value` may be zero."
					}
				},
				"kind": "dev",
				"methods": {
					"allowance(address,address)": {
						"details": "See {IERC20-allowance}."
					},
					"approve(address,uint256)": {
						"details": "See {IERC20-approve}. NOTE: If `value` is the maximum `uint256`, the allowance is not updated on `transferFrom`. This is semantically equivalent to an infinite approval. Requirements: - `spender` cannot be the zero address."
					},
					"balanceOf(address)": {
						"details": "See {IERC20-balanceOf}."
					},
					"decimals()": {
						"details": "Returns the number of decimals used to get its user representation. For example, if `decimals` equals `2`, a balance of `505` tokens should be displayed to a user as `5.05` (`505 / 10 ** 2`). Tokens usually opt for a value of 18, imitating the relationship between Ether and Wei. This is the default value returned by this function, unless it's overridden. NOTE: This information is only used for _display_ purposes: it in no way affects any of the arithmetic of the contract, including {IERC20-balanceOf} and {IERC20-transfer}."
					},
					"name()": {
						"details": "Returns the name of the token."
					},
					"owner()": {
						"details": "Returns the address of the current owner."
					},
					"renounceOwnership()": {
						"details": "Leaves the contract without owner. It will not be possible to call `onlyOwner` functions. Can only be called by the current owner. NOTE: Renouncing ownership will leave the contract without an owner, thereby disabling any functionality that is only available to the owner."
					},
					"symbol()": {
						"details": "Returns the symbol of the token, usually a shorter version of the name."
					},
					"totalSupply()": {
						"details": "See {IERC20-totalSupply}."
					},
					"transferFrom(address,address,uint256)": {
						"details": "See {IERC20-transferFrom}. Skips emitting an {Approval} event indicating an allowance update. This is not required by the ERC. See {xref-ERC20-_approve-address-address-uint256-bool-}[_approve]. NOTE: Does not update the allowance if the current allowance is the maximum `uint256`. Requirements: - `from` and `to` cannot be the zero address. - `from` must have a balance of at least `value`. - the caller must have allowance for ``from``'s tokens of at least `value`."
					},
					"transferOwnership(address)": {
						"details": "Transfers ownership of the contract to a new account (`newOwner`). Can only be called by the current owner."
					}
				},
				"version": 1
			},
			"evm": {
				"assembly": "    /* \"indentity_test_2.sol\":231:3106  contract XEAMToken is ERC20, Ownable, ReentrancyGuard {... */\n  mstore(0x40, 0x80)\n    /* \"indentity_test_2.sol\":920:1390  constructor(... */\n  callvalue\n  dup1\n  iszero\n  tag_1\n  jumpi\n  0x00\n  dup1\n  revert\ntag_1:\n  pop\n  mload(0x40)\n  sub(codesize, bytecodeSize)\n  dup1\n  bytecodeSize\n  dup4\n  codecopy\n  dup2\n  add\n  0x40\n  dup2\n  swap1\n  mstore\n  tag_2\n  swap2\n  tag_3\n  jump\t// in\ntag_2:\n    /* \"indentity_test_2.sol\":1108:1118  msg.sender */\n  caller\n    /* \"@openzeppelin/contracts/token/ERC20/ERC20.sol\":1601:1714  constructor(string memory name_, string memory symbol_) {... */\n  mload(0x40)\n  dup1\n  0x40\n  add\n  0x40\n  mstore\n  dup1\n  0x0a\n  dup2\n  mstore\n  0x20\n  add\n  shl(0xb1, 0x2c22a0a6902a37b5b2b7)\n  dup2\n  mstore\n  pop\n  mload(0x40)\n  dup1\n  0x40\n  add\n  0x40\n  mstore\n  dup1\n  0x04\n  dup2\n  mstore\n  0x20\n  add\n  shl(0xe0, 0x5845414d)\n  dup2\n  mstore\n  pop\n    /* \"@openzeppelin/contracts/token/ERC20/ERC20.sol\":1675:1680  name_ */\n  dup2\n    /* \"@openzeppelin/contracts/token/ERC20/ERC20.sol\":1667:1672  _name */\n  0x03\n    /* \"@openzeppelin/contracts/token/ERC20/ERC20.sol\":1667:1680  _name = name_ */\n  swap1\n  dup2\n  tag_9\n  swap2\n  swap1\n  tag_10\n  jump\t// in\ntag_9:\n  pop\n    /* \"@openzeppelin/contracts/token/ERC20/ERC20.sol\":1690:1697  _symbol */\n  0x04\n    /* \"@openzeppelin/contracts/token/ERC20/ERC20.sol\":1690:1707  _symbol = symbol_ */\n  tag_11\n    /* \"@openzeppelin/contracts/token/ERC20/ERC20.sol\":1700:1707  symbol_ */\n  dup3\n    /* \"@openzeppelin/contracts/token/ERC20/ERC20.sol\":1690:1697  _symbol */\n  dup3\n    /* \"@openzeppelin/contracts/token/ERC20/ERC20.sol\":1690:1707  _symbol = symbol_ */\n  tag_10\n  jump\t// in\ntag_11:\n  pop\n  pop\n  pop\n  sub(shl(0xa0, 0x01), 0x01)\n    /* \"@openzeppelin/contracts/access/Ownable.sol\":1273:1299  initialOwner == address(0) */\n  dup2\n  and\n    /* \"@openzeppelin/contracts/access/Ownable.sol\":1269:1364  if (initialOwner == address(0)) {... */\n  tag_13\n  jumpi\n    /* \"@openzeppelin/contracts/access/Ownable.sol\":1322:1353  OwnableInvalidOwner(address(0)) */\n  mload(0x40)\n  shl(0xe0, 0x1e4fbdf7)\n  dup2\n  mstore\n    /* \"@openzeppelin/contracts/access/Ownable.sol\":1350:1351  0 */\n  0x00\n    /* \"@openzeppelin/contracts/access/Ownable.sol\":1322:1353  OwnableInvalidOwner(address(0)) */\n  0x04\n  dup3\n  add\n    /* \"#utility.yul\":3452:3503   */\n  mstore\n    /* \"#utility.yul\":3425:3443   */\n  0x24\n  add\n    /* \"@openzeppelin/contracts/access/Ownable.sol\":1322:1353  OwnableInvalidOwner(address(0)) */\ntag_14:\n  mload(0x40)\n  dup1\n  swap2\n  sub\n  swap1\n  revert\n    /* \"@openzeppelin/contracts/access/Ownable.sol\":1269:1364  if (initialOwner == address(0)) {... */\ntag_13:\n    /* \"@openzeppelin/contracts/access/Ownable.sol\":1373:1405  _transferOwnership(initialOwner) */\n  tag_16\n    /* \"@openzeppelin/contracts/access/Ownable.sol\":1392:1404  initialOwner */\n  dup2\n    /* \"@openzeppelin/contracts/access/Ownable.sol\":1373:1391  _transferOwnership */\n  tag_17\n    /* \"@openzeppelin/contracts/access/Ownable.sol\":1373:1405  _transferOwnership(initialOwner) */\n  jump\t// in\ntag_16:\n  pop\n    /* \"@openzeppelin/contracts/security/ReentrancyGuard.sol\":1716:1717  1 */\n  0x01\n    /* \"@openzeppelin/contracts/security/ReentrancyGuard.sol\":1821:1828  _status */\n  0x06\n    /* \"@openzeppelin/contracts/security/ReentrancyGuard.sol\":1821:1843  _status = _NOT_ENTERED */\n  sstore\n    /* \"indentity_test_2.sol\":1130:1147  encouragementFund */\n  0x07\n    /* \"indentity_test_2.sol\":1130:1168  encouragementFund = _encouragementFund */\n  dup1\n  sload\n  sub(shl(0xa0, 0x01), 0x01)\n  dup1\n  dup8\n  and\n  not(sub(shl(0xa0, 0x01), 0x01))\n  swap3\n  dup4\n  and\n  or\n  swap1\n  swap3\n  sstore\n    /* \"indentity_test_2.sol\":1178:1191  emergencyFund */\n  0x08\n    /* \"indentity_test_2.sol\":1178:1208  emergencyFund = _emergencyFund */\n  dup1\n  sload\n  dup7\n  dup5\n  and\n  swap1\n  dup4\n  and\n  or\n  swap1\n  sstore\n    /* \"indentity_test_2.sol\":1218:1233  marketingWallet */\n  0x09\n    /* \"indentity_test_2.sol\":1218:1252  marketingWallet = _marketingWallet */\n  dup1\n  sload\n  dup6\n  dup5\n  and\n  swap1\n  dup4\n  and\n  or\n  swap1\n  sstore\n    /* \"indentity_test_2.sol\":1262:1275  stakingWallet */\n  0x0a\n    /* \"indentity_test_2.sol\":1262:1292  stakingWallet = _stakingWallet */\n  dup1\n  sload\n  swap3\n  dup5\n  and\n  swap3\n  swap1\n  swap2\n  and\n  swap2\n  swap1\n  swap2\n  or\n  swap1\n  sstore\n    /* \"indentity_test_2.sol\":1303:1336  _mint(msg.sender, INITIAL_SUPPLY) */\n  tag_20\n    /* \"indentity_test_2.sol\":1309:1319  msg.sender */\n  caller\n    /* \"indentity_test_2.sol\":332:350  2_000_000 * 10**18 */\n  0x01a784379d99db42000000\n    /* \"indentity_test_2.sol\":1303:1308  _mint */\n  tag_21\n    /* \"indentity_test_2.sol\":1303:1336  _mint(msg.sender, INITIAL_SUPPLY) */\n  jump\t// in\ntag_20:\n  pop\n  pop\n    /* \"indentity_test_2.sol\":1365:1375  msg.sender */\n  caller\n    /* \"indentity_test_2.sol\":1346:1376  isExcludedFromFees[msg.sender] */\n  0x00\n  swap1\n  dup2\n  mstore\n    /* \"indentity_test_2.sol\":1346:1364  isExcludedFromFees */\n  0x0b\n    /* \"indentity_test_2.sol\":1346:1376  isExcludedFromFees[msg.sender] */\n  0x20\n  mstore\n  0x40\n  swap1\n  keccak256\n    /* \"indentity_test_2.sol\":1346:1383  isExcludedFromFees[msg.sender] = true */\n  dup1\n  sload\n  not(0xff)\n  and\n    /* \"indentity_test_2.sol\":1379:1383  true */\n  0x01\n    /* \"indentity_test_2.sol\":1346:1383  isExcludedFromFees[msg.sender] = true */\n  or\n  swap1\n  sstore\n  pop\n    /* \"indentity_test_2.sol\":231:3106  contract XEAMToken is ERC20, Ownable, ReentrancyGuard {... */\n  tag_47\n  swap1\n  pop\n  jump\n    /* \"@openzeppelin/contracts/access/Ownable.sol\":2912:3099  function _transferOwnership(address newOwner) internal virtual {... */\ntag_17:\n    /* \"@openzeppelin/contracts/access/Ownable.sol\":3004:3010  _owner */\n  0x05\n  dup1\n  sload\n  sub(shl(0xa0, 0x01), 0x01)\n    /* \"@openzeppelin/contracts/access/Ownable.sol\":3020:3037  _owner = newOwner */\n  dup4\n  dup2\n  and\n  not(sub(shl(0xa0, 0x01), 0x01))\n  dup4\n  and\n  dup2\n  or\n  swap1\n  swap4\n  sstore\n    /* \"@openzeppelin/contracts/access/Ownable.sol\":3052:3092  OwnershipTransferred(oldOwner, newOwner) */\n  mload(0x40)\n    /* \"@openzeppelin/contracts/access/Ownable.sol\":3004:3010  _owner */\n  swap2\n  and\n  swap2\n    /* \"@openzeppelin/contracts/access/Ownable.sol\":3020:3037  _owner = newOwner */\n  swap1\n    /* \"@openzeppelin/contracts/access/Ownable.sol\":3004:3010  _owner */\n  dup3\n  swap1\n    /* \"@openzeppelin/contracts/access/Ownable.sol\":3052:3092  OwnershipTransferred(oldOwner, newOwner) */\n  0x8be0079c531659141344cd1fd0a4f28419497f9722a3daafe3b4186f6b6457e0\n  swap1\n    /* \"@openzeppelin/contracts/access/Ownable.sol\":2985:3001  address oldOwner */\n  0x00\n  swap1\n    /* \"@openzeppelin/contracts/access/Ownable.sol\":3052:3092  OwnershipTransferred(oldOwner, newOwner) */\n  log3\n    /* \"@openzeppelin/contracts/access/Ownable.sol\":2975:3099  {... */\n  pop\n    /* \"@openzeppelin/contracts/access/Ownable.sol\":2912:3099  function _transferOwnership(address newOwner) internal virtual {... */\n  pop\n  jump\t// out\n    /* \"@openzeppelin/contracts/token/ERC20/ERC20.sol\":7458:7666  function _mint(address account, uint256 value) internal {... */\ntag_21:\n  sub(shl(0xa0, 0x01), 0x01)\n    /* \"@openzeppelin/contracts/token/ERC20/ERC20.sol\":7528:7549  account == address(0) */\n  dup3\n  and\n    /* \"@openzeppelin/contracts/token/ERC20/ERC20.sol\":7524:7615  if (account == address(0)) {... */\n  tag_25\n  jumpi\n    /* \"@openzeppelin/contracts/token/ERC20/ERC20.sol\":7572:7604  ERC20InvalidReceiver(address(0)) */\n  mload(0x40)\n  shl(0xe0, 0xec442f05)\n  dup2\n  mstore\n    /* \"@openzeppelin/contracts/token/ERC20/ERC20.sol\":7601:7602  0 */\n  0x00\n    /* \"@openzeppelin/contracts/token/ERC20/ERC20.sol\":7572:7604  ERC20InvalidReceiver(address(0)) */\n  0x04\n  dup3\n  add\n    /* \"#utility.yul\":3452:3503   */\n  mstore\n    /* \"#utility.yul\":3425:3443   */\n  0x24\n  add\n    /* \"@openzeppelin/contracts/token/ERC20/ERC20.sol\":7572:7604  ERC20InvalidReceiver(address(0)) */\n  tag_14\n    /* \"#utility.yul\":3306:3509   */\n  jump\n    /* \"@openzeppelin/contracts/token/ERC20/ERC20.sol\":7524:7615  if (account == address(0)) {... */\ntag_25:\n    /* \"@openzeppelin/contracts/token/ERC20/ERC20.sol\":7624:7659  _update(address(0), account, value) */\n  tag_27\n    /* \"@openzeppelin/contracts/token/ERC20/ERC20.sol\":7640:7641  0 */\n  0x00\n    /* \"@openzeppelin/contracts/token/ERC20/ERC20.sol\":7644:7651  account */\n  dup4\n    /* \"@openzeppelin/contracts/token/ERC20/ERC20.sol\":7653:7658  value */\n  dup4\n    /* \"@openzeppelin/contracts/token/ERC20/ERC20.sol\":7624:7631  _update */\n  tag_28\n    /* \"@openzeppelin/contracts/token/ERC20/ERC20.sol\":7624:7659  _update(address(0), account, value) */\n  jump\t// in\ntag_27:\n    /* \"@openzeppelin/contracts/token/ERC20/ERC20.sol\":7458:7666  function _mint(address account, uint256 value) internal {... */\n  pop\n  pop\n  jump\t// out\n    /* \"@openzeppelin/contracts/token/ERC20/ERC20.sol\":6008:7115  function _update(address from, address to, uint256 value) internal virtual {... */\ntag_28:\n  sub(shl(0xa0, 0x01), 0x01)\n    /* \"@openzeppelin/contracts/token/ERC20/ERC20.sol\":6097:6115  from == address(0) */\n  dup4\n  and\n    /* \"@openzeppelin/contracts/token/ERC20/ERC20.sol\":6093:6633  if (from == address(0)) {... */\n  tag_30\n  jumpi\n    /* \"@openzeppelin/contracts/token/ERC20/ERC20.sol\":6249:6254  value */\n  dup1\n    /* \"@openzeppelin/contracts/token/ERC20/ERC20.sol\":6233:6245  _totalSupply */\n  0x02\n  0x00\n    /* \"@openzeppelin/contracts/token/ERC20/ERC20.sol\":6233:6254  _totalSupply += value */\n  dup3\n  dup3\n  sload\n  tag_31\n  swap2\n  swap1\n  tag_32\n  jump\t// in\ntag_31:\n  swap1\n  swap2\n  sstore\n  pop\n    /* \"@openzeppelin/contracts/token/ERC20/ERC20.sol\":6093:6633  if (from == address(0)) {... */\n  tag_33\n  swap1\n  pop\n  jump\ntag_30:\n  sub(shl(0xa0, 0x01), 0x01)\n    /* \"@openzeppelin/contracts/token/ERC20/ERC20.sol\":6307:6322  _balances[from] */\n  dup4\n  and\n    /* \"@openzeppelin/contracts/token/ERC20/ERC20.sol\":6285:6304  uint256 fromBalance */\n  0x00\n    /* \"@openzeppelin/contracts/token/ERC20/ERC20.sol\":6307:6322  _balances[from] */\n  swap1\n  dup2\n  mstore\n  0x20\n  dup2\n  swap1\n  mstore\n  0x40\n  swap1\n  keccak256\n  sload\n    /* \"@openzeppelin/contracts/token/ERC20/ERC20.sol\":6340:6359  fromBalance < value */\n  dup2\n  dup2\n  lt\n    /* \"@openzeppelin/contracts/token/ERC20/ERC20.sol\":6336:6451  if (fromBalance < value) {... */\n  iszero\n  tag_34\n  jumpi\n    /* \"@openzeppelin/contracts/token/ERC20/ERC20.sol\":6386:6436  ERC20InsufficientBalance(from, fromBalance, value) */\n  mload(0x40)\n  shl(0xe2, 0x391434e3)\n  dup2\n  mstore\n  sub(shl(0xa0, 0x01), 0x01)\n    /* \"#utility.yul\":3961:3993   */\n  dup6\n  and\n    /* \"@openzeppelin/contracts/token/ERC20/ERC20.sol\":6386:6436  ERC20InsufficientBalance(from, fromBalance, value) */\n  0x04\n  dup3\n  add\n    /* \"#utility.yul\":3943:3994   */\n  mstore\n    /* \"#utility.yul\":4010:4028   */\n  0x24\n  dup2\n  add\n    /* \"#utility.yul\":4003:4037   */\n  dup3\n  swap1\n  mstore\n    /* \"#utility.yul\":4053:4071   */\n  0x44\n  dup2\n  add\n    /* \"#utility.yul\":4046:4080   */\n  dup4\n  swap1\n  mstore\n    /* \"#utility.yul\":3916:3934   */\n  0x64\n  add\n    /* \"@openzeppelin/contracts/token/ERC20/ERC20.sol\":6386:6436  ERC20InsufficientBalance(from, fromBalance, value) */\n  tag_14\n    /* \"#utility.yul\":3741:4086   */\n  jump\n    /* \"@openzeppelin/contracts/token/ERC20/ERC20.sol\":6336:6451  if (fromBalance < value) {... */\ntag_34:\n  sub(shl(0xa0, 0x01), 0x01)\n    /* \"@openzeppelin/contracts/token/ERC20/ERC20.sol\":6571:6586  _balances[from] */\n  dup5\n  and\n    /* \"@openzeppelin/contracts/token/ERC20/ERC20.sol\":6571:6580  _balances */\n  0x00\n    /* \"@openzeppelin/contracts/token/ERC20/ERC20.sol\":6571:6586  _balances[from] */\n  swap1\n  dup2\n  mstore\n  0x20\n  dup2\n  swap1\n  mstore\n  0x40\n  swap1\n  keccak256\n    /* \"@openzeppelin/contracts/token/ERC20/ERC20.sol\":6589:6608  fromBalance - value */\n  swap1\n  dup3\n  swap1\n  sub\n    /* \"@openzeppelin/contracts/token/ERC20/ERC20.sol\":6571:6608  _balances[from] = fromBalance - value */\n  swap1\n  sstore\n    /* \"@openzeppelin/contracts/token/ERC20/ERC20.sol\":6093:6633  if (from == address(0)) {... */\ntag_33:\n  sub(shl(0xa0, 0x01), 0x01)\n    /* \"@openzeppelin/contracts/token/ERC20/ERC20.sol\":6647:6663  to == address(0) */\n  dup3\n  and\n    /* \"@openzeppelin/contracts/token/ERC20/ERC20.sol\":6643:7068  if (to == address(0)) {... */\n  tag_37\n  jumpi\n    /* \"@openzeppelin/contracts/token/ERC20/ERC20.sol\":6810:6822  _totalSupply */\n  0x02\n    /* \"@openzeppelin/contracts/token/ERC20/ERC20.sol\":6810:6831  _totalSupply -= value */\n  dup1\n  sload\n  dup3\n  swap1\n  sub\n  swap1\n  sstore\n    /* \"@openzeppelin/contracts/token/ERC20/ERC20.sol\":6643:7068  if (to == address(0)) {... */\n  jump(tag_38)\ntag_37:\n  sub(shl(0xa0, 0x01), 0x01)\n    /* \"@openzeppelin/contracts/token/ERC20/ERC20.sol\":7021:7034  _balances[to] */\n  dup3\n  and\n    /* \"@openzeppelin/contracts/token/ERC20/ERC20.sol\":7021:7030  _balances */\n  0x00\n    /* \"@openzeppelin/contracts/token/ERC20/ERC20.sol\":7021:7034  _balances[to] */\n  swap1\n  dup2\n  mstore\n  0x20\n  dup2\n  swap1\n  mstore\n  0x40\n  swap1\n  keccak256\n    /* \"@openzeppelin/contracts/token/ERC20/ERC20.sol\":7021:7043  _balances[to] += value */\n  dup1\n  sload\n  dup3\n  add\n  swap1\n  sstore\n    /* \"@openzeppelin/contracts/token/ERC20/ERC20.sol\":6643:7068  if (to == address(0)) {... */\ntag_38:\n    /* \"@openzeppelin/contracts/token/ERC20/ERC20.sol\":7098:7100  to */\n  dup2\n  sub(shl(0xa0, 0x01), 0x01)\n    /* \"@openzeppelin/contracts/token/ERC20/ERC20.sol\":7083:7108  Transfer(from, to, value) */\n  and\n    /* \"@openzeppelin/contracts/token/ERC20/ERC20.sol\":7092:7096  from */\n  dup4\n  sub(shl(0xa0, 0x01), 0x01)\n    /* \"@openzeppelin/contracts/token/ERC20/ERC20.sol\":7083:7108  Transfer(from, to, value) */\n  and\n  0xddf252ad1be2c89b69c2b068fc378daa952ba7f163c4a11628f55a4df523b3ef\n    /* \"@openzeppelin/contracts/token/ERC20/ERC20.sol\":7102:7107  value */\n  dup4\n    /* \"@openzeppelin/contracts/token/ERC20/ERC20.sol\":7083:7108  Transfer(from, to, value) */\n  mload(0x40)\n  tag_39\n  swap2\n    /* \"#utility.yul\":4237:4262   */\n  dup2\n  mstore\n    /* \"#utility.yul\":4225:4227   */\n  0x20\n    /* \"#utility.yul\":4210:4228   */\n  add\n  swap1\n    /* \"#utility.yul\":4091:4268   */\n  jump\n    /* \"@openzeppelin/contracts/token/ERC20/ERC20.sol\":7083:7108  Transfer(from, to, value) */\ntag_39:\n  mload(0x40)\n  dup1\n  swap2\n  sub\n  swap1\n  log3\n    /* \"@openzeppelin/contracts/token/ERC20/ERC20.sol\":6008:7115  function _update(address from, address to, uint256 value) internal virtual {... */\n  pop\n  pop\n  pop\n  jump\t// out\n    /* \"#utility.yul\":14:191   */\ntag_41:\n    /* \"#utility.yul\":93:106   */\n  dup1\n  mload\n  sub(shl(0xa0, 0x01), 0x01)\n    /* \"#utility.yul\":135:166   */\n  dup2\n  and\n    /* \"#utility.yul\":125:167   */\n  dup2\n  eq\n    /* \"#utility.yul\":115:185   */\n  tag_49\n  jumpi\n    /* \"#utility.yul\":181:182   */\n  0x00\n    /* \"#utility.yul\":178:179   */\n  dup1\n    /* \"#utility.yul\":171:183   */\n  revert\n    /* \"#utility.yul\":115:185   */\ntag_49:\n    /* \"#utility.yul\":14:191   */\n  swap2\n  swap1\n  pop\n  jump\t// out\n    /* \"#utility.yul\":196:660   */\ntag_3:\n    /* \"#utility.yul\":293:299   */\n  0x00\n    /* \"#utility.yul\":301:307   */\n  dup1\n    /* \"#utility.yul\":309:315   */\n  0x00\n    /* \"#utility.yul\":317:323   */\n  dup1\n    /* \"#utility.yul\":370:373   */\n  0x80\n    /* \"#utility.yul\":358:367   */\n  dup6\n    /* \"#utility.yul\":349:356   */\n  dup8\n    /* \"#utility.yul\":345:368   */\n  sub\n    /* \"#utility.yul\":341:374   */\n  slt\n    /* \"#utility.yul\":338:391   */\n  iszero\n  tag_51\n  jumpi\n    /* \"#utility.yul\":387:388   */\n  0x00\n    /* \"#utility.yul\":384:385   */\n  dup1\n    /* \"#utility.yul\":377:389   */\n  revert\n    /* \"#utility.yul\":338:391   */\ntag_51:\n    /* \"#utility.yul\":410:450   */\n  tag_52\n    /* \"#utility.yul\":440:449   */\n  dup6\n    /* \"#utility.yul\":410:450   */\n  tag_41\n  jump\t// in\ntag_52:\n    /* \"#utility.yul\":400:450   */\n  swap4\n  pop\n    /* \"#utility.yul\":469:518   */\n  tag_53\n    /* \"#utility.yul\":514:516   */\n  0x20\n    /* \"#utility.yul\":503:512   */\n  dup7\n    /* \"#utility.yul\":499:517   */\n  add\n    /* \"#utility.yul\":469:518   */\n  tag_41\n  jump\t// in\ntag_53:\n    /* \"#utility.yul\":459:518   */\n  swap3\n  pop\n    /* \"#utility.yul\":537:586   */\n  tag_54\n    /* \"#utility.yul\":582:584   */\n  0x40\n    /* \"#utility.yul\":571:580   */\n  dup7\n    /* \"#utility.yul\":567:585   */\n  add\n    /* \"#utility.yul\":537:586   */\n  tag_41\n  jump\t// in\ntag_54:\n    /* \"#utility.yul\":527:586   */\n  swap2\n  pop\n    /* \"#utility.yul\":605:654   */\n  tag_55\n    /* \"#utility.yul\":650:652   */\n  0x60\n    /* \"#utility.yul\":639:648   */\n  dup7\n    /* \"#utility.yul\":635:653   */\n  add\n    /* \"#utility.yul\":605:654   */\n  tag_41\n  jump\t// in\ntag_55:\n    /* \"#utility.yul\":595:654   */\n  swap1\n  pop\n    /* \"#utility.yul\":196:660   */\n  swap3\n  swap6\n  swap2\n  swap5\n  pop\n  swap3\n  pop\n  jump\t// out\n    /* \"#utility.yul\":665:792   */\ntag_42:\n    /* \"#utility.yul\":726:736   */\n  0x4e487b71\n    /* \"#utility.yul\":721:724   */\n  0xe0\n    /* \"#utility.yul\":717:737   */\n  shl\n    /* \"#utility.yul\":714:715   */\n  0x00\n    /* \"#utility.yul\":707:738   */\n  mstore\n    /* \"#utility.yul\":757:761   */\n  0x41\n    /* \"#utility.yul\":754:755   */\n  0x04\n    /* \"#utility.yul\":747:762   */\n  mstore\n    /* \"#utility.yul\":781:785   */\n  0x24\n    /* \"#utility.yul\":778:779   */\n  0x00\n    /* \"#utility.yul\":771:786   */\n  revert\n    /* \"#utility.yul\":797:1177   */\ntag_43:\n    /* \"#utility.yul\":876:877   */\n  0x01\n    /* \"#utility.yul\":872:884   */\n  dup2\n  dup2\n  shr\n  swap1\n    /* \"#utility.yul\":919:931   */\n  dup3\n  and\n  dup1\n    /* \"#utility.yul\":940:1001   */\n  tag_58\n  jumpi\n    /* \"#utility.yul\":994:998   */\n  0x7f\n    /* \"#utility.yul\":986:992   */\n  dup3\n    /* \"#utility.yul\":982:999   */\n  and\n    /* \"#utility.yul\":972:999   */\n  swap2\n  pop\n    /* \"#utility.yul\":940:1001   */\ntag_58:\n    /* \"#utility.yul\":1047:1049   */\n  0x20\n    /* \"#utility.yul\":1039:1045   */\n  dup3\n    /* \"#utility.yul\":1036:1050   */\n  lt\n    /* \"#utility.yul\":1016:1034   */\n  dup2\n    /* \"#utility.yul\":1013:1051   */\n  sub\n    /* \"#utility.yul\":1010:1171   */\n  tag_59\n  jumpi\n    /* \"#utility.yul\":1093:1103   */\n  0x4e487b71\n    /* \"#utility.yul\":1088:1091   */\n  0xe0\n    /* \"#utility.yul\":1084:1104   */\n  shl\n    /* \"#utility.yul\":1081:1082   */\n  0x00\n    /* \"#utility.yul\":1074:1105   */\n  mstore\n    /* \"#utility.yul\":1128:1132   */\n  0x22\n    /* \"#utility.yul\":1125:1126   */\n  0x04\n    /* \"#utility.yul\":1118:1133   */\n  mstore\n    /* \"#utility.yul\":1156:1160   */\n  0x24\n    /* \"#utility.yul\":1153:1154   */\n  0x00\n    /* \"#utility.yul\":1146:1161   */\n  revert\n    /* \"#utility.yul\":1010:1171   */\ntag_59:\n  pop\n    /* \"#utility.yul\":797:1177   */\n  swap2\n  swap1\n  pop\n  jump\t// out\n    /* \"#utility.yul\":1308:1826   */\ntag_45:\n    /* \"#utility.yul\":1410:1412   */\n  0x1f\n    /* \"#utility.yul\":1405:1408   */\n  dup3\n    /* \"#utility.yul\":1402:1413   */\n  gt\n    /* \"#utility.yul\":1399:1820   */\n  iszero\n  tag_62\n  jumpi\n    /* \"#utility.yul\":1446:1451   */\n  dup1\n    /* \"#utility.yul\":1443:1444   */\n  0x00\n    /* \"#utility.yul\":1436:1452   */\n  mstore\n    /* \"#utility.yul\":1490:1494   */\n  0x20\n    /* \"#utility.yul\":1487:1488   */\n  0x00\n    /* \"#utility.yul\":1477:1495   */\n  keccak256\n    /* \"#utility.yul\":1560:1562   */\n  0x1f\n    /* \"#utility.yul\":1548:1558   */\n  dup5\n    /* \"#utility.yul\":1544:1563   */\n  add\n    /* \"#utility.yul\":1541:1542   */\n  0x05\n    /* \"#utility.yul\":1537:1564   */\n  shr\n    /* \"#utility.yul\":1531:1535   */\n  dup2\n    /* \"#utility.yul\":1527:1565   */\n  add\n    /* \"#utility.yul\":1596:1600   */\n  0x20\n    /* \"#utility.yul\":1584:1594   */\n  dup6\n    /* \"#utility.yul\":1581:1601   */\n  lt\n    /* \"#utility.yul\":1578:1625   */\n  iszero\n  tag_63\n  jumpi\n  pop\n    /* \"#utility.yul\":1619:1623   */\n  dup1\n    /* \"#utility.yul\":1578:1625   */\ntag_63:\n    /* \"#utility.yul\":1674:1676   */\n  0x1f\n    /* \"#utility.yul\":1669:1672   */\n  dup5\n    /* \"#utility.yul\":1665:1677   */\n  add\n    /* \"#utility.yul\":1662:1663   */\n  0x05\n    /* \"#utility.yul\":1658:1678   */\n  shr\n    /* \"#utility.yul\":1652:1656   */\n  dup3\n    /* \"#utility.yul\":1648:1679   */\n  add\n    /* \"#utility.yul\":1638:1679   */\n  swap2\n  pop\n    /* \"#utility.yul\":1729:1810   */\ntag_64:\n    /* \"#utility.yul\":1747:1749   */\n  dup2\n    /* \"#utility.yul\":1740:1745   */\n  dup2\n    /* \"#utility.yul\":1737:1750   */\n  lt\n    /* \"#utility.yul\":1729:1810   */\n  iszero\n  tag_66\n  jumpi\n    /* \"#utility.yul\":1806:1807   */\n  0x00\n    /* \"#utility.yul\":1792:1808   */\n  dup2\n  sstore\n    /* \"#utility.yul\":1773:1774   */\n  0x01\n    /* \"#utility.yul\":1762:1775   */\n  add\n    /* \"#utility.yul\":1729:1810   */\n  jump(tag_64)\ntag_66:\n    /* \"#utility.yul\":1733:1736   */\n  pop\n  pop\n    /* \"#utility.yul\":1399:1820   */\ntag_62:\n    /* \"#utility.yul\":1308:1826   */\n  pop\n  pop\n  pop\n  jump\t// out\n    /* \"#utility.yul\":2002:3301   */\ntag_10:\n    /* \"#utility.yul\":2122:2132   */\n  dup2\n  mload\n  sub(shl(0x40, 0x01), 0x01)\n    /* \"#utility.yul\":2144:2174   */\n  dup2\n  gt\n    /* \"#utility.yul\":2141:2197   */\n  iszero\n  tag_70\n  jumpi\n    /* \"#utility.yul\":2177:2195   */\n  tag_70\n  tag_42\n  jump\t// in\ntag_70:\n    /* \"#utility.yul\":2206:2303   */\n  tag_71\n    /* \"#utility.yul\":2296:2302   */\n  dup2\n    /* \"#utility.yul\":2256:2294   */\n  tag_72\n    /* \"#utility.yul\":2288:2292   */\n  dup5\n    /* \"#utility.yul\":2282:2293   */\n  sload\n    /* \"#utility.yul\":2256:2294   */\n  tag_43\n  jump\t// in\ntag_72:\n    /* \"#utility.yul\":2250:2254   */\n  dup5\n    /* \"#utility.yul\":2206:2303   */\n  tag_45\n  jump\t// in\ntag_71:\n    /* \"#utility.yul\":2352:2356   */\n  0x20\n    /* \"#utility.yul\":2383:2385   */\n  0x1f\n    /* \"#utility.yul\":2372:2386   */\n  dup3\n  gt\n    /* \"#utility.yul\":2400:2401   */\n  0x01\n    /* \"#utility.yul\":2395:3044   */\n  dup2\n  eq\n  tag_74\n  jumpi\n    /* \"#utility.yul\":3088:3089   */\n  0x00\n    /* \"#utility.yul\":3105:3111   */\n  dup4\n    /* \"#utility.yul\":3102:3191   */\n  iszero\n  tag_75\n  jumpi\n  pop\n    /* \"#utility.yul\":3157:3176   */\n  dup5\n  dup3\n  add\n    /* \"#utility.yul\":3151:3177   */\n  mload\n    /* \"#utility.yul\":3102:3191   */\ntag_75:\n  not(0x00)\n    /* \"#utility.yul\":1959:1960   */\n  0x03\n    /* \"#utility.yul\":1955:1966   */\n  dup6\n  swap1\n  shl\n    /* \"#utility.yul\":1951:1975   */\n  shr\n    /* \"#utility.yul\":1947:1976   */\n  not\n    /* \"#utility.yul\":1937:1977   */\n  and\n    /* \"#utility.yul\":1983:1984   */\n  0x01\n    /* \"#utility.yul\":1979:1990   */\n  dup5\n  swap1\n  shl\n    /* \"#utility.yul\":1934:1991   */\n  or\n    /* \"#utility.yul\":3204:3285   */\n  dup5\n  sstore\n    /* \"#utility.yul\":2365:3295   */\n  jump(tag_66)\n    /* \"#utility.yul\":2395:3044   */\ntag_74:\n    /* \"#utility.yul\":1255:1256   */\n  0x00\n    /* \"#utility.yul\":1248:1262   */\n  dup5\n  dup2\n  mstore\n    /* \"#utility.yul\":1292:1296   */\n  0x20\n    /* \"#utility.yul\":1279:1297   */\n  dup2\n  keccak256\n  not(0x1f)\n    /* \"#utility.yul\":2431:2451   */\n  dup6\n  and\n  swap2\n    /* \"#utility.yul\":2549:2771   */\ntag_78:\n    /* \"#utility.yul\":2563:2570   */\n  dup3\n    /* \"#utility.yul\":2560:2561   */\n  dup2\n    /* \"#utility.yul\":2557:2571   */\n  lt\n    /* \"#utility.yul\":2549:2771   */\n  iszero\n  tag_80\n  jumpi\n    /* \"#utility.yul\":2645:2664   */\n  dup8\n  dup6\n  add\n    /* \"#utility.yul\":2639:2665   */\n  mload\n    /* \"#utility.yul\":2624:2666   */\n  dup3\n  sstore\n    /* \"#utility.yul\":2752:2756   */\n  0x20\n    /* \"#utility.yul\":2737:2757   */\n  swap5\n  dup6\n  add\n  swap5\n    /* \"#utility.yul\":2705:2706   */\n  0x01\n    /* \"#utility.yul\":2693:2707   */\n  swap1\n  swap3\n  add\n  swap2\n    /* \"#utility.yul\":2579:2591   */\n  add\n    /* \"#utility.yul\":2549:2771   */\n  jump(tag_78)\ntag_80:\n    /* \"#utility.yul\":2553:2556   */\n  pop\n    /* \"#utility.yul\":2799:2805   */\n  dup5\n    /* \"#utility.yul\":2790:2797   */\n  dup3\n    /* \"#utility.yul\":2787:2806   */\n  lt\n    /* \"#utility.yul\":2784:2985   */\n  iszero\n  tag_81\n  jumpi\n    /* \"#utility.yul\":2860:2879   */\n  dup7\n  dup5\n  add\n    /* \"#utility.yul\":2854:2880   */\n  mload\n  not(0x00)\n    /* \"#utility.yul\":2943:2944   */\n  0x03\n    /* \"#utility.yul\":2939:2953   */\n  dup8\n  swap1\n  shl\n    /* \"#utility.yul\":2955:2958   */\n  0xf8\n    /* \"#utility.yul\":2935:2959   */\n  and\n    /* \"#utility.yul\":2931:2968   */\n  shr\n    /* \"#utility.yul\":2927:2969   */\n  not\n    /* \"#utility.yul\":2912:2970   */\n  and\n    /* \"#utility.yul\":2897:2971   */\n  dup2\n  sstore\n    /* \"#utility.yul\":2784:2985   */\ntag_81:\n  pop\n  pop\n  pop\n  pop\n    /* \"#utility.yul\":3031:3032   */\n  0x01\n    /* \"#utility.yul\":3015:3029   */\n  swap1\n  dup2\n  shl\n    /* \"#utility.yul\":3011:3033   */\n  add\n    /* \"#utility.yul\":2998:3034   */\n  swap1\n  sstore\n  pop\n    /* \"#utility.yul\":2002:3301   */\n  jump\t// out\n    /* \"#utility.yul\":3514:3736   */\ntag_32:\n    /* \"#utility.yul\":3579:3588   */\n  dup1\n  dup3\n  add\n    /* \"#utility.yul\":3600:3610   */\n  dup1\n  dup3\n  gt\n    /* \"#utility.yul\":3597:3730   */\n  iszero\n  tag_84\n  jumpi\n    /* \"#utility.yul\":3652:3662   */\n  0x4e487b71\n    /* \"#utility.yul\":3647:3650   */\n  0xe0\n    /* \"#utility.yul\":3643:3663   */\n  shl\n    /* \"#utility.yul\":3640:3641   */\n  0x00\n    /* \"#utility.yul\":3633:3664   */\n  mstore\n    /* \"#utility.yul\":3687:3691   */\n  0x11\n    /* \"#utility.yul\":3684:3685   */\n  0x04\n    /* \"#utility.yul\":3677:3692   */\n  mstore\n    /* \"#utility.yul\":3715:3719   */\n  0x24\n    /* \"#utility.yul\":3712:3713   */\n  0x00\n    /* \"#utility.yul\":3705:3720   */\n  revert\n    /* \"#utility.yul\":3597:3730   */\ntag_84:\n    /* \"#utility.yul\":3514:3736   */\n  swap3\n  swap2\n  pop\n  pop\n  jump\t// out\n    /* \"#utility.yul\":4091:4268   */\ntag_47:\n    /* \"indentity_test_2.sol\":231:3106  contract XEAMToken is ERC20, Ownable, ReentrancyGuard {... */\n  dataSize(sub_0)\n  dup1\n  dataOffset(sub_0)\n  0x00\n  codecopy\n  0x00\n  return\nstop\n\nsub_0: assembly {\n        /* \"indentity_test_2.sol\":231:3106  contract XEAMToken is ERC20, Ownable, ReentrancyGuard {... */\n      mstore(0x40, 0x80)\n      callvalue\n      dup1\n      iszero\n      tag_1\n      jumpi\n      0x00\n      dup1\n      revert\n    tag_1:\n      pop\n      jumpi(tag_2, lt(calldatasize, 0x04))\n      shr(0xe0, calldataload(0x00))\n      dup1\n      0x70a08231\n      gt\n      tag_27\n      jumpi\n      dup1\n      0xa9059cbb\n      gt\n      tag_28\n      jumpi\n      dup1\n      0xa9059cbb\n      eq\n      tag_21\n      jumpi\n      dup1\n      0xcc859378\n      eq\n      tag_22\n      jumpi\n      dup1\n      0xdd62ed3e\n      eq\n      tag_23\n      jumpi\n      dup1\n      0xdf7787a4\n      eq\n      tag_24\n      jumpi\n      dup1\n      0xf2fde38b\n      eq\n      tag_25\n      jumpi\n      dup1\n      0xf3b2db3f\n      eq\n      tag_26\n      jumpi\n      0x00\n      dup1\n      revert\n    tag_28:\n      dup1\n      0x70a08231\n      eq\n      tag_15\n      jumpi\n      dup1\n      0x715018a6\n      eq\n      tag_16\n      jumpi\n      dup1\n      0x753cafc3\n      eq\n      tag_17\n      jumpi\n      dup1\n      0x75f0a874\n      eq\n      tag_18\n      jumpi\n      dup1\n      0x8da5cb5b\n      eq\n      tag_19\n      jumpi\n      dup1\n      0x95d89b41\n      eq\n      tag_20\n      jumpi\n      0x00\n      dup1\n      revert\n    tag_27:\n      dup1\n      0x2ff2e9dc\n      gt\n      tag_29\n      jumpi\n      dup1\n      0x2ff2e9dc\n      eq\n      tag_9\n      jumpi\n      dup1\n      0x313ce567\n      eq\n      tag_10\n      jumpi\n      dup1\n      0x36b4134a\n      eq\n      tag_11\n      jumpi\n      dup1\n      0x4fbee193\n      eq\n      tag_12\n      jumpi\n      dup1\n      0x52a6a9ec\n      eq\n      tag_13\n      jumpi\n      dup1\n      0x54ad8aee\n      eq\n      tag_14\n      jumpi\n      0x00\n      dup1\n      revert\n    tag_29:\n      dup1\n      0x02af37bb\n      eq\n      tag_3\n      jumpi\n      dup1\n      0x06ee6ad8\n      eq\n      tag_4\n      jumpi\n      dup1\n      0x06fdde03\n      eq\n      tag_5\n      jumpi\n      dup1\n      0x095ea7b3\n      eq\n      tag_6\n      jumpi\n      dup1\n      0x18160ddd\n      eq\n      tag_7\n      jumpi\n      dup1\n      0x23b872dd\n      eq\n      tag_8\n      jumpi\n    tag_2:\n      0x00\n      dup1\n      revert\n        /* \"indentity_test_2.sol\":651:687  uint256 public constant BUY_TAX = 10 */\n    tag_3:\n      tag_30\n        /* \"indentity_test_2.sol\":685:687  10 */\n      0x0a\n        /* \"indentity_test_2.sol\":651:687  uint256 public constant BUY_TAX = 10 */\n      dup2\n      jump\n    tag_30:\n      mload(0x40)\n        /* \"#utility.yul\":160:185   */\n      swap1\n      dup2\n      mstore\n        /* \"#utility.yul\":148:150   */\n      0x20\n        /* \"#utility.yul\":133:151   */\n      add\n        /* \"indentity_test_2.sol\":651:687  uint256 public constant BUY_TAX = 10 */\n    tag_32:\n      mload(0x40)\n      dup1\n      swap2\n      sub\n      swap1\n      return\n        /* \"indentity_test_2.sol\":616:644  address public stakingWallet */\n    tag_4:\n      sload(0x0a)\n      tag_34\n      swap1\n      sub(shl(0xa0, 0x01), 0x01)\n      and\n      dup2\n      jump\n    tag_34:\n      mload(0x40)\n      sub(shl(0xa0, 0x01), 0x01)\n        /* \"#utility.yul\":360:392   */\n      swap1\n      swap2\n      and\n        /* \"#utility.yul\":342:393   */\n      dup2\n      mstore\n        /* \"#utility.yul\":330:332   */\n      0x20\n        /* \"#utility.yul\":315:333   */\n      add\n        /* \"indentity_test_2.sol\":616:644  address public stakingWallet */\n      tag_32\n        /* \"#utility.yul\":196:399   */\n      jump\n        /* \"@openzeppelin/contracts/token/ERC20/ERC20.sol\":1779:1868  function name() public view virtual returns (string memory) {... */\n    tag_5:\n      tag_38\n      tag_39\n      jump\t// in\n    tag_38:\n      mload(0x40)\n      tag_32\n      swap2\n      swap1\n      tag_41\n      jump\t// in\n        /* \"@openzeppelin/contracts/token/ERC20/ERC20.sol\":3998:4184  function approve(address spender, uint256 value) public virtual returns (bool) {... */\n    tag_6:\n      tag_42\n      tag_43\n      calldatasize\n      0x04\n      tag_44\n      jump\t// in\n    tag_43:\n      tag_45\n      jump\t// in\n    tag_42:\n      mload(0x40)\n        /* \"#utility.yul\":1475:1489   */\n      swap1\n      iszero\n        /* \"#utility.yul\":1468:1490   */\n      iszero\n        /* \"#utility.yul\":1450:1491   */\n      dup2\n      mstore\n        /* \"#utility.yul\":1438:1440   */\n      0x20\n        /* \"#utility.yul\":1423:1441   */\n      add\n        /* \"@openzeppelin/contracts/token/ERC20/ERC20.sol\":3998:4184  function approve(address spender, uint256 value) public virtual returns (bool) {... */\n      tag_32\n        /* \"#utility.yul\":1310:1497   */\n      jump\n        /* \"@openzeppelin/contracts/token/ERC20/ERC20.sol\":2849:2946  function totalSupply() public view virtual returns (uint256) {... */\n    tag_7:\n        /* \"@openzeppelin/contracts/token/ERC20/ERC20.sol\":2927:2939  _totalSupply */\n      sload(0x02)\n        /* \"@openzeppelin/contracts/token/ERC20/ERC20.sol\":2849:2946  function totalSupply() public view virtual returns (uint256) {... */\n      jump(tag_30)\n        /* \"@openzeppelin/contracts/token/ERC20/ERC20.sol\":4776:5020  function transferFrom(address from, address to, uint256 value) public virtual returns (bool) {... */\n    tag_8:\n      tag_42\n      tag_52\n      calldatasize\n      0x04\n      tag_53\n      jump\t// in\n    tag_52:\n      tag_54\n      jump\t// in\n        /* \"indentity_test_2.sol\":291:350  uint256 public constant INITIAL_SUPPLY = 2_000_000 * 10**18 */\n    tag_9:\n      tag_30\n        /* \"indentity_test_2.sol\":332:350  2_000_000 * 10**18 */\n      0x01a784379d99db42000000\n        /* \"indentity_test_2.sol\":291:350  uint256 public constant INITIAL_SUPPLY = 2_000_000 * 10**18 */\n      dup2\n      jump\n        /* \"@openzeppelin/contracts/token/ERC20/ERC20.sol\":2707:2789  function decimals() public view virtual returns (uint8) {... */\n    tag_10:\n      mload(0x40)\n        /* \"@openzeppelin/contracts/token/ERC20/ERC20.sol\":2780:2782  18 */\n      0x12\n        /* \"#utility.yul\":2023:2059   */\n      dup2\n      mstore\n        /* \"#utility.yul\":2011:2013   */\n      0x20\n        /* \"#utility.yul\":1996:2014   */\n      add\n        /* \"@openzeppelin/contracts/token/ERC20/ERC20.sol\":2707:2789  function decimals() public view virtual returns (uint8) {... */\n      tag_32\n        /* \"#utility.yul\":1881:2065   */\n      jump\n        /* \"indentity_test_2.sol\":736:773  uint256 public constant SLIPPAGE = 13 */\n    tag_11:\n      tag_30\n        /* \"indentity_test_2.sol\":771:773  13 */\n      0x0d\n        /* \"indentity_test_2.sol\":736:773  uint256 public constant SLIPPAGE = 13 */\n      dup2\n      jump\n        /* \"indentity_test_2.sol\":803:853  mapping(address => bool) public isExcludedFromFees */\n    tag_12:\n      tag_42\n      tag_67\n      calldatasize\n      0x04\n      tag_68\n      jump\t// in\n    tag_67:\n      mstore(0x20, 0x0b)\n      0x00\n      swap1\n      dup2\n      mstore\n      0x40\n      swap1\n      keccak256\n      sload\n      0xff\n      and\n      dup2\n      jump\n        /* \"indentity_test_2.sol\":508:540  address public encouragementFund */\n    tag_13:\n      sload(0x07)\n      tag_34\n      swap1\n      sub(shl(0xa0, 0x01), 0x01)\n      and\n      dup2\n      jump\n        /* \"indentity_test_2.sol\":693:730  uint256 public constant SELL_TAX = 12 */\n    tag_14:\n      tag_30\n        /* \"indentity_test_2.sol\":728:730  12 */\n      0x0c\n        /* \"indentity_test_2.sol\":693:730  uint256 public constant SELL_TAX = 12 */\n      dup2\n      jump\n        /* \"@openzeppelin/contracts/token/ERC20/ERC20.sol\":3004:3120  function balanceOf(address account) public view virtual returns (uint256) {... */\n    tag_15:\n      tag_30\n      tag_78\n      calldatasize\n      0x04\n      tag_68\n      jump\t// in\n    tag_78:\n      sub(shl(0xa0, 0x01), 0x01)\n        /* \"@openzeppelin/contracts/token/ERC20/ERC20.sol\":3095:3113  _balances[account] */\n      and\n        /* \"@openzeppelin/contracts/token/ERC20/ERC20.sol\":3069:3076  uint256 */\n      0x00\n        /* \"@openzeppelin/contracts/token/ERC20/ERC20.sol\":3095:3113  _balances[account] */\n      swap1\n      dup2\n      mstore\n      0x20\n      dup2\n      swap1\n      mstore\n      0x40\n      swap1\n      keccak256\n      sload\n      swap1\n        /* \"@openzeppelin/contracts/token/ERC20/ERC20.sol\":3004:3120  function balanceOf(address account) public view virtual returns (uint256) {... */\n      jump\n        /* \"@openzeppelin/contracts/access/Ownable.sol\":2293:2394  function renounceOwnership() public virtual onlyOwner {... */\n    tag_16:\n      tag_81\n      tag_82\n      jump\t// in\n    tag_81:\n      stop\n        /* \"indentity_test_2.sol\":2941:3104  function updateExcludedAccountStatus(address account, bool excluded)... */\n    tag_17:\n      tag_81\n      tag_84\n      calldatasize\n      0x04\n      tag_85\n      jump\t// in\n    tag_84:\n      tag_86\n      jump\t// in\n        /* \"indentity_test_2.sol\":580:610  address public marketingWallet */\n    tag_18:\n      sload(0x09)\n      tag_34\n      swap1\n      sub(shl(0xa0, 0x01), 0x01)\n      and\n      dup2\n      jump\n        /* \"@openzeppelin/contracts/access/Ownable.sol\":1638:1723  function owner() public view virtual returns (address) {... */\n    tag_19:\n        /* \"@openzeppelin/contracts/access/Ownable.sol\":1710:1716  _owner */\n      and(sub(shl(0xa0, 0x01), 0x01), sload(0x05))\n        /* \"@openzeppelin/contracts/access/Ownable.sol\":1638:1723  function owner() public view virtual returns (address) {... */\n      jump(tag_34)\n        /* \"@openzeppelin/contracts/token/ERC20/ERC20.sol\":1981:2074  function symbol() public view virtual returns (string memory) {... */\n    tag_20:\n      tag_38\n      tag_94\n      jump\t// in\n        /* \"indentity_test_2.sol\":1396:1865  function transfer(address recipient, uint256 amount)... */\n    tag_21:\n      tag_42\n      tag_97\n      calldatasize\n      0x04\n      tag_44\n      jump\t// in\n    tag_97:\n      tag_98\n      jump\t// in\n        /* \"indentity_test_2.sol\":546:574  address public emergencyFund */\n    tag_22:\n      sload(0x08)\n      tag_34\n      swap1\n      sub(shl(0xa0, 0x01), 0x01)\n      and\n      dup2\n      jump\n        /* \"@openzeppelin/contracts/token/ERC20/ERC20.sol\":3551:3691  function allowance(address owner, address spender) public view virtual returns (uint256) {... */\n    tag_23:\n      tag_30\n      tag_104\n      calldatasize\n      0x04\n      tag_105\n      jump\t// in\n    tag_104:\n      sub(shl(0xa0, 0x01), 0x01)\n        /* \"@openzeppelin/contracts/token/ERC20/ERC20.sol\":3657:3675  _allowances[owner] */\n      swap2\n      dup3\n      and\n        /* \"@openzeppelin/contracts/token/ERC20/ERC20.sol\":3631:3638  uint256 */\n      0x00\n        /* \"@openzeppelin/contracts/token/ERC20/ERC20.sol\":3657:3675  _allowances[owner] */\n      swap1\n      dup2\n      mstore\n        /* \"@openzeppelin/contracts/token/ERC20/ERC20.sol\":3657:3668  _allowances */\n      0x01\n        /* \"@openzeppelin/contracts/token/ERC20/ERC20.sol\":3657:3675  _allowances[owner] */\n      0x20\n      swap1\n      dup2\n      mstore\n      0x40\n      dup1\n      dup4\n      keccak256\n        /* \"@openzeppelin/contracts/token/ERC20/ERC20.sol\":3657:3684  _allowances[owner][spender] */\n      swap4\n      swap1\n      swap5\n      and\n      dup3\n      mstore\n      swap2\n      swap1\n      swap2\n      mstore\n      keccak256\n      sload\n      swap1\n        /* \"@openzeppelin/contracts/token/ERC20/ERC20.sol\":3551:3691  function allowance(address owner, address spender) public view virtual returns (uint256) {... */\n      jump\n        /* \"indentity_test_2.sol\":356:419  uint256 public constant MAX_WALLET = (INITIAL_SUPPLY * 1) / 100 */\n    tag_24:\n      tag_30\n      tag_109\n      jump\t// in\n        /* \"@openzeppelin/contracts/access/Ownable.sol\":2543:2758  function transferOwnership(address newOwner) public virtual onlyOwner {... */\n    tag_25:\n      tag_81\n      tag_112\n      calldatasize\n      0x04\n      tag_68\n      jump\t// in\n    tag_112:\n      tag_113\n      jump\t// in\n        /* \"indentity_test_2.sol\":431:492  uint256 public constant MAX_TX = (INITIAL_SUPPLY * 5) / 10000 */\n    tag_26:\n      tag_30\n      tag_115\n      jump\t// in\n        /* \"@openzeppelin/contracts/token/ERC20/ERC20.sol\":1779:1868  function name() public view virtual returns (string memory) {... */\n    tag_39:\n        /* \"@openzeppelin/contracts/token/ERC20/ERC20.sol\":1824:1837  string memory */\n      0x60\n        /* \"@openzeppelin/contracts/token/ERC20/ERC20.sol\":1856:1861  _name */\n      0x03\n        /* \"@openzeppelin/contracts/token/ERC20/ERC20.sol\":1849:1861  return _name */\n      dup1\n      sload\n      tag_118\n      swap1\n      tag_119\n      jump\t// in\n    tag_118:\n      dup1\n      0x1f\n      add\n      0x20\n      dup1\n      swap2\n      div\n      mul\n      0x20\n      add\n      mload(0x40)\n      swap1\n      dup2\n      add\n      0x40\n      mstore\n      dup1\n      swap3\n      swap2\n      swap1\n      dup2\n      dup2\n      mstore\n      0x20\n      add\n      dup3\n      dup1\n      sload\n      tag_120\n      swap1\n      tag_119\n      jump\t// in\n    tag_120:\n      dup1\n      iszero\n      tag_121\n      jumpi\n      dup1\n      0x1f\n      lt\n      tag_122\n      jumpi\n      0x0100\n      dup1\n      dup4\n      sload\n      div\n      mul\n      dup4\n      mstore\n      swap2\n      0x20\n      add\n      swap2\n      jump(tag_121)\n    tag_122:\n      dup3\n      add\n      swap2\n      swap1\n      0x00\n      mstore\n      keccak256(0x00, 0x20)\n      swap1\n    tag_123:\n      dup2\n      sload\n      dup2\n      mstore\n      swap1\n      0x01\n      add\n      swap1\n      0x20\n      add\n      dup1\n      dup4\n      gt\n      tag_123\n      jumpi\n      dup3\n      swap1\n      sub\n      0x1f\n      and\n      dup3\n      add\n      swap2\n    tag_121:\n      pop\n      pop\n      pop\n      pop\n      pop\n      swap1\n      pop\n        /* \"@openzeppelin/contracts/token/ERC20/ERC20.sol\":1779:1868  function name() public view virtual returns (string memory) {... */\n      swap1\n      jump\t// out\n        /* \"@openzeppelin/contracts/token/ERC20/ERC20.sol\":3998:4184  function approve(address spender, uint256 value) public virtual returns (bool) {... */\n    tag_45:\n        /* \"@openzeppelin/contracts/token/ERC20/ERC20.sol\":4071:4075  bool */\n      0x00\n        /* \"@openzeppelin/contracts/utils/Context.sol\":735:745  msg.sender */\n      caller\n        /* \"@openzeppelin/contracts/token/ERC20/ERC20.sol\":4125:4156  _approve(owner, spender, value) */\n      tag_127\n        /* \"@openzeppelin/contracts/utils/Context.sol\":735:745  msg.sender */\n      dup2\n        /* \"@openzeppelin/contracts/token/ERC20/ERC20.sol\":4141:4148  spender */\n      dup6\n        /* \"@openzeppelin/contracts/token/ERC20/ERC20.sol\":4150:4155  value */\n      dup6\n        /* \"@openzeppelin/contracts/token/ERC20/ERC20.sol\":4125:4133  _approve */\n      tag_128\n        /* \"@openzeppelin/contracts/token/ERC20/ERC20.sol\":4125:4156  _approve(owner, spender, value) */\n      jump\t// in\n    tag_127:\n        /* \"@openzeppelin/contracts/token/ERC20/ERC20.sol\":4173:4177  true */\n      0x01\n        /* \"@openzeppelin/contracts/token/ERC20/ERC20.sol\":4166:4177  return true */\n      swap2\n      pop\n      pop\n        /* \"@openzeppelin/contracts/token/ERC20/ERC20.sol\":3998:4184  function approve(address spender, uint256 value) public virtual returns (bool) {... */\n    tag_124:\n      swap3\n      swap2\n      pop\n      pop\n      jump\t// out\n        /* \"@openzeppelin/contracts/token/ERC20/ERC20.sol\":4776:5020  function transferFrom(address from, address to, uint256 value) public virtual returns (bool) {... */\n    tag_54:\n        /* \"@openzeppelin/contracts/token/ERC20/ERC20.sol\":4863:4867  bool */\n      0x00\n        /* \"@openzeppelin/contracts/utils/Context.sol\":735:745  msg.sender */\n      caller\n        /* \"@openzeppelin/contracts/token/ERC20/ERC20.sol\":4919:4956  _spendAllowance(from, spender, value) */\n      tag_132\n        /* \"@openzeppelin/contracts/token/ERC20/ERC20.sol\":4935:4939  from */\n      dup6\n        /* \"@openzeppelin/contracts/utils/Context.sol\":735:745  msg.sender */\n      dup3\n        /* \"@openzeppelin/contracts/token/ERC20/ERC20.sol\":4950:4955  value */\n      dup6\n        /* \"@openzeppelin/contracts/token/ERC20/ERC20.sol\":4919:4934  _spendAllowance */\n      tag_133\n        /* \"@openzeppelin/contracts/token/ERC20/ERC20.sol\":4919:4956  _spendAllowance(from, spender, value) */\n      jump\t// in\n    tag_132:\n        /* \"@openzeppelin/contracts/token/ERC20/ERC20.sol\":4966:4992  _transfer(from, to, value) */\n      tag_134\n        /* \"@openzeppelin/contracts/token/ERC20/ERC20.sol\":4976:4980  from */\n      dup6\n        /* \"@openzeppelin/contracts/token/ERC20/ERC20.sol\":4982:4984  to */\n      dup6\n        /* \"@openzeppelin/contracts/token/ERC20/ERC20.sol\":4986:4991  value */\n      dup6\n        /* \"@openzeppelin/contracts/token/ERC20/ERC20.sol\":4966:4975  _transfer */\n      tag_135\n        /* \"@openzeppelin/contracts/token/ERC20/ERC20.sol\":4966:4992  _transfer(from, to, value) */\n      jump\t// in\n    tag_134:\n      pop\n        /* \"@openzeppelin/contracts/token/ERC20/ERC20.sol\":5009:5013  true */\n      0x01\n      swap5\n        /* \"@openzeppelin/contracts/token/ERC20/ERC20.sol\":4776:5020  function transferFrom(address from, address to, uint256 value) public virtual returns (bool) {... */\n      swap4\n      pop\n      pop\n      pop\n      pop\n      jump\t// out\n        /* \"@openzeppelin/contracts/access/Ownable.sol\":2293:2394  function renounceOwnership() public virtual onlyOwner {... */\n    tag_82:\n        /* \"@openzeppelin/contracts/access/Ownable.sol\":1531:1544  _checkOwner() */\n      tag_139\n        /* \"@openzeppelin/contracts/access/Ownable.sol\":1531:1542  _checkOwner */\n      tag_140\n        /* \"@openzeppelin/contracts/access/Ownable.sol\":1531:1544  _checkOwner() */\n      jump\t// in\n    tag_139:\n        /* \"@openzeppelin/contracts/access/Ownable.sol\":2357:2387  _transferOwnership(address(0)) */\n      tag_142\n        /* \"@openzeppelin/contracts/access/Ownable.sol\":2384:2385  0 */\n      0x00\n        /* \"@openzeppelin/contracts/access/Ownable.sol\":2357:2375  _transferOwnership */\n      tag_143\n        /* \"@openzeppelin/contracts/access/Ownable.sol\":2357:2387  _transferOwnership(address(0)) */\n      jump\t// in\n    tag_142:\n        /* \"@openzeppelin/contracts/access/Ownable.sol\":2293:2394  function renounceOwnership() public virtual onlyOwner {... */\n      jump\t// out\n        /* \"indentity_test_2.sol\":2941:3104  function updateExcludedAccountStatus(address account, bool excluded)... */\n    tag_86:\n        /* \"@openzeppelin/contracts/access/Ownable.sol\":1531:1544  _checkOwner() */\n      tag_145\n        /* \"@openzeppelin/contracts/access/Ownable.sol\":1531:1542  _checkOwner */\n      tag_140\n        /* \"@openzeppelin/contracts/access/Ownable.sol\":1531:1544  _checkOwner() */\n      jump\t// in\n    tag_145:\n      sub(shl(0xa0, 0x01), 0x01)\n        /* \"indentity_test_2.sol\":3059:3086  isExcludedFromFees[account] */\n      swap2\n      swap1\n      swap2\n      and\n      0x00\n      swap1\n      dup2\n      mstore\n        /* \"indentity_test_2.sol\":3059:3077  isExcludedFromFees */\n      0x0b\n        /* \"indentity_test_2.sol\":3059:3086  isExcludedFromFees[account] */\n      0x20\n      mstore\n      0x40\n      swap1\n      keccak256\n        /* \"indentity_test_2.sol\":3059:3097  isExcludedFromFees[account] = excluded */\n      dup1\n      sload\n      not(0xff)\n      and\n      swap2\n      iszero\n      iszero\n      swap2\n      swap1\n      swap2\n      or\n      swap1\n      sstore\n        /* \"indentity_test_2.sol\":2941:3104  function updateExcludedAccountStatus(address account, bool excluded)... */\n      jump\t// out\n        /* \"@openzeppelin/contracts/token/ERC20/ERC20.sol\":1981:2074  function symbol() public view virtual returns (string memory) {... */\n    tag_94:\n        /* \"@openzeppelin/contracts/token/ERC20/ERC20.sol\":2028:2041  string memory */\n      0x60\n        /* \"@openzeppelin/contracts/token/ERC20/ERC20.sol\":2060:2067  _symbol */\n      0x04\n        /* \"@openzeppelin/contracts/token/ERC20/ERC20.sol\":2053:2067  return _symbol */\n      dup1\n      sload\n      tag_118\n      swap1\n      tag_119\n      jump\t// in\n        /* \"indentity_test_2.sol\":1396:1865  function transfer(address recipient, uint256 amount)... */\n    tag_98:\n        /* \"indentity_test_2.sol\":1542:1552  msg.sender */\n      caller\n        /* \"indentity_test_2.sol\":1498:1502  bool */\n      0x00\n        /* \"indentity_test_2.sol\":1523:1553  isExcludedFromFees[msg.sender] */\n      swap1\n      dup2\n      mstore\n        /* \"indentity_test_2.sol\":1523:1541  isExcludedFromFees */\n      0x0b\n        /* \"indentity_test_2.sol\":1523:1553  isExcludedFromFees[msg.sender] */\n      0x20\n      mstore\n      0x40\n      dup2\n      keccak256\n      sload\n      0xff\n      and\n        /* \"indentity_test_2.sol\":1518:1778  if (!isExcludedFromFees[msg.sender]) {... */\n      tag_168\n      jumpi\n        /* \"indentity_test_2.sol\":416:419  100 */\n      0x64\n        /* \"indentity_test_2.sol\":394:412  INITIAL_SUPPLY * 1 */\n      tag_156\n        /* \"indentity_test_2.sol\":332:350  2_000_000 * 10**18 */\n      0x01a784379d99db42000000\n        /* \"indentity_test_2.sol\":411:412  1 */\n      0x01\n        /* \"indentity_test_2.sol\":394:412  INITIAL_SUPPLY * 1 */\n      tag_157\n      jump\t// in\n    tag_156:\n        /* \"indentity_test_2.sol\":393:419  (INITIAL_SUPPLY * 1) / 100 */\n      tag_158\n      swap2\n      swap1\n      tag_159\n      jump\t// in\n    tag_158:\n        /* \"indentity_test_2.sol\":1617:1623  amount */\n      dup3\n        /* \"indentity_test_2.sol\":1594:1614  balanceOf(recipient) */\n      tag_160\n        /* \"indentity_test_2.sol\":1604:1613  recipient */\n      dup6\n      sub(shl(0xa0, 0x01), 0x01)\n        /* \"@openzeppelin/contracts/token/ERC20/ERC20.sol\":3095:3113  _balances[account] */\n      and\n        /* \"@openzeppelin/contracts/token/ERC20/ERC20.sol\":3069:3076  uint256 */\n      0x00\n        /* \"@openzeppelin/contracts/token/ERC20/ERC20.sol\":3095:3113  _balances[account] */\n      swap1\n      dup2\n      mstore\n      0x20\n      dup2\n      swap1\n      mstore\n      0x40\n      swap1\n      keccak256\n      sload\n      swap1\n        /* \"@openzeppelin/contracts/token/ERC20/ERC20.sol\":3004:3120  function balanceOf(address account) public view virtual returns (uint256) {... */\n      jump\n        /* \"indentity_test_2.sol\":1594:1614  balanceOf(recipient) */\n    tag_160:\n        /* \"indentity_test_2.sol\":1594:1623  balanceOf(recipient) + amount */\n      tag_161\n      swap2\n      swap1\n      tag_162\n      jump\t// in\n    tag_161:\n        /* \"indentity_test_2.sol\":1594:1637  balanceOf(recipient) + amount <= MAX_WALLET */\n      gt\n      iszero\n        /* \"indentity_test_2.sol\":1569:1695  require(... */\n      tag_163\n      jumpi\n      mload(0x40)\n      shl(0xe5, 0x461bcd)\n      dup2\n      mstore\n        /* \"#utility.yul\":4122:4124   */\n      0x20\n        /* \"indentity_test_2.sol\":1569:1695  require(... */\n      0x04\n      dup3\n      add\n        /* \"#utility.yul\":4104:4125   */\n      mstore\n        /* \"#utility.yul\":4161:4163   */\n      0x18\n        /* \"#utility.yul\":4141:4159   */\n      0x24\n      dup3\n      add\n        /* \"#utility.yul\":4134:4164   */\n      mstore\n        /* \"#utility.yul\":4200:4226   */\n      0x45786365656473206d61782077616c6c6574206c696d69740000000000000000\n        /* \"#utility.yul\":4180:4198   */\n      0x44\n      dup3\n      add\n        /* \"#utility.yul\":4173:4227   */\n      mstore\n        /* \"#utility.yul\":4244:4262   */\n      0x64\n      add\n        /* \"indentity_test_2.sol\":1569:1695  require(... */\n    tag_164:\n      mload(0x40)\n      dup1\n      swap2\n      sub\n      swap1\n      revert\n    tag_163:\n        /* \"indentity_test_2.sol\":487:492  10000 */\n      0x2710\n        /* \"indentity_test_2.sol\":465:483  INITIAL_SUPPLY * 5 */\n      tag_166\n        /* \"indentity_test_2.sol\":332:350  2_000_000 * 10**18 */\n      0x01a784379d99db42000000\n        /* \"indentity_test_2.sol\":482:483  5 */\n      0x05\n        /* \"indentity_test_2.sol\":465:483  INITIAL_SUPPLY * 5 */\n      tag_157\n      jump\t// in\n    tag_166:\n        /* \"indentity_test_2.sol\":464:492  (INITIAL_SUPPLY * 5) / 10000 */\n      tag_167\n      swap2\n      swap1\n      tag_159\n      jump\t// in\n    tag_167:\n        /* \"indentity_test_2.sol\":1717:1723  amount */\n      dup3\n        /* \"indentity_test_2.sol\":1717:1733  amount <= MAX_TX */\n      gt\n      iszero\n        /* \"indentity_test_2.sol\":1709:1767  require(amount <= MAX_TX, \"Exceeds max transaction limit\") */\n      tag_168\n      jumpi\n      mload(0x40)\n      shl(0xe5, 0x461bcd)\n      dup2\n      mstore\n        /* \"#utility.yul\":4475:4477   */\n      0x20\n        /* \"indentity_test_2.sol\":1709:1767  require(amount <= MAX_TX, \"Exceeds max transaction limit\") */\n      0x04\n      dup3\n      add\n        /* \"#utility.yul\":4457:4478   */\n      mstore\n        /* \"#utility.yul\":4514:4516   */\n      0x1d\n        /* \"#utility.yul\":4494:4512   */\n      0x24\n      dup3\n      add\n        /* \"#utility.yul\":4487:4517   */\n      mstore\n        /* \"#utility.yul\":4553:4584   */\n      0x45786365656473206d6178207472616e73616374696f6e206c696d6974000000\n        /* \"#utility.yul\":4533:4551   */\n      0x44\n      dup3\n      add\n        /* \"#utility.yul\":4526:4585   */\n      mstore\n        /* \"#utility.yul\":4602:4620   */\n      0x64\n      add\n        /* \"indentity_test_2.sol\":1709:1767  require(amount <= MAX_TX, \"Exceeds max transaction limit\") */\n      tag_164\n        /* \"#utility.yul\":4273:4626   */\n      jump\n        /* \"indentity_test_2.sol\":1709:1767  require(amount <= MAX_TX, \"Exceeds max transaction limit\") */\n    tag_168:\n        /* \"indentity_test_2.sol\":1788:1837  _transferWithTaxes(msg.sender, recipient, amount) */\n      tag_171\n        /* \"indentity_test_2.sol\":1807:1817  msg.sender */\n      caller\n        /* \"indentity_test_2.sol\":1819:1828  recipient */\n      dup5\n        /* \"indentity_test_2.sol\":1830:1836  amount */\n      dup5\n        /* \"indentity_test_2.sol\":1788:1806  _transferWithTaxes */\n      tag_172\n        /* \"indentity_test_2.sol\":1788:1837  _transferWithTaxes(msg.sender, recipient, amount) */\n      jump\t// in\n    tag_171:\n      pop\n        /* \"indentity_test_2.sol\":1854:1858  true */\n      0x01\n        /* \"indentity_test_2.sol\":1396:1865  function transfer(address recipient, uint256 amount)... */\n      swap3\n      swap2\n      pop\n      pop\n      jump\t// out\n        /* \"indentity_test_2.sol\":356:419  uint256 public constant MAX_WALLET = (INITIAL_SUPPLY * 1) / 100 */\n    tag_109:\n        /* \"indentity_test_2.sol\":416:419  100 */\n      0x64\n        /* \"indentity_test_2.sol\":394:412  INITIAL_SUPPLY * 1 */\n      tag_174\n        /* \"indentity_test_2.sol\":332:350  2_000_000 * 10**18 */\n      0x01a784379d99db42000000\n        /* \"indentity_test_2.sol\":411:412  1 */\n      0x01\n        /* \"indentity_test_2.sol\":394:412  INITIAL_SUPPLY * 1 */\n      tag_157\n      jump\t// in\n    tag_174:\n        /* \"indentity_test_2.sol\":393:419  (INITIAL_SUPPLY * 1) / 100 */\n      tag_175\n      swap2\n      swap1\n      tag_159\n      jump\t// in\n    tag_175:\n        /* \"indentity_test_2.sol\":356:419  uint256 public constant MAX_WALLET = (INITIAL_SUPPLY * 1) / 100 */\n      dup2\n      jump\t// out\n        /* \"@openzeppelin/contracts/access/Ownable.sol\":2543:2758  function transferOwnership(address newOwner) public virtual onlyOwner {... */\n    tag_113:\n        /* \"@openzeppelin/contracts/access/Ownable.sol\":1531:1544  _checkOwner() */\n      tag_177\n        /* \"@openzeppelin/contracts/access/Ownable.sol\":1531:1542  _checkOwner */\n      tag_140\n        /* \"@openzeppelin/contracts/access/Ownable.sol\":1531:1544  _checkOwner() */\n      jump\t// in\n    tag_177:\n      sub(shl(0xa0, 0x01), 0x01)\n        /* \"@openzeppelin/contracts/access/Ownable.sol\":2627:2649  newOwner == address(0) */\n      dup2\n      and\n        /* \"@openzeppelin/contracts/access/Ownable.sol\":2623:2714  if (newOwner == address(0)) {... */\n      tag_179\n      jumpi\n        /* \"@openzeppelin/contracts/access/Ownable.sol\":2672:2703  OwnableInvalidOwner(address(0)) */\n      mload(0x40)\n      shl(0xe0, 0x1e4fbdf7)\n      dup2\n      mstore\n        /* \"@openzeppelin/contracts/access/Ownable.sol\":2700:2701  0 */\n      0x00\n        /* \"@openzeppelin/contracts/access/Ownable.sol\":2672:2703  OwnableInvalidOwner(address(0)) */\n      0x04\n      dup3\n      add\n        /* \"#utility.yul\":342:393   */\n      mstore\n        /* \"#utility.yul\":315:333   */\n      0x24\n      add\n        /* \"@openzeppelin/contracts/access/Ownable.sol\":2672:2703  OwnableInvalidOwner(address(0)) */\n      tag_164\n        /* \"#utility.yul\":196:399   */\n      jump\n        /* \"@openzeppelin/contracts/access/Ownable.sol\":2623:2714  if (newOwner == address(0)) {... */\n    tag_179:\n        /* \"@openzeppelin/contracts/access/Ownable.sol\":2723:2751  _transferOwnership(newOwner) */\n      tag_181\n        /* \"@openzeppelin/contracts/access/Ownable.sol\":2742:2750  newOwner */\n      dup2\n        /* \"@openzeppelin/contracts/access/Ownable.sol\":2723:2741  _transferOwnership */\n      tag_143\n        /* \"@openzeppelin/contracts/access/Ownable.sol\":2723:2751  _transferOwnership(newOwner) */\n      jump\t// in\n    tag_181:\n        /* \"@openzeppelin/contracts/access/Ownable.sol\":2543:2758  function transferOwnership(address newOwner) public virtual onlyOwner {... */\n      pop\n      jump\t// out\n        /* \"indentity_test_2.sol\":431:492  uint256 public constant MAX_TX = (INITIAL_SUPPLY * 5) / 10000 */\n    tag_115:\n        /* \"indentity_test_2.sol\":487:492  10000 */\n      0x2710\n        /* \"indentity_test_2.sol\":465:483  INITIAL_SUPPLY * 5 */\n      tag_174\n        /* \"indentity_test_2.sol\":332:350  2_000_000 * 10**18 */\n      0x01a784379d99db42000000\n        /* \"indentity_test_2.sol\":482:483  5 */\n      0x05\n        /* \"indentity_test_2.sol\":465:483  INITIAL_SUPPLY * 5 */\n      tag_157\n      jump\t// in\n        /* \"@openzeppelin/contracts/token/ERC20/ERC20.sol\":8726:8854  function _approve(address owner, address spender, uint256 value) internal {... */\n    tag_128:\n        /* \"@openzeppelin/contracts/token/ERC20/ERC20.sol\":8810:8847  _approve(owner, spender, value, true) */\n      tag_186\n        /* \"@openzeppelin/contracts/token/ERC20/ERC20.sol\":8819:8824  owner */\n      dup4\n        /* \"@openzeppelin/contracts/token/ERC20/ERC20.sol\":8826:8833  spender */\n      dup4\n        /* \"@openzeppelin/contracts/token/ERC20/ERC20.sol\":8835:8840  value */\n      dup4\n        /* \"@openzeppelin/contracts/token/ERC20/ERC20.sol\":8842:8846  true */\n      0x01\n        /* \"@openzeppelin/contracts/token/ERC20/ERC20.sol\":8810:8818  _approve */\n      tag_187\n        /* \"@openzeppelin/contracts/token/ERC20/ERC20.sol\":8810:8847  _approve(owner, spender, value, true) */\n      jump\t// in\n    tag_186:\n        /* \"@openzeppelin/contracts/token/ERC20/ERC20.sol\":8726:8854  function _approve(address owner, address spender, uint256 value) internal {... */\n      pop\n      pop\n      pop\n      jump\t// out\n        /* \"@openzeppelin/contracts/token/ERC20/ERC20.sol\":10415:10891  function _spendAllowance(address owner, address spender, uint256 value) internal virtual {... */\n    tag_133:\n      sub(shl(0xa0, 0x01), 0x01)\n        /* \"@openzeppelin/contracts/token/ERC20/ERC20.sol\":3657:3675  _allowances[owner] */\n      dup4\n      dup2\n      and\n        /* \"@openzeppelin/contracts/token/ERC20/ERC20.sol\":10514:10538  uint256 currentAllowance */\n      0x00\n        /* \"@openzeppelin/contracts/token/ERC20/ERC20.sol\":3657:3675  _allowances[owner] */\n      swap1\n      dup2\n      mstore\n        /* \"@openzeppelin/contracts/token/ERC20/ERC20.sol\":3657:3668  _allowances */\n      0x01\n        /* \"@openzeppelin/contracts/token/ERC20/ERC20.sol\":3657:3675  _allowances[owner] */\n      0x20\n      swap1\n      dup2\n      mstore\n      0x40\n      dup1\n      dup4\n      keccak256\n        /* \"@openzeppelin/contracts/token/ERC20/ERC20.sol\":3657:3684  _allowances[owner][spender] */\n      swap4\n      dup7\n      and\n      dup4\n      mstore\n      swap3\n      swap1\n      mstore\n      keccak256\n      sload\n      not(0x00)\n        /* \"@openzeppelin/contracts/token/ERC20/ERC20.sol\":10580:10616  currentAllowance < type(uint256).max */\n      dup2\n      lt\n        /* \"@openzeppelin/contracts/token/ERC20/ERC20.sol\":10576:10885  if (currentAllowance < type(uint256).max) {... */\n      iszero\n      tag_194\n      jumpi\n        /* \"@openzeppelin/contracts/token/ERC20/ERC20.sol\":10655:10660  value */\n      dup2\n        /* \"@openzeppelin/contracts/token/ERC20/ERC20.sol\":10636:10652  currentAllowance */\n      dup2\n        /* \"@openzeppelin/contracts/token/ERC20/ERC20.sol\":10636:10660  currentAllowance < value */\n      lt\n        /* \"@openzeppelin/contracts/token/ERC20/ERC20.sol\":10632:10762  if (currentAllowance < value) {... */\n      iszero\n      tag_191\n      jumpi\n        /* \"@openzeppelin/contracts/token/ERC20/ERC20.sol\":10687:10747  ERC20InsufficientAllowance(spender, currentAllowance, value) */\n      mload(0x40)\n      shl(0xe1, 0x7dc7a0d9)\n      dup2\n      mstore\n      sub(shl(0xa0, 0x01), 0x01)\n        /* \"#utility.yul\":4851:4883   */\n      dup5\n      and\n        /* \"@openzeppelin/contracts/token/ERC20/ERC20.sol\":10687:10747  ERC20InsufficientAllowance(spender, currentAllowance, value) */\n      0x04\n      dup3\n      add\n        /* \"#utility.yul\":4833:4884   */\n      mstore\n        /* \"#utility.yul\":4900:4918   */\n      0x24\n      dup2\n      add\n        /* \"#utility.yul\":4893:4927   */\n      dup3\n      swap1\n      mstore\n        /* \"#utility.yul\":4943:4961   */\n      0x44\n      dup2\n      add\n        /* \"#utility.yul\":4936:4970   */\n      dup4\n      swap1\n      mstore\n        /* \"#utility.yul\":4806:4824   */\n      0x64\n      add\n        /* \"@openzeppelin/contracts/token/ERC20/ERC20.sol\":10687:10747  ERC20InsufficientAllowance(spender, currentAllowance, value) */\n      tag_164\n        /* \"#utility.yul\":4631:4976   */\n      jump\n        /* \"@openzeppelin/contracts/token/ERC20/ERC20.sol\":10632:10762  if (currentAllowance < value) {... */\n    tag_191:\n        /* \"@openzeppelin/contracts/token/ERC20/ERC20.sol\":10803:10860  _approve(owner, spender, currentAllowance - value, false) */\n      tag_194\n        /* \"@openzeppelin/contracts/token/ERC20/ERC20.sol\":10812:10817  owner */\n      dup5\n        /* \"@openzeppelin/contracts/token/ERC20/ERC20.sol\":10819:10826  spender */\n      dup5\n        /* \"@openzeppelin/contracts/token/ERC20/ERC20.sol\":10847:10852  value */\n      dup5\n        /* \"@openzeppelin/contracts/token/ERC20/ERC20.sol\":10828:10844  currentAllowance */\n      dup5\n        /* \"@openzeppelin/contracts/token/ERC20/ERC20.sol\":10828:10852  currentAllowance - value */\n      sub\n        /* \"@openzeppelin/contracts/token/ERC20/ERC20.sol\":10854:10859  false */\n      0x00\n        /* \"@openzeppelin/contracts/token/ERC20/ERC20.sol\":10803:10811  _approve */\n      tag_187\n        /* \"@openzeppelin/contracts/token/ERC20/ERC20.sol\":10803:10860  _approve(owner, spender, currentAllowance - value, false) */\n      jump\t// in\n    tag_194:\n        /* \"@openzeppelin/contracts/token/ERC20/ERC20.sol\":10504:10891  {... */\n      pop\n        /* \"@openzeppelin/contracts/token/ERC20/ERC20.sol\":10415:10891  function _spendAllowance(address owner, address spender, uint256 value) internal virtual {... */\n      pop\n      pop\n      pop\n      jump\t// out\n        /* \"@openzeppelin/contracts/token/ERC20/ERC20.sol\":5393:5693  function _transfer(address from, address to, uint256 value) internal {... */\n    tag_135:\n      sub(shl(0xa0, 0x01), 0x01)\n        /* \"@openzeppelin/contracts/token/ERC20/ERC20.sol\":5476:5494  from == address(0) */\n      dup4\n      and\n        /* \"@openzeppelin/contracts/token/ERC20/ERC20.sol\":5472:5558  if (from == address(0)) {... */\n      tag_196\n      jumpi\n        /* \"@openzeppelin/contracts/token/ERC20/ERC20.sol\":5517:5547  ERC20InvalidSender(address(0)) */\n      mload(0x40)\n      shl(0xe1, 0x4b637e8f)\n      dup2\n      mstore\n        /* \"@openzeppelin/contracts/token/ERC20/ERC20.sol\":5544:5545  0 */\n      0x00\n        /* \"@openzeppelin/contracts/token/ERC20/ERC20.sol\":5517:5547  ERC20InvalidSender(address(0)) */\n      0x04\n      dup3\n      add\n        /* \"#utility.yul\":342:393   */\n      mstore\n        /* \"#utility.yul\":315:333   */\n      0x24\n      add\n        /* \"@openzeppelin/contracts/token/ERC20/ERC20.sol\":5517:5547  ERC20InvalidSender(address(0)) */\n      tag_164\n        /* \"#utility.yul\":196:399   */\n      jump\n        /* \"@openzeppelin/contracts/token/ERC20/ERC20.sol\":5472:5558  if (from == address(0)) {... */\n    tag_196:\n      sub(shl(0xa0, 0x01), 0x01)\n        /* \"@openzeppelin/contracts/token/ERC20/ERC20.sol\":5571:5587  to == address(0) */\n      dup3\n      and\n        /* \"@openzeppelin/contracts/token/ERC20/ERC20.sol\":5567:5653  if (to == address(0)) {... */\n      tag_198\n      jumpi\n        /* \"@openzeppelin/contracts/token/ERC20/ERC20.sol\":5610:5642  ERC20InvalidReceiver(address(0)) */\n      mload(0x40)\n      shl(0xe0, 0xec442f05)\n      dup2\n      mstore\n        /* \"@openzeppelin/contracts/token/ERC20/ERC20.sol\":5639:5640  0 */\n      0x00\n        /* \"@openzeppelin/contracts/token/ERC20/ERC20.sol\":5610:5642  ERC20InvalidReceiver(address(0)) */\n      0x04\n      dup3\n      add\n        /* \"#utility.yul\":342:393   */\n      mstore\n        /* \"#utility.yul\":315:333   */\n      0x24\n      add\n        /* \"@openzeppelin/contracts/token/ERC20/ERC20.sol\":5610:5642  ERC20InvalidReceiver(address(0)) */\n      tag_164\n        /* \"#utility.yul\":196:399   */\n      jump\n        /* \"@openzeppelin/contracts/token/ERC20/ERC20.sol\":5567:5653  if (to == address(0)) {... */\n    tag_198:\n        /* \"@openzeppelin/contracts/token/ERC20/ERC20.sol\":5662:5686  _update(from, to, value) */\n      tag_186\n        /* \"@openzeppelin/contracts/token/ERC20/ERC20.sol\":5670:5674  from */\n      dup4\n        /* \"@openzeppelin/contracts/token/ERC20/ERC20.sol\":5676:5678  to */\n      dup4\n        /* \"@openzeppelin/contracts/token/ERC20/ERC20.sol\":5680:5685  value */\n      dup4\n        /* \"@openzeppelin/contracts/token/ERC20/ERC20.sol\":5662:5669  _update */\n      tag_201\n        /* \"@openzeppelin/contracts/token/ERC20/ERC20.sol\":5662:5686  _update(from, to, value) */\n      jump\t// in\n        /* \"@openzeppelin/contracts/access/Ownable.sol\":1796:1958  function _checkOwner() internal view virtual {... */\n    tag_140:\n        /* \"@openzeppelin/contracts/access/Ownable.sol\":1710:1716  _owner */\n      and(sub(shl(0xa0, 0x01), 0x01), sload(0x05))\n        /* \"@openzeppelin/contracts/utils/Context.sol\":735:745  msg.sender */\n      caller\n        /* \"@openzeppelin/contracts/access/Ownable.sol\":1855:1878  owner() != _msgSender() */\n      eq\n        /* \"@openzeppelin/contracts/access/Ownable.sol\":1851:1952  if (owner() != _msgSender()) {... */\n      tag_142\n      jumpi\n        /* \"@openzeppelin/contracts/access/Ownable.sol\":1901:1941  OwnableUnauthorizedAccount(_msgSender()) */\n      mload(0x40)\n      shl(0xe0, 0x118cdaa7)\n      dup2\n      mstore\n        /* \"@openzeppelin/contracts/utils/Context.sol\":735:745  msg.sender */\n      caller\n        /* \"@openzeppelin/contracts/access/Ownable.sol\":1901:1941  OwnableUnauthorizedAccount(_msgSender()) */\n      0x04\n      dup3\n      add\n        /* \"#utility.yul\":342:393   */\n      mstore\n        /* \"#utility.yul\":315:333   */\n      0x24\n      add\n        /* \"@openzeppelin/contracts/access/Ownable.sol\":1901:1941  OwnableUnauthorizedAccount(_msgSender()) */\n      tag_164\n        /* \"#utility.yul\":196:399   */\n      jump\n        /* \"@openzeppelin/contracts/access/Ownable.sol\":2912:3099  function _transferOwnership(address newOwner) internal virtual {... */\n    tag_143:\n        /* \"@openzeppelin/contracts/access/Ownable.sol\":3004:3010  _owner */\n      0x05\n      dup1\n      sload\n      sub(shl(0xa0, 0x01), 0x01)\n        /* \"@openzeppelin/contracts/access/Ownable.sol\":3020:3037  _owner = newOwner */\n      dup4\n      dup2\n      and\n      not(sub(shl(0xa0, 0x01), 0x01))\n      dup4\n      and\n      dup2\n      or\n      swap1\n      swap4\n      sstore\n        /* \"@openzeppelin/contracts/access/Ownable.sol\":3052:3092  OwnershipTransferred(oldOwner, newOwner) */\n      mload(0x40)\n        /* \"@openzeppelin/contracts/access/Ownable.sol\":3004:3010  _owner */\n      swap2\n      and\n      swap2\n        /* \"@openzeppelin/contracts/access/Ownable.sol\":3020:3037  _owner = newOwner */\n      swap1\n        /* \"@openzeppelin/contracts/access/Ownable.sol\":3004:3010  _owner */\n      dup3\n      swap1\n        /* \"@openzeppelin/contracts/access/Ownable.sol\":3052:3092  OwnershipTransferred(oldOwner, newOwner) */\n      0x8be0079c531659141344cd1fd0a4f28419497f9722a3daafe3b4186f6b6457e0\n      swap1\n        /* \"@openzeppelin/contracts/access/Ownable.sol\":2985:3001  address oldOwner */\n      0x00\n      swap1\n        /* \"@openzeppelin/contracts/access/Ownable.sol\":3052:3092  OwnershipTransferred(oldOwner, newOwner) */\n      log3\n        /* \"@openzeppelin/contracts/access/Ownable.sol\":2975:3099  {... */\n      pop\n        /* \"@openzeppelin/contracts/access/Ownable.sol\":2912:3099  function _transferOwnership(address newOwner) internal virtual {... */\n      pop\n      jump\t// out\n        /* \"indentity_test_2.sol\":1871:2935  function _transferWithTaxes(... */\n    tag_172:\n        /* \"indentity_test_2.sol\":1999:2010  uint256 tax */\n      0x00\n        /* \"indentity_test_2.sol\":2040:2043  100 */\n      0x64\n        /* \"indentity_test_2.sol\":2014:2031  amount * SELL_TAX */\n      tag_210\n        /* \"indentity_test_2.sol\":728:730  12 */\n      0x0c\n        /* \"indentity_test_2.sol\":2014:2020  amount */\n      dup5\n        /* \"indentity_test_2.sol\":2014:2031  amount * SELL_TAX */\n      tag_157\n      jump\t// in\n    tag_210:\n        /* \"indentity_test_2.sol\":2014:2036  amount * SELL_TAX + 99 */\n      tag_211\n      swap1\n        /* \"indentity_test_2.sol\":2034:2036  99 */\n      0x63\n        /* \"indentity_test_2.sol\":2014:2036  amount * SELL_TAX + 99 */\n      tag_162\n      jump\t// in\n    tag_211:\n        /* \"indentity_test_2.sol\":2013:2043  (amount * SELL_TAX + 99) / 100 */\n      tag_212\n      swap2\n      swap1\n      tag_159\n      jump\t// in\n    tag_212:\n        /* \"indentity_test_2.sol\":1999:2043  uint256 tax = (amount * SELL_TAX + 99) / 100 */\n      swap1\n      pop\n        /* \"indentity_test_2.sol\":2080:2097  uint256 netAmount */\n      0x00\n        /* \"indentity_test_2.sol\":2100:2112  amount - tax */\n      tag_213\n        /* \"indentity_test_2.sol\":1999:2043  uint256 tax = (amount * SELL_TAX + 99) / 100 */\n      dup3\n        /* \"indentity_test_2.sol\":2100:2106  amount */\n      dup5\n        /* \"indentity_test_2.sol\":2100:2112  amount - tax */\n      tag_214\n      jump\t// in\n    tag_213:\n        /* \"indentity_test_2.sol\":2080:2112  uint256 netAmount = amount - tax */\n      swap1\n      pop\n        /* \"indentity_test_2.sol\":2170:2196  uint256 encouragementShare */\n      0x00\n        /* \"indentity_test_2.sol\":2211:2213  12 */\n      0x0c\n        /* \"indentity_test_2.sol\":2200:2207  tax * 4 */\n      tag_215\n        /* \"indentity_test_2.sol\":2200:2203  tax */\n      dup5\n        /* \"indentity_test_2.sol\":2206:2207  4 */\n      0x04\n        /* \"indentity_test_2.sol\":2200:2207  tax * 4 */\n      tag_157\n      jump\t// in\n    tag_215:\n        /* \"indentity_test_2.sol\":2199:2213  (tax * 4) / 12 */\n      tag_216\n      swap2\n      swap1\n      tag_159\n      jump\t// in\n    tag_216:\n        /* \"indentity_test_2.sol\":2170:2213  uint256 encouragementShare = (tax * 4) / 12 */\n      swap1\n      pop\n        /* \"indentity_test_2.sol\":2223:2245  uint256 emergencyShare */\n      0x00\n        /* \"indentity_test_2.sol\":2260:2262  12 */\n      0x0c\n        /* \"indentity_test_2.sol\":2249:2256  tax * 1 */\n      tag_217\n        /* \"indentity_test_2.sol\":2249:2252  tax */\n      dup6\n        /* \"indentity_test_2.sol\":2255:2256  1 */\n      0x01\n        /* \"indentity_test_2.sol\":2249:2256  tax * 1 */\n      tag_157\n      jump\t// in\n    tag_217:\n        /* \"indentity_test_2.sol\":2248:2262  (tax * 1) / 12 */\n      tag_218\n      swap2\n      swap1\n      tag_159\n      jump\t// in\n    tag_218:\n        /* \"indentity_test_2.sol\":2223:2262  uint256 emergencyShare = (tax * 1) / 12 */\n      swap1\n      pop\n        /* \"indentity_test_2.sol\":2272:2294  uint256 marketingShare */\n      0x00\n        /* \"indentity_test_2.sol\":2309:2311  12 */\n      0x0c\n        /* \"indentity_test_2.sol\":2298:2305  tax * 4 */\n      tag_219\n        /* \"indentity_test_2.sol\":2298:2301  tax */\n      dup7\n        /* \"indentity_test_2.sol\":2304:2305  4 */\n      0x04\n        /* \"indentity_test_2.sol\":2298:2305  tax * 4 */\n      tag_157\n      jump\t// in\n    tag_219:\n        /* \"indentity_test_2.sol\":2297:2311  (tax * 4) / 12 */\n      tag_220\n      swap2\n      swap1\n      tag_159\n      jump\t// in\n    tag_220:\n        /* \"indentity_test_2.sol\":2272:2311  uint256 marketingShare = (tax * 4) / 12 */\n      swap1\n      pop\n        /* \"indentity_test_2.sol\":2321:2341  uint256 stakingShare */\n      0x00\n        /* \"indentity_test_2.sol\":2356:2358  12 */\n      0x0c\n        /* \"indentity_test_2.sol\":2345:2352  tax * 3 */\n      tag_221\n        /* \"indentity_test_2.sol\":2345:2348  tax */\n      dup8\n        /* \"indentity_test_2.sol\":2351:2352  3 */\n      0x03\n        /* \"indentity_test_2.sol\":2345:2352  tax * 3 */\n      tag_157\n      jump\t// in\n    tag_221:\n        /* \"indentity_test_2.sol\":2344:2358  (tax * 3) / 12 */\n      tag_222\n      swap2\n      swap1\n      tag_159\n      jump\t// in\n    tag_222:\n        /* \"indentity_test_2.sol\":2393:2410  encouragementFund */\n      sload(0x07)\n        /* \"indentity_test_2.sol\":2321:2358  uint256 stakingShare = (tax * 3) / 12 */\n      swap1\n      swap2\n      pop\n        /* \"indentity_test_2.sol\":2369:2431  super._transfer(sender, encouragementFund, encouragementShare) */\n      tag_223\n      swap1\n        /* \"indentity_test_2.sol\":2385:2391  sender */\n      dup11\n      swap1\n      sub(shl(0xa0, 0x01), 0x01)\n        /* \"indentity_test_2.sol\":2393:2410  encouragementFund */\n      and\n        /* \"indentity_test_2.sol\":2412:2430  encouragementShare */\n      dup7\n        /* \"indentity_test_2.sol\":2369:2384  super._transfer */\n      tag_135\n        /* \"indentity_test_2.sol\":2369:2431  super._transfer(sender, encouragementFund, encouragementShare) */\n      jump\t// in\n    tag_223:\n      0x00\n      dup1\n      mload\n      0x20\n      data_859952f8ad95bf3b9d6ec6d5182f93b209cbb9a33d14bac6f48292b740d5a146\n      dup4\n      codecopy\n      dup2\n      mload\n      swap2\n      mstore\n        /* \"indentity_test_2.sol\":2461:2479  encouragementShare */\n      dup5\n        /* \"indentity_test_2.sol\":2446:2502  TaxDistributed(encouragementShare, \"Encouragement Fund\") */\n      mload(0x40)\n      tag_224\n      swap2\n        /* \"#utility.yul\":5326:5351   */\n      dup2\n      mstore\n        /* \"#utility.yul\":5387:5389   */\n      0x40\n        /* \"#utility.yul\":5382:5384   */\n      0x20\n        /* \"#utility.yul\":5367:5385   */\n      dup3\n      add\n        /* \"#utility.yul\":5360:5390   */\n      dup2\n      swap1\n      mstore\n        /* \"#utility.yul\":5426:5428   */\n      0x12\n        /* \"#utility.yul\":5406:5424   */\n      swap1\n      dup3\n      add\n        /* \"#utility.yul\":5399:5429   */\n      mstore\n      shl(0x72, 0x115b98dbdd5c9859d95b595b9d08119d5b99)\n        /* \"#utility.yul\":5460:5462   */\n      0x60\n        /* \"#utility.yul\":5445:5463   */\n      dup3\n      add\n        /* \"#utility.yul\":5438:5486   */\n      mstore\n        /* \"#utility.yul\":5518:5521   */\n      0x80\n        /* \"#utility.yul\":5503:5522   */\n      add\n      swap1\n        /* \"#utility.yul\":5114:5528   */\n      jump\n        /* \"indentity_test_2.sol\":2446:2502  TaxDistributed(encouragementShare, \"Encouragement Fund\") */\n    tag_224:\n      mload(0x40)\n      dup1\n      swap2\n      sub\n      swap1\n      log1\n        /* \"indentity_test_2.sol\":2537:2550  emergencyFund */\n      sload(0x08)\n        /* \"indentity_test_2.sol\":2513:2567  super._transfer(sender, emergencyFund, emergencyShare) */\n      tag_226\n      swap1\n        /* \"indentity_test_2.sol\":2529:2535  sender */\n      dup11\n      swap1\n      sub(shl(0xa0, 0x01), 0x01)\n        /* \"indentity_test_2.sol\":2537:2550  emergencyFund */\n      and\n        /* \"indentity_test_2.sol\":2552:2566  emergencyShare */\n      dup6\n        /* \"indentity_test_2.sol\":2513:2528  super._transfer */\n      tag_135\n        /* \"indentity_test_2.sol\":2513:2567  super._transfer(sender, emergencyFund, emergencyShare) */\n      jump\t// in\n    tag_226:\n      0x00\n      dup1\n      mload\n      0x20\n      data_859952f8ad95bf3b9d6ec6d5182f93b209cbb9a33d14bac6f48292b740d5a146\n      dup4\n      codecopy\n      dup2\n      mload\n      swap2\n      mstore\n        /* \"indentity_test_2.sol\":2597:2611  emergencyShare */\n      dup4\n        /* \"indentity_test_2.sol\":2582:2630  TaxDistributed(emergencyShare, \"Emergency Fund\") */\n      mload(0x40)\n      tag_227\n      swap2\n        /* \"#utility.yul\":5745:5770   */\n      dup2\n      mstore\n        /* \"#utility.yul\":5806:5808   */\n      0x40\n        /* \"#utility.yul\":5801:5803   */\n      0x20\n        /* \"#utility.yul\":5786:5804   */\n      dup3\n      add\n        /* \"#utility.yul\":5779:5809   */\n      dup2\n      swap1\n      mstore\n        /* \"#utility.yul\":5845:5847   */\n      0x0e\n        /* \"#utility.yul\":5825:5843   */\n      swap1\n      dup3\n      add\n        /* \"#utility.yul\":5818:5848   */\n      mstore\n      shl(0x92, 0x115b595c99d95b98de48119d5b99)\n        /* \"#utility.yul\":5879:5881   */\n      0x60\n        /* \"#utility.yul\":5864:5882   */\n      dup3\n      add\n        /* \"#utility.yul\":5857:5901   */\n      mstore\n        /* \"#utility.yul\":5933:5936   */\n      0x80\n        /* \"#utility.yul\":5918:5937   */\n      add\n      swap1\n        /* \"#utility.yul\":5533:5943   */\n      jump\n        /* \"indentity_test_2.sol\":2582:2630  TaxDistributed(emergencyShare, \"Emergency Fund\") */\n    tag_227:\n      mload(0x40)\n      dup1\n      swap2\n      sub\n      swap1\n      log1\n        /* \"indentity_test_2.sol\":2665:2680  marketingWallet */\n      sload(0x09)\n        /* \"indentity_test_2.sol\":2641:2697  super._transfer(sender, marketingWallet, marketingShare) */\n      tag_229\n      swap1\n        /* \"indentity_test_2.sol\":2657:2663  sender */\n      dup11\n      swap1\n      sub(shl(0xa0, 0x01), 0x01)\n        /* \"indentity_test_2.sol\":2665:2680  marketingWallet */\n      and\n        /* \"indentity_test_2.sol\":2682:2696  marketingShare */\n      dup5\n        /* \"indentity_test_2.sol\":2641:2656  super._transfer */\n      tag_135\n        /* \"indentity_test_2.sol\":2641:2697  super._transfer(sender, marketingWallet, marketingShare) */\n      jump\t// in\n    tag_229:\n      0x00\n      dup1\n      mload\n      0x20\n      data_859952f8ad95bf3b9d6ec6d5182f93b209cbb9a33d14bac6f48292b740d5a146\n      dup4\n      codecopy\n      dup2\n      mload\n      swap2\n      mstore\n        /* \"indentity_test_2.sol\":2727:2741  marketingShare */\n      dup3\n        /* \"indentity_test_2.sol\":2712:2755  TaxDistributed(marketingShare, \"Marketing\") */\n      mload(0x40)\n      tag_230\n      swap2\n        /* \"#utility.yul\":6160:6185   */\n      dup2\n      mstore\n        /* \"#utility.yul\":6221:6223   */\n      0x40\n        /* \"#utility.yul\":6216:6218   */\n      0x20\n        /* \"#utility.yul\":6201:6219   */\n      dup3\n      add\n        /* \"#utility.yul\":6194:6224   */\n      dup2\n      swap1\n      mstore\n        /* \"#utility.yul\":6260:6261   */\n      0x09\n        /* \"#utility.yul\":6240:6258   */\n      swap1\n      dup3\n      add\n        /* \"#utility.yul\":6233:6262   */\n      mstore\n      shl(0xb8, 0x4d61726b6574696e67)\n        /* \"#utility.yul\":6293:6295   */\n      0x60\n        /* \"#utility.yul\":6278:6296   */\n      dup3\n      add\n        /* \"#utility.yul\":6271:6310   */\n      mstore\n        /* \"#utility.yul\":6342:6345   */\n      0x80\n        /* \"#utility.yul\":6327:6346   */\n      add\n      swap1\n        /* \"#utility.yul\":5948:6352   */\n      jump\n        /* \"indentity_test_2.sol\":2712:2755  TaxDistributed(marketingShare, \"Marketing\") */\n    tag_230:\n      mload(0x40)\n      dup1\n      swap2\n      sub\n      swap1\n      log1\n        /* \"indentity_test_2.sol\":2790:2803  stakingWallet */\n      sload(0x0a)\n        /* \"indentity_test_2.sol\":2766:2818  super._transfer(sender, stakingWallet, stakingShare) */\n      tag_232\n      swap1\n        /* \"indentity_test_2.sol\":2782:2788  sender */\n      dup11\n      swap1\n      sub(shl(0xa0, 0x01), 0x01)\n        /* \"indentity_test_2.sol\":2790:2803  stakingWallet */\n      and\n        /* \"indentity_test_2.sol\":2805:2817  stakingShare */\n      dup4\n        /* \"indentity_test_2.sol\":2766:2781  super._transfer */\n      tag_135\n        /* \"indentity_test_2.sol\":2766:2818  super._transfer(sender, stakingWallet, stakingShare) */\n      jump\t// in\n    tag_232:\n      0x00\n      dup1\n      mload\n      0x20\n      data_859952f8ad95bf3b9d6ec6d5182f93b209cbb9a33d14bac6f48292b740d5a146\n      dup4\n      codecopy\n      dup2\n      mload\n      swap2\n      mstore\n        /* \"indentity_test_2.sol\":2848:2860  stakingShare */\n      dup2\n        /* \"indentity_test_2.sol\":2833:2872  TaxDistributed(stakingShare, \"Staking\") */\n      mload(0x40)\n      tag_233\n      swap2\n        /* \"#utility.yul\":6569:6594   */\n      dup2\n      mstore\n        /* \"#utility.yul\":6630:6632   */\n      0x40\n        /* \"#utility.yul\":6625:6627   */\n      0x20\n        /* \"#utility.yul\":6610:6628   */\n      dup3\n      add\n        /* \"#utility.yul\":6603:6633   */\n      dup2\n      swap1\n      mstore\n        /* \"#utility.yul\":6669:6670   */\n      0x07\n        /* \"#utility.yul\":6649:6667   */\n      swap1\n      dup3\n      add\n        /* \"#utility.yul\":6642:6671   */\n      mstore\n      shl(0xc8, 0x5374616b696e67)\n        /* \"#utility.yul\":6702:6704   */\n      0x60\n        /* \"#utility.yul\":6687:6705   */\n      dup3\n      add\n        /* \"#utility.yul\":6680:6717   */\n      mstore\n        /* \"#utility.yul\":6749:6752   */\n      0x80\n        /* \"#utility.yul\":6734:6753   */\n      add\n      swap1\n        /* \"#utility.yul\":6357:6759   */\n      jump\n        /* \"indentity_test_2.sol\":2833:2872  TaxDistributed(stakingShare, \"Staking\") */\n    tag_233:\n      mload(0x40)\n      dup1\n      swap2\n      sub\n      swap1\n      log1\n        /* \"indentity_test_2.sol\":2883:2928  super._transfer(sender, recipient, netAmount) */\n      tag_235\n        /* \"indentity_test_2.sol\":2899:2905  sender */\n      dup10\n        /* \"indentity_test_2.sol\":2907:2916  recipient */\n      dup10\n        /* \"indentity_test_2.sol\":2918:2927  netAmount */\n      dup8\n        /* \"indentity_test_2.sol\":2883:2898  super._transfer */\n      tag_135\n        /* \"indentity_test_2.sol\":2883:2928  super._transfer(sender, recipient, netAmount) */\n      jump\t// in\n    tag_235:\n        /* \"indentity_test_2.sol\":1989:2935  {... */\n      pop\n      pop\n      pop\n      pop\n      pop\n      pop\n        /* \"indentity_test_2.sol\":1871:2935  function _transferWithTaxes(... */\n      pop\n      pop\n      pop\n      jump\t// out\n        /* \"@openzeppelin/contracts/token/ERC20/ERC20.sol\":9701:10133  function _approve(address owner, address spender, uint256 value, bool emitEvent) internal virtual {... */\n    tag_187:\n      sub(shl(0xa0, 0x01), 0x01)\n        /* \"@openzeppelin/contracts/token/ERC20/ERC20.sol\":9813:9832  owner == address(0) */\n      dup5\n      and\n        /* \"@openzeppelin/contracts/token/ERC20/ERC20.sol\":9809:9898  if (owner == address(0)) {... */\n      tag_237\n      jumpi\n        /* \"@openzeppelin/contracts/token/ERC20/ERC20.sol\":9855:9887  ERC20InvalidApprover(address(0)) */\n      mload(0x40)\n      shl(0xe0, 0xe602df05)\n      dup2\n      mstore\n        /* \"@openzeppelin/contracts/token/ERC20/ERC20.sol\":9884:9885  0 */\n      0x00\n        /* \"@openzeppelin/contracts/token/ERC20/ERC20.sol\":9855:9887  ERC20InvalidApprover(address(0)) */\n      0x04\n      dup3\n      add\n        /* \"#utility.yul\":342:393   */\n      mstore\n        /* \"#utility.yul\":315:333   */\n      0x24\n      add\n        /* \"@openzeppelin/contracts/token/ERC20/ERC20.sol\":9855:9887  ERC20InvalidApprover(address(0)) */\n      tag_164\n        /* \"#utility.yul\":196:399   */\n      jump\n        /* \"@openzeppelin/contracts/token/ERC20/ERC20.sol\":9809:9898  if (owner == address(0)) {... */\n    tag_237:\n      sub(shl(0xa0, 0x01), 0x01)\n        /* \"@openzeppelin/contracts/token/ERC20/ERC20.sol\":9911:9932  spender == address(0) */\n      dup4\n      and\n        /* \"@openzeppelin/contracts/token/ERC20/ERC20.sol\":9907:9997  if (spender == address(0)) {... */\n      tag_239\n      jumpi\n        /* \"@openzeppelin/contracts/token/ERC20/ERC20.sol\":9955:9986  ERC20InvalidSpender(address(0)) */\n      mload(0x40)\n      shl(0xe1, 0x4a1406b1)\n      dup2\n      mstore\n        /* \"@openzeppelin/contracts/token/ERC20/ERC20.sol\":9983:9984  0 */\n      0x00\n        /* \"@openzeppelin/contracts/token/ERC20/ERC20.sol\":9955:9986  ERC20InvalidSpender(address(0)) */\n      0x04\n      dup3\n      add\n        /* \"#utility.yul\":342:393   */\n      mstore\n        /* \"#utility.yul\":315:333   */\n      0x24\n      add\n        /* \"@openzeppelin/contracts/token/ERC20/ERC20.sol\":9955:9986  ERC20InvalidSpender(address(0)) */\n      tag_164\n        /* \"#utility.yul\":196:399   */\n      jump\n        /* \"@openzeppelin/contracts/token/ERC20/ERC20.sol\":9907:9997  if (spender == address(0)) {... */\n    tag_239:\n      sub(shl(0xa0, 0x01), 0x01)\n        /* \"@openzeppelin/contracts/token/ERC20/ERC20.sol\":10006:10024  _allowances[owner] */\n      dup1\n      dup6\n      and\n      0x00\n      swap1\n      dup2\n      mstore\n        /* \"@openzeppelin/contracts/token/ERC20/ERC20.sol\":10006:10017  _allowances */\n      0x01\n        /* \"@openzeppelin/contracts/token/ERC20/ERC20.sol\":10006:10024  _allowances[owner] */\n      0x20\n      swap1\n      dup2\n      mstore\n      0x40\n      dup1\n      dup4\n      keccak256\n        /* \"@openzeppelin/contracts/token/ERC20/ERC20.sol\":10006:10033  _allowances[owner][spender] */\n      swap4\n      dup8\n      and\n      dup4\n      mstore\n      swap3\n      swap1\n      mstore\n      keccak256\n        /* \"@openzeppelin/contracts/token/ERC20/ERC20.sol\":10006:10041  _allowances[owner][spender] = value */\n      dup3\n      swap1\n      sstore\n        /* \"@openzeppelin/contracts/token/ERC20/ERC20.sol\":10051:10127  if (emitEvent) {... */\n      dup1\n      iszero\n      tag_194\n      jumpi\n        /* \"@openzeppelin/contracts/token/ERC20/ERC20.sol\":10101:10108  spender */\n      dup3\n      sub(shl(0xa0, 0x01), 0x01)\n        /* \"@openzeppelin/contracts/token/ERC20/ERC20.sol\":10085:10116  Approval(owner, spender, value) */\n      and\n        /* \"@openzeppelin/contracts/token/ERC20/ERC20.sol\":10094:10099  owner */\n      dup5\n      sub(shl(0xa0, 0x01), 0x01)\n        /* \"@openzeppelin/contracts/token/ERC20/ERC20.sol\":10085:10116  Approval(owner, spender, value) */\n      and\n      0x8c5be1e5ebec7d5bd14f71427d1e84f3dd0314c0f7b2291e5b200ac8c7c3b925\n        /* \"@openzeppelin/contracts/token/ERC20/ERC20.sol\":10110:10115  value */\n      dup5\n        /* \"@openzeppelin/contracts/token/ERC20/ERC20.sol\":10085:10116  Approval(owner, spender, value) */\n      mload(0x40)\n      tag_242\n      swap2\n        /* \"#utility.yul\":160:185   */\n      dup2\n      mstore\n        /* \"#utility.yul\":148:150   */\n      0x20\n        /* \"#utility.yul\":133:151   */\n      add\n      swap1\n        /* \"#utility.yul\":14:191   */\n      jump\n        /* \"@openzeppelin/contracts/token/ERC20/ERC20.sol\":10085:10116  Approval(owner, spender, value) */\n    tag_242:\n      mload(0x40)\n      dup1\n      swap2\n      sub\n      swap1\n      log3\n        /* \"@openzeppelin/contracts/token/ERC20/ERC20.sol\":9701:10133  function _approve(address owner, address spender, uint256 value, bool emitEvent) internal virtual {... */\n      pop\n      pop\n      pop\n      pop\n      jump\t// out\n        /* \"@openzeppelin/contracts/token/ERC20/ERC20.sol\":6008:7115  function _update(address from, address to, uint256 value) internal virtual {... */\n    tag_201:\n      sub(shl(0xa0, 0x01), 0x01)\n        /* \"@openzeppelin/contracts/token/ERC20/ERC20.sol\":6097:6115  from == address(0) */\n      dup4\n      and\n        /* \"@openzeppelin/contracts/token/ERC20/ERC20.sol\":6093:6633  if (from == address(0)) {... */\n      tag_244\n      jumpi\n        /* \"@openzeppelin/contracts/token/ERC20/ERC20.sol\":6249:6254  value */\n      dup1\n        /* \"@openzeppelin/contracts/token/ERC20/ERC20.sol\":6233:6245  _totalSupply */\n      0x02\n      0x00\n        /* \"@openzeppelin/contracts/token/ERC20/ERC20.sol\":6233:6254  _totalSupply += value */\n      dup3\n      dup3\n      sload\n      tag_245\n      swap2\n      swap1\n      tag_162\n      jump\t// in\n    tag_245:\n      swap1\n      swap2\n      sstore\n      pop\n        /* \"@openzeppelin/contracts/token/ERC20/ERC20.sol\":6093:6633  if (from == address(0)) {... */\n      tag_246\n      swap1\n      pop\n      jump\n    tag_244:\n      sub(shl(0xa0, 0x01), 0x01)\n        /* \"@openzeppelin/contracts/token/ERC20/ERC20.sol\":6307:6322  _balances[from] */\n      dup4\n      and\n        /* \"@openzeppelin/contracts/token/ERC20/ERC20.sol\":6285:6304  uint256 fromBalance */\n      0x00\n        /* \"@openzeppelin/contracts/token/ERC20/ERC20.sol\":6307:6322  _balances[from] */\n      swap1\n      dup2\n      mstore\n      0x20\n      dup2\n      swap1\n      mstore\n      0x40\n      swap1\n      keccak256\n      sload\n        /* \"@openzeppelin/contracts/token/ERC20/ERC20.sol\":6340:6359  fromBalance < value */\n      dup2\n      dup2\n      lt\n        /* \"@openzeppelin/contracts/token/ERC20/ERC20.sol\":6336:6451  if (fromBalance < value) {... */\n      iszero\n      tag_247\n      jumpi\n        /* \"@openzeppelin/contracts/token/ERC20/ERC20.sol\":6386:6436  ERC20InsufficientBalance(from, fromBalance, value) */\n      mload(0x40)\n      shl(0xe2, 0x391434e3)\n      dup2\n      mstore\n      sub(shl(0xa0, 0x01), 0x01)\n        /* \"#utility.yul\":4851:4883   */\n      dup6\n      and\n        /* \"@openzeppelin/contracts/token/ERC20/ERC20.sol\":6386:6436  ERC20InsufficientBalance(from, fromBalance, value) */\n      0x04\n      dup3\n      add\n        /* \"#utility.yul\":4833:4884   */\n      mstore\n        /* \"#utility.yul\":4900:4918   */\n      0x24\n      dup2\n      add\n        /* \"#utility.yul\":4893:4927   */\n      dup3\n      swap1\n      mstore\n        /* \"#utility.yul\":4943:4961   */\n      0x44\n      dup2\n      add\n        /* \"#utility.yul\":4936:4970   */\n      dup4\n      swap1\n      mstore\n        /* \"#utility.yul\":4806:4824   */\n      0x64\n      add\n        /* \"@openzeppelin/contracts/token/ERC20/ERC20.sol\":6386:6436  ERC20InsufficientBalance(from, fromBalance, value) */\n      tag_164\n        /* \"#utility.yul\":4631:4976   */\n      jump\n        /* \"@openzeppelin/contracts/token/ERC20/ERC20.sol\":6336:6451  if (fromBalance < value) {... */\n    tag_247:\n      sub(shl(0xa0, 0x01), 0x01)\n        /* \"@openzeppelin/contracts/token/ERC20/ERC20.sol\":6571:6586  _balances[from] */\n      dup5\n      and\n        /* \"@openzeppelin/contracts/token/ERC20/ERC20.sol\":6571:6580  _balances */\n      0x00\n        /* \"@openzeppelin/contracts/token/ERC20/ERC20.sol\":6571:6586  _balances[from] */\n      swap1\n      dup2\n      mstore\n      0x20\n      dup2\n      swap1\n      mstore\n      0x40\n      swap1\n      keccak256\n        /* \"@openzeppelin/contracts/token/ERC20/ERC20.sol\":6589:6608  fromBalance - value */\n      swap1\n      dup3\n      swap1\n      sub\n        /* \"@openzeppelin/contracts/token/ERC20/ERC20.sol\":6571:6608  _balances[from] = fromBalance - value */\n      swap1\n      sstore\n        /* \"@openzeppelin/contracts/token/ERC20/ERC20.sol\":6093:6633  if (from == address(0)) {... */\n    tag_246:\n      sub(shl(0xa0, 0x01), 0x01)\n        /* \"@openzeppelin/contracts/token/ERC20/ERC20.sol\":6647:6663  to == address(0) */\n      dup3\n      and\n        /* \"@openzeppelin/contracts/token/ERC20/ERC20.sol\":6643:7068  if (to == address(0)) {... */\n      tag_249\n      jumpi\n        /* \"@openzeppelin/contracts/token/ERC20/ERC20.sol\":6810:6822  _totalSupply */\n      0x02\n        /* \"@openzeppelin/contracts/token/ERC20/ERC20.sol\":6810:6831  _totalSupply -= value */\n      dup1\n      sload\n      dup3\n      swap1\n      sub\n      swap1\n      sstore\n        /* \"@openzeppelin/contracts/token/ERC20/ERC20.sol\":6643:7068  if (to == address(0)) {... */\n      jump(tag_250)\n    tag_249:\n      sub(shl(0xa0, 0x01), 0x01)\n        /* \"@openzeppelin/contracts/token/ERC20/ERC20.sol\":7021:7034  _balances[to] */\n      dup3\n      and\n        /* \"@openzeppelin/contracts/token/ERC20/ERC20.sol\":7021:7030  _balances */\n      0x00\n        /* \"@openzeppelin/contracts/token/ERC20/ERC20.sol\":7021:7034  _balances[to] */\n      swap1\n      dup2\n      mstore\n      0x20\n      dup2\n      swap1\n      mstore\n      0x40\n      swap1\n      keccak256\n        /* \"@openzeppelin/contracts/token/ERC20/ERC20.sol\":7021:7043  _balances[to] += value */\n      dup1\n      sload\n      dup3\n      add\n      swap1\n      sstore\n        /* \"@openzeppelin/contracts/token/ERC20/ERC20.sol\":6643:7068  if (to == address(0)) {... */\n    tag_250:\n        /* \"@openzeppelin/contracts/token/ERC20/ERC20.sol\":7098:7100  to */\n      dup2\n      sub(shl(0xa0, 0x01), 0x01)\n        /* \"@openzeppelin/contracts/token/ERC20/ERC20.sol\":7083:7108  Transfer(from, to, value) */\n      and\n        /* \"@openzeppelin/contracts/token/ERC20/ERC20.sol\":7092:7096  from */\n      dup4\n      sub(shl(0xa0, 0x01), 0x01)\n        /* \"@openzeppelin/contracts/token/ERC20/ERC20.sol\":7083:7108  Transfer(from, to, value) */\n      and\n      0xddf252ad1be2c89b69c2b068fc378daa952ba7f163c4a11628f55a4df523b3ef\n        /* \"@openzeppelin/contracts/token/ERC20/ERC20.sol\":7102:7107  value */\n      dup4\n        /* \"@openzeppelin/contracts/token/ERC20/ERC20.sol\":7083:7108  Transfer(from, to, value) */\n      mload(0x40)\n      tag_251\n      swap2\n        /* \"#utility.yul\":160:185   */\n      dup2\n      mstore\n        /* \"#utility.yul\":148:150   */\n      0x20\n        /* \"#utility.yul\":133:151   */\n      add\n      swap1\n        /* \"#utility.yul\":14:191   */\n      jump\n        /* \"@openzeppelin/contracts/token/ERC20/ERC20.sol\":7083:7108  Transfer(from, to, value) */\n    tag_251:\n      mload(0x40)\n      dup1\n      swap2\n      sub\n      swap1\n      log3\n        /* \"@openzeppelin/contracts/token/ERC20/ERC20.sol\":6008:7115  function _update(address from, address to, uint256 value) internal virtual {... */\n      pop\n      pop\n      pop\n      jump\t// out\n        /* \"#utility.yul\":404:822   */\n    tag_41:\n        /* \"#utility.yul\":553:555   */\n      0x20\n        /* \"#utility.yul\":542:551   */\n      dup2\n        /* \"#utility.yul\":535:556   */\n      mstore\n        /* \"#utility.yul\":516:520   */\n      0x00\n        /* \"#utility.yul\":585:591   */\n      dup3\n        /* \"#utility.yul\":579:592   */\n      mload\n        /* \"#utility.yul\":628:634   */\n      dup1\n        /* \"#utility.yul\":623:625   */\n      0x20\n        /* \"#utility.yul\":612:621   */\n      dup5\n        /* \"#utility.yul\":608:626   */\n      add\n        /* \"#utility.yul\":601:635   */\n      mstore\n        /* \"#utility.yul\":687:693   */\n      dup1\n        /* \"#utility.yul\":682:684   */\n      0x20\n        /* \"#utility.yul\":674:680   */\n      dup6\n        /* \"#utility.yul\":670:685   */\n      add\n        /* \"#utility.yul\":665:667   */\n      0x40\n        /* \"#utility.yul\":654:663   */\n      dup6\n        /* \"#utility.yul\":650:668   */\n      add\n        /* \"#utility.yul\":644:694   */\n      mcopy\n        /* \"#utility.yul\":743:744   */\n      0x00\n        /* \"#utility.yul\":738:740   */\n      0x40\n        /* \"#utility.yul\":729:735   */\n      dup3\n        /* \"#utility.yul\":718:727   */\n      dup6\n        /* \"#utility.yul\":714:736   */\n      add\n        /* \"#utility.yul\":710:741   */\n      add\n        /* \"#utility.yul\":703:745   */\n      mstore\n        /* \"#utility.yul\":813:815   */\n      0x40\n        /* \"#utility.yul\":806:808   */\n      0x1f\n        /* \"#utility.yul\":802:809   */\n      not\n        /* \"#utility.yul\":797:799   */\n      0x1f\n        /* \"#utility.yul\":789:795   */\n      dup4\n        /* \"#utility.yul\":785:800   */\n      add\n        /* \"#utility.yul\":781:810   */\n      and\n        /* \"#utility.yul\":770:779   */\n      dup5\n        /* \"#utility.yul\":766:811   */\n      add\n        /* \"#utility.yul\":762:816   */\n      add\n        /* \"#utility.yul\":754:816   */\n      swap2\n      pop\n      pop\n        /* \"#utility.yul\":404:822   */\n      swap3\n      swap2\n      pop\n      pop\n      jump\t// out\n        /* \"#utility.yul\":827:1000   */\n    tag_252:\n        /* \"#utility.yul\":895:915   */\n      dup1\n      calldataload\n      sub(shl(0xa0, 0x01), 0x01)\n        /* \"#utility.yul\":944:975   */\n      dup2\n      and\n        /* \"#utility.yul\":934:976   */\n      dup2\n      eq\n        /* \"#utility.yul\":924:994   */\n      tag_259\n      jumpi\n        /* \"#utility.yul\":990:991   */\n      0x00\n        /* \"#utility.yul\":987:988   */\n      dup1\n        /* \"#utility.yul\":980:992   */\n      revert\n        /* \"#utility.yul\":924:994   */\n    tag_259:\n        /* \"#utility.yul\":827:1000   */\n      swap2\n      swap1\n      pop\n      jump\t// out\n        /* \"#utility.yul\":1005:1305   */\n    tag_44:\n        /* \"#utility.yul\":1073:1079   */\n      0x00\n        /* \"#utility.yul\":1081:1087   */\n      dup1\n        /* \"#utility.yul\":1134:1136   */\n      0x40\n        /* \"#utility.yul\":1122:1131   */\n      dup4\n        /* \"#utility.yul\":1113:1120   */\n      dup6\n        /* \"#utility.yul\":1109:1132   */\n      sub\n        /* \"#utility.yul\":1105:1137   */\n      slt\n        /* \"#utility.yul\":1102:1154   */\n      iszero\n      tag_261\n      jumpi\n        /* \"#utility.yul\":1150:1151   */\n      0x00\n        /* \"#utility.yul\":1147:1148   */\n      dup1\n        /* \"#utility.yul\":1140:1152   */\n      revert\n        /* \"#utility.yul\":1102:1154   */\n    tag_261:\n        /* \"#utility.yul\":1173:1202   */\n      tag_262\n        /* \"#utility.yul\":1192:1201   */\n      dup4\n        /* \"#utility.yul\":1173:1202   */\n      tag_252\n      jump\t// in\n    tag_262:\n        /* \"#utility.yul\":1163:1202   */\n      swap5\n        /* \"#utility.yul\":1271:1273   */\n      0x20\n        /* \"#utility.yul\":1256:1274   */\n      swap4\n      swap1\n      swap4\n      add\n        /* \"#utility.yul\":1243:1275   */\n      calldataload\n      swap4\n      pop\n      pop\n      pop\n        /* \"#utility.yul\":1005:1305   */\n      jump\t// out\n        /* \"#utility.yul\":1502:1876   */\n    tag_53:\n        /* \"#utility.yul\":1579:1585   */\n      0x00\n        /* \"#utility.yul\":1587:1593   */\n      dup1\n        /* \"#utility.yul\":1595:1601   */\n      0x00\n        /* \"#utility.yul\":1648:1650   */\n      0x60\n        /* \"#utility.yul\":1636:1645   */\n      dup5\n        /* \"#utility.yul\":1627:1634   */\n      dup7\n        /* \"#utility.yul\":1623:1646   */\n      sub\n        /* \"#utility.yul\":1619:1651   */\n      slt\n        /* \"#utility.yul\":1616:1668   */\n      iszero\n      tag_265\n      jumpi\n        /* \"#utility.yul\":1664:1665   */\n      0x00\n        /* \"#utility.yul\":1661:1662   */\n      dup1\n        /* \"#utility.yul\":1654:1666   */\n      revert\n        /* \"#utility.yul\":1616:1668   */\n    tag_265:\n        /* \"#utility.yul\":1687:1716   */\n      tag_266\n        /* \"#utility.yul\":1706:1715   */\n      dup5\n        /* \"#utility.yul\":1687:1716   */\n      tag_252\n      jump\t// in\n    tag_266:\n        /* \"#utility.yul\":1677:1716   */\n      swap3\n      pop\n        /* \"#utility.yul\":1735:1773   */\n      tag_267\n        /* \"#utility.yul\":1769:1771   */\n      0x20\n        /* \"#utility.yul\":1758:1767   */\n      dup6\n        /* \"#utility.yul\":1754:1772   */\n      add\n        /* \"#utility.yul\":1735:1773   */\n      tag_252\n      jump\t// in\n    tag_267:\n        /* \"#utility.yul\":1502:1876   */\n      swap3\n      swap6\n        /* \"#utility.yul\":1725:1773   */\n      swap3\n      swap5\n      pop\n      pop\n      pop\n        /* \"#utility.yul\":1842:1844   */\n      0x40\n        /* \"#utility.yul\":1827:1845   */\n      swap2\n      swap1\n      swap2\n      add\n        /* \"#utility.yul\":1814:1846   */\n      calldataload\n      swap1\n        /* \"#utility.yul\":1502:1876   */\n      jump\t// out\n        /* \"#utility.yul\":2070:2256   */\n    tag_68:\n        /* \"#utility.yul\":2129:2135   */\n      0x00\n        /* \"#utility.yul\":2182:2184   */\n      0x20\n        /* \"#utility.yul\":2170:2179   */\n      dup3\n        /* \"#utility.yul\":2161:2168   */\n      dup5\n        /* \"#utility.yul\":2157:2180   */\n      sub\n        /* \"#utility.yul\":2153:2185   */\n      slt\n        /* \"#utility.yul\":2150:2202   */\n      iszero\n      tag_270\n      jumpi\n        /* \"#utility.yul\":2198:2199   */\n      0x00\n        /* \"#utility.yul\":2195:2196   */\n      dup1\n        /* \"#utility.yul\":2188:2200   */\n      revert\n        /* \"#utility.yul\":2150:2202   */\n    tag_270:\n        /* \"#utility.yul\":2221:2250   */\n      tag_271\n        /* \"#utility.yul\":2240:2249   */\n      dup3\n        /* \"#utility.yul\":2221:2250   */\n      tag_252\n      jump\t// in\n    tag_271:\n        /* \"#utility.yul\":2211:2250   */\n      swap4\n        /* \"#utility.yul\":2070:2256   */\n      swap3\n      pop\n      pop\n      pop\n      jump\t// out\n        /* \"#utility.yul\":2261:2608   */\n    tag_85:\n        /* \"#utility.yul\":2326:2332   */\n      0x00\n        /* \"#utility.yul\":2334:2340   */\n      dup1\n        /* \"#utility.yul\":2387:2389   */\n      0x40\n        /* \"#utility.yul\":2375:2384   */\n      dup4\n        /* \"#utility.yul\":2366:2373   */\n      dup6\n        /* \"#utility.yul\":2362:2385   */\n      sub\n        /* \"#utility.yul\":2358:2390   */\n      slt\n        /* \"#utility.yul\":2355:2407   */\n      iszero\n      tag_273\n      jumpi\n        /* \"#utility.yul\":2403:2404   */\n      0x00\n        /* \"#utility.yul\":2400:2401   */\n      dup1\n        /* \"#utility.yul\":2393:2405   */\n      revert\n        /* \"#utility.yul\":2355:2407   */\n    tag_273:\n        /* \"#utility.yul\":2426:2455   */\n      tag_274\n        /* \"#utility.yul\":2445:2454   */\n      dup4\n        /* \"#utility.yul\":2426:2455   */\n      tag_252\n      jump\t// in\n    tag_274:\n        /* \"#utility.yul\":2416:2455   */\n      swap2\n      pop\n        /* \"#utility.yul\":2505:2507   */\n      0x20\n        /* \"#utility.yul\":2494:2503   */\n      dup4\n        /* \"#utility.yul\":2490:2508   */\n      add\n        /* \"#utility.yul\":2477:2509   */\n      calldataload\n        /* \"#utility.yul\":2552:2557   */\n      dup1\n        /* \"#utility.yul\":2545:2558   */\n      iszero\n        /* \"#utility.yul\":2538:2559   */\n      iszero\n        /* \"#utility.yul\":2531:2536   */\n      dup2\n        /* \"#utility.yul\":2528:2560   */\n      eq\n        /* \"#utility.yul\":2518:2578   */\n      tag_275\n      jumpi\n        /* \"#utility.yul\":2574:2575   */\n      0x00\n        /* \"#utility.yul\":2571:2572   */\n      dup1\n        /* \"#utility.yul\":2564:2576   */\n      revert\n        /* \"#utility.yul\":2518:2578   */\n    tag_275:\n        /* \"#utility.yul\":2597:2602   */\n      dup1\n        /* \"#utility.yul\":2587:2602   */\n      swap2\n      pop\n      pop\n        /* \"#utility.yul\":2261:2608   */\n      swap3\n      pop\n      swap3\n      swap1\n      pop\n      jump\t// out\n        /* \"#utility.yul\":2613:2873   */\n    tag_105:\n        /* \"#utility.yul\":2681:2687   */\n      0x00\n        /* \"#utility.yul\":2689:2695   */\n      dup1\n        /* \"#utility.yul\":2742:2744   */\n      0x40\n        /* \"#utility.yul\":2730:2739   */\n      dup4\n        /* \"#utility.yul\":2721:2728   */\n      dup6\n        /* \"#utility.yul\":2717:2740   */\n      sub\n        /* \"#utility.yul\":2713:2745   */\n      slt\n        /* \"#utility.yul\":2710:2762   */\n      iszero\n      tag_277\n      jumpi\n        /* \"#utility.yul\":2758:2759   */\n      0x00\n        /* \"#utility.yul\":2755:2756   */\n      dup1\n        /* \"#utility.yul\":2748:2760   */\n      revert\n        /* \"#utility.yul\":2710:2762   */\n    tag_277:\n        /* \"#utility.yul\":2781:2810   */\n      tag_278\n        /* \"#utility.yul\":2800:2809   */\n      dup4\n        /* \"#utility.yul\":2781:2810   */\n      tag_252\n      jump\t// in\n    tag_278:\n        /* \"#utility.yul\":2771:2810   */\n      swap2\n      pop\n        /* \"#utility.yul\":2829:2867   */\n      tag_279\n        /* \"#utility.yul\":2863:2865   */\n      0x20\n        /* \"#utility.yul\":2852:2861   */\n      dup5\n        /* \"#utility.yul\":2848:2866   */\n      add\n        /* \"#utility.yul\":2829:2867   */\n      tag_252\n      jump\t// in\n    tag_279:\n        /* \"#utility.yul\":2819:2867   */\n      swap1\n      pop\n        /* \"#utility.yul\":2613:2873   */\n      swap3\n      pop\n      swap3\n      swap1\n      pop\n      jump\t// out\n        /* \"#utility.yul\":2878:3258   */\n    tag_119:\n        /* \"#utility.yul\":2957:2958   */\n      0x01\n        /* \"#utility.yul\":2953:2965   */\n      dup2\n      dup2\n      shr\n      swap1\n        /* \"#utility.yul\":3000:3012   */\n      dup3\n      and\n      dup1\n        /* \"#utility.yul\":3021:3082   */\n      tag_281\n      jumpi\n        /* \"#utility.yul\":3075:3079   */\n      0x7f\n        /* \"#utility.yul\":3067:3073   */\n      dup3\n        /* \"#utility.yul\":3063:3080   */\n      and\n        /* \"#utility.yul\":3053:3080   */\n      swap2\n      pop\n        /* \"#utility.yul\":3021:3082   */\n    tag_281:\n        /* \"#utility.yul\":3128:3130   */\n      0x20\n        /* \"#utility.yul\":3120:3126   */\n      dup3\n        /* \"#utility.yul\":3117:3131   */\n      lt\n        /* \"#utility.yul\":3097:3115   */\n      dup2\n        /* \"#utility.yul\":3094:3132   */\n      sub\n        /* \"#utility.yul\":3091:3252   */\n      tag_282\n      jumpi\n        /* \"#utility.yul\":3174:3184   */\n      0x4e487b71\n        /* \"#utility.yul\":3169:3172   */\n      0xe0\n        /* \"#utility.yul\":3165:3185   */\n      shl\n        /* \"#utility.yul\":3162:3163   */\n      0x00\n        /* \"#utility.yul\":3155:3186   */\n      mstore\n        /* \"#utility.yul\":3209:3213   */\n      0x22\n        /* \"#utility.yul\":3206:3207   */\n      0x04\n        /* \"#utility.yul\":3199:3214   */\n      mstore\n        /* \"#utility.yul\":3237:3241   */\n      0x24\n        /* \"#utility.yul\":3234:3235   */\n      0x00\n        /* \"#utility.yul\":3227:3242   */\n      revert\n        /* \"#utility.yul\":3091:3252   */\n    tag_282:\n      pop\n        /* \"#utility.yul\":2878:3258   */\n      swap2\n      swap1\n      pop\n      jump\t// out\n        /* \"#utility.yul\":3263:3390   */\n    tag_253:\n        /* \"#utility.yul\":3324:3334   */\n      0x4e487b71\n        /* \"#utility.yul\":3319:3322   */\n      0xe0\n        /* \"#utility.yul\":3315:3335   */\n      shl\n        /* \"#utility.yul\":3312:3313   */\n      0x00\n        /* \"#utility.yul\":3305:3336   */\n      mstore\n        /* \"#utility.yul\":3355:3359   */\n      0x11\n        /* \"#utility.yul\":3352:3353   */\n      0x04\n        /* \"#utility.yul\":3345:3360   */\n      mstore\n        /* \"#utility.yul\":3379:3383   */\n      0x24\n        /* \"#utility.yul\":3376:3377   */\n      0x00\n        /* \"#utility.yul\":3369:3384   */\n      revert\n        /* \"#utility.yul\":3395:3563   */\n    tag_157:\n        /* \"#utility.yul\":3468:3477   */\n      dup1\n      dup3\n      mul\n        /* \"#utility.yul\":3499:3508   */\n      dup2\n      iszero\n        /* \"#utility.yul\":3516:3531   */\n      dup3\n      dup3\n      div\n        /* \"#utility.yul\":3510:3532   */\n      dup5\n      eq\n        /* \"#utility.yul\":3496:3533   */\n      or\n        /* \"#utility.yul\":3486:3557   */\n      tag_124\n      jumpi\n        /* \"#utility.yul\":3537:3555   */\n      tag_124\n      tag_253\n      jump\t// in\n        /* \"#utility.yul\":3568:3785   */\n    tag_159:\n        /* \"#utility.yul\":3608:3609   */\n      0x00\n        /* \"#utility.yul\":3634:3635   */\n      dup3\n        /* \"#utility.yul\":3624:3756   */\n      tag_288\n      jumpi\n        /* \"#utility.yul\":3678:3688   */\n      0x4e487b71\n        /* \"#utility.yul\":3673:3676   */\n      0xe0\n        /* \"#utility.yul\":3669:3689   */\n      shl\n        /* \"#utility.yul\":3666:3667   */\n      0x00\n        /* \"#utility.yul\":3659:3690   */\n      mstore\n        /* \"#utility.yul\":3713:3717   */\n      0x12\n        /* \"#utility.yul\":3710:3711   */\n      0x04\n        /* \"#utility.yul\":3703:3718   */\n      mstore\n        /* \"#utility.yul\":3741:3745   */\n      0x24\n        /* \"#utility.yul\":3738:3739   */\n      0x00\n        /* \"#utility.yul\":3731:3746   */\n      revert\n        /* \"#utility.yul\":3624:3756   */\n    tag_288:\n      pop\n        /* \"#utility.yul\":3770:3779   */\n      div\n      swap1\n        /* \"#utility.yul\":3568:3785   */\n      jump\t// out\n        /* \"#utility.yul\":3790:3915   */\n    tag_162:\n        /* \"#utility.yul\":3855:3864   */\n      dup1\n      dup3\n      add\n        /* \"#utility.yul\":3876:3886   */\n      dup1\n      dup3\n      gt\n        /* \"#utility.yul\":3873:3909   */\n      iszero\n      tag_124\n      jumpi\n        /* \"#utility.yul\":3889:3907   */\n      tag_124\n      tag_253\n      jump\t// in\n        /* \"#utility.yul\":4981:5109   */\n    tag_214:\n        /* \"#utility.yul\":5048:5057   */\n      dup2\n      dup2\n      sub\n        /* \"#utility.yul\":5069:5080   */\n      dup2\n      dup2\n      gt\n        /* \"#utility.yul\":5066:5103   */\n      iszero\n      tag_124\n      jumpi\n        /* \"#utility.yul\":5083:5101   */\n      tag_124\n      tag_253\n      jump\t// in\n    stop\n    data_859952f8ad95bf3b9d6ec6d5182f93b209cbb9a33d14bac6f48292b740d5a146 6e232b0acf46272dacf889af6767574775a324b133d42b3b8cffa9cd13159984\n\n    auxdata: 0xa2646970667358221220f658173e49663e15cf0608404d99c90e72f6988e4d61e85efb8f463e01a6827c64736f6c634300081a0033\n}\n",
				"bytecode": {
					"linkReferences": {},
					"object": "608060405234801561000f575f80fd5b506040516112dd3803806112dd83398101604081905261002e91610317565b336040518060400160405280600a8152602001692c22a0a6902a37b5b2b760b11b815250604051806040016040528060048152602001635845414d60e01b815250816003908161007e9190610400565b50600461008b8282610400565b5050506001600160a01b0381166100bc57604051631e4fbdf760e01b81525f60048201526024015b60405180910390fd5b6100c58161014d565b506001600655600780546001600160a01b038087166001600160a01b0319928316179092556008805486841690831617905560098054858416908316179055600a80549284169290911691909117905561012a336a01a784379d99db4200000061019e565b5050335f908152600b60205260409020805460ff19166001179055506104df9050565b600580546001600160a01b038381166001600160a01b0319831681179093556040519116919082907f8be0079c531659141344cd1fd0a4f28419497f9722a3daafe3b4186f6b6457e0905f90a35050565b6001600160a01b0382166101c75760405163ec442f0560e01b81525f60048201526024016100b3565b6101d25f83836101d6565b5050565b6001600160a01b038316610200578060025f8282546101f591906104ba565b909155506102709050565b6001600160a01b0383165f90815260208190526040902054818110156102525760405163391434e360e21b81526001600160a01b038516600482015260248101829052604481018390526064016100b3565b6001600160a01b0384165f9081526020819052604090209082900390555b6001600160a01b03821661028c576002805482900390556102aa565b6001600160a01b0382165f9081526020819052604090208054820190555b816001600160a01b0316836001600160a01b03167fddf252ad1be2c89b69c2b068fc378daa952ba7f163c4a11628f55a4df523b3ef836040516102ef91815260200190565b60405180910390a3505050565b80516001600160a01b0381168114610312575f80fd5b919050565b5f805f806080858703121561032a575f80fd5b610333856102fc565b9350610341602086016102fc565b925061034f604086016102fc565b915061035d606086016102fc565b905092959194509250565b634e487b7160e01b5f52604160045260245ffd5b600181811c9082168061039057607f821691505b6020821081036103ae57634e487b7160e01b5f52602260045260245ffd5b50919050565b601f8211156103fb57805f5260205f20601f840160051c810160208510156103d95750805b601f840160051c820191505b818110156103f8575f81556001016103e5565b50505b505050565b81516001600160401b0381111561041957610419610368565b61042d81610427845461037c565b846103b4565b6020601f82116001811461045f575f83156104485750848201515b5f19600385901b1c1916600184901b1784556103f8565b5f84815260208120601f198516915b8281101561048e578785015182556020948501946001909201910161046e565b50848210156104ab57868401515f19600387901b60f8161c191681555b50505050600190811b01905550565b808201808211156104d957634e487b7160e01b5f52601160045260245ffd5b92915050565b610df1806104ec5f395ff3fe608060405234801561000f575f80fd5b5060043610610153575f3560e01c806370a08231116100bf578063a9059cbb11610079578063a9059cbb146102c7578063cc859378146102da578063dd62ed3e146102ed578063df7787a414610325578063f2fde38b1461032d578063f3b2db3f14610340575f80fd5b806370a0823114610256578063715018a61461027e578063753cafc31461028857806375f0a8741461029b5780638da5cb5b146102ae57806395d89b41146102bf575f80fd5b80632ff2e9dc116101105780632ff2e9dc146101f0578063313ce5671461020257806336b4134a146102115780634fbee1931461021957806352a6a9ec1461023b57806354ad8aee1461024e575f80fd5b806302af37bb1461015757806306ee6ad81461017257806306fdde031461019d578063095ea7b3146101b257806318160ddd146101d557806323b872dd146101dd575b5f80fd5b61015f600a81565b6040519081526020015b60405180910390f35b600a54610185906001600160a01b031681565b6040516001600160a01b039091168152602001610169565b6101a5610348565b6040516101699190610bb7565b6101c56101c0366004610c07565b6103d8565b6040519015158152602001610169565b60025461015f565b6101c56101eb366004610c2f565b6103f1565b61015f6a01a784379d99db4200000081565b60405160128152602001610169565b61015f600d81565b6101c5610227366004610c69565b600b6020525f908152604090205460ff1681565b600754610185906001600160a01b031681565b61015f600c81565b61015f610264366004610c69565b6001600160a01b03165f9081526020819052604090205490565b610286610414565b005b610286610296366004610c89565b610427565b600954610185906001600160a01b031681565b6005546001600160a01b0316610185565b6101a5610459565b6101c56102d5366004610c07565b610468565b600854610185906001600160a01b031681565b61015f6102fb366004610cc2565b6001600160a01b039182165f90815260016020908152604080832093909416825291909152205490565b61015f6105a2565b61028661033b366004610c69565b6105c7565b61015f610604565b60606003805461035790610cf3565b80601f016020809104026020016040519081016040528092919081815260200182805461038390610cf3565b80156103ce5780601f106103a5576101008083540402835291602001916103ce565b820191905f5260205f20905b8154815290600101906020018083116103b157829003601f168201915b5050505050905090565b5f336103e581858561061d565b60019150505b92915050565b5f336103fe85828561062f565b6104098585856106ab565b506001949350505050565b61041c610708565b6104255f610735565b565b61042f610708565b6001600160a01b03919091165f908152600b60205260409020805460ff1916911515919091179055565b60606004805461035790610cf3565b335f908152600b602052604081205460ff1661058e5760646104966a01a784379d99db420000006001610d3f565b6104a09190610d56565b826104bf856001600160a01b03165f9081526020819052604090205490565b6104c99190610d75565b111561051c5760405162461bcd60e51b815260206004820152601860248201527f45786365656473206d61782077616c6c6574206c696d6974000000000000000060448201526064015b60405180910390fd5b6127106105356a01a784379d99db420000006005610d3f565b61053f9190610d56565b82111561058e5760405162461bcd60e51b815260206004820152601d60248201527f45786365656473206d6178207472616e73616374696f6e206c696d69740000006044820152606401610513565b610599338484610786565b50600192915050565b60646105ba6a01a784379d99db420000006001610d3f565b6105c49190610d56565b81565b6105cf610708565b6001600160a01b0381166105f857604051631e4fbdf760e01b81525f6004820152602401610513565b61060181610735565b50565b6127106105ba6a01a784379d99db420000006005610d3f565b61062a83838360016109bf565b505050565b6001600160a01b038381165f908152600160209081526040808320938616835292905220545f198110156106a5578181101561069757604051637dc7a0d960e11b81526001600160a01b03841660048201526024810182905260448101839052606401610513565b6106a584848484035f6109bf565b50505050565b6001600160a01b0383166106d457604051634b637e8f60e11b81525f6004820152602401610513565b6001600160a01b0382166106fd5760405163ec442f0560e01b81525f6004820152602401610513565b61062a838383610a91565b6005546001600160a01b031633146104255760405163118cdaa760e01b8152336004820152602401610513565b600580546001600160a01b038381166001600160a01b0319831681179093556040519116919082907f8be0079c531659141344cd1fd0a4f28419497f9722a3daafe3b4186f6b6457e0905f90a35050565b5f6064610794600c84610d3f565b61079f906063610d75565b6107a99190610d56565b90505f6107b68284610d88565b90505f600c6107c6846004610d3f565b6107d09190610d56565b90505f600c6107e0856001610d3f565b6107ea9190610d56565b90505f600c6107fa866004610d3f565b6108049190610d56565b90505f600c610814876003610d3f565b61081e9190610d56565b600754909150610839908a906001600160a01b0316866106ab565b5f80516020610d9c8339815191528460405161088191815260406020820181905260129082015271115b98dbdd5c9859d95b595b9d08119d5b9960721b606082015260800190565b60405180910390a16008546108a1908a906001600160a01b0316856106ab565b5f80516020610d9c833981519152836040516108e5918152604060208201819052600e908201526d115b595c99d95b98de48119d5b9960921b606082015260800190565b60405180910390a1600954610905908a906001600160a01b0316846106ab565b5f80516020610d9c83398151915282604051610944918152604060208201819052600990820152684d61726b6574696e6760b81b606082015260800190565b60405180910390a1600a54610964908a906001600160a01b0316836106ab565b5f80516020610d9c833981519152816040516109a1918152604060208201819052600790820152665374616b696e6760c81b606082015260800190565b60405180910390a16109b48989876106ab565b505050505050505050565b6001600160a01b0384166109e85760405163e602df0560e01b81525f6004820152602401610513565b6001600160a01b038316610a1157604051634a1406b160e11b81525f6004820152602401610513565b6001600160a01b038085165f90815260016020908152604080832093871683529290522082905580156106a557826001600160a01b0316846001600160a01b03167f8c5be1e5ebec7d5bd14f71427d1e84f3dd0314c0f7b2291e5b200ac8c7c3b92584604051610a8391815260200190565b60405180910390a350505050565b6001600160a01b038316610abb578060025f828254610ab09190610d75565b90915550610b2b9050565b6001600160a01b0383165f9081526020819052604090205481811015610b0d5760405163391434e360e21b81526001600160a01b03851660048201526024810182905260448101839052606401610513565b6001600160a01b0384165f9081526020819052604090209082900390555b6001600160a01b038216610b4757600280548290039055610b65565b6001600160a01b0382165f9081526020819052604090208054820190555b816001600160a01b0316836001600160a01b03167fddf252ad1be2c89b69c2b068fc378daa952ba7f163c4a11628f55a4df523b3ef83604051610baa91815260200190565b60405180910390a3505050565b602081525f82518060208401528060208501604085015e5f604082850101526040601f19601f83011684010191505092915050565b80356001600160a01b0381168114610c02575f80fd5b919050565b5f8060408385031215610c18575f80fd5b610c2183610bec565b946020939093013593505050565b5f805f60608486031215610c41575f80fd5b610c4a84610bec565b9250610c5860208501610bec565b929592945050506040919091013590565b5f60208284031215610c79575f80fd5b610c8282610bec565b9392505050565b5f8060408385031215610c9a575f80fd5b610ca383610bec565b915060208301358015158114610cb7575f80fd5b809150509250929050565b5f8060408385031215610cd3575f80fd5b610cdc83610bec565b9150610cea60208401610bec565b90509250929050565b600181811c90821680610d0757607f821691505b602082108103610d2557634e487b7160e01b5f52602260045260245ffd5b50919050565b634e487b7160e01b5f52601160045260245ffd5b80820281158282048414176103eb576103eb610d2b565b5f82610d7057634e487b7160e01b5f52601260045260245ffd5b500490565b808201808211156103eb576103eb610d2b565b818103818111156103eb576103eb610d2b56fe6e232b0acf46272dacf889af6767574775a324b133d42b3b8cffa9cd13159984a2646970667358221220f658173e49663e15cf0608404d99c90e72f6988e4d61e85efb8f463e01a6827c64736f6c634300081a0033",
					"opcodes": "PUSH1 0x80 PUSH1 0x40 MSTORE CALLVALUE DUP1 ISZERO PUSH2 0xF JUMPI PUSH0 DUP1 REVERT JUMPDEST POP PUSH1 0x40 MLOAD PUSH2 0x12DD CODESIZE SUB DUP1 PUSH2 0x12DD DUP4 CODECOPY DUP2 ADD PUSH1 0x40 DUP2 SWAP1 MSTORE PUSH2 0x2E SWAP2 PUSH2 0x317 JUMP JUMPDEST CALLER PUSH1 0x40 MLOAD DUP1 PUSH1 0x40 ADD PUSH1 0x40 MSTORE DUP1 PUSH1 0xA DUP2 MSTORE PUSH1 0x20 ADD PUSH10 0x2C22A0A6902A37B5B2B7 PUSH1 0xB1 SHL DUP2 MSTORE POP PUSH1 0x40 MLOAD DUP1 PUSH1 0x40 ADD PUSH1 0x40 MSTORE DUP1 PUSH1 0x4 DUP2 MSTORE PUSH1 0x20 ADD PUSH4 0x5845414D PUSH1 0xE0 SHL DUP2 MSTORE POP DUP2 PUSH1 0x3 SWAP1 DUP2 PUSH2 0x7E SWAP2 SWAP1 PUSH2 0x400 JUMP JUMPDEST POP PUSH1 0x4 PUSH2 0x8B DUP3 DUP3 PUSH2 0x400 JUMP JUMPDEST POP POP POP PUSH1 0x1 PUSH1 0x1 PUSH1 0xA0 SHL SUB DUP2 AND PUSH2 0xBC JUMPI PUSH1 0x40 MLOAD PUSH4 0x1E4FBDF7 PUSH1 0xE0 SHL DUP2 MSTORE PUSH0 PUSH1 0x4 DUP3 ADD MSTORE PUSH1 0x24 ADD JUMPDEST PUSH1 0x40 MLOAD DUP1 SWAP2 SUB SWAP1 REVERT JUMPDEST PUSH2 0xC5 DUP2 PUSH2 0x14D JUMP JUMPDEST POP PUSH1 0x1 PUSH1 0x6 SSTORE PUSH1 0x7 DUP1 SLOAD PUSH1 0x1 PUSH1 0x1 PUSH1 0xA0 SHL SUB DUP1 DUP8 AND PUSH1 0x1 PUSH1 0x1 PUSH1 0xA0 SHL SUB NOT SWAP3 DUP4 AND OR SWAP1 SWAP3 SSTORE PUSH1 0x8 DUP1 SLOAD DUP7 DUP5 AND SWAP1 DUP4 AND OR SWAP1 SSTORE PUSH1 0x9 DUP1 SLOAD DUP6 DUP5 AND SWAP1 DUP4 AND OR SWAP1 SSTORE PUSH1 0xA DUP1 SLOAD SWAP3 DUP5 AND SWAP3 SWAP1 SWAP2 AND SWAP2 SWAP1 SWAP2 OR SWAP1 SSTORE PUSH2 0x12A CALLER PUSH11 0x1A784379D99DB42000000 PUSH2 0x19E JUMP JUMPDEST POP POP CALLER PUSH0 SWAP1 DUP2 MSTORE PUSH1 0xB PUSH1 0x20 MSTORE PUSH1 0x40 SWAP1 KECCAK256 DUP1 SLOAD PUSH1 0xFF NOT AND PUSH1 0x1 OR SWAP1 SSTORE POP PUSH2 0x4DF SWAP1 POP JUMP JUMPDEST PUSH1 0x5 DUP1 SLOAD PUSH1 0x1 PUSH1 0x1 PUSH1 0xA0 SHL SUB DUP4 DUP2 AND PUSH1 0x1 PUSH1 0x1 PUSH1 0xA0 SHL SUB NOT DUP4 AND DUP2 OR SWAP1 SWAP4 SSTORE PUSH1 0x40 MLOAD SWAP2 AND SWAP2 SWAP1 DUP3 SWAP1 PUSH32 0x8BE0079C531659141344CD1FD0A4F28419497F9722A3DAAFE3B4186F6B6457E0 SWAP1 PUSH0 SWAP1 LOG3 POP POP JUMP JUMPDEST PUSH1 0x1 PUSH1 0x1 PUSH1 0xA0 SHL SUB DUP3 AND PUSH2 0x1C7 JUMPI PUSH1 0x40 MLOAD PUSH4 0xEC442F05 PUSH1 0xE0 SHL DUP2 MSTORE PUSH0 PUSH1 0x4 DUP3 ADD MSTORE PUSH1 0x24 ADD PUSH2 0xB3 JUMP JUMPDEST PUSH2 0x1D2 PUSH0 DUP4 DUP4 PUSH2 0x1D6 JUMP JUMPDEST POP POP JUMP JUMPDEST PUSH1 0x1 PUSH1 0x1 PUSH1 0xA0 SHL SUB DUP4 AND PUSH2 0x200 JUMPI DUP1 PUSH1 0x2 PUSH0 DUP3 DUP3 SLOAD PUSH2 0x1F5 SWAP2 SWAP1 PUSH2 0x4BA JUMP JUMPDEST SWAP1 SWAP2 SSTORE POP PUSH2 0x270 SWAP1 POP JUMP JUMPDEST PUSH1 0x1 PUSH1 0x1 PUSH1 0xA0 SHL SUB DUP4 AND PUSH0 SWAP1 DUP2 MSTORE PUSH1 0x20 DUP2 SWAP1 MSTORE PUSH1 0x40 SWAP1 KECCAK256 SLOAD DUP2 DUP2 LT ISZERO PUSH2 0x252 JUMPI PUSH1 0x40 MLOAD PUSH4 0x391434E3 PUSH1 0xE2 SHL DUP2 MSTORE PUSH1 0x1 PUSH1 0x1 PUSH1 0xA0 SHL SUB DUP6 AND PUSH1 0x4 DUP3 ADD MSTORE PUSH1 0x24 DUP2 ADD DUP3 SWAP1 MSTORE PUSH1 0x44 DUP2 ADD DUP4 SWAP1 MSTORE PUSH1 0x64 ADD PUSH2 0xB3 JUMP JUMPDEST PUSH1 0x1 PUSH1 0x1 PUSH1 0xA0 SHL SUB DUP5 AND PUSH0 SWAP1 DUP2 MSTORE PUSH1 0x20 DUP2 SWAP1 MSTORE PUSH1 0x40 SWAP1 KECCAK256 SWAP1 DUP3 SWAP1 SUB SWAP1 SSTORE JUMPDEST PUSH1 0x1 PUSH1 0x1 PUSH1 0xA0 SHL SUB DUP3 AND PUSH2 0x28C JUMPI PUSH1 0x2 DUP1 SLOAD DUP3 SWAP1 SUB SWAP1 SSTORE PUSH2 0x2AA JUMP JUMPDEST PUSH1 0x1 PUSH1 0x1 PUSH1 0xA0 SHL SUB DUP3 AND PUSH0 SWAP1 DUP2 MSTORE PUSH1 0x20 DUP2 SWAP1 MSTORE PUSH1 0x40 SWAP1 KECCAK256 DUP1 SLOAD DUP3 ADD SWAP1 SSTORE JUMPDEST DUP2 PUSH1 0x1 PUSH1 0x1 PUSH1 0xA0 SHL SUB AND DUP4 PUSH1 0x1 PUSH1 0x1 PUSH1 0xA0 SHL SUB AND PUSH32 0xDDF252AD1BE2C89B69C2B068FC378DAA952BA7F163C4A11628F55A4DF523B3EF DUP4 PUSH1 0x40 MLOAD PUSH2 0x2EF SWAP2 DUP2 MSTORE PUSH1 0x20 ADD SWAP1 JUMP JUMPDEST PUSH1 0x40 MLOAD DUP1 SWAP2 SUB SWAP1 LOG3 POP POP POP JUMP JUMPDEST DUP1 MLOAD PUSH1 0x1 PUSH1 0x1 PUSH1 0xA0 SHL SUB DUP2 AND DUP2 EQ PUSH2 0x312 JUMPI PUSH0 DUP1 REVERT JUMPDEST SWAP2 SWAP1 POP JUMP JUMPDEST PUSH0 DUP1 PUSH0 DUP1 PUSH1 0x80 DUP6 DUP8 SUB SLT ISZERO PUSH2 0x32A JUMPI PUSH0 DUP1 REVERT JUMPDEST PUSH2 0x333 DUP6 PUSH2 0x2FC JUMP JUMPDEST SWAP4 POP PUSH2 0x341 PUSH1 0x20 DUP7 ADD PUSH2 0x2FC JUMP JUMPDEST SWAP3 POP PUSH2 0x34F PUSH1 0x40 DUP7 ADD PUSH2 0x2FC JUMP JUMPDEST SWAP2 POP PUSH2 0x35D PUSH1 0x60 DUP7 ADD PUSH2 0x2FC JUMP JUMPDEST SWAP1 POP SWAP3 SWAP6 SWAP2 SWAP5 POP SWAP3 POP JUMP JUMPDEST PUSH4 0x4E487B71 PUSH1 0xE0 SHL PUSH0 MSTORE PUSH1 0x41 PUSH1 0x4 MSTORE PUSH1 0x24 PUSH0 REVERT JUMPDEST PUSH1 0x1 DUP2 DUP2 SHR SWAP1 DUP3 AND DUP1 PUSH2 0x390 JUMPI PUSH1 0x7F DUP3 AND SWAP2 POP JUMPDEST PUSH1 0x20 DUP3 LT DUP2 SUB PUSH2 0x3AE JUMPI PUSH4 0x4E487B71 PUSH1 0xE0 SHL PUSH0 MSTORE PUSH1 0x22 PUSH1 0x4 MSTORE PUSH1 0x24 PUSH0 REVERT JUMPDEST POP SWAP2 SWAP1 POP JUMP JUMPDEST PUSH1 0x1F DUP3 GT ISZERO PUSH2 0x3FB JUMPI DUP1 PUSH0 MSTORE PUSH1 0x20 PUSH0 KECCAK256 PUSH1 0x1F DUP5 ADD PUSH1 0x5 SHR DUP2 ADD PUSH1 0x20 DUP6 LT ISZERO PUSH2 0x3D9 JUMPI POP DUP1 JUMPDEST PUSH1 0x1F DUP5 ADD PUSH1 0x5 SHR DUP3 ADD SWAP2 POP JUMPDEST DUP2 DUP2 LT ISZERO PUSH2 0x3F8 JUMPI PUSH0 DUP2 SSTORE PUSH1 0x1 ADD PUSH2 0x3E5 JUMP JUMPDEST POP POP JUMPDEST POP POP POP JUMP JUMPDEST DUP2 MLOAD PUSH1 0x1 PUSH1 0x1 PUSH1 0x40 SHL SUB DUP2 GT ISZERO PUSH2 0x419 JUMPI PUSH2 0x419 PUSH2 0x368 JUMP JUMPDEST PUSH2 0x42D DUP2 PUSH2 0x427 DUP5 SLOAD PUSH2 0x37C JUMP JUMPDEST DUP5 PUSH2 0x3B4 JUMP JUMPDEST PUSH1 0x20 PUSH1 0x1F DUP3 GT PUSH1 0x1 DUP2 EQ PUSH2 0x45F JUMPI PUSH0 DUP4 ISZERO PUSH2 0x448 JUMPI POP DUP5 DUP3 ADD MLOAD JUMPDEST PUSH0 NOT PUSH1 0x3 DUP6 SWAP1 SHL SHR NOT AND PUSH1 0x1 DUP5 SWAP1 SHL OR DUP5 SSTORE PUSH2 0x3F8 JUMP JUMPDEST PUSH0 DUP5 DUP2 MSTORE PUSH1 0x20 DUP2 KECCAK256 PUSH1 0x1F NOT DUP6 AND SWAP2 JUMPDEST DUP3 DUP2 LT ISZERO PUSH2 0x48E JUMPI DUP8 DUP6 ADD MLOAD DUP3 SSTORE PUSH1 0x20 SWAP5 DUP6 ADD SWAP5 PUSH1 0x1 SWAP1 SWAP3 ADD SWAP2 ADD PUSH2 0x46E JUMP JUMPDEST POP DUP5 DUP3 LT ISZERO PUSH2 0x4AB JUMPI DUP7 DUP5 ADD MLOAD PUSH0 NOT PUSH1 0x3 DUP8 SWAP1 SHL PUSH1 0xF8 AND SHR NOT AND DUP2 SSTORE JUMPDEST POP POP POP POP PUSH1 0x1 SWAP1 DUP2 SHL ADD SWAP1 SSTORE POP JUMP JUMPDEST DUP1 DUP3 ADD DUP1 DUP3 GT ISZERO PUSH2 0x4D9 JUMPI PUSH4 0x4E487B71 PUSH1 0xE0 SHL PUSH0 MSTORE PUSH1 0x11 PUSH1 0x4 MSTORE PUSH1 0x24 PUSH0 REVERT JUMPDEST SWAP3 SWAP2 POP POP JUMP JUMPDEST PUSH2 0xDF1 DUP1 PUSH2 0x4EC PUSH0 CODECOPY PUSH0 RETURN INVALID PUSH1 0x80 PUSH1 0x40 MSTORE CALLVALUE DUP1 ISZERO PUSH2 0xF JUMPI PUSH0 DUP1 REVERT JUMPDEST POP PUSH1 0x4 CALLDATASIZE LT PUSH2 0x153 JUMPI PUSH0 CALLDATALOAD PUSH1 0xE0 SHR DUP1 PUSH4 0x70A08231 GT PUSH2 0xBF JUMPI DUP1 PUSH4 0xA9059CBB GT PUSH2 0x79 JUMPI DUP1 PUSH4 0xA9059CBB EQ PUSH2 0x2C7 JUMPI DUP1 PUSH4 0xCC859378 EQ PUSH2 0x2DA JUMPI DUP1 PUSH4 0xDD62ED3E EQ PUSH2 0x2ED JUMPI DUP1 PUSH4 0xDF7787A4 EQ PUSH2 0x325 JUMPI DUP1 PUSH4 0xF2FDE38B EQ PUSH2 0x32D JUMPI DUP1 PUSH4 0xF3B2DB3F EQ PUSH2 0x340 JUMPI PUSH0 DUP1 REVERT JUMPDEST DUP1 PUSH4 0x70A08231 EQ PUSH2 0x256 JUMPI DUP1 PUSH4 0x715018A6 EQ PUSH2 0x27E JUMPI DUP1 PUSH4 0x753CAFC3 EQ PUSH2 0x288 JUMPI DUP1 PUSH4 0x75F0A874 EQ PUSH2 0x29B JUMPI DUP1 PUSH4 0x8DA5CB5B EQ PUSH2 0x2AE JUMPI DUP1 PUSH4 0x95D89B41 EQ PUSH2 0x2BF JUMPI PUSH0 DUP1 REVERT JUMPDEST DUP1 PUSH4 0x2FF2E9DC GT PUSH2 0x110 JUMPI DUP1 PUSH4 0x2FF2E9DC EQ PUSH2 0x1F0 JUMPI DUP1 PUSH4 0x313CE567 EQ PUSH2 0x202 JUMPI DUP1 PUSH4 0x36B4134A EQ PUSH2 0x211 JUMPI DUP1 PUSH4 0x4FBEE193 EQ PUSH2 0x219 JUMPI DUP1 PUSH4 0x52A6A9EC EQ PUSH2 0x23B JUMPI DUP1 PUSH4 0x54AD8AEE EQ PUSH2 0x24E JUMPI PUSH0 DUP1 REVERT JUMPDEST DUP1 PUSH4 0x2AF37BB EQ PUSH2 0x157 JUMPI DUP1 PUSH4 0x6EE6AD8 EQ PUSH2 0x172 JUMPI DUP1 PUSH4 0x6FDDE03 EQ PUSH2 0x19D JUMPI DUP1 PUSH4 0x95EA7B3 EQ PUSH2 0x1B2 JUMPI DUP1 PUSH4 0x18160DDD EQ PUSH2 0x1D5 JUMPI DUP1 PUSH4 0x23B872DD EQ PUSH2 0x1DD JUMPI JUMPDEST PUSH0 DUP1 REVERT JUMPDEST PUSH2 0x15F PUSH1 0xA DUP2 JUMP JUMPDEST PUSH1 0x40 MLOAD SWAP1 DUP2 MSTORE PUSH1 0x20 ADD JUMPDEST PUSH1 0x40 MLOAD DUP1 SWAP2 SUB SWAP1 RETURN JUMPDEST PUSH1 0xA SLOAD PUSH2 0x185 SWAP1 PUSH1 0x1 PUSH1 0x1 PUSH1 0xA0 SHL SUB AND DUP2 JUMP JUMPDEST PUSH1 0x40 MLOAD PUSH1 0x1 PUSH1 0x1 PUSH1 0xA0 SHL SUB SWAP1 SWAP2 AND DUP2 MSTORE PUSH1 0x20 ADD PUSH2 0x169 JUMP JUMPDEST PUSH2 0x1A5 PUSH2 0x348 JUMP JUMPDEST PUSH1 0x40 MLOAD PUSH2 0x169 SWAP2 SWAP1 PUSH2 0xBB7 JUMP JUMPDEST PUSH2 0x1C5 PUSH2 0x1C0 CALLDATASIZE PUSH1 0x4 PUSH2 0xC07 JUMP JUMPDEST PUSH2 0x3D8 JUMP JUMPDEST PUSH1 0x40 MLOAD SWAP1 ISZERO ISZERO DUP2 MSTORE PUSH1 0x20 ADD PUSH2 0x169 JUMP JUMPDEST PUSH1 0x2 SLOAD PUSH2 0x15F JUMP JUMPDEST PUSH2 0x1C5 PUSH2 0x1EB CALLDATASIZE PUSH1 0x4 PUSH2 0xC2F JUMP JUMPDEST PUSH2 0x3F1 JUMP JUMPDEST PUSH2 0x15F PUSH11 0x1A784379D99DB42000000 DUP2 JUMP JUMPDEST PUSH1 0x40 MLOAD PUSH1 0x12 DUP2 MSTORE PUSH1 0x20 ADD PUSH2 0x169 JUMP JUMPDEST PUSH2 0x15F PUSH1 0xD DUP2 JUMP JUMPDEST PUSH2 0x1C5 PUSH2 0x227 CALLDATASIZE PUSH1 0x4 PUSH2 0xC69 JUMP JUMPDEST PUSH1 0xB PUSH1 0x20 MSTORE PUSH0 SWAP1 DUP2 MSTORE PUSH1 0x40 SWAP1 KECCAK256 SLOAD PUSH1 0xFF AND DUP2 JUMP JUMPDEST PUSH1 0x7 SLOAD PUSH2 0x185 SWAP1 PUSH1 0x1 PUSH1 0x1 PUSH1 0xA0 SHL SUB AND DUP2 JUMP JUMPDEST PUSH2 0x15F PUSH1 0xC DUP2 JUMP JUMPDEST PUSH2 0x15F PUSH2 0x264 CALLDATASIZE PUSH1 0x4 PUSH2 0xC69 JUMP JUMPDEST PUSH1 0x1 PUSH1 0x1 PUSH1 0xA0 SHL SUB AND PUSH0 SWAP1 DUP2 MSTORE PUSH1 0x20 DUP2 SWAP1 MSTORE PUSH1 0x40 SWAP1 KECCAK256 SLOAD SWAP1 JUMP JUMPDEST PUSH2 0x286 PUSH2 0x414 JUMP JUMPDEST STOP JUMPDEST PUSH2 0x286 PUSH2 0x296 CALLDATASIZE PUSH1 0x4 PUSH2 0xC89 JUMP JUMPDEST PUSH2 0x427 JUMP JUMPDEST PUSH1 0x9 SLOAD PUSH2 0x185 SWAP1 PUSH1 0x1 PUSH1 0x1 PUSH1 0xA0 SHL SUB AND DUP2 JUMP JUMPDEST PUSH1 0x5 SLOAD PUSH1 0x1 PUSH1 0x1 PUSH1 0xA0 SHL SUB AND PUSH2 0x185 JUMP JUMPDEST PUSH2 0x1A5 PUSH2 0x459 JUMP JUMPDEST PUSH2 0x1C5 PUSH2 0x2D5 CALLDATASIZE PUSH1 0x4 PUSH2 0xC07 JUMP JUMPDEST PUSH2 0x468 JUMP JUMPDEST PUSH1 0x8 SLOAD PUSH2 0x185 SWAP1 PUSH1 0x1 PUSH1 0x1 PUSH1 0xA0 SHL SUB AND DUP2 JUMP JUMPDEST PUSH2 0x15F PUSH2 0x2FB CALLDATASIZE PUSH1 0x4 PUSH2 0xCC2 JUMP JUMPDEST PUSH1 0x1 PUSH1 0x1 PUSH1 0xA0 SHL SUB SWAP2 DUP3 AND PUSH0 SWAP1 DUP2 MSTORE PUSH1 0x1 PUSH1 0x20 SWAP1 DUP2 MSTORE PUSH1 0x40 DUP1 DUP4 KECCAK256 SWAP4 SWAP1 SWAP5 AND DUP3 MSTORE SWAP2 SWAP1 SWAP2 MSTORE KECCAK256 SLOAD SWAP1 JUMP JUMPDEST PUSH2 0x15F PUSH2 0x5A2 JUMP JUMPDEST PUSH2 0x286 PUSH2 0x33B CALLDATASIZE PUSH1 0x4 PUSH2 0xC69 JUMP JUMPDEST PUSH2 0x5C7 JUMP JUMPDEST PUSH2 0x15F PUSH2 0x604 JUMP JUMPDEST PUSH1 0x60 PUSH1 0x3 DUP1 SLOAD PUSH2 0x357 SWAP1 PUSH2 0xCF3 JUMP JUMPDEST DUP1 PUSH1 0x1F ADD PUSH1 0x20 DUP1 SWAP2 DIV MUL PUSH1 0x20 ADD PUSH1 0x40 MLOAD SWAP1 DUP2 ADD PUSH1 0x40 MSTORE DUP1 SWAP3 SWAP2 SWAP1 DUP2 DUP2 MSTORE PUSH1 0x20 ADD DUP3 DUP1 SLOAD PUSH2 0x383 SWAP1 PUSH2 0xCF3 JUMP JUMPDEST DUP1 ISZERO PUSH2 0x3CE JUMPI DUP1 PUSH1 0x1F LT PUSH2 0x3A5 JUMPI PUSH2 0x100 DUP1 DUP4 SLOAD DIV MUL DUP4 MSTORE SWAP2 PUSH1 0x20 ADD SWAP2 PUSH2 0x3CE JUMP JUMPDEST DUP3 ADD SWAP2 SWAP1 PUSH0 MSTORE PUSH1 0x20 PUSH0 KECCAK256 SWAP1 JUMPDEST DUP2 SLOAD DUP2 MSTORE SWAP1 PUSH1 0x1 ADD SWAP1 PUSH1 0x20 ADD DUP1 DUP4 GT PUSH2 0x3B1 JUMPI DUP3 SWAP1 SUB PUSH1 0x1F AND DUP3 ADD SWAP2 JUMPDEST POP POP POP POP POP SWAP1 POP SWAP1 JUMP JUMPDEST PUSH0 CALLER PUSH2 0x3E5 DUP2 DUP6 DUP6 PUSH2 0x61D JUMP JUMPDEST PUSH1 0x1 SWAP2 POP POP JUMPDEST SWAP3 SWAP2 POP POP JUMP JUMPDEST PUSH0 CALLER PUSH2 0x3FE DUP6 DUP3 DUP6 PUSH2 0x62F JUMP JUMPDEST PUSH2 0x409 DUP6 DUP6 DUP6 PUSH2 0x6AB JUMP JUMPDEST POP PUSH1 0x1 SWAP5 SWAP4 POP POP POP POP JUMP JUMPDEST PUSH2 0x41C PUSH2 0x708 JUMP JUMPDEST PUSH2 0x425 PUSH0 PUSH2 0x735 JUMP JUMPDEST JUMP JUMPDEST PUSH2 0x42F PUSH2 0x708 JUMP JUMPDEST PUSH1 0x1 PUSH1 0x1 PUSH1 0xA0 SHL SUB SWAP2 SWAP1 SWAP2 AND PUSH0 SWAP1 DUP2 MSTORE PUSH1 0xB PUSH1 0x20 MSTORE PUSH1 0x40 SWAP1 KECCAK256 DUP1 SLOAD PUSH1 0xFF NOT AND SWAP2 ISZERO ISZERO SWAP2 SWAP1 SWAP2 OR SWAP1 SSTORE JUMP JUMPDEST PUSH1 0x60 PUSH1 0x4 DUP1 SLOAD PUSH2 0x357 SWAP1 PUSH2 0xCF3 JUMP JUMPDEST CALLER PUSH0 SWAP1 DUP2 MSTORE PUSH1 0xB PUSH1 0x20 MSTORE PUSH1 0x40 DUP2 KECCAK256 SLOAD PUSH1 0xFF AND PUSH2 0x58E JUMPI PUSH1 0x64 PUSH2 0x496 PUSH11 0x1A784379D99DB42000000 PUSH1 0x1 PUSH2 0xD3F JUMP JUMPDEST PUSH2 0x4A0 SWAP2 SWAP1 PUSH2 0xD56 JUMP JUMPDEST DUP3 PUSH2 0x4BF DUP6 PUSH1 0x1 PUSH1 0x1 PUSH1 0xA0 SHL SUB AND PUSH0 SWAP1 DUP2 MSTORE PUSH1 0x20 DUP2 SWAP1 MSTORE PUSH1 0x40 SWAP1 KECCAK256 SLOAD SWAP1 JUMP JUMPDEST PUSH2 0x4C9 SWAP2 SWAP1 PUSH2 0xD75 JUMP JUMPDEST GT ISZERO PUSH2 0x51C JUMPI PUSH1 0x40 MLOAD PUSH3 0x461BCD PUSH1 0xE5 SHL DUP2 MSTORE PUSH1 0x20 PUSH1 0x4 DUP3 ADD MSTORE PUSH1 0x18 PUSH1 0x24 DUP3 ADD MSTORE PUSH32 0x45786365656473206D61782077616C6C6574206C696D69740000000000000000 PUSH1 0x44 DUP3 ADD MSTORE PUSH1 0x64 ADD JUMPDEST PUSH1 0x40 MLOAD DUP1 SWAP2 SUB SWAP1 REVERT JUMPDEST PUSH2 0x2710 PUSH2 0x535 PUSH11 0x1A784379D99DB42000000 PUSH1 0x5 PUSH2 0xD3F JUMP JUMPDEST PUSH2 0x53F SWAP2 SWAP1 PUSH2 0xD56 JUMP JUMPDEST DUP3 GT ISZERO PUSH2 0x58E JUMPI PUSH1 0x40 MLOAD PUSH3 0x461BCD PUSH1 0xE5 SHL DUP2 MSTORE PUSH1 0x20 PUSH1 0x4 DUP3 ADD MSTORE PUSH1 0x1D PUSH1 0x24 DUP3 ADD MSTORE PUSH32 0x45786365656473206D6178207472616E73616374696F6E206C696D6974000000 PUSH1 0x44 DUP3 ADD MSTORE PUSH1 0x64 ADD PUSH2 0x513 JUMP JUMPDEST PUSH2 0x599 CALLER DUP5 DUP5 PUSH2 0x786 JUMP JUMPDEST POP PUSH1 0x1 SWAP3 SWAP2 POP POP JUMP JUMPDEST PUSH1 0x64 PUSH2 0x5BA PUSH11 0x1A784379D99DB42000000 PUSH1 0x1 PUSH2 0xD3F JUMP JUMPDEST PUSH2 0x5C4 SWAP2 SWAP1 PUSH2 0xD56 JUMP JUMPDEST DUP2 JUMP JUMPDEST PUSH2 0x5CF PUSH2 0x708 JUMP JUMPDEST PUSH1 0x1 PUSH1 0x1 PUSH1 0xA0 SHL SUB DUP2 AND PUSH2 0x5F8 JUMPI PUSH1 0x40 MLOAD PUSH4 0x1E4FBDF7 PUSH1 0xE0 SHL DUP2 MSTORE PUSH0 PUSH1 0x4 DUP3 ADD MSTORE PUSH1 0x24 ADD PUSH2 0x513 JUMP JUMPDEST PUSH2 0x601 DUP2 PUSH2 0x735 JUMP JUMPDEST POP JUMP JUMPDEST PUSH2 0x2710 PUSH2 0x5BA PUSH11 0x1A784379D99DB42000000 PUSH1 0x5 PUSH2 0xD3F JUMP JUMPDEST PUSH2 0x62A DUP4 DUP4 DUP4 PUSH1 0x1 PUSH2 0x9BF JUMP JUMPDEST POP POP POP JUMP JUMPDEST PUSH1 0x1 PUSH1 0x1 PUSH1 0xA0 SHL SUB DUP4 DUP2 AND PUSH0 SWAP1 DUP2 MSTORE PUSH1 0x1 PUSH1 0x20 SWAP1 DUP2 MSTORE PUSH1 0x40 DUP1 DUP4 KECCAK256 SWAP4 DUP7 AND DUP4 MSTORE SWAP3 SWAP1 MSTORE KECCAK256 SLOAD PUSH0 NOT DUP2 LT ISZERO PUSH2 0x6A5 JUMPI DUP2 DUP2 LT ISZERO PUSH2 0x697 JUMPI PUSH1 0x40 MLOAD PUSH4 0x7DC7A0D9 PUSH1 0xE1 SHL DUP2 MSTORE PUSH1 0x1 PUSH1 0x1 PUSH1 0xA0 SHL SUB DUP5 AND PUSH1 0x4 DUP3 ADD MSTORE PUSH1 0x24 DUP2 ADD DUP3 SWAP1 MSTORE PUSH1 0x44 DUP2 ADD DUP4 SWAP1 MSTORE PUSH1 0x64 ADD PUSH2 0x513 JUMP JUMPDEST PUSH2 0x6A5 DUP5 DUP5 DUP5 DUP5 SUB PUSH0 PUSH2 0x9BF JUMP JUMPDEST POP POP POP POP JUMP JUMPDEST PUSH1 0x1 PUSH1 0x1 PUSH1 0xA0 SHL SUB DUP4 AND PUSH2 0x6D4 JUMPI PUSH1 0x40 MLOAD PUSH4 0x4B637E8F PUSH1 0xE1 SHL DUP2 MSTORE PUSH0 PUSH1 0x4 DUP3 ADD MSTORE PUSH1 0x24 ADD PUSH2 0x513 JUMP JUMPDEST PUSH1 0x1 PUSH1 0x1 PUSH1 0xA0 SHL SUB DUP3 AND PUSH2 0x6FD JUMPI PUSH1 0x40 MLOAD PUSH4 0xEC442F05 PUSH1 0xE0 SHL DUP2 MSTORE PUSH0 PUSH1 0x4 DUP3 ADD MSTORE PUSH1 0x24 ADD PUSH2 0x513 JUMP JUMPDEST PUSH2 0x62A DUP4 DUP4 DUP4 PUSH2 0xA91 JUMP JUMPDEST PUSH1 0x5 SLOAD PUSH1 0x1 PUSH1 0x1 PUSH1 0xA0 SHL SUB AND CALLER EQ PUSH2 0x425 JUMPI PUSH1 0x40 MLOAD PUSH4 0x118CDAA7 PUSH1 0xE0 SHL DUP2 MSTORE CALLER PUSH1 0x4 DUP3 ADD MSTORE PUSH1 0x24 ADD PUSH2 0x513 JUMP JUMPDEST PUSH1 0x5 DUP1 SLOAD PUSH1 0x1 PUSH1 0x1 PUSH1 0xA0 SHL SUB DUP4 DUP2 AND PUSH1 0x1 PUSH1 0x1 PUSH1 0xA0 SHL SUB NOT DUP4 AND DUP2 OR SWAP1 SWAP4 SSTORE PUSH1 0x40 MLOAD SWAP2 AND SWAP2 SWAP1 DUP3 SWAP1 PUSH32 0x8BE0079C531659141344CD1FD0A4F28419497F9722A3DAAFE3B4186F6B6457E0 SWAP1 PUSH0 SWAP1 LOG3 POP POP JUMP JUMPDEST PUSH0 PUSH1 0x64 PUSH2 0x794 PUSH1 0xC DUP5 PUSH2 0xD3F JUMP JUMPDEST PUSH2 0x79F SWAP1 PUSH1 0x63 PUSH2 0xD75 JUMP JUMPDEST PUSH2 0x7A9 SWAP2 SWAP1 PUSH2 0xD56 JUMP JUMPDEST SWAP1 POP PUSH0 PUSH2 0x7B6 DUP3 DUP5 PUSH2 0xD88 JUMP JUMPDEST SWAP1 POP PUSH0 PUSH1 0xC PUSH2 0x7C6 DUP5 PUSH1 0x4 PUSH2 0xD3F JUMP JUMPDEST PUSH2 0x7D0 SWAP2 SWAP1 PUSH2 0xD56 JUMP JUMPDEST SWAP1 POP PUSH0 PUSH1 0xC PUSH2 0x7E0 DUP6 PUSH1 0x1 PUSH2 0xD3F JUMP JUMPDEST PUSH2 0x7EA SWAP2 SWAP1 PUSH2 0xD56 JUMP JUMPDEST SWAP1 POP PUSH0 PUSH1 0xC PUSH2 0x7FA DUP7 PUSH1 0x4 PUSH2 0xD3F JUMP JUMPDEST PUSH2 0x804 SWAP2 SWAP1 PUSH2 0xD56 JUMP JUMPDEST SWAP1 POP PUSH0 PUSH1 0xC PUSH2 0x814 DUP8 PUSH1 0x3 PUSH2 0xD3F JUMP JUMPDEST PUSH2 0x81E SWAP2 SWAP1 PUSH2 0xD56 JUMP JUMPDEST PUSH1 0x7 SLOAD SWAP1 SWAP2 POP PUSH2 0x839 SWAP1 DUP11 SWAP1 PUSH1 0x1 PUSH1 0x1 PUSH1 0xA0 SHL SUB AND DUP7 PUSH2 0x6AB JUMP JUMPDEST PUSH0 DUP1 MLOAD PUSH1 0x20 PUSH2 0xD9C DUP4 CODECOPY DUP2 MLOAD SWAP2 MSTORE DUP5 PUSH1 0x40 MLOAD PUSH2 0x881 SWAP2 DUP2 MSTORE PUSH1 0x40 PUSH1 0x20 DUP3 ADD DUP2 SWAP1 MSTORE PUSH1 0x12 SWAP1 DUP3 ADD MSTORE PUSH18 0x115B98DBDD5C9859D95B595B9D08119D5B99 PUSH1 0x72 SHL PUSH1 0x60 DUP3 ADD MSTORE PUSH1 0x80 ADD SWAP1 JUMP JUMPDEST PUSH1 0x40 MLOAD DUP1 SWAP2 SUB SWAP1 LOG1 PUSH1 0x8 SLOAD PUSH2 0x8A1 SWAP1 DUP11 SWAP1 PUSH1 0x1 PUSH1 0x1 PUSH1 0xA0 SHL SUB AND DUP6 PUSH2 0x6AB JUMP JUMPDEST PUSH0 DUP1 MLOAD PUSH1 0x20 PUSH2 0xD9C DUP4 CODECOPY DUP2 MLOAD SWAP2 MSTORE DUP4 PUSH1 0x40 MLOAD PUSH2 0x8E5 SWAP2 DUP2 MSTORE PUSH1 0x40 PUSH1 0x20 DUP3 ADD DUP2 SWAP1 MSTORE PUSH1 0xE SWAP1 DUP3 ADD MSTORE PUSH14 0x115B595C99D95B98DE48119D5B99 PUSH1 0x92 SHL PUSH1 0x60 DUP3 ADD MSTORE PUSH1 0x80 ADD SWAP1 JUMP JUMPDEST PUSH1 0x40 MLOAD DUP1 SWAP2 SUB SWAP1 LOG1 PUSH1 0x9 SLOAD PUSH2 0x905 SWAP1 DUP11 SWAP1 PUSH1 0x1 PUSH1 0x1 PUSH1 0xA0 SHL SUB AND DUP5 PUSH2 0x6AB JUMP JUMPDEST PUSH0 DUP1 MLOAD PUSH1 0x20 PUSH2 0xD9C DUP4 CODECOPY DUP2 MLOAD SWAP2 MSTORE DUP3 PUSH1 0x40 MLOAD PUSH2 0x944 SWAP2 DUP2 MSTORE PUSH1 0x40 PUSH1 0x20 DUP3 ADD DUP2 SWAP1 MSTORE PUSH1 0x9 SWAP1 DUP3 ADD MSTORE PUSH9 0x4D61726B6574696E67 PUSH1 0xB8 SHL PUSH1 0x60 DUP3 ADD MSTORE PUSH1 0x80 ADD SWAP1 JUMP JUMPDEST PUSH1 0x40 MLOAD DUP1 SWAP2 SUB SWAP1 LOG1 PUSH1 0xA SLOAD PUSH2 0x964 SWAP1 DUP11 SWAP1 PUSH1 0x1 PUSH1 0x1 PUSH1 0xA0 SHL SUB AND DUP4 PUSH2 0x6AB JUMP JUMPDEST PUSH0 DUP1 MLOAD PUSH1 0x20 PUSH2 0xD9C DUP4 CODECOPY DUP2 MLOAD SWAP2 MSTORE DUP2 PUSH1 0x40 MLOAD PUSH2 0x9A1 SWAP2 DUP2 MSTORE PUSH1 0x40 PUSH1 0x20 DUP3 ADD DUP2 SWAP1 MSTORE PUSH1 0x7 SWAP1 DUP3 ADD MSTORE PUSH7 0x5374616B696E67 PUSH1 0xC8 SHL PUSH1 0x60 DUP3 ADD MSTORE PUSH1 0x80 ADD SWAP1 JUMP JUMPDEST PUSH1 0x40 MLOAD DUP1 SWAP2 SUB SWAP1 LOG1 PUSH2 0x9B4 DUP10 DUP10 DUP8 PUSH2 0x6AB JUMP JUMPDEST POP POP POP POP POP POP POP POP POP JUMP JUMPDEST PUSH1 0x1 PUSH1 0x1 PUSH1 0xA0 SHL SUB DUP5 AND PUSH2 0x9E8 JUMPI PUSH1 0x40 MLOAD PUSH4 0xE602DF05 PUSH1 0xE0 SHL DUP2 MSTORE PUSH0 PUSH1 0x4 DUP3 ADD MSTORE PUSH1 0x24 ADD PUSH2 0x513 JUMP JUMPDEST PUSH1 0x1 PUSH1 0x1 PUSH1 0xA0 SHL SUB DUP4 AND PUSH2 0xA11 JUMPI PUSH1 0x40 MLOAD PUSH4 0x4A1406B1 PUSH1 0xE1 SHL DUP2 MSTORE PUSH0 PUSH1 0x4 DUP3 ADD MSTORE PUSH1 0x24 ADD PUSH2 0x513 JUMP JUMPDEST PUSH1 0x1 PUSH1 0x1 PUSH1 0xA0 SHL SUB DUP1 DUP6 AND PUSH0 SWAP1 DUP2 MSTORE PUSH1 0x1 PUSH1 0x20 SWAP1 DUP2 MSTORE PUSH1 0x40 DUP1 DUP4 KECCAK256 SWAP4 DUP8 AND DUP4 MSTORE SWAP3 SWAP1 MSTORE KECCAK256 DUP3 SWAP1 SSTORE DUP1 ISZERO PUSH2 0x6A5 JUMPI DUP3 PUSH1 0x1 PUSH1 0x1 PUSH1 0xA0 SHL SUB AND DUP5 PUSH1 0x1 PUSH1 0x1 PUSH1 0xA0 SHL SUB AND PUSH32 0x8C5BE1E5EBEC7D5BD14F71427D1E84F3DD0314C0F7B2291E5B200AC8C7C3B925 DUP5 PUSH1 0x40 MLOAD PUSH2 0xA83 SWAP2 DUP2 MSTORE PUSH1 0x20 ADD SWAP1 JUMP JUMPDEST PUSH1 0x40 MLOAD DUP1 SWAP2 SUB SWAP1 LOG3 POP POP POP POP JUMP JUMPDEST PUSH1 0x1 PUSH1 0x1 PUSH1 0xA0 SHL SUB DUP4 AND PUSH2 0xABB JUMPI DUP1 PUSH1 0x2 PUSH0 DUP3 DUP3 SLOAD PUSH2 0xAB0 SWAP2 SWAP1 PUSH2 0xD75 JUMP JUMPDEST SWAP1 SWAP2 SSTORE POP PUSH2 0xB2B SWAP1 POP JUMP JUMPDEST PUSH1 0x1 PUSH1 0x1 PUSH1 0xA0 SHL SUB DUP4 AND PUSH0 SWAP1 DUP2 MSTORE PUSH1 0x20 DUP2 SWAP1 MSTORE PUSH1 0x40 SWAP1 KECCAK256 SLOAD DUP2 DUP2 LT ISZERO PUSH2 0xB0D JUMPI PUSH1 0x40 MLOAD PUSH4 0x391434E3 PUSH1 0xE2 SHL DUP2 MSTORE PUSH1 0x1 PUSH1 0x1 PUSH1 0xA0 SHL SUB DUP6 AND PUSH1 0x4 DUP3 ADD MSTORE PUSH1 0x24 DUP2 ADD DUP3 SWAP1 MSTORE PUSH1 0x44 DUP2 ADD DUP4 SWAP1 MSTORE PUSH1 0x64 ADD PUSH2 0x513 JUMP JUMPDEST PUSH1 0x1 PUSH1 0x1 PUSH1 0xA0 SHL SUB DUP5 AND PUSH0 SWAP1 DUP2 MSTORE PUSH1 0x20 DUP2 SWAP1 MSTORE PUSH1 0x40 SWAP1 KECCAK256 SWAP1 DUP3 SWAP1 SUB SWAP1 SSTORE JUMPDEST PUSH1 0x1 PUSH1 0x1 PUSH1 0xA0 SHL SUB DUP3 AND PUSH2 0xB47 JUMPI PUSH1 0x2 DUP1 SLOAD DUP3 SWAP1 SUB SWAP1 SSTORE PUSH2 0xB65 JUMP JUMPDEST PUSH1 0x1 PUSH1 0x1 PUSH1 0xA0 SHL SUB DUP3 AND PUSH0 SWAP1 DUP2 MSTORE PUSH1 0x20 DUP2 SWAP1 MSTORE PUSH1 0x40 SWAP1 KECCAK256 DUP1 SLOAD DUP3 ADD SWAP1 SSTORE JUMPDEST DUP2 PUSH1 0x1 PUSH1 0x1 PUSH1 0xA0 SHL SUB AND DUP4 PUSH1 0x1 PUSH1 0x1 PUSH1 0xA0 SHL SUB AND PUSH32 0xDDF252AD1BE2C89B69C2B068FC378DAA952BA7F163C4A11628F55A4DF523B3EF DUP4 PUSH1 0x40 MLOAD PUSH2 0xBAA SWAP2 DUP2 MSTORE PUSH1 0x20 ADD SWAP1 JUMP JUMPDEST PUSH1 0x40 MLOAD DUP1 SWAP2 SUB SWAP1 LOG3 POP POP POP JUMP JUMPDEST PUSH1 0x20 DUP2 MSTORE PUSH0 DUP3 MLOAD DUP1 PUSH1 0x20 DUP5 ADD MSTORE DUP1 PUSH1 0x20 DUP6 ADD PUSH1 0x40 DUP6 ADD MCOPY PUSH0 PUSH1 0x40 DUP3 DUP6 ADD ADD MSTORE PUSH1 0x40 PUSH1 0x1F NOT PUSH1 0x1F DUP4 ADD AND DUP5 ADD ADD SWAP2 POP POP SWAP3 SWAP2 POP POP JUMP JUMPDEST DUP1 CALLDATALOAD PUSH1 0x1 PUSH1 0x1 PUSH1 0xA0 SHL SUB DUP2 AND DUP2 EQ PUSH2 0xC02 JUMPI PUSH0 DUP1 REVERT JUMPDEST SWAP2 SWAP1 POP JUMP JUMPDEST PUSH0 DUP1 PUSH1 0x40 DUP4 DUP6 SUB SLT ISZERO PUSH2 0xC18 JUMPI PUSH0 DUP1 REVERT JUMPDEST PUSH2 0xC21 DUP4 PUSH2 0xBEC JUMP JUMPDEST SWAP5 PUSH1 0x20 SWAP4 SWAP1 SWAP4 ADD CALLDATALOAD SWAP4 POP POP POP JUMP JUMPDEST PUSH0 DUP1 PUSH0 PUSH1 0x60 DUP5 DUP7 SUB SLT ISZERO PUSH2 0xC41 JUMPI PUSH0 DUP1 REVERT JUMPDEST PUSH2 0xC4A DUP5 PUSH2 0xBEC JUMP JUMPDEST SWAP3 POP PUSH2 0xC58 PUSH1 0x20 DUP6 ADD PUSH2 0xBEC JUMP JUMPDEST SWAP3 SWAP6 SWAP3 SWAP5 POP POP POP PUSH1 0x40 SWAP2 SWAP1 SWAP2 ADD CALLDATALOAD SWAP1 JUMP JUMPDEST PUSH0 PUSH1 0x20 DUP3 DUP5 SUB SLT ISZERO PUSH2 0xC79 JUMPI PUSH0 DUP1 REVERT JUMPDEST PUSH2 0xC82 DUP3 PUSH2 0xBEC JUMP JUMPDEST SWAP4 SWAP3 POP POP POP JUMP JUMPDEST PUSH0 DUP1 PUSH1 0x40 DUP4 DUP6 SUB SLT ISZERO PUSH2 0xC9A JUMPI PUSH0 DUP1 REVERT JUMPDEST PUSH2 0xCA3 DUP4 PUSH2 0xBEC JUMP JUMPDEST SWAP2 POP PUSH1 0x20 DUP4 ADD CALLDATALOAD DUP1 ISZERO ISZERO DUP2 EQ PUSH2 0xCB7 JUMPI PUSH0 DUP1 REVERT JUMPDEST DUP1 SWAP2 POP POP SWAP3 POP SWAP3 SWAP1 POP JUMP JUMPDEST PUSH0 DUP1 PUSH1 0x40 DUP4 DUP6 SUB SLT ISZERO PUSH2 0xCD3 JUMPI PUSH0 DUP1 REVERT JUMPDEST PUSH2 0xCDC DUP4 PUSH2 0xBEC JUMP JUMPDEST SWAP2 POP PUSH2 0xCEA PUSH1 0x20 DUP5 ADD PUSH2 0xBEC JUMP JUMPDEST SWAP1 POP SWAP3 POP SWAP3 SWAP1 POP JUMP JUMPDEST PUSH1 0x1 DUP2 DUP2 SHR SWAP1 DUP3 AND DUP1 PUSH2 0xD07 JUMPI PUSH1 0x7F DUP3 AND SWAP2 POP JUMPDEST PUSH1 0x20 DUP3 LT DUP2 SUB PUSH2 0xD25 JUMPI PUSH4 0x4E487B71 PUSH1 0xE0 SHL PUSH0 MSTORE PUSH1 0x22 PUSH1 0x4 MSTORE PUSH1 0x24 PUSH0 REVERT JUMPDEST POP SWAP2 SWAP1 POP JUMP JUMPDEST PUSH4 0x4E487B71 PUSH1 0xE0 SHL PUSH0 MSTORE PUSH1 0x11 PUSH1 0x4 MSTORE PUSH1 0x24 PUSH0 REVERT JUMPDEST DUP1 DUP3 MUL DUP2 ISZERO DUP3 DUP3 DIV DUP5 EQ OR PUSH2 0x3EB JUMPI PUSH2 0x3EB PUSH2 0xD2B JUMP JUMPDEST PUSH0 DUP3 PUSH2 0xD70 JUMPI PUSH4 0x4E487B71 PUSH1 0xE0 SHL PUSH0 MSTORE PUSH1 0x12 PUSH1 0x4 MSTORE PUSH1 0x24 PUSH0 REVERT JUMPDEST POP DIV SWAP1 JUMP JUMPDEST DUP1 DUP3 ADD DUP1 DUP3 GT ISZERO PUSH2 0x3EB JUMPI PUSH2 0x3EB PUSH2 0xD2B JUMP JUMPDEST DUP2 DUP2 SUB DUP2 DUP2 GT ISZERO PUSH2 0x3EB JUMPI PUSH2 0x3EB PUSH2 0xD2B JUMP INVALID PUSH15 0x232B0ACF46272DACF889AF67675747 PUSH22 0xA324B133D42B3B8CFFA9CD13159984A2646970667358 0x22 SLT KECCAK256 0xF6 PC OR RETURNDATACOPY BLOBHASH PUSH7 0x3E15CF0608404D SWAP10 0xC9 0xE PUSH19 0xF6988E4D61E85EFB8F463E01A6827C64736F6C PUSH4 0x4300081A STOP CALLER "
				},
				"gasEstimates": {
					"creation": {
						"codeDepositCost": "713800",
						"executionCost": "infinite",
						"totalCost": "infinite"
					},
					"external": {
						"BUY_TAX()": "207",
						"INITIAL_SUPPLY()": "206",
						"MAX_TX()": "477",
						"MAX_WALLET()": "433",
						"SELL_TAX()": "316",
						"SLIPPAGE()": "250",
						"allowance(address,address)": "infinite",
						"approve(address,uint256)": "24802",
						"balanceOf(address)": "2549",
						"decimals()": "221",
						"emergencyFund()": "2380",
						"encouragementFund()": "2447",
						"isExcludedFromFees(address)": "2617",
						"marketingWallet()": "2425",
						"name()": "infinite",
						"owner()": "2441",
						"renounceOwnership()": "infinite",
						"stakingWallet()": "2382",
						"symbol()": "infinite",
						"totalSupply()": "2392",
						"transfer(address,uint256)": "infinite",
						"transferFrom(address,address,uint256)": "infinite",
						"transferOwnership(address)": "28443",
						"updateExcludedAccountStatus(address,bool)": "26922"
					},
					"internal": {
						"_transferWithTaxes(address,address,uint256)": "infinite"
					}
				},
				"methodIdentifiers": {
					"BUY_TAX()": "02af37bb",
					"INITIAL_SUPPLY()": "2ff2e9dc",
					"MAX_TX()": "f3b2db3f",
					"MAX_WALLET()": "df7787a4",
					"SELL_TAX()": "54ad8aee",
					"SLIPPAGE()": "36b4134a",
					"allowance(address,address)": "dd62ed3e",
					"approve(address,uint256)": "095ea7b3",
					"balanceOf(address)": "70a08231",
					"decimals()": "313ce567",
					"emergencyFund()": "cc859378",
					"encouragementFund()": "52a6a9ec",
					"isExcludedFromFees(address)": "4fbee193",
					"marketingWallet()": "75f0a874",
					"name()": "06fdde03",
					"owner()": "8da5cb5b",
					"renounceOwnership()": "715018a6",
					"stakingWallet()": "06ee6ad8",
					"symbol()": "95d89b41",
					"totalSupply()": "18160ddd",
					"transfer(address,uint256)": "a9059cbb",
					"transferFrom(address,address,uint256)": "23b872dd",
					"transferOwnership(address)": "f2fde38b",
					"updateExcludedAccountStatus(address,bool)": "753cafc3"
				}
			},
			"storageLayout": {
				"storage": [
					{
						"astId": 372,
						"contract": "indentity_test_2.sol:XEAMToken",
						"label": "_balances",
						"offset": 0,
						"slot": "0",
						"type": "t_mapping(t_address,t_uint256)"
					},
					{
						"astId": 378,
						"contract": "indentity_test_2.sol:XEAMToken",
						"label": "_allowances",
						"offset": 0,
						"slot": "1",
						"type": "t_mapping(t_address,t_mapping(t_address,t_uint256))"
					},
					{
						"astId": 380,
						"contract": "indentity_test_2.sol:XEAMToken",
						"label": "_totalSupply",
						"offset": 0,
						"slot": "2",
						"type": "t_uint256"
					},
					{
						"astId": 382,
						"contract": "indentity_test_2.sol:XEAMToken",
						"label": "_name",
						"offset": 0,
						"slot": "3",
						"type": "t_string_storage"
					},
					{
						"astId": 384,
						"contract": "indentity_test_2.sol:XEAMToken",
						"label": "_symbol",
						"offset": 0,
						"slot": "4",
						"type": "t_string_storage"
					},
					{
						"astId": 8,
						"contract": "indentity_test_2.sol:XEAMToken",
						"label": "_owner",
						"offset": 0,
						"slot": "5",
						"type": "t_address"
					},
					{
						"astId": 295,
						"contract": "indentity_test_2.sol:XEAMToken",
						"label": "_status",
						"offset": 0,
						"slot": "6",
						"type": "t_uint256"
					},
					{
						"astId": 1034,
						"contract": "indentity_test_2.sol:XEAMToken",
						"label": "encouragementFund",
						"offset": 0,
						"slot": "7",
						"type": "t_address"
					},
					{
						"astId": 1036,
						"contract": "indentity_test_2.sol:XEAMToken",
						"label": "emergencyFund",
						"offset": 0,
						"slot": "8",
						"type": "t_address"
					},
					{
						"astId": 1038,
						"contract": "indentity_test_2.sol:XEAMToken",
						"label": "marketingWallet",
						"offset": 0,
						"slot": "9",
						"type": "t_address"
					},
					{
						"astId": 1040,
						"contract": "indentity_test_2.sol:XEAMToken",
						"label": "stakingWallet",
						"offset": 0,
						"slot": "10",
						"type": "t_address"
					},
					{
						"astId": 1053,
						"contract": "indentity_test_2.sol:XEAMToken",
						"label": "isExcludedFromFees",
						"offset": 0,
						"slot": "11",
						"type": "t_mapping(t_address,t_bool)"
					}
				],
				"types": {
					"t_address": {
						"encoding": "inplace",
						"label": "address",
						"numberOfBytes": "20"
					},
					"t_bool": {
						"encoding": "inplace",
						"label": "bool",
						"numberOfBytes": "1"
					},
					"t_mapping(t_address,t_bool)": {
						"encoding": "mapping",
						"key": "t_address",
						"label": "mapping(address => bool)",
						"numberOfBytes": "32",
						"value": "t_bool"
					},
					"t_mapping(t_address,t_mapping(t_address,t_uint256))": {
						"encoding": "mapping",
						"key": "t_address",
						"label": "mapping(address => mapping(address => uint256))",
						"numberOfBytes": "32",
						"value": "t_mapping(t_address,t_uint256)"
					},
					"t_mapping(t_address,t_uint256)": {
						"encoding": "mapping",
						"key": "t_address",
						"label": "mapping(address => uint256)",
						"numberOfBytes": "32",
						"value": "t_uint256"
					},
					"t_string_storage": {
						"encoding": "bytes",
						"label": "string",
						"numberOfBytes": "32"
					},
					"t_uint256": {
						"encoding": "inplace",
						"label": "uint256",
						"numberOfBytes": "32"
					}
				}
			},
			"userdoc": {
				"kind": "user",
				"methods": {},
				"version": 1
			}
		}
	}
}