{
	"xeam_test_contract_1.sol": {
		"XEAMToken": {
			"abi": [
				{
					"inputs": [
						{
							"internalType": "address",
							"name": "_encouragementFund",
							"type": "address"
						},
						{
							"internalType": "address",
							"name": "_emergencyFund",
							"type": "address"
						},
						{
							"internalType": "address",
							"name": "_marketingWallet",
							"type": "address"
						},
						{
							"internalType": "address",
							"name": "_stakingWallet",
							"type": "address"
						},
						{
							"internalType": "address",
							"name": "_initialUniswapPair",
							"type": "address"
						}
					],
					"stateMutability": "nonpayable",
					"type": "constructor"
				},
				{
					"inputs": [
						{
							"internalType": "address",
							"name": "spender",
							"type": "address"
						},
						{
							"internalType": "uint256",
							"name": "allowance",
							"type": "uint256"
						},
						{
							"internalType": "uint256",
							"name": "needed",
							"type": "uint256"
						}
					],
					"name": "ERC20InsufficientAllowance",
					"type": "error"
				},
				{
					"inputs": [
						{
							"internalType": "address",
							"name": "sender",
							"type": "address"
						},
						{
							"internalType": "uint256",
							"name": "balance",
							"type": "uint256"
						},
						{
							"internalType": "uint256",
							"name": "needed",
							"type": "uint256"
						}
					],
					"name": "ERC20InsufficientBalance",
					"type": "error"
				},
				{
					"inputs": [
						{
							"internalType": "address",
							"name": "approver",
							"type": "address"
						}
					],
					"name": "ERC20InvalidApprover",
					"type": "error"
				},
				{
					"inputs": [
						{
							"internalType": "address",
							"name": "receiver",
							"type": "address"
						}
					],
					"name": "ERC20InvalidReceiver",
					"type": "error"
				},
				{
					"inputs": [
						{
							"internalType": "address",
							"name": "sender",
							"type": "address"
						}
					],
					"name": "ERC20InvalidSender",
					"type": "error"
				},
				{
					"inputs": [
						{
							"internalType": "address",
							"name": "spender",
							"type": "address"
						}
					],
					"name": "ERC20InvalidSpender",
					"type": "error"
				},
				{
					"inputs": [
						{
							"internalType": "address",
							"name": "owner",
							"type": "address"
						}
					],
					"name": "OwnableInvalidOwner",
					"type": "error"
				},
				{
					"inputs": [
						{
							"internalType": "address",
							"name": "account",
							"type": "address"
						}
					],
					"name": "OwnableUnauthorizedAccount",
					"type": "error"
				},
				{
					"anonymous": false,
					"inputs": [
						{
							"indexed": true,
							"internalType": "address",
							"name": "owner",
							"type": "address"
						},
						{
							"indexed": true,
							"internalType": "address",
							"name": "spender",
							"type": "address"
						},
						{
							"indexed": false,
							"internalType": "uint256",
							"name": "value",
							"type": "uint256"
						}
					],
					"name": "Approval",
					"type": "event"
				},
				{
					"anonymous": false,
					"inputs": [
						{
							"indexed": false,
							"internalType": "uint256",
							"name": "amount",
							"type": "uint256"
						}
					],
					"name": "LPFundsWithdrawn",
					"type": "event"
				},
				{
					"anonymous": false,
					"inputs": [
						{
							"indexed": true,
							"internalType": "address",
							"name": "previousOwner",
							"type": "address"
						},
						{
							"indexed": true,
							"internalType": "address",
							"name": "newOwner",
							"type": "address"
						}
					],
					"name": "OwnershipTransferred",
					"type": "event"
				},
				{
					"anonymous": false,
					"inputs": [
						{
							"indexed": false,
							"internalType": "address",
							"name": "account",
							"type": "address"
						}
					],
					"name": "Paused",
					"type": "event"
				},
				{
					"anonymous": false,
					"inputs": [
						{
							"indexed": false,
							"internalType": "uint256",
							"name": "amount",
							"type": "uint256"
						},
						{
							"indexed": false,
							"internalType": "string",
							"name": "category",
							"type": "string"
						}
					],
					"name": "TaxDistributed",
					"type": "event"
				},
				{
					"anonymous": false,
					"inputs": [
						{
							"indexed": false,
							"internalType": "uint256",
							"name": "newBuyTax",
							"type": "uint256"
						},
						{
							"indexed": false,
							"internalType": "uint256",
							"name": "newSellTax",
							"type": "uint256"
						}
					],
					"name": "TaxesUpdated",
					"type": "event"
				},
				{
					"anonymous": false,
					"inputs": [
						{
							"indexed": true,
							"internalType": "address",
							"name": "from",
							"type": "address"
						},
						{
							"indexed": true,
							"internalType": "address",
							"name": "to",
							"type": "address"
						},
						{
							"indexed": false,
							"internalType": "uint256",
							"name": "value",
							"type": "uint256"
						}
					],
					"name": "Transfer",
					"type": "event"
				},
				{
					"anonymous": false,
					"inputs": [
						{
							"indexed": false,
							"internalType": "address",
							"name": "newPair",
							"type": "address"
						}
					],
					"name": "UniswapPairUpdated",
					"type": "event"
				},
				{
					"anonymous": false,
					"inputs": [
						{
							"indexed": false,
							"internalType": "address",
							"name": "account",
							"type": "address"
						}
					],
					"name": "Unpaused",
					"type": "event"
				},
				{
					"inputs": [],
					"name": "INITIAL_SUPPLY",
					"outputs": [
						{
							"internalType": "uint256",
							"name": "",
							"type": "uint256"
						}
					],
					"stateMutability": "view",
					"type": "function"
				},
				{
					"inputs": [],
					"name": "MAX_TX",
					"outputs": [
						{
							"internalType": "uint256",
							"name": "",
							"type": "uint256"
						}
					],
					"stateMutability": "view",
					"type": "function"
				},
				{
					"inputs": [],
					"name": "MAX_WALLET",
					"outputs": [
						{
							"internalType": "uint256",
							"name": "",
							"type": "uint256"
						}
					],
					"stateMutability": "view",
					"type": "function"
				},
				{
					"inputs": [
						{
							"internalType": "address",
							"name": "owner",
							"type": "address"
						},
						{
							"internalType": "address",
							"name": "spender",
							"type": "address"
						}
					],
					"name": "allowance",
					"outputs": [
						{
							"internalType": "uint256",
							"name": "",
							"type": "uint256"
						}
					],
					"stateMutability": "view",
					"type": "function"
				},
				{
					"inputs": [
						{
							"internalType": "address",
							"name": "spender",
							"type": "address"
						},
						{
							"internalType": "uint256",
							"name": "value",
							"type": "uint256"
						}
					],
					"name": "approve",
					"outputs": [
						{
							"internalType": "bool",
							"name": "",
							"type": "bool"
						}
					],
					"stateMutability": "nonpayable",
					"type": "function"
				},
				{
					"inputs": [
						{
							"internalType": "address",
							"name": "account",
							"type": "address"
						}
					],
					"name": "balanceOf",
					"outputs": [
						{
							"internalType": "uint256",
							"name": "",
							"type": "uint256"
						}
					],
					"stateMutability": "view",
					"type": "function"
				},
				{
					"inputs": [],
					"name": "buyTax",
					"outputs": [
						{
							"internalType": "uint256",
							"name": "",
							"type": "uint256"
						}
					],
					"stateMutability": "view",
					"type": "function"
				},
				{
					"inputs": [],
					"name": "decimals",
					"outputs": [
						{
							"internalType": "uint8",
							"name": "",
							"type": "uint8"
						}
					],
					"stateMutability": "view",
					"type": "function"
				},
				{
					"inputs": [],
					"name": "emergencyFund",
					"outputs": [
						{
							"internalType": "address",
							"name": "",
							"type": "address"
						}
					],
					"stateMutability": "view",
					"type": "function"
				},
				{
					"inputs": [],
					"name": "encouragementFund",
					"outputs": [
						{
							"internalType": "address",
							"name": "",
							"type": "address"
						}
					],
					"stateMutability": "view",
					"type": "function"
				},
				{
					"inputs": [
						{
							"internalType": "address",
							"name": "",
							"type": "address"
						}
					],
					"name": "isExcludedFromFees",
					"outputs": [
						{
							"internalType": "bool",
							"name": "",
							"type": "bool"
						}
					],
					"stateMutability": "view",
					"type": "function"
				},
				{
					"inputs": [],
					"name": "marketingWallet",
					"outputs": [
						{
							"internalType": "address",
							"name": "",
							"type": "address"
						}
					],
					"stateMutability": "view",
					"type": "function"
				},
				{
					"inputs": [],
					"name": "name",
					"outputs": [
						{
							"internalType": "string",
							"name": "",
							"type": "string"
						}
					],
					"stateMutability": "view",
					"type": "function"
				},
				{
					"inputs": [],
					"name": "owner",
					"outputs": [
						{
							"internalType": "address",
							"name": "",
							"type": "address"
						}
					],
					"stateMutability": "view",
					"type": "function"
				},
				{
					"inputs": [],
					"name": "pause",
					"outputs": [],
					"stateMutability": "nonpayable",
					"type": "function"
				},
				{
					"inputs": [],
					"name": "paused",
					"outputs": [
						{
							"internalType": "bool",
							"name": "",
							"type": "bool"
						}
					],
					"stateMutability": "view",
					"type": "function"
				},
				{
					"inputs": [],
					"name": "renounceOwnership",
					"outputs": [],
					"stateMutability": "nonpayable",
					"type": "function"
				},
				{
					"inputs": [],
					"name": "sellTax",
					"outputs": [
						{
							"internalType": "uint256",
							"name": "",
							"type": "uint256"
						}
					],
					"stateMutability": "view",
					"type": "function"
				},
				{
					"inputs": [],
					"name": "stakingWallet",
					"outputs": [
						{
							"internalType": "address",
							"name": "",
							"type": "address"
						}
					],
					"stateMutability": "view",
					"type": "function"
				},
				{
					"inputs": [],
					"name": "symbol",
					"outputs": [
						{
							"internalType": "string",
							"name": "",
							"type": "string"
						}
					],
					"stateMutability": "view",
					"type": "function"
				},
				{
					"inputs": [],
					"name": "totalSupply",
					"outputs": [
						{
							"internalType": "uint256",
							"name": "",
							"type": "uint256"
						}
					],
					"stateMutability": "view",
					"type": "function"
				},
				{
					"inputs": [
						{
							"internalType": "address",
							"name": "recipient",
							"type": "address"
						},
						{
							"internalType": "uint256",
							"name": "amount",
							"type": "uint256"
						}
					],
					"name": "transfer",
					"outputs": [
						{
							"internalType": "bool",
							"name": "",
							"type": "bool"
						}
					],
					"stateMutability": "nonpayable",
					"type": "function"
				},
				{
					"inputs": [
						{
							"internalType": "address",
							"name": "sender",
							"type": "address"
						},
						{
							"internalType": "address",
							"name": "recipient",
							"type": "address"
						},
						{
							"internalType": "uint256",
							"name": "amount",
							"type": "uint256"
						}
					],
					"name": "transferFrom",
					"outputs": [
						{
							"internalType": "bool",
							"name": "",
							"type": "bool"
						}
					],
					"stateMutability": "nonpayable",
					"type": "function"
				},
				{
					"inputs": [
						{
							"internalType": "address",
							"name": "newOwner",
							"type": "address"
						}
					],
					"name": "transferOwnership",
					"outputs": [],
					"stateMutability": "nonpayable",
					"type": "function"
				},
				{
					"inputs": [],
					"name": "uniswapPair",
					"outputs": [
						{
							"internalType": "address",
							"name": "",
							"type": "address"
						}
					],
					"stateMutability": "view",
					"type": "function"
				},
				{
					"inputs": [],
					"name": "unpause",
					"outputs": [],
					"stateMutability": "nonpayable",
					"type": "function"
				},
				{
					"inputs": [
						{
							"internalType": "address",
							"name": "account",
							"type": "address"
						},
						{
							"internalType": "bool",
							"name": "excluded",
							"type": "bool"
						}
					],
					"name": "updateExcludedAccountStatus",
					"outputs": [],
					"stateMutability": "nonpayable",
					"type": "function"
				},
				{
					"inputs": [
						{
							"internalType": "uint256",
							"name": "_buyTax",
							"type": "uint256"
						},
						{
							"internalType": "uint256",
							"name": "_sellTax",
							"type": "uint256"
						}
					],
					"name": "updateTaxes",
					"outputs": [],
					"stateMutability": "nonpayable",
					"type": "function"
				},
				{
					"inputs": [
						{
							"internalType": "address",
							"name": "newPair",
							"type": "address"
						}
					],
					"name": "updateUniswapPair",
					"outputs": [],
					"stateMutability": "nonpayable",
					"type": "function"
				},
				{
					"inputs": [],
					"name": "withdrawLPFunds",
					"outputs": [],
					"stateMutability": "nonpayable",
					"type": "function"
				}
			],
			"devdoc": {
				"errors": {
					"ERC20InsufficientAllowance(address,uint256,uint256)": [
						{
							"details": "Indicates a failure with the `spender`’s `allowance`. Used in transfers.",
							"params": {
								"allowance": "Amount of tokens a `spender` is allowed to operate with.",
								"needed": "Minimum amount required to perform a transfer.",
								"spender": "Address that may be allowed to operate on tokens without being their owner."
							}
						}
					],
					"ERC20InsufficientBalance(address,uint256,uint256)": [
						{
							"details": "Indicates an error related to the current `balance` of a `sender`. Used in transfers.",
							"params": {
								"balance": "Current balance for the interacting account.",
								"needed": "Minimum amount required to perform a transfer.",
								"sender": "Address whose tokens are being transferred."
							}
						}
					],
					"ERC20InvalidApprover(address)": [
						{
							"details": "Indicates a failure with the `approver` of a token to be approved. Used in approvals.",
							"params": {
								"approver": "Address initiating an approval operation."
							}
						}
					],
					"ERC20InvalidReceiver(address)": [
						{
							"details": "Indicates a failure with the token `receiver`. Used in transfers.",
							"params": {
								"receiver": "Address to which tokens are being transferred."
							}
						}
					],
					"ERC20InvalidSender(address)": [
						{
							"details": "Indicates a failure with the token `sender`. Used in transfers.",
							"params": {
								"sender": "Address whose tokens are being transferred."
							}
						}
					],
					"ERC20InvalidSpender(address)": [
						{
							"details": "Indicates a failure with the `spender` to be approved. Used in approvals.",
							"params": {
								"spender": "Address that may be allowed to operate on tokens without being their owner."
							}
						}
					],
					"OwnableInvalidOwner(address)": [
						{
							"details": "The owner is not a valid owner account. (eg. `address(0)`)"
						}
					],
					"OwnableUnauthorizedAccount(address)": [
						{
							"details": "The caller account is not authorized to perform an operation."
						}
					]
				},
				"events": {
					"Approval(address,address,uint256)": {
						"details": "Emitted when the allowance of a `spender` for an `owner` is set by a call to {approve}. `value` is the new allowance."
					},
					"Paused(address)": {
						"details": "Emitted when the pause is triggered by `account`."
					},
					"Transfer(address,address,uint256)": {
						"details": "Emitted when `value` tokens are moved from one account (`from`) to another (`to`). Note that `value` may be zero."
					},
					"Unpaused(address)": {
						"details": "Emitted when the pause is lifted by `account`."
					}
				},
				"kind": "dev",
				"methods": {
					"allowance(address,address)": {
						"details": "See {IERC20-allowance}."
					},
					"approve(address,uint256)": {
						"details": "See {IERC20-approve}. NOTE: If `value` is the maximum `uint256`, the allowance is not updated on `transferFrom`. This is semantically equivalent to an infinite approval. Requirements: - `spender` cannot be the zero address."
					},
					"balanceOf(address)": {
						"details": "See {IERC20-balanceOf}."
					},
					"decimals()": {
						"details": "Returns the number of decimals used to get its user representation. For example, if `decimals` equals `2`, a balance of `505` tokens should be displayed to a user as `5.05` (`505 / 10 ** 2`). Tokens usually opt for a value of 18, imitating the relationship between Ether and Wei. This is the default value returned by this function, unless it's overridden. NOTE: This information is only used for _display_ purposes: it in no way affects any of the arithmetic of the contract, including {IERC20-balanceOf} and {IERC20-transfer}."
					},
					"name()": {
						"details": "Returns the name of the token."
					},
					"owner()": {
						"details": "Returns the address of the current owner."
					},
					"paused()": {
						"details": "Returns true if the contract is paused, and false otherwise."
					},
					"renounceOwnership()": {
						"details": "Leaves the contract without owner. It will not be possible to call `onlyOwner` functions. Can only be called by the current owner. NOTE: Renouncing ownership will leave the contract without an owner, thereby disabling any functionality that is only available to the owner."
					},
					"symbol()": {
						"details": "Returns the symbol of the token, usually a shorter version of the name."
					},
					"totalSupply()": {
						"details": "See {IERC20-totalSupply}."
					},
					"transferOwnership(address)": {
						"details": "Transfers ownership of the contract to a new account (`newOwner`). Can only be called by the current owner."
					}
				},
				"version": 1
			},
			"evm": {
				"assembly": "    /* \"xeam_test_contract_1.sol\":295:4948  contract XEAMToken is ERC20, Ownable, ReentrancyGuard, Pausable {... */\n  mstore(0x40, 0x80)\n    /* \"xeam_test_contract_1.sol\":792:794  10 */\n  0x0a\n    /* \"xeam_test_contract_1.sol\":768:794  uint256 public buyTax = 10 */\n  0x0c\n  sstore\n    /* \"xeam_test_contract_1.sol\":826:828  12 */\n  0x0c\n    /* \"xeam_test_contract_1.sol\":801:828  uint256 public sellTax = 12 */\n  0x0d\n  sstore\n    /* \"xeam_test_contract_1.sol\":1115:1680  constructor(... */\n  callvalue\n  dup1\n  iszero\n  tag_1\n  jumpi\n  0x00\n  dup1\n  revert\ntag_1:\n  pop\n  mload(0x40)\n  sub(codesize, bytecodeSize)\n  dup1\n  bytecodeSize\n  dup4\n  codecopy\n  dup2\n  add\n  0x40\n  dup2\n  swap1\n  mstore\n  tag_2\n  swap2\n  tag_3\n  jump\t// in\ntag_2:\n    /* \"xeam_test_contract_1.sol\":1346:1356  msg.sender */\n  caller\n    /* \"@openzeppelin/contracts/token/ERC20/ERC20.sol\":1601:1714  constructor(string memory name_, string memory symbol_) {... */\n  mload(0x40)\n  dup1\n  0x40\n  add\n  0x40\n  mstore\n  dup1\n  0x0a\n  dup2\n  mstore\n  0x20\n  add\n  shl(0xb1, 0x2c22a0a6902a37b5b2b7)\n  dup2\n  mstore\n  pop\n  mload(0x40)\n  dup1\n  0x40\n  add\n  0x40\n  mstore\n  dup1\n  0x04\n  dup2\n  mstore\n  0x20\n  add\n  shl(0xe0, 0x5845414d)\n  dup2\n  mstore\n  pop\n    /* \"@openzeppelin/contracts/token/ERC20/ERC20.sol\":1675:1680  name_ */\n  dup2\n    /* \"@openzeppelin/contracts/token/ERC20/ERC20.sol\":1667:1672  _name */\n  0x03\n    /* \"@openzeppelin/contracts/token/ERC20/ERC20.sol\":1667:1680  _name = name_ */\n  swap1\n  dup2\n  tag_10\n  swap2\n  swap1\n  tag_11\n  jump\t// in\ntag_10:\n  pop\n    /* \"@openzeppelin/contracts/token/ERC20/ERC20.sol\":1690:1697  _symbol */\n  0x04\n    /* \"@openzeppelin/contracts/token/ERC20/ERC20.sol\":1690:1707  _symbol = symbol_ */\n  tag_12\n    /* \"@openzeppelin/contracts/token/ERC20/ERC20.sol\":1700:1707  symbol_ */\n  dup3\n    /* \"@openzeppelin/contracts/token/ERC20/ERC20.sol\":1690:1697  _symbol */\n  dup3\n    /* \"@openzeppelin/contracts/token/ERC20/ERC20.sol\":1690:1707  _symbol = symbol_ */\n  tag_11\n  jump\t// in\ntag_12:\n  pop\n  pop\n  pop\n  sub(shl(0xa0, 0x01), 0x01)\n    /* \"@openzeppelin/contracts/access/Ownable.sol\":1273:1299  initialOwner == address(0) */\n  dup2\n  and\n    /* \"@openzeppelin/contracts/access/Ownable.sol\":1269:1364  if (initialOwner == address(0)) {... */\n  tag_14\n  jumpi\n    /* \"@openzeppelin/contracts/access/Ownable.sol\":1322:1353  OwnableInvalidOwner(address(0)) */\n  mload(0x40)\n  shl(0xe0, 0x1e4fbdf7)\n  dup2\n  mstore\n    /* \"@openzeppelin/contracts/access/Ownable.sol\":1350:1351  0 */\n  0x00\n    /* \"@openzeppelin/contracts/access/Ownable.sol\":1322:1353  OwnableInvalidOwner(address(0)) */\n  0x04\n  dup3\n  add\n    /* \"#utility.yul\":3538:3589   */\n  mstore\n    /* \"#utility.yul\":3511:3529   */\n  0x24\n  add\n    /* \"@openzeppelin/contracts/access/Ownable.sol\":1322:1353  OwnableInvalidOwner(address(0)) */\ntag_15:\n  mload(0x40)\n  dup1\n  swap2\n  sub\n  swap1\n  revert\n    /* \"@openzeppelin/contracts/access/Ownable.sol\":1269:1364  if (initialOwner == address(0)) {... */\ntag_14:\n    /* \"@openzeppelin/contracts/access/Ownable.sol\":1373:1405  _transferOwnership(initialOwner) */\n  tag_17\n    /* \"@openzeppelin/contracts/access/Ownable.sol\":1392:1404  initialOwner */\n  dup2\n    /* \"@openzeppelin/contracts/access/Ownable.sol\":1373:1391  _transferOwnership */\n  tag_18\n    /* \"@openzeppelin/contracts/access/Ownable.sol\":1373:1405  _transferOwnership(initialOwner) */\n  jump\t// in\ntag_17:\n  pop\n    /* \"@openzeppelin/contracts/security/ReentrancyGuard.sol\":1716:1717  1 */\n  0x01\n    /* \"@openzeppelin/contracts/security/ReentrancyGuard.sol\":1821:1828  _status */\n  0x06\n    /* \"@openzeppelin/contracts/security/ReentrancyGuard.sol\":1821:1843  _status = _NOT_ENTERED */\n  sstore\n    /* \"@openzeppelin/contracts/security/Pausable.sol\":996:1003  _paused */\n  0x07\n    /* \"@openzeppelin/contracts/security/Pausable.sol\":996:1011  _paused = false */\n  dup1\n  sload\n  not(sub(shl(0xa8, 0x01), 0x01))\n    /* \"xeam_test_contract_1.sol\":1369:1407  encouragementFund = _encouragementFund */\n  and\n    /* \"@openzeppelin/contracts/security/Pausable.sol\":996:1011  _paused = false */\n  0x0100\n  sub(shl(0xa0, 0x01), 0x01)\n    /* \"xeam_test_contract_1.sol\":1369:1407  encouragementFund = _encouragementFund */\n  dup9\n  dup2\n  and\n  swap2\n  swap1\n  swap2\n  mul\n  swap2\n  swap1\n  swap2\n  or\n  swap1\n  swap2\n  sstore\n    /* \"xeam_test_contract_1.sol\":1418:1431  emergencyFund */\n  0x08\n    /* \"xeam_test_contract_1.sol\":1418:1448  emergencyFund = _emergencyFund */\n  dup1\n  sload\n  not(sub(shl(0xa0, 0x01), 0x01))\n  swap1\n  dup2\n  and\n  dup8\n  dup5\n  and\n  or\n  swap1\n  swap2\n  sstore\n    /* \"xeam_test_contract_1.sol\":1459:1474  marketingWallet */\n  0x09\n    /* \"xeam_test_contract_1.sol\":1459:1493  marketingWallet = _marketingWallet */\n  dup1\n  sload\n  dup3\n  and\n  dup7\n  dup5\n  and\n  or\n  swap1\n  sstore\n    /* \"xeam_test_contract_1.sol\":1504:1517  stakingWallet */\n  0x0a\n    /* \"xeam_test_contract_1.sol\":1504:1534  stakingWallet = _stakingWallet */\n  dup1\n  sload\n  dup3\n  and\n  dup6\n  dup5\n  and\n  or\n  swap1\n  sstore\n    /* \"xeam_test_contract_1.sol\":1545:1556  uniswapPair */\n  0x0b\n    /* \"xeam_test_contract_1.sol\":1545:1578  uniswapPair = _initialUniswapPair */\n  dup1\n  sload\n  swap1\n  swap2\n  and\n  swap2\n  dup4\n  and\n  swap2\n  swap1\n  swap2\n  or\n  swap1\n  sstore\n    /* \"xeam_test_contract_1.sol\":1591:1624  _mint(msg.sender, INITIAL_SUPPLY) */\n  tag_22\n    /* \"xeam_test_contract_1.sol\":1597:1607  msg.sender */\n  caller\n    /* \"xeam_test_contract_1.sol\":407:425  2_000_000 * 10**18 */\n  0x01a784379d99db42000000\n    /* \"xeam_test_contract_1.sol\":1591:1596  _mint */\n  tag_23\n    /* \"xeam_test_contract_1.sol\":1591:1624  _mint(msg.sender, INITIAL_SUPPLY) */\n  jump\t// in\ntag_22:\n  pop\n  pop\n    /* \"xeam_test_contract_1.sol\":1654:1664  msg.sender */\n  caller\n    /* \"xeam_test_contract_1.sol\":1635:1665  isExcludedFromFees[msg.sender] */\n  0x00\n  swap1\n  dup2\n  mstore\n    /* \"xeam_test_contract_1.sol\":1635:1653  isExcludedFromFees */\n  0x0e\n    /* \"xeam_test_contract_1.sol\":1635:1665  isExcludedFromFees[msg.sender] */\n  0x20\n  mstore\n  0x40\n  swap1\n  keccak256\n    /* \"xeam_test_contract_1.sol\":1635:1672  isExcludedFromFees[msg.sender] = true */\n  dup1\n  sload\n  not(0xff)\n  and\n    /* \"xeam_test_contract_1.sol\":1668:1672  true */\n  0x01\n    /* \"xeam_test_contract_1.sol\":1635:1672  isExcludedFromFees[msg.sender] = true */\n  or\n  swap1\n  sstore\n  pop\n    /* \"xeam_test_contract_1.sol\":295:4948  contract XEAMToken is ERC20, Ownable, ReentrancyGuard, Pausable {... */\n  tag_49\n  swap2\n  pop\n  pop\n  jump\n    /* \"@openzeppelin/contracts/access/Ownable.sol\":2912:3099  function _transferOwnership(address newOwner) internal virtual {... */\ntag_18:\n    /* \"@openzeppelin/contracts/access/Ownable.sol\":3004:3010  _owner */\n  0x05\n  dup1\n  sload\n  sub(shl(0xa0, 0x01), 0x01)\n    /* \"@openzeppelin/contracts/access/Ownable.sol\":3020:3037  _owner = newOwner */\n  dup4\n  dup2\n  and\n  not(sub(shl(0xa0, 0x01), 0x01))\n  dup4\n  and\n  dup2\n  or\n  swap1\n  swap4\n  sstore\n    /* \"@openzeppelin/contracts/access/Ownable.sol\":3052:3092  OwnershipTransferred(oldOwner, newOwner) */\n  mload(0x40)\n    /* \"@openzeppelin/contracts/access/Ownable.sol\":3004:3010  _owner */\n  swap2\n  and\n  swap2\n    /* \"@openzeppelin/contracts/access/Ownable.sol\":3020:3037  _owner = newOwner */\n  swap1\n    /* \"@openzeppelin/contracts/access/Ownable.sol\":3004:3010  _owner */\n  dup3\n  swap1\n    /* \"@openzeppelin/contracts/access/Ownable.sol\":3052:3092  OwnershipTransferred(oldOwner, newOwner) */\n  0x8be0079c531659141344cd1fd0a4f28419497f9722a3daafe3b4186f6b6457e0\n  swap1\n    /* \"@openzeppelin/contracts/access/Ownable.sol\":2985:3001  address oldOwner */\n  0x00\n  swap1\n    /* \"@openzeppelin/contracts/access/Ownable.sol\":3052:3092  OwnershipTransferred(oldOwner, newOwner) */\n  log3\n    /* \"@openzeppelin/contracts/access/Ownable.sol\":2975:3099  {... */\n  pop\n    /* \"@openzeppelin/contracts/access/Ownable.sol\":2912:3099  function _transferOwnership(address newOwner) internal virtual {... */\n  pop\n  jump\t// out\n    /* \"@openzeppelin/contracts/token/ERC20/ERC20.sol\":7458:7666  function _mint(address account, uint256 value) internal {... */\ntag_23:\n  sub(shl(0xa0, 0x01), 0x01)\n    /* \"@openzeppelin/contracts/token/ERC20/ERC20.sol\":7528:7549  account == address(0) */\n  dup3\n  and\n    /* \"@openzeppelin/contracts/token/ERC20/ERC20.sol\":7524:7615  if (account == address(0)) {... */\n  tag_27\n  jumpi\n    /* \"@openzeppelin/contracts/token/ERC20/ERC20.sol\":7572:7604  ERC20InvalidReceiver(address(0)) */\n  mload(0x40)\n  shl(0xe0, 0xec442f05)\n  dup2\n  mstore\n    /* \"@openzeppelin/contracts/token/ERC20/ERC20.sol\":7601:7602  0 */\n  0x00\n    /* \"@openzeppelin/contracts/token/ERC20/ERC20.sol\":7572:7604  ERC20InvalidReceiver(address(0)) */\n  0x04\n  dup3\n  add\n    /* \"#utility.yul\":3538:3589   */\n  mstore\n    /* \"#utility.yul\":3511:3529   */\n  0x24\n  add\n    /* \"@openzeppelin/contracts/token/ERC20/ERC20.sol\":7572:7604  ERC20InvalidReceiver(address(0)) */\n  tag_15\n    /* \"#utility.yul\":3392:3595   */\n  jump\n    /* \"@openzeppelin/contracts/token/ERC20/ERC20.sol\":7524:7615  if (account == address(0)) {... */\ntag_27:\n    /* \"@openzeppelin/contracts/token/ERC20/ERC20.sol\":7624:7659  _update(address(0), account, value) */\n  tag_29\n    /* \"@openzeppelin/contracts/token/ERC20/ERC20.sol\":7640:7641  0 */\n  0x00\n    /* \"@openzeppelin/contracts/token/ERC20/ERC20.sol\":7644:7651  account */\n  dup4\n    /* \"@openzeppelin/contracts/token/ERC20/ERC20.sol\":7653:7658  value */\n  dup4\n    /* \"@openzeppelin/contracts/token/ERC20/ERC20.sol\":7624:7631  _update */\n  tag_30\n    /* \"@openzeppelin/contracts/token/ERC20/ERC20.sol\":7624:7659  _update(address(0), account, value) */\n  jump\t// in\ntag_29:\n    /* \"@openzeppelin/contracts/token/ERC20/ERC20.sol\":7458:7666  function _mint(address account, uint256 value) internal {... */\n  pop\n  pop\n  jump\t// out\n    /* \"@openzeppelin/contracts/token/ERC20/ERC20.sol\":6008:7115  function _update(address from, address to, uint256 value) internal virtual {... */\ntag_30:\n  sub(shl(0xa0, 0x01), 0x01)\n    /* \"@openzeppelin/contracts/token/ERC20/ERC20.sol\":6097:6115  from == address(0) */\n  dup4\n  and\n    /* \"@openzeppelin/contracts/token/ERC20/ERC20.sol\":6093:6633  if (from == address(0)) {... */\n  tag_32\n  jumpi\n    /* \"@openzeppelin/contracts/token/ERC20/ERC20.sol\":6249:6254  value */\n  dup1\n    /* \"@openzeppelin/contracts/token/ERC20/ERC20.sol\":6233:6245  _totalSupply */\n  0x02\n  0x00\n    /* \"@openzeppelin/contracts/token/ERC20/ERC20.sol\":6233:6254  _totalSupply += value */\n  dup3\n  dup3\n  sload\n  tag_33\n  swap2\n  swap1\n  tag_34\n  jump\t// in\ntag_33:\n  swap1\n  swap2\n  sstore\n  pop\n    /* \"@openzeppelin/contracts/token/ERC20/ERC20.sol\":6093:6633  if (from == address(0)) {... */\n  tag_35\n  swap1\n  pop\n  jump\ntag_32:\n  sub(shl(0xa0, 0x01), 0x01)\n    /* \"@openzeppelin/contracts/token/ERC20/ERC20.sol\":6307:6322  _balances[from] */\n  dup4\n  and\n    /* \"@openzeppelin/contracts/token/ERC20/ERC20.sol\":6285:6304  uint256 fromBalance */\n  0x00\n    /* \"@openzeppelin/contracts/token/ERC20/ERC20.sol\":6307:6322  _balances[from] */\n  swap1\n  dup2\n  mstore\n  0x20\n  dup2\n  swap1\n  mstore\n  0x40\n  swap1\n  keccak256\n  sload\n    /* \"@openzeppelin/contracts/token/ERC20/ERC20.sol\":6340:6359  fromBalance < value */\n  dup2\n  dup2\n  lt\n    /* \"@openzeppelin/contracts/token/ERC20/ERC20.sol\":6336:6451  if (fromBalance < value) {... */\n  iszero\n  tag_36\n  jumpi\n    /* \"@openzeppelin/contracts/token/ERC20/ERC20.sol\":6386:6436  ERC20InsufficientBalance(from, fromBalance, value) */\n  mload(0x40)\n  shl(0xe2, 0x391434e3)\n  dup2\n  mstore\n  sub(shl(0xa0, 0x01), 0x01)\n    /* \"#utility.yul\":4047:4079   */\n  dup6\n  and\n    /* \"@openzeppelin/contracts/token/ERC20/ERC20.sol\":6386:6436  ERC20InsufficientBalance(from, fromBalance, value) */\n  0x04\n  dup3\n  add\n    /* \"#utility.yul\":4029:4080   */\n  mstore\n    /* \"#utility.yul\":4096:4114   */\n  0x24\n  dup2\n  add\n    /* \"#utility.yul\":4089:4123   */\n  dup3\n  swap1\n  mstore\n    /* \"#utility.yul\":4139:4157   */\n  0x44\n  dup2\n  add\n    /* \"#utility.yul\":4132:4166   */\n  dup4\n  swap1\n  mstore\n    /* \"#utility.yul\":4002:4020   */\n  0x64\n  add\n    /* \"@openzeppelin/contracts/token/ERC20/ERC20.sol\":6386:6436  ERC20InsufficientBalance(from, fromBalance, value) */\n  tag_15\n    /* \"#utility.yul\":3827:4172   */\n  jump\n    /* \"@openzeppelin/contracts/token/ERC20/ERC20.sol\":6336:6451  if (fromBalance < value) {... */\ntag_36:\n  sub(shl(0xa0, 0x01), 0x01)\n    /* \"@openzeppelin/contracts/token/ERC20/ERC20.sol\":6571:6586  _balances[from] */\n  dup5\n  and\n    /* \"@openzeppelin/contracts/token/ERC20/ERC20.sol\":6571:6580  _balances */\n  0x00\n    /* \"@openzeppelin/contracts/token/ERC20/ERC20.sol\":6571:6586  _balances[from] */\n  swap1\n  dup2\n  mstore\n  0x20\n  dup2\n  swap1\n  mstore\n  0x40\n  swap1\n  keccak256\n    /* \"@openzeppelin/contracts/token/ERC20/ERC20.sol\":6589:6608  fromBalance - value */\n  swap1\n  dup3\n  swap1\n  sub\n    /* \"@openzeppelin/contracts/token/ERC20/ERC20.sol\":6571:6608  _balances[from] = fromBalance - value */\n  swap1\n  sstore\n    /* \"@openzeppelin/contracts/token/ERC20/ERC20.sol\":6093:6633  if (from == address(0)) {... */\ntag_35:\n  sub(shl(0xa0, 0x01), 0x01)\n    /* \"@openzeppelin/contracts/token/ERC20/ERC20.sol\":6647:6663  to == address(0) */\n  dup3\n  and\n    /* \"@openzeppelin/contracts/token/ERC20/ERC20.sol\":6643:7068  if (to == address(0)) {... */\n  tag_39\n  jumpi\n    /* \"@openzeppelin/contracts/token/ERC20/ERC20.sol\":6810:6822  _totalSupply */\n  0x02\n    /* \"@openzeppelin/contracts/token/ERC20/ERC20.sol\":6810:6831  _totalSupply -= value */\n  dup1\n  sload\n  dup3\n  swap1\n  sub\n  swap1\n  sstore\n    /* \"@openzeppelin/contracts/token/ERC20/ERC20.sol\":6643:7068  if (to == address(0)) {... */\n  jump(tag_40)\ntag_39:\n  sub(shl(0xa0, 0x01), 0x01)\n    /* \"@openzeppelin/contracts/token/ERC20/ERC20.sol\":7021:7034  _balances[to] */\n  dup3\n  and\n    /* \"@openzeppelin/contracts/token/ERC20/ERC20.sol\":7021:7030  _balances */\n  0x00\n    /* \"@openzeppelin/contracts/token/ERC20/ERC20.sol\":7021:7034  _balances[to] */\n  swap1\n  dup2\n  mstore\n  0x20\n  dup2\n  swap1\n  mstore\n  0x40\n  swap1\n  keccak256\n    /* \"@openzeppelin/contracts/token/ERC20/ERC20.sol\":7021:7043  _balances[to] += value */\n  dup1\n  sload\n  dup3\n  add\n  swap1\n  sstore\n    /* \"@openzeppelin/contracts/token/ERC20/ERC20.sol\":6643:7068  if (to == address(0)) {... */\ntag_40:\n    /* \"@openzeppelin/contracts/token/ERC20/ERC20.sol\":7098:7100  to */\n  dup2\n  sub(shl(0xa0, 0x01), 0x01)\n    /* \"@openzeppelin/contracts/token/ERC20/ERC20.sol\":7083:7108  Transfer(from, to, value) */\n  and\n    /* \"@openzeppelin/contracts/token/ERC20/ERC20.sol\":7092:7096  from */\n  dup4\n  sub(shl(0xa0, 0x01), 0x01)\n    /* \"@openzeppelin/contracts/token/ERC20/ERC20.sol\":7083:7108  Transfer(from, to, value) */\n  and\n  0xddf252ad1be2c89b69c2b068fc378daa952ba7f163c4a11628f55a4df523b3ef\n    /* \"@openzeppelin/contracts/token/ERC20/ERC20.sol\":7102:7107  value */\n  dup4\n    /* \"@openzeppelin/contracts/token/ERC20/ERC20.sol\":7083:7108  Transfer(from, to, value) */\n  mload(0x40)\n  tag_41\n  swap2\n    /* \"#utility.yul\":4323:4348   */\n  dup2\n  mstore\n    /* \"#utility.yul\":4311:4313   */\n  0x20\n    /* \"#utility.yul\":4296:4314   */\n  add\n  swap1\n    /* \"#utility.yul\":4177:4354   */\n  jump\n    /* \"@openzeppelin/contracts/token/ERC20/ERC20.sol\":7083:7108  Transfer(from, to, value) */\ntag_41:\n  mload(0x40)\n  dup1\n  swap2\n  sub\n  swap1\n  log3\n    /* \"@openzeppelin/contracts/token/ERC20/ERC20.sol\":6008:7115  function _update(address from, address to, uint256 value) internal virtual {... */\n  pop\n  pop\n  pop\n  jump\t// out\n    /* \"#utility.yul\":14:191   */\ntag_43:\n    /* \"#utility.yul\":93:106   */\n  dup1\n  mload\n  sub(shl(0xa0, 0x01), 0x01)\n    /* \"#utility.yul\":135:166   */\n  dup2\n  and\n    /* \"#utility.yul\":125:167   */\n  dup2\n  eq\n    /* \"#utility.yul\":115:185   */\n  tag_51\n  jumpi\n    /* \"#utility.yul\":181:182   */\n  0x00\n    /* \"#utility.yul\":178:179   */\n  dup1\n    /* \"#utility.yul\":171:183   */\n  revert\n    /* \"#utility.yul\":115:185   */\ntag_51:\n    /* \"#utility.yul\":14:191   */\n  swap2\n  swap1\n  pop\n  jump\t// out\n    /* \"#utility.yul\":196:746   */\ntag_3:\n    /* \"#utility.yul\":302:308   */\n  0x00\n    /* \"#utility.yul\":310:316   */\n  dup1\n    /* \"#utility.yul\":318:324   */\n  0x00\n    /* \"#utility.yul\":326:332   */\n  dup1\n    /* \"#utility.yul\":334:340   */\n  0x00\n    /* \"#utility.yul\":387:390   */\n  0xa0\n    /* \"#utility.yul\":375:384   */\n  dup7\n    /* \"#utility.yul\":366:373   */\n  dup9\n    /* \"#utility.yul\":362:385   */\n  sub\n    /* \"#utility.yul\":358:391   */\n  slt\n    /* \"#utility.yul\":355:408   */\n  iszero\n  tag_53\n  jumpi\n    /* \"#utility.yul\":404:405   */\n  0x00\n    /* \"#utility.yul\":401:402   */\n  dup1\n    /* \"#utility.yul\":394:406   */\n  revert\n    /* \"#utility.yul\":355:408   */\ntag_53:\n    /* \"#utility.yul\":427:467   */\n  tag_54\n    /* \"#utility.yul\":457:466   */\n  dup7\n    /* \"#utility.yul\":427:467   */\n  tag_43\n  jump\t// in\ntag_54:\n    /* \"#utility.yul\":417:467   */\n  swap5\n  pop\n    /* \"#utility.yul\":486:535   */\n  tag_55\n    /* \"#utility.yul\":531:533   */\n  0x20\n    /* \"#utility.yul\":520:529   */\n  dup8\n    /* \"#utility.yul\":516:534   */\n  add\n    /* \"#utility.yul\":486:535   */\n  tag_43\n  jump\t// in\ntag_55:\n    /* \"#utility.yul\":476:535   */\n  swap4\n  pop\n    /* \"#utility.yul\":554:603   */\n  tag_56\n    /* \"#utility.yul\":599:601   */\n  0x40\n    /* \"#utility.yul\":588:597   */\n  dup8\n    /* \"#utility.yul\":584:602   */\n  add\n    /* \"#utility.yul\":554:603   */\n  tag_43\n  jump\t// in\ntag_56:\n    /* \"#utility.yul\":544:603   */\n  swap3\n  pop\n    /* \"#utility.yul\":622:671   */\n  tag_57\n    /* \"#utility.yul\":667:669   */\n  0x60\n    /* \"#utility.yul\":656:665   */\n  dup8\n    /* \"#utility.yul\":652:670   */\n  add\n    /* \"#utility.yul\":622:671   */\n  tag_43\n  jump\t// in\ntag_57:\n    /* \"#utility.yul\":612:671   */\n  swap2\n  pop\n    /* \"#utility.yul\":690:740   */\n  tag_58\n    /* \"#utility.yul\":735:738   */\n  0x80\n    /* \"#utility.yul\":724:733   */\n  dup8\n    /* \"#utility.yul\":720:739   */\n  add\n    /* \"#utility.yul\":690:740   */\n  tag_43\n  jump\t// in\ntag_58:\n    /* \"#utility.yul\":680:740   */\n  swap1\n  pop\n    /* \"#utility.yul\":196:746   */\n  swap3\n  swap6\n  pop\n  swap3\n  swap6\n  swap1\n  swap4\n  pop\n  jump\t// out\n    /* \"#utility.yul\":751:878   */\ntag_44:\n    /* \"#utility.yul\":812:822   */\n  0x4e487b71\n    /* \"#utility.yul\":807:810   */\n  0xe0\n    /* \"#utility.yul\":803:823   */\n  shl\n    /* \"#utility.yul\":800:801   */\n  0x00\n    /* \"#utility.yul\":793:824   */\n  mstore\n    /* \"#utility.yul\":843:847   */\n  0x41\n    /* \"#utility.yul\":840:841   */\n  0x04\n    /* \"#utility.yul\":833:848   */\n  mstore\n    /* \"#utility.yul\":867:871   */\n  0x24\n    /* \"#utility.yul\":864:865   */\n  0x00\n    /* \"#utility.yul\":857:872   */\n  revert\n    /* \"#utility.yul\":883:1263   */\ntag_45:\n    /* \"#utility.yul\":962:963   */\n  0x01\n    /* \"#utility.yul\":958:970   */\n  dup2\n  dup2\n  shr\n  swap1\n    /* \"#utility.yul\":1005:1017   */\n  dup3\n  and\n  dup1\n    /* \"#utility.yul\":1026:1087   */\n  tag_61\n  jumpi\n    /* \"#utility.yul\":1080:1084   */\n  0x7f\n    /* \"#utility.yul\":1072:1078   */\n  dup3\n    /* \"#utility.yul\":1068:1085   */\n  and\n    /* \"#utility.yul\":1058:1085   */\n  swap2\n  pop\n    /* \"#utility.yul\":1026:1087   */\ntag_61:\n    /* \"#utility.yul\":1133:1135   */\n  0x20\n    /* \"#utility.yul\":1125:1131   */\n  dup3\n    /* \"#utility.yul\":1122:1136   */\n  lt\n    /* \"#utility.yul\":1102:1120   */\n  dup2\n    /* \"#utility.yul\":1099:1137   */\n  sub\n    /* \"#utility.yul\":1096:1257   */\n  tag_62\n  jumpi\n    /* \"#utility.yul\":1179:1189   */\n  0x4e487b71\n    /* \"#utility.yul\":1174:1177   */\n  0xe0\n    /* \"#utility.yul\":1170:1190   */\n  shl\n    /* \"#utility.yul\":1167:1168   */\n  0x00\n    /* \"#utility.yul\":1160:1191   */\n  mstore\n    /* \"#utility.yul\":1214:1218   */\n  0x22\n    /* \"#utility.yul\":1211:1212   */\n  0x04\n    /* \"#utility.yul\":1204:1219   */\n  mstore\n    /* \"#utility.yul\":1242:1246   */\n  0x24\n    /* \"#utility.yul\":1239:1240   */\n  0x00\n    /* \"#utility.yul\":1232:1247   */\n  revert\n    /* \"#utility.yul\":1096:1257   */\ntag_62:\n  pop\n    /* \"#utility.yul\":883:1263   */\n  swap2\n  swap1\n  pop\n  jump\t// out\n    /* \"#utility.yul\":1394:1912   */\ntag_47:\n    /* \"#utility.yul\":1496:1498   */\n  0x1f\n    /* \"#utility.yul\":1491:1494   */\n  dup3\n    /* \"#utility.yul\":1488:1499   */\n  gt\n    /* \"#utility.yul\":1485:1906   */\n  iszero\n  tag_65\n  jumpi\n    /* \"#utility.yul\":1532:1537   */\n  dup1\n    /* \"#utility.yul\":1529:1530   */\n  0x00\n    /* \"#utility.yul\":1522:1538   */\n  mstore\n    /* \"#utility.yul\":1576:1580   */\n  0x20\n    /* \"#utility.yul\":1573:1574   */\n  0x00\n    /* \"#utility.yul\":1563:1581   */\n  keccak256\n    /* \"#utility.yul\":1646:1648   */\n  0x1f\n    /* \"#utility.yul\":1634:1644   */\n  dup5\n    /* \"#utility.yul\":1630:1649   */\n  add\n    /* \"#utility.yul\":1627:1628   */\n  0x05\n    /* \"#utility.yul\":1623:1650   */\n  shr\n    /* \"#utility.yul\":1617:1621   */\n  dup2\n    /* \"#utility.yul\":1613:1651   */\n  add\n    /* \"#utility.yul\":1682:1686   */\n  0x20\n    /* \"#utility.yul\":1670:1680   */\n  dup6\n    /* \"#utility.yul\":1667:1687   */\n  lt\n    /* \"#utility.yul\":1664:1711   */\n  iszero\n  tag_66\n  jumpi\n  pop\n    /* \"#utility.yul\":1705:1709   */\n  dup1\n    /* \"#utility.yul\":1664:1711   */\ntag_66:\n    /* \"#utility.yul\":1760:1762   */\n  0x1f\n    /* \"#utility.yul\":1755:1758   */\n  dup5\n    /* \"#utility.yul\":1751:1763   */\n  add\n    /* \"#utility.yul\":1748:1749   */\n  0x05\n    /* \"#utility.yul\":1744:1764   */\n  shr\n    /* \"#utility.yul\":1738:1742   */\n  dup3\n    /* \"#utility.yul\":1734:1765   */\n  add\n    /* \"#utility.yul\":1724:1765   */\n  swap2\n  pop\n    /* \"#utility.yul\":1815:1896   */\ntag_67:\n    /* \"#utility.yul\":1833:1835   */\n  dup2\n    /* \"#utility.yul\":1826:1831   */\n  dup2\n    /* \"#utility.yul\":1823:1836   */\n  lt\n    /* \"#utility.yul\":1815:1896   */\n  iszero\n  tag_69\n  jumpi\n    /* \"#utility.yul\":1892:1893   */\n  0x00\n    /* \"#utility.yul\":1878:1894   */\n  dup2\n  sstore\n    /* \"#utility.yul\":1859:1860   */\n  0x01\n    /* \"#utility.yul\":1848:1861   */\n  add\n    /* \"#utility.yul\":1815:1896   */\n  jump(tag_67)\ntag_69:\n    /* \"#utility.yul\":1819:1822   */\n  pop\n  pop\n    /* \"#utility.yul\":1485:1906   */\ntag_65:\n    /* \"#utility.yul\":1394:1912   */\n  pop\n  pop\n  pop\n  jump\t// out\n    /* \"#utility.yul\":2088:3387   */\ntag_11:\n    /* \"#utility.yul\":2208:2218   */\n  dup2\n  mload\n  sub(shl(0x40, 0x01), 0x01)\n    /* \"#utility.yul\":2230:2260   */\n  dup2\n  gt\n    /* \"#utility.yul\":2227:2283   */\n  iszero\n  tag_73\n  jumpi\n    /* \"#utility.yul\":2263:2281   */\n  tag_73\n  tag_44\n  jump\t// in\ntag_73:\n    /* \"#utility.yul\":2292:2389   */\n  tag_74\n    /* \"#utility.yul\":2382:2388   */\n  dup2\n    /* \"#utility.yul\":2342:2380   */\n  tag_75\n    /* \"#utility.yul\":2374:2378   */\n  dup5\n    /* \"#utility.yul\":2368:2379   */\n  sload\n    /* \"#utility.yul\":2342:2380   */\n  tag_45\n  jump\t// in\ntag_75:\n    /* \"#utility.yul\":2336:2340   */\n  dup5\n    /* \"#utility.yul\":2292:2389   */\n  tag_47\n  jump\t// in\ntag_74:\n    /* \"#utility.yul\":2438:2442   */\n  0x20\n    /* \"#utility.yul\":2469:2471   */\n  0x1f\n    /* \"#utility.yul\":2458:2472   */\n  dup3\n  gt\n    /* \"#utility.yul\":2486:2487   */\n  0x01\n    /* \"#utility.yul\":2481:3130   */\n  dup2\n  eq\n  tag_77\n  jumpi\n    /* \"#utility.yul\":3174:3175   */\n  0x00\n    /* \"#utility.yul\":3191:3197   */\n  dup4\n    /* \"#utility.yul\":3188:3277   */\n  iszero\n  tag_78\n  jumpi\n  pop\n    /* \"#utility.yul\":3243:3262   */\n  dup5\n  dup3\n  add\n    /* \"#utility.yul\":3237:3263   */\n  mload\n    /* \"#utility.yul\":3188:3277   */\ntag_78:\n  not(0x00)\n    /* \"#utility.yul\":2045:2046   */\n  0x03\n    /* \"#utility.yul\":2041:2052   */\n  dup6\n  swap1\n  shl\n    /* \"#utility.yul\":2037:2061   */\n  shr\n    /* \"#utility.yul\":2033:2062   */\n  not\n    /* \"#utility.yul\":2023:2063   */\n  and\n    /* \"#utility.yul\":2069:2070   */\n  0x01\n    /* \"#utility.yul\":2065:2076   */\n  dup5\n  swap1\n  shl\n    /* \"#utility.yul\":2020:2077   */\n  or\n    /* \"#utility.yul\":3290:3371   */\n  dup5\n  sstore\n    /* \"#utility.yul\":2451:3381   */\n  jump(tag_69)\n    /* \"#utility.yul\":2481:3130   */\ntag_77:\n    /* \"#utility.yul\":1341:1342   */\n  0x00\n    /* \"#utility.yul\":1334:1348   */\n  dup5\n  dup2\n  mstore\n    /* \"#utility.yul\":1378:1382   */\n  0x20\n    /* \"#utility.yul\":1365:1383   */\n  dup2\n  keccak256\n  not(0x1f)\n    /* \"#utility.yul\":2517:2537   */\n  dup6\n  and\n  swap2\n    /* \"#utility.yul\":2635:2857   */\ntag_81:\n    /* \"#utility.yul\":2649:2656   */\n  dup3\n    /* \"#utility.yul\":2646:2647   */\n  dup2\n    /* \"#utility.yul\":2643:2657   */\n  lt\n    /* \"#utility.yul\":2635:2857   */\n  iszero\n  tag_83\n  jumpi\n    /* \"#utility.yul\":2731:2750   */\n  dup8\n  dup6\n  add\n    /* \"#utility.yul\":2725:2751   */\n  mload\n    /* \"#utility.yul\":2710:2752   */\n  dup3\n  sstore\n    /* \"#utility.yul\":2838:2842   */\n  0x20\n    /* \"#utility.yul\":2823:2843   */\n  swap5\n  dup6\n  add\n  swap5\n    /* \"#utility.yul\":2791:2792   */\n  0x01\n    /* \"#utility.yul\":2779:2793   */\n  swap1\n  swap3\n  add\n  swap2\n    /* \"#utility.yul\":2665:2677   */\n  add\n    /* \"#utility.yul\":2635:2857   */\n  jump(tag_81)\ntag_83:\n    /* \"#utility.yul\":2639:2642   */\n  pop\n    /* \"#utility.yul\":2885:2891   */\n  dup5\n    /* \"#utility.yul\":2876:2883   */\n  dup3\n    /* \"#utility.yul\":2873:2892   */\n  lt\n    /* \"#utility.yul\":2870:3071   */\n  iszero\n  tag_84\n  jumpi\n    /* \"#utility.yul\":2946:2965   */\n  dup7\n  dup5\n  add\n    /* \"#utility.yul\":2940:2966   */\n  mload\n  not(0x00)\n    /* \"#utility.yul\":3029:3030   */\n  0x03\n    /* \"#utility.yul\":3025:3039   */\n  dup8\n  swap1\n  shl\n    /* \"#utility.yul\":3041:3044   */\n  0xf8\n    /* \"#utility.yul\":3021:3045   */\n  and\n    /* \"#utility.yul\":3017:3054   */\n  shr\n    /* \"#utility.yul\":3013:3055   */\n  not\n    /* \"#utility.yul\":2998:3056   */\n  and\n    /* \"#utility.yul\":2983:3057   */\n  dup2\n  sstore\n    /* \"#utility.yul\":2870:3071   */\ntag_84:\n  pop\n  pop\n  pop\n  pop\n    /* \"#utility.yul\":3117:3118   */\n  0x01\n    /* \"#utility.yul\":3101:3115   */\n  swap1\n  dup2\n  shl\n    /* \"#utility.yul\":3097:3119   */\n  add\n    /* \"#utility.yul\":3084:3120   */\n  swap1\n  sstore\n  pop\n    /* \"#utility.yul\":2088:3387   */\n  jump\t// out\n    /* \"#utility.yul\":3600:3822   */\ntag_34:\n    /* \"#utility.yul\":3665:3674   */\n  dup1\n  dup3\n  add\n    /* \"#utility.yul\":3686:3696   */\n  dup1\n  dup3\n  gt\n    /* \"#utility.yul\":3683:3816   */\n  iszero\n  tag_87\n  jumpi\n    /* \"#utility.yul\":3738:3748   */\n  0x4e487b71\n    /* \"#utility.yul\":3733:3736   */\n  0xe0\n    /* \"#utility.yul\":3729:3749   */\n  shl\n    /* \"#utility.yul\":3726:3727   */\n  0x00\n    /* \"#utility.yul\":3719:3750   */\n  mstore\n    /* \"#utility.yul\":3773:3777   */\n  0x11\n    /* \"#utility.yul\":3770:3771   */\n  0x04\n    /* \"#utility.yul\":3763:3778   */\n  mstore\n    /* \"#utility.yul\":3801:3805   */\n  0x24\n    /* \"#utility.yul\":3798:3799   */\n  0x00\n    /* \"#utility.yul\":3791:3806   */\n  revert\n    /* \"#utility.yul\":3683:3816   */\ntag_87:\n    /* \"#utility.yul\":3600:3822   */\n  swap3\n  swap2\n  pop\n  pop\n  jump\t// out\n    /* \"#utility.yul\":4177:4354   */\ntag_49:\n    /* \"xeam_test_contract_1.sol\":295:4948  contract XEAMToken is ERC20, Ownable, ReentrancyGuard, Pausable {... */\n  dataSize(sub_0)\n  dup1\n  dataOffset(sub_0)\n  0x00\n  codecopy\n  0x00\n  return\nstop\n\nsub_0: assembly {\n        /* \"xeam_test_contract_1.sol\":295:4948  contract XEAMToken is ERC20, Ownable, ReentrancyGuard, Pausable {... */\n      mstore(0x40, 0x80)\n      callvalue\n      dup1\n      iszero\n      tag_1\n      jumpi\n      0x00\n      dup1\n      revert\n    tag_1:\n      pop\n      jumpi(tag_2, lt(calldatasize, 0x04))\n      shr(0xe0, calldataload(0x00))\n      dup1\n      0x753cafc3\n      gt\n      tag_33\n      jumpi\n      dup1\n      0xc12b7c4e\n      gt\n      tag_34\n      jumpi\n      dup1\n      0xdd62ed3e\n      gt\n      tag_35\n      jumpi\n      dup1\n      0xdd62ed3e\n      eq\n      tag_29\n      jumpi\n      dup1\n      0xdf7787a4\n      eq\n      tag_30\n      jumpi\n      dup1\n      0xf2fde38b\n      eq\n      tag_31\n      jumpi\n      dup1\n      0xf3b2db3f\n      eq\n      tag_32\n      jumpi\n      0x00\n      dup1\n      revert\n    tag_35:\n      dup1\n      0xc12b7c4e\n      eq\n      tag_25\n      jumpi\n      dup1\n      0xc816841b\n      eq\n      tag_26\n      jumpi\n      dup1\n      0xcc1776d3\n      eq\n      tag_27\n      jumpi\n      dup1\n      0xcc859378\n      eq\n      tag_28\n      jumpi\n      0x00\n      dup1\n      revert\n    tag_34:\n      dup1\n      0x8da5cb5b\n      gt\n      tag_36\n      jumpi\n      dup1\n      0x8da5cb5b\n      eq\n      tag_21\n      jumpi\n      dup1\n      0x95d89b41\n      eq\n      tag_22\n      jumpi\n      dup1\n      0xa9059cbb\n      eq\n      tag_23\n      jumpi\n      dup1\n      0xbea9ea62\n      eq\n      tag_24\n      jumpi\n      0x00\n      dup1\n      revert\n    tag_36:\n      dup1\n      0x753cafc3\n      eq\n      tag_18\n      jumpi\n      dup1\n      0x75f0a874\n      eq\n      tag_19\n      jumpi\n      dup1\n      0x8456cb59\n      eq\n      tag_20\n      jumpi\n      0x00\n      dup1\n      revert\n    tag_33:\n      dup1\n      0x313ce567\n      gt\n      tag_37\n      jumpi\n      dup1\n      0x52a6a9ec\n      gt\n      tag_38\n      jumpi\n      dup1\n      0x52a6a9ec\n      eq\n      tag_14\n      jumpi\n      dup1\n      0x5c975abb\n      eq\n      tag_15\n      jumpi\n      dup1\n      0x70a08231\n      eq\n      tag_16\n      jumpi\n      dup1\n      0x715018a6\n      eq\n      tag_17\n      jumpi\n      0x00\n      dup1\n      revert\n    tag_38:\n      dup1\n      0x313ce567\n      eq\n      tag_10\n      jumpi\n      dup1\n      0x3f4ba83a\n      eq\n      tag_11\n      jumpi\n      dup1\n      0x4f7041a5\n      eq\n      tag_12\n      jumpi\n      dup1\n      0x4fbee193\n      eq\n      tag_13\n      jumpi\n      0x00\n      dup1\n      revert\n    tag_37:\n      dup1\n      0x1006ee0c\n      gt\n      tag_39\n      jumpi\n      dup1\n      0x1006ee0c\n      eq\n      tag_6\n      jumpi\n      dup1\n      0x18160ddd\n      eq\n      tag_7\n      jumpi\n      dup1\n      0x23b872dd\n      eq\n      tag_8\n      jumpi\n      dup1\n      0x2ff2e9dc\n      eq\n      tag_9\n      jumpi\n      0x00\n      dup1\n      revert\n    tag_39:\n      dup1\n      0x06ee6ad8\n      eq\n      tag_3\n      jumpi\n      dup1\n      0x06fdde03\n      eq\n      tag_4\n      jumpi\n      dup1\n      0x095ea7b3\n      eq\n      tag_5\n      jumpi\n    tag_2:\n      0x00\n      dup1\n      revert\n        /* \"xeam_test_contract_1.sol\":698:726  address public stakingWallet */\n    tag_3:\n      sload(0x0a)\n      tag_40\n      swap1\n      sub(shl(0xa0, 0x01), 0x01)\n      and\n      dup2\n      jump\n    tag_40:\n      mload(0x40)\n      sub(shl(0xa0, 0x01), 0x01)\n        /* \"#utility.yul\":178:210   */\n      swap1\n      swap2\n      and\n        /* \"#utility.yul\":160:211   */\n      dup2\n      mstore\n        /* \"#utility.yul\":148:150   */\n      0x20\n        /* \"#utility.yul\":133:151   */\n      add\n        /* \"xeam_test_contract_1.sol\":698:726  address public stakingWallet */\n    tag_42:\n      mload(0x40)\n      dup1\n      swap2\n      sub\n      swap1\n      return\n        /* \"@openzeppelin/contracts/token/ERC20/ERC20.sol\":1779:1868  function name() public view virtual returns (string memory) {... */\n    tag_4:\n      tag_44\n      tag_45\n      jump\t// in\n    tag_44:\n      mload(0x40)\n      tag_42\n      swap2\n      swap1\n      tag_47\n      jump\t// in\n        /* \"@openzeppelin/contracts/token/ERC20/ERC20.sol\":3998:4184  function approve(address spender, uint256 value) public virtual returns (bool) {... */\n    tag_5:\n      tag_48\n      tag_49\n      calldatasize\n      0x04\n      tag_50\n      jump\t// in\n    tag_49:\n      tag_51\n      jump\t// in\n    tag_48:\n      mload(0x40)\n        /* \"#utility.yul\":1293:1307   */\n      swap1\n      iszero\n        /* \"#utility.yul\":1286:1308   */\n      iszero\n        /* \"#utility.yul\":1268:1309   */\n      dup2\n      mstore\n        /* \"#utility.yul\":1256:1258   */\n      0x20\n        /* \"#utility.yul\":1241:1259   */\n      add\n        /* \"@openzeppelin/contracts/token/ERC20/ERC20.sol\":3998:4184  function approve(address spender, uint256 value) public virtual returns (bool) {... */\n      tag_42\n        /* \"#utility.yul\":1128:1315   */\n      jump\n        /* \"xeam_test_contract_1.sol\":4546:4799  function updateTaxes(uint256 _buyTax, uint256 _sellTax) external onlyOwner {... */\n    tag_6:\n      tag_54\n      tag_55\n      calldatasize\n      0x04\n      tag_56\n      jump\t// in\n    tag_55:\n      tag_57\n      jump\t// in\n    tag_54:\n      stop\n        /* \"@openzeppelin/contracts/token/ERC20/ERC20.sol\":2849:2946  function totalSupply() public view virtual returns (uint256) {... */\n    tag_7:\n        /* \"@openzeppelin/contracts/token/ERC20/ERC20.sol\":2927:2939  _totalSupply */\n      sload(0x02)\n        /* \"@openzeppelin/contracts/token/ERC20/ERC20.sol\":2849:2946  function totalSupply() public view virtual returns (uint256) {... */\n    tag_58:\n      mload(0x40)\n        /* \"#utility.yul\":1817:1842   */\n      swap1\n      dup2\n      mstore\n        /* \"#utility.yul\":1805:1807   */\n      0x20\n        /* \"#utility.yul\":1790:1808   */\n      add\n        /* \"@openzeppelin/contracts/token/ERC20/ERC20.sol\":2849:2946  function totalSupply() public view virtual returns (uint256) {... */\n      tag_42\n        /* \"#utility.yul\":1671:1848   */\n      jump\n        /* \"xeam_test_contract_1.sol\":1946:2287  function transferFrom(address sender, address recipient, uint256 amount) public override whenNotPaused returns (bool) {... */\n    tag_8:\n      tag_48\n      tag_63\n      calldatasize\n      0x04\n      tag_64\n      jump\t// in\n    tag_63:\n      tag_65\n      jump\t// in\n        /* \"xeam_test_contract_1.sol\":366:425  uint256 public constant INITIAL_SUPPLY = 2_000_000 * 10**18 */\n    tag_9:\n      tag_58\n        /* \"xeam_test_contract_1.sol\":407:425  2_000_000 * 10**18 */\n      0x01a784379d99db42000000\n        /* \"xeam_test_contract_1.sol\":366:425  uint256 public constant INITIAL_SUPPLY = 2_000_000 * 10**18 */\n      dup2\n      jump\n        /* \"@openzeppelin/contracts/token/ERC20/ERC20.sol\":2707:2789  function decimals() public view virtual returns (uint8) {... */\n    tag_10:\n      mload(0x40)\n        /* \"@openzeppelin/contracts/token/ERC20/ERC20.sol\":2780:2782  18 */\n      0x12\n        /* \"#utility.yul\":2374:2410   */\n      dup2\n      mstore\n        /* \"#utility.yul\":2362:2364   */\n      0x20\n        /* \"#utility.yul\":2347:2365   */\n      add\n        /* \"@openzeppelin/contracts/token/ERC20/ERC20.sol\":2707:2789  function decimals() public view virtual returns (uint8) {... */\n      tag_42\n        /* \"#utility.yul\":2232:2416   */\n      jump\n        /* \"xeam_test_contract_1.sol\":4878:4945  function unpause() external onlyOwner {... */\n    tag_11:\n      tag_54\n      tag_75\n      jump\t// in\n        /* \"xeam_test_contract_1.sol\":768:794  uint256 public buyTax = 10 */\n    tag_12:\n      tag_58\n      sload(0x0c)\n      dup2\n      jump\n        /* \"xeam_test_contract_1.sol\":837:887  mapping(address => bool) public isExcludedFromFees */\n    tag_13:\n      tag_48\n      tag_80\n      calldatasize\n      0x04\n      tag_81\n      jump\t// in\n    tag_80:\n      mstore(0x20, 0x0e)\n      0x00\n      swap1\n      dup2\n      mstore\n      0x40\n      swap1\n      keccak256\n      sload\n      0xff\n      and\n      dup2\n      jump\n        /* \"xeam_test_contract_1.sol\":587:619  address public encouragementFund */\n    tag_14:\n      sload(0x07)\n      tag_40\n      swap1\n      0x0100\n      swap1\n      div\n      sub(shl(0xa0, 0x01), 0x01)\n      and\n      dup2\n      jump\n        /* \"@openzeppelin/contracts/security/Pausable.sol\":1615:1699  function paused() public view virtual returns (bool) {... */\n    tag_15:\n        /* \"@openzeppelin/contracts/security/Pausable.sol\":1685:1692  _paused */\n      and(0xff, sload(0x07))\n        /* \"@openzeppelin/contracts/security/Pausable.sol\":1615:1699  function paused() public view virtual returns (bool) {... */\n      jump(tag_48)\n        /* \"@openzeppelin/contracts/token/ERC20/ERC20.sol\":3004:3120  function balanceOf(address account) public view virtual returns (uint256) {... */\n    tag_16:\n      tag_58\n      tag_91\n      calldatasize\n      0x04\n      tag_81\n      jump\t// in\n    tag_91:\n      sub(shl(0xa0, 0x01), 0x01)\n        /* \"@openzeppelin/contracts/token/ERC20/ERC20.sol\":3095:3113  _balances[account] */\n      and\n        /* \"@openzeppelin/contracts/token/ERC20/ERC20.sol\":3069:3076  uint256 */\n      0x00\n        /* \"@openzeppelin/contracts/token/ERC20/ERC20.sol\":3095:3113  _balances[account] */\n      swap1\n      dup2\n      mstore\n      0x20\n      dup2\n      swap1\n      mstore\n      0x40\n      swap1\n      keccak256\n      sload\n      swap1\n        /* \"@openzeppelin/contracts/token/ERC20/ERC20.sol\":3004:3120  function balanceOf(address account) public view virtual returns (uint256) {... */\n      jump\n        /* \"@openzeppelin/contracts/access/Ownable.sol\":2293:2394  function renounceOwnership() public virtual onlyOwner {... */\n    tag_17:\n      tag_54\n      tag_95\n      jump\t// in\n        /* \"xeam_test_contract_1.sol\":4163:4308  function updateExcludedAccountStatus(address account, bool excluded) external onlyOwner {... */\n    tag_18:\n      tag_54\n      tag_97\n      calldatasize\n      0x04\n      tag_98\n      jump\t// in\n    tag_97:\n      tag_99\n      jump\t// in\n        /* \"xeam_test_contract_1.sol\":661:691  address public marketingWallet */\n    tag_19:\n      sload(0x09)\n      tag_40\n      swap1\n      sub(shl(0xa0, 0x01), 0x01)\n      and\n      dup2\n      jump\n        /* \"xeam_test_contract_1.sol\":4807:4870  function pause() external onlyOwner {... */\n    tag_20:\n      tag_54\n      tag_104\n      jump\t// in\n        /* \"@openzeppelin/contracts/access/Ownable.sol\":1638:1723  function owner() public view virtual returns (address) {... */\n    tag_21:\n        /* \"@openzeppelin/contracts/access/Ownable.sol\":1710:1716  _owner */\n      and(sub(shl(0xa0, 0x01), 0x01), sload(0x05))\n        /* \"@openzeppelin/contracts/access/Ownable.sol\":1638:1723  function owner() public view virtual returns (address) {... */\n      jump(tag_40)\n        /* \"@openzeppelin/contracts/token/ERC20/ERC20.sol\":1981:2074  function symbol() public view virtual returns (string memory) {... */\n    tag_22:\n      tag_44\n      tag_109\n      jump\t// in\n        /* \"xeam_test_contract_1.sol\":1688:1938  function transfer(address recipient, uint256 amount) public override whenNotPaused returns (bool) {... */\n    tag_23:\n      tag_48\n      tag_112\n      calldatasize\n      0x04\n      tag_50\n      jump\t// in\n    tag_112:\n      tag_113\n      jump\t// in\n        /* \"xeam_test_contract_1.sol\":3892:4155  function withdrawLPFunds() external onlyOwner {... */\n    tag_24:\n      tag_54\n      tag_116\n      jump\t// in\n        /* \"xeam_test_contract_1.sol\":4316:4538  function updateUniswapPair(address newPair) external onlyOwner {... */\n    tag_25:\n      tag_54\n      tag_118\n      calldatasize\n      0x04\n      tag_81\n      jump\t// in\n    tag_118:\n      tag_119\n      jump\t// in\n        /* \"xeam_test_contract_1.sol\":733:759  address public uniswapPair */\n    tag_26:\n      sload(0x0b)\n      tag_40\n      swap1\n      sub(shl(0xa0, 0x01), 0x01)\n      and\n      dup2\n      jump\n        /* \"xeam_test_contract_1.sol\":801:828  uint256 public sellTax = 12 */\n    tag_27:\n      tag_58\n      sload(0x0d)\n      dup2\n      jump\n        /* \"xeam_test_contract_1.sol\":626:654  address public emergencyFund */\n    tag_28:\n      sload(0x08)\n      tag_40\n      swap1\n      sub(shl(0xa0, 0x01), 0x01)\n      and\n      dup2\n      jump\n        /* \"@openzeppelin/contracts/token/ERC20/ERC20.sol\":3551:3691  function allowance(address owner, address spender) public view virtual returns (uint256) {... */\n    tag_29:\n      tag_58\n      tag_130\n      calldatasize\n      0x04\n      tag_131\n      jump\t// in\n    tag_130:\n      sub(shl(0xa0, 0x01), 0x01)\n        /* \"@openzeppelin/contracts/token/ERC20/ERC20.sol\":3657:3675  _allowances[owner] */\n      swap2\n      dup3\n      and\n        /* \"@openzeppelin/contracts/token/ERC20/ERC20.sol\":3631:3638  uint256 */\n      0x00\n        /* \"@openzeppelin/contracts/token/ERC20/ERC20.sol\":3657:3675  _allowances[owner] */\n      swap1\n      dup2\n      mstore\n        /* \"@openzeppelin/contracts/token/ERC20/ERC20.sol\":3657:3668  _allowances */\n      0x01\n        /* \"@openzeppelin/contracts/token/ERC20/ERC20.sol\":3657:3675  _allowances[owner] */\n      0x20\n      swap1\n      dup2\n      mstore\n      0x40\n      dup1\n      dup4\n      keccak256\n        /* \"@openzeppelin/contracts/token/ERC20/ERC20.sol\":3657:3684  _allowances[owner][spender] */\n      swap4\n      swap1\n      swap5\n      and\n      dup3\n      mstore\n      swap2\n      swap1\n      swap2\n      mstore\n      keccak256\n      sload\n      swap1\n        /* \"@openzeppelin/contracts/token/ERC20/ERC20.sol\":3551:3691  function allowance(address owner, address spender) public view virtual returns (uint256) {... */\n      jump\n        /* \"xeam_test_contract_1.sol\":432:495  uint256 public constant MAX_WALLET = (INITIAL_SUPPLY * 1) / 100 */\n    tag_30:\n      tag_58\n      tag_135\n      jump\t// in\n        /* \"@openzeppelin/contracts/access/Ownable.sol\":2543:2758  function transferOwnership(address newOwner) public virtual onlyOwner {... */\n    tag_31:\n      tag_54\n      tag_138\n      calldatasize\n      0x04\n      tag_81\n      jump\t// in\n    tag_138:\n      tag_139\n      jump\t// in\n        /* \"xeam_test_contract_1.sol\":508:569  uint256 public constant MAX_TX = (INITIAL_SUPPLY * 5) / 10000 */\n    tag_32:\n      tag_58\n      tag_141\n      jump\t// in\n        /* \"@openzeppelin/contracts/token/ERC20/ERC20.sol\":1779:1868  function name() public view virtual returns (string memory) {... */\n    tag_45:\n        /* \"@openzeppelin/contracts/token/ERC20/ERC20.sol\":1824:1837  string memory */\n      0x60\n        /* \"@openzeppelin/contracts/token/ERC20/ERC20.sol\":1856:1861  _name */\n      0x03\n        /* \"@openzeppelin/contracts/token/ERC20/ERC20.sol\":1849:1861  return _name */\n      dup1\n      sload\n      tag_144\n      swap1\n      tag_145\n      jump\t// in\n    tag_144:\n      dup1\n      0x1f\n      add\n      0x20\n      dup1\n      swap2\n      div\n      mul\n      0x20\n      add\n      mload(0x40)\n      swap1\n      dup2\n      add\n      0x40\n      mstore\n      dup1\n      swap3\n      swap2\n      swap1\n      dup2\n      dup2\n      mstore\n      0x20\n      add\n      dup3\n      dup1\n      sload\n      tag_146\n      swap1\n      tag_145\n      jump\t// in\n    tag_146:\n      dup1\n      iszero\n      tag_147\n      jumpi\n      dup1\n      0x1f\n      lt\n      tag_148\n      jumpi\n      0x0100\n      dup1\n      dup4\n      sload\n      div\n      mul\n      dup4\n      mstore\n      swap2\n      0x20\n      add\n      swap2\n      jump(tag_147)\n    tag_148:\n      dup3\n      add\n      swap2\n      swap1\n      0x00\n      mstore\n      keccak256(0x00, 0x20)\n      swap1\n    tag_149:\n      dup2\n      sload\n      dup2\n      mstore\n      swap1\n      0x01\n      add\n      swap1\n      0x20\n      add\n      dup1\n      dup4\n      gt\n      tag_149\n      jumpi\n      dup3\n      swap1\n      sub\n      0x1f\n      and\n      dup3\n      add\n      swap2\n    tag_147:\n      pop\n      pop\n      pop\n      pop\n      pop\n      swap1\n      pop\n        /* \"@openzeppelin/contracts/token/ERC20/ERC20.sol\":1779:1868  function name() public view virtual returns (string memory) {... */\n      swap1\n      jump\t// out\n        /* \"@openzeppelin/contracts/token/ERC20/ERC20.sol\":3998:4184  function approve(address spender, uint256 value) public virtual returns (bool) {... */\n    tag_51:\n        /* \"@openzeppelin/contracts/token/ERC20/ERC20.sol\":4071:4075  bool */\n      0x00\n        /* \"@openzeppelin/contracts/utils/Context.sol\":735:745  msg.sender */\n      caller\n        /* \"@openzeppelin/contracts/token/ERC20/ERC20.sol\":4125:4156  _approve(owner, spender, value) */\n      tag_153\n        /* \"@openzeppelin/contracts/utils/Context.sol\":735:745  msg.sender */\n      dup2\n        /* \"@openzeppelin/contracts/token/ERC20/ERC20.sol\":4141:4148  spender */\n      dup6\n        /* \"@openzeppelin/contracts/token/ERC20/ERC20.sol\":4150:4155  value */\n      dup6\n        /* \"@openzeppelin/contracts/token/ERC20/ERC20.sol\":4125:4133  _approve */\n      tag_154\n        /* \"@openzeppelin/contracts/token/ERC20/ERC20.sol\":4125:4156  _approve(owner, spender, value) */\n      jump\t// in\n    tag_153:\n        /* \"@openzeppelin/contracts/token/ERC20/ERC20.sol\":4173:4177  true */\n      0x01\n        /* \"@openzeppelin/contracts/token/ERC20/ERC20.sol\":4166:4177  return true */\n      swap2\n      pop\n      pop\n        /* \"@openzeppelin/contracts/token/ERC20/ERC20.sol\":3998:4184  function approve(address spender, uint256 value) public virtual returns (bool) {... */\n    tag_150:\n      swap3\n      swap2\n      pop\n      pop\n      jump\t// out\n        /* \"xeam_test_contract_1.sol\":4546:4799  function updateTaxes(uint256 _buyTax, uint256 _sellTax) external onlyOwner {... */\n    tag_57:\n        /* \"@openzeppelin/contracts/access/Ownable.sol\":1531:1544  _checkOwner() */\n      tag_156\n        /* \"@openzeppelin/contracts/access/Ownable.sol\":1531:1542  _checkOwner */\n      tag_157\n        /* \"@openzeppelin/contracts/access/Ownable.sol\":1531:1544  _checkOwner() */\n      jump\t// in\n    tag_156:\n        /* \"xeam_test_contract_1.sol\":4651:4653  15 */\n      0x0f\n        /* \"xeam_test_contract_1.sol\":4640:4647  _buyTax */\n      dup3\n        /* \"xeam_test_contract_1.sol\":4640:4653  _buyTax <= 15 */\n      gt\n      iszero\n        /* \"xeam_test_contract_1.sol\":4640:4671  _buyTax <= 15 && _sellTax <= 20 */\n      dup1\n      iszero\n      tag_159\n      jumpi\n      pop\n        /* \"xeam_test_contract_1.sol\":4669:4671  20 */\n      0x14\n        /* \"xeam_test_contract_1.sol\":4657:4665  _sellTax */\n      dup2\n        /* \"xeam_test_contract_1.sol\":4657:4671  _sellTax <= 20 */\n      gt\n      iszero\n        /* \"xeam_test_contract_1.sol\":4640:4671  _buyTax <= 15 && _sellTax <= 20 */\n    tag_159:\n        /* \"xeam_test_contract_1.sol\":4632:4688  require(_buyTax <= 15 && _sellTax <= 20, \"Tax too high\") */\n      tag_160\n      jumpi\n      mload(0x40)\n      shl(0xe5, 0x461bcd)\n      dup2\n      mstore\n        /* \"#utility.yul\":3816:3818   */\n      0x20\n        /* \"xeam_test_contract_1.sol\":4632:4688  require(_buyTax <= 15 && _sellTax <= 20, \"Tax too high\") */\n      0x04\n      dup3\n      add\n        /* \"#utility.yul\":3798:3819   */\n      mstore\n        /* \"#utility.yul\":3855:3857   */\n      0x0c\n        /* \"#utility.yul\":3835:3853   */\n      0x24\n      dup3\n      add\n        /* \"#utility.yul\":3828:3858   */\n      mstore\n      shl(0xa3, 0x0a8c2f040e8dede40d0d2ced)\n        /* \"#utility.yul\":3874:3892   */\n      0x44\n      dup3\n      add\n        /* \"#utility.yul\":3867:3909   */\n      mstore\n        /* \"#utility.yul\":3926:3944   */\n      0x64\n      add\n        /* \"xeam_test_contract_1.sol\":4632:4688  require(_buyTax <= 15 && _sellTax <= 20, \"Tax too high\") */\n    tag_161:\n      mload(0x40)\n      dup1\n      swap2\n      sub\n      swap1\n      revert\n    tag_160:\n        /* \"xeam_test_contract_1.sol\":4699:4705  buyTax */\n      0x0c\n        /* \"xeam_test_contract_1.sol\":4699:4715  buyTax = _buyTax */\n      dup3\n      swap1\n      sstore\n        /* \"xeam_test_contract_1.sol\":4726:4733  sellTax */\n      0x0d\n        /* \"xeam_test_contract_1.sol\":4726:4744  sellTax = _sellTax */\n      dup2\n      swap1\n      sstore\n        /* \"xeam_test_contract_1.sol\":4760:4791  TaxesUpdated(_buyTax, _sellTax) */\n      0x40\n      dup1\n      mload\n        /* \"#utility.yul\":4129:4154   */\n      dup4\n      dup2\n      mstore\n        /* \"#utility.yul\":4185:4187   */\n      0x20\n        /* \"#utility.yul\":4170:4188   */\n      dup2\n      add\n        /* \"#utility.yul\":4163:4197   */\n      dup4\n      swap1\n      mstore\n        /* \"xeam_test_contract_1.sol\":4760:4791  TaxesUpdated(_buyTax, _sellTax) */\n      0x35d461df023e70886ad5e68610133ecb7d637c2263453f6ea50daf699cb31ed4\n      swap2\n        /* \"#utility.yul\":4102:4120   */\n      add\n        /* \"xeam_test_contract_1.sol\":4760:4791  TaxesUpdated(_buyTax, _sellTax) */\n      mload(0x40)\n      dup1\n      swap2\n      sub\n      swap1\n      log1\n        /* \"xeam_test_contract_1.sol\":4546:4799  function updateTaxes(uint256 _buyTax, uint256 _sellTax) external onlyOwner {... */\n      pop\n      pop\n      jump\t// out\n        /* \"xeam_test_contract_1.sol\":1946:2287  function transferFrom(address sender, address recipient, uint256 amount) public override whenNotPaused returns (bool) {... */\n    tag_65:\n        /* \"xeam_test_contract_1.sol\":2058:2062  bool */\n      0x00\n        /* \"@openzeppelin/contracts/security/Pausable.sol\":1239:1258  _requireNotPaused() */\n      tag_167\n        /* \"@openzeppelin/contracts/security/Pausable.sol\":1239:1256  _requireNotPaused */\n      tag_168\n        /* \"@openzeppelin/contracts/security/Pausable.sol\":1239:1258  _requireNotPaused() */\n      jump\t// in\n    tag_167:\n        /* \"xeam_test_contract_1.sol\":2075:2122  _applyTransferLimits(sender, recipient, amount) */\n      tag_170\n        /* \"xeam_test_contract_1.sol\":2096:2102  sender */\n      dup5\n        /* \"xeam_test_contract_1.sol\":2104:2113  recipient */\n      dup5\n        /* \"xeam_test_contract_1.sol\":2115:2121  amount */\n      dup5\n        /* \"xeam_test_contract_1.sol\":2075:2095  _applyTransferLimits */\n      tag_171\n        /* \"xeam_test_contract_1.sol\":2075:2122  _applyTransferLimits(sender, recipient, amount) */\n      jump\t// in\n    tag_170:\n        /* \"xeam_test_contract_1.sol\":2133:2178  _transferWithTaxes(sender, recipient, amount) */\n      tag_172\n        /* \"xeam_test_contract_1.sol\":2152:2158  sender */\n      dup5\n        /* \"xeam_test_contract_1.sol\":2160:2169  recipient */\n      dup5\n        /* \"xeam_test_contract_1.sol\":2171:2177  amount */\n      dup5\n        /* \"xeam_test_contract_1.sol\":2133:2151  _transferWithTaxes */\n      tag_173\n        /* \"xeam_test_contract_1.sol\":2133:2178  _transferWithTaxes(sender, recipient, amount) */\n      jump\t// in\n    tag_172:\n      sub(shl(0xa0, 0x01), 0x01)\n        /* \"@openzeppelin/contracts/token/ERC20/ERC20.sol\":3657:3675  _allowances[owner] */\n      dup5\n      and\n        /* \"@openzeppelin/contracts/token/ERC20/ERC20.sol\":3631:3638  uint256 */\n      0x00\n        /* \"@openzeppelin/contracts/token/ERC20/ERC20.sol\":3657:3675  _allowances[owner] */\n      swap1\n      dup2\n      mstore\n        /* \"@openzeppelin/contracts/token/ERC20/ERC20.sol\":3657:3668  _allowances */\n      0x01\n        /* \"@openzeppelin/contracts/token/ERC20/ERC20.sol\":3657:3675  _allowances[owner] */\n      0x20\n      swap1\n      dup2\n      mstore\n      0x40\n      dup1\n      dup4\n      keccak256\n        /* \"xeam_test_contract_1.sol\":2206:2216  msg.sender */\n      caller\n        /* \"@openzeppelin/contracts/token/ERC20/ERC20.sol\":3657:3684  _allowances[owner][spender] */\n      dup1\n      dup6\n      mstore\n      swap3\n      mstore\n      swap1\n      swap2\n      keccak256\n      sload\n        /* \"xeam_test_contract_1.sol\":2189:2257  _approve(sender, msg.sender, allowance(sender, msg.sender) - amount) */\n      tag_174\n      swap2\n        /* \"@openzeppelin/contracts/token/ERC20/ERC20.sol\":3657:3675  _allowances[owner] */\n      dup7\n      swap2\n        /* \"xeam_test_contract_1.sol\":2218:2256  allowance(sender, msg.sender) - amount */\n      tag_176\n      swap1\n        /* \"xeam_test_contract_1.sol\":2250:2256  amount */\n      dup7\n      swap1\n        /* \"xeam_test_contract_1.sol\":2218:2256  allowance(sender, msg.sender) - amount */\n      tag_177\n      jump\t// in\n    tag_176:\n        /* \"xeam_test_contract_1.sol\":2189:2197  _approve */\n      tag_154\n        /* \"xeam_test_contract_1.sol\":2189:2257  _approve(sender, msg.sender, allowance(sender, msg.sender) - amount) */\n      jump\t// in\n    tag_174:\n      pop\n        /* \"xeam_test_contract_1.sol\":2275:2279  true */\n      0x01\n        /* \"xeam_test_contract_1.sol\":1946:2287  function transferFrom(address sender, address recipient, uint256 amount) public override whenNotPaused returns (bool) {... */\n      swap4\n      swap3\n      pop\n      pop\n      pop\n      jump\t// out\n        /* \"xeam_test_contract_1.sol\":4878:4945  function unpause() external onlyOwner {... */\n    tag_75:\n        /* \"@openzeppelin/contracts/access/Ownable.sol\":1531:1544  _checkOwner() */\n      tag_180\n        /* \"@openzeppelin/contracts/access/Ownable.sol\":1531:1542  _checkOwner */\n      tag_157\n        /* \"@openzeppelin/contracts/access/Ownable.sol\":1531:1544  _checkOwner() */\n      jump\t// in\n    tag_180:\n        /* \"xeam_test_contract_1.sol\":4927:4937  _unpause() */\n      tag_182\n        /* \"xeam_test_contract_1.sol\":4927:4935  _unpause */\n      tag_183\n        /* \"xeam_test_contract_1.sol\":4927:4937  _unpause() */\n      jump\t// in\n    tag_182:\n        /* \"xeam_test_contract_1.sol\":4878:4945  function unpause() external onlyOwner {... */\n      jump\t// out\n        /* \"@openzeppelin/contracts/access/Ownable.sol\":2293:2394  function renounceOwnership() public virtual onlyOwner {... */\n    tag_95:\n        /* \"@openzeppelin/contracts/access/Ownable.sol\":1531:1544  _checkOwner() */\n      tag_187\n        /* \"@openzeppelin/contracts/access/Ownable.sol\":1531:1542  _checkOwner */\n      tag_157\n        /* \"@openzeppelin/contracts/access/Ownable.sol\":1531:1544  _checkOwner() */\n      jump\t// in\n    tag_187:\n        /* \"@openzeppelin/contracts/access/Ownable.sol\":2357:2387  _transferOwnership(address(0)) */\n      tag_182\n        /* \"@openzeppelin/contracts/access/Ownable.sol\":2384:2385  0 */\n      0x00\n        /* \"@openzeppelin/contracts/access/Ownable.sol\":2357:2375  _transferOwnership */\n      tag_190\n        /* \"@openzeppelin/contracts/access/Ownable.sol\":2357:2387  _transferOwnership(address(0)) */\n      jump\t// in\n        /* \"xeam_test_contract_1.sol\":4163:4308  function updateExcludedAccountStatus(address account, bool excluded) external onlyOwner {... */\n    tag_99:\n        /* \"@openzeppelin/contracts/access/Ownable.sol\":1531:1544  _checkOwner() */\n      tag_192\n        /* \"@openzeppelin/contracts/access/Ownable.sol\":1531:1542  _checkOwner */\n      tag_157\n        /* \"@openzeppelin/contracts/access/Ownable.sol\":1531:1544  _checkOwner() */\n      jump\t// in\n    tag_192:\n      sub(shl(0xa0, 0x01), 0x01)\n        /* \"xeam_test_contract_1.sol\":4262:4289  isExcludedFromFees[account] */\n      swap2\n      swap1\n      swap2\n      and\n      0x00\n      swap1\n      dup2\n      mstore\n        /* \"xeam_test_contract_1.sol\":4262:4280  isExcludedFromFees */\n      0x0e\n        /* \"xeam_test_contract_1.sol\":4262:4289  isExcludedFromFees[account] */\n      0x20\n      mstore\n      0x40\n      swap1\n      keccak256\n        /* \"xeam_test_contract_1.sol\":4262:4300  isExcludedFromFees[account] = excluded */\n      dup1\n      sload\n      not(0xff)\n      and\n      swap2\n      iszero\n      iszero\n      swap2\n      swap1\n      swap2\n      or\n      swap1\n      sstore\n        /* \"xeam_test_contract_1.sol\":4163:4308  function updateExcludedAccountStatus(address account, bool excluded) external onlyOwner {... */\n      jump\t// out\n        /* \"xeam_test_contract_1.sol\":4807:4870  function pause() external onlyOwner {... */\n    tag_104:\n        /* \"@openzeppelin/contracts/access/Ownable.sol\":1531:1544  _checkOwner() */\n      tag_195\n        /* \"@openzeppelin/contracts/access/Ownable.sol\":1531:1542  _checkOwner */\n      tag_157\n        /* \"@openzeppelin/contracts/access/Ownable.sol\":1531:1544  _checkOwner() */\n      jump\t// in\n    tag_195:\n        /* \"xeam_test_contract_1.sol\":4854:4862  _pause() */\n      tag_182\n        /* \"xeam_test_contract_1.sol\":4854:4860  _pause */\n      tag_198\n        /* \"xeam_test_contract_1.sol\":4854:4862  _pause() */\n      jump\t// in\n        /* \"@openzeppelin/contracts/token/ERC20/ERC20.sol\":1981:2074  function symbol() public view virtual returns (string memory) {... */\n    tag_109:\n        /* \"@openzeppelin/contracts/token/ERC20/ERC20.sol\":2028:2041  string memory */\n      0x60\n        /* \"@openzeppelin/contracts/token/ERC20/ERC20.sol\":2060:2067  _symbol */\n      0x04\n        /* \"@openzeppelin/contracts/token/ERC20/ERC20.sol\":2053:2067  return _symbol */\n      dup1\n      sload\n      tag_144\n      swap1\n      tag_145\n      jump\t// in\n        /* \"xeam_test_contract_1.sol\":1688:1938  function transfer(address recipient, uint256 amount) public override whenNotPaused returns (bool) {... */\n    tag_113:\n        /* \"xeam_test_contract_1.sol\":1780:1784  bool */\n      0x00\n        /* \"@openzeppelin/contracts/security/Pausable.sol\":1239:1258  _requireNotPaused() */\n      tag_207\n        /* \"@openzeppelin/contracts/security/Pausable.sol\":1239:1256  _requireNotPaused */\n      tag_168\n        /* \"@openzeppelin/contracts/security/Pausable.sol\":1239:1258  _requireNotPaused() */\n      jump\t// in\n    tag_207:\n        /* \"xeam_test_contract_1.sol\":1797:1848  _applyTransferLimits(msg.sender, recipient, amount) */\n      tag_209\n        /* \"xeam_test_contract_1.sol\":1818:1828  msg.sender */\n      caller\n        /* \"xeam_test_contract_1.sol\":1830:1839  recipient */\n      dup5\n        /* \"xeam_test_contract_1.sol\":1841:1847  amount */\n      dup5\n        /* \"xeam_test_contract_1.sol\":1797:1817  _applyTransferLimits */\n      tag_171\n        /* \"xeam_test_contract_1.sol\":1797:1848  _applyTransferLimits(msg.sender, recipient, amount) */\n      jump\t// in\n    tag_209:\n        /* \"xeam_test_contract_1.sol\":1859:1908  _transferWithTaxes(msg.sender, recipient, amount) */\n      tag_210\n        /* \"xeam_test_contract_1.sol\":1878:1888  msg.sender */\n      caller\n        /* \"xeam_test_contract_1.sol\":1890:1899  recipient */\n      dup5\n        /* \"xeam_test_contract_1.sol\":1901:1907  amount */\n      dup5\n        /* \"xeam_test_contract_1.sol\":1859:1877  _transferWithTaxes */\n      tag_173\n        /* \"xeam_test_contract_1.sol\":1859:1908  _transferWithTaxes(msg.sender, recipient, amount) */\n      jump\t// in\n    tag_210:\n      pop\n        /* \"xeam_test_contract_1.sol\":1926:1930  true */\n      0x01\n        /* \"xeam_test_contract_1.sol\":1688:1938  function transfer(address recipient, uint256 amount) public override whenNotPaused returns (bool) {... */\n      swap3\n      swap2\n      pop\n      pop\n      jump\t// out\n        /* \"xeam_test_contract_1.sol\":3892:4155  function withdrawLPFunds() external onlyOwner {... */\n    tag_116:\n        /* \"@openzeppelin/contracts/access/Ownable.sol\":1531:1544  _checkOwner() */\n      tag_212\n        /* \"@openzeppelin/contracts/access/Ownable.sol\":1531:1542  _checkOwner */\n      tag_157\n        /* \"@openzeppelin/contracts/access/Ownable.sol\":1531:1544  _checkOwner() */\n      jump\t// in\n    tag_212:\n        /* \"xeam_test_contract_1.sol\":3985:3989  this */\n      address\n        /* \"xeam_test_contract_1.sol\":3949:3964  uint256 balance */\n      0x00\n        /* \"@openzeppelin/contracts/token/ERC20/ERC20.sol\":3095:3113  _balances[account] */\n      swap1\n      dup2\n      mstore\n      0x20\n      dup2\n      swap1\n      mstore\n      0x40\n      swap1\n      keccak256\n      sload\n        /* \"xeam_test_contract_1.sol\":4010:4021  balance > 0 */\n      dup1\n        /* \"xeam_test_contract_1.sol\":4002:4047  require(balance > 0, \"No LP funds available\") */\n      tag_215\n      jumpi\n      mload(0x40)\n      shl(0xe5, 0x461bcd)\n      dup2\n      mstore\n        /* \"#utility.yul\":4675:4677   */\n      0x20\n        /* \"xeam_test_contract_1.sol\":4002:4047  require(balance > 0, \"No LP funds available\") */\n      0x04\n      dup3\n      add\n        /* \"#utility.yul\":4657:4678   */\n      mstore\n        /* \"#utility.yul\":4714:4716   */\n      0x15\n        /* \"#utility.yul\":4694:4712   */\n      0x24\n      dup3\n      add\n        /* \"#utility.yul\":4687:4717   */\n      mstore\n      shl(0x58, 0x4e6f204c502066756e647320617661696c61626c65)\n        /* \"#utility.yul\":4733:4751   */\n      0x44\n      dup3\n      add\n        /* \"#utility.yul\":4726:4777   */\n      mstore\n        /* \"#utility.yul\":4794:4812   */\n      0x64\n      add\n        /* \"xeam_test_contract_1.sol\":4002:4047  require(balance > 0, \"No LP funds available\") */\n      tag_161\n        /* \"#utility.yul\":4473:4818   */\n      jump\n        /* \"xeam_test_contract_1.sol\":4002:4047  require(balance > 0, \"No LP funds available\") */\n    tag_215:\n        /* \"xeam_test_contract_1.sol\":4058:4106  super._transfer(address(this), owner(), balance) */\n      tag_218\n        /* \"xeam_test_contract_1.sol\":4082:4086  this */\n      address\n        /* \"xeam_test_contract_1.sol\":4089:4096  owner() */\n      tag_219\n        /* \"@openzeppelin/contracts/access/Ownable.sol\":1710:1716  _owner */\n      and(sub(shl(0xa0, 0x01), 0x01), sload(0x05))\n      swap1\n        /* \"@openzeppelin/contracts/access/Ownable.sol\":1638:1723  function owner() public view virtual returns (address) {... */\n      jump\n        /* \"xeam_test_contract_1.sol\":4089:4096  owner() */\n    tag_219:\n        /* \"xeam_test_contract_1.sol\":4098:4105  balance */\n      dup4\n        /* \"xeam_test_contract_1.sol\":4058:4073  super._transfer */\n      tag_220\n        /* \"xeam_test_contract_1.sol\":4058:4106  super._transfer(address(this), owner(), balance) */\n      jump\t// in\n    tag_218:\n        /* \"xeam_test_contract_1.sol\":4122:4147  LPFundsWithdrawn(balance) */\n      mload(0x40)\n        /* \"#utility.yul\":1817:1842   */\n      dup2\n      dup2\n      mstore\n        /* \"xeam_test_contract_1.sol\":4122:4147  LPFundsWithdrawn(balance) */\n      0xbba45ff8bcb537fdedce576e22fc876a23312f65b5166c004136ece621f3ea93\n      swap1\n        /* \"#utility.yul\":1805:1807   */\n      0x20\n        /* \"#utility.yul\":1790:1808   */\n      add\n        /* \"xeam_test_contract_1.sol\":4122:4147  LPFundsWithdrawn(balance) */\n    tag_221:\n      mload(0x40)\n      dup1\n      swap2\n      sub\n      swap1\n      log1\n        /* \"xeam_test_contract_1.sol\":3938:4155  {... */\n      pop\n        /* \"xeam_test_contract_1.sol\":3892:4155  function withdrawLPFunds() external onlyOwner {... */\n      jump\t// out\n        /* \"xeam_test_contract_1.sol\":4316:4538  function updateUniswapPair(address newPair) external onlyOwner {... */\n    tag_119:\n        /* \"@openzeppelin/contracts/access/Ownable.sol\":1531:1544  _checkOwner() */\n      tag_223\n        /* \"@openzeppelin/contracts/access/Ownable.sol\":1531:1542  _checkOwner */\n      tag_157\n        /* \"@openzeppelin/contracts/access/Ownable.sol\":1531:1544  _checkOwner() */\n      jump\t// in\n    tag_223:\n      sub(shl(0xa0, 0x01), 0x01)\n        /* \"xeam_test_contract_1.sol\":4398:4419  newPair != address(0) */\n      dup2\n      and\n        /* \"xeam_test_contract_1.sol\":4390:4455  require(newPair != address(0), \"New pair address cannot be zero\") */\n      tag_225\n      jumpi\n      mload(0x40)\n      shl(0xe5, 0x461bcd)\n      dup2\n      mstore\n        /* \"#utility.yul\":5025:5027   */\n      0x20\n        /* \"xeam_test_contract_1.sol\":4390:4455  require(newPair != address(0), \"New pair address cannot be zero\") */\n      0x04\n      dup3\n      add\n        /* \"#utility.yul\":5007:5028   */\n      mstore\n        /* \"#utility.yul\":5064:5066   */\n      0x1f\n        /* \"#utility.yul\":5044:5062   */\n      0x24\n      dup3\n      add\n        /* \"#utility.yul\":5037:5067   */\n      mstore\n        /* \"#utility.yul\":5103:5136   */\n      0x4e6577207061697220616464726573732063616e6e6f74206265207a65726f00\n        /* \"#utility.yul\":5083:5101   */\n      0x44\n      dup3\n      add\n        /* \"#utility.yul\":5076:5137   */\n      mstore\n        /* \"#utility.yul\":5154:5172   */\n      0x64\n      add\n        /* \"xeam_test_contract_1.sol\":4390:4455  require(newPair != address(0), \"New pair address cannot be zero\") */\n      tag_161\n        /* \"#utility.yul\":4823:5178   */\n      jump\n        /* \"xeam_test_contract_1.sol\":4390:4455  require(newPair != address(0), \"New pair address cannot be zero\") */\n    tag_225:\n        /* \"xeam_test_contract_1.sol\":4466:4477  uniswapPair */\n      0x0b\n        /* \"xeam_test_contract_1.sol\":4466:4487  uniswapPair = newPair */\n      dup1\n      sload\n      not(sub(shl(0xa0, 0x01), 0x01))\n      and\n      sub(shl(0xa0, 0x01), 0x01)\n      dup4\n      and\n      swap1\n      dup2\n      or\n      swap1\n      swap2\n      sstore\n        /* \"xeam_test_contract_1.sol\":4503:4530  UniswapPairUpdated(newPair) */\n      mload(0x40)\n        /* \"#utility.yul\":160:211   */\n      swap1\n      dup2\n      mstore\n        /* \"xeam_test_contract_1.sol\":4503:4530  UniswapPairUpdated(newPair) */\n      0xdd2689cb5e1ca91bab290e22ada24c52705073cf17bacb82133714fa84271344\n      swap1\n        /* \"#utility.yul\":148:150   */\n      0x20\n        /* \"#utility.yul\":133:151   */\n      add\n        /* \"xeam_test_contract_1.sol\":4503:4530  UniswapPairUpdated(newPair) */\n      tag_221\n        /* \"#utility.yul\":14:217   */\n      jump\n        /* \"xeam_test_contract_1.sol\":432:495  uint256 public constant MAX_WALLET = (INITIAL_SUPPLY * 1) / 100 */\n    tag_135:\n        /* \"xeam_test_contract_1.sol\":492:495  100 */\n      0x64\n        /* \"xeam_test_contract_1.sol\":470:488  INITIAL_SUPPLY * 1 */\n      tag_230\n        /* \"xeam_test_contract_1.sol\":407:425  2_000_000 * 10**18 */\n      0x01a784379d99db42000000\n        /* \"xeam_test_contract_1.sol\":487:488  1 */\n      0x01\n        /* \"xeam_test_contract_1.sol\":470:488  INITIAL_SUPPLY * 1 */\n      tag_231\n      jump\t// in\n    tag_230:\n        /* \"xeam_test_contract_1.sol\":469:495  (INITIAL_SUPPLY * 1) / 100 */\n      tag_232\n      swap2\n      swap1\n      tag_233\n      jump\t// in\n    tag_232:\n        /* \"xeam_test_contract_1.sol\":432:495  uint256 public constant MAX_WALLET = (INITIAL_SUPPLY * 1) / 100 */\n      dup2\n      jump\t// out\n        /* \"@openzeppelin/contracts/access/Ownable.sol\":2543:2758  function transferOwnership(address newOwner) public virtual onlyOwner {... */\n    tag_139:\n        /* \"@openzeppelin/contracts/access/Ownable.sol\":1531:1544  _checkOwner() */\n      tag_235\n        /* \"@openzeppelin/contracts/access/Ownable.sol\":1531:1542  _checkOwner */\n      tag_157\n        /* \"@openzeppelin/contracts/access/Ownable.sol\":1531:1544  _checkOwner() */\n      jump\t// in\n    tag_235:\n      sub(shl(0xa0, 0x01), 0x01)\n        /* \"@openzeppelin/contracts/access/Ownable.sol\":2627:2649  newOwner == address(0) */\n      dup2\n      and\n        /* \"@openzeppelin/contracts/access/Ownable.sol\":2623:2714  if (newOwner == address(0)) {... */\n      tag_237\n      jumpi\n        /* \"@openzeppelin/contracts/access/Ownable.sol\":2672:2703  OwnableInvalidOwner(address(0)) */\n      mload(0x40)\n      shl(0xe0, 0x1e4fbdf7)\n      dup2\n      mstore\n        /* \"@openzeppelin/contracts/access/Ownable.sol\":2700:2701  0 */\n      0x00\n        /* \"@openzeppelin/contracts/access/Ownable.sol\":2672:2703  OwnableInvalidOwner(address(0)) */\n      0x04\n      dup3\n      add\n        /* \"#utility.yul\":160:211   */\n      mstore\n        /* \"#utility.yul\":133:151   */\n      0x24\n      add\n        /* \"@openzeppelin/contracts/access/Ownable.sol\":2672:2703  OwnableInvalidOwner(address(0)) */\n      tag_161\n        /* \"#utility.yul\":14:217   */\n      jump\n        /* \"@openzeppelin/contracts/access/Ownable.sol\":2623:2714  if (newOwner == address(0)) {... */\n    tag_237:\n        /* \"@openzeppelin/contracts/access/Ownable.sol\":2723:2751  _transferOwnership(newOwner) */\n      tag_239\n        /* \"@openzeppelin/contracts/access/Ownable.sol\":2742:2750  newOwner */\n      dup2\n        /* \"@openzeppelin/contracts/access/Ownable.sol\":2723:2741  _transferOwnership */\n      tag_190\n        /* \"@openzeppelin/contracts/access/Ownable.sol\":2723:2751  _transferOwnership(newOwner) */\n      jump\t// in\n    tag_239:\n        /* \"@openzeppelin/contracts/access/Ownable.sol\":2543:2758  function transferOwnership(address newOwner) public virtual onlyOwner {... */\n      pop\n      jump\t// out\n        /* \"xeam_test_contract_1.sol\":508:569  uint256 public constant MAX_TX = (INITIAL_SUPPLY * 5) / 10000 */\n    tag_141:\n        /* \"xeam_test_contract_1.sol\":564:569  10000 */\n      0x2710\n        /* \"xeam_test_contract_1.sol\":542:560  INITIAL_SUPPLY * 5 */\n      tag_230\n        /* \"xeam_test_contract_1.sol\":407:425  2_000_000 * 10**18 */\n      0x01a784379d99db42000000\n        /* \"xeam_test_contract_1.sol\":559:560  5 */\n      0x05\n        /* \"xeam_test_contract_1.sol\":542:560  INITIAL_SUPPLY * 5 */\n      tag_231\n      jump\t// in\n        /* \"@openzeppelin/contracts/token/ERC20/ERC20.sol\":8726:8854  function _approve(address owner, address spender, uint256 value) internal {... */\n    tag_154:\n        /* \"@openzeppelin/contracts/token/ERC20/ERC20.sol\":8810:8847  _approve(owner, spender, value, true) */\n      tag_244\n        /* \"@openzeppelin/contracts/token/ERC20/ERC20.sol\":8819:8824  owner */\n      dup4\n        /* \"@openzeppelin/contracts/token/ERC20/ERC20.sol\":8826:8833  spender */\n      dup4\n        /* \"@openzeppelin/contracts/token/ERC20/ERC20.sol\":8835:8840  value */\n      dup4\n        /* \"@openzeppelin/contracts/token/ERC20/ERC20.sol\":8842:8846  true */\n      0x01\n        /* \"@openzeppelin/contracts/token/ERC20/ERC20.sol\":8810:8818  _approve */\n      tag_245\n        /* \"@openzeppelin/contracts/token/ERC20/ERC20.sol\":8810:8847  _approve(owner, spender, value, true) */\n      jump\t// in\n    tag_244:\n        /* \"@openzeppelin/contracts/token/ERC20/ERC20.sol\":8726:8854  function _approve(address owner, address spender, uint256 value) internal {... */\n      pop\n      pop\n      pop\n      jump\t// out\n        /* \"@openzeppelin/contracts/access/Ownable.sol\":1796:1958  function _checkOwner() internal view virtual {... */\n    tag_157:\n        /* \"@openzeppelin/contracts/access/Ownable.sol\":1710:1716  _owner */\n      and(sub(shl(0xa0, 0x01), 0x01), sload(0x05))\n        /* \"@openzeppelin/contracts/utils/Context.sol\":735:745  msg.sender */\n      caller\n        /* \"@openzeppelin/contracts/access/Ownable.sol\":1855:1878  owner() != _msgSender() */\n      eq\n        /* \"@openzeppelin/contracts/access/Ownable.sol\":1851:1952  if (owner() != _msgSender()) {... */\n      tag_182\n      jumpi\n        /* \"@openzeppelin/contracts/access/Ownable.sol\":1901:1941  OwnableUnauthorizedAccount(_msgSender()) */\n      mload(0x40)\n      shl(0xe0, 0x118cdaa7)\n      dup2\n      mstore\n        /* \"@openzeppelin/contracts/utils/Context.sol\":735:745  msg.sender */\n      caller\n        /* \"@openzeppelin/contracts/access/Ownable.sol\":1901:1941  OwnableUnauthorizedAccount(_msgSender()) */\n      0x04\n      dup3\n      add\n        /* \"#utility.yul\":160:211   */\n      mstore\n        /* \"#utility.yul\":133:151   */\n      0x24\n      add\n        /* \"@openzeppelin/contracts/access/Ownable.sol\":1901:1941  OwnableUnauthorizedAccount(_msgSender()) */\n      tag_161\n        /* \"#utility.yul\":14:217   */\n      jump\n        /* \"@openzeppelin/contracts/security/Pausable.sol\":1767:1873  function _requireNotPaused() internal view virtual {... */\n    tag_168:\n        /* \"@openzeppelin/contracts/security/Pausable.sol\":1685:1692  _paused */\n      and(0xff, sload(0x07))\n        /* \"@openzeppelin/contracts/security/Pausable.sol\":1836:1845  !paused() */\n      iszero\n        /* \"@openzeppelin/contracts/security/Pausable.sol\":1828:1866  require(!paused(), \"Pausable: paused\") */\n      tag_182\n      jumpi\n      mload(0x40)\n      shl(0xe5, 0x461bcd)\n      dup2\n      mstore\n        /* \"#utility.yul\":5780:5782   */\n      0x20\n        /* \"@openzeppelin/contracts/security/Pausable.sol\":1828:1866  require(!paused(), \"Pausable: paused\") */\n      0x04\n      dup3\n      add\n        /* \"#utility.yul\":5762:5783   */\n      mstore\n        /* \"#utility.yul\":5819:5821   */\n      0x10\n        /* \"#utility.yul\":5799:5817   */\n      0x24\n      dup3\n      add\n        /* \"#utility.yul\":5792:5822   */\n      mstore\n      shl(0x82, 0x14185d5cd8589b194e881c185d5cd959)\n        /* \"#utility.yul\":5838:5856   */\n      0x44\n      dup3\n      add\n        /* \"#utility.yul\":5831:5877   */\n      mstore\n        /* \"#utility.yul\":5894:5912   */\n      0x64\n      add\n        /* \"@openzeppelin/contracts/security/Pausable.sol\":1828:1866  require(!paused(), \"Pausable: paused\") */\n      tag_161\n        /* \"#utility.yul\":5578:5918   */\n      jump\n        /* \"xeam_test_contract_1.sol\":2295:2621  function _applyTransferLimits(address sender, address recipient, uint256 amount) internal view {... */\n    tag_171:\n      sub(shl(0xa0, 0x01), 0x01)\n        /* \"xeam_test_contract_1.sol\":2406:2432  isExcludedFromFees[sender] */\n      dup4\n      and\n      0x00\n      swap1\n      dup2\n      mstore\n        /* \"xeam_test_contract_1.sol\":2406:2424  isExcludedFromFees */\n      0x0e\n        /* \"xeam_test_contract_1.sol\":2406:2432  isExcludedFromFees[sender] */\n      0x20\n      mstore\n      0x40\n      swap1\n      keccak256\n      sload\n      0xff\n      and\n        /* \"xeam_test_contract_1.sol\":2401:2614  if (!isExcludedFromFees[sender]) {... */\n      tag_244\n      jumpi\n        /* \"xeam_test_contract_1.sol\":492:495  100 */\n      0x64\n        /* \"xeam_test_contract_1.sol\":470:488  INITIAL_SUPPLY * 1 */\n      tag_259\n        /* \"xeam_test_contract_1.sol\":407:425  2_000_000 * 10**18 */\n      0x01a784379d99db42000000\n        /* \"xeam_test_contract_1.sol\":487:488  1 */\n      0x01\n        /* \"xeam_test_contract_1.sol\":470:488  INITIAL_SUPPLY * 1 */\n      tag_231\n      jump\t// in\n    tag_259:\n        /* \"xeam_test_contract_1.sol\":469:495  (INITIAL_SUPPLY * 1) / 100 */\n      tag_260\n      swap2\n      swap1\n      tag_233\n      jump\t// in\n    tag_260:\n        /* \"xeam_test_contract_1.sol\":2480:2486  amount */\n      dup2\n        /* \"xeam_test_contract_1.sol\":2457:2477  balanceOf(recipient) */\n      tag_261\n        /* \"xeam_test_contract_1.sol\":2467:2476  recipient */\n      dup5\n      sub(shl(0xa0, 0x01), 0x01)\n        /* \"@openzeppelin/contracts/token/ERC20/ERC20.sol\":3095:3113  _balances[account] */\n      and\n        /* \"@openzeppelin/contracts/token/ERC20/ERC20.sol\":3069:3076  uint256 */\n      0x00\n        /* \"@openzeppelin/contracts/token/ERC20/ERC20.sol\":3095:3113  _balances[account] */\n      swap1\n      dup2\n      mstore\n      0x20\n      dup2\n      swap1\n      mstore\n      0x40\n      swap1\n      keccak256\n      sload\n      swap1\n        /* \"@openzeppelin/contracts/token/ERC20/ERC20.sol\":3004:3120  function balanceOf(address account) public view virtual returns (uint256) {... */\n      jump\n        /* \"xeam_test_contract_1.sol\":2457:2477  balanceOf(recipient) */\n    tag_261:\n        /* \"xeam_test_contract_1.sol\":2457:2486  balanceOf(recipient) + amount */\n      tag_262\n      swap2\n      swap1\n      tag_263\n      jump\t// in\n    tag_262:\n        /* \"xeam_test_contract_1.sol\":2457:2500  balanceOf(recipient) + amount <= MAX_WALLET */\n      gt\n      iszero\n        /* \"xeam_test_contract_1.sol\":2449:2529  require(balanceOf(recipient) + amount <= MAX_WALLET, \"Exceeds max wallet limit\") */\n      tag_264\n      jumpi\n      mload(0x40)\n      shl(0xe5, 0x461bcd)\n      dup2\n      mstore\n        /* \"#utility.yul\":6255:6257   */\n      0x20\n        /* \"xeam_test_contract_1.sol\":2449:2529  require(balanceOf(recipient) + amount <= MAX_WALLET, \"Exceeds max wallet limit\") */\n      0x04\n      dup3\n      add\n        /* \"#utility.yul\":6237:6258   */\n      mstore\n        /* \"#utility.yul\":6294:6296   */\n      0x18\n        /* \"#utility.yul\":6274:6292   */\n      0x24\n      dup3\n      add\n        /* \"#utility.yul\":6267:6297   */\n      mstore\n        /* \"#utility.yul\":6333:6359   */\n      0x45786365656473206d61782077616c6c6574206c696d69740000000000000000\n        /* \"#utility.yul\":6313:6331   */\n      0x44\n      dup3\n      add\n        /* \"#utility.yul\":6306:6360   */\n      mstore\n        /* \"#utility.yul\":6377:6395   */\n      0x64\n      add\n        /* \"xeam_test_contract_1.sol\":2449:2529  require(balanceOf(recipient) + amount <= MAX_WALLET, \"Exceeds max wallet limit\") */\n      tag_161\n        /* \"#utility.yul\":6053:6401   */\n      jump\n        /* \"xeam_test_contract_1.sol\":2449:2529  require(balanceOf(recipient) + amount <= MAX_WALLET, \"Exceeds max wallet limit\") */\n    tag_264:\n        /* \"xeam_test_contract_1.sol\":564:569  10000 */\n      0x2710\n        /* \"xeam_test_contract_1.sol\":542:560  INITIAL_SUPPLY * 5 */\n      tag_267\n        /* \"xeam_test_contract_1.sol\":407:425  2_000_000 * 10**18 */\n      0x01a784379d99db42000000\n        /* \"xeam_test_contract_1.sol\":559:560  5 */\n      0x05\n        /* \"xeam_test_contract_1.sol\":542:560  INITIAL_SUPPLY * 5 */\n      tag_231\n      jump\t// in\n    tag_267:\n        /* \"xeam_test_contract_1.sol\":541:569  (INITIAL_SUPPLY * 5) / 10000 */\n      tag_268\n      swap2\n      swap1\n      tag_233\n      jump\t// in\n    tag_268:\n        /* \"xeam_test_contract_1.sol\":2552:2558  amount */\n      dup2\n        /* \"xeam_test_contract_1.sol\":2552:2568  amount <= MAX_TX */\n      gt\n      iszero\n        /* \"xeam_test_contract_1.sol\":2544:2602  require(amount <= MAX_TX, \"Exceeds max transaction limit\") */\n      tag_244\n      jumpi\n      mload(0x40)\n      shl(0xe5, 0x461bcd)\n      dup2\n      mstore\n        /* \"#utility.yul\":6608:6610   */\n      0x20\n        /* \"xeam_test_contract_1.sol\":2544:2602  require(amount <= MAX_TX, \"Exceeds max transaction limit\") */\n      0x04\n      dup3\n      add\n        /* \"#utility.yul\":6590:6611   */\n      mstore\n        /* \"#utility.yul\":6647:6649   */\n      0x1d\n        /* \"#utility.yul\":6627:6645   */\n      0x24\n      dup3\n      add\n        /* \"#utility.yul\":6620:6650   */\n      mstore\n        /* \"#utility.yul\":6686:6717   */\n      0x45786365656473206d6178207472616e73616374696f6e206c696d6974000000\n        /* \"#utility.yul\":6666:6684   */\n      0x44\n      dup3\n      add\n        /* \"#utility.yul\":6659:6718   */\n      mstore\n        /* \"#utility.yul\":6735:6753   */\n      0x64\n      add\n        /* \"xeam_test_contract_1.sol\":2544:2602  require(amount <= MAX_TX, \"Exceeds max transaction limit\") */\n      tag_161\n        /* \"#utility.yul\":6406:6759   */\n      jump\n        /* \"xeam_test_contract_1.sol\":2629:3884  function _transferWithTaxes(address sender, address recipient, uint256 amount) internal {... */\n    tag_173:\n        /* \"xeam_test_contract_1.sol\":2756:2767  uniswapPair */\n      sload(0x0b)\n        /* \"xeam_test_contract_1.sol\":2728:2739  uint256 tax */\n      0x00\n      swap1\n      sub(shl(0xa0, 0x01), 0x01)\n        /* \"xeam_test_contract_1.sol\":2743:2767  recipient == uniswapPair */\n      dup5\n      dup2\n      and\n        /* \"xeam_test_contract_1.sol\":2756:2767  uniswapPair */\n      swap2\n      and\n        /* \"xeam_test_contract_1.sol\":2743:2767  recipient == uniswapPair */\n      eq\n        /* \"xeam_test_contract_1.sol\":2742:2821  (recipient == uniswapPair) ? (amount * sellTax) / 100 : (amount * buyTax) / 100 */\n      tag_273\n      jumpi\n        /* \"xeam_test_contract_1.sol\":2818:2821  100 */\n      0x64\n        /* \"xeam_test_contract_1.sol\":2808:2814  buyTax */\n      sload(0x0c)\n        /* \"xeam_test_contract_1.sol\":2799:2805  amount */\n      dup4\n        /* \"xeam_test_contract_1.sol\":2799:2814  amount * buyTax */\n      tag_274\n      swap2\n      swap1\n      tag_231\n      jump\t// in\n    tag_274:\n        /* \"xeam_test_contract_1.sol\":2798:2821  (amount * buyTax) / 100 */\n      tag_275\n      swap2\n      swap1\n      tag_233\n      jump\t// in\n    tag_275:\n        /* \"xeam_test_contract_1.sol\":2742:2821  (recipient == uniswapPair) ? (amount * sellTax) / 100 : (amount * buyTax) / 100 */\n      jump(tag_278)\n    tag_273:\n        /* \"xeam_test_contract_1.sol\":2792:2795  100 */\n      0x64\n        /* \"xeam_test_contract_1.sol\":2781:2788  sellTax */\n      sload(0x0d)\n        /* \"xeam_test_contract_1.sol\":2772:2778  amount */\n      dup4\n        /* \"xeam_test_contract_1.sol\":2772:2788  amount * sellTax */\n      tag_277\n      swap2\n      swap1\n      tag_231\n      jump\t// in\n    tag_277:\n        /* \"xeam_test_contract_1.sol\":2771:2795  (amount * sellTax) / 100 */\n      tag_278\n      swap2\n      swap1\n      tag_233\n      jump\t// in\n    tag_278:\n        /* \"xeam_test_contract_1.sol\":2728:2821  uint256 tax = (recipient == uniswapPair) ? (amount * sellTax) / 100 : (amount * buyTax) / 100 */\n      swap1\n      pop\n        /* \"xeam_test_contract_1.sol\":2850:2853  tax */\n      dup1\n        /* \"xeam_test_contract_1.sol\":2840:2846  amount */\n      dup3\n        /* \"xeam_test_contract_1.sol\":2840:2853  amount >= tax */\n      lt\n      iszero\n        /* \"xeam_test_contract_1.sol\":2832:2885  require(amount >= tax, \"Tax exceeds transfer amount\") */\n      tag_279\n      jumpi\n      mload(0x40)\n      shl(0xe5, 0x461bcd)\n      dup2\n      mstore\n        /* \"#utility.yul\":6966:6968   */\n      0x20\n        /* \"xeam_test_contract_1.sol\":2832:2885  require(amount >= tax, \"Tax exceeds transfer amount\") */\n      0x04\n      dup3\n      add\n        /* \"#utility.yul\":6948:6969   */\n      mstore\n        /* \"#utility.yul\":7005:7007   */\n      0x1b\n        /* \"#utility.yul\":6985:7003   */\n      0x24\n      dup3\n      add\n        /* \"#utility.yul\":6978:7008   */\n      mstore\n        /* \"#utility.yul\":7044:7073   */\n      0x5461782065786365656473207472616e7366657220616d6f756e740000000000\n        /* \"#utility.yul\":7024:7042   */\n      0x44\n      dup3\n      add\n        /* \"#utility.yul\":7017:7074   */\n      mstore\n        /* \"#utility.yul\":7091:7109   */\n      0x64\n      add\n        /* \"xeam_test_contract_1.sol\":2832:2885  require(amount >= tax, \"Tax exceeds transfer amount\") */\n      tag_161\n        /* \"#utility.yul\":6764:7115   */\n      jump\n        /* \"xeam_test_contract_1.sol\":2832:2885  require(amount >= tax, \"Tax exceeds transfer amount\") */\n    tag_279:\n        /* \"xeam_test_contract_1.sol\":2898:2915  uint256 netAmount */\n      0x00\n        /* \"xeam_test_contract_1.sol\":2918:2930  amount - tax */\n      tag_282\n        /* \"xeam_test_contract_1.sol\":2927:2930  tax */\n      dup3\n        /* \"xeam_test_contract_1.sol\":2918:2924  amount */\n      dup5\n        /* \"xeam_test_contract_1.sol\":2918:2930  amount - tax */\n      tag_177\n      jump\t// in\n    tag_282:\n        /* \"xeam_test_contract_1.sol\":2898:2930  uint256 netAmount = amount - tax */\n      swap1\n      pop\n        /* \"xeam_test_contract_1.sol\":2941:2956  uint256 lpShare */\n      0x00\n        /* \"xeam_test_contract_1.sol\":2971:2973  12 */\n      0x0c\n        /* \"xeam_test_contract_1.sol\":2960:2967  tax * 4 */\n      tag_283\n        /* \"xeam_test_contract_1.sol\":2960:2963  tax */\n      dup5\n        /* \"xeam_test_contract_1.sol\":2966:2967  4 */\n      0x04\n        /* \"xeam_test_contract_1.sol\":2960:2967  tax * 4 */\n      tag_231\n      jump\t// in\n    tag_283:\n        /* \"xeam_test_contract_1.sol\":2959:2973  (tax * 4) / 12 */\n      tag_284\n      swap2\n      swap1\n      tag_233\n      jump\t// in\n    tag_284:\n        /* \"xeam_test_contract_1.sol\":2941:2973  uint256 lpShare = (tax * 4) / 12 */\n      swap1\n      pop\n        /* \"xeam_test_contract_1.sol\":2984:3010  uint256 encouragementShare */\n      0x00\n        /* \"xeam_test_contract_1.sol\":3025:3027  12 */\n      0x0c\n        /* \"xeam_test_contract_1.sol\":3014:3021  tax * 4 */\n      tag_285\n        /* \"xeam_test_contract_1.sol\":3014:3017  tax */\n      dup6\n        /* \"xeam_test_contract_1.sol\":3020:3021  4 */\n      0x04\n        /* \"xeam_test_contract_1.sol\":3014:3021  tax * 4 */\n      tag_231\n      jump\t// in\n    tag_285:\n        /* \"xeam_test_contract_1.sol\":3013:3027  (tax * 4) / 12 */\n      tag_286\n      swap2\n      swap1\n      tag_233\n      jump\t// in\n    tag_286:\n        /* \"xeam_test_contract_1.sol\":2984:3027  uint256 encouragementShare = (tax * 4) / 12 */\n      swap1\n      pop\n        /* \"xeam_test_contract_1.sol\":3038:3060  uint256 emergencyShare */\n      0x00\n        /* \"xeam_test_contract_1.sol\":3075:3077  12 */\n      0x0c\n        /* \"xeam_test_contract_1.sol\":3064:3071  tax * 1 */\n      tag_287\n        /* \"xeam_test_contract_1.sol\":3064:3067  tax */\n      dup7\n        /* \"xeam_test_contract_1.sol\":3070:3071  1 */\n      0x01\n        /* \"xeam_test_contract_1.sol\":3064:3071  tax * 1 */\n      tag_231\n      jump\t// in\n    tag_287:\n        /* \"xeam_test_contract_1.sol\":3063:3077  (tax * 1) / 12 */\n      tag_288\n      swap2\n      swap1\n      tag_233\n      jump\t// in\n    tag_288:\n        /* \"xeam_test_contract_1.sol\":3038:3077  uint256 emergencyShare = (tax * 1) / 12 */\n      swap1\n      pop\n        /* \"xeam_test_contract_1.sol\":3088:3110  uint256 marketingShare */\n      0x00\n        /* \"xeam_test_contract_1.sol\":3125:3127  12 */\n      0x0c\n        /* \"xeam_test_contract_1.sol\":3114:3121  tax * 2 */\n      tag_289\n        /* \"xeam_test_contract_1.sol\":3114:3117  tax */\n      dup8\n        /* \"xeam_test_contract_1.sol\":3120:3121  2 */\n      0x02\n        /* \"xeam_test_contract_1.sol\":3114:3121  tax * 2 */\n      tag_231\n      jump\t// in\n    tag_289:\n        /* \"xeam_test_contract_1.sol\":3113:3127  (tax * 2) / 12 */\n      tag_290\n      swap2\n      swap1\n      tag_233\n      jump\t// in\n    tag_290:\n        /* \"xeam_test_contract_1.sol\":3088:3127  uint256 marketingShare = (tax * 2) / 12 */\n      swap1\n      pop\n        /* \"xeam_test_contract_1.sol\":3138:3158  uint256 stakingShare */\n      0x00\n        /* \"xeam_test_contract_1.sol\":3173:3175  12 */\n      0x0c\n        /* \"xeam_test_contract_1.sol\":3162:3169  tax * 1 */\n      tag_291\n        /* \"xeam_test_contract_1.sol\":3162:3165  tax */\n      dup9\n        /* \"xeam_test_contract_1.sol\":3168:3169  1 */\n      0x01\n        /* \"xeam_test_contract_1.sol\":3162:3169  tax * 1 */\n      tag_231\n      jump\t// in\n    tag_291:\n        /* \"xeam_test_contract_1.sol\":3161:3175  (tax * 1) / 12 */\n      tag_292\n      swap2\n      swap1\n      tag_233\n      jump\t// in\n    tag_292:\n        /* \"xeam_test_contract_1.sol\":3138:3175  uint256 stakingShare = (tax * 1) / 12 */\n      swap1\n      pop\n        /* \"xeam_test_contract_1.sol\":3188:3250  super._transfer(sender, encouragementFund, encouragementShare) */\n      tag_293\n        /* \"xeam_test_contract_1.sol\":3204:3210  sender */\n      dup11\n        /* \"xeam_test_contract_1.sol\":3212:3229  encouragementFund */\n      0x07\n      0x01\n      swap1\n      sload\n      swap1\n      0x0100\n      exp\n      swap1\n      div\n      sub(shl(0xa0, 0x01), 0x01)\n      and\n        /* \"xeam_test_contract_1.sol\":3231:3249  encouragementShare */\n      dup7\n        /* \"xeam_test_contract_1.sol\":3188:3203  super._transfer */\n      tag_220\n        /* \"xeam_test_contract_1.sol\":3188:3250  super._transfer(sender, encouragementFund, encouragementShare) */\n      jump\t// in\n    tag_293:\n      0x00\n      dup1\n      mload\n      0x20\n      data_859952f8ad95bf3b9d6ec6d5182f93b209cbb9a33d14bac6f48292b740d5a146\n      dup4\n      codecopy\n      dup2\n      mload\n      swap2\n      mstore\n        /* \"xeam_test_contract_1.sol\":3281:3299  encouragementShare */\n      dup5\n        /* \"xeam_test_contract_1.sol\":3266:3322  TaxDistributed(encouragementShare, \"Encouragement Fund\") */\n      mload(0x40)\n      tag_294\n      swap2\n        /* \"#utility.yul\":7332:7357   */\n      dup2\n      mstore\n        /* \"#utility.yul\":7393:7395   */\n      0x40\n        /* \"#utility.yul\":7388:7390   */\n      0x20\n        /* \"#utility.yul\":7373:7391   */\n      dup3\n      add\n        /* \"#utility.yul\":7366:7396   */\n      dup2\n      swap1\n      mstore\n        /* \"#utility.yul\":7432:7434   */\n      0x12\n        /* \"#utility.yul\":7412:7430   */\n      swap1\n      dup3\n      add\n        /* \"#utility.yul\":7405:7435   */\n      mstore\n      shl(0x72, 0x115b98dbdd5c9859d95b595b9d08119d5b99)\n        /* \"#utility.yul\":7466:7468   */\n      0x60\n        /* \"#utility.yul\":7451:7469   */\n      dup3\n      add\n        /* \"#utility.yul\":7444:7492   */\n      mstore\n        /* \"#utility.yul\":7524:7527   */\n      0x80\n        /* \"#utility.yul\":7509:7528   */\n      add\n      swap1\n        /* \"#utility.yul\":7120:7534   */\n      jump\n        /* \"xeam_test_contract_1.sol\":3266:3322  TaxDistributed(encouragementShare, \"Encouragement Fund\") */\n    tag_294:\n      mload(0x40)\n      dup1\n      swap2\n      sub\n      swap1\n      log1\n        /* \"xeam_test_contract_1.sol\":3359:3372  emergencyFund */\n      sload(0x08)\n        /* \"xeam_test_contract_1.sol\":3335:3389  super._transfer(sender, emergencyFund, emergencyShare) */\n      tag_296\n      swap1\n        /* \"xeam_test_contract_1.sol\":3351:3357  sender */\n      dup12\n      swap1\n      sub(shl(0xa0, 0x01), 0x01)\n        /* \"xeam_test_contract_1.sol\":3359:3372  emergencyFund */\n      and\n        /* \"xeam_test_contract_1.sol\":3374:3388  emergencyShare */\n      dup6\n        /* \"xeam_test_contract_1.sol\":3335:3350  super._transfer */\n      tag_220\n        /* \"xeam_test_contract_1.sol\":3335:3389  super._transfer(sender, emergencyFund, emergencyShare) */\n      jump\t// in\n    tag_296:\n      0x00\n      dup1\n      mload\n      0x20\n      data_859952f8ad95bf3b9d6ec6d5182f93b209cbb9a33d14bac6f48292b740d5a146\n      dup4\n      codecopy\n      dup2\n      mload\n      swap2\n      mstore\n        /* \"xeam_test_contract_1.sol\":3420:3434  emergencyShare */\n      dup4\n        /* \"xeam_test_contract_1.sol\":3405:3453  TaxDistributed(emergencyShare, \"Emergency Fund\") */\n      mload(0x40)\n      tag_297\n      swap2\n        /* \"#utility.yul\":7751:7776   */\n      dup2\n      mstore\n        /* \"#utility.yul\":7812:7814   */\n      0x40\n        /* \"#utility.yul\":7807:7809   */\n      0x20\n        /* \"#utility.yul\":7792:7810   */\n      dup3\n      add\n        /* \"#utility.yul\":7785:7815   */\n      dup2\n      swap1\n      mstore\n        /* \"#utility.yul\":7851:7853   */\n      0x0e\n        /* \"#utility.yul\":7831:7849   */\n      swap1\n      dup3\n      add\n        /* \"#utility.yul\":7824:7854   */\n      mstore\n      shl(0x92, 0x115b595c99d95b98de48119d5b99)\n        /* \"#utility.yul\":7885:7887   */\n      0x60\n        /* \"#utility.yul\":7870:7888   */\n      dup3\n      add\n        /* \"#utility.yul\":7863:7907   */\n      mstore\n        /* \"#utility.yul\":7939:7942   */\n      0x80\n        /* \"#utility.yul\":7924:7943   */\n      add\n      swap1\n        /* \"#utility.yul\":7539:7949   */\n      jump\n        /* \"xeam_test_contract_1.sol\":3405:3453  TaxDistributed(emergencyShare, \"Emergency Fund\") */\n    tag_297:\n      mload(0x40)\n      dup1\n      swap2\n      sub\n      swap1\n      log1\n        /* \"xeam_test_contract_1.sol\":3490:3505  marketingWallet */\n      sload(0x09)\n        /* \"xeam_test_contract_1.sol\":3466:3522  super._transfer(sender, marketingWallet, marketingShare) */\n      tag_299\n      swap1\n        /* \"xeam_test_contract_1.sol\":3482:3488  sender */\n      dup12\n      swap1\n      sub(shl(0xa0, 0x01), 0x01)\n        /* \"xeam_test_contract_1.sol\":3490:3505  marketingWallet */\n      and\n        /* \"xeam_test_contract_1.sol\":3507:3521  marketingShare */\n      dup5\n        /* \"xeam_test_contract_1.sol\":3466:3481  super._transfer */\n      tag_220\n        /* \"xeam_test_contract_1.sol\":3466:3522  super._transfer(sender, marketingWallet, marketingShare) */\n      jump\t// in\n    tag_299:\n      0x00\n      dup1\n      mload\n      0x20\n      data_859952f8ad95bf3b9d6ec6d5182f93b209cbb9a33d14bac6f48292b740d5a146\n      dup4\n      codecopy\n      dup2\n      mload\n      swap2\n      mstore\n        /* \"xeam_test_contract_1.sol\":3553:3567  marketingShare */\n      dup3\n        /* \"xeam_test_contract_1.sol\":3538:3581  TaxDistributed(marketingShare, \"Marketing\") */\n      mload(0x40)\n      tag_300\n      swap2\n        /* \"#utility.yul\":8166:8191   */\n      dup2\n      mstore\n        /* \"#utility.yul\":8227:8229   */\n      0x40\n        /* \"#utility.yul\":8222:8224   */\n      0x20\n        /* \"#utility.yul\":8207:8225   */\n      dup3\n      add\n        /* \"#utility.yul\":8200:8230   */\n      dup2\n      swap1\n      mstore\n        /* \"#utility.yul\":8266:8267   */\n      0x09\n        /* \"#utility.yul\":8246:8264   */\n      swap1\n      dup3\n      add\n        /* \"#utility.yul\":8239:8268   */\n      mstore\n      shl(0xb8, 0x4d61726b6574696e67)\n        /* \"#utility.yul\":8299:8301   */\n      0x60\n        /* \"#utility.yul\":8284:8302   */\n      dup3\n      add\n        /* \"#utility.yul\":8277:8316   */\n      mstore\n        /* \"#utility.yul\":8348:8351   */\n      0x80\n        /* \"#utility.yul\":8333:8352   */\n      add\n      swap1\n        /* \"#utility.yul\":7954:8358   */\n      jump\n        /* \"xeam_test_contract_1.sol\":3538:3581  TaxDistributed(marketingShare, \"Marketing\") */\n    tag_300:\n      mload(0x40)\n      dup1\n      swap2\n      sub\n      swap1\n      log1\n        /* \"xeam_test_contract_1.sol\":3618:3631  stakingWallet */\n      sload(0x0a)\n        /* \"xeam_test_contract_1.sol\":3594:3646  super._transfer(sender, stakingWallet, stakingShare) */\n      tag_302\n      swap1\n        /* \"xeam_test_contract_1.sol\":3610:3616  sender */\n      dup12\n      swap1\n      sub(shl(0xa0, 0x01), 0x01)\n        /* \"xeam_test_contract_1.sol\":3618:3631  stakingWallet */\n      and\n        /* \"xeam_test_contract_1.sol\":3633:3645  stakingShare */\n      dup4\n        /* \"xeam_test_contract_1.sol\":3594:3609  super._transfer */\n      tag_220\n        /* \"xeam_test_contract_1.sol\":3594:3646  super._transfer(sender, stakingWallet, stakingShare) */\n      jump\t// in\n    tag_302:\n      0x00\n      dup1\n      mload\n      0x20\n      data_859952f8ad95bf3b9d6ec6d5182f93b209cbb9a33d14bac6f48292b740d5a146\n      dup4\n      codecopy\n      dup2\n      mload\n      swap2\n      mstore\n        /* \"xeam_test_contract_1.sol\":3677:3689  stakingShare */\n      dup2\n        /* \"xeam_test_contract_1.sol\":3662:3701  TaxDistributed(stakingShare, \"Staking\") */\n      mload(0x40)\n      tag_303\n      swap2\n        /* \"#utility.yul\":8575:8600   */\n      dup2\n      mstore\n        /* \"#utility.yul\":8636:8638   */\n      0x40\n        /* \"#utility.yul\":8631:8633   */\n      0x20\n        /* \"#utility.yul\":8616:8634   */\n      dup3\n      add\n        /* \"#utility.yul\":8609:8639   */\n      dup2\n      swap1\n      mstore\n        /* \"#utility.yul\":8675:8676   */\n      0x07\n        /* \"#utility.yul\":8655:8673   */\n      swap1\n      dup3\n      add\n        /* \"#utility.yul\":8648:8677   */\n      mstore\n      shl(0xc8, 0x5374616b696e67)\n        /* \"#utility.yul\":8708:8710   */\n      0x60\n        /* \"#utility.yul\":8693:8711   */\n      dup3\n      add\n        /* \"#utility.yul\":8686:8723   */\n      mstore\n        /* \"#utility.yul\":8755:8758   */\n      0x80\n        /* \"#utility.yul\":8740:8759   */\n      add\n      swap1\n        /* \"#utility.yul\":8363:8765   */\n      jump\n        /* \"xeam_test_contract_1.sol\":3662:3701  TaxDistributed(stakingShare, \"Staking\") */\n    tag_303:\n      mload(0x40)\n      dup1\n      swap2\n      sub\n      swap1\n      log1\n        /* \"xeam_test_contract_1.sol\":3714:3761  super._transfer(sender, address(this), lpShare) */\n      tag_305\n        /* \"xeam_test_contract_1.sol\":3730:3736  sender */\n      dup11\n        /* \"xeam_test_contract_1.sol\":3746:3750  this */\n      address\n        /* \"xeam_test_contract_1.sol\":3753:3760  lpShare */\n      dup8\n        /* \"xeam_test_contract_1.sol\":3714:3729  super._transfer */\n      tag_220\n        /* \"xeam_test_contract_1.sol\":3714:3761  super._transfer(sender, address(this), lpShare) */\n      jump\t// in\n    tag_305:\n      0x00\n      dup1\n      mload\n      0x20\n      data_859952f8ad95bf3b9d6ec6d5182f93b209cbb9a33d14bac6f48292b740d5a146\n      dup4\n      codecopy\n      dup2\n      mload\n      swap2\n      mstore\n        /* \"xeam_test_contract_1.sol\":3792:3799  lpShare */\n      dup6\n        /* \"xeam_test_contract_1.sol\":3777:3818  TaxDistributed(lpShare, \"Liquidity Pool\") */\n      mload(0x40)\n      tag_306\n      swap2\n        /* \"#utility.yul\":8982:9007   */\n      dup2\n      mstore\n        /* \"#utility.yul\":9043:9045   */\n      0x40\n        /* \"#utility.yul\":9038:9040   */\n      0x20\n        /* \"#utility.yul\":9023:9041   */\n      dup3\n      add\n        /* \"#utility.yul\":9016:9046   */\n      dup2\n      swap1\n      mstore\n        /* \"#utility.yul\":9082:9084   */\n      0x0e\n        /* \"#utility.yul\":9062:9080   */\n      swap1\n      dup3\n      add\n        /* \"#utility.yul\":9055:9085   */\n      mstore\n      shl(0x92, 0x131a5c5d5a591a5d1e48141bdbdb)\n        /* \"#utility.yul\":9116:9118   */\n      0x60\n        /* \"#utility.yul\":9101:9119   */\n      dup3\n      add\n        /* \"#utility.yul\":9094:9138   */\n      mstore\n        /* \"#utility.yul\":9170:9173   */\n      0x80\n        /* \"#utility.yul\":9155:9174   */\n      add\n      swap1\n        /* \"#utility.yul\":8770:9180   */\n      jump\n        /* \"xeam_test_contract_1.sol\":3777:3818  TaxDistributed(lpShare, \"Liquidity Pool\") */\n    tag_306:\n      mload(0x40)\n      dup1\n      swap2\n      sub\n      swap1\n      log1\n        /* \"xeam_test_contract_1.sol\":3831:3876  super._transfer(sender, recipient, netAmount) */\n      tag_308\n        /* \"xeam_test_contract_1.sol\":3847:3853  sender */\n      dup11\n        /* \"xeam_test_contract_1.sol\":3855:3864  recipient */\n      dup11\n        /* \"xeam_test_contract_1.sol\":3866:3875  netAmount */\n      dup9\n        /* \"xeam_test_contract_1.sol\":3831:3846  super._transfer */\n      tag_220\n        /* \"xeam_test_contract_1.sol\":3831:3876  super._transfer(sender, recipient, netAmount) */\n      jump\t// in\n    tag_308:\n        /* \"xeam_test_contract_1.sol\":2717:3884  {... */\n      pop\n      pop\n      pop\n      pop\n      pop\n      pop\n      pop\n        /* \"xeam_test_contract_1.sol\":2629:3884  function _transferWithTaxes(address sender, address recipient, uint256 amount) internal {... */\n      pop\n      pop\n      pop\n      jump\t// out\n        /* \"@openzeppelin/contracts/security/Pausable.sol\":2433:2550  function _unpause() internal virtual whenPaused {... */\n    tag_183:\n        /* \"@openzeppelin/contracts/security/Pausable.sol\":1486:1502  _requirePaused() */\n      tag_310\n        /* \"@openzeppelin/contracts/security/Pausable.sol\":1486:1500  _requirePaused */\n      tag_311\n        /* \"@openzeppelin/contracts/security/Pausable.sol\":1486:1502  _requirePaused() */\n      jump\t// in\n    tag_310:\n        /* \"@openzeppelin/contracts/security/Pausable.sol\":2491:2498  _paused */\n      0x07\n        /* \"@openzeppelin/contracts/security/Pausable.sol\":2491:2506  _paused = false */\n      dup1\n      sload\n      not(0xff)\n      and\n      swap1\n      sstore\n        /* \"@openzeppelin/contracts/security/Pausable.sol\":2521:2543  Unpaused(_msgSender()) */\n      0x5db9ee0a495bf2e6ff9c91a7834c1ba4fdd244a5e8aa4e537bd38aeae4b073aa\n        /* \"@openzeppelin/contracts/utils/Context.sol\":735:745  msg.sender */\n      caller\n        /* \"@openzeppelin/contracts/security/Pausable.sol\":2530:2542  _msgSender() */\n    tag_313:\n        /* \"@openzeppelin/contracts/security/Pausable.sol\":2521:2543  Unpaused(_msgSender()) */\n      mload(0x40)\n      sub(shl(0xa0, 0x01), 0x01)\n        /* \"#utility.yul\":178:210   */\n      swap1\n      swap2\n      and\n        /* \"#utility.yul\":160:211   */\n      dup2\n      mstore\n        /* \"#utility.yul\":148:150   */\n      0x20\n        /* \"#utility.yul\":133:151   */\n      add\n        /* \"@openzeppelin/contracts/security/Pausable.sol\":2521:2543  Unpaused(_msgSender()) */\n      mload(0x40)\n      dup1\n      swap2\n      sub\n      swap1\n      log1\n        /* \"@openzeppelin/contracts/security/Pausable.sol\":2433:2550  function _unpause() internal virtual whenPaused {... */\n      jump\t// out\n        /* \"@openzeppelin/contracts/access/Ownable.sol\":2912:3099  function _transferOwnership(address newOwner) internal virtual {... */\n    tag_190:\n        /* \"@openzeppelin/contracts/access/Ownable.sol\":3004:3010  _owner */\n      0x05\n      dup1\n      sload\n      sub(shl(0xa0, 0x01), 0x01)\n        /* \"@openzeppelin/contracts/access/Ownable.sol\":3020:3037  _owner = newOwner */\n      dup4\n      dup2\n      and\n      not(sub(shl(0xa0, 0x01), 0x01))\n      dup4\n      and\n      dup2\n      or\n      swap1\n      swap4\n      sstore\n        /* \"@openzeppelin/contracts/access/Ownable.sol\":3052:3092  OwnershipTransferred(oldOwner, newOwner) */\n      mload(0x40)\n        /* \"@openzeppelin/contracts/access/Ownable.sol\":3004:3010  _owner */\n      swap2\n      and\n      swap2\n        /* \"@openzeppelin/contracts/access/Ownable.sol\":3020:3037  _owner = newOwner */\n      swap1\n        /* \"@openzeppelin/contracts/access/Ownable.sol\":3004:3010  _owner */\n      dup3\n      swap1\n        /* \"@openzeppelin/contracts/access/Ownable.sol\":3052:3092  OwnershipTransferred(oldOwner, newOwner) */\n      0x8be0079c531659141344cd1fd0a4f28419497f9722a3daafe3b4186f6b6457e0\n      swap1\n        /* \"@openzeppelin/contracts/access/Ownable.sol\":2985:3001  address oldOwner */\n      0x00\n      swap1\n        /* \"@openzeppelin/contracts/access/Ownable.sol\":3052:3092  OwnershipTransferred(oldOwner, newOwner) */\n      log3\n        /* \"@openzeppelin/contracts/access/Ownable.sol\":2975:3099  {... */\n      pop\n        /* \"@openzeppelin/contracts/access/Ownable.sol\":2912:3099  function _transferOwnership(address newOwner) internal virtual {... */\n      pop\n      jump\t// out\n        /* \"@openzeppelin/contracts/security/Pausable.sol\":2186:2301  function _pause() internal virtual whenNotPaused {... */\n    tag_198:\n        /* \"@openzeppelin/contracts/security/Pausable.sol\":1239:1258  _requireNotPaused() */\n      tag_317\n        /* \"@openzeppelin/contracts/security/Pausable.sol\":1239:1256  _requireNotPaused */\n      tag_168\n        /* \"@openzeppelin/contracts/security/Pausable.sol\":1239:1258  _requireNotPaused() */\n      jump\t// in\n    tag_317:\n        /* \"@openzeppelin/contracts/security/Pausable.sol\":2245:2252  _paused */\n      0x07\n        /* \"@openzeppelin/contracts/security/Pausable.sol\":2245:2259  _paused = true */\n      dup1\n      sload\n      not(0xff)\n      and\n        /* \"@openzeppelin/contracts/security/Pausable.sol\":2255:2259  true */\n      0x01\n        /* \"@openzeppelin/contracts/security/Pausable.sol\":2245:2259  _paused = true */\n      or\n      swap1\n      sstore\n        /* \"@openzeppelin/contracts/security/Pausable.sol\":2274:2294  Paused(_msgSender()) */\n      0x62e78cea01bee320cd4e420270b5ea74000d11b0c9f74754ebdbfc544b05a258\n        /* \"@openzeppelin/contracts/security/Pausable.sol\":2281:2293  _msgSender() */\n      tag_313\n        /* \"@openzeppelin/contracts/utils/Context.sol\":735:745  msg.sender */\n      caller\n      swap1\n        /* \"@openzeppelin/contracts/utils/Context.sol\":656:752  function _msgSender() internal view virtual returns (address) {... */\n      jump\n        /* \"@openzeppelin/contracts/token/ERC20/ERC20.sol\":5393:5693  function _transfer(address from, address to, uint256 value) internal {... */\n    tag_220:\n      sub(shl(0xa0, 0x01), 0x01)\n        /* \"@openzeppelin/contracts/token/ERC20/ERC20.sol\":5476:5494  from == address(0) */\n      dup4\n      and\n        /* \"@openzeppelin/contracts/token/ERC20/ERC20.sol\":5472:5558  if (from == address(0)) {... */\n      tag_322\n      jumpi\n        /* \"@openzeppelin/contracts/token/ERC20/ERC20.sol\":5517:5547  ERC20InvalidSender(address(0)) */\n      mload(0x40)\n      shl(0xe1, 0x4b637e8f)\n      dup2\n      mstore\n        /* \"@openzeppelin/contracts/token/ERC20/ERC20.sol\":5544:5545  0 */\n      0x00\n        /* \"@openzeppelin/contracts/token/ERC20/ERC20.sol\":5517:5547  ERC20InvalidSender(address(0)) */\n      0x04\n      dup3\n      add\n        /* \"#utility.yul\":160:211   */\n      mstore\n        /* \"#utility.yul\":133:151   */\n      0x24\n      add\n        /* \"@openzeppelin/contracts/token/ERC20/ERC20.sol\":5517:5547  ERC20InvalidSender(address(0)) */\n      tag_161\n        /* \"#utility.yul\":14:217   */\n      jump\n        /* \"@openzeppelin/contracts/token/ERC20/ERC20.sol\":5472:5558  if (from == address(0)) {... */\n    tag_322:\n      sub(shl(0xa0, 0x01), 0x01)\n        /* \"@openzeppelin/contracts/token/ERC20/ERC20.sol\":5571:5587  to == address(0) */\n      dup3\n      and\n        /* \"@openzeppelin/contracts/token/ERC20/ERC20.sol\":5567:5653  if (to == address(0)) {... */\n      tag_324\n      jumpi\n        /* \"@openzeppelin/contracts/token/ERC20/ERC20.sol\":5610:5642  ERC20InvalidReceiver(address(0)) */\n      mload(0x40)\n      shl(0xe0, 0xec442f05)\n      dup2\n      mstore\n        /* \"@openzeppelin/contracts/token/ERC20/ERC20.sol\":5639:5640  0 */\n      0x00\n        /* \"@openzeppelin/contracts/token/ERC20/ERC20.sol\":5610:5642  ERC20InvalidReceiver(address(0)) */\n      0x04\n      dup3\n      add\n        /* \"#utility.yul\":160:211   */\n      mstore\n        /* \"#utility.yul\":133:151   */\n      0x24\n      add\n        /* \"@openzeppelin/contracts/token/ERC20/ERC20.sol\":5610:5642  ERC20InvalidReceiver(address(0)) */\n      tag_161\n        /* \"#utility.yul\":14:217   */\n      jump\n        /* \"@openzeppelin/contracts/token/ERC20/ERC20.sol\":5567:5653  if (to == address(0)) {... */\n    tag_324:\n        /* \"@openzeppelin/contracts/token/ERC20/ERC20.sol\":5662:5686  _update(from, to, value) */\n      tag_244\n        /* \"@openzeppelin/contracts/token/ERC20/ERC20.sol\":5670:5674  from */\n      dup4\n        /* \"@openzeppelin/contracts/token/ERC20/ERC20.sol\":5676:5678  to */\n      dup4\n        /* \"@openzeppelin/contracts/token/ERC20/ERC20.sol\":5680:5685  value */\n      dup4\n        /* \"@openzeppelin/contracts/token/ERC20/ERC20.sol\":5662:5669  _update */\n      tag_327\n        /* \"@openzeppelin/contracts/token/ERC20/ERC20.sol\":5662:5686  _update(from, to, value) */\n      jump\t// in\n        /* \"@openzeppelin/contracts/token/ERC20/ERC20.sol\":9701:10133  function _approve(address owner, address spender, uint256 value, bool emitEvent) internal virtual {... */\n    tag_245:\n      sub(shl(0xa0, 0x01), 0x01)\n        /* \"@openzeppelin/contracts/token/ERC20/ERC20.sol\":9813:9832  owner == address(0) */\n      dup5\n      and\n        /* \"@openzeppelin/contracts/token/ERC20/ERC20.sol\":9809:9898  if (owner == address(0)) {... */\n      tag_329\n      jumpi\n        /* \"@openzeppelin/contracts/token/ERC20/ERC20.sol\":9855:9887  ERC20InvalidApprover(address(0)) */\n      mload(0x40)\n      shl(0xe0, 0xe602df05)\n      dup2\n      mstore\n        /* \"@openzeppelin/contracts/token/ERC20/ERC20.sol\":9884:9885  0 */\n      0x00\n        /* \"@openzeppelin/contracts/token/ERC20/ERC20.sol\":9855:9887  ERC20InvalidApprover(address(0)) */\n      0x04\n      dup3\n      add\n        /* \"#utility.yul\":160:211   */\n      mstore\n        /* \"#utility.yul\":133:151   */\n      0x24\n      add\n        /* \"@openzeppelin/contracts/token/ERC20/ERC20.sol\":9855:9887  ERC20InvalidApprover(address(0)) */\n      tag_161\n        /* \"#utility.yul\":14:217   */\n      jump\n        /* \"@openzeppelin/contracts/token/ERC20/ERC20.sol\":9809:9898  if (owner == address(0)) {... */\n    tag_329:\n      sub(shl(0xa0, 0x01), 0x01)\n        /* \"@openzeppelin/contracts/token/ERC20/ERC20.sol\":9911:9932  spender == address(0) */\n      dup4\n      and\n        /* \"@openzeppelin/contracts/token/ERC20/ERC20.sol\":9907:9997  if (spender == address(0)) {... */\n      tag_331\n      jumpi\n        /* \"@openzeppelin/contracts/token/ERC20/ERC20.sol\":9955:9986  ERC20InvalidSpender(address(0)) */\n      mload(0x40)\n      shl(0xe1, 0x4a1406b1)\n      dup2\n      mstore\n        /* \"@openzeppelin/contracts/token/ERC20/ERC20.sol\":9983:9984  0 */\n      0x00\n        /* \"@openzeppelin/contracts/token/ERC20/ERC20.sol\":9955:9986  ERC20InvalidSpender(address(0)) */\n      0x04\n      dup3\n      add\n        /* \"#utility.yul\":160:211   */\n      mstore\n        /* \"#utility.yul\":133:151   */\n      0x24\n      add\n        /* \"@openzeppelin/contracts/token/ERC20/ERC20.sol\":9955:9986  ERC20InvalidSpender(address(0)) */\n      tag_161\n        /* \"#utility.yul\":14:217   */\n      jump\n        /* \"@openzeppelin/contracts/token/ERC20/ERC20.sol\":9907:9997  if (spender == address(0)) {... */\n    tag_331:\n      sub(shl(0xa0, 0x01), 0x01)\n        /* \"@openzeppelin/contracts/token/ERC20/ERC20.sol\":10006:10024  _allowances[owner] */\n      dup1\n      dup6\n      and\n      0x00\n      swap1\n      dup2\n      mstore\n        /* \"@openzeppelin/contracts/token/ERC20/ERC20.sol\":10006:10017  _allowances */\n      0x01\n        /* \"@openzeppelin/contracts/token/ERC20/ERC20.sol\":10006:10024  _allowances[owner] */\n      0x20\n      swap1\n      dup2\n      mstore\n      0x40\n      dup1\n      dup4\n      keccak256\n        /* \"@openzeppelin/contracts/token/ERC20/ERC20.sol\":10006:10033  _allowances[owner][spender] */\n      swap4\n      dup8\n      and\n      dup4\n      mstore\n      swap3\n      swap1\n      mstore\n      keccak256\n        /* \"@openzeppelin/contracts/token/ERC20/ERC20.sol\":10006:10041  _allowances[owner][spender] = value */\n      dup3\n      swap1\n      sstore\n        /* \"@openzeppelin/contracts/token/ERC20/ERC20.sol\":10051:10127  if (emitEvent) {... */\n      dup1\n      iszero\n      tag_333\n      jumpi\n        /* \"@openzeppelin/contracts/token/ERC20/ERC20.sol\":10101:10108  spender */\n      dup3\n      sub(shl(0xa0, 0x01), 0x01)\n        /* \"@openzeppelin/contracts/token/ERC20/ERC20.sol\":10085:10116  Approval(owner, spender, value) */\n      and\n        /* \"@openzeppelin/contracts/token/ERC20/ERC20.sol\":10094:10099  owner */\n      dup5\n      sub(shl(0xa0, 0x01), 0x01)\n        /* \"@openzeppelin/contracts/token/ERC20/ERC20.sol\":10085:10116  Approval(owner, spender, value) */\n      and\n      0x8c5be1e5ebec7d5bd14f71427d1e84f3dd0314c0f7b2291e5b200ac8c7c3b925\n        /* \"@openzeppelin/contracts/token/ERC20/ERC20.sol\":10110:10115  value */\n      dup5\n        /* \"@openzeppelin/contracts/token/ERC20/ERC20.sol\":10085:10116  Approval(owner, spender, value) */\n      mload(0x40)\n      tag_334\n      swap2\n        /* \"#utility.yul\":1817:1842   */\n      dup2\n      mstore\n        /* \"#utility.yul\":1805:1807   */\n      0x20\n        /* \"#utility.yul\":1790:1808   */\n      add\n      swap1\n        /* \"#utility.yul\":1671:1848   */\n      jump\n        /* \"@openzeppelin/contracts/token/ERC20/ERC20.sol\":10085:10116  Approval(owner, spender, value) */\n    tag_334:\n      mload(0x40)\n      dup1\n      swap2\n      sub\n      swap1\n      log3\n        /* \"@openzeppelin/contracts/token/ERC20/ERC20.sol\":10051:10127  if (emitEvent) {... */\n    tag_333:\n        /* \"@openzeppelin/contracts/token/ERC20/ERC20.sol\":9701:10133  function _approve(address owner, address spender, uint256 value, bool emitEvent) internal virtual {... */\n      pop\n      pop\n      pop\n      pop\n      jump\t// out\n        /* \"@openzeppelin/contracts/security/Pausable.sol\":1945:2051  function _requirePaused() internal view virtual {... */\n    tag_311:\n        /* \"@openzeppelin/contracts/security/Pausable.sol\":1685:1692  _paused */\n      and(0xff, sload(0x07))\n        /* \"@openzeppelin/contracts/security/Pausable.sol\":2003:2044  require(paused(), \"Pausable: not paused\") */\n      tag_182\n      jumpi\n      mload(0x40)\n      shl(0xe5, 0x461bcd)\n      dup2\n      mstore\n        /* \"#utility.yul\":9387:9389   */\n      0x20\n        /* \"@openzeppelin/contracts/security/Pausable.sol\":2003:2044  require(paused(), \"Pausable: not paused\") */\n      0x04\n      dup3\n      add\n        /* \"#utility.yul\":9369:9390   */\n      mstore\n        /* \"#utility.yul\":9426:9428   */\n      0x14\n        /* \"#utility.yul\":9406:9424   */\n      0x24\n      dup3\n      add\n        /* \"#utility.yul\":9399:9429   */\n      mstore\n      shl(0x62, 0x14185d5cd8589b194e881b9bdd081c185d5cd959)\n        /* \"#utility.yul\":9445:9463   */\n      0x44\n      dup3\n      add\n        /* \"#utility.yul\":9438:9488   */\n      mstore\n        /* \"#utility.yul\":9505:9523   */\n      0x64\n      add\n        /* \"@openzeppelin/contracts/security/Pausable.sol\":2003:2044  require(paused(), \"Pausable: not paused\") */\n      tag_161\n        /* \"#utility.yul\":9185:9529   */\n      jump\n        /* \"@openzeppelin/contracts/token/ERC20/ERC20.sol\":6008:7115  function _update(address from, address to, uint256 value) internal virtual {... */\n    tag_327:\n      sub(shl(0xa0, 0x01), 0x01)\n        /* \"@openzeppelin/contracts/token/ERC20/ERC20.sol\":6097:6115  from == address(0) */\n      dup4\n      and\n        /* \"@openzeppelin/contracts/token/ERC20/ERC20.sol\":6093:6633  if (from == address(0)) {... */\n      tag_341\n      jumpi\n        /* \"@openzeppelin/contracts/token/ERC20/ERC20.sol\":6249:6254  value */\n      dup1\n        /* \"@openzeppelin/contracts/token/ERC20/ERC20.sol\":6233:6245  _totalSupply */\n      0x02\n      0x00\n        /* \"@openzeppelin/contracts/token/ERC20/ERC20.sol\":6233:6254  _totalSupply += value */\n      dup3\n      dup3\n      sload\n      tag_342\n      swap2\n      swap1\n      tag_263\n      jump\t// in\n    tag_342:\n      swap1\n      swap2\n      sstore\n      pop\n        /* \"@openzeppelin/contracts/token/ERC20/ERC20.sol\":6093:6633  if (from == address(0)) {... */\n      tag_343\n      swap1\n      pop\n      jump\n    tag_341:\n      sub(shl(0xa0, 0x01), 0x01)\n        /* \"@openzeppelin/contracts/token/ERC20/ERC20.sol\":6307:6322  _balances[from] */\n      dup4\n      and\n        /* \"@openzeppelin/contracts/token/ERC20/ERC20.sol\":6285:6304  uint256 fromBalance */\n      0x00\n        /* \"@openzeppelin/contracts/token/ERC20/ERC20.sol\":6307:6322  _balances[from] */\n      swap1\n      dup2\n      mstore\n      0x20\n      dup2\n      swap1\n      mstore\n      0x40\n      swap1\n      keccak256\n      sload\n        /* \"@openzeppelin/contracts/token/ERC20/ERC20.sol\":6340:6359  fromBalance < value */\n      dup2\n      dup2\n      lt\n        /* \"@openzeppelin/contracts/token/ERC20/ERC20.sol\":6336:6451  if (fromBalance < value) {... */\n      iszero\n      tag_344\n      jumpi\n        /* \"@openzeppelin/contracts/token/ERC20/ERC20.sol\":6386:6436  ERC20InsufficientBalance(from, fromBalance, value) */\n      mload(0x40)\n      shl(0xe2, 0x391434e3)\n      dup2\n      mstore\n      sub(shl(0xa0, 0x01), 0x01)\n        /* \"#utility.yul\":9754:9786   */\n      dup6\n      and\n        /* \"@openzeppelin/contracts/token/ERC20/ERC20.sol\":6386:6436  ERC20InsufficientBalance(from, fromBalance, value) */\n      0x04\n      dup3\n      add\n        /* \"#utility.yul\":9736:9787   */\n      mstore\n        /* \"#utility.yul\":9803:9821   */\n      0x24\n      dup2\n      add\n        /* \"#utility.yul\":9796:9830   */\n      dup3\n      swap1\n      mstore\n        /* \"#utility.yul\":9846:9864   */\n      0x44\n      dup2\n      add\n        /* \"#utility.yul\":9839:9873   */\n      dup4\n      swap1\n      mstore\n        /* \"#utility.yul\":9709:9727   */\n      0x64\n      add\n        /* \"@openzeppelin/contracts/token/ERC20/ERC20.sol\":6386:6436  ERC20InsufficientBalance(from, fromBalance, value) */\n      tag_161\n        /* \"#utility.yul\":9534:9879   */\n      jump\n        /* \"@openzeppelin/contracts/token/ERC20/ERC20.sol\":6336:6451  if (fromBalance < value) {... */\n    tag_344:\n      sub(shl(0xa0, 0x01), 0x01)\n        /* \"@openzeppelin/contracts/token/ERC20/ERC20.sol\":6571:6586  _balances[from] */\n      dup5\n      and\n        /* \"@openzeppelin/contracts/token/ERC20/ERC20.sol\":6571:6580  _balances */\n      0x00\n        /* \"@openzeppelin/contracts/token/ERC20/ERC20.sol\":6571:6586  _balances[from] */\n      swap1\n      dup2\n      mstore\n      0x20\n      dup2\n      swap1\n      mstore\n      0x40\n      swap1\n      keccak256\n        /* \"@openzeppelin/contracts/token/ERC20/ERC20.sol\":6589:6608  fromBalance - value */\n      swap1\n      dup3\n      swap1\n      sub\n        /* \"@openzeppelin/contracts/token/ERC20/ERC20.sol\":6571:6608  _balances[from] = fromBalance - value */\n      swap1\n      sstore\n        /* \"@openzeppelin/contracts/token/ERC20/ERC20.sol\":6093:6633  if (from == address(0)) {... */\n    tag_343:\n      sub(shl(0xa0, 0x01), 0x01)\n        /* \"@openzeppelin/contracts/token/ERC20/ERC20.sol\":6647:6663  to == address(0) */\n      dup3\n      and\n        /* \"@openzeppelin/contracts/token/ERC20/ERC20.sol\":6643:7068  if (to == address(0)) {... */\n      tag_347\n      jumpi\n        /* \"@openzeppelin/contracts/token/ERC20/ERC20.sol\":6810:6822  _totalSupply */\n      0x02\n        /* \"@openzeppelin/contracts/token/ERC20/ERC20.sol\":6810:6831  _totalSupply -= value */\n      dup1\n      sload\n      dup3\n      swap1\n      sub\n      swap1\n      sstore\n        /* \"@openzeppelin/contracts/token/ERC20/ERC20.sol\":6643:7068  if (to == address(0)) {... */\n      jump(tag_348)\n    tag_347:\n      sub(shl(0xa0, 0x01), 0x01)\n        /* \"@openzeppelin/contracts/token/ERC20/ERC20.sol\":7021:7034  _balances[to] */\n      dup3\n      and\n        /* \"@openzeppelin/contracts/token/ERC20/ERC20.sol\":7021:7030  _balances */\n      0x00\n        /* \"@openzeppelin/contracts/token/ERC20/ERC20.sol\":7021:7034  _balances[to] */\n      swap1\n      dup2\n      mstore\n      0x20\n      dup2\n      swap1\n      mstore\n      0x40\n      swap1\n      keccak256\n        /* \"@openzeppelin/contracts/token/ERC20/ERC20.sol\":7021:7043  _balances[to] += value */\n      dup1\n      sload\n      dup3\n      add\n      swap1\n      sstore\n        /* \"@openzeppelin/contracts/token/ERC20/ERC20.sol\":6643:7068  if (to == address(0)) {... */\n    tag_348:\n        /* \"@openzeppelin/contracts/token/ERC20/ERC20.sol\":7098:7100  to */\n      dup2\n      sub(shl(0xa0, 0x01), 0x01)\n        /* \"@openzeppelin/contracts/token/ERC20/ERC20.sol\":7083:7108  Transfer(from, to, value) */\n      and\n        /* \"@openzeppelin/contracts/token/ERC20/ERC20.sol\":7092:7096  from */\n      dup4\n      sub(shl(0xa0, 0x01), 0x01)\n        /* \"@openzeppelin/contracts/token/ERC20/ERC20.sol\":7083:7108  Transfer(from, to, value) */\n      and\n      0xddf252ad1be2c89b69c2b068fc378daa952ba7f163c4a11628f55a4df523b3ef\n        /* \"@openzeppelin/contracts/token/ERC20/ERC20.sol\":7102:7107  value */\n      dup4\n        /* \"@openzeppelin/contracts/token/ERC20/ERC20.sol\":7083:7108  Transfer(from, to, value) */\n      mload(0x40)\n      tag_349\n      swap2\n        /* \"#utility.yul\":1817:1842   */\n      dup2\n      mstore\n        /* \"#utility.yul\":1805:1807   */\n      0x20\n        /* \"#utility.yul\":1790:1808   */\n      add\n      swap1\n        /* \"#utility.yul\":1671:1848   */\n      jump\n        /* \"@openzeppelin/contracts/token/ERC20/ERC20.sol\":7083:7108  Transfer(from, to, value) */\n    tag_349:\n      mload(0x40)\n      dup1\n      swap2\n      sub\n      swap1\n      log3\n        /* \"@openzeppelin/contracts/token/ERC20/ERC20.sol\":6008:7115  function _update(address from, address to, uint256 value) internal virtual {... */\n      pop\n      pop\n      pop\n      jump\t// out\n        /* \"#utility.yul\":222:640   */\n    tag_47:\n        /* \"#utility.yul\":371:373   */\n      0x20\n        /* \"#utility.yul\":360:369   */\n      dup2\n        /* \"#utility.yul\":353:374   */\n      mstore\n        /* \"#utility.yul\":334:338   */\n      0x00\n        /* \"#utility.yul\":403:409   */\n      dup3\n        /* \"#utility.yul\":397:410   */\n      mload\n        /* \"#utility.yul\":446:452   */\n      dup1\n        /* \"#utility.yul\":441:443   */\n      0x20\n        /* \"#utility.yul\":430:439   */\n      dup5\n        /* \"#utility.yul\":426:444   */\n      add\n        /* \"#utility.yul\":419:453   */\n      mstore\n        /* \"#utility.yul\":505:511   */\n      dup1\n        /* \"#utility.yul\":500:502   */\n      0x20\n        /* \"#utility.yul\":492:498   */\n      dup6\n        /* \"#utility.yul\":488:503   */\n      add\n        /* \"#utility.yul\":483:485   */\n      0x40\n        /* \"#utility.yul\":472:481   */\n      dup6\n        /* \"#utility.yul\":468:486   */\n      add\n        /* \"#utility.yul\":462:512   */\n      mcopy\n        /* \"#utility.yul\":561:562   */\n      0x00\n        /* \"#utility.yul\":556:558   */\n      0x40\n        /* \"#utility.yul\":547:553   */\n      dup3\n        /* \"#utility.yul\":536:545   */\n      dup6\n        /* \"#utility.yul\":532:554   */\n      add\n        /* \"#utility.yul\":528:559   */\n      add\n        /* \"#utility.yul\":521:563   */\n      mstore\n        /* \"#utility.yul\":631:633   */\n      0x40\n        /* \"#utility.yul\":624:626   */\n      0x1f\n        /* \"#utility.yul\":620:627   */\n      not\n        /* \"#utility.yul\":615:617   */\n      0x1f\n        /* \"#utility.yul\":607:613   */\n      dup4\n        /* \"#utility.yul\":603:618   */\n      add\n        /* \"#utility.yul\":599:628   */\n      and\n        /* \"#utility.yul\":588:597   */\n      dup5\n        /* \"#utility.yul\":584:629   */\n      add\n        /* \"#utility.yul\":580:634   */\n      add\n        /* \"#utility.yul\":572:634   */\n      swap2\n      pop\n      pop\n        /* \"#utility.yul\":222:640   */\n      swap3\n      swap2\n      pop\n      pop\n      jump\t// out\n        /* \"#utility.yul\":645:818   */\n    tag_350:\n        /* \"#utility.yul\":713:733   */\n      dup1\n      calldataload\n      sub(shl(0xa0, 0x01), 0x01)\n        /* \"#utility.yul\":762:793   */\n      dup2\n      and\n        /* \"#utility.yul\":752:794   */\n      dup2\n      eq\n        /* \"#utility.yul\":742:812   */\n      tag_356\n      jumpi\n        /* \"#utility.yul\":808:809   */\n      0x00\n        /* \"#utility.yul\":805:806   */\n      dup1\n        /* \"#utility.yul\":798:810   */\n      revert\n        /* \"#utility.yul\":742:812   */\n    tag_356:\n        /* \"#utility.yul\":645:818   */\n      swap2\n      swap1\n      pop\n      jump\t// out\n        /* \"#utility.yul\":823:1123   */\n    tag_50:\n        /* \"#utility.yul\":891:897   */\n      0x00\n        /* \"#utility.yul\":899:905   */\n      dup1\n        /* \"#utility.yul\":952:954   */\n      0x40\n        /* \"#utility.yul\":940:949   */\n      dup4\n        /* \"#utility.yul\":931:938   */\n      dup6\n        /* \"#utility.yul\":927:950   */\n      sub\n        /* \"#utility.yul\":923:955   */\n      slt\n        /* \"#utility.yul\":920:972   */\n      iszero\n      tag_358\n      jumpi\n        /* \"#utility.yul\":968:969   */\n      0x00\n        /* \"#utility.yul\":965:966   */\n      dup1\n        /* \"#utility.yul\":958:970   */\n      revert\n        /* \"#utility.yul\":920:972   */\n    tag_358:\n        /* \"#utility.yul\":991:1020   */\n      tag_359\n        /* \"#utility.yul\":1010:1019   */\n      dup4\n        /* \"#utility.yul\":991:1020   */\n      tag_350\n      jump\t// in\n    tag_359:\n        /* \"#utility.yul\":981:1020   */\n      swap5\n        /* \"#utility.yul\":1089:1091   */\n      0x20\n        /* \"#utility.yul\":1074:1092   */\n      swap4\n      swap1\n      swap4\n      add\n        /* \"#utility.yul\":1061:1093   */\n      calldataload\n      swap4\n      pop\n      pop\n      pop\n        /* \"#utility.yul\":823:1123   */\n      jump\t// out\n        /* \"#utility.yul\":1320:1666   */\n    tag_56:\n        /* \"#utility.yul\":1388:1394   */\n      0x00\n        /* \"#utility.yul\":1396:1402   */\n      dup1\n        /* \"#utility.yul\":1449:1451   */\n      0x40\n        /* \"#utility.yul\":1437:1446   */\n      dup4\n        /* \"#utility.yul\":1428:1435   */\n      dup6\n        /* \"#utility.yul\":1424:1447   */\n      sub\n        /* \"#utility.yul\":1420:1452   */\n      slt\n        /* \"#utility.yul\":1417:1469   */\n      iszero\n      tag_362\n      jumpi\n        /* \"#utility.yul\":1465:1466   */\n      0x00\n        /* \"#utility.yul\":1462:1463   */\n      dup1\n        /* \"#utility.yul\":1455:1467   */\n      revert\n        /* \"#utility.yul\":1417:1469   */\n    tag_362:\n      pop\n      pop\n        /* \"#utility.yul\":1510:1533   */\n      dup1\n      calldataload\n      swap3\n        /* \"#utility.yul\":1630:1632   */\n      0x20\n        /* \"#utility.yul\":1615:1633   */\n      swap1\n      swap2\n      add\n        /* \"#utility.yul\":1602:1634   */\n      calldataload\n      swap2\n      pop\n        /* \"#utility.yul\":1320:1666   */\n      jump\t// out\n        /* \"#utility.yul\":1853:2227   */\n    tag_64:\n        /* \"#utility.yul\":1930:1936   */\n      0x00\n        /* \"#utility.yul\":1938:1944   */\n      dup1\n        /* \"#utility.yul\":1946:1952   */\n      0x00\n        /* \"#utility.yul\":1999:2001   */\n      0x60\n        /* \"#utility.yul\":1987:1996   */\n      dup5\n        /* \"#utility.yul\":1978:1985   */\n      dup7\n        /* \"#utility.yul\":1974:1997   */\n      sub\n        /* \"#utility.yul\":1970:2002   */\n      slt\n        /* \"#utility.yul\":1967:2019   */\n      iszero\n      tag_365\n      jumpi\n        /* \"#utility.yul\":2015:2016   */\n      0x00\n        /* \"#utility.yul\":2012:2013   */\n      dup1\n        /* \"#utility.yul\":2005:2017   */\n      revert\n        /* \"#utility.yul\":1967:2019   */\n    tag_365:\n        /* \"#utility.yul\":2038:2067   */\n      tag_366\n        /* \"#utility.yul\":2057:2066   */\n      dup5\n        /* \"#utility.yul\":2038:2067   */\n      tag_350\n      jump\t// in\n    tag_366:\n        /* \"#utility.yul\":2028:2067   */\n      swap3\n      pop\n        /* \"#utility.yul\":2086:2124   */\n      tag_367\n        /* \"#utility.yul\":2120:2122   */\n      0x20\n        /* \"#utility.yul\":2109:2118   */\n      dup6\n        /* \"#utility.yul\":2105:2123   */\n      add\n        /* \"#utility.yul\":2086:2124   */\n      tag_350\n      jump\t// in\n    tag_367:\n        /* \"#utility.yul\":1853:2227   */\n      swap3\n      swap6\n        /* \"#utility.yul\":2076:2124   */\n      swap3\n      swap5\n      pop\n      pop\n      pop\n        /* \"#utility.yul\":2193:2195   */\n      0x40\n        /* \"#utility.yul\":2178:2196   */\n      swap2\n      swap1\n      swap2\n      add\n        /* \"#utility.yul\":2165:2197   */\n      calldataload\n      swap1\n        /* \"#utility.yul\":1853:2227   */\n      jump\t// out\n        /* \"#utility.yul\":2421:2607   */\n    tag_81:\n        /* \"#utility.yul\":2480:2486   */\n      0x00\n        /* \"#utility.yul\":2533:2535   */\n      0x20\n        /* \"#utility.yul\":2521:2530   */\n      dup3\n        /* \"#utility.yul\":2512:2519   */\n      dup5\n        /* \"#utility.yul\":2508:2531   */\n      sub\n        /* \"#utility.yul\":2504:2536   */\n      slt\n        /* \"#utility.yul\":2501:2553   */\n      iszero\n      tag_370\n      jumpi\n        /* \"#utility.yul\":2549:2550   */\n      0x00\n        /* \"#utility.yul\":2546:2547   */\n      dup1\n        /* \"#utility.yul\":2539:2551   */\n      revert\n        /* \"#utility.yul\":2501:2553   */\n    tag_370:\n        /* \"#utility.yul\":2572:2601   */\n      tag_371\n        /* \"#utility.yul\":2591:2600   */\n      dup3\n        /* \"#utility.yul\":2572:2601   */\n      tag_350\n      jump\t// in\n    tag_371:\n        /* \"#utility.yul\":2562:2601   */\n      swap4\n        /* \"#utility.yul\":2421:2607   */\n      swap3\n      pop\n      pop\n      pop\n      jump\t// out\n        /* \"#utility.yul\":2612:2959   */\n    tag_98:\n        /* \"#utility.yul\":2677:2683   */\n      0x00\n        /* \"#utility.yul\":2685:2691   */\n      dup1\n        /* \"#utility.yul\":2738:2740   */\n      0x40\n        /* \"#utility.yul\":2726:2735   */\n      dup4\n        /* \"#utility.yul\":2717:2724   */\n      dup6\n        /* \"#utility.yul\":2713:2736   */\n      sub\n        /* \"#utility.yul\":2709:2741   */\n      slt\n        /* \"#utility.yul\":2706:2758   */\n      iszero\n      tag_373\n      jumpi\n        /* \"#utility.yul\":2754:2755   */\n      0x00\n        /* \"#utility.yul\":2751:2752   */\n      dup1\n        /* \"#utility.yul\":2744:2756   */\n      revert\n        /* \"#utility.yul\":2706:2758   */\n    tag_373:\n        /* \"#utility.yul\":2777:2806   */\n      tag_374\n        /* \"#utility.yul\":2796:2805   */\n      dup4\n        /* \"#utility.yul\":2777:2806   */\n      tag_350\n      jump\t// in\n    tag_374:\n        /* \"#utility.yul\":2767:2806   */\n      swap2\n      pop\n        /* \"#utility.yul\":2856:2858   */\n      0x20\n        /* \"#utility.yul\":2845:2854   */\n      dup4\n        /* \"#utility.yul\":2841:2859   */\n      add\n        /* \"#utility.yul\":2828:2860   */\n      calldataload\n        /* \"#utility.yul\":2903:2908   */\n      dup1\n        /* \"#utility.yul\":2896:2909   */\n      iszero\n        /* \"#utility.yul\":2889:2910   */\n      iszero\n        /* \"#utility.yul\":2882:2887   */\n      dup2\n        /* \"#utility.yul\":2879:2911   */\n      eq\n        /* \"#utility.yul\":2869:2929   */\n      tag_375\n      jumpi\n        /* \"#utility.yul\":2925:2926   */\n      0x00\n        /* \"#utility.yul\":2922:2923   */\n      dup1\n        /* \"#utility.yul\":2915:2927   */\n      revert\n        /* \"#utility.yul\":2869:2929   */\n    tag_375:\n        /* \"#utility.yul\":2948:2953   */\n      dup1\n        /* \"#utility.yul\":2938:2953   */\n      swap2\n      pop\n      pop\n        /* \"#utility.yul\":2612:2959   */\n      swap3\n      pop\n      swap3\n      swap1\n      pop\n      jump\t// out\n        /* \"#utility.yul\":2964:3224   */\n    tag_131:\n        /* \"#utility.yul\":3032:3038   */\n      0x00\n        /* \"#utility.yul\":3040:3046   */\n      dup1\n        /* \"#utility.yul\":3093:3095   */\n      0x40\n        /* \"#utility.yul\":3081:3090   */\n      dup4\n        /* \"#utility.yul\":3072:3079   */\n      dup6\n        /* \"#utility.yul\":3068:3091   */\n      sub\n        /* \"#utility.yul\":3064:3096   */\n      slt\n        /* \"#utility.yul\":3061:3113   */\n      iszero\n      tag_377\n      jumpi\n        /* \"#utility.yul\":3109:3110   */\n      0x00\n        /* \"#utility.yul\":3106:3107   */\n      dup1\n        /* \"#utility.yul\":3099:3111   */\n      revert\n        /* \"#utility.yul\":3061:3113   */\n    tag_377:\n        /* \"#utility.yul\":3132:3161   */\n      tag_378\n        /* \"#utility.yul\":3151:3160   */\n      dup4\n        /* \"#utility.yul\":3132:3161   */\n      tag_350\n      jump\t// in\n    tag_378:\n        /* \"#utility.yul\":3122:3161   */\n      swap2\n      pop\n        /* \"#utility.yul\":3180:3218   */\n      tag_379\n        /* \"#utility.yul\":3214:3216   */\n      0x20\n        /* \"#utility.yul\":3203:3212   */\n      dup5\n        /* \"#utility.yul\":3199:3217   */\n      add\n        /* \"#utility.yul\":3180:3218   */\n      tag_350\n      jump\t// in\n    tag_379:\n        /* \"#utility.yul\":3170:3218   */\n      swap1\n      pop\n        /* \"#utility.yul\":2964:3224   */\n      swap3\n      pop\n      swap3\n      swap1\n      pop\n      jump\t// out\n        /* \"#utility.yul\":3229:3609   */\n    tag_145:\n        /* \"#utility.yul\":3308:3309   */\n      0x01\n        /* \"#utility.yul\":3304:3316   */\n      dup2\n      dup2\n      shr\n      swap1\n        /* \"#utility.yul\":3351:3363   */\n      dup3\n      and\n      dup1\n        /* \"#utility.yul\":3372:3433   */\n      tag_381\n      jumpi\n        /* \"#utility.yul\":3426:3430   */\n      0x7f\n        /* \"#utility.yul\":3418:3424   */\n      dup3\n        /* \"#utility.yul\":3414:3431   */\n      and\n        /* \"#utility.yul\":3404:3431   */\n      swap2\n      pop\n        /* \"#utility.yul\":3372:3433   */\n    tag_381:\n        /* \"#utility.yul\":3479:3481   */\n      0x20\n        /* \"#utility.yul\":3471:3477   */\n      dup3\n        /* \"#utility.yul\":3468:3482   */\n      lt\n        /* \"#utility.yul\":3448:3466   */\n      dup2\n        /* \"#utility.yul\":3445:3483   */\n      sub\n        /* \"#utility.yul\":3442:3603   */\n      tag_382\n      jumpi\n        /* \"#utility.yul\":3525:3535   */\n      0x4e487b71\n        /* \"#utility.yul\":3520:3523   */\n      0xe0\n        /* \"#utility.yul\":3516:3536   */\n      shl\n        /* \"#utility.yul\":3513:3514   */\n      0x00\n        /* \"#utility.yul\":3506:3537   */\n      mstore\n        /* \"#utility.yul\":3560:3564   */\n      0x22\n        /* \"#utility.yul\":3557:3558   */\n      0x04\n        /* \"#utility.yul\":3550:3565   */\n      mstore\n        /* \"#utility.yul\":3588:3592   */\n      0x24\n        /* \"#utility.yul\":3585:3586   */\n      0x00\n        /* \"#utility.yul\":3578:3593   */\n      revert\n        /* \"#utility.yul\":3442:3603   */\n    tag_382:\n      pop\n        /* \"#utility.yul\":3229:3609   */\n      swap2\n      swap1\n      pop\n      jump\t// out\n        /* \"#utility.yul\":4208:4335   */\n    tag_351:\n        /* \"#utility.yul\":4269:4279   */\n      0x4e487b71\n        /* \"#utility.yul\":4264:4267   */\n      0xe0\n        /* \"#utility.yul\":4260:4280   */\n      shl\n        /* \"#utility.yul\":4257:4258   */\n      0x00\n        /* \"#utility.yul\":4250:4281   */\n      mstore\n        /* \"#utility.yul\":4300:4304   */\n      0x11\n        /* \"#utility.yul\":4297:4298   */\n      0x04\n        /* \"#utility.yul\":4290:4305   */\n      mstore\n        /* \"#utility.yul\":4324:4328   */\n      0x24\n        /* \"#utility.yul\":4321:4322   */\n      0x00\n        /* \"#utility.yul\":4314:4329   */\n      revert\n        /* \"#utility.yul\":4340:4468   */\n    tag_177:\n        /* \"#utility.yul\":4407:4416   */\n      dup2\n      dup2\n      sub\n        /* \"#utility.yul\":4428:4439   */\n      dup2\n      dup2\n      gt\n        /* \"#utility.yul\":4425:4462   */\n      iszero\n      tag_150\n      jumpi\n        /* \"#utility.yul\":4442:4460   */\n      tag_150\n      tag_351\n      jump\t// in\n        /* \"#utility.yul\":5183:5351   */\n    tag_231:\n        /* \"#utility.yul\":5256:5265   */\n      dup1\n      dup3\n      mul\n        /* \"#utility.yul\":5287:5296   */\n      dup2\n      iszero\n        /* \"#utility.yul\":5304:5319   */\n      dup3\n      dup3\n      div\n        /* \"#utility.yul\":5298:5320   */\n      dup5\n      eq\n        /* \"#utility.yul\":5284:5321   */\n      or\n        /* \"#utility.yul\":5274:5345   */\n      tag_150\n      jumpi\n        /* \"#utility.yul\":5325:5343   */\n      tag_150\n      tag_351\n      jump\t// in\n        /* \"#utility.yul\":5356:5573   */\n    tag_233:\n        /* \"#utility.yul\":5396:5397   */\n      0x00\n        /* \"#utility.yul\":5422:5423   */\n      dup3\n        /* \"#utility.yul\":5412:5544   */\n      tag_395\n      jumpi\n        /* \"#utility.yul\":5466:5476   */\n      0x4e487b71\n        /* \"#utility.yul\":5461:5464   */\n      0xe0\n        /* \"#utility.yul\":5457:5477   */\n      shl\n        /* \"#utility.yul\":5454:5455   */\n      0x00\n        /* \"#utility.yul\":5447:5478   */\n      mstore\n        /* \"#utility.yul\":5501:5505   */\n      0x12\n        /* \"#utility.yul\":5498:5499   */\n      0x04\n        /* \"#utility.yul\":5491:5506   */\n      mstore\n        /* \"#utility.yul\":5529:5533   */\n      0x24\n        /* \"#utility.yul\":5526:5527   */\n      0x00\n        /* \"#utility.yul\":5519:5534   */\n      revert\n        /* \"#utility.yul\":5412:5544   */\n    tag_395:\n      pop\n        /* \"#utility.yul\":5558:5567   */\n      div\n      swap1\n        /* \"#utility.yul\":5356:5573   */\n      jump\t// out\n        /* \"#utility.yul\":5923:6048   */\n    tag_263:\n        /* \"#utility.yul\":5988:5997   */\n      dup1\n      dup3\n      add\n        /* \"#utility.yul\":6009:6019   */\n      dup1\n      dup3\n      gt\n        /* \"#utility.yul\":6006:6042   */\n      iszero\n      tag_150\n      jumpi\n        /* \"#utility.yul\":6022:6040   */\n      tag_150\n      tag_351\n      jump\t// in\n    stop\n    data_859952f8ad95bf3b9d6ec6d5182f93b209cbb9a33d14bac6f48292b740d5a146 6e232b0acf46272dacf889af6767574775a324b133d42b3b8cffa9cd13159984\n\n    auxdata: 0xa26469706673582212204cd1936726e61034d3f90f1aeb65d2df8a28dbd1e6197f4122c409eb743b5fab64736f6c634300081a0033\n}\n",
				"bytecode": {
					"linkReferences": {},
					"object": "6080604052600a600c55600c600d55348015610019575f80fd5b506040516118163803806118168339810160408190526100389161033e565b336040518060400160405280600a8152602001692c22a0a6902a37b5b2b760b11b815250604051806040016040528060048152602001635845414d60e01b81525081600390816100889190610437565b5060046100958282610437565b5050506001600160a01b0381166100c657604051631e4fbdf760e01b81525f60048201526024015b60405180910390fd5b6100cf81610174565b506001600655600780546001600160a81b0319166101006001600160a01b038881169190910291909117909155600880546001600160a01b031990811687841617909155600980548216868416179055600a80548216858416179055600b8054909116918316919091179055610150336a01a784379d99db420000006101c5565b5050335f908152600e60205260409020805460ff1916600117905550610516915050565b600580546001600160a01b038381166001600160a01b0319831681179093556040519116919082907f8be0079c531659141344cd1fd0a4f28419497f9722a3daafe3b4186f6b6457e0905f90a35050565b6001600160a01b0382166101ee5760405163ec442f0560e01b81525f60048201526024016100bd565b6101f95f83836101fd565b5050565b6001600160a01b038316610227578060025f82825461021c91906104f1565b909155506102979050565b6001600160a01b0383165f90815260208190526040902054818110156102795760405163391434e360e21b81526001600160a01b038516600482015260248101829052604481018390526064016100bd565b6001600160a01b0384165f9081526020819052604090209082900390555b6001600160a01b0382166102b3576002805482900390556102d1565b6001600160a01b0382165f9081526020819052604090208054820190555b816001600160a01b0316836001600160a01b03167fddf252ad1be2c89b69c2b068fc378daa952ba7f163c4a11628f55a4df523b3ef8360405161031691815260200190565b60405180910390a3505050565b80516001600160a01b0381168114610339575f80fd5b919050565b5f805f805f60a08688031215610352575f80fd5b61035b86610323565b945061036960208701610323565b935061037760408701610323565b925061038560608701610323565b915061039360808701610323565b90509295509295909350565b634e487b7160e01b5f52604160045260245ffd5b600181811c908216806103c757607f821691505b6020821081036103e557634e487b7160e01b5f52602260045260245ffd5b50919050565b601f82111561043257805f5260205f20601f840160051c810160208510156104105750805b601f840160051c820191505b8181101561042f575f815560010161041c565b50505b505050565b81516001600160401b038111156104505761045061039f565b6104648161045e84546103b3565b846103eb565b6020601f821160018114610496575f831561047f5750848201515b5f19600385901b1c1916600184901b17845561042f565b5f84815260208120601f198516915b828110156104c557878501518255602094850194600190920191016104a5565b50848210156104e257868401515f19600387901b60f8161c191681555b50505050600190811b01905550565b8082018082111561051057634e487b7160e01b5f52601160045260245ffd5b92915050565b6112f3806105235f395ff3fe608060405234801561000f575f80fd5b50600436106101d1575f3560e01c8063753cafc3116100fe578063c12b7c4e1161009e578063dd62ed3e1161006e578063dd62ed3e146103c2578063df7787a4146103fa578063f2fde38b14610402578063f3b2db3f14610415575f80fd5b8063c12b7c4e14610380578063c816841b14610393578063cc1776d3146103a6578063cc859378146103af575f80fd5b80638da5cb5b116100d95780638da5cb5b1461034c57806395d89b411461035d578063a9059cbb14610365578063bea9ea6214610378575f80fd5b8063753cafc31461031e57806375f0a874146103315780638456cb5914610344575f80fd5b8063313ce5671161017457806352a6a9ec1161014457806352a6a9ec146102cb5780635c975abb146102e357806370a08231146102ee578063715018a614610316575f80fd5b8063313ce567146102895780633f4ba83a146102985780634f7041a5146102a05780634fbee193146102a9575f80fd5b80631006ee0c116101af5780631006ee0c1461023d57806318160ddd1461025257806323b872dd146102645780632ff2e9dc14610277575f80fd5b806306ee6ad8146101d557806306fdde0314610205578063095ea7b31461021a575b5f80fd5b600a546101e8906001600160a01b031681565b6040516001600160a01b0390911681526020015b60405180910390f35b61020d61041d565b6040516101fc9190611099565b61022d6102283660046110e9565b6104ad565b60405190151581526020016101fc565b61025061024b366004611111565b6104c6565b005b6002545b6040519081526020016101fc565b61022d610272366004611131565b610567565b6102566a01a784379d99db4200000081565b604051601281526020016101fc565b6102506105ca565b610256600c5481565b61022d6102b736600461116b565b600e6020525f908152604090205460ff1681565b6007546101e89061010090046001600160a01b031681565b60075460ff1661022d565b6102566102fc36600461116b565b6001600160a01b03165f9081526020819052604090205490565b6102506105dc565b61025061032c36600461118b565b6105ed565b6009546101e8906001600160a01b031681565b61025061061f565b6005546001600160a01b03166101e8565b61020d61062f565b61022d6103733660046110e9565b61063e565b610250610666565b61025061038e36600461116b565b610715565b600b546101e8906001600160a01b031681565b610256600d5481565b6008546101e8906001600160a01b031681565b6102566103d03660046111c4565b6001600160a01b039182165f90815260016020908152604080832093909416825291909152205490565b6102566107c1565b61025061041036600461116b565b6107e6565b610256610823565b60606003805461042c906111f5565b80601f0160208091040260200160405190810160405280929190818152602001828054610458906111f5565b80156104a35780601f1061047a576101008083540402835291602001916104a3565b820191905f5260205f20905b81548152906001019060200180831161048657829003601f168201915b5050505050905090565b5f336104ba81858561083c565b60019150505b92915050565b6104ce61084e565b600f82111580156104e0575060148111155b6105205760405162461bcd60e51b815260206004820152600c60248201526b0a8c2f040e8dede40d0d2ced60a31b60448201526064015b60405180910390fd5b600c829055600d81905560408051838152602081018390527f35d461df023e70886ad5e68610133ecb7d637c2263453f6ea50daf699cb31ed4910160405180910390a15050565b5f61057061087b565b61057b8484846108c1565b6105868484846109eb565b6001600160a01b0384165f908152600160209081526040808320338085529252909120546105c09186916105bb908690611241565b61083c565b5060019392505050565b6105d261084e565b6105da610d1a565b565b6105e461084e565b6105da5f610d6c565b6105f561084e565b6001600160a01b03919091165f908152600e60205260409020805460ff1916911515919091179055565b61062761084e565b6105da610dbd565b60606004805461042c906111f5565b5f61064761087b565b6106523384846108c1565b61065d3384846109eb565b50600192915050565b61066e61084e565b305f90815260208190526040902054806106c25760405162461bcd60e51b81526020600482015260156024820152744e6f204c502066756e647320617661696c61626c6560581b6044820152606401610517565b6106de306106d86005546001600160a01b031690565b83610dfa565b6040518181527fbba45ff8bcb537fdedce576e22fc876a23312f65b5166c004136ece621f3ea93906020015b60405180910390a150565b61071d61084e565b6001600160a01b0381166107735760405162461bcd60e51b815260206004820152601f60248201527f4e6577207061697220616464726573732063616e6e6f74206265207a65726f006044820152606401610517565b600b80546001600160a01b0319166001600160a01b0383169081179091556040519081527fdd2689cb5e1ca91bab290e22ada24c52705073cf17bacb82133714fa842713449060200161070a565b60646107d96a01a784379d99db420000006001611254565b6107e3919061126b565b81565b6107ee61084e565b6001600160a01b03811661081757604051631e4fbdf760e01b81525f6004820152602401610517565b61082081610d6c565b50565b6127106107d96a01a784379d99db420000006005611254565b6108498383836001610e57565b505050565b6005546001600160a01b031633146105da5760405163118cdaa760e01b8152336004820152602401610517565b60075460ff16156105da5760405162461bcd60e51b815260206004820152601060248201526f14185d5cd8589b194e881c185d5cd95960821b6044820152606401610517565b6001600160a01b0383165f908152600e602052604090205460ff166108495760646108f86a01a784379d99db420000006001611254565b610902919061126b565b81610921846001600160a01b03165f9081526020819052604090205490565b61092b919061128a565b11156109795760405162461bcd60e51b815260206004820152601860248201527f45786365656473206d61782077616c6c6574206c696d697400000000000000006044820152606401610517565b6127106109926a01a784379d99db420000006005611254565b61099c919061126b565b8111156108495760405162461bcd60e51b815260206004820152601d60248201527f45786365656473206d6178207472616e73616374696f6e206c696d69740000006044820152606401610517565b600b545f906001600160a01b03848116911614610a21576064600c5483610a129190611254565b610a1c919061126b565b610a3b565b6064600d5483610a319190611254565b610a3b919061126b565b905080821015610a8d5760405162461bcd60e51b815260206004820152601b60248201527f5461782065786365656473207472616e7366657220616d6f756e7400000000006044820152606401610517565b5f610a988284611241565b90505f600c610aa8846004611254565b610ab2919061126b565b90505f600c610ac2856004611254565b610acc919061126b565b90505f600c610adc866001611254565b610ae6919061126b565b90505f600c610af6876002611254565b610b00919061126b565b90505f600c610b10886001611254565b610b1a919061126b565b9050610b3c8a600760019054906101000a90046001600160a01b031686610dfa565b5f8051602061129e83398151915284604051610b8491815260406020820181905260129082015271115b98dbdd5c9859d95b595b9d08119d5b9960721b606082015260800190565b60405180910390a1600854610ba4908b906001600160a01b031685610dfa565b5f8051602061129e83398151915283604051610be8918152604060208201819052600e908201526d115b595c99d95b98de48119d5b9960921b606082015260800190565b60405180910390a1600954610c08908b906001600160a01b031684610dfa565b5f8051602061129e83398151915282604051610c47918152604060208201819052600990820152684d61726b6574696e6760b81b606082015260800190565b60405180910390a1600a54610c67908b906001600160a01b031683610dfa565b5f8051602061129e83398151915281604051610ca4918152604060208201819052600790820152665374616b696e6760c81b606082015260800190565b60405180910390a1610cb78a3087610dfa565b5f8051602061129e83398151915285604051610cfb918152604060208201819052600e908201526d131a5c5d5a591a5d1e48141bdbdb60921b606082015260800190565b60405180910390a1610d0e8a8a88610dfa565b50505050505050505050565b610d22610f2a565b6007805460ff191690557f5db9ee0a495bf2e6ff9c91a7834c1ba4fdd244a5e8aa4e537bd38aeae4b073aa335b6040516001600160a01b03909116815260200160405180910390a1565b600580546001600160a01b038381166001600160a01b0319831681179093556040519116919082907f8be0079c531659141344cd1fd0a4f28419497f9722a3daafe3b4186f6b6457e0905f90a35050565b610dc561087b565b6007805460ff191660011790557f62e78cea01bee320cd4e420270b5ea74000d11b0c9f74754ebdbfc544b05a258610d4f3390565b6001600160a01b038316610e2357604051634b637e8f60e11b81525f6004820152602401610517565b6001600160a01b038216610e4c5760405163ec442f0560e01b81525f6004820152602401610517565b610849838383610f73565b6001600160a01b038416610e805760405163e602df0560e01b81525f6004820152602401610517565b6001600160a01b038316610ea957604051634a1406b160e11b81525f6004820152602401610517565b6001600160a01b038085165f9081526001602090815260408083209387168352929052208290558015610f2457826001600160a01b0316846001600160a01b03167f8c5be1e5ebec7d5bd14f71427d1e84f3dd0314c0f7b2291e5b200ac8c7c3b92584604051610f1b91815260200190565b60405180910390a35b50505050565b60075460ff166105da5760405162461bcd60e51b815260206004820152601460248201527314185d5cd8589b194e881b9bdd081c185d5cd95960621b6044820152606401610517565b6001600160a01b038316610f9d578060025f828254610f92919061128a565b9091555061100d9050565b6001600160a01b0383165f9081526020819052604090205481811015610fef5760405163391434e360e21b81526001600160a01b03851660048201526024810182905260448101839052606401610517565b6001600160a01b0384165f9081526020819052604090209082900390555b6001600160a01b03821661102957600280548290039055611047565b6001600160a01b0382165f9081526020819052604090208054820190555b816001600160a01b0316836001600160a01b03167fddf252ad1be2c89b69c2b068fc378daa952ba7f163c4a11628f55a4df523b3ef8360405161108c91815260200190565b60405180910390a3505050565b602081525f82518060208401528060208501604085015e5f604082850101526040601f19601f83011684010191505092915050565b80356001600160a01b03811681146110e4575f80fd5b919050565b5f80604083850312156110fa575f80fd5b611103836110ce565b946020939093013593505050565b5f8060408385031215611122575f80fd5b50508035926020909101359150565b5f805f60608486031215611143575f80fd5b61114c846110ce565b925061115a602085016110ce565b929592945050506040919091013590565b5f6020828403121561117b575f80fd5b611184826110ce565b9392505050565b5f806040838503121561119c575f80fd5b6111a5836110ce565b9150602083013580151581146111b9575f80fd5b809150509250929050565b5f80604083850312156111d5575f80fd5b6111de836110ce565b91506111ec602084016110ce565b90509250929050565b600181811c9082168061120957607f821691505b60208210810361122757634e487b7160e01b5f52602260045260245ffd5b50919050565b634e487b7160e01b5f52601160045260245ffd5b818103818111156104c0576104c061122d565b80820281158282048414176104c0576104c061122d565b5f8261128557634e487b7160e01b5f52601260045260245ffd5b500490565b808201808211156104c0576104c061122d56fe6e232b0acf46272dacf889af6767574775a324b133d42b3b8cffa9cd13159984a26469706673582212204cd1936726e61034d3f90f1aeb65d2df8a28dbd1e6197f4122c409eb743b5fab64736f6c634300081a0033",
					"opcodes": "PUSH1 0x80 PUSH1 0x40 MSTORE PUSH1 0xA PUSH1 0xC SSTORE PUSH1 0xC PUSH1 0xD SSTORE CALLVALUE DUP1 ISZERO PUSH2 0x19 JUMPI PUSH0 DUP1 REVERT JUMPDEST POP PUSH1 0x40 MLOAD PUSH2 0x1816 CODESIZE SUB DUP1 PUSH2 0x1816 DUP4 CODECOPY DUP2 ADD PUSH1 0x40 DUP2 SWAP1 MSTORE PUSH2 0x38 SWAP2 PUSH2 0x33E JUMP JUMPDEST CALLER PUSH1 0x40 MLOAD DUP1 PUSH1 0x40 ADD PUSH1 0x40 MSTORE DUP1 PUSH1 0xA DUP2 MSTORE PUSH1 0x20 ADD PUSH10 0x2C22A0A6902A37B5B2B7 PUSH1 0xB1 SHL DUP2 MSTORE POP PUSH1 0x40 MLOAD DUP1 PUSH1 0x40 ADD PUSH1 0x40 MSTORE DUP1 PUSH1 0x4 DUP2 MSTORE PUSH1 0x20 ADD PUSH4 0x5845414D PUSH1 0xE0 SHL DUP2 MSTORE POP DUP2 PUSH1 0x3 SWAP1 DUP2 PUSH2 0x88 SWAP2 SWAP1 PUSH2 0x437 JUMP JUMPDEST POP PUSH1 0x4 PUSH2 0x95 DUP3 DUP3 PUSH2 0x437 JUMP JUMPDEST POP POP POP PUSH1 0x1 PUSH1 0x1 PUSH1 0xA0 SHL SUB DUP2 AND PUSH2 0xC6 JUMPI PUSH1 0x40 MLOAD PUSH4 0x1E4FBDF7 PUSH1 0xE0 SHL DUP2 MSTORE PUSH0 PUSH1 0x4 DUP3 ADD MSTORE PUSH1 0x24 ADD JUMPDEST PUSH1 0x40 MLOAD DUP1 SWAP2 SUB SWAP1 REVERT JUMPDEST PUSH2 0xCF DUP2 PUSH2 0x174 JUMP JUMPDEST POP PUSH1 0x1 PUSH1 0x6 SSTORE PUSH1 0x7 DUP1 SLOAD PUSH1 0x1 PUSH1 0x1 PUSH1 0xA8 SHL SUB NOT AND PUSH2 0x100 PUSH1 0x1 PUSH1 0x1 PUSH1 0xA0 SHL SUB DUP9 DUP2 AND SWAP2 SWAP1 SWAP2 MUL SWAP2 SWAP1 SWAP2 OR SWAP1 SWAP2 SSTORE PUSH1 0x8 DUP1 SLOAD PUSH1 0x1 PUSH1 0x1 PUSH1 0xA0 SHL SUB NOT SWAP1 DUP2 AND DUP8 DUP5 AND OR SWAP1 SWAP2 SSTORE PUSH1 0x9 DUP1 SLOAD DUP3 AND DUP7 DUP5 AND OR SWAP1 SSTORE PUSH1 0xA DUP1 SLOAD DUP3 AND DUP6 DUP5 AND OR SWAP1 SSTORE PUSH1 0xB DUP1 SLOAD SWAP1 SWAP2 AND SWAP2 DUP4 AND SWAP2 SWAP1 SWAP2 OR SWAP1 SSTORE PUSH2 0x150 CALLER PUSH11 0x1A784379D99DB42000000 PUSH2 0x1C5 JUMP JUMPDEST POP POP CALLER PUSH0 SWAP1 DUP2 MSTORE PUSH1 0xE PUSH1 0x20 MSTORE PUSH1 0x40 SWAP1 KECCAK256 DUP1 SLOAD PUSH1 0xFF NOT AND PUSH1 0x1 OR SWAP1 SSTORE POP PUSH2 0x516 SWAP2 POP POP JUMP JUMPDEST PUSH1 0x5 DUP1 SLOAD PUSH1 0x1 PUSH1 0x1 PUSH1 0xA0 SHL SUB DUP4 DUP2 AND PUSH1 0x1 PUSH1 0x1 PUSH1 0xA0 SHL SUB NOT DUP4 AND DUP2 OR SWAP1 SWAP4 SSTORE PUSH1 0x40 MLOAD SWAP2 AND SWAP2 SWAP1 DUP3 SWAP1 PUSH32 0x8BE0079C531659141344CD1FD0A4F28419497F9722A3DAAFE3B4186F6B6457E0 SWAP1 PUSH0 SWAP1 LOG3 POP POP JUMP JUMPDEST PUSH1 0x1 PUSH1 0x1 PUSH1 0xA0 SHL SUB DUP3 AND PUSH2 0x1EE JUMPI PUSH1 0x40 MLOAD PUSH4 0xEC442F05 PUSH1 0xE0 SHL DUP2 MSTORE PUSH0 PUSH1 0x4 DUP3 ADD MSTORE PUSH1 0x24 ADD PUSH2 0xBD JUMP JUMPDEST PUSH2 0x1F9 PUSH0 DUP4 DUP4 PUSH2 0x1FD JUMP JUMPDEST POP POP JUMP JUMPDEST PUSH1 0x1 PUSH1 0x1 PUSH1 0xA0 SHL SUB DUP4 AND PUSH2 0x227 JUMPI DUP1 PUSH1 0x2 PUSH0 DUP3 DUP3 SLOAD PUSH2 0x21C SWAP2 SWAP1 PUSH2 0x4F1 JUMP JUMPDEST SWAP1 SWAP2 SSTORE POP PUSH2 0x297 SWAP1 POP JUMP JUMPDEST PUSH1 0x1 PUSH1 0x1 PUSH1 0xA0 SHL SUB DUP4 AND PUSH0 SWAP1 DUP2 MSTORE PUSH1 0x20 DUP2 SWAP1 MSTORE PUSH1 0x40 SWAP1 KECCAK256 SLOAD DUP2 DUP2 LT ISZERO PUSH2 0x279 JUMPI PUSH1 0x40 MLOAD PUSH4 0x391434E3 PUSH1 0xE2 SHL DUP2 MSTORE PUSH1 0x1 PUSH1 0x1 PUSH1 0xA0 SHL SUB DUP6 AND PUSH1 0x4 DUP3 ADD MSTORE PUSH1 0x24 DUP2 ADD DUP3 SWAP1 MSTORE PUSH1 0x44 DUP2 ADD DUP4 SWAP1 MSTORE PUSH1 0x64 ADD PUSH2 0xBD JUMP JUMPDEST PUSH1 0x1 PUSH1 0x1 PUSH1 0xA0 SHL SUB DUP5 AND PUSH0 SWAP1 DUP2 MSTORE PUSH1 0x20 DUP2 SWAP1 MSTORE PUSH1 0x40 SWAP1 KECCAK256 SWAP1 DUP3 SWAP1 SUB SWAP1 SSTORE JUMPDEST PUSH1 0x1 PUSH1 0x1 PUSH1 0xA0 SHL SUB DUP3 AND PUSH2 0x2B3 JUMPI PUSH1 0x2 DUP1 SLOAD DUP3 SWAP1 SUB SWAP1 SSTORE PUSH2 0x2D1 JUMP JUMPDEST PUSH1 0x1 PUSH1 0x1 PUSH1 0xA0 SHL SUB DUP3 AND PUSH0 SWAP1 DUP2 MSTORE PUSH1 0x20 DUP2 SWAP1 MSTORE PUSH1 0x40 SWAP1 KECCAK256 DUP1 SLOAD DUP3 ADD SWAP1 SSTORE JUMPDEST DUP2 PUSH1 0x1 PUSH1 0x1 PUSH1 0xA0 SHL SUB AND DUP4 PUSH1 0x1 PUSH1 0x1 PUSH1 0xA0 SHL SUB AND PUSH32 0xDDF252AD1BE2C89B69C2B068FC378DAA952BA7F163C4A11628F55A4DF523B3EF DUP4 PUSH1 0x40 MLOAD PUSH2 0x316 SWAP2 DUP2 MSTORE PUSH1 0x20 ADD SWAP1 JUMP JUMPDEST PUSH1 0x40 MLOAD DUP1 SWAP2 SUB SWAP1 LOG3 POP POP POP JUMP JUMPDEST DUP1 MLOAD PUSH1 0x1 PUSH1 0x1 PUSH1 0xA0 SHL SUB DUP2 AND DUP2 EQ PUSH2 0x339 JUMPI PUSH0 DUP1 REVERT JUMPDEST SWAP2 SWAP1 POP JUMP JUMPDEST PUSH0 DUP1 PUSH0 DUP1 PUSH0 PUSH1 0xA0 DUP7 DUP9 SUB SLT ISZERO PUSH2 0x352 JUMPI PUSH0 DUP1 REVERT JUMPDEST PUSH2 0x35B DUP7 PUSH2 0x323 JUMP JUMPDEST SWAP5 POP PUSH2 0x369 PUSH1 0x20 DUP8 ADD PUSH2 0x323 JUMP JUMPDEST SWAP4 POP PUSH2 0x377 PUSH1 0x40 DUP8 ADD PUSH2 0x323 JUMP JUMPDEST SWAP3 POP PUSH2 0x385 PUSH1 0x60 DUP8 ADD PUSH2 0x323 JUMP JUMPDEST SWAP2 POP PUSH2 0x393 PUSH1 0x80 DUP8 ADD PUSH2 0x323 JUMP JUMPDEST SWAP1 POP SWAP3 SWAP6 POP SWAP3 SWAP6 SWAP1 SWAP4 POP JUMP JUMPDEST PUSH4 0x4E487B71 PUSH1 0xE0 SHL PUSH0 MSTORE PUSH1 0x41 PUSH1 0x4 MSTORE PUSH1 0x24 PUSH0 REVERT JUMPDEST PUSH1 0x1 DUP2 DUP2 SHR SWAP1 DUP3 AND DUP1 PUSH2 0x3C7 JUMPI PUSH1 0x7F DUP3 AND SWAP2 POP JUMPDEST PUSH1 0x20 DUP3 LT DUP2 SUB PUSH2 0x3E5 JUMPI PUSH4 0x4E487B71 PUSH1 0xE0 SHL PUSH0 MSTORE PUSH1 0x22 PUSH1 0x4 MSTORE PUSH1 0x24 PUSH0 REVERT JUMPDEST POP SWAP2 SWAP1 POP JUMP JUMPDEST PUSH1 0x1F DUP3 GT ISZERO PUSH2 0x432 JUMPI DUP1 PUSH0 MSTORE PUSH1 0x20 PUSH0 KECCAK256 PUSH1 0x1F DUP5 ADD PUSH1 0x5 SHR DUP2 ADD PUSH1 0x20 DUP6 LT ISZERO PUSH2 0x410 JUMPI POP DUP1 JUMPDEST PUSH1 0x1F DUP5 ADD PUSH1 0x5 SHR DUP3 ADD SWAP2 POP JUMPDEST DUP2 DUP2 LT ISZERO PUSH2 0x42F JUMPI PUSH0 DUP2 SSTORE PUSH1 0x1 ADD PUSH2 0x41C JUMP JUMPDEST POP POP JUMPDEST POP POP POP JUMP JUMPDEST DUP2 MLOAD PUSH1 0x1 PUSH1 0x1 PUSH1 0x40 SHL SUB DUP2 GT ISZERO PUSH2 0x450 JUMPI PUSH2 0x450 PUSH2 0x39F JUMP JUMPDEST PUSH2 0x464 DUP2 PUSH2 0x45E DUP5 SLOAD PUSH2 0x3B3 JUMP JUMPDEST DUP5 PUSH2 0x3EB JUMP JUMPDEST PUSH1 0x20 PUSH1 0x1F DUP3 GT PUSH1 0x1 DUP2 EQ PUSH2 0x496 JUMPI PUSH0 DUP4 ISZERO PUSH2 0x47F JUMPI POP DUP5 DUP3 ADD MLOAD JUMPDEST PUSH0 NOT PUSH1 0x3 DUP6 SWAP1 SHL SHR NOT AND PUSH1 0x1 DUP5 SWAP1 SHL OR DUP5 SSTORE PUSH2 0x42F JUMP JUMPDEST PUSH0 DUP5 DUP2 MSTORE PUSH1 0x20 DUP2 KECCAK256 PUSH1 0x1F NOT DUP6 AND SWAP2 JUMPDEST DUP3 DUP2 LT ISZERO PUSH2 0x4C5 JUMPI DUP8 DUP6 ADD MLOAD DUP3 SSTORE PUSH1 0x20 SWAP5 DUP6 ADD SWAP5 PUSH1 0x1 SWAP1 SWAP3 ADD SWAP2 ADD PUSH2 0x4A5 JUMP JUMPDEST POP DUP5 DUP3 LT ISZERO PUSH2 0x4E2 JUMPI DUP7 DUP5 ADD MLOAD PUSH0 NOT PUSH1 0x3 DUP8 SWAP1 SHL PUSH1 0xF8 AND SHR NOT AND DUP2 SSTORE JUMPDEST POP POP POP POP PUSH1 0x1 SWAP1 DUP2 SHL ADD SWAP1 SSTORE POP JUMP JUMPDEST DUP1 DUP3 ADD DUP1 DUP3 GT ISZERO PUSH2 0x510 JUMPI PUSH4 0x4E487B71 PUSH1 0xE0 SHL PUSH0 MSTORE PUSH1 0x11 PUSH1 0x4 MSTORE PUSH1 0x24 PUSH0 REVERT JUMPDEST SWAP3 SWAP2 POP POP JUMP JUMPDEST PUSH2 0x12F3 DUP1 PUSH2 0x523 PUSH0 CODECOPY PUSH0 RETURN INVALID PUSH1 0x80 PUSH1 0x40 MSTORE CALLVALUE DUP1 ISZERO PUSH2 0xF JUMPI PUSH0 DUP1 REVERT JUMPDEST POP PUSH1 0x4 CALLDATASIZE LT PUSH2 0x1D1 JUMPI PUSH0 CALLDATALOAD PUSH1 0xE0 SHR DUP1 PUSH4 0x753CAFC3 GT PUSH2 0xFE JUMPI DUP1 PUSH4 0xC12B7C4E GT PUSH2 0x9E JUMPI DUP1 PUSH4 0xDD62ED3E GT PUSH2 0x6E JUMPI DUP1 PUSH4 0xDD62ED3E EQ PUSH2 0x3C2 JUMPI DUP1 PUSH4 0xDF7787A4 EQ PUSH2 0x3FA JUMPI DUP1 PUSH4 0xF2FDE38B EQ PUSH2 0x402 JUMPI DUP1 PUSH4 0xF3B2DB3F EQ PUSH2 0x415 JUMPI PUSH0 DUP1 REVERT JUMPDEST DUP1 PUSH4 0xC12B7C4E EQ PUSH2 0x380 JUMPI DUP1 PUSH4 0xC816841B EQ PUSH2 0x393 JUMPI DUP1 PUSH4 0xCC1776D3 EQ PUSH2 0x3A6 JUMPI DUP1 PUSH4 0xCC859378 EQ PUSH2 0x3AF JUMPI PUSH0 DUP1 REVERT JUMPDEST DUP1 PUSH4 0x8DA5CB5B GT PUSH2 0xD9 JUMPI DUP1 PUSH4 0x8DA5CB5B EQ PUSH2 0x34C JUMPI DUP1 PUSH4 0x95D89B41 EQ PUSH2 0x35D JUMPI DUP1 PUSH4 0xA9059CBB EQ PUSH2 0x365 JUMPI DUP1 PUSH4 0xBEA9EA62 EQ PUSH2 0x378 JUMPI PUSH0 DUP1 REVERT JUMPDEST DUP1 PUSH4 0x753CAFC3 EQ PUSH2 0x31E JUMPI DUP1 PUSH4 0x75F0A874 EQ PUSH2 0x331 JUMPI DUP1 PUSH4 0x8456CB59 EQ PUSH2 0x344 JUMPI PUSH0 DUP1 REVERT JUMPDEST DUP1 PUSH4 0x313CE567 GT PUSH2 0x174 JUMPI DUP1 PUSH4 0x52A6A9EC GT PUSH2 0x144 JUMPI DUP1 PUSH4 0x52A6A9EC EQ PUSH2 0x2CB JUMPI DUP1 PUSH4 0x5C975ABB EQ PUSH2 0x2E3 JUMPI DUP1 PUSH4 0x70A08231 EQ PUSH2 0x2EE JUMPI DUP1 PUSH4 0x715018A6 EQ PUSH2 0x316 JUMPI PUSH0 DUP1 REVERT JUMPDEST DUP1 PUSH4 0x313CE567 EQ PUSH2 0x289 JUMPI DUP1 PUSH4 0x3F4BA83A EQ PUSH2 0x298 JUMPI DUP1 PUSH4 0x4F7041A5 EQ PUSH2 0x2A0 JUMPI DUP1 PUSH4 0x4FBEE193 EQ PUSH2 0x2A9 JUMPI PUSH0 DUP1 REVERT JUMPDEST DUP1 PUSH4 0x1006EE0C GT PUSH2 0x1AF JUMPI DUP1 PUSH4 0x1006EE0C EQ PUSH2 0x23D JUMPI DUP1 PUSH4 0x18160DDD EQ PUSH2 0x252 JUMPI DUP1 PUSH4 0x23B872DD EQ PUSH2 0x264 JUMPI DUP1 PUSH4 0x2FF2E9DC EQ PUSH2 0x277 JUMPI PUSH0 DUP1 REVERT JUMPDEST DUP1 PUSH4 0x6EE6AD8 EQ PUSH2 0x1D5 JUMPI DUP1 PUSH4 0x6FDDE03 EQ PUSH2 0x205 JUMPI DUP1 PUSH4 0x95EA7B3 EQ PUSH2 0x21A JUMPI JUMPDEST PUSH0 DUP1 REVERT JUMPDEST PUSH1 0xA SLOAD PUSH2 0x1E8 SWAP1 PUSH1 0x1 PUSH1 0x1 PUSH1 0xA0 SHL SUB AND DUP2 JUMP JUMPDEST PUSH1 0x40 MLOAD PUSH1 0x1 PUSH1 0x1 PUSH1 0xA0 SHL SUB SWAP1 SWAP2 AND DUP2 MSTORE PUSH1 0x20 ADD JUMPDEST PUSH1 0x40 MLOAD DUP1 SWAP2 SUB SWAP1 RETURN JUMPDEST PUSH2 0x20D PUSH2 0x41D JUMP JUMPDEST PUSH1 0x40 MLOAD PUSH2 0x1FC SWAP2 SWAP1 PUSH2 0x1099 JUMP JUMPDEST PUSH2 0x22D PUSH2 0x228 CALLDATASIZE PUSH1 0x4 PUSH2 0x10E9 JUMP JUMPDEST PUSH2 0x4AD JUMP JUMPDEST PUSH1 0x40 MLOAD SWAP1 ISZERO ISZERO DUP2 MSTORE PUSH1 0x20 ADD PUSH2 0x1FC JUMP JUMPDEST PUSH2 0x250 PUSH2 0x24B CALLDATASIZE PUSH1 0x4 PUSH2 0x1111 JUMP JUMPDEST PUSH2 0x4C6 JUMP JUMPDEST STOP JUMPDEST PUSH1 0x2 SLOAD JUMPDEST PUSH1 0x40 MLOAD SWAP1 DUP2 MSTORE PUSH1 0x20 ADD PUSH2 0x1FC JUMP JUMPDEST PUSH2 0x22D PUSH2 0x272 CALLDATASIZE PUSH1 0x4 PUSH2 0x1131 JUMP JUMPDEST PUSH2 0x567 JUMP JUMPDEST PUSH2 0x256 PUSH11 0x1A784379D99DB42000000 DUP2 JUMP JUMPDEST PUSH1 0x40 MLOAD PUSH1 0x12 DUP2 MSTORE PUSH1 0x20 ADD PUSH2 0x1FC JUMP JUMPDEST PUSH2 0x250 PUSH2 0x5CA JUMP JUMPDEST PUSH2 0x256 PUSH1 0xC SLOAD DUP2 JUMP JUMPDEST PUSH2 0x22D PUSH2 0x2B7 CALLDATASIZE PUSH1 0x4 PUSH2 0x116B JUMP JUMPDEST PUSH1 0xE PUSH1 0x20 MSTORE PUSH0 SWAP1 DUP2 MSTORE PUSH1 0x40 SWAP1 KECCAK256 SLOAD PUSH1 0xFF AND DUP2 JUMP JUMPDEST PUSH1 0x7 SLOAD PUSH2 0x1E8 SWAP1 PUSH2 0x100 SWAP1 DIV PUSH1 0x1 PUSH1 0x1 PUSH1 0xA0 SHL SUB AND DUP2 JUMP JUMPDEST PUSH1 0x7 SLOAD PUSH1 0xFF AND PUSH2 0x22D JUMP JUMPDEST PUSH2 0x256 PUSH2 0x2FC CALLDATASIZE PUSH1 0x4 PUSH2 0x116B JUMP JUMPDEST PUSH1 0x1 PUSH1 0x1 PUSH1 0xA0 SHL SUB AND PUSH0 SWAP1 DUP2 MSTORE PUSH1 0x20 DUP2 SWAP1 MSTORE PUSH1 0x40 SWAP1 KECCAK256 SLOAD SWAP1 JUMP JUMPDEST PUSH2 0x250 PUSH2 0x5DC JUMP JUMPDEST PUSH2 0x250 PUSH2 0x32C CALLDATASIZE PUSH1 0x4 PUSH2 0x118B JUMP JUMPDEST PUSH2 0x5ED JUMP JUMPDEST PUSH1 0x9 SLOAD PUSH2 0x1E8 SWAP1 PUSH1 0x1 PUSH1 0x1 PUSH1 0xA0 SHL SUB AND DUP2 JUMP JUMPDEST PUSH2 0x250 PUSH2 0x61F JUMP JUMPDEST PUSH1 0x5 SLOAD PUSH1 0x1 PUSH1 0x1 PUSH1 0xA0 SHL SUB AND PUSH2 0x1E8 JUMP JUMPDEST PUSH2 0x20D PUSH2 0x62F JUMP JUMPDEST PUSH2 0x22D PUSH2 0x373 CALLDATASIZE PUSH1 0x4 PUSH2 0x10E9 JUMP JUMPDEST PUSH2 0x63E JUMP JUMPDEST PUSH2 0x250 PUSH2 0x666 JUMP JUMPDEST PUSH2 0x250 PUSH2 0x38E CALLDATASIZE PUSH1 0x4 PUSH2 0x116B JUMP JUMPDEST PUSH2 0x715 JUMP JUMPDEST PUSH1 0xB SLOAD PUSH2 0x1E8 SWAP1 PUSH1 0x1 PUSH1 0x1 PUSH1 0xA0 SHL SUB AND DUP2 JUMP JUMPDEST PUSH2 0x256 PUSH1 0xD SLOAD DUP2 JUMP JUMPDEST PUSH1 0x8 SLOAD PUSH2 0x1E8 SWAP1 PUSH1 0x1 PUSH1 0x1 PUSH1 0xA0 SHL SUB AND DUP2 JUMP JUMPDEST PUSH2 0x256 PUSH2 0x3D0 CALLDATASIZE PUSH1 0x4 PUSH2 0x11C4 JUMP JUMPDEST PUSH1 0x1 PUSH1 0x1 PUSH1 0xA0 SHL SUB SWAP2 DUP3 AND PUSH0 SWAP1 DUP2 MSTORE PUSH1 0x1 PUSH1 0x20 SWAP1 DUP2 MSTORE PUSH1 0x40 DUP1 DUP4 KECCAK256 SWAP4 SWAP1 SWAP5 AND DUP3 MSTORE SWAP2 SWAP1 SWAP2 MSTORE KECCAK256 SLOAD SWAP1 JUMP JUMPDEST PUSH2 0x256 PUSH2 0x7C1 JUMP JUMPDEST PUSH2 0x250 PUSH2 0x410 CALLDATASIZE PUSH1 0x4 PUSH2 0x116B JUMP JUMPDEST PUSH2 0x7E6 JUMP JUMPDEST PUSH2 0x256 PUSH2 0x823 JUMP JUMPDEST PUSH1 0x60 PUSH1 0x3 DUP1 SLOAD PUSH2 0x42C SWAP1 PUSH2 0x11F5 JUMP JUMPDEST DUP1 PUSH1 0x1F ADD PUSH1 0x20 DUP1 SWAP2 DIV MUL PUSH1 0x20 ADD PUSH1 0x40 MLOAD SWAP1 DUP2 ADD PUSH1 0x40 MSTORE DUP1 SWAP3 SWAP2 SWAP1 DUP2 DUP2 MSTORE PUSH1 0x20 ADD DUP3 DUP1 SLOAD PUSH2 0x458 SWAP1 PUSH2 0x11F5 JUMP JUMPDEST DUP1 ISZERO PUSH2 0x4A3 JUMPI DUP1 PUSH1 0x1F LT PUSH2 0x47A JUMPI PUSH2 0x100 DUP1 DUP4 SLOAD DIV MUL DUP4 MSTORE SWAP2 PUSH1 0x20 ADD SWAP2 PUSH2 0x4A3 JUMP JUMPDEST DUP3 ADD SWAP2 SWAP1 PUSH0 MSTORE PUSH1 0x20 PUSH0 KECCAK256 SWAP1 JUMPDEST DUP2 SLOAD DUP2 MSTORE SWAP1 PUSH1 0x1 ADD SWAP1 PUSH1 0x20 ADD DUP1 DUP4 GT PUSH2 0x486 JUMPI DUP3 SWAP1 SUB PUSH1 0x1F AND DUP3 ADD SWAP2 JUMPDEST POP POP POP POP POP SWAP1 POP SWAP1 JUMP JUMPDEST PUSH0 CALLER PUSH2 0x4BA DUP2 DUP6 DUP6 PUSH2 0x83C JUMP JUMPDEST PUSH1 0x1 SWAP2 POP POP JUMPDEST SWAP3 SWAP2 POP POP JUMP JUMPDEST PUSH2 0x4CE PUSH2 0x84E JUMP JUMPDEST PUSH1 0xF DUP3 GT ISZERO DUP1 ISZERO PUSH2 0x4E0 JUMPI POP PUSH1 0x14 DUP2 GT ISZERO JUMPDEST PUSH2 0x520 JUMPI PUSH1 0x40 MLOAD PUSH3 0x461BCD PUSH1 0xE5 SHL DUP2 MSTORE PUSH1 0x20 PUSH1 0x4 DUP3 ADD MSTORE PUSH1 0xC PUSH1 0x24 DUP3 ADD MSTORE PUSH12 0xA8C2F040E8DEDE40D0D2CED PUSH1 0xA3 SHL PUSH1 0x44 DUP3 ADD MSTORE PUSH1 0x64 ADD JUMPDEST PUSH1 0x40 MLOAD DUP1 SWAP2 SUB SWAP1 REVERT JUMPDEST PUSH1 0xC DUP3 SWAP1 SSTORE PUSH1 0xD DUP2 SWAP1 SSTORE PUSH1 0x40 DUP1 MLOAD DUP4 DUP2 MSTORE PUSH1 0x20 DUP2 ADD DUP4 SWAP1 MSTORE PUSH32 0x35D461DF023E70886AD5E68610133ECB7D637C2263453F6EA50DAF699CB31ED4 SWAP2 ADD PUSH1 0x40 MLOAD DUP1 SWAP2 SUB SWAP1 LOG1 POP POP JUMP JUMPDEST PUSH0 PUSH2 0x570 PUSH2 0x87B JUMP JUMPDEST PUSH2 0x57B DUP5 DUP5 DUP5 PUSH2 0x8C1 JUMP JUMPDEST PUSH2 0x586 DUP5 DUP5 DUP5 PUSH2 0x9EB JUMP JUMPDEST PUSH1 0x1 PUSH1 0x1 PUSH1 0xA0 SHL SUB DUP5 AND PUSH0 SWAP1 DUP2 MSTORE PUSH1 0x1 PUSH1 0x20 SWAP1 DUP2 MSTORE PUSH1 0x40 DUP1 DUP4 KECCAK256 CALLER DUP1 DUP6 MSTORE SWAP3 MSTORE SWAP1 SWAP2 KECCAK256 SLOAD PUSH2 0x5C0 SWAP2 DUP7 SWAP2 PUSH2 0x5BB SWAP1 DUP7 SWAP1 PUSH2 0x1241 JUMP JUMPDEST PUSH2 0x83C JUMP JUMPDEST POP PUSH1 0x1 SWAP4 SWAP3 POP POP POP JUMP JUMPDEST PUSH2 0x5D2 PUSH2 0x84E JUMP JUMPDEST PUSH2 0x5DA PUSH2 0xD1A JUMP JUMPDEST JUMP JUMPDEST PUSH2 0x5E4 PUSH2 0x84E JUMP JUMPDEST PUSH2 0x5DA PUSH0 PUSH2 0xD6C JUMP JUMPDEST PUSH2 0x5F5 PUSH2 0x84E JUMP JUMPDEST PUSH1 0x1 PUSH1 0x1 PUSH1 0xA0 SHL SUB SWAP2 SWAP1 SWAP2 AND PUSH0 SWAP1 DUP2 MSTORE PUSH1 0xE PUSH1 0x20 MSTORE PUSH1 0x40 SWAP1 KECCAK256 DUP1 SLOAD PUSH1 0xFF NOT AND SWAP2 ISZERO ISZERO SWAP2 SWAP1 SWAP2 OR SWAP1 SSTORE JUMP JUMPDEST PUSH2 0x627 PUSH2 0x84E JUMP JUMPDEST PUSH2 0x5DA PUSH2 0xDBD JUMP JUMPDEST PUSH1 0x60 PUSH1 0x4 DUP1 SLOAD PUSH2 0x42C SWAP1 PUSH2 0x11F5 JUMP JUMPDEST PUSH0 PUSH2 0x647 PUSH2 0x87B JUMP JUMPDEST PUSH2 0x652 CALLER DUP5 DUP5 PUSH2 0x8C1 JUMP JUMPDEST PUSH2 0x65D CALLER DUP5 DUP5 PUSH2 0x9EB JUMP JUMPDEST POP PUSH1 0x1 SWAP3 SWAP2 POP POP JUMP JUMPDEST PUSH2 0x66E PUSH2 0x84E JUMP JUMPDEST ADDRESS PUSH0 SWAP1 DUP2 MSTORE PUSH1 0x20 DUP2 SWAP1 MSTORE PUSH1 0x40 SWAP1 KECCAK256 SLOAD DUP1 PUSH2 0x6C2 JUMPI PUSH1 0x40 MLOAD PUSH3 0x461BCD PUSH1 0xE5 SHL DUP2 MSTORE PUSH1 0x20 PUSH1 0x4 DUP3 ADD MSTORE PUSH1 0x15 PUSH1 0x24 DUP3 ADD MSTORE PUSH21 0x4E6F204C502066756E647320617661696C61626C65 PUSH1 0x58 SHL PUSH1 0x44 DUP3 ADD MSTORE PUSH1 0x64 ADD PUSH2 0x517 JUMP JUMPDEST PUSH2 0x6DE ADDRESS PUSH2 0x6D8 PUSH1 0x5 SLOAD PUSH1 0x1 PUSH1 0x1 PUSH1 0xA0 SHL SUB AND SWAP1 JUMP JUMPDEST DUP4 PUSH2 0xDFA JUMP JUMPDEST PUSH1 0x40 MLOAD DUP2 DUP2 MSTORE PUSH32 0xBBA45FF8BCB537FDEDCE576E22FC876A23312F65B5166C004136ECE621F3EA93 SWAP1 PUSH1 0x20 ADD JUMPDEST PUSH1 0x40 MLOAD DUP1 SWAP2 SUB SWAP1 LOG1 POP JUMP JUMPDEST PUSH2 0x71D PUSH2 0x84E JUMP JUMPDEST PUSH1 0x1 PUSH1 0x1 PUSH1 0xA0 SHL SUB DUP2 AND PUSH2 0x773 JUMPI PUSH1 0x40 MLOAD PUSH3 0x461BCD PUSH1 0xE5 SHL DUP2 MSTORE PUSH1 0x20 PUSH1 0x4 DUP3 ADD MSTORE PUSH1 0x1F PUSH1 0x24 DUP3 ADD MSTORE PUSH32 0x4E6577207061697220616464726573732063616E6E6F74206265207A65726F00 PUSH1 0x44 DUP3 ADD MSTORE PUSH1 0x64 ADD PUSH2 0x517 JUMP JUMPDEST PUSH1 0xB DUP1 SLOAD PUSH1 0x1 PUSH1 0x1 PUSH1 0xA0 SHL SUB NOT AND PUSH1 0x1 PUSH1 0x1 PUSH1 0xA0 SHL SUB DUP4 AND SWAP1 DUP2 OR SWAP1 SWAP2 SSTORE PUSH1 0x40 MLOAD SWAP1 DUP2 MSTORE PUSH32 0xDD2689CB5E1CA91BAB290E22ADA24C52705073CF17BACB82133714FA84271344 SWAP1 PUSH1 0x20 ADD PUSH2 0x70A JUMP JUMPDEST PUSH1 0x64 PUSH2 0x7D9 PUSH11 0x1A784379D99DB42000000 PUSH1 0x1 PUSH2 0x1254 JUMP JUMPDEST PUSH2 0x7E3 SWAP2 SWAP1 PUSH2 0x126B JUMP JUMPDEST DUP2 JUMP JUMPDEST PUSH2 0x7EE PUSH2 0x84E JUMP JUMPDEST PUSH1 0x1 PUSH1 0x1 PUSH1 0xA0 SHL SUB DUP2 AND PUSH2 0x817 JUMPI PUSH1 0x40 MLOAD PUSH4 0x1E4FBDF7 PUSH1 0xE0 SHL DUP2 MSTORE PUSH0 PUSH1 0x4 DUP3 ADD MSTORE PUSH1 0x24 ADD PUSH2 0x517 JUMP JUMPDEST PUSH2 0x820 DUP2 PUSH2 0xD6C JUMP JUMPDEST POP JUMP JUMPDEST PUSH2 0x2710 PUSH2 0x7D9 PUSH11 0x1A784379D99DB42000000 PUSH1 0x5 PUSH2 0x1254 JUMP JUMPDEST PUSH2 0x849 DUP4 DUP4 DUP4 PUSH1 0x1 PUSH2 0xE57 JUMP JUMPDEST POP POP POP JUMP JUMPDEST PUSH1 0x5 SLOAD PUSH1 0x1 PUSH1 0x1 PUSH1 0xA0 SHL SUB AND CALLER EQ PUSH2 0x5DA JUMPI PUSH1 0x40 MLOAD PUSH4 0x118CDAA7 PUSH1 0xE0 SHL DUP2 MSTORE CALLER PUSH1 0x4 DUP3 ADD MSTORE PUSH1 0x24 ADD PUSH2 0x517 JUMP JUMPDEST PUSH1 0x7 SLOAD PUSH1 0xFF AND ISZERO PUSH2 0x5DA JUMPI PUSH1 0x40 MLOAD PUSH3 0x461BCD PUSH1 0xE5 SHL DUP2 MSTORE PUSH1 0x20 PUSH1 0x4 DUP3 ADD MSTORE PUSH1 0x10 PUSH1 0x24 DUP3 ADD MSTORE PUSH16 0x14185D5CD8589B194E881C185D5CD959 PUSH1 0x82 SHL PUSH1 0x44 DUP3 ADD MSTORE PUSH1 0x64 ADD PUSH2 0x517 JUMP JUMPDEST PUSH1 0x1 PUSH1 0x1 PUSH1 0xA0 SHL SUB DUP4 AND PUSH0 SWAP1 DUP2 MSTORE PUSH1 0xE PUSH1 0x20 MSTORE PUSH1 0x40 SWAP1 KECCAK256 SLOAD PUSH1 0xFF AND PUSH2 0x849 JUMPI PUSH1 0x64 PUSH2 0x8F8 PUSH11 0x1A784379D99DB42000000 PUSH1 0x1 PUSH2 0x1254 JUMP JUMPDEST PUSH2 0x902 SWAP2 SWAP1 PUSH2 0x126B JUMP JUMPDEST DUP2 PUSH2 0x921 DUP5 PUSH1 0x1 PUSH1 0x1 PUSH1 0xA0 SHL SUB AND PUSH0 SWAP1 DUP2 MSTORE PUSH1 0x20 DUP2 SWAP1 MSTORE PUSH1 0x40 SWAP1 KECCAK256 SLOAD SWAP1 JUMP JUMPDEST PUSH2 0x92B SWAP2 SWAP1 PUSH2 0x128A JUMP JUMPDEST GT ISZERO PUSH2 0x979 JUMPI PUSH1 0x40 MLOAD PUSH3 0x461BCD PUSH1 0xE5 SHL DUP2 MSTORE PUSH1 0x20 PUSH1 0x4 DUP3 ADD MSTORE PUSH1 0x18 PUSH1 0x24 DUP3 ADD MSTORE PUSH32 0x45786365656473206D61782077616C6C6574206C696D69740000000000000000 PUSH1 0x44 DUP3 ADD MSTORE PUSH1 0x64 ADD PUSH2 0x517 JUMP JUMPDEST PUSH2 0x2710 PUSH2 0x992 PUSH11 0x1A784379D99DB42000000 PUSH1 0x5 PUSH2 0x1254 JUMP JUMPDEST PUSH2 0x99C SWAP2 SWAP1 PUSH2 0x126B JUMP JUMPDEST DUP2 GT ISZERO PUSH2 0x849 JUMPI PUSH1 0x40 MLOAD PUSH3 0x461BCD PUSH1 0xE5 SHL DUP2 MSTORE PUSH1 0x20 PUSH1 0x4 DUP3 ADD MSTORE PUSH1 0x1D PUSH1 0x24 DUP3 ADD MSTORE PUSH32 0x45786365656473206D6178207472616E73616374696F6E206C696D6974000000 PUSH1 0x44 DUP3 ADD MSTORE PUSH1 0x64 ADD PUSH2 0x517 JUMP JUMPDEST PUSH1 0xB SLOAD PUSH0 SWAP1 PUSH1 0x1 PUSH1 0x1 PUSH1 0xA0 SHL SUB DUP5 DUP2 AND SWAP2 AND EQ PUSH2 0xA21 JUMPI PUSH1 0x64 PUSH1 0xC SLOAD DUP4 PUSH2 0xA12 SWAP2 SWAP1 PUSH2 0x1254 JUMP JUMPDEST PUSH2 0xA1C SWAP2 SWAP1 PUSH2 0x126B JUMP JUMPDEST PUSH2 0xA3B JUMP JUMPDEST PUSH1 0x64 PUSH1 0xD SLOAD DUP4 PUSH2 0xA31 SWAP2 SWAP1 PUSH2 0x1254 JUMP JUMPDEST PUSH2 0xA3B SWAP2 SWAP1 PUSH2 0x126B JUMP JUMPDEST SWAP1 POP DUP1 DUP3 LT ISZERO PUSH2 0xA8D JUMPI PUSH1 0x40 MLOAD PUSH3 0x461BCD PUSH1 0xE5 SHL DUP2 MSTORE PUSH1 0x20 PUSH1 0x4 DUP3 ADD MSTORE PUSH1 0x1B PUSH1 0x24 DUP3 ADD MSTORE PUSH32 0x5461782065786365656473207472616E7366657220616D6F756E740000000000 PUSH1 0x44 DUP3 ADD MSTORE PUSH1 0x64 ADD PUSH2 0x517 JUMP JUMPDEST PUSH0 PUSH2 0xA98 DUP3 DUP5 PUSH2 0x1241 JUMP JUMPDEST SWAP1 POP PUSH0 PUSH1 0xC PUSH2 0xAA8 DUP5 PUSH1 0x4 PUSH2 0x1254 JUMP JUMPDEST PUSH2 0xAB2 SWAP2 SWAP1 PUSH2 0x126B JUMP JUMPDEST SWAP1 POP PUSH0 PUSH1 0xC PUSH2 0xAC2 DUP6 PUSH1 0x4 PUSH2 0x1254 JUMP JUMPDEST PUSH2 0xACC SWAP2 SWAP1 PUSH2 0x126B JUMP JUMPDEST SWAP1 POP PUSH0 PUSH1 0xC PUSH2 0xADC DUP7 PUSH1 0x1 PUSH2 0x1254 JUMP JUMPDEST PUSH2 0xAE6 SWAP2 SWAP1 PUSH2 0x126B JUMP JUMPDEST SWAP1 POP PUSH0 PUSH1 0xC PUSH2 0xAF6 DUP8 PUSH1 0x2 PUSH2 0x1254 JUMP JUMPDEST PUSH2 0xB00 SWAP2 SWAP1 PUSH2 0x126B JUMP JUMPDEST SWAP1 POP PUSH0 PUSH1 0xC PUSH2 0xB10 DUP9 PUSH1 0x1 PUSH2 0x1254 JUMP JUMPDEST PUSH2 0xB1A SWAP2 SWAP1 PUSH2 0x126B JUMP JUMPDEST SWAP1 POP PUSH2 0xB3C DUP11 PUSH1 0x7 PUSH1 0x1 SWAP1 SLOAD SWAP1 PUSH2 0x100 EXP SWAP1 DIV PUSH1 0x1 PUSH1 0x1 PUSH1 0xA0 SHL SUB AND DUP7 PUSH2 0xDFA JUMP JUMPDEST PUSH0 DUP1 MLOAD PUSH1 0x20 PUSH2 0x129E DUP4 CODECOPY DUP2 MLOAD SWAP2 MSTORE DUP5 PUSH1 0x40 MLOAD PUSH2 0xB84 SWAP2 DUP2 MSTORE PUSH1 0x40 PUSH1 0x20 DUP3 ADD DUP2 SWAP1 MSTORE PUSH1 0x12 SWAP1 DUP3 ADD MSTORE PUSH18 0x115B98DBDD5C9859D95B595B9D08119D5B99 PUSH1 0x72 SHL PUSH1 0x60 DUP3 ADD MSTORE PUSH1 0x80 ADD SWAP1 JUMP JUMPDEST PUSH1 0x40 MLOAD DUP1 SWAP2 SUB SWAP1 LOG1 PUSH1 0x8 SLOAD PUSH2 0xBA4 SWAP1 DUP12 SWAP1 PUSH1 0x1 PUSH1 0x1 PUSH1 0xA0 SHL SUB AND DUP6 PUSH2 0xDFA JUMP JUMPDEST PUSH0 DUP1 MLOAD PUSH1 0x20 PUSH2 0x129E DUP4 CODECOPY DUP2 MLOAD SWAP2 MSTORE DUP4 PUSH1 0x40 MLOAD PUSH2 0xBE8 SWAP2 DUP2 MSTORE PUSH1 0x40 PUSH1 0x20 DUP3 ADD DUP2 SWAP1 MSTORE PUSH1 0xE SWAP1 DUP3 ADD MSTORE PUSH14 0x115B595C99D95B98DE48119D5B99 PUSH1 0x92 SHL PUSH1 0x60 DUP3 ADD MSTORE PUSH1 0x80 ADD SWAP1 JUMP JUMPDEST PUSH1 0x40 MLOAD DUP1 SWAP2 SUB SWAP1 LOG1 PUSH1 0x9 SLOAD PUSH2 0xC08 SWAP1 DUP12 SWAP1 PUSH1 0x1 PUSH1 0x1 PUSH1 0xA0 SHL SUB AND DUP5 PUSH2 0xDFA JUMP JUMPDEST PUSH0 DUP1 MLOAD PUSH1 0x20 PUSH2 0x129E DUP4 CODECOPY DUP2 MLOAD SWAP2 MSTORE DUP3 PUSH1 0x40 MLOAD PUSH2 0xC47 SWAP2 DUP2 MSTORE PUSH1 0x40 PUSH1 0x20 DUP3 ADD DUP2 SWAP1 MSTORE PUSH1 0x9 SWAP1 DUP3 ADD MSTORE PUSH9 0x4D61726B6574696E67 PUSH1 0xB8 SHL PUSH1 0x60 DUP3 ADD MSTORE PUSH1 0x80 ADD SWAP1 JUMP JUMPDEST PUSH1 0x40 MLOAD DUP1 SWAP2 SUB SWAP1 LOG1 PUSH1 0xA SLOAD PUSH2 0xC67 SWAP1 DUP12 SWAP1 PUSH1 0x1 PUSH1 0x1 PUSH1 0xA0 SHL SUB AND DUP4 PUSH2 0xDFA JUMP JUMPDEST PUSH0 DUP1 MLOAD PUSH1 0x20 PUSH2 0x129E DUP4 CODECOPY DUP2 MLOAD SWAP2 MSTORE DUP2 PUSH1 0x40 MLOAD PUSH2 0xCA4 SWAP2 DUP2 MSTORE PUSH1 0x40 PUSH1 0x20 DUP3 ADD DUP2 SWAP1 MSTORE PUSH1 0x7 SWAP1 DUP3 ADD MSTORE PUSH7 0x5374616B696E67 PUSH1 0xC8 SHL PUSH1 0x60 DUP3 ADD MSTORE PUSH1 0x80 ADD SWAP1 JUMP JUMPDEST PUSH1 0x40 MLOAD DUP1 SWAP2 SUB SWAP1 LOG1 PUSH2 0xCB7 DUP11 ADDRESS DUP8 PUSH2 0xDFA JUMP JUMPDEST PUSH0 DUP1 MLOAD PUSH1 0x20 PUSH2 0x129E DUP4 CODECOPY DUP2 MLOAD SWAP2 MSTORE DUP6 PUSH1 0x40 MLOAD PUSH2 0xCFB SWAP2 DUP2 MSTORE PUSH1 0x40 PUSH1 0x20 DUP3 ADD DUP2 SWAP1 MSTORE PUSH1 0xE SWAP1 DUP3 ADD MSTORE PUSH14 0x131A5C5D5A591A5D1E48141BDBDB PUSH1 0x92 SHL PUSH1 0x60 DUP3 ADD MSTORE PUSH1 0x80 ADD SWAP1 JUMP JUMPDEST PUSH1 0x40 MLOAD DUP1 SWAP2 SUB SWAP1 LOG1 PUSH2 0xD0E DUP11 DUP11 DUP9 PUSH2 0xDFA JUMP JUMPDEST POP POP POP POP POP POP POP POP POP POP JUMP JUMPDEST PUSH2 0xD22 PUSH2 0xF2A JUMP JUMPDEST PUSH1 0x7 DUP1 SLOAD PUSH1 0xFF NOT AND SWAP1 SSTORE PUSH32 0x5DB9EE0A495BF2E6FF9C91A7834C1BA4FDD244A5E8AA4E537BD38AEAE4B073AA CALLER JUMPDEST PUSH1 0x40 MLOAD PUSH1 0x1 PUSH1 0x1 PUSH1 0xA0 SHL SUB SWAP1 SWAP2 AND DUP2 MSTORE PUSH1 0x20 ADD PUSH1 0x40 MLOAD DUP1 SWAP2 SUB SWAP1 LOG1 JUMP JUMPDEST PUSH1 0x5 DUP1 SLOAD PUSH1 0x1 PUSH1 0x1 PUSH1 0xA0 SHL SUB DUP4 DUP2 AND PUSH1 0x1 PUSH1 0x1 PUSH1 0xA0 SHL SUB NOT DUP4 AND DUP2 OR SWAP1 SWAP4 SSTORE PUSH1 0x40 MLOAD SWAP2 AND SWAP2 SWAP1 DUP3 SWAP1 PUSH32 0x8BE0079C531659141344CD1FD0A4F28419497F9722A3DAAFE3B4186F6B6457E0 SWAP1 PUSH0 SWAP1 LOG3 POP POP JUMP JUMPDEST PUSH2 0xDC5 PUSH2 0x87B JUMP JUMPDEST PUSH1 0x7 DUP1 SLOAD PUSH1 0xFF NOT AND PUSH1 0x1 OR SWAP1 SSTORE PUSH32 0x62E78CEA01BEE320CD4E420270B5EA74000D11B0C9F74754EBDBFC544B05A258 PUSH2 0xD4F CALLER SWAP1 JUMP JUMPDEST PUSH1 0x1 PUSH1 0x1 PUSH1 0xA0 SHL SUB DUP4 AND PUSH2 0xE23 JUMPI PUSH1 0x40 MLOAD PUSH4 0x4B637E8F PUSH1 0xE1 SHL DUP2 MSTORE PUSH0 PUSH1 0x4 DUP3 ADD MSTORE PUSH1 0x24 ADD PUSH2 0x517 JUMP JUMPDEST PUSH1 0x1 PUSH1 0x1 PUSH1 0xA0 SHL SUB DUP3 AND PUSH2 0xE4C JUMPI PUSH1 0x40 MLOAD PUSH4 0xEC442F05 PUSH1 0xE0 SHL DUP2 MSTORE PUSH0 PUSH1 0x4 DUP3 ADD MSTORE PUSH1 0x24 ADD PUSH2 0x517 JUMP JUMPDEST PUSH2 0x849 DUP4 DUP4 DUP4 PUSH2 0xF73 JUMP JUMPDEST PUSH1 0x1 PUSH1 0x1 PUSH1 0xA0 SHL SUB DUP5 AND PUSH2 0xE80 JUMPI PUSH1 0x40 MLOAD PUSH4 0xE602DF05 PUSH1 0xE0 SHL DUP2 MSTORE PUSH0 PUSH1 0x4 DUP3 ADD MSTORE PUSH1 0x24 ADD PUSH2 0x517 JUMP JUMPDEST PUSH1 0x1 PUSH1 0x1 PUSH1 0xA0 SHL SUB DUP4 AND PUSH2 0xEA9 JUMPI PUSH1 0x40 MLOAD PUSH4 0x4A1406B1 PUSH1 0xE1 SHL DUP2 MSTORE PUSH0 PUSH1 0x4 DUP3 ADD MSTORE PUSH1 0x24 ADD PUSH2 0x517 JUMP JUMPDEST PUSH1 0x1 PUSH1 0x1 PUSH1 0xA0 SHL SUB DUP1 DUP6 AND PUSH0 SWAP1 DUP2 MSTORE PUSH1 0x1 PUSH1 0x20 SWAP1 DUP2 MSTORE PUSH1 0x40 DUP1 DUP4 KECCAK256 SWAP4 DUP8 AND DUP4 MSTORE SWAP3 SWAP1 MSTORE KECCAK256 DUP3 SWAP1 SSTORE DUP1 ISZERO PUSH2 0xF24 JUMPI DUP3 PUSH1 0x1 PUSH1 0x1 PUSH1 0xA0 SHL SUB AND DUP5 PUSH1 0x1 PUSH1 0x1 PUSH1 0xA0 SHL SUB AND PUSH32 0x8C5BE1E5EBEC7D5BD14F71427D1E84F3DD0314C0F7B2291E5B200AC8C7C3B925 DUP5 PUSH1 0x40 MLOAD PUSH2 0xF1B SWAP2 DUP2 MSTORE PUSH1 0x20 ADD SWAP1 JUMP JUMPDEST PUSH1 0x40 MLOAD DUP1 SWAP2 SUB SWAP1 LOG3 JUMPDEST POP POP POP POP JUMP JUMPDEST PUSH1 0x7 SLOAD PUSH1 0xFF AND PUSH2 0x5DA JUMPI PUSH1 0x40 MLOAD PUSH3 0x461BCD PUSH1 0xE5 SHL DUP2 MSTORE PUSH1 0x20 PUSH1 0x4 DUP3 ADD MSTORE PUSH1 0x14 PUSH1 0x24 DUP3 ADD MSTORE PUSH20 0x14185D5CD8589B194E881B9BDD081C185D5CD959 PUSH1 0x62 SHL PUSH1 0x44 DUP3 ADD MSTORE PUSH1 0x64 ADD PUSH2 0x517 JUMP JUMPDEST PUSH1 0x1 PUSH1 0x1 PUSH1 0xA0 SHL SUB DUP4 AND PUSH2 0xF9D JUMPI DUP1 PUSH1 0x2 PUSH0 DUP3 DUP3 SLOAD PUSH2 0xF92 SWAP2 SWAP1 PUSH2 0x128A JUMP JUMPDEST SWAP1 SWAP2 SSTORE POP PUSH2 0x100D SWAP1 POP JUMP JUMPDEST PUSH1 0x1 PUSH1 0x1 PUSH1 0xA0 SHL SUB DUP4 AND PUSH0 SWAP1 DUP2 MSTORE PUSH1 0x20 DUP2 SWAP1 MSTORE PUSH1 0x40 SWAP1 KECCAK256 SLOAD DUP2 DUP2 LT ISZERO PUSH2 0xFEF JUMPI PUSH1 0x40 MLOAD PUSH4 0x391434E3 PUSH1 0xE2 SHL DUP2 MSTORE PUSH1 0x1 PUSH1 0x1 PUSH1 0xA0 SHL SUB DUP6 AND PUSH1 0x4 DUP3 ADD MSTORE PUSH1 0x24 DUP2 ADD DUP3 SWAP1 MSTORE PUSH1 0x44 DUP2 ADD DUP4 SWAP1 MSTORE PUSH1 0x64 ADD PUSH2 0x517 JUMP JUMPDEST PUSH1 0x1 PUSH1 0x1 PUSH1 0xA0 SHL SUB DUP5 AND PUSH0 SWAP1 DUP2 MSTORE PUSH1 0x20 DUP2 SWAP1 MSTORE PUSH1 0x40 SWAP1 KECCAK256 SWAP1 DUP3 SWAP1 SUB SWAP1 SSTORE JUMPDEST PUSH1 0x1 PUSH1 0x1 PUSH1 0xA0 SHL SUB DUP3 AND PUSH2 0x1029 JUMPI PUSH1 0x2 DUP1 SLOAD DUP3 SWAP1 SUB SWAP1 SSTORE PUSH2 0x1047 JUMP JUMPDEST PUSH1 0x1 PUSH1 0x1 PUSH1 0xA0 SHL SUB DUP3 AND PUSH0 SWAP1 DUP2 MSTORE PUSH1 0x20 DUP2 SWAP1 MSTORE PUSH1 0x40 SWAP1 KECCAK256 DUP1 SLOAD DUP3 ADD SWAP1 SSTORE JUMPDEST DUP2 PUSH1 0x1 PUSH1 0x1 PUSH1 0xA0 SHL SUB AND DUP4 PUSH1 0x1 PUSH1 0x1 PUSH1 0xA0 SHL SUB AND PUSH32 0xDDF252AD1BE2C89B69C2B068FC378DAA952BA7F163C4A11628F55A4DF523B3EF DUP4 PUSH1 0x40 MLOAD PUSH2 0x108C SWAP2 DUP2 MSTORE PUSH1 0x20 ADD SWAP1 JUMP JUMPDEST PUSH1 0x40 MLOAD DUP1 SWAP2 SUB SWAP1 LOG3 POP POP POP JUMP JUMPDEST PUSH1 0x20 DUP2 MSTORE PUSH0 DUP3 MLOAD DUP1 PUSH1 0x20 DUP5 ADD MSTORE DUP1 PUSH1 0x20 DUP6 ADD PUSH1 0x40 DUP6 ADD MCOPY PUSH0 PUSH1 0x40 DUP3 DUP6 ADD ADD MSTORE PUSH1 0x40 PUSH1 0x1F NOT PUSH1 0x1F DUP4 ADD AND DUP5 ADD ADD SWAP2 POP POP SWAP3 SWAP2 POP POP JUMP JUMPDEST DUP1 CALLDATALOAD PUSH1 0x1 PUSH1 0x1 PUSH1 0xA0 SHL SUB DUP2 AND DUP2 EQ PUSH2 0x10E4 JUMPI PUSH0 DUP1 REVERT JUMPDEST SWAP2 SWAP1 POP JUMP JUMPDEST PUSH0 DUP1 PUSH1 0x40 DUP4 DUP6 SUB SLT ISZERO PUSH2 0x10FA JUMPI PUSH0 DUP1 REVERT JUMPDEST PUSH2 0x1103 DUP4 PUSH2 0x10CE JUMP JUMPDEST SWAP5 PUSH1 0x20 SWAP4 SWAP1 SWAP4 ADD CALLDATALOAD SWAP4 POP POP POP JUMP JUMPDEST PUSH0 DUP1 PUSH1 0x40 DUP4 DUP6 SUB SLT ISZERO PUSH2 0x1122 JUMPI PUSH0 DUP1 REVERT JUMPDEST POP POP DUP1 CALLDATALOAD SWAP3 PUSH1 0x20 SWAP1 SWAP2 ADD CALLDATALOAD SWAP2 POP JUMP JUMPDEST PUSH0 DUP1 PUSH0 PUSH1 0x60 DUP5 DUP7 SUB SLT ISZERO PUSH2 0x1143 JUMPI PUSH0 DUP1 REVERT JUMPDEST PUSH2 0x114C DUP5 PUSH2 0x10CE JUMP JUMPDEST SWAP3 POP PUSH2 0x115A PUSH1 0x20 DUP6 ADD PUSH2 0x10CE JUMP JUMPDEST SWAP3 SWAP6 SWAP3 SWAP5 POP POP POP PUSH1 0x40 SWAP2 SWAP1 SWAP2 ADD CALLDATALOAD SWAP1 JUMP JUMPDEST PUSH0 PUSH1 0x20 DUP3 DUP5 SUB SLT ISZERO PUSH2 0x117B JUMPI PUSH0 DUP1 REVERT JUMPDEST PUSH2 0x1184 DUP3 PUSH2 0x10CE JUMP JUMPDEST SWAP4 SWAP3 POP POP POP JUMP JUMPDEST PUSH0 DUP1 PUSH1 0x40 DUP4 DUP6 SUB SLT ISZERO PUSH2 0x119C JUMPI PUSH0 DUP1 REVERT JUMPDEST PUSH2 0x11A5 DUP4 PUSH2 0x10CE JUMP JUMPDEST SWAP2 POP PUSH1 0x20 DUP4 ADD CALLDATALOAD DUP1 ISZERO ISZERO DUP2 EQ PUSH2 0x11B9 JUMPI PUSH0 DUP1 REVERT JUMPDEST DUP1 SWAP2 POP POP SWAP3 POP SWAP3 SWAP1 POP JUMP JUMPDEST PUSH0 DUP1 PUSH1 0x40 DUP4 DUP6 SUB SLT ISZERO PUSH2 0x11D5 JUMPI PUSH0 DUP1 REVERT JUMPDEST PUSH2 0x11DE DUP4 PUSH2 0x10CE JUMP JUMPDEST SWAP2 POP PUSH2 0x11EC PUSH1 0x20 DUP5 ADD PUSH2 0x10CE JUMP JUMPDEST SWAP1 POP SWAP3 POP SWAP3 SWAP1 POP JUMP JUMPDEST PUSH1 0x1 DUP2 DUP2 SHR SWAP1 DUP3 AND DUP1 PUSH2 0x1209 JUMPI PUSH1 0x7F DUP3 AND SWAP2 POP JUMPDEST PUSH1 0x20 DUP3 LT DUP2 SUB PUSH2 0x1227 JUMPI PUSH4 0x4E487B71 PUSH1 0xE0 SHL PUSH0 MSTORE PUSH1 0x22 PUSH1 0x4 MSTORE PUSH1 0x24 PUSH0 REVERT JUMPDEST POP SWAP2 SWAP1 POP JUMP JUMPDEST PUSH4 0x4E487B71 PUSH1 0xE0 SHL PUSH0 MSTORE PUSH1 0x11 PUSH1 0x4 MSTORE PUSH1 0x24 PUSH0 REVERT JUMPDEST DUP2 DUP2 SUB DUP2 DUP2 GT ISZERO PUSH2 0x4C0 JUMPI PUSH2 0x4C0 PUSH2 0x122D JUMP JUMPDEST DUP1 DUP3 MUL DUP2 ISZERO DUP3 DUP3 DIV DUP5 EQ OR PUSH2 0x4C0 JUMPI PUSH2 0x4C0 PUSH2 0x122D JUMP JUMPDEST PUSH0 DUP3 PUSH2 0x1285 JUMPI PUSH4 0x4E487B71 PUSH1 0xE0 SHL PUSH0 MSTORE PUSH1 0x12 PUSH1 0x4 MSTORE PUSH1 0x24 PUSH0 REVERT JUMPDEST POP DIV SWAP1 JUMP JUMPDEST DUP1 DUP3 ADD DUP1 DUP3 GT ISZERO PUSH2 0x4C0 JUMPI PUSH2 0x4C0 PUSH2 0x122D JUMP INVALID PUSH15 0x232B0ACF46272DACF889AF67675747 PUSH22 0xA324B133D42B3B8CFFA9CD13159984A2646970667358 0x22 SLT KECCAK256 0x4C 0xD1 SWAP4 PUSH8 0x26E61034D3F90F1A 0xEB PUSH6 0xD2DF8A28DBD1 0xE6 NOT PUSH32 0x4122C409EB743B5FAB64736F6C634300081A0033000000000000000000000000 "
				},
				"gasEstimates": {
					"creation": {
						"codeDepositCost": "970200",
						"executionCost": "infinite",
						"totalCost": "infinite"
					},
					"external": {
						"INITIAL_SUPPLY()": "306",
						"MAX_TX()": "466",
						"MAX_WALLET()": "422",
						"allowance(address,address)": "infinite",
						"approve(address,uint256)": "24804",
						"balanceOf(address)": "2626",
						"buyTax()": "2384",
						"decimals()": "222",
						"emergencyFund()": "2436",
						"encouragementFund()": "2381",
						"isExcludedFromFees(address)": "2640",
						"marketingWallet()": "2393",
						"name()": "infinite",
						"owner()": "2364",
						"pause()": "infinite",
						"paused()": "2370",
						"renounceOwnership()": "infinite",
						"sellTax()": "2383",
						"stakingWallet()": "2372",
						"symbol()": "infinite",
						"totalSupply()": "2348",
						"transfer(address,uint256)": "infinite",
						"transferFrom(address,address,uint256)": "infinite",
						"transferOwnership(address)": "28421",
						"uniswapPair()": "2392",
						"unpause()": "infinite",
						"updateExcludedAccountStatus(address,bool)": "26901",
						"updateTaxes(uint256,uint256)": "48068",
						"updateUniswapPair(address)": "27878",
						"withdrawLPFunds()": "58494"
					},
					"internal": {
						"_applyTransferLimits(address,address,uint256)": "infinite",
						"_transferWithTaxes(address,address,uint256)": "infinite"
					}
				},
				"methodIdentifiers": {
					"INITIAL_SUPPLY()": "2ff2e9dc",
					"MAX_TX()": "f3b2db3f",
					"MAX_WALLET()": "df7787a4",
					"allowance(address,address)": "dd62ed3e",
					"approve(address,uint256)": "095ea7b3",
					"balanceOf(address)": "70a08231",
					"buyTax()": "4f7041a5",
					"decimals()": "313ce567",
					"emergencyFund()": "cc859378",
					"encouragementFund()": "52a6a9ec",
					"isExcludedFromFees(address)": "4fbee193",
					"marketingWallet()": "75f0a874",
					"name()": "06fdde03",
					"owner()": "8da5cb5b",
					"pause()": "8456cb59",
					"paused()": "5c975abb",
					"renounceOwnership()": "715018a6",
					"sellTax()": "cc1776d3",
					"stakingWallet()": "06ee6ad8",
					"symbol()": "95d89b41",
					"totalSupply()": "18160ddd",
					"transfer(address,uint256)": "a9059cbb",
					"transferFrom(address,address,uint256)": "23b872dd",
					"transferOwnership(address)": "f2fde38b",
					"uniswapPair()": "c816841b",
					"unpause()": "3f4ba83a",
					"updateExcludedAccountStatus(address,bool)": "753cafc3",
					"updateTaxes(uint256,uint256)": "1006ee0c",
					"updateUniswapPair(address)": "c12b7c4e",
					"withdrawLPFunds()": "bea9ea62"
				}
			},
			"storageLayout": {
				"storage": [
					{
						"astId": 480,
						"contract": "xeam_test_contract_1.sol:XEAMToken",
						"label": "_balances",
						"offset": 0,
						"slot": "0",
						"type": "t_mapping(t_address,t_uint256)"
					},
					{
						"astId": 486,
						"contract": "xeam_test_contract_1.sol:XEAMToken",
						"label": "_allowances",
						"offset": 0,
						"slot": "1",
						"type": "t_mapping(t_address,t_mapping(t_address,t_uint256))"
					},
					{
						"astId": 488,
						"contract": "xeam_test_contract_1.sol:XEAMToken",
						"label": "_totalSupply",
						"offset": 0,
						"slot": "2",
						"type": "t_uint256"
					},
					{
						"astId": 490,
						"contract": "xeam_test_contract_1.sol:XEAMToken",
						"label": "_name",
						"offset": 0,
						"slot": "3",
						"type": "t_string_storage"
					},
					{
						"astId": 492,
						"contract": "xeam_test_contract_1.sol:XEAMToken",
						"label": "_symbol",
						"offset": 0,
						"slot": "4",
						"type": "t_string_storage"
					},
					{
						"astId": 8,
						"contract": "xeam_test_contract_1.sol:XEAMToken",
						"label": "_owner",
						"offset": 0,
						"slot": "5",
						"type": "t_address"
					},
					{
						"astId": 403,
						"contract": "xeam_test_contract_1.sol:XEAMToken",
						"label": "_status",
						"offset": 0,
						"slot": "6",
						"type": "t_uint256"
					},
					{
						"astId": 302,
						"contract": "xeam_test_contract_1.sol:XEAMToken",
						"label": "_paused",
						"offset": 0,
						"slot": "7",
						"type": "t_bool"
					},
					{
						"astId": 1145,
						"contract": "xeam_test_contract_1.sol:XEAMToken",
						"label": "encouragementFund",
						"offset": 1,
						"slot": "7",
						"type": "t_address"
					},
					{
						"astId": 1147,
						"contract": "xeam_test_contract_1.sol:XEAMToken",
						"label": "emergencyFund",
						"offset": 0,
						"slot": "8",
						"type": "t_address"
					},
					{
						"astId": 1149,
						"contract": "xeam_test_contract_1.sol:XEAMToken",
						"label": "marketingWallet",
						"offset": 0,
						"slot": "9",
						"type": "t_address"
					},
					{
						"astId": 1151,
						"contract": "xeam_test_contract_1.sol:XEAMToken",
						"label": "stakingWallet",
						"offset": 0,
						"slot": "10",
						"type": "t_address"
					},
					{
						"astId": 1153,
						"contract": "xeam_test_contract_1.sol:XEAMToken",
						"label": "uniswapPair",
						"offset": 0,
						"slot": "11",
						"type": "t_address"
					},
					{
						"astId": 1156,
						"contract": "xeam_test_contract_1.sol:XEAMToken",
						"label": "buyTax",
						"offset": 0,
						"slot": "12",
						"type": "t_uint256"
					},
					{
						"astId": 1159,
						"contract": "xeam_test_contract_1.sol:XEAMToken",
						"label": "sellTax",
						"offset": 0,
						"slot": "13",
						"type": "t_uint256"
					},
					{
						"astId": 1163,
						"contract": "xeam_test_contract_1.sol:XEAMToken",
						"label": "isExcludedFromFees",
						"offset": 0,
						"slot": "14",
						"type": "t_mapping(t_address,t_bool)"
					}
				],
				"types": {
					"t_address": {
						"encoding": "inplace",
						"label": "address",
						"numberOfBytes": "20"
					},
					"t_bool": {
						"encoding": "inplace",
						"label": "bool",
						"numberOfBytes": "1"
					},
					"t_mapping(t_address,t_bool)": {
						"encoding": "mapping",
						"key": "t_address",
						"label": "mapping(address => bool)",
						"numberOfBytes": "32",
						"value": "t_bool"
					},
					"t_mapping(t_address,t_mapping(t_address,t_uint256))": {
						"encoding": "mapping",
						"key": "t_address",
						"label": "mapping(address => mapping(address => uint256))",
						"numberOfBytes": "32",
						"value": "t_mapping(t_address,t_uint256)"
					},
					"t_mapping(t_address,t_uint256)": {
						"encoding": "mapping",
						"key": "t_address",
						"label": "mapping(address => uint256)",
						"numberOfBytes": "32",
						"value": "t_uint256"
					},
					"t_string_storage": {
						"encoding": "bytes",
						"label": "string",
						"numberOfBytes": "32"
					},
					"t_uint256": {
						"encoding": "inplace",
						"label": "uint256",
						"numberOfBytes": "32"
					}
				}
			},
			"userdoc": {
				"kind": "user",
				"methods": {},
				"version": 1
			}
		}
	}
}