{
	"indentity_test_2.sol": {
		"XEAMToken": {
			"abi": [
				{
					"inputs": [
						{
							"internalType": "address",
							"name": "_encouragementFund",
							"type": "address"
						},
						{
							"internalType": "address",
							"name": "_emergencyFund",
							"type": "address"
						},
						{
							"internalType": "address",
							"name": "_marketingWallet",
							"type": "address"
						},
						{
							"internalType": "address",
							"name": "_stakingWallet",
							"type": "address"
						}
					],
					"stateMutability": "nonpayable",
					"type": "constructor"
				},
				{
					"inputs": [
						{
							"internalType": "address",
							"name": "spender",
							"type": "address"
						},
						{
							"internalType": "uint256",
							"name": "allowance",
							"type": "uint256"
						},
						{
							"internalType": "uint256",
							"name": "needed",
							"type": "uint256"
						}
					],
					"name": "ERC20InsufficientAllowance",
					"type": "error"
				},
				{
					"inputs": [
						{
							"internalType": "address",
							"name": "sender",
							"type": "address"
						},
						{
							"internalType": "uint256",
							"name": "balance",
							"type": "uint256"
						},
						{
							"internalType": "uint256",
							"name": "needed",
							"type": "uint256"
						}
					],
					"name": "ERC20InsufficientBalance",
					"type": "error"
				},
				{
					"inputs": [
						{
							"internalType": "address",
							"name": "approver",
							"type": "address"
						}
					],
					"name": "ERC20InvalidApprover",
					"type": "error"
				},
				{
					"inputs": [
						{
							"internalType": "address",
							"name": "receiver",
							"type": "address"
						}
					],
					"name": "ERC20InvalidReceiver",
					"type": "error"
				},
				{
					"inputs": [
						{
							"internalType": "address",
							"name": "sender",
							"type": "address"
						}
					],
					"name": "ERC20InvalidSender",
					"type": "error"
				},
				{
					"inputs": [
						{
							"internalType": "address",
							"name": "spender",
							"type": "address"
						}
					],
					"name": "ERC20InvalidSpender",
					"type": "error"
				},
				{
					"inputs": [
						{
							"internalType": "address",
							"name": "owner",
							"type": "address"
						}
					],
					"name": "OwnableInvalidOwner",
					"type": "error"
				},
				{
					"inputs": [
						{
							"internalType": "address",
							"name": "account",
							"type": "address"
						}
					],
					"name": "OwnableUnauthorizedAccount",
					"type": "error"
				},
				{
					"anonymous": false,
					"inputs": [
						{
							"indexed": true,
							"internalType": "address",
							"name": "owner",
							"type": "address"
						},
						{
							"indexed": true,
							"internalType": "address",
							"name": "spender",
							"type": "address"
						},
						{
							"indexed": false,
							"internalType": "uint256",
							"name": "value",
							"type": "uint256"
						}
					],
					"name": "Approval",
					"type": "event"
				},
				{
					"anonymous": false,
					"inputs": [
						{
							"indexed": true,
							"internalType": "address",
							"name": "previousOwner",
							"type": "address"
						},
						{
							"indexed": true,
							"internalType": "address",
							"name": "newOwner",
							"type": "address"
						}
					],
					"name": "OwnershipTransferred",
					"type": "event"
				},
				{
					"anonymous": false,
					"inputs": [
						{
							"indexed": false,
							"internalType": "uint256",
							"name": "amount",
							"type": "uint256"
						},
						{
							"indexed": false,
							"internalType": "string",
							"name": "category",
							"type": "string"
						}
					],
					"name": "TaxDistributed",
					"type": "event"
				},
				{
					"anonymous": false,
					"inputs": [
						{
							"indexed": true,
							"internalType": "address",
							"name": "from",
							"type": "address"
						},
						{
							"indexed": true,
							"internalType": "address",
							"name": "to",
							"type": "address"
						},
						{
							"indexed": false,
							"internalType": "uint256",
							"name": "value",
							"type": "uint256"
						}
					],
					"name": "Transfer",
					"type": "event"
				},
				{
					"inputs": [],
					"name": "BUY_TAX",
					"outputs": [
						{
							"internalType": "uint256",
							"name": "",
							"type": "uint256"
						}
					],
					"stateMutability": "view",
					"type": "function"
				},
				{
					"inputs": [],
					"name": "INITIAL_SUPPLY",
					"outputs": [
						{
							"internalType": "uint256",
							"name": "",
							"type": "uint256"
						}
					],
					"stateMutability": "view",
					"type": "function"
				},
				{
					"inputs": [],
					"name": "MAX_TX",
					"outputs": [
						{
							"internalType": "uint256",
							"name": "",
							"type": "uint256"
						}
					],
					"stateMutability": "view",
					"type": "function"
				},
				{
					"inputs": [],
					"name": "MAX_WALLET",
					"outputs": [
						{
							"internalType": "uint256",
							"name": "",
							"type": "uint256"
						}
					],
					"stateMutability": "view",
					"type": "function"
				},
				{
					"inputs": [],
					"name": "SELL_TAX",
					"outputs": [
						{
							"internalType": "uint256",
							"name": "",
							"type": "uint256"
						}
					],
					"stateMutability": "view",
					"type": "function"
				},
				{
					"inputs": [],
					"name": "SLIPPAGE",
					"outputs": [
						{
							"internalType": "uint256",
							"name": "",
							"type": "uint256"
						}
					],
					"stateMutability": "view",
					"type": "function"
				},
				{
					"inputs": [
						{
							"internalType": "address",
							"name": "owner",
							"type": "address"
						},
						{
							"internalType": "address",
							"name": "spender",
							"type": "address"
						}
					],
					"name": "allowance",
					"outputs": [
						{
							"internalType": "uint256",
							"name": "",
							"type": "uint256"
						}
					],
					"stateMutability": "view",
					"type": "function"
				},
				{
					"inputs": [
						{
							"internalType": "address",
							"name": "spender",
							"type": "address"
						},
						{
							"internalType": "uint256",
							"name": "value",
							"type": "uint256"
						}
					],
					"name": "approve",
					"outputs": [
						{
							"internalType": "bool",
							"name": "",
							"type": "bool"
						}
					],
					"stateMutability": "nonpayable",
					"type": "function"
				},
				{
					"inputs": [
						{
							"internalType": "address",
							"name": "account",
							"type": "address"
						}
					],
					"name": "balanceOf",
					"outputs": [
						{
							"internalType": "uint256",
							"name": "",
							"type": "uint256"
						}
					],
					"stateMutability": "view",
					"type": "function"
				},
				{
					"inputs": [],
					"name": "decimals",
					"outputs": [
						{
							"internalType": "uint8",
							"name": "",
							"type": "uint8"
						}
					],
					"stateMutability": "view",
					"type": "function"
				},
				{
					"inputs": [],
					"name": "emergencyFund",
					"outputs": [
						{
							"internalType": "address",
							"name": "",
							"type": "address"
						}
					],
					"stateMutability": "view",
					"type": "function"
				},
				{
					"inputs": [],
					"name": "encouragementFund",
					"outputs": [
						{
							"internalType": "address",
							"name": "",
							"type": "address"
						}
					],
					"stateMutability": "view",
					"type": "function"
				},
				{
					"inputs": [
						{
							"internalType": "address",
							"name": "",
							"type": "address"
						}
					],
					"name": "isExcludedFromFees",
					"outputs": [
						{
							"internalType": "bool",
							"name": "",
							"type": "bool"
						}
					],
					"stateMutability": "view",
					"type": "function"
				},
				{
					"inputs": [],
					"name": "marketingWallet",
					"outputs": [
						{
							"internalType": "address",
							"name": "",
							"type": "address"
						}
					],
					"stateMutability": "view",
					"type": "function"
				},
				{
					"inputs": [],
					"name": "name",
					"outputs": [
						{
							"internalType": "string",
							"name": "",
							"type": "string"
						}
					],
					"stateMutability": "view",
					"type": "function"
				},
				{
					"inputs": [],
					"name": "owner",
					"outputs": [
						{
							"internalType": "address",
							"name": "",
							"type": "address"
						}
					],
					"stateMutability": "view",
					"type": "function"
				},
				{
					"inputs": [],
					"name": "renounceOwnership",
					"outputs": [],
					"stateMutability": "nonpayable",
					"type": "function"
				},
				{
					"inputs": [],
					"name": "stakingWallet",
					"outputs": [
						{
							"internalType": "address",
							"name": "",
							"type": "address"
						}
					],
					"stateMutability": "view",
					"type": "function"
				},
				{
					"inputs": [],
					"name": "symbol",
					"outputs": [
						{
							"internalType": "string",
							"name": "",
							"type": "string"
						}
					],
					"stateMutability": "view",
					"type": "function"
				},
				{
					"inputs": [],
					"name": "totalSupply",
					"outputs": [
						{
							"internalType": "uint256",
							"name": "",
							"type": "uint256"
						}
					],
					"stateMutability": "view",
					"type": "function"
				},
				{
					"inputs": [
						{
							"internalType": "address",
							"name": "recipient",
							"type": "address"
						},
						{
							"internalType": "uint256",
							"name": "amount",
							"type": "uint256"
						}
					],
					"name": "transfer",
					"outputs": [
						{
							"internalType": "bool",
							"name": "",
							"type": "bool"
						}
					],
					"stateMutability": "nonpayable",
					"type": "function"
				},
				{
					"inputs": [
						{
							"internalType": "address",
							"name": "from",
							"type": "address"
						},
						{
							"internalType": "address",
							"name": "to",
							"type": "address"
						},
						{
							"internalType": "uint256",
							"name": "value",
							"type": "uint256"
						}
					],
					"name": "transferFrom",
					"outputs": [
						{
							"internalType": "bool",
							"name": "",
							"type": "bool"
						}
					],
					"stateMutability": "nonpayable",
					"type": "function"
				},
				{
					"inputs": [
						{
							"internalType": "address",
							"name": "newOwner",
							"type": "address"
						}
					],
					"name": "transferOwnership",
					"outputs": [],
					"stateMutability": "nonpayable",
					"type": "function"
				},
				{
					"inputs": [
						{
							"internalType": "address",
							"name": "account",
							"type": "address"
						},
						{
							"internalType": "bool",
							"name": "excluded",
							"type": "bool"
						}
					],
					"name": "updateExcludedAccountStatus",
					"outputs": [],
					"stateMutability": "nonpayable",
					"type": "function"
				}
			],
			"devdoc": {
				"errors": {
					"ERC20InsufficientAllowance(address,uint256,uint256)": [
						{
							"details": "Indicates a failure with the `spender`’s `allowance`. Used in transfers.",
							"params": {
								"allowance": "Amount of tokens a `spender` is allowed to operate with.",
								"needed": "Minimum amount required to perform a transfer.",
								"spender": "Address that may be allowed to operate on tokens without being their owner."
							}
						}
					],
					"ERC20InsufficientBalance(address,uint256,uint256)": [
						{
							"details": "Indicates an error related to the current `balance` of a `sender`. Used in transfers.",
							"params": {
								"balance": "Current balance for the interacting account.",
								"needed": "Minimum amount required to perform a transfer.",
								"sender": "Address whose tokens are being transferred."
							}
						}
					],
					"ERC20InvalidApprover(address)": [
						{
							"details": "Indicates a failure with the `approver` of a token to be approved. Used in approvals.",
							"params": {
								"approver": "Address initiating an approval operation."
							}
						}
					],
					"ERC20InvalidReceiver(address)": [
						{
							"details": "Indicates a failure with the token `receiver`. Used in transfers.",
							"params": {
								"receiver": "Address to which tokens are being transferred."
							}
						}
					],
					"ERC20InvalidSender(address)": [
						{
							"details": "Indicates a failure with the token `sender`. Used in transfers.",
							"params": {
								"sender": "Address whose tokens are being transferred."
							}
						}
					],
					"ERC20InvalidSpender(address)": [
						{
							"details": "Indicates a failure with the `spender` to be approved. Used in approvals.",
							"params": {
								"spender": "Address that may be allowed to operate on tokens without being their owner."
							}
						}
					],
					"OwnableInvalidOwner(address)": [
						{
							"details": "The owner is not a valid owner account. (eg. `address(0)`)"
						}
					],
					"OwnableUnauthorizedAccount(address)": [
						{
							"details": "The caller account is not authorized to perform an operation."
						}
					]
				},
				"events": {
					"Approval(address,address,uint256)": {
						"details": "Emitted when the allowance of a `spender` for an `owner` is set by a call to {approve}. `value` is the new allowance."
					},
					"Transfer(address,address,uint256)": {
						"details": "Emitted when `value` tokens are moved from one account (`from`) to another (`to`). Note that `value` may be zero."
					}
				},
				"kind": "dev",
				"methods": {
					"allowance(address,address)": {
						"details": "See {IERC20-allowance}."
					},
					"approve(address,uint256)": {
						"details": "See {IERC20-approve}. NOTE: If `value` is the maximum `uint256`, the allowance is not updated on `transferFrom`. This is semantically equivalent to an infinite approval. Requirements: - `spender` cannot be the zero address."
					},
					"balanceOf(address)": {
						"details": "See {IERC20-balanceOf}."
					},
					"decimals()": {
						"details": "Returns the number of decimals used to get its user representation. For example, if `decimals` equals `2`, a balance of `505` tokens should be displayed to a user as `5.05` (`505 / 10 ** 2`). Tokens usually opt for a value of 18, imitating the relationship between Ether and Wei. This is the default value returned by this function, unless it's overridden. NOTE: This information is only used for _display_ purposes: it in no way affects any of the arithmetic of the contract, including {IERC20-balanceOf} and {IERC20-transfer}."
					},
					"name()": {
						"details": "Returns the name of the token."
					},
					"owner()": {
						"details": "Returns the address of the current owner."
					},
					"renounceOwnership()": {
						"details": "Leaves the contract without owner. It will not be possible to call `onlyOwner` functions. Can only be called by the current owner. NOTE: Renouncing ownership will leave the contract without an owner, thereby disabling any functionality that is only available to the owner."
					},
					"symbol()": {
						"details": "Returns the symbol of the token, usually a shorter version of the name."
					},
					"totalSupply()": {
						"details": "See {IERC20-totalSupply}."
					},
					"transferFrom(address,address,uint256)": {
						"details": "See {IERC20-transferFrom}. Skips emitting an {Approval} event indicating an allowance update. This is not required by the ERC. See {xref-ERC20-_approve-address-address-uint256-bool-}[_approve]. NOTE: Does not update the allowance if the current allowance is the maximum `uint256`. Requirements: - `from` and `to` cannot be the zero address. - `from` must have a balance of at least `value`. - the caller must have allowance for ``from``'s tokens of at least `value`."
					},
					"transferOwnership(address)": {
						"details": "Transfers ownership of the contract to a new account (`newOwner`). Can only be called by the current owner."
					}
				},
				"version": 1
			},
			"evm": {
				"assembly": "    /* \"indentity_test_2.sol\":231:2822  contract XEAMToken is ERC20, Ownable, ReentrancyGuard {... */\n  mstore(0x40, 0x80)\n    /* \"indentity_test_2.sol\":920:1403  constructor(... */\n  callvalue\n  dup1\n  iszero\n  tag_1\n  jumpi\n  0x00\n  dup1\n  revert\ntag_1:\n  pop\n  mload(0x40)\n  sub(codesize, bytecodeSize)\n  dup1\n  bytecodeSize\n  dup4\n  codecopy\n  dup2\n  dup2\n  add\n  0x40\n  mstore\n  dup2\n  add\n  swap1\n  tag_2\n  swap2\n  swap1\n  tag_3\n  jump\t// in\ntag_2:\n    /* \"indentity_test_2.sol\":1108:1118  msg.sender */\n  caller\n    /* \"@openzeppelin/contracts/token/ERC20/ERC20.sol\":1601:1714  constructor(string memory name_, string memory symbol_) {... */\n  mload(0x40)\n  dup1\n  0x40\n  add\n  0x40\n  mstore\n  dup1\n  0x0a\n  dup2\n  mstore\n  0x20\n  add\n  0x5845414d20546f6b656e00000000000000000000000000000000000000000000\n  dup2\n  mstore\n  pop\n  mload(0x40)\n  dup1\n  0x40\n  add\n  0x40\n  mstore\n  dup1\n  0x04\n  dup2\n  mstore\n  0x20\n  add\n  0x5845414d00000000000000000000000000000000000000000000000000000000\n  dup2\n  mstore\n  pop\n    /* \"@openzeppelin/contracts/token/ERC20/ERC20.sol\":1675:1680  name_ */\n  dup2\n    /* \"@openzeppelin/contracts/token/ERC20/ERC20.sol\":1667:1672  _name */\n  0x03\n    /* \"@openzeppelin/contracts/token/ERC20/ERC20.sol\":1667:1680  _name = name_ */\n  swap1\n  dup2\n  tag_9\n  swap2\n  swap1\n  tag_10\n  jump\t// in\ntag_9:\n  pop\n    /* \"@openzeppelin/contracts/token/ERC20/ERC20.sol\":1700:1707  symbol_ */\n  dup1\n    /* \"@openzeppelin/contracts/token/ERC20/ERC20.sol\":1690:1697  _symbol */\n  0x04\n    /* \"@openzeppelin/contracts/token/ERC20/ERC20.sol\":1690:1707  _symbol = symbol_ */\n  swap1\n  dup2\n  tag_11\n  swap2\n  swap1\n  tag_10\n  jump\t// in\ntag_11:\n  pop\n    /* \"@openzeppelin/contracts/token/ERC20/ERC20.sol\":1601:1714  constructor(string memory name_, string memory symbol_) {... */\n  pop\n  pop\n    /* \"@openzeppelin/contracts/access/Ownable.sol\":1297:1298  0 */\n  0x00\n    /* \"@openzeppelin/contracts/access/Ownable.sol\":1273:1299  initialOwner == address(0) */\n  0xffffffffffffffffffffffffffffffffffffffff\n  and\n    /* \"@openzeppelin/contracts/access/Ownable.sol\":1273:1285  initialOwner */\n  dup2\n    /* \"@openzeppelin/contracts/access/Ownable.sol\":1273:1299  initialOwner == address(0) */\n  0xffffffffffffffffffffffffffffffffffffffff\n  and\n  sub\n    /* \"@openzeppelin/contracts/access/Ownable.sol\":1269:1364  if (initialOwner == address(0)) {... */\n  tag_13\n  jumpi\n    /* \"@openzeppelin/contracts/access/Ownable.sol\":1350:1351  0 */\n  0x00\n    /* \"@openzeppelin/contracts/access/Ownable.sol\":1322:1353  OwnableInvalidOwner(address(0)) */\n  mload(0x40)\n  0x1e4fbdf700000000000000000000000000000000000000000000000000000000\n  dup2\n  mstore\n  0x04\n  add\n  tag_14\n  swap2\n  swap1\n  tag_15\n  jump\t// in\ntag_14:\n  mload(0x40)\n  dup1\n  swap2\n  sub\n  swap1\n  revert\n    /* \"@openzeppelin/contracts/access/Ownable.sol\":1269:1364  if (initialOwner == address(0)) {... */\ntag_13:\n    /* \"@openzeppelin/contracts/access/Ownable.sol\":1373:1405  _transferOwnership(initialOwner) */\n  tag_16\n    /* \"@openzeppelin/contracts/access/Ownable.sol\":1392:1404  initialOwner */\n  dup2\n    /* \"@openzeppelin/contracts/access/Ownable.sol\":1373:1391  _transferOwnership */\n  shl(0x20, tag_17)\n    /* \"@openzeppelin/contracts/access/Ownable.sol\":1373:1405  _transferOwnership(initialOwner) */\n  0x20\n  shr\n  jump\t// in\ntag_16:\n    /* \"@openzeppelin/contracts/access/Ownable.sol\":1225:1412  constructor(address initialOwner) {... */\n  pop\n    /* \"@openzeppelin/contracts/security/ReentrancyGuard.sol\":1716:1717  1 */\n  0x01\n    /* \"@openzeppelin/contracts/security/ReentrancyGuard.sol\":1821:1828  _status */\n  0x06\n    /* \"@openzeppelin/contracts/security/ReentrancyGuard.sol\":1821:1843  _status = _NOT_ENTERED */\n  dup2\n  swap1\n  sstore\n  pop\n    /* \"indentity_test_2.sol\":1163:1181  _encouragementFund */\n  dup4\n    /* \"indentity_test_2.sol\":1143:1160  encouragementFund */\n  0x07\n  0x00\n    /* \"indentity_test_2.sol\":1143:1181  encouragementFund = _encouragementFund */\n  0x0100\n  exp\n  dup2\n  sload\n  dup2\n  0xffffffffffffffffffffffffffffffffffffffff\n  mul\n  not\n  and\n  swap1\n  dup4\n  0xffffffffffffffffffffffffffffffffffffffff\n  and\n  mul\n  or\n  swap1\n  sstore\n  pop\n    /* \"indentity_test_2.sol\":1207:1221  _emergencyFund */\n  dup3\n    /* \"indentity_test_2.sol\":1191:1204  emergencyFund */\n  0x08\n  0x00\n    /* \"indentity_test_2.sol\":1191:1221  emergencyFund = _emergencyFund */\n  0x0100\n  exp\n  dup2\n  sload\n  dup2\n  0xffffffffffffffffffffffffffffffffffffffff\n  mul\n  not\n  and\n  swap1\n  dup4\n  0xffffffffffffffffffffffffffffffffffffffff\n  and\n  mul\n  or\n  swap1\n  sstore\n  pop\n    /* \"indentity_test_2.sol\":1249:1265  _marketingWallet */\n  dup2\n    /* \"indentity_test_2.sol\":1231:1246  marketingWallet */\n  0x09\n  0x00\n    /* \"indentity_test_2.sol\":1231:1265  marketingWallet = _marketingWallet */\n  0x0100\n  exp\n  dup2\n  sload\n  dup2\n  0xffffffffffffffffffffffffffffffffffffffff\n  mul\n  not\n  and\n  swap1\n  dup4\n  0xffffffffffffffffffffffffffffffffffffffff\n  and\n  mul\n  or\n  swap1\n  sstore\n  pop\n    /* \"indentity_test_2.sol\":1291:1305  _stakingWallet */\n  dup1\n    /* \"indentity_test_2.sol\":1275:1288  stakingWallet */\n  0x0a\n  0x00\n    /* \"indentity_test_2.sol\":1275:1305  stakingWallet = _stakingWallet */\n  0x0100\n  exp\n  dup2\n  sload\n  dup2\n  0xffffffffffffffffffffffffffffffffffffffff\n  mul\n  not\n  and\n  swap1\n  dup4\n  0xffffffffffffffffffffffffffffffffffffffff\n  and\n  mul\n  or\n  swap1\n  sstore\n  pop\n    /* \"indentity_test_2.sol\":1316:1349  _mint(msg.sender, INITIAL_SUPPLY) */\n  tag_20\n    /* \"indentity_test_2.sol\":1322:1332  msg.sender */\n  caller\n    /* \"indentity_test_2.sol\":332:350  2_000_000 * 10**18 */\n  0x01a784379d99db42000000\n    /* \"indentity_test_2.sol\":1316:1321  _mint */\n  shl(0x20, tag_21)\n    /* \"indentity_test_2.sol\":1316:1349  _mint(msg.sender, INITIAL_SUPPLY) */\n  0x20\n  shr\n  jump\t// in\ntag_20:\n    /* \"indentity_test_2.sol\":1392:1396  true */\n  0x01\n    /* \"indentity_test_2.sol\":1359:1377  isExcludedFromFees */\n  0x0b\n    /* \"indentity_test_2.sol\":1359:1389  isExcludedFromFees[msg.sender] */\n  0x00\n    /* \"indentity_test_2.sol\":1378:1388  msg.sender */\n  caller\n    /* \"indentity_test_2.sol\":1359:1389  isExcludedFromFees[msg.sender] */\n  0xffffffffffffffffffffffffffffffffffffffff\n  and\n  0xffffffffffffffffffffffffffffffffffffffff\n  and\n  dup2\n  mstore\n  0x20\n  add\n  swap1\n  dup2\n  mstore\n  0x20\n  add\n  0x00\n  keccak256\n  0x00\n    /* \"indentity_test_2.sol\":1359:1396  isExcludedFromFees[msg.sender] = true */\n  0x0100\n  exp\n  dup2\n  sload\n  dup2\n  0xff\n  mul\n  not\n  and\n  swap1\n  dup4\n  iszero\n  iszero\n  mul\n  or\n  swap1\n  sstore\n  pop\n    /* \"indentity_test_2.sol\":920:1403  constructor(... */\n  pop\n  pop\n  pop\n  pop\n    /* \"indentity_test_2.sol\":231:2822  contract XEAMToken is ERC20, Ownable, ReentrancyGuard {... */\n  jump(tag_22)\n    /* \"@openzeppelin/contracts/access/Ownable.sol\":2912:3099  function _transferOwnership(address newOwner) internal virtual {... */\ntag_17:\n    /* \"@openzeppelin/contracts/access/Ownable.sol\":2985:3001  address oldOwner */\n  0x00\n    /* \"@openzeppelin/contracts/access/Ownable.sol\":3004:3010  _owner */\n  0x05\n  0x00\n  swap1\n  sload\n  swap1\n  0x0100\n  exp\n  swap1\n  div\n  0xffffffffffffffffffffffffffffffffffffffff\n  and\n    /* \"@openzeppelin/contracts/access/Ownable.sol\":2985:3010  address oldOwner = _owner */\n  swap1\n  pop\n    /* \"@openzeppelin/contracts/access/Ownable.sol\":3029:3037  newOwner */\n  dup2\n    /* \"@openzeppelin/contracts/access/Ownable.sol\":3020:3026  _owner */\n  0x05\n  0x00\n    /* \"@openzeppelin/contracts/access/Ownable.sol\":3020:3037  _owner = newOwner */\n  0x0100\n  exp\n  dup2\n  sload\n  dup2\n  0xffffffffffffffffffffffffffffffffffffffff\n  mul\n  not\n  and\n  swap1\n  dup4\n  0xffffffffffffffffffffffffffffffffffffffff\n  and\n  mul\n  or\n  swap1\n  sstore\n  pop\n    /* \"@openzeppelin/contracts/access/Ownable.sol\":3083:3091  newOwner */\n  dup2\n    /* \"@openzeppelin/contracts/access/Ownable.sol\":3052:3092  OwnershipTransferred(oldOwner, newOwner) */\n  0xffffffffffffffffffffffffffffffffffffffff\n  and\n    /* \"@openzeppelin/contracts/access/Ownable.sol\":3073:3081  oldOwner */\n  dup2\n    /* \"@openzeppelin/contracts/access/Ownable.sol\":3052:3092  OwnershipTransferred(oldOwner, newOwner) */\n  0xffffffffffffffffffffffffffffffffffffffff\n  and\n  0x8be0079c531659141344cd1fd0a4f28419497f9722a3daafe3b4186f6b6457e0\n  mload(0x40)\n  mload(0x40)\n  dup1\n  swap2\n  sub\n  swap1\n  log3\n    /* \"@openzeppelin/contracts/access/Ownable.sol\":2975:3099  {... */\n  pop\n    /* \"@openzeppelin/contracts/access/Ownable.sol\":2912:3099  function _transferOwnership(address newOwner) internal virtual {... */\n  pop\n  jump\t// out\n    /* \"@openzeppelin/contracts/token/ERC20/ERC20.sol\":7458:7666  function _mint(address account, uint256 value) internal {... */\ntag_21:\n    /* \"@openzeppelin/contracts/token/ERC20/ERC20.sol\":7547:7548  0 */\n  0x00\n    /* \"@openzeppelin/contracts/token/ERC20/ERC20.sol\":7528:7549  account == address(0) */\n  0xffffffffffffffffffffffffffffffffffffffff\n  and\n    /* \"@openzeppelin/contracts/token/ERC20/ERC20.sol\":7528:7535  account */\n  dup3\n    /* \"@openzeppelin/contracts/token/ERC20/ERC20.sol\":7528:7549  account == address(0) */\n  0xffffffffffffffffffffffffffffffffffffffff\n  and\n  sub\n    /* \"@openzeppelin/contracts/token/ERC20/ERC20.sol\":7524:7615  if (account == address(0)) {... */\n  tag_25\n  jumpi\n    /* \"@openzeppelin/contracts/token/ERC20/ERC20.sol\":7601:7602  0 */\n  0x00\n    /* \"@openzeppelin/contracts/token/ERC20/ERC20.sol\":7572:7604  ERC20InvalidReceiver(address(0)) */\n  mload(0x40)\n  0xec442f0500000000000000000000000000000000000000000000000000000000\n  dup2\n  mstore\n  0x04\n  add\n  tag_26\n  swap2\n  swap1\n  tag_15\n  jump\t// in\ntag_26:\n  mload(0x40)\n  dup1\n  swap2\n  sub\n  swap1\n  revert\n    /* \"@openzeppelin/contracts/token/ERC20/ERC20.sol\":7524:7615  if (account == address(0)) {... */\ntag_25:\n    /* \"@openzeppelin/contracts/token/ERC20/ERC20.sol\":7624:7659  _update(address(0), account, value) */\n  tag_27\n    /* \"@openzeppelin/contracts/token/ERC20/ERC20.sol\":7640:7641  0 */\n  0x00\n    /* \"@openzeppelin/contracts/token/ERC20/ERC20.sol\":7644:7651  account */\n  dup4\n    /* \"@openzeppelin/contracts/token/ERC20/ERC20.sol\":7653:7658  value */\n  dup4\n    /* \"@openzeppelin/contracts/token/ERC20/ERC20.sol\":7624:7631  _update */\n  shl(0x20, tag_28)\n    /* \"@openzeppelin/contracts/token/ERC20/ERC20.sol\":7624:7659  _update(address(0), account, value) */\n  0x20\n  shr\n  jump\t// in\ntag_27:\n    /* \"@openzeppelin/contracts/token/ERC20/ERC20.sol\":7458:7666  function _mint(address account, uint256 value) internal {... */\n  pop\n  pop\n  jump\t// out\n    /* \"@openzeppelin/contracts/token/ERC20/ERC20.sol\":6008:7115  function _update(address from, address to, uint256 value) internal virtual {... */\ntag_28:\n    /* \"@openzeppelin/contracts/token/ERC20/ERC20.sol\":6113:6114  0 */\n  0x00\n    /* \"@openzeppelin/contracts/token/ERC20/ERC20.sol\":6097:6115  from == address(0) */\n  0xffffffffffffffffffffffffffffffffffffffff\n  and\n    /* \"@openzeppelin/contracts/token/ERC20/ERC20.sol\":6097:6101  from */\n  dup4\n    /* \"@openzeppelin/contracts/token/ERC20/ERC20.sol\":6097:6115  from == address(0) */\n  0xffffffffffffffffffffffffffffffffffffffff\n  and\n  sub\n    /* \"@openzeppelin/contracts/token/ERC20/ERC20.sol\":6093:6633  if (from == address(0)) {... */\n  tag_30\n  jumpi\n    /* \"@openzeppelin/contracts/token/ERC20/ERC20.sol\":6249:6254  value */\n  dup1\n    /* \"@openzeppelin/contracts/token/ERC20/ERC20.sol\":6233:6245  _totalSupply */\n  0x02\n  0x00\n    /* \"@openzeppelin/contracts/token/ERC20/ERC20.sol\":6233:6254  _totalSupply += value */\n  dup3\n  dup3\n  sload\n  tag_31\n  swap2\n  swap1\n  tag_32\n  jump\t// in\ntag_31:\n  swap3\n  pop\n  pop\n  dup2\n  swap1\n  sstore\n  pop\n    /* \"@openzeppelin/contracts/token/ERC20/ERC20.sol\":6093:6633  if (from == address(0)) {... */\n  jump(tag_33)\ntag_30:\n    /* \"@openzeppelin/contracts/token/ERC20/ERC20.sol\":6285:6304  uint256 fromBalance */\n  0x00\n    /* \"@openzeppelin/contracts/token/ERC20/ERC20.sol\":6307:6316  _balances */\n  dup1\n    /* \"@openzeppelin/contracts/token/ERC20/ERC20.sol\":6307:6322  _balances[from] */\n  0x00\n    /* \"@openzeppelin/contracts/token/ERC20/ERC20.sol\":6317:6321  from */\n  dup6\n    /* \"@openzeppelin/contracts/token/ERC20/ERC20.sol\":6307:6322  _balances[from] */\n  0xffffffffffffffffffffffffffffffffffffffff\n  and\n  0xffffffffffffffffffffffffffffffffffffffff\n  and\n  dup2\n  mstore\n  0x20\n  add\n  swap1\n  dup2\n  mstore\n  0x20\n  add\n  0x00\n  keccak256\n  sload\n    /* \"@openzeppelin/contracts/token/ERC20/ERC20.sol\":6285:6322  uint256 fromBalance = _balances[from] */\n  swap1\n  pop\n    /* \"@openzeppelin/contracts/token/ERC20/ERC20.sol\":6354:6359  value */\n  dup2\n    /* \"@openzeppelin/contracts/token/ERC20/ERC20.sol\":6340:6351  fromBalance */\n  dup2\n    /* \"@openzeppelin/contracts/token/ERC20/ERC20.sol\":6340:6359  fromBalance < value */\n  lt\n    /* \"@openzeppelin/contracts/token/ERC20/ERC20.sol\":6336:6451  if (fromBalance < value) {... */\n  iszero\n  tag_34\n  jumpi\n    /* \"@openzeppelin/contracts/token/ERC20/ERC20.sol\":6411:6415  from */\n  dup4\n    /* \"@openzeppelin/contracts/token/ERC20/ERC20.sol\":6417:6428  fromBalance */\n  dup2\n    /* \"@openzeppelin/contracts/token/ERC20/ERC20.sol\":6430:6435  value */\n  dup4\n    /* \"@openzeppelin/contracts/token/ERC20/ERC20.sol\":6386:6436  ERC20InsufficientBalance(from, fromBalance, value) */\n  mload(0x40)\n  0xe450d38c00000000000000000000000000000000000000000000000000000000\n  dup2\n  mstore\n  0x04\n  add\n  tag_35\n  swap4\n  swap3\n  swap2\n  swap1\n  tag_36\n  jump\t// in\ntag_35:\n  mload(0x40)\n  dup1\n  swap2\n  sub\n  swap1\n  revert\n    /* \"@openzeppelin/contracts/token/ERC20/ERC20.sol\":6336:6451  if (fromBalance < value) {... */\ntag_34:\n    /* \"@openzeppelin/contracts/token/ERC20/ERC20.sol\":6603:6608  value */\n  dup2\n    /* \"@openzeppelin/contracts/token/ERC20/ERC20.sol\":6589:6600  fromBalance */\n  dup2\n    /* \"@openzeppelin/contracts/token/ERC20/ERC20.sol\":6589:6608  fromBalance - value */\n  sub\n    /* \"@openzeppelin/contracts/token/ERC20/ERC20.sol\":6571:6580  _balances */\n  0x00\n    /* \"@openzeppelin/contracts/token/ERC20/ERC20.sol\":6571:6586  _balances[from] */\n  dup1\n    /* \"@openzeppelin/contracts/token/ERC20/ERC20.sol\":6581:6585  from */\n  dup7\n    /* \"@openzeppelin/contracts/token/ERC20/ERC20.sol\":6571:6586  _balances[from] */\n  0xffffffffffffffffffffffffffffffffffffffff\n  and\n  0xffffffffffffffffffffffffffffffffffffffff\n  and\n  dup2\n  mstore\n  0x20\n  add\n  swap1\n  dup2\n  mstore\n  0x20\n  add\n  0x00\n  keccak256\n    /* \"@openzeppelin/contracts/token/ERC20/ERC20.sol\":6571:6608  _balances[from] = fromBalance - value */\n  dup2\n  swap1\n  sstore\n  pop\n    /* \"@openzeppelin/contracts/token/ERC20/ERC20.sol\":6271:6633  {... */\n  pop\n    /* \"@openzeppelin/contracts/token/ERC20/ERC20.sol\":6093:6633  if (from == address(0)) {... */\ntag_33:\n    /* \"@openzeppelin/contracts/token/ERC20/ERC20.sol\":6661:6662  0 */\n  0x00\n    /* \"@openzeppelin/contracts/token/ERC20/ERC20.sol\":6647:6663  to == address(0) */\n  0xffffffffffffffffffffffffffffffffffffffff\n  and\n    /* \"@openzeppelin/contracts/token/ERC20/ERC20.sol\":6647:6649  to */\n  dup3\n    /* \"@openzeppelin/contracts/token/ERC20/ERC20.sol\":6647:6663  to == address(0) */\n  0xffffffffffffffffffffffffffffffffffffffff\n  and\n  sub\n    /* \"@openzeppelin/contracts/token/ERC20/ERC20.sol\":6643:7068  if (to == address(0)) {... */\n  tag_37\n  jumpi\n    /* \"@openzeppelin/contracts/token/ERC20/ERC20.sol\":6826:6831  value */\n  dup1\n    /* \"@openzeppelin/contracts/token/ERC20/ERC20.sol\":6810:6822  _totalSupply */\n  0x02\n  0x00\n    /* \"@openzeppelin/contracts/token/ERC20/ERC20.sol\":6810:6831  _totalSupply -= value */\n  dup3\n  dup3\n  sload\n  sub\n  swap3\n  pop\n  pop\n  dup2\n  swap1\n  sstore\n  pop\n    /* \"@openzeppelin/contracts/token/ERC20/ERC20.sol\":6643:7068  if (to == address(0)) {... */\n  jump(tag_38)\ntag_37:\n    /* \"@openzeppelin/contracts/token/ERC20/ERC20.sol\":7038:7043  value */\n  dup1\n    /* \"@openzeppelin/contracts/token/ERC20/ERC20.sol\":7021:7030  _balances */\n  0x00\n    /* \"@openzeppelin/contracts/token/ERC20/ERC20.sol\":7021:7034  _balances[to] */\n  dup1\n    /* \"@openzeppelin/contracts/token/ERC20/ERC20.sol\":7031:7033  to */\n  dup5\n    /* \"@openzeppelin/contracts/token/ERC20/ERC20.sol\":7021:7034  _balances[to] */\n  0xffffffffffffffffffffffffffffffffffffffff\n  and\n  0xffffffffffffffffffffffffffffffffffffffff\n  and\n  dup2\n  mstore\n  0x20\n  add\n  swap1\n  dup2\n  mstore\n  0x20\n  add\n  0x00\n  keccak256\n  0x00\n    /* \"@openzeppelin/contracts/token/ERC20/ERC20.sol\":7021:7043  _balances[to] += value */\n  dup3\n  dup3\n  sload\n  add\n  swap3\n  pop\n  pop\n  dup2\n  swap1\n  sstore\n  pop\n    /* \"@openzeppelin/contracts/token/ERC20/ERC20.sol\":6643:7068  if (to == address(0)) {... */\ntag_38:\n    /* \"@openzeppelin/contracts/token/ERC20/ERC20.sol\":7098:7100  to */\n  dup2\n    /* \"@openzeppelin/contracts/token/ERC20/ERC20.sol\":7083:7108  Transfer(from, to, value) */\n  0xffffffffffffffffffffffffffffffffffffffff\n  and\n    /* \"@openzeppelin/contracts/token/ERC20/ERC20.sol\":7092:7096  from */\n  dup4\n    /* \"@openzeppelin/contracts/token/ERC20/ERC20.sol\":7083:7108  Transfer(from, to, value) */\n  0xffffffffffffffffffffffffffffffffffffffff\n  and\n  0xddf252ad1be2c89b69c2b068fc378daa952ba7f163c4a11628f55a4df523b3ef\n    /* \"@openzeppelin/contracts/token/ERC20/ERC20.sol\":7102:7107  value */\n  dup4\n    /* \"@openzeppelin/contracts/token/ERC20/ERC20.sol\":7083:7108  Transfer(from, to, value) */\n  mload(0x40)\n  tag_39\n  swap2\n  swap1\n  tag_40\n  jump\t// in\ntag_39:\n  mload(0x40)\n  dup1\n  swap2\n  sub\n  swap1\n  log3\n    /* \"@openzeppelin/contracts/token/ERC20/ERC20.sol\":6008:7115  function _update(address from, address to, uint256 value) internal virtual {... */\n  pop\n  pop\n  pop\n  jump\t// out\n    /* \"#utility.yul\":88:205   */\ntag_42:\n    /* \"#utility.yul\":197:198   */\n  0x00\n    /* \"#utility.yul\":194:195   */\n  dup1\n    /* \"#utility.yul\":187:199   */\n  revert\n    /* \"#utility.yul\":334:460   */\ntag_44:\n    /* \"#utility.yul\":371:378   */\n  0x00\n    /* \"#utility.yul\":411:453   */\n  0xffffffffffffffffffffffffffffffffffffffff\n    /* \"#utility.yul\":404:409   */\n  dup3\n    /* \"#utility.yul\":400:454   */\n  and\n    /* \"#utility.yul\":389:454   */\n  swap1\n  pop\n    /* \"#utility.yul\":334:460   */\n  swap2\n  swap1\n  pop\n  jump\t// out\n    /* \"#utility.yul\":466:562   */\ntag_45:\n    /* \"#utility.yul\":503:510   */\n  0x00\n    /* \"#utility.yul\":532:556   */\n  tag_77\n    /* \"#utility.yul\":550:555   */\n  dup3\n    /* \"#utility.yul\":532:556   */\n  tag_44\n  jump\t// in\ntag_77:\n    /* \"#utility.yul\":521:556   */\n  swap1\n  pop\n    /* \"#utility.yul\":466:562   */\n  swap2\n  swap1\n  pop\n  jump\t// out\n    /* \"#utility.yul\":568:690   */\ntag_46:\n    /* \"#utility.yul\":641:665   */\n  tag_79\n    /* \"#utility.yul\":659:664   */\n  dup2\n    /* \"#utility.yul\":641:665   */\n  tag_45\n  jump\t// in\ntag_79:\n    /* \"#utility.yul\":634:639   */\n  dup2\n    /* \"#utility.yul\":631:666   */\n  eq\n    /* \"#utility.yul\":621:684   */\n  tag_80\n  jumpi\n    /* \"#utility.yul\":680:681   */\n  0x00\n    /* \"#utility.yul\":677:678   */\n  dup1\n    /* \"#utility.yul\":670:682   */\n  revert\n    /* \"#utility.yul\":621:684   */\ntag_80:\n    /* \"#utility.yul\":568:690   */\n  pop\n  jump\t// out\n    /* \"#utility.yul\":696:839   */\ntag_47:\n    /* \"#utility.yul\":753:758   */\n  0x00\n    /* \"#utility.yul\":784:790   */\n  dup2\n    /* \"#utility.yul\":778:791   */\n  mload\n    /* \"#utility.yul\":769:791   */\n  swap1\n  pop\n    /* \"#utility.yul\":800:833   */\n  tag_82\n    /* \"#utility.yul\":827:832   */\n  dup2\n    /* \"#utility.yul\":800:833   */\n  tag_46\n  jump\t// in\ntag_82:\n    /* \"#utility.yul\":696:839   */\n  swap3\n  swap2\n  pop\n  pop\n  jump\t// out\n    /* \"#utility.yul\":845:1665   */\ntag_3:\n    /* \"#utility.yul\":942:948   */\n  0x00\n    /* \"#utility.yul\":950:956   */\n  dup1\n    /* \"#utility.yul\":958:964   */\n  0x00\n    /* \"#utility.yul\":966:972   */\n  dup1\n    /* \"#utility.yul\":1015:1018   */\n  0x80\n    /* \"#utility.yul\":1003:1012   */\n  dup6\n    /* \"#utility.yul\":994:1001   */\n  dup8\n    /* \"#utility.yul\":990:1013   */\n  sub\n    /* \"#utility.yul\":986:1019   */\n  slt\n    /* \"#utility.yul\":983:1103   */\n  iszero\n  tag_84\n  jumpi\n    /* \"#utility.yul\":1022:1101   */\n  tag_85\n  tag_42\n  jump\t// in\ntag_85:\n    /* \"#utility.yul\":983:1103   */\ntag_84:\n    /* \"#utility.yul\":1142:1143   */\n  0x00\n    /* \"#utility.yul\":1167:1231   */\n  tag_86\n    /* \"#utility.yul\":1223:1230   */\n  dup8\n    /* \"#utility.yul\":1214:1220   */\n  dup3\n    /* \"#utility.yul\":1203:1212   */\n  dup9\n    /* \"#utility.yul\":1199:1221   */\n  add\n    /* \"#utility.yul\":1167:1231   */\n  tag_47\n  jump\t// in\ntag_86:\n    /* \"#utility.yul\":1157:1231   */\n  swap5\n  pop\n    /* \"#utility.yul\":1113:1241   */\n  pop\n    /* \"#utility.yul\":1280:1282   */\n  0x20\n    /* \"#utility.yul\":1306:1370   */\n  tag_87\n    /* \"#utility.yul\":1362:1369   */\n  dup8\n    /* \"#utility.yul\":1353:1359   */\n  dup3\n    /* \"#utility.yul\":1342:1351   */\n  dup9\n    /* \"#utility.yul\":1338:1360   */\n  add\n    /* \"#utility.yul\":1306:1370   */\n  tag_47\n  jump\t// in\ntag_87:\n    /* \"#utility.yul\":1296:1370   */\n  swap4\n  pop\n    /* \"#utility.yul\":1251:1380   */\n  pop\n    /* \"#utility.yul\":1419:1421   */\n  0x40\n    /* \"#utility.yul\":1445:1509   */\n  tag_88\n    /* \"#utility.yul\":1501:1508   */\n  dup8\n    /* \"#utility.yul\":1492:1498   */\n  dup3\n    /* \"#utility.yul\":1481:1490   */\n  dup9\n    /* \"#utility.yul\":1477:1499   */\n  add\n    /* \"#utility.yul\":1445:1509   */\n  tag_47\n  jump\t// in\ntag_88:\n    /* \"#utility.yul\":1435:1509   */\n  swap3\n  pop\n    /* \"#utility.yul\":1390:1519   */\n  pop\n    /* \"#utility.yul\":1558:1560   */\n  0x60\n    /* \"#utility.yul\":1584:1648   */\n  tag_89\n    /* \"#utility.yul\":1640:1647   */\n  dup8\n    /* \"#utility.yul\":1631:1637   */\n  dup3\n    /* \"#utility.yul\":1620:1629   */\n  dup9\n    /* \"#utility.yul\":1616:1638   */\n  add\n    /* \"#utility.yul\":1584:1648   */\n  tag_47\n  jump\t// in\ntag_89:\n    /* \"#utility.yul\":1574:1648   */\n  swap2\n  pop\n    /* \"#utility.yul\":1529:1658   */\n  pop\n    /* \"#utility.yul\":845:1665   */\n  swap3\n  swap6\n  swap2\n  swap5\n  pop\n  swap3\n  pop\n  jump\t// out\n    /* \"#utility.yul\":1671:1770   */\ntag_48:\n    /* \"#utility.yul\":1723:1729   */\n  0x00\n    /* \"#utility.yul\":1757:1762   */\n  dup2\n    /* \"#utility.yul\":1751:1763   */\n  mload\n    /* \"#utility.yul\":1741:1763   */\n  swap1\n  pop\n    /* \"#utility.yul\":1671:1770   */\n  swap2\n  swap1\n  pop\n  jump\t// out\n    /* \"#utility.yul\":1776:1956   */\ntag_49:\n    /* \"#utility.yul\":1824:1901   */\n  0x4e487b7100000000000000000000000000000000000000000000000000000000\n    /* \"#utility.yul\":1821:1822   */\n  0x00\n    /* \"#utility.yul\":1814:1902   */\n  mstore\n    /* \"#utility.yul\":1921:1925   */\n  0x41\n    /* \"#utility.yul\":1918:1919   */\n  0x04\n    /* \"#utility.yul\":1911:1926   */\n  mstore\n    /* \"#utility.yul\":1945:1949   */\n  0x24\n    /* \"#utility.yul\":1942:1943   */\n  0x00\n    /* \"#utility.yul\":1935:1950   */\n  revert\n    /* \"#utility.yul\":1962:2142   */\ntag_50:\n    /* \"#utility.yul\":2010:2087   */\n  0x4e487b7100000000000000000000000000000000000000000000000000000000\n    /* \"#utility.yul\":2007:2008   */\n  0x00\n    /* \"#utility.yul\":2000:2088   */\n  mstore\n    /* \"#utility.yul\":2107:2111   */\n  0x22\n    /* \"#utility.yul\":2104:2105   */\n  0x04\n    /* \"#utility.yul\":2097:2112   */\n  mstore\n    /* \"#utility.yul\":2131:2135   */\n  0x24\n    /* \"#utility.yul\":2128:2129   */\n  0x00\n    /* \"#utility.yul\":2121:2136   */\n  revert\n    /* \"#utility.yul\":2148:2468   */\ntag_51:\n    /* \"#utility.yul\":2192:2198   */\n  0x00\n    /* \"#utility.yul\":2229:2230   */\n  0x02\n    /* \"#utility.yul\":2223:2227   */\n  dup3\n    /* \"#utility.yul\":2219:2231   */\n  div\n    /* \"#utility.yul\":2209:2231   */\n  swap1\n  pop\n    /* \"#utility.yul\":2276:2277   */\n  0x01\n    /* \"#utility.yul\":2270:2274   */\n  dup3\n    /* \"#utility.yul\":2266:2278   */\n  and\n    /* \"#utility.yul\":2297:2315   */\n  dup1\n    /* \"#utility.yul\":2287:2368   */\n  tag_94\n  jumpi\n    /* \"#utility.yul\":2353:2357   */\n  0x7f\n    /* \"#utility.yul\":2345:2351   */\n  dup3\n    /* \"#utility.yul\":2341:2358   */\n  and\n    /* \"#utility.yul\":2331:2358   */\n  swap2\n  pop\n    /* \"#utility.yul\":2287:2368   */\ntag_94:\n    /* \"#utility.yul\":2415:2417   */\n  0x20\n    /* \"#utility.yul\":2407:2413   */\n  dup3\n    /* \"#utility.yul\":2404:2418   */\n  lt\n    /* \"#utility.yul\":2384:2402   */\n  dup2\n    /* \"#utility.yul\":2381:2419   */\n  sub\n    /* \"#utility.yul\":2378:2462   */\n  tag_95\n  jumpi\n    /* \"#utility.yul\":2434:2452   */\n  tag_96\n  tag_50\n  jump\t// in\ntag_96:\n    /* \"#utility.yul\":2378:2462   */\ntag_95:\n    /* \"#utility.yul\":2199:2468   */\n  pop\n    /* \"#utility.yul\":2148:2468   */\n  swap2\n  swap1\n  pop\n  jump\t// out\n    /* \"#utility.yul\":2474:2615   */\ntag_52:\n    /* \"#utility.yul\":2523:2527   */\n  0x00\n    /* \"#utility.yul\":2546:2549   */\n  dup2\n    /* \"#utility.yul\":2538:2549   */\n  swap1\n  pop\n    /* \"#utility.yul\":2569:2572   */\n  dup2\n    /* \"#utility.yul\":2566:2567   */\n  0x00\n    /* \"#utility.yul\":2559:2573   */\n  mstore\n    /* \"#utility.yul\":2603:2607   */\n  0x20\n    /* \"#utility.yul\":2600:2601   */\n  0x00\n    /* \"#utility.yul\":2590:2608   */\n  keccak256\n    /* \"#utility.yul\":2582:2608   */\n  swap1\n  pop\n    /* \"#utility.yul\":2474:2615   */\n  swap2\n  swap1\n  pop\n  jump\t// out\n    /* \"#utility.yul\":2621:2714   */\ntag_53:\n    /* \"#utility.yul\":2658:2664   */\n  0x00\n    /* \"#utility.yul\":2705:2707   */\n  0x20\n    /* \"#utility.yul\":2700:2702   */\n  0x1f\n    /* \"#utility.yul\":2693:2698   */\n  dup4\n    /* \"#utility.yul\":2689:2703   */\n  add\n    /* \"#utility.yul\":2685:2708   */\n  div\n    /* \"#utility.yul\":2675:2708   */\n  swap1\n  pop\n    /* \"#utility.yul\":2621:2714   */\n  swap2\n  swap1\n  pop\n  jump\t// out\n    /* \"#utility.yul\":2720:2827   */\ntag_54:\n    /* \"#utility.yul\":2764:2772   */\n  0x00\n    /* \"#utility.yul\":2814:2819   */\n  dup3\n    /* \"#utility.yul\":2808:2812   */\n  dup3\n    /* \"#utility.yul\":2804:2820   */\n  shl\n    /* \"#utility.yul\":2783:2820   */\n  swap1\n  pop\n    /* \"#utility.yul\":2720:2827   */\n  swap3\n  swap2\n  pop\n  pop\n  jump\t// out\n    /* \"#utility.yul\":2833:3226   */\ntag_55:\n    /* \"#utility.yul\":2902:2908   */\n  0x00\n    /* \"#utility.yul\":2952:2953   */\n  0x08\n    /* \"#utility.yul\":2940:2950   */\n  dup4\n    /* \"#utility.yul\":2936:2954   */\n  mul\n    /* \"#utility.yul\":2975:3072   */\n  tag_101\n    /* \"#utility.yul\":3005:3071   */\n  0xffffffffffffffffffffffffffffffffffffffffffffffffffffffffffffffff\n    /* \"#utility.yul\":2994:3003   */\n  dup3\n    /* \"#utility.yul\":2975:3072   */\n  tag_54\n  jump\t// in\ntag_101:\n    /* \"#utility.yul\":3093:3132   */\n  tag_102\n    /* \"#utility.yul\":3123:3131   */\n  dup7\n    /* \"#utility.yul\":3112:3121   */\n  dup4\n    /* \"#utility.yul\":3093:3132   */\n  tag_54\n  jump\t// in\ntag_102:\n    /* \"#utility.yul\":3081:3132   */\n  swap6\n  pop\n    /* \"#utility.yul\":3165:3169   */\n  dup1\n    /* \"#utility.yul\":3161:3170   */\n  not\n    /* \"#utility.yul\":3154:3159   */\n  dup5\n    /* \"#utility.yul\":3150:3171   */\n  and\n    /* \"#utility.yul\":3141:3171   */\n  swap4\n  pop\n    /* \"#utility.yul\":3214:3218   */\n  dup1\n    /* \"#utility.yul\":3204:3212   */\n  dup7\n    /* \"#utility.yul\":3200:3219   */\n  and\n    /* \"#utility.yul\":3193:3198   */\n  dup5\n    /* \"#utility.yul\":3190:3220   */\n  or\n    /* \"#utility.yul\":3180:3220   */\n  swap3\n  pop\n    /* \"#utility.yul\":2909:3226   */\n  pop\n  pop\n    /* \"#utility.yul\":2833:3226   */\n  swap4\n  swap3\n  pop\n  pop\n  pop\n  jump\t// out\n    /* \"#utility.yul\":3232:3309   */\ntag_56:\n    /* \"#utility.yul\":3269:3276   */\n  0x00\n    /* \"#utility.yul\":3298:3303   */\n  dup2\n    /* \"#utility.yul\":3287:3303   */\n  swap1\n  pop\n    /* \"#utility.yul\":3232:3309   */\n  swap2\n  swap1\n  pop\n  jump\t// out\n    /* \"#utility.yul\":3315:3375   */\ntag_57:\n    /* \"#utility.yul\":3343:3346   */\n  0x00\n    /* \"#utility.yul\":3364:3369   */\n  dup2\n    /* \"#utility.yul\":3357:3369   */\n  swap1\n  pop\n    /* \"#utility.yul\":3315:3375   */\n  swap2\n  swap1\n  pop\n  jump\t// out\n    /* \"#utility.yul\":3381:3523   */\ntag_58:\n    /* \"#utility.yul\":3431:3440   */\n  0x00\n    /* \"#utility.yul\":3464:3517   */\n  tag_106\n    /* \"#utility.yul\":3482:3516   */\n  tag_107\n    /* \"#utility.yul\":3491:3515   */\n  tag_108\n    /* \"#utility.yul\":3509:3514   */\n  dup5\n    /* \"#utility.yul\":3491:3515   */\n  tag_56\n  jump\t// in\ntag_108:\n    /* \"#utility.yul\":3482:3516   */\n  tag_57\n  jump\t// in\ntag_107:\n    /* \"#utility.yul\":3464:3517   */\n  tag_56\n  jump\t// in\ntag_106:\n    /* \"#utility.yul\":3451:3517   */\n  swap1\n  pop\n    /* \"#utility.yul\":3381:3523   */\n  swap2\n  swap1\n  pop\n  jump\t// out\n    /* \"#utility.yul\":3529:3604   */\ntag_59:\n    /* \"#utility.yul\":3572:3575   */\n  0x00\n    /* \"#utility.yul\":3593:3598   */\n  dup2\n    /* \"#utility.yul\":3586:3598   */\n  swap1\n  pop\n    /* \"#utility.yul\":3529:3604   */\n  swap2\n  swap1\n  pop\n  jump\t// out\n    /* \"#utility.yul\":3610:3879   */\ntag_60:\n    /* \"#utility.yul\":3720:3759   */\n  tag_111\n    /* \"#utility.yul\":3751:3758   */\n  dup4\n    /* \"#utility.yul\":3720:3759   */\n  tag_58\n  jump\t// in\ntag_111:\n    /* \"#utility.yul\":3781:3872   */\n  tag_112\n    /* \"#utility.yul\":3830:3871   */\n  tag_113\n    /* \"#utility.yul\":3854:3870   */\n  dup3\n    /* \"#utility.yul\":3830:3871   */\n  tag_59\n  jump\t// in\ntag_113:\n    /* \"#utility.yul\":3822:3828   */\n  dup5\n    /* \"#utility.yul\":3815:3819   */\n  dup5\n    /* \"#utility.yul\":3809:3820   */\n  sload\n    /* \"#utility.yul\":3781:3872   */\n  tag_55\n  jump\t// in\ntag_112:\n    /* \"#utility.yul\":3775:3779   */\n  dup3\n    /* \"#utility.yul\":3768:3873   */\n  sstore\n    /* \"#utility.yul\":3686:3879   */\n  pop\n    /* \"#utility.yul\":3610:3879   */\n  pop\n  pop\n  pop\n  jump\t// out\n    /* \"#utility.yul\":3885:3958   */\ntag_61:\n    /* \"#utility.yul\":3930:3933   */\n  0x00\n    /* \"#utility.yul\":3885:3958   */\n  swap1\n  jump\t// out\n    /* \"#utility.yul\":3964:4153   */\ntag_62:\n    /* \"#utility.yul\":4041:4073   */\n  tag_116\n  tag_61\n  jump\t// in\ntag_116:\n    /* \"#utility.yul\":4082:4147   */\n  tag_117\n    /* \"#utility.yul\":4140:4146   */\n  dup2\n    /* \"#utility.yul\":4132:4138   */\n  dup5\n    /* \"#utility.yul\":4126:4130   */\n  dup5\n    /* \"#utility.yul\":4082:4147   */\n  tag_60\n  jump\t// in\ntag_117:\n    /* \"#utility.yul\":4017:4153   */\n  pop\n    /* \"#utility.yul\":3964:4153   */\n  pop\n  pop\n  jump\t// out\n    /* \"#utility.yul\":4159:4345   */\ntag_63:\n    /* \"#utility.yul\":4219:4339   */\ntag_119:\n    /* \"#utility.yul\":4236:4239   */\n  dup2\n    /* \"#utility.yul\":4229:4234   */\n  dup2\n    /* \"#utility.yul\":4226:4240   */\n  lt\n    /* \"#utility.yul\":4219:4339   */\n  iszero\n  tag_121\n  jumpi\n    /* \"#utility.yul\":4290:4329   */\n  tag_122\n    /* \"#utility.yul\":4327:4328   */\n  0x00\n    /* \"#utility.yul\":4320:4325   */\n  dup3\n    /* \"#utility.yul\":4290:4329   */\n  tag_62\n  jump\t// in\ntag_122:\n    /* \"#utility.yul\":4263:4264   */\n  0x01\n    /* \"#utility.yul\":4256:4261   */\n  dup2\n    /* \"#utility.yul\":4252:4265   */\n  add\n    /* \"#utility.yul\":4243:4265   */\n  swap1\n  pop\n    /* \"#utility.yul\":4219:4339   */\n  jump(tag_119)\ntag_121:\n    /* \"#utility.yul\":4159:4345   */\n  pop\n  pop\n  jump\t// out\n    /* \"#utility.yul\":4351:4894   */\ntag_64:\n    /* \"#utility.yul\":4452:4454   */\n  0x1f\n    /* \"#utility.yul\":4447:4450   */\n  dup3\n    /* \"#utility.yul\":4444:4455   */\n  gt\n    /* \"#utility.yul\":4441:4887   */\n  iszero\n  tag_124\n  jumpi\n    /* \"#utility.yul\":4486:4524   */\n  tag_125\n    /* \"#utility.yul\":4518:4523   */\n  dup2\n    /* \"#utility.yul\":4486:4524   */\n  tag_52\n  jump\t// in\ntag_125:\n    /* \"#utility.yul\":4570:4599   */\n  tag_126\n    /* \"#utility.yul\":4588:4598   */\n  dup5\n    /* \"#utility.yul\":4570:4599   */\n  tag_53\n  jump\t// in\ntag_126:\n    /* \"#utility.yul\":4560:4568   */\n  dup2\n    /* \"#utility.yul\":4556:4600   */\n  add\n    /* \"#utility.yul\":4753:4755   */\n  0x20\n    /* \"#utility.yul\":4741:4751   */\n  dup6\n    /* \"#utility.yul\":4738:4756   */\n  lt\n    /* \"#utility.yul\":4735:4784   */\n  iszero\n  tag_127\n  jumpi\n    /* \"#utility.yul\":4774:4782   */\n  dup2\n    /* \"#utility.yul\":4759:4782   */\n  swap1\n  pop\n    /* \"#utility.yul\":4735:4784   */\ntag_127:\n    /* \"#utility.yul\":4797:4877   */\n  tag_128\n    /* \"#utility.yul\":4853:4875   */\n  tag_129\n    /* \"#utility.yul\":4871:4874   */\n  dup6\n    /* \"#utility.yul\":4853:4875   */\n  tag_53\n  jump\t// in\ntag_129:\n    /* \"#utility.yul\":4843:4851   */\n  dup4\n    /* \"#utility.yul\":4839:4876   */\n  add\n    /* \"#utility.yul\":4826:4837   */\n  dup3\n    /* \"#utility.yul\":4797:4877   */\n  tag_63\n  jump\t// in\ntag_128:\n    /* \"#utility.yul\":4456:4887   */\n  pop\n  pop\n    /* \"#utility.yul\":4441:4887   */\ntag_124:\n    /* \"#utility.yul\":4351:4894   */\n  pop\n  pop\n  pop\n  jump\t// out\n    /* \"#utility.yul\":4900:5017   */\ntag_65:\n    /* \"#utility.yul\":4954:4962   */\n  0x00\n    /* \"#utility.yul\":5004:5009   */\n  dup3\n    /* \"#utility.yul\":4998:5002   */\n  dup3\n    /* \"#utility.yul\":4994:5010   */\n  shr\n    /* \"#utility.yul\":4973:5010   */\n  swap1\n  pop\n    /* \"#utility.yul\":4900:5017   */\n  swap3\n  swap2\n  pop\n  pop\n  jump\t// out\n    /* \"#utility.yul\":5023:5192   */\ntag_66:\n    /* \"#utility.yul\":5067:5073   */\n  0x00\n    /* \"#utility.yul\":5100:5151   */\n  tag_132\n    /* \"#utility.yul\":5148:5149   */\n  0x00\n    /* \"#utility.yul\":5144:5150   */\n  not\n    /* \"#utility.yul\":5136:5141   */\n  dup5\n    /* \"#utility.yul\":5133:5134   */\n  0x08\n    /* \"#utility.yul\":5129:5142   */\n  mul\n    /* \"#utility.yul\":5100:5151   */\n  tag_65\n  jump\t// in\ntag_132:\n    /* \"#utility.yul\":5096:5152   */\n  not\n    /* \"#utility.yul\":5181:5185   */\n  dup1\n    /* \"#utility.yul\":5175:5179   */\n  dup4\n    /* \"#utility.yul\":5171:5186   */\n  and\n    /* \"#utility.yul\":5161:5186   */\n  swap2\n  pop\n    /* \"#utility.yul\":5074:5192   */\n  pop\n    /* \"#utility.yul\":5023:5192   */\n  swap3\n  swap2\n  pop\n  pop\n  jump\t// out\n    /* \"#utility.yul\":5197:5492   */\ntag_67:\n    /* \"#utility.yul\":5273:5277   */\n  0x00\n    /* \"#utility.yul\":5419:5448   */\n  tag_134\n    /* \"#utility.yul\":5444:5447   */\n  dup4\n    /* \"#utility.yul\":5438:5442   */\n  dup4\n    /* \"#utility.yul\":5419:5448   */\n  tag_66\n  jump\t// in\ntag_134:\n    /* \"#utility.yul\":5411:5448   */\n  swap2\n  pop\n    /* \"#utility.yul\":5481:5484   */\n  dup3\n    /* \"#utility.yul\":5478:5479   */\n  0x02\n    /* \"#utility.yul\":5474:5485   */\n  mul\n    /* \"#utility.yul\":5468:5472   */\n  dup3\n    /* \"#utility.yul\":5465:5486   */\n  or\n    /* \"#utility.yul\":5457:5486   */\n  swap1\n  pop\n    /* \"#utility.yul\":5197:5492   */\n  swap3\n  swap2\n  pop\n  pop\n  jump\t// out\n    /* \"#utility.yul\":5497:6892   */\ntag_10:\n    /* \"#utility.yul\":5614:5651   */\n  tag_136\n    /* \"#utility.yul\":5647:5650   */\n  dup3\n    /* \"#utility.yul\":5614:5651   */\n  tag_48\n  jump\t// in\ntag_136:\n    /* \"#utility.yul\":5716:5734   */\n  0xffffffffffffffff\n    /* \"#utility.yul\":5708:5714   */\n  dup2\n    /* \"#utility.yul\":5705:5735   */\n  gt\n    /* \"#utility.yul\":5702:5758   */\n  iszero\n  tag_137\n  jumpi\n    /* \"#utility.yul\":5738:5756   */\n  tag_138\n  tag_49\n  jump\t// in\ntag_138:\n    /* \"#utility.yul\":5702:5758   */\ntag_137:\n    /* \"#utility.yul\":5782:5820   */\n  tag_139\n    /* \"#utility.yul\":5814:5818   */\n  dup3\n    /* \"#utility.yul\":5808:5819   */\n  sload\n    /* \"#utility.yul\":5782:5820   */\n  tag_51\n  jump\t// in\ntag_139:\n    /* \"#utility.yul\":5867:5934   */\n  tag_140\n    /* \"#utility.yul\":5927:5933   */\n  dup3\n    /* \"#utility.yul\":5919:5925   */\n  dup3\n    /* \"#utility.yul\":5913:5917   */\n  dup6\n    /* \"#utility.yul\":5867:5934   */\n  tag_64\n  jump\t// in\ntag_140:\n    /* \"#utility.yul\":5961:5962   */\n  0x00\n    /* \"#utility.yul\":5985:5989   */\n  0x20\n    /* \"#utility.yul\":5972:5989   */\n  swap1\n  pop\n    /* \"#utility.yul\":6017:6019   */\n  0x1f\n    /* \"#utility.yul\":6009:6015   */\n  dup4\n    /* \"#utility.yul\":6006:6020   */\n  gt\n    /* \"#utility.yul\":6034:6035   */\n  0x01\n    /* \"#utility.yul\":6029:6647   */\n  dup2\n  eq\n  tag_142\n  jumpi\n    /* \"#utility.yul\":6691:6692   */\n  0x00\n    /* \"#utility.yul\":6708:6714   */\n  dup5\n    /* \"#utility.yul\":6705:6782   */\n  iszero\n  tag_143\n  jumpi\n    /* \"#utility.yul\":6757:6766   */\n  dup3\n    /* \"#utility.yul\":6752:6755   */\n  dup8\n    /* \"#utility.yul\":6748:6767   */\n  add\n    /* \"#utility.yul\":6742:6768   */\n  mload\n    /* \"#utility.yul\":6733:6768   */\n  swap1\n  pop\n    /* \"#utility.yul\":6705:6782   */\ntag_143:\n    /* \"#utility.yul\":6808:6875   */\n  tag_144\n    /* \"#utility.yul\":6868:6874   */\n  dup6\n    /* \"#utility.yul\":6861:6866   */\n  dup3\n    /* \"#utility.yul\":6808:6875   */\n  tag_67\n  jump\t// in\ntag_144:\n    /* \"#utility.yul\":6802:6806   */\n  dup7\n    /* \"#utility.yul\":6795:6876   */\n  sstore\n    /* \"#utility.yul\":6664:6886   */\n  pop\n    /* \"#utility.yul\":5999:6886   */\n  jump(tag_141)\n    /* \"#utility.yul\":6029:6647   */\ntag_142:\n    /* \"#utility.yul\":6081:6085   */\n  0x1f\n    /* \"#utility.yul\":6077:6086   */\n  not\n    /* \"#utility.yul\":6069:6075   */\n  dup5\n    /* \"#utility.yul\":6065:6087   */\n  and\n    /* \"#utility.yul\":6115:6152   */\n  tag_145\n    /* \"#utility.yul\":6147:6151   */\n  dup7\n    /* \"#utility.yul\":6115:6152   */\n  tag_52\n  jump\t// in\ntag_145:\n    /* \"#utility.yul\":6174:6175   */\n  0x00\n    /* \"#utility.yul\":6188:6396   */\ntag_146:\n    /* \"#utility.yul\":6202:6209   */\n  dup3\n    /* \"#utility.yul\":6199:6200   */\n  dup2\n    /* \"#utility.yul\":6196:6210   */\n  lt\n    /* \"#utility.yul\":6188:6396   */\n  iszero\n  tag_148\n  jumpi\n    /* \"#utility.yul\":6281:6290   */\n  dup5\n    /* \"#utility.yul\":6276:6279   */\n  dup10\n    /* \"#utility.yul\":6272:6291   */\n  add\n    /* \"#utility.yul\":6266:6292   */\n  mload\n    /* \"#utility.yul\":6258:6264   */\n  dup3\n    /* \"#utility.yul\":6251:6293   */\n  sstore\n    /* \"#utility.yul\":6332:6333   */\n  0x01\n    /* \"#utility.yul\":6324:6330   */\n  dup3\n    /* \"#utility.yul\":6320:6334   */\n  add\n    /* \"#utility.yul\":6310:6334   */\n  swap2\n  pop\n    /* \"#utility.yul\":6379:6381   */\n  0x20\n    /* \"#utility.yul\":6368:6377   */\n  dup6\n    /* \"#utility.yul\":6364:6382   */\n  add\n    /* \"#utility.yul\":6351:6382   */\n  swap5\n  pop\n    /* \"#utility.yul\":6225:6229   */\n  0x20\n    /* \"#utility.yul\":6222:6223   */\n  dup2\n    /* \"#utility.yul\":6218:6230   */\n  add\n    /* \"#utility.yul\":6213:6230   */\n  swap1\n  pop\n    /* \"#utility.yul\":6188:6396   */\n  jump(tag_146)\ntag_148:\n    /* \"#utility.yul\":6424:6430   */\n  dup7\n    /* \"#utility.yul\":6415:6422   */\n  dup4\n    /* \"#utility.yul\":6412:6431   */\n  lt\n    /* \"#utility.yul\":6409:6588   */\n  iszero\n  tag_149\n  jumpi\n    /* \"#utility.yul\":6482:6491   */\n  dup5\n    /* \"#utility.yul\":6477:6480   */\n  dup10\n    /* \"#utility.yul\":6473:6492   */\n  add\n    /* \"#utility.yul\":6467:6493   */\n  mload\n    /* \"#utility.yul\":6525:6573   */\n  tag_150\n    /* \"#utility.yul\":6567:6571   */\n  0x1f\n    /* \"#utility.yul\":6559:6565   */\n  dup10\n    /* \"#utility.yul\":6555:6572   */\n  and\n    /* \"#utility.yul\":6544:6553   */\n  dup3\n    /* \"#utility.yul\":6525:6573   */\n  tag_66\n  jump\t// in\ntag_150:\n    /* \"#utility.yul\":6517:6523   */\n  dup4\n    /* \"#utility.yul\":6510:6574   */\n  sstore\n    /* \"#utility.yul\":6432:6588   */\n  pop\n    /* \"#utility.yul\":6409:6588   */\ntag_149:\n    /* \"#utility.yul\":6634:6635   */\n  0x01\n    /* \"#utility.yul\":6630:6631   */\n  0x02\n    /* \"#utility.yul\":6622:6628   */\n  dup9\n    /* \"#utility.yul\":6618:6632   */\n  mul\n    /* \"#utility.yul\":6614:6636   */\n  add\n    /* \"#utility.yul\":6608:6612   */\n  dup9\n    /* \"#utility.yul\":6601:6637   */\n  sstore\n    /* \"#utility.yul\":6036:6647   */\n  pop\n  pop\n  pop\n    /* \"#utility.yul\":5999:6886   */\ntag_141:\n  pop\n    /* \"#utility.yul\":5589:6892   */\n  pop\n  pop\n  pop\n    /* \"#utility.yul\":5497:6892   */\n  pop\n  pop\n  jump\t// out\n    /* \"#utility.yul\":6898:7016   */\ntag_68:\n    /* \"#utility.yul\":6985:7009   */\n  tag_152\n    /* \"#utility.yul\":7003:7008   */\n  dup2\n    /* \"#utility.yul\":6985:7009   */\n  tag_45\n  jump\t// in\ntag_152:\n    /* \"#utility.yul\":6980:6983   */\n  dup3\n    /* \"#utility.yul\":6973:7010   */\n  mstore\n    /* \"#utility.yul\":6898:7016   */\n  pop\n  pop\n  jump\t// out\n    /* \"#utility.yul\":7022:7244   */\ntag_15:\n    /* \"#utility.yul\":7115:7119   */\n  0x00\n    /* \"#utility.yul\":7153:7155   */\n  0x20\n    /* \"#utility.yul\":7142:7151   */\n  dup3\n    /* \"#utility.yul\":7138:7156   */\n  add\n    /* \"#utility.yul\":7130:7156   */\n  swap1\n  pop\n    /* \"#utility.yul\":7166:7237   */\n  tag_154\n    /* \"#utility.yul\":7234:7235   */\n  0x00\n    /* \"#utility.yul\":7223:7232   */\n  dup4\n    /* \"#utility.yul\":7219:7236   */\n  add\n    /* \"#utility.yul\":7210:7216   */\n  dup5\n    /* \"#utility.yul\":7166:7237   */\n  tag_68\n  jump\t// in\ntag_154:\n    /* \"#utility.yul\":7022:7244   */\n  swap3\n  swap2\n  pop\n  pop\n  jump\t// out\n    /* \"#utility.yul\":7250:7430   */\ntag_69:\n    /* \"#utility.yul\":7298:7375   */\n  0x4e487b7100000000000000000000000000000000000000000000000000000000\n    /* \"#utility.yul\":7295:7296   */\n  0x00\n    /* \"#utility.yul\":7288:7376   */\n  mstore\n    /* \"#utility.yul\":7395:7399   */\n  0x11\n    /* \"#utility.yul\":7392:7393   */\n  0x04\n    /* \"#utility.yul\":7385:7400   */\n  mstore\n    /* \"#utility.yul\":7419:7423   */\n  0x24\n    /* \"#utility.yul\":7416:7417   */\n  0x00\n    /* \"#utility.yul\":7409:7424   */\n  revert\n    /* \"#utility.yul\":7436:7627   */\ntag_32:\n    /* \"#utility.yul\":7476:7479   */\n  0x00\n    /* \"#utility.yul\":7495:7515   */\n  tag_157\n    /* \"#utility.yul\":7513:7514   */\n  dup3\n    /* \"#utility.yul\":7495:7515   */\n  tag_56\n  jump\t// in\ntag_157:\n    /* \"#utility.yul\":7490:7515   */\n  swap2\n  pop\n    /* \"#utility.yul\":7529:7549   */\n  tag_158\n    /* \"#utility.yul\":7547:7548   */\n  dup4\n    /* \"#utility.yul\":7529:7549   */\n  tag_56\n  jump\t// in\ntag_158:\n    /* \"#utility.yul\":7524:7549   */\n  swap3\n  pop\n    /* \"#utility.yul\":7572:7573   */\n  dup3\n    /* \"#utility.yul\":7569:7570   */\n  dup3\n    /* \"#utility.yul\":7565:7574   */\n  add\n    /* \"#utility.yul\":7558:7574   */\n  swap1\n  pop\n    /* \"#utility.yul\":7593:7596   */\n  dup1\n    /* \"#utility.yul\":7590:7591   */\n  dup3\n    /* \"#utility.yul\":7587:7597   */\n  gt\n    /* \"#utility.yul\":7584:7620   */\n  iszero\n  tag_159\n  jumpi\n    /* \"#utility.yul\":7600:7618   */\n  tag_160\n  tag_69\n  jump\t// in\ntag_160:\n    /* \"#utility.yul\":7584:7620   */\ntag_159:\n    /* \"#utility.yul\":7436:7627   */\n  swap3\n  swap2\n  pop\n  pop\n  jump\t// out\n    /* \"#utility.yul\":7633:7751   */\ntag_70:\n    /* \"#utility.yul\":7720:7744   */\n  tag_162\n    /* \"#utility.yul\":7738:7743   */\n  dup2\n    /* \"#utility.yul\":7720:7744   */\n  tag_56\n  jump\t// in\ntag_162:\n    /* \"#utility.yul\":7715:7718   */\n  dup3\n    /* \"#utility.yul\":7708:7745   */\n  mstore\n    /* \"#utility.yul\":7633:7751   */\n  pop\n  pop\n  jump\t// out\n    /* \"#utility.yul\":7757:8199   */\ntag_36:\n    /* \"#utility.yul\":7906:7910   */\n  0x00\n    /* \"#utility.yul\":7944:7946   */\n  0x60\n    /* \"#utility.yul\":7933:7942   */\n  dup3\n    /* \"#utility.yul\":7929:7947   */\n  add\n    /* \"#utility.yul\":7921:7947   */\n  swap1\n  pop\n    /* \"#utility.yul\":7957:8028   */\n  tag_164\n    /* \"#utility.yul\":8025:8026   */\n  0x00\n    /* \"#utility.yul\":8014:8023   */\n  dup4\n    /* \"#utility.yul\":8010:8027   */\n  add\n    /* \"#utility.yul\":8001:8007   */\n  dup7\n    /* \"#utility.yul\":7957:8028   */\n  tag_68\n  jump\t// in\ntag_164:\n    /* \"#utility.yul\":8038:8110   */\n  tag_165\n    /* \"#utility.yul\":8106:8108   */\n  0x20\n    /* \"#utility.yul\":8095:8104   */\n  dup4\n    /* \"#utility.yul\":8091:8109   */\n  add\n    /* \"#utility.yul\":8082:8088   */\n  dup6\n    /* \"#utility.yul\":8038:8110   */\n  tag_70\n  jump\t// in\ntag_165:\n    /* \"#utility.yul\":8120:8192   */\n  tag_166\n    /* \"#utility.yul\":8188:8190   */\n  0x40\n    /* \"#utility.yul\":8177:8186   */\n  dup4\n    /* \"#utility.yul\":8173:8191   */\n  add\n    /* \"#utility.yul\":8164:8170   */\n  dup5\n    /* \"#utility.yul\":8120:8192   */\n  tag_70\n  jump\t// in\ntag_166:\n    /* \"#utility.yul\":7757:8199   */\n  swap5\n  swap4\n  pop\n  pop\n  pop\n  pop\n  jump\t// out\n    /* \"#utility.yul\":8205:8427   */\ntag_40:\n    /* \"#utility.yul\":8298:8302   */\n  0x00\n    /* \"#utility.yul\":8336:8338   */\n  0x20\n    /* \"#utility.yul\":8325:8334   */\n  dup3\n    /* \"#utility.yul\":8321:8339   */\n  add\n    /* \"#utility.yul\":8313:8339   */\n  swap1\n  pop\n    /* \"#utility.yul\":8349:8420   */\n  tag_168\n    /* \"#utility.yul\":8417:8418   */\n  0x00\n    /* \"#utility.yul\":8406:8415   */\n  dup4\n    /* \"#utility.yul\":8402:8419   */\n  add\n    /* \"#utility.yul\":8393:8399   */\n  dup5\n    /* \"#utility.yul\":8349:8420   */\n  tag_70\n  jump\t// in\ntag_168:\n    /* \"#utility.yul\":8205:8427   */\n  swap3\n  swap2\n  pop\n  pop\n  jump\t// out\n    /* \"indentity_test_2.sol\":231:2822  contract XEAMToken is ERC20, Ownable, ReentrancyGuard {... */\ntag_22:\n  dataSize(sub_0)\n  dup1\n  dataOffset(sub_0)\n  0x00\n  codecopy\n  0x00\n  return\nstop\n\nsub_0: assembly {\n        /* \"indentity_test_2.sol\":231:2822  contract XEAMToken is ERC20, Ownable, ReentrancyGuard {... */\n      mstore(0x40, 0x80)\n      callvalue\n      dup1\n      iszero\n      tag_1\n      jumpi\n      0x00\n      dup1\n      revert\n    tag_1:\n      pop\n      jumpi(tag_2, lt(calldatasize, 0x04))\n      shr(0xe0, calldataload(0x00))\n      dup1\n      0x70a08231\n      gt\n      tag_27\n      jumpi\n      dup1\n      0xa9059cbb\n      gt\n      tag_28\n      jumpi\n      dup1\n      0xa9059cbb\n      eq\n      tag_21\n      jumpi\n      dup1\n      0xcc859378\n      eq\n      tag_22\n      jumpi\n      dup1\n      0xdd62ed3e\n      eq\n      tag_23\n      jumpi\n      dup1\n      0xdf7787a4\n      eq\n      tag_24\n      jumpi\n      dup1\n      0xf2fde38b\n      eq\n      tag_25\n      jumpi\n      dup1\n      0xf3b2db3f\n      eq\n      tag_26\n      jumpi\n      jump(tag_2)\n    tag_28:\n      dup1\n      0x70a08231\n      eq\n      tag_15\n      jumpi\n      dup1\n      0x715018a6\n      eq\n      tag_16\n      jumpi\n      dup1\n      0x753cafc3\n      eq\n      tag_17\n      jumpi\n      dup1\n      0x75f0a874\n      eq\n      tag_18\n      jumpi\n      dup1\n      0x8da5cb5b\n      eq\n      tag_19\n      jumpi\n      dup1\n      0x95d89b41\n      eq\n      tag_20\n      jumpi\n      jump(tag_2)\n    tag_27:\n      dup1\n      0x2ff2e9dc\n      gt\n      tag_29\n      jumpi\n      dup1\n      0x2ff2e9dc\n      eq\n      tag_9\n      jumpi\n      dup1\n      0x313ce567\n      eq\n      tag_10\n      jumpi\n      dup1\n      0x36b4134a\n      eq\n      tag_11\n      jumpi\n      dup1\n      0x4fbee193\n      eq\n      tag_12\n      jumpi\n      dup1\n      0x52a6a9ec\n      eq\n      tag_13\n      jumpi\n      dup1\n      0x54ad8aee\n      eq\n      tag_14\n      jumpi\n      jump(tag_2)\n    tag_29:\n      dup1\n      0x02af37bb\n      eq\n      tag_3\n      jumpi\n      dup1\n      0x06ee6ad8\n      eq\n      tag_4\n      jumpi\n      dup1\n      0x06fdde03\n      eq\n      tag_5\n      jumpi\n      dup1\n      0x095ea7b3\n      eq\n      tag_6\n      jumpi\n      dup1\n      0x18160ddd\n      eq\n      tag_7\n      jumpi\n      dup1\n      0x23b872dd\n      eq\n      tag_8\n      jumpi\n    tag_2:\n      0x00\n      dup1\n      revert\n        /* \"indentity_test_2.sol\":651:687  uint256 public constant BUY_TAX = 10 */\n    tag_3:\n      tag_30\n      tag_31\n      jump\t// in\n    tag_30:\n      mload(0x40)\n      tag_32\n      swap2\n      swap1\n      tag_33\n      jump\t// in\n    tag_32:\n      mload(0x40)\n      dup1\n      swap2\n      sub\n      swap1\n      return\n        /* \"indentity_test_2.sol\":616:644  address public stakingWallet */\n    tag_4:\n      tag_34\n      tag_35\n      jump\t// in\n    tag_34:\n      mload(0x40)\n      tag_36\n      swap2\n      swap1\n      tag_37\n      jump\t// in\n    tag_36:\n      mload(0x40)\n      dup1\n      swap2\n      sub\n      swap1\n      return\n        /* \"@openzeppelin/contracts/token/ERC20/ERC20.sol\":1779:1868  function name() public view virtual returns (string memory) {... */\n    tag_5:\n      tag_38\n      tag_39\n      jump\t// in\n    tag_38:\n      mload(0x40)\n      tag_40\n      swap2\n      swap1\n      tag_41\n      jump\t// in\n    tag_40:\n      mload(0x40)\n      dup1\n      swap2\n      sub\n      swap1\n      return\n        /* \"@openzeppelin/contracts/token/ERC20/ERC20.sol\":3998:4184  function approve(address spender, uint256 value) public virtual returns (bool) {... */\n    tag_6:\n      tag_42\n      0x04\n      dup1\n      calldatasize\n      sub\n      dup2\n      add\n      swap1\n      tag_43\n      swap2\n      swap1\n      tag_44\n      jump\t// in\n    tag_43:\n      tag_45\n      jump\t// in\n    tag_42:\n      mload(0x40)\n      tag_46\n      swap2\n      swap1\n      tag_47\n      jump\t// in\n    tag_46:\n      mload(0x40)\n      dup1\n      swap2\n      sub\n      swap1\n      return\n        /* \"@openzeppelin/contracts/token/ERC20/ERC20.sol\":2849:2946  function totalSupply() public view virtual returns (uint256) {... */\n    tag_7:\n      tag_48\n      tag_49\n      jump\t// in\n    tag_48:\n      mload(0x40)\n      tag_50\n      swap2\n      swap1\n      tag_33\n      jump\t// in\n    tag_50:\n      mload(0x40)\n      dup1\n      swap2\n      sub\n      swap1\n      return\n        /* \"@openzeppelin/contracts/token/ERC20/ERC20.sol\":4776:5020  function transferFrom(address from, address to, uint256 value) public virtual returns (bool) {... */\n    tag_8:\n      tag_51\n      0x04\n      dup1\n      calldatasize\n      sub\n      dup2\n      add\n      swap1\n      tag_52\n      swap2\n      swap1\n      tag_53\n      jump\t// in\n    tag_52:\n      tag_54\n      jump\t// in\n    tag_51:\n      mload(0x40)\n      tag_55\n      swap2\n      swap1\n      tag_47\n      jump\t// in\n    tag_55:\n      mload(0x40)\n      dup1\n      swap2\n      sub\n      swap1\n      return\n        /* \"indentity_test_2.sol\":291:350  uint256 public constant INITIAL_SUPPLY = 2_000_000 * 10**18 */\n    tag_9:\n      tag_56\n      tag_57\n      jump\t// in\n    tag_56:\n      mload(0x40)\n      tag_58\n      swap2\n      swap1\n      tag_33\n      jump\t// in\n    tag_58:\n      mload(0x40)\n      dup1\n      swap2\n      sub\n      swap1\n      return\n        /* \"@openzeppelin/contracts/token/ERC20/ERC20.sol\":2707:2789  function decimals() public view virtual returns (uint8) {... */\n    tag_10:\n      tag_59\n      tag_60\n      jump\t// in\n    tag_59:\n      mload(0x40)\n      tag_61\n      swap2\n      swap1\n      tag_62\n      jump\t// in\n    tag_61:\n      mload(0x40)\n      dup1\n      swap2\n      sub\n      swap1\n      return\n        /* \"indentity_test_2.sol\":736:773  uint256 public constant SLIPPAGE = 13 */\n    tag_11:\n      tag_63\n      tag_64\n      jump\t// in\n    tag_63:\n      mload(0x40)\n      tag_65\n      swap2\n      swap1\n      tag_33\n      jump\t// in\n    tag_65:\n      mload(0x40)\n      dup1\n      swap2\n      sub\n      swap1\n      return\n        /* \"indentity_test_2.sol\":803:853  mapping(address => bool) public isExcludedFromFees */\n    tag_12:\n      tag_66\n      0x04\n      dup1\n      calldatasize\n      sub\n      dup2\n      add\n      swap1\n      tag_67\n      swap2\n      swap1\n      tag_68\n      jump\t// in\n    tag_67:\n      tag_69\n      jump\t// in\n    tag_66:\n      mload(0x40)\n      tag_70\n      swap2\n      swap1\n      tag_47\n      jump\t// in\n    tag_70:\n      mload(0x40)\n      dup1\n      swap2\n      sub\n      swap1\n      return\n        /* \"indentity_test_2.sol\":508:540  address public encouragementFund */\n    tag_13:\n      tag_71\n      tag_72\n      jump\t// in\n    tag_71:\n      mload(0x40)\n      tag_73\n      swap2\n      swap1\n      tag_37\n      jump\t// in\n    tag_73:\n      mload(0x40)\n      dup1\n      swap2\n      sub\n      swap1\n      return\n        /* \"indentity_test_2.sol\":693:730  uint256 public constant SELL_TAX = 12 */\n    tag_14:\n      tag_74\n      tag_75\n      jump\t// in\n    tag_74:\n      mload(0x40)\n      tag_76\n      swap2\n      swap1\n      tag_33\n      jump\t// in\n    tag_76:\n      mload(0x40)\n      dup1\n      swap2\n      sub\n      swap1\n      return\n        /* \"@openzeppelin/contracts/token/ERC20/ERC20.sol\":3004:3120  function balanceOf(address account) public view virtual returns (uint256) {... */\n    tag_15:\n      tag_77\n      0x04\n      dup1\n      calldatasize\n      sub\n      dup2\n      add\n      swap1\n      tag_78\n      swap2\n      swap1\n      tag_68\n      jump\t// in\n    tag_78:\n      tag_79\n      jump\t// in\n    tag_77:\n      mload(0x40)\n      tag_80\n      swap2\n      swap1\n      tag_33\n      jump\t// in\n    tag_80:\n      mload(0x40)\n      dup1\n      swap2\n      sub\n      swap1\n      return\n        /* \"@openzeppelin/contracts/access/Ownable.sol\":2293:2394  function renounceOwnership() public virtual onlyOwner {... */\n    tag_16:\n      tag_81\n      tag_82\n      jump\t// in\n    tag_81:\n      stop\n        /* \"indentity_test_2.sol\":2657:2820  function updateExcludedAccountStatus(address account, bool excluded)... */\n    tag_17:\n      tag_83\n      0x04\n      dup1\n      calldatasize\n      sub\n      dup2\n      add\n      swap1\n      tag_84\n      swap2\n      swap1\n      tag_85\n      jump\t// in\n    tag_84:\n      tag_86\n      jump\t// in\n    tag_83:\n      stop\n        /* \"indentity_test_2.sol\":580:610  address public marketingWallet */\n    tag_18:\n      tag_87\n      tag_88\n      jump\t// in\n    tag_87:\n      mload(0x40)\n      tag_89\n      swap2\n      swap1\n      tag_37\n      jump\t// in\n    tag_89:\n      mload(0x40)\n      dup1\n      swap2\n      sub\n      swap1\n      return\n        /* \"@openzeppelin/contracts/access/Ownable.sol\":1638:1723  function owner() public view virtual returns (address) {... */\n    tag_19:\n      tag_90\n      tag_91\n      jump\t// in\n    tag_90:\n      mload(0x40)\n      tag_92\n      swap2\n      swap1\n      tag_37\n      jump\t// in\n    tag_92:\n      mload(0x40)\n      dup1\n      swap2\n      sub\n      swap1\n      return\n        /* \"@openzeppelin/contracts/token/ERC20/ERC20.sol\":1981:2074  function symbol() public view virtual returns (string memory) {... */\n    tag_20:\n      tag_93\n      tag_94\n      jump\t// in\n    tag_93:\n      mload(0x40)\n      tag_95\n      swap2\n      swap1\n      tag_41\n      jump\t// in\n    tag_95:\n      mload(0x40)\n      dup1\n      swap2\n      sub\n      swap1\n      return\n        /* \"indentity_test_2.sol\":1409:1801  function transfer(address recipient, uint256 amount)... */\n    tag_21:\n      tag_96\n      0x04\n      dup1\n      calldatasize\n      sub\n      dup2\n      add\n      swap1\n      tag_97\n      swap2\n      swap1\n      tag_44\n      jump\t// in\n    tag_97:\n      tag_98\n      jump\t// in\n    tag_96:\n      mload(0x40)\n      tag_99\n      swap2\n      swap1\n      tag_47\n      jump\t// in\n    tag_99:\n      mload(0x40)\n      dup1\n      swap2\n      sub\n      swap1\n      return\n        /* \"indentity_test_2.sol\":546:574  address public emergencyFund */\n    tag_22:\n      tag_100\n      tag_101\n      jump\t// in\n    tag_100:\n      mload(0x40)\n      tag_102\n      swap2\n      swap1\n      tag_37\n      jump\t// in\n    tag_102:\n      mload(0x40)\n      dup1\n      swap2\n      sub\n      swap1\n      return\n        /* \"@openzeppelin/contracts/token/ERC20/ERC20.sol\":3551:3691  function allowance(address owner, address spender) public view virtual returns (uint256) {... */\n    tag_23:\n      tag_103\n      0x04\n      dup1\n      calldatasize\n      sub\n      dup2\n      add\n      swap1\n      tag_104\n      swap2\n      swap1\n      tag_105\n      jump\t// in\n    tag_104:\n      tag_106\n      jump\t// in\n    tag_103:\n      mload(0x40)\n      tag_107\n      swap2\n      swap1\n      tag_33\n      jump\t// in\n    tag_107:\n      mload(0x40)\n      dup1\n      swap2\n      sub\n      swap1\n      return\n        /* \"indentity_test_2.sol\":356:419  uint256 public constant MAX_WALLET = (INITIAL_SUPPLY * 1) / 100 */\n    tag_24:\n      tag_108\n      tag_109\n      jump\t// in\n    tag_108:\n      mload(0x40)\n      tag_110\n      swap2\n      swap1\n      tag_33\n      jump\t// in\n    tag_110:\n      mload(0x40)\n      dup1\n      swap2\n      sub\n      swap1\n      return\n        /* \"@openzeppelin/contracts/access/Ownable.sol\":2543:2758  function transferOwnership(address newOwner) public virtual onlyOwner {... */\n    tag_25:\n      tag_111\n      0x04\n      dup1\n      calldatasize\n      sub\n      dup2\n      add\n      swap1\n      tag_112\n      swap2\n      swap1\n      tag_68\n      jump\t// in\n    tag_112:\n      tag_113\n      jump\t// in\n    tag_111:\n      stop\n        /* \"indentity_test_2.sol\":431:492  uint256 public constant MAX_TX = (INITIAL_SUPPLY * 5) / 10000 */\n    tag_26:\n      tag_114\n      tag_115\n      jump\t// in\n    tag_114:\n      mload(0x40)\n      tag_116\n      swap2\n      swap1\n      tag_33\n      jump\t// in\n    tag_116:\n      mload(0x40)\n      dup1\n      swap2\n      sub\n      swap1\n      return\n        /* \"indentity_test_2.sol\":651:687  uint256 public constant BUY_TAX = 10 */\n    tag_31:\n        /* \"indentity_test_2.sol\":685:687  10 */\n      0x0a\n        /* \"indentity_test_2.sol\":651:687  uint256 public constant BUY_TAX = 10 */\n      dup2\n      jump\t// out\n        /* \"indentity_test_2.sol\":616:644  address public stakingWallet */\n    tag_35:\n      0x0a\n      0x00\n      swap1\n      sload\n      swap1\n      0x0100\n      exp\n      swap1\n      div\n      0xffffffffffffffffffffffffffffffffffffffff\n      and\n      dup2\n      jump\t// out\n        /* \"@openzeppelin/contracts/token/ERC20/ERC20.sol\":1779:1868  function name() public view virtual returns (string memory) {... */\n    tag_39:\n        /* \"@openzeppelin/contracts/token/ERC20/ERC20.sol\":1824:1837  string memory */\n      0x60\n        /* \"@openzeppelin/contracts/token/ERC20/ERC20.sol\":1856:1861  _name */\n      0x03\n        /* \"@openzeppelin/contracts/token/ERC20/ERC20.sol\":1849:1861  return _name */\n      dup1\n      sload\n      tag_118\n      swap1\n      tag_119\n      jump\t// in\n    tag_118:\n      dup1\n      0x1f\n      add\n      0x20\n      dup1\n      swap2\n      div\n      mul\n      0x20\n      add\n      mload(0x40)\n      swap1\n      dup2\n      add\n      0x40\n      mstore\n      dup1\n      swap3\n      swap2\n      swap1\n      dup2\n      dup2\n      mstore\n      0x20\n      add\n      dup3\n      dup1\n      sload\n      tag_120\n      swap1\n      tag_119\n      jump\t// in\n    tag_120:\n      dup1\n      iszero\n      tag_121\n      jumpi\n      dup1\n      0x1f\n      lt\n      tag_122\n      jumpi\n      0x0100\n      dup1\n      dup4\n      sload\n      div\n      mul\n      dup4\n      mstore\n      swap2\n      0x20\n      add\n      swap2\n      jump(tag_121)\n    tag_122:\n      dup3\n      add\n      swap2\n      swap1\n      0x00\n      mstore\n      keccak256(0x00, 0x20)\n      swap1\n    tag_123:\n      dup2\n      sload\n      dup2\n      mstore\n      swap1\n      0x01\n      add\n      swap1\n      0x20\n      add\n      dup1\n      dup4\n      gt\n      tag_123\n      jumpi\n      dup3\n      swap1\n      sub\n      0x1f\n      and\n      dup3\n      add\n      swap2\n    tag_121:\n      pop\n      pop\n      pop\n      pop\n      pop\n      swap1\n      pop\n        /* \"@openzeppelin/contracts/token/ERC20/ERC20.sol\":1779:1868  function name() public view virtual returns (string memory) {... */\n      swap1\n      jump\t// out\n        /* \"@openzeppelin/contracts/token/ERC20/ERC20.sol\":3998:4184  function approve(address spender, uint256 value) public virtual returns (bool) {... */\n    tag_45:\n        /* \"@openzeppelin/contracts/token/ERC20/ERC20.sol\":4071:4075  bool */\n      0x00\n        /* \"@openzeppelin/contracts/token/ERC20/ERC20.sol\":4087:4100  address owner */\n      dup1\n        /* \"@openzeppelin/contracts/token/ERC20/ERC20.sol\":4103:4115  _msgSender() */\n      tag_125\n        /* \"@openzeppelin/contracts/token/ERC20/ERC20.sol\":4103:4113  _msgSender */\n      tag_126\n        /* \"@openzeppelin/contracts/token/ERC20/ERC20.sol\":4103:4115  _msgSender() */\n      jump\t// in\n    tag_125:\n        /* \"@openzeppelin/contracts/token/ERC20/ERC20.sol\":4087:4115  address owner = _msgSender() */\n      swap1\n      pop\n        /* \"@openzeppelin/contracts/token/ERC20/ERC20.sol\":4125:4156  _approve(owner, spender, value) */\n      tag_127\n        /* \"@openzeppelin/contracts/token/ERC20/ERC20.sol\":4134:4139  owner */\n      dup2\n        /* \"@openzeppelin/contracts/token/ERC20/ERC20.sol\":4141:4148  spender */\n      dup6\n        /* \"@openzeppelin/contracts/token/ERC20/ERC20.sol\":4150:4155  value */\n      dup6\n        /* \"@openzeppelin/contracts/token/ERC20/ERC20.sol\":4125:4133  _approve */\n      tag_128\n        /* \"@openzeppelin/contracts/token/ERC20/ERC20.sol\":4125:4156  _approve(owner, spender, value) */\n      jump\t// in\n    tag_127:\n        /* \"@openzeppelin/contracts/token/ERC20/ERC20.sol\":4173:4177  true */\n      0x01\n        /* \"@openzeppelin/contracts/token/ERC20/ERC20.sol\":4166:4177  return true */\n      swap2\n      pop\n      pop\n        /* \"@openzeppelin/contracts/token/ERC20/ERC20.sol\":3998:4184  function approve(address spender, uint256 value) public virtual returns (bool) {... */\n      swap3\n      swap2\n      pop\n      pop\n      jump\t// out\n        /* \"@openzeppelin/contracts/token/ERC20/ERC20.sol\":2849:2946  function totalSupply() public view virtual returns (uint256) {... */\n    tag_49:\n        /* \"@openzeppelin/contracts/token/ERC20/ERC20.sol\":2901:2908  uint256 */\n      0x00\n        /* \"@openzeppelin/contracts/token/ERC20/ERC20.sol\":2927:2939  _totalSupply */\n      sload(0x02)\n        /* \"@openzeppelin/contracts/token/ERC20/ERC20.sol\":2920:2939  return _totalSupply */\n      swap1\n      pop\n        /* \"@openzeppelin/contracts/token/ERC20/ERC20.sol\":2849:2946  function totalSupply() public view virtual returns (uint256) {... */\n      swap1\n      jump\t// out\n        /* \"@openzeppelin/contracts/token/ERC20/ERC20.sol\":4776:5020  function transferFrom(address from, address to, uint256 value) public virtual returns (bool) {... */\n    tag_54:\n        /* \"@openzeppelin/contracts/token/ERC20/ERC20.sol\":4863:4867  bool */\n      0x00\n        /* \"@openzeppelin/contracts/token/ERC20/ERC20.sol\":4879:4894  address spender */\n      dup1\n        /* \"@openzeppelin/contracts/token/ERC20/ERC20.sol\":4897:4909  _msgSender() */\n      tag_131\n        /* \"@openzeppelin/contracts/token/ERC20/ERC20.sol\":4897:4907  _msgSender */\n      tag_126\n        /* \"@openzeppelin/contracts/token/ERC20/ERC20.sol\":4897:4909  _msgSender() */\n      jump\t// in\n    tag_131:\n        /* \"@openzeppelin/contracts/token/ERC20/ERC20.sol\":4879:4909  address spender = _msgSender() */\n      swap1\n      pop\n        /* \"@openzeppelin/contracts/token/ERC20/ERC20.sol\":4919:4956  _spendAllowance(from, spender, value) */\n      tag_132\n        /* \"@openzeppelin/contracts/token/ERC20/ERC20.sol\":4935:4939  from */\n      dup6\n        /* \"@openzeppelin/contracts/token/ERC20/ERC20.sol\":4941:4948  spender */\n      dup3\n        /* \"@openzeppelin/contracts/token/ERC20/ERC20.sol\":4950:4955  value */\n      dup6\n        /* \"@openzeppelin/contracts/token/ERC20/ERC20.sol\":4919:4934  _spendAllowance */\n      tag_133\n        /* \"@openzeppelin/contracts/token/ERC20/ERC20.sol\":4919:4956  _spendAllowance(from, spender, value) */\n      jump\t// in\n    tag_132:\n        /* \"@openzeppelin/contracts/token/ERC20/ERC20.sol\":4966:4992  _transfer(from, to, value) */\n      tag_134\n        /* \"@openzeppelin/contracts/token/ERC20/ERC20.sol\":4976:4980  from */\n      dup6\n        /* \"@openzeppelin/contracts/token/ERC20/ERC20.sol\":4982:4984  to */\n      dup6\n        /* \"@openzeppelin/contracts/token/ERC20/ERC20.sol\":4986:4991  value */\n      dup6\n        /* \"@openzeppelin/contracts/token/ERC20/ERC20.sol\":4966:4975  _transfer */\n      tag_135\n        /* \"@openzeppelin/contracts/token/ERC20/ERC20.sol\":4966:4992  _transfer(from, to, value) */\n      jump\t// in\n    tag_134:\n        /* \"@openzeppelin/contracts/token/ERC20/ERC20.sol\":5009:5013  true */\n      0x01\n        /* \"@openzeppelin/contracts/token/ERC20/ERC20.sol\":5002:5013  return true */\n      swap2\n      pop\n      pop\n        /* \"@openzeppelin/contracts/token/ERC20/ERC20.sol\":4776:5020  function transferFrom(address from, address to, uint256 value) public virtual returns (bool) {... */\n      swap4\n      swap3\n      pop\n      pop\n      pop\n      jump\t// out\n        /* \"indentity_test_2.sol\":291:350  uint256 public constant INITIAL_SUPPLY = 2_000_000 * 10**18 */\n    tag_57:\n        /* \"indentity_test_2.sol\":332:350  2_000_000 * 10**18 */\n      0x01a784379d99db42000000\n        /* \"indentity_test_2.sol\":291:350  uint256 public constant INITIAL_SUPPLY = 2_000_000 * 10**18 */\n      dup2\n      jump\t// out\n        /* \"@openzeppelin/contracts/token/ERC20/ERC20.sol\":2707:2789  function decimals() public view virtual returns (uint8) {... */\n    tag_60:\n        /* \"@openzeppelin/contracts/token/ERC20/ERC20.sol\":2756:2761  uint8 */\n      0x00\n        /* \"@openzeppelin/contracts/token/ERC20/ERC20.sol\":2780:2782  18 */\n      0x12\n        /* \"@openzeppelin/contracts/token/ERC20/ERC20.sol\":2773:2782  return 18 */\n      swap1\n      pop\n        /* \"@openzeppelin/contracts/token/ERC20/ERC20.sol\":2707:2789  function decimals() public view virtual returns (uint8) {... */\n      swap1\n      jump\t// out\n        /* \"indentity_test_2.sol\":736:773  uint256 public constant SLIPPAGE = 13 */\n    tag_64:\n        /* \"indentity_test_2.sol\":771:773  13 */\n      0x0d\n        /* \"indentity_test_2.sol\":736:773  uint256 public constant SLIPPAGE = 13 */\n      dup2\n      jump\t// out\n        /* \"indentity_test_2.sol\":803:853  mapping(address => bool) public isExcludedFromFees */\n    tag_69:\n      mstore(0x20, 0x0b)\n      dup1\n      0x00\n      mstore\n      keccak256(0x00, 0x40)\n      0x00\n      swap2\n      pop\n      sload\n      swap1\n      0x0100\n      exp\n      swap1\n      div\n      0xff\n      and\n      dup2\n      jump\t// out\n        /* \"indentity_test_2.sol\":508:540  address public encouragementFund */\n    tag_72:\n      0x07\n      0x00\n      swap1\n      sload\n      swap1\n      0x0100\n      exp\n      swap1\n      div\n      0xffffffffffffffffffffffffffffffffffffffff\n      and\n      dup2\n      jump\t// out\n        /* \"indentity_test_2.sol\":693:730  uint256 public constant SELL_TAX = 12 */\n    tag_75:\n        /* \"indentity_test_2.sol\":728:730  12 */\n      0x0c\n        /* \"indentity_test_2.sol\":693:730  uint256 public constant SELL_TAX = 12 */\n      dup2\n      jump\t// out\n        /* \"@openzeppelin/contracts/token/ERC20/ERC20.sol\":3004:3120  function balanceOf(address account) public view virtual returns (uint256) {... */\n    tag_79:\n        /* \"@openzeppelin/contracts/token/ERC20/ERC20.sol\":3069:3076  uint256 */\n      0x00\n        /* \"@openzeppelin/contracts/token/ERC20/ERC20.sol\":3095:3104  _balances */\n      dup1\n        /* \"@openzeppelin/contracts/token/ERC20/ERC20.sol\":3095:3113  _balances[account] */\n      0x00\n        /* \"@openzeppelin/contracts/token/ERC20/ERC20.sol\":3105:3112  account */\n      dup4\n        /* \"@openzeppelin/contracts/token/ERC20/ERC20.sol\":3095:3113  _balances[account] */\n      0xffffffffffffffffffffffffffffffffffffffff\n      and\n      0xffffffffffffffffffffffffffffffffffffffff\n      and\n      dup2\n      mstore\n      0x20\n      add\n      swap1\n      dup2\n      mstore\n      0x20\n      add\n      0x00\n      keccak256\n      sload\n        /* \"@openzeppelin/contracts/token/ERC20/ERC20.sol\":3088:3113  return _balances[account] */\n      swap1\n      pop\n        /* \"@openzeppelin/contracts/token/ERC20/ERC20.sol\":3004:3120  function balanceOf(address account) public view virtual returns (uint256) {... */\n      swap2\n      swap1\n      pop\n      jump\t// out\n        /* \"@openzeppelin/contracts/access/Ownable.sol\":2293:2394  function renounceOwnership() public virtual onlyOwner {... */\n    tag_82:\n        /* \"@openzeppelin/contracts/access/Ownable.sol\":1531:1544  _checkOwner() */\n      tag_139\n        /* \"@openzeppelin/contracts/access/Ownable.sol\":1531:1542  _checkOwner */\n      tag_140\n        /* \"@openzeppelin/contracts/access/Ownable.sol\":1531:1544  _checkOwner() */\n      jump\t// in\n    tag_139:\n        /* \"@openzeppelin/contracts/access/Ownable.sol\":2357:2387  _transferOwnership(address(0)) */\n      tag_142\n        /* \"@openzeppelin/contracts/access/Ownable.sol\":2384:2385  0 */\n      0x00\n        /* \"@openzeppelin/contracts/access/Ownable.sol\":2357:2375  _transferOwnership */\n      tag_143\n        /* \"@openzeppelin/contracts/access/Ownable.sol\":2357:2387  _transferOwnership(address(0)) */\n      jump\t// in\n    tag_142:\n        /* \"@openzeppelin/contracts/access/Ownable.sol\":2293:2394  function renounceOwnership() public virtual onlyOwner {... */\n      jump\t// out\n        /* \"indentity_test_2.sol\":2657:2820  function updateExcludedAccountStatus(address account, bool excluded)... */\n    tag_86:\n        /* \"@openzeppelin/contracts/access/Ownable.sol\":1531:1544  _checkOwner() */\n      tag_145\n        /* \"@openzeppelin/contracts/access/Ownable.sol\":1531:1542  _checkOwner */\n      tag_140\n        /* \"@openzeppelin/contracts/access/Ownable.sol\":1531:1544  _checkOwner() */\n      jump\t// in\n    tag_145:\n        /* \"indentity_test_2.sol\":2805:2813  excluded */\n      dup1\n        /* \"indentity_test_2.sol\":2775:2793  isExcludedFromFees */\n      0x0b\n        /* \"indentity_test_2.sol\":2775:2802  isExcludedFromFees[account] */\n      0x00\n        /* \"indentity_test_2.sol\":2794:2801  account */\n      dup5\n        /* \"indentity_test_2.sol\":2775:2802  isExcludedFromFees[account] */\n      0xffffffffffffffffffffffffffffffffffffffff\n      and\n      0xffffffffffffffffffffffffffffffffffffffff\n      and\n      dup2\n      mstore\n      0x20\n      add\n      swap1\n      dup2\n      mstore\n      0x20\n      add\n      0x00\n      keccak256\n      0x00\n        /* \"indentity_test_2.sol\":2775:2813  isExcludedFromFees[account] = excluded */\n      0x0100\n      exp\n      dup2\n      sload\n      dup2\n      0xff\n      mul\n      not\n      and\n      swap1\n      dup4\n      iszero\n      iszero\n      mul\n      or\n      swap1\n      sstore\n      pop\n        /* \"indentity_test_2.sol\":2657:2820  function updateExcludedAccountStatus(address account, bool excluded)... */\n      pop\n      pop\n      jump\t// out\n        /* \"indentity_test_2.sol\":580:610  address public marketingWallet */\n    tag_88:\n      0x09\n      0x00\n      swap1\n      sload\n      swap1\n      0x0100\n      exp\n      swap1\n      div\n      0xffffffffffffffffffffffffffffffffffffffff\n      and\n      dup2\n      jump\t// out\n        /* \"@openzeppelin/contracts/access/Ownable.sol\":1638:1723  function owner() public view virtual returns (address) {... */\n    tag_91:\n        /* \"@openzeppelin/contracts/access/Ownable.sol\":1684:1691  address */\n      0x00\n        /* \"@openzeppelin/contracts/access/Ownable.sol\":1710:1716  _owner */\n      0x05\n      0x00\n      swap1\n      sload\n      swap1\n      0x0100\n      exp\n      swap1\n      div\n      0xffffffffffffffffffffffffffffffffffffffff\n      and\n        /* \"@openzeppelin/contracts/access/Ownable.sol\":1703:1716  return _owner */\n      swap1\n      pop\n        /* \"@openzeppelin/contracts/access/Ownable.sol\":1638:1723  function owner() public view virtual returns (address) {... */\n      swap1\n      jump\t// out\n        /* \"@openzeppelin/contracts/token/ERC20/ERC20.sol\":1981:2074  function symbol() public view virtual returns (string memory) {... */\n    tag_94:\n        /* \"@openzeppelin/contracts/token/ERC20/ERC20.sol\":2028:2041  string memory */\n      0x60\n        /* \"@openzeppelin/contracts/token/ERC20/ERC20.sol\":2060:2067  _symbol */\n      0x04\n        /* \"@openzeppelin/contracts/token/ERC20/ERC20.sol\":2053:2067  return _symbol */\n      dup1\n      sload\n      tag_149\n      swap1\n      tag_119\n      jump\t// in\n    tag_149:\n      dup1\n      0x1f\n      add\n      0x20\n      dup1\n      swap2\n      div\n      mul\n      0x20\n      add\n      mload(0x40)\n      swap1\n      dup2\n      add\n      0x40\n      mstore\n      dup1\n      swap3\n      swap2\n      swap1\n      dup2\n      dup2\n      mstore\n      0x20\n      add\n      dup3\n      dup1\n      sload\n      tag_150\n      swap1\n      tag_119\n      jump\t// in\n    tag_150:\n      dup1\n      iszero\n      tag_151\n      jumpi\n      dup1\n      0x1f\n      lt\n      tag_152\n      jumpi\n      0x0100\n      dup1\n      dup4\n      sload\n      div\n      mul\n      dup4\n      mstore\n      swap2\n      0x20\n      add\n      swap2\n      jump(tag_151)\n    tag_152:\n      dup3\n      add\n      swap2\n      swap1\n      0x00\n      mstore\n      keccak256(0x00, 0x20)\n      swap1\n    tag_153:\n      dup2\n      sload\n      dup2\n      mstore\n      swap1\n      0x01\n      add\n      swap1\n      0x20\n      add\n      dup1\n      dup4\n      gt\n      tag_153\n      jumpi\n      dup3\n      swap1\n      sub\n      0x1f\n      and\n      dup3\n      add\n      swap2\n    tag_151:\n      pop\n      pop\n      pop\n      pop\n      pop\n      swap1\n      pop\n        /* \"@openzeppelin/contracts/token/ERC20/ERC20.sol\":1981:2074  function symbol() public view virtual returns (string memory) {... */\n      swap1\n      jump\t// out\n        /* \"indentity_test_2.sol\":1409:1801  function transfer(address recipient, uint256 amount)... */\n    tag_98:\n        /* \"indentity_test_2.sol\":1511:1515  bool */\n      0x00\n        /* \"indentity_test_2.sol\":416:419  100 */\n      0x64\n        /* \"indentity_test_2.sol\":411:412  1 */\n      0x01\n        /* \"indentity_test_2.sol\":332:350  2_000_000 * 10**18 */\n      0x01a784379d99db42000000\n        /* \"indentity_test_2.sol\":394:412  INITIAL_SUPPLY * 1 */\n      tag_155\n      swap2\n      swap1\n      tag_156\n      jump\t// in\n    tag_155:\n        /* \"indentity_test_2.sol\":393:419  (INITIAL_SUPPLY * 1) / 100 */\n      tag_157\n      swap2\n      swap1\n      tag_158\n      jump\t// in\n    tag_157:\n        /* \"indentity_test_2.sol\":1575:1581  amount */\n      dup3\n        /* \"indentity_test_2.sol\":1552:1572  balanceOf(recipient) */\n      tag_159\n        /* \"indentity_test_2.sol\":1562:1571  recipient */\n      dup6\n        /* \"indentity_test_2.sol\":1552:1561  balanceOf */\n      tag_79\n        /* \"indentity_test_2.sol\":1552:1572  balanceOf(recipient) */\n      jump\t// in\n    tag_159:\n        /* \"indentity_test_2.sol\":1552:1581  balanceOf(recipient) + amount */\n      tag_160\n      swap2\n      swap1\n      tag_161\n      jump\t// in\n    tag_160:\n        /* \"indentity_test_2.sol\":1552:1595  balanceOf(recipient) + amount <= MAX_WALLET */\n      gt\n      iszero\n        /* \"indentity_test_2.sol\":1531:1645  require(... */\n      tag_162\n      jumpi\n      mload(0x40)\n      0x08c379a000000000000000000000000000000000000000000000000000000000\n      dup2\n      mstore\n      0x04\n      add\n      tag_163\n      swap1\n      tag_164\n      jump\t// in\n    tag_163:\n      mload(0x40)\n      dup1\n      swap2\n      sub\n      swap1\n      revert\n    tag_162:\n        /* \"indentity_test_2.sol\":487:492  10000 */\n      0x2710\n        /* \"indentity_test_2.sol\":482:483  5 */\n      0x05\n        /* \"indentity_test_2.sol\":332:350  2_000_000 * 10**18 */\n      0x01a784379d99db42000000\n        /* \"indentity_test_2.sol\":465:483  INITIAL_SUPPLY * 5 */\n      tag_165\n      swap2\n      swap1\n      tag_156\n      jump\t// in\n    tag_165:\n        /* \"indentity_test_2.sol\":464:492  (INITIAL_SUPPLY * 5) / 10000 */\n      tag_166\n      swap2\n      swap1\n      tag_158\n      jump\t// in\n    tag_166:\n        /* \"indentity_test_2.sol\":1663:1669  amount */\n      dup3\n        /* \"indentity_test_2.sol\":1663:1679  amount <= MAX_TX */\n      gt\n      iszero\n        /* \"indentity_test_2.sol\":1655:1713  require(amount <= MAX_TX, \"Exceeds max transaction limit\") */\n      tag_167\n      jumpi\n      mload(0x40)\n      0x08c379a000000000000000000000000000000000000000000000000000000000\n      dup2\n      mstore\n      0x04\n      add\n      tag_168\n      swap1\n      tag_169\n      jump\t// in\n    tag_168:\n      mload(0x40)\n      dup1\n      swap2\n      sub\n      swap1\n      revert\n    tag_167:\n        /* \"indentity_test_2.sol\":1724:1773  _transferWithTaxes(msg.sender, recipient, amount) */\n      tag_170\n        /* \"indentity_test_2.sol\":1743:1753  msg.sender */\n      caller\n        /* \"indentity_test_2.sol\":1755:1764  recipient */\n      dup5\n        /* \"indentity_test_2.sol\":1766:1772  amount */\n      dup5\n        /* \"indentity_test_2.sol\":1724:1742  _transferWithTaxes */\n      tag_171\n        /* \"indentity_test_2.sol\":1724:1773  _transferWithTaxes(msg.sender, recipient, amount) */\n      jump\t// in\n    tag_170:\n        /* \"indentity_test_2.sol\":1790:1794  true */\n      0x01\n        /* \"indentity_test_2.sol\":1783:1794  return true */\n      swap1\n      pop\n        /* \"indentity_test_2.sol\":1409:1801  function transfer(address recipient, uint256 amount)... */\n      swap3\n      swap2\n      pop\n      pop\n      jump\t// out\n        /* \"indentity_test_2.sol\":546:574  address public emergencyFund */\n    tag_101:\n      0x08\n      0x00\n      swap1\n      sload\n      swap1\n      0x0100\n      exp\n      swap1\n      div\n      0xffffffffffffffffffffffffffffffffffffffff\n      and\n      dup2\n      jump\t// out\n        /* \"@openzeppelin/contracts/token/ERC20/ERC20.sol\":3551:3691  function allowance(address owner, address spender) public view virtual returns (uint256) {... */\n    tag_106:\n        /* \"@openzeppelin/contracts/token/ERC20/ERC20.sol\":3631:3638  uint256 */\n      0x00\n        /* \"@openzeppelin/contracts/token/ERC20/ERC20.sol\":3657:3668  _allowances */\n      0x01\n        /* \"@openzeppelin/contracts/token/ERC20/ERC20.sol\":3657:3675  _allowances[owner] */\n      0x00\n        /* \"@openzeppelin/contracts/token/ERC20/ERC20.sol\":3669:3674  owner */\n      dup5\n        /* \"@openzeppelin/contracts/token/ERC20/ERC20.sol\":3657:3675  _allowances[owner] */\n      0xffffffffffffffffffffffffffffffffffffffff\n      and\n      0xffffffffffffffffffffffffffffffffffffffff\n      and\n      dup2\n      mstore\n      0x20\n      add\n      swap1\n      dup2\n      mstore\n      0x20\n      add\n      0x00\n      keccak256\n        /* \"@openzeppelin/contracts/token/ERC20/ERC20.sol\":3657:3684  _allowances[owner][spender] */\n      0x00\n        /* \"@openzeppelin/contracts/token/ERC20/ERC20.sol\":3676:3683  spender */\n      dup4\n        /* \"@openzeppelin/contracts/token/ERC20/ERC20.sol\":3657:3684  _allowances[owner][spender] */\n      0xffffffffffffffffffffffffffffffffffffffff\n      and\n      0xffffffffffffffffffffffffffffffffffffffff\n      and\n      dup2\n      mstore\n      0x20\n      add\n      swap1\n      dup2\n      mstore\n      0x20\n      add\n      0x00\n      keccak256\n      sload\n        /* \"@openzeppelin/contracts/token/ERC20/ERC20.sol\":3650:3684  return _allowances[owner][spender] */\n      swap1\n      pop\n        /* \"@openzeppelin/contracts/token/ERC20/ERC20.sol\":3551:3691  function allowance(address owner, address spender) public view virtual returns (uint256) {... */\n      swap3\n      swap2\n      pop\n      pop\n      jump\t// out\n        /* \"indentity_test_2.sol\":356:419  uint256 public constant MAX_WALLET = (INITIAL_SUPPLY * 1) / 100 */\n    tag_109:\n        /* \"indentity_test_2.sol\":416:419  100 */\n      0x64\n        /* \"indentity_test_2.sol\":411:412  1 */\n      0x01\n        /* \"indentity_test_2.sol\":332:350  2_000_000 * 10**18 */\n      0x01a784379d99db42000000\n        /* \"indentity_test_2.sol\":394:412  INITIAL_SUPPLY * 1 */\n      tag_173\n      swap2\n      swap1\n      tag_156\n      jump\t// in\n    tag_173:\n        /* \"indentity_test_2.sol\":393:419  (INITIAL_SUPPLY * 1) / 100 */\n      tag_174\n      swap2\n      swap1\n      tag_158\n      jump\t// in\n    tag_174:\n        /* \"indentity_test_2.sol\":356:419  uint256 public constant MAX_WALLET = (INITIAL_SUPPLY * 1) / 100 */\n      dup2\n      jump\t// out\n        /* \"@openzeppelin/contracts/access/Ownable.sol\":2543:2758  function transferOwnership(address newOwner) public virtual onlyOwner {... */\n    tag_113:\n        /* \"@openzeppelin/contracts/access/Ownable.sol\":1531:1544  _checkOwner() */\n      tag_176\n        /* \"@openzeppelin/contracts/access/Ownable.sol\":1531:1542  _checkOwner */\n      tag_140\n        /* \"@openzeppelin/contracts/access/Ownable.sol\":1531:1544  _checkOwner() */\n      jump\t// in\n    tag_176:\n        /* \"@openzeppelin/contracts/access/Ownable.sol\":2647:2648  0 */\n      0x00\n        /* \"@openzeppelin/contracts/access/Ownable.sol\":2627:2649  newOwner == address(0) */\n      0xffffffffffffffffffffffffffffffffffffffff\n      and\n        /* \"@openzeppelin/contracts/access/Ownable.sol\":2627:2635  newOwner */\n      dup2\n        /* \"@openzeppelin/contracts/access/Ownable.sol\":2627:2649  newOwner == address(0) */\n      0xffffffffffffffffffffffffffffffffffffffff\n      and\n      sub\n        /* \"@openzeppelin/contracts/access/Ownable.sol\":2623:2714  if (newOwner == address(0)) {... */\n      tag_178\n      jumpi\n        /* \"@openzeppelin/contracts/access/Ownable.sol\":2700:2701  0 */\n      0x00\n        /* \"@openzeppelin/contracts/access/Ownable.sol\":2672:2703  OwnableInvalidOwner(address(0)) */\n      mload(0x40)\n      0x1e4fbdf700000000000000000000000000000000000000000000000000000000\n      dup2\n      mstore\n      0x04\n      add\n      tag_179\n      swap2\n      swap1\n      tag_37\n      jump\t// in\n    tag_179:\n      mload(0x40)\n      dup1\n      swap2\n      sub\n      swap1\n      revert\n        /* \"@openzeppelin/contracts/access/Ownable.sol\":2623:2714  if (newOwner == address(0)) {... */\n    tag_178:\n        /* \"@openzeppelin/contracts/access/Ownable.sol\":2723:2751  _transferOwnership(newOwner) */\n      tag_180\n        /* \"@openzeppelin/contracts/access/Ownable.sol\":2742:2750  newOwner */\n      dup2\n        /* \"@openzeppelin/contracts/access/Ownable.sol\":2723:2741  _transferOwnership */\n      tag_143\n        /* \"@openzeppelin/contracts/access/Ownable.sol\":2723:2751  _transferOwnership(newOwner) */\n      jump\t// in\n    tag_180:\n        /* \"@openzeppelin/contracts/access/Ownable.sol\":2543:2758  function transferOwnership(address newOwner) public virtual onlyOwner {... */\n      pop\n      jump\t// out\n        /* \"indentity_test_2.sol\":431:492  uint256 public constant MAX_TX = (INITIAL_SUPPLY * 5) / 10000 */\n    tag_115:\n        /* \"indentity_test_2.sol\":487:492  10000 */\n      0x2710\n        /* \"indentity_test_2.sol\":482:483  5 */\n      0x05\n        /* \"indentity_test_2.sol\":332:350  2_000_000 * 10**18 */\n      0x01a784379d99db42000000\n        /* \"indentity_test_2.sol\":465:483  INITIAL_SUPPLY * 5 */\n      tag_181\n      swap2\n      swap1\n      tag_156\n      jump\t// in\n    tag_181:\n        /* \"indentity_test_2.sol\":464:492  (INITIAL_SUPPLY * 5) / 10000 */\n      tag_182\n      swap2\n      swap1\n      tag_158\n      jump\t// in\n    tag_182:\n        /* \"indentity_test_2.sol\":431:492  uint256 public constant MAX_TX = (INITIAL_SUPPLY * 5) / 10000 */\n      dup2\n      jump\t// out\n        /* \"@openzeppelin/contracts/utils/Context.sol\":656:752  function _msgSender() internal view virtual returns (address) {... */\n    tag_126:\n        /* \"@openzeppelin/contracts/utils/Context.sol\":709:716  address */\n      0x00\n        /* \"@openzeppelin/contracts/utils/Context.sol\":735:745  msg.sender */\n      caller\n        /* \"@openzeppelin/contracts/utils/Context.sol\":728:745  return msg.sender */\n      swap1\n      pop\n        /* \"@openzeppelin/contracts/utils/Context.sol\":656:752  function _msgSender() internal view virtual returns (address) {... */\n      swap1\n      jump\t// out\n        /* \"@openzeppelin/contracts/token/ERC20/ERC20.sol\":8726:8854  function _approve(address owner, address spender, uint256 value) internal {... */\n    tag_128:\n        /* \"@openzeppelin/contracts/token/ERC20/ERC20.sol\":8810:8847  _approve(owner, spender, value, true) */\n      tag_185\n        /* \"@openzeppelin/contracts/token/ERC20/ERC20.sol\":8819:8824  owner */\n      dup4\n        /* \"@openzeppelin/contracts/token/ERC20/ERC20.sol\":8826:8833  spender */\n      dup4\n        /* \"@openzeppelin/contracts/token/ERC20/ERC20.sol\":8835:8840  value */\n      dup4\n        /* \"@openzeppelin/contracts/token/ERC20/ERC20.sol\":8842:8846  true */\n      0x01\n        /* \"@openzeppelin/contracts/token/ERC20/ERC20.sol\":8810:8818  _approve */\n      tag_186\n        /* \"@openzeppelin/contracts/token/ERC20/ERC20.sol\":8810:8847  _approve(owner, spender, value, true) */\n      jump\t// in\n    tag_185:\n        /* \"@openzeppelin/contracts/token/ERC20/ERC20.sol\":8726:8854  function _approve(address owner, address spender, uint256 value) internal {... */\n      pop\n      pop\n      pop\n      jump\t// out\n        /* \"@openzeppelin/contracts/token/ERC20/ERC20.sol\":10415:10891  function _spendAllowance(address owner, address spender, uint256 value) internal virtual {... */\n    tag_133:\n        /* \"@openzeppelin/contracts/token/ERC20/ERC20.sol\":10514:10538  uint256 currentAllowance */\n      0x00\n        /* \"@openzeppelin/contracts/token/ERC20/ERC20.sol\":10541:10566  allowance(owner, spender) */\n      tag_188\n        /* \"@openzeppelin/contracts/token/ERC20/ERC20.sol\":10551:10556  owner */\n      dup5\n        /* \"@openzeppelin/contracts/token/ERC20/ERC20.sol\":10558:10565  spender */\n      dup5\n        /* \"@openzeppelin/contracts/token/ERC20/ERC20.sol\":10541:10550  allowance */\n      tag_106\n        /* \"@openzeppelin/contracts/token/ERC20/ERC20.sol\":10541:10566  allowance(owner, spender) */\n      jump\t// in\n    tag_188:\n        /* \"@openzeppelin/contracts/token/ERC20/ERC20.sol\":10514:10566  uint256 currentAllowance = allowance(owner, spender) */\n      swap1\n      pop\n        /* \"@openzeppelin/contracts/token/ERC20/ERC20.sol\":10599:10616  type(uint256).max */\n      0xffffffffffffffffffffffffffffffffffffffffffffffffffffffffffffffff\n        /* \"@openzeppelin/contracts/token/ERC20/ERC20.sol\":10580:10596  currentAllowance */\n      dup2\n        /* \"@openzeppelin/contracts/token/ERC20/ERC20.sol\":10580:10616  currentAllowance < type(uint256).max */\n      lt\n        /* \"@openzeppelin/contracts/token/ERC20/ERC20.sol\":10576:10885  if (currentAllowance < type(uint256).max) {... */\n      iszero\n      tag_189\n      jumpi\n        /* \"@openzeppelin/contracts/token/ERC20/ERC20.sol\":10655:10660  value */\n      dup2\n        /* \"@openzeppelin/contracts/token/ERC20/ERC20.sol\":10636:10652  currentAllowance */\n      dup2\n        /* \"@openzeppelin/contracts/token/ERC20/ERC20.sol\":10636:10660  currentAllowance < value */\n      lt\n        /* \"@openzeppelin/contracts/token/ERC20/ERC20.sol\":10632:10762  if (currentAllowance < value) {... */\n      iszero\n      tag_190\n      jumpi\n        /* \"@openzeppelin/contracts/token/ERC20/ERC20.sol\":10714:10721  spender */\n      dup3\n        /* \"@openzeppelin/contracts/token/ERC20/ERC20.sol\":10723:10739  currentAllowance */\n      dup2\n        /* \"@openzeppelin/contracts/token/ERC20/ERC20.sol\":10741:10746  value */\n      dup4\n        /* \"@openzeppelin/contracts/token/ERC20/ERC20.sol\":10687:10747  ERC20InsufficientAllowance(spender, currentAllowance, value) */\n      mload(0x40)\n      0xfb8f41b200000000000000000000000000000000000000000000000000000000\n      dup2\n      mstore\n      0x04\n      add\n      tag_191\n      swap4\n      swap3\n      swap2\n      swap1\n      tag_192\n      jump\t// in\n    tag_191:\n      mload(0x40)\n      dup1\n      swap2\n      sub\n      swap1\n      revert\n        /* \"@openzeppelin/contracts/token/ERC20/ERC20.sol\":10632:10762  if (currentAllowance < value) {... */\n    tag_190:\n        /* \"@openzeppelin/contracts/token/ERC20/ERC20.sol\":10803:10860  _approve(owner, spender, currentAllowance - value, false) */\n      tag_193\n        /* \"@openzeppelin/contracts/token/ERC20/ERC20.sol\":10812:10817  owner */\n      dup5\n        /* \"@openzeppelin/contracts/token/ERC20/ERC20.sol\":10819:10826  spender */\n      dup5\n        /* \"@openzeppelin/contracts/token/ERC20/ERC20.sol\":10847:10852  value */\n      dup5\n        /* \"@openzeppelin/contracts/token/ERC20/ERC20.sol\":10828:10844  currentAllowance */\n      dup5\n        /* \"@openzeppelin/contracts/token/ERC20/ERC20.sol\":10828:10852  currentAllowance - value */\n      sub\n        /* \"@openzeppelin/contracts/token/ERC20/ERC20.sol\":10854:10859  false */\n      0x00\n        /* \"@openzeppelin/contracts/token/ERC20/ERC20.sol\":10803:10811  _approve */\n      tag_186\n        /* \"@openzeppelin/contracts/token/ERC20/ERC20.sol\":10803:10860  _approve(owner, spender, currentAllowance - value, false) */\n      jump\t// in\n    tag_193:\n        /* \"@openzeppelin/contracts/token/ERC20/ERC20.sol\":10576:10885  if (currentAllowance < type(uint256).max) {... */\n    tag_189:\n        /* \"@openzeppelin/contracts/token/ERC20/ERC20.sol\":10504:10891  {... */\n      pop\n        /* \"@openzeppelin/contracts/token/ERC20/ERC20.sol\":10415:10891  function _spendAllowance(address owner, address spender, uint256 value) internal virtual {... */\n      pop\n      pop\n      pop\n      jump\t// out\n        /* \"@openzeppelin/contracts/token/ERC20/ERC20.sol\":5393:5693  function _transfer(address from, address to, uint256 value) internal {... */\n    tag_135:\n        /* \"@openzeppelin/contracts/token/ERC20/ERC20.sol\":5492:5493  0 */\n      0x00\n        /* \"@openzeppelin/contracts/token/ERC20/ERC20.sol\":5476:5494  from == address(0) */\n      0xffffffffffffffffffffffffffffffffffffffff\n      and\n        /* \"@openzeppelin/contracts/token/ERC20/ERC20.sol\":5476:5480  from */\n      dup4\n        /* \"@openzeppelin/contracts/token/ERC20/ERC20.sol\":5476:5494  from == address(0) */\n      0xffffffffffffffffffffffffffffffffffffffff\n      and\n      sub\n        /* \"@openzeppelin/contracts/token/ERC20/ERC20.sol\":5472:5558  if (from == address(0)) {... */\n      tag_195\n      jumpi\n        /* \"@openzeppelin/contracts/token/ERC20/ERC20.sol\":5544:5545  0 */\n      0x00\n        /* \"@openzeppelin/contracts/token/ERC20/ERC20.sol\":5517:5547  ERC20InvalidSender(address(0)) */\n      mload(0x40)\n      0x96c6fd1e00000000000000000000000000000000000000000000000000000000\n      dup2\n      mstore\n      0x04\n      add\n      tag_196\n      swap2\n      swap1\n      tag_37\n      jump\t// in\n    tag_196:\n      mload(0x40)\n      dup1\n      swap2\n      sub\n      swap1\n      revert\n        /* \"@openzeppelin/contracts/token/ERC20/ERC20.sol\":5472:5558  if (from == address(0)) {... */\n    tag_195:\n        /* \"@openzeppelin/contracts/token/ERC20/ERC20.sol\":5585:5586  0 */\n      0x00\n        /* \"@openzeppelin/contracts/token/ERC20/ERC20.sol\":5571:5587  to == address(0) */\n      0xffffffffffffffffffffffffffffffffffffffff\n      and\n        /* \"@openzeppelin/contracts/token/ERC20/ERC20.sol\":5571:5573  to */\n      dup3\n        /* \"@openzeppelin/contracts/token/ERC20/ERC20.sol\":5571:5587  to == address(0) */\n      0xffffffffffffffffffffffffffffffffffffffff\n      and\n      sub\n        /* \"@openzeppelin/contracts/token/ERC20/ERC20.sol\":5567:5653  if (to == address(0)) {... */\n      tag_197\n      jumpi\n        /* \"@openzeppelin/contracts/token/ERC20/ERC20.sol\":5639:5640  0 */\n      0x00\n        /* \"@openzeppelin/contracts/token/ERC20/ERC20.sol\":5610:5642  ERC20InvalidReceiver(address(0)) */\n      mload(0x40)\n      0xec442f0500000000000000000000000000000000000000000000000000000000\n      dup2\n      mstore\n      0x04\n      add\n      tag_198\n      swap2\n      swap1\n      tag_37\n      jump\t// in\n    tag_198:\n      mload(0x40)\n      dup1\n      swap2\n      sub\n      swap1\n      revert\n        /* \"@openzeppelin/contracts/token/ERC20/ERC20.sol\":5567:5653  if (to == address(0)) {... */\n    tag_197:\n        /* \"@openzeppelin/contracts/token/ERC20/ERC20.sol\":5662:5686  _update(from, to, value) */\n      tag_199\n        /* \"@openzeppelin/contracts/token/ERC20/ERC20.sol\":5670:5674  from */\n      dup4\n        /* \"@openzeppelin/contracts/token/ERC20/ERC20.sol\":5676:5678  to */\n      dup4\n        /* \"@openzeppelin/contracts/token/ERC20/ERC20.sol\":5680:5685  value */\n      dup4\n        /* \"@openzeppelin/contracts/token/ERC20/ERC20.sol\":5662:5669  _update */\n      tag_200\n        /* \"@openzeppelin/contracts/token/ERC20/ERC20.sol\":5662:5686  _update(from, to, value) */\n      jump\t// in\n    tag_199:\n        /* \"@openzeppelin/contracts/token/ERC20/ERC20.sol\":5393:5693  function _transfer(address from, address to, uint256 value) internal {... */\n      pop\n      pop\n      pop\n      jump\t// out\n        /* \"@openzeppelin/contracts/access/Ownable.sol\":1796:1958  function _checkOwner() internal view virtual {... */\n    tag_140:\n        /* \"@openzeppelin/contracts/access/Ownable.sol\":1866:1878  _msgSender() */\n      tag_202\n        /* \"@openzeppelin/contracts/access/Ownable.sol\":1866:1876  _msgSender */\n      tag_126\n        /* \"@openzeppelin/contracts/access/Ownable.sol\":1866:1878  _msgSender() */\n      jump\t// in\n    tag_202:\n        /* \"@openzeppelin/contracts/access/Ownable.sol\":1855:1878  owner() != _msgSender() */\n      0xffffffffffffffffffffffffffffffffffffffff\n      and\n        /* \"@openzeppelin/contracts/access/Ownable.sol\":1855:1862  owner() */\n      tag_203\n        /* \"@openzeppelin/contracts/access/Ownable.sol\":1855:1860  owner */\n      tag_91\n        /* \"@openzeppelin/contracts/access/Ownable.sol\":1855:1862  owner() */\n      jump\t// in\n    tag_203:\n        /* \"@openzeppelin/contracts/access/Ownable.sol\":1855:1878  owner() != _msgSender() */\n      0xffffffffffffffffffffffffffffffffffffffff\n      and\n      eq\n        /* \"@openzeppelin/contracts/access/Ownable.sol\":1851:1952  if (owner() != _msgSender()) {... */\n      tag_204\n      jumpi\n        /* \"@openzeppelin/contracts/access/Ownable.sol\":1928:1940  _msgSender() */\n      tag_205\n        /* \"@openzeppelin/contracts/access/Ownable.sol\":1928:1938  _msgSender */\n      tag_126\n        /* \"@openzeppelin/contracts/access/Ownable.sol\":1928:1940  _msgSender() */\n      jump\t// in\n    tag_205:\n        /* \"@openzeppelin/contracts/access/Ownable.sol\":1901:1941  OwnableUnauthorizedAccount(_msgSender()) */\n      mload(0x40)\n      0x118cdaa700000000000000000000000000000000000000000000000000000000\n      dup2\n      mstore\n      0x04\n      add\n      tag_206\n      swap2\n      swap1\n      tag_37\n      jump\t// in\n    tag_206:\n      mload(0x40)\n      dup1\n      swap2\n      sub\n      swap1\n      revert\n        /* \"@openzeppelin/contracts/access/Ownable.sol\":1851:1952  if (owner() != _msgSender()) {... */\n    tag_204:\n        /* \"@openzeppelin/contracts/access/Ownable.sol\":1796:1958  function _checkOwner() internal view virtual {... */\n      jump\t// out\n        /* \"@openzeppelin/contracts/access/Ownable.sol\":2912:3099  function _transferOwnership(address newOwner) internal virtual {... */\n    tag_143:\n        /* \"@openzeppelin/contracts/access/Ownable.sol\":2985:3001  address oldOwner */\n      0x00\n        /* \"@openzeppelin/contracts/access/Ownable.sol\":3004:3010  _owner */\n      0x05\n      0x00\n      swap1\n      sload\n      swap1\n      0x0100\n      exp\n      swap1\n      div\n      0xffffffffffffffffffffffffffffffffffffffff\n      and\n        /* \"@openzeppelin/contracts/access/Ownable.sol\":2985:3010  address oldOwner = _owner */\n      swap1\n      pop\n        /* \"@openzeppelin/contracts/access/Ownable.sol\":3029:3037  newOwner */\n      dup2\n        /* \"@openzeppelin/contracts/access/Ownable.sol\":3020:3026  _owner */\n      0x05\n      0x00\n        /* \"@openzeppelin/contracts/access/Ownable.sol\":3020:3037  _owner = newOwner */\n      0x0100\n      exp\n      dup2\n      sload\n      dup2\n      0xffffffffffffffffffffffffffffffffffffffff\n      mul\n      not\n      and\n      swap1\n      dup4\n      0xffffffffffffffffffffffffffffffffffffffff\n      and\n      mul\n      or\n      swap1\n      sstore\n      pop\n        /* \"@openzeppelin/contracts/access/Ownable.sol\":3083:3091  newOwner */\n      dup2\n        /* \"@openzeppelin/contracts/access/Ownable.sol\":3052:3092  OwnershipTransferred(oldOwner, newOwner) */\n      0xffffffffffffffffffffffffffffffffffffffff\n      and\n        /* \"@openzeppelin/contracts/access/Ownable.sol\":3073:3081  oldOwner */\n      dup2\n        /* \"@openzeppelin/contracts/access/Ownable.sol\":3052:3092  OwnershipTransferred(oldOwner, newOwner) */\n      0xffffffffffffffffffffffffffffffffffffffff\n      and\n      0x8be0079c531659141344cd1fd0a4f28419497f9722a3daafe3b4186f6b6457e0\n      mload(0x40)\n      mload(0x40)\n      dup1\n      swap2\n      sub\n      swap1\n      log3\n        /* \"@openzeppelin/contracts/access/Ownable.sol\":2975:3099  {... */\n      pop\n        /* \"@openzeppelin/contracts/access/Ownable.sol\":2912:3099  function _transferOwnership(address newOwner) internal virtual {... */\n      pop\n      jump\t// out\n        /* \"indentity_test_2.sol\":1807:2651  function _transferWithTaxes(... */\n    tag_171:\n        /* \"indentity_test_2.sol\":1935:1952  uint256 taxAmount */\n      0x00\n        /* \"indentity_test_2.sol\":1977:1980  100 */\n      0x64\n        /* \"indentity_test_2.sol\":728:730  12 */\n      0x0c\n        /* \"indentity_test_2.sol\":1956:1962  amount */\n      dup4\n        /* \"indentity_test_2.sol\":1956:1973  amount * SELL_TAX */\n      tag_209\n      swap2\n      swap1\n      tag_156\n      jump\t// in\n    tag_209:\n        /* \"indentity_test_2.sol\":1955:1980  (amount * SELL_TAX) / 100 */\n      tag_210\n      swap2\n      swap1\n      tag_158\n      jump\t// in\n    tag_210:\n        /* \"indentity_test_2.sol\":1935:1980  uint256 taxAmount = (amount * SELL_TAX) / 100 */\n      swap1\n      pop\n        /* \"indentity_test_2.sol\":1990:2008  uint256 sendAmount */\n      0x00\n        /* \"indentity_test_2.sol\":2020:2029  taxAmount */\n      dup2\n        /* \"indentity_test_2.sol\":2011:2017  amount */\n      dup4\n        /* \"indentity_test_2.sol\":2011:2029  amount - taxAmount */\n      tag_211\n      swap2\n      swap1\n      tag_212\n      jump\t// in\n    tag_211:\n        /* \"indentity_test_2.sol\":1990:2029  uint256 sendAmount = amount - taxAmount */\n      swap1\n      pop\n        /* \"indentity_test_2.sol\":2040:2104  super._transfer(sender, encouragementFund, (taxAmount * 4) / 12) */\n      tag_213\n        /* \"indentity_test_2.sol\":2056:2062  sender */\n      dup6\n        /* \"indentity_test_2.sol\":2064:2081  encouragementFund */\n      0x07\n      0x00\n      swap1\n      sload\n      swap1\n      0x0100\n      exp\n      swap1\n      div\n      0xffffffffffffffffffffffffffffffffffffffff\n      and\n        /* \"indentity_test_2.sol\":2101:2103  12 */\n      0x0c\n        /* \"indentity_test_2.sol\":2096:2097  4 */\n      0x04\n        /* \"indentity_test_2.sol\":2084:2093  taxAmount */\n      dup7\n        /* \"indentity_test_2.sol\":2084:2097  taxAmount * 4 */\n      tag_214\n      swap2\n      swap1\n      tag_156\n      jump\t// in\n    tag_214:\n        /* \"indentity_test_2.sol\":2083:2103  (taxAmount * 4) / 12 */\n      tag_215\n      swap2\n      swap1\n      tag_158\n      jump\t// in\n    tag_215:\n        /* \"indentity_test_2.sol\":2040:2055  super._transfer */\n      tag_135\n        /* \"indentity_test_2.sol\":2040:2104  super._transfer(sender, encouragementFund, (taxAmount * 4) / 12) */\n      jump\t// in\n    tag_213:\n        /* \"indentity_test_2.sol\":2119:2177  TaxDistributed((taxAmount * 4) / 12, \"Encouragement Fund\") */\n      0x6e232b0acf46272dacf889af6767574775a324b133d42b3b8cffa9cd13159984\n        /* \"indentity_test_2.sol\":2152:2154  12 */\n      0x0c\n        /* \"indentity_test_2.sol\":2147:2148  4 */\n      0x04\n        /* \"indentity_test_2.sol\":2135:2144  taxAmount */\n      dup5\n        /* \"indentity_test_2.sol\":2135:2148  taxAmount * 4 */\n      tag_216\n      swap2\n      swap1\n      tag_156\n      jump\t// in\n    tag_216:\n        /* \"indentity_test_2.sol\":2134:2154  (taxAmount * 4) / 12 */\n      tag_217\n      swap2\n      swap1\n      tag_158\n      jump\t// in\n    tag_217:\n        /* \"indentity_test_2.sol\":2119:2177  TaxDistributed((taxAmount * 4) / 12, \"Encouragement Fund\") */\n      mload(0x40)\n      tag_218\n      swap2\n      swap1\n      tag_219\n      jump\t// in\n    tag_218:\n      mload(0x40)\n      dup1\n      swap2\n      sub\n      swap1\n      log1\n        /* \"indentity_test_2.sol\":2188:2248  super._transfer(sender, emergencyFund, (taxAmount * 1) / 12) */\n      tag_220\n        /* \"indentity_test_2.sol\":2204:2210  sender */\n      dup6\n        /* \"indentity_test_2.sol\":2212:2225  emergencyFund */\n      0x08\n      0x00\n      swap1\n      sload\n      swap1\n      0x0100\n      exp\n      swap1\n      div\n      0xffffffffffffffffffffffffffffffffffffffff\n      and\n        /* \"indentity_test_2.sol\":2245:2247  12 */\n      0x0c\n        /* \"indentity_test_2.sol\":2240:2241  1 */\n      0x01\n        /* \"indentity_test_2.sol\":2228:2237  taxAmount */\n      dup7\n        /* \"indentity_test_2.sol\":2228:2241  taxAmount * 1 */\n      tag_221\n      swap2\n      swap1\n      tag_156\n      jump\t// in\n    tag_221:\n        /* \"indentity_test_2.sol\":2227:2247  (taxAmount * 1) / 12 */\n      tag_222\n      swap2\n      swap1\n      tag_158\n      jump\t// in\n    tag_222:\n        /* \"indentity_test_2.sol\":2188:2203  super._transfer */\n      tag_135\n        /* \"indentity_test_2.sol\":2188:2248  super._transfer(sender, emergencyFund, (taxAmount * 1) / 12) */\n      jump\t// in\n    tag_220:\n        /* \"indentity_test_2.sol\":2263:2317  TaxDistributed((taxAmount * 1) / 12, \"Emergency Fund\") */\n      0x6e232b0acf46272dacf889af6767574775a324b133d42b3b8cffa9cd13159984\n        /* \"indentity_test_2.sol\":2296:2298  12 */\n      0x0c\n        /* \"indentity_test_2.sol\":2291:2292  1 */\n      0x01\n        /* \"indentity_test_2.sol\":2279:2288  taxAmount */\n      dup5\n        /* \"indentity_test_2.sol\":2279:2292  taxAmount * 1 */\n      tag_223\n      swap2\n      swap1\n      tag_156\n      jump\t// in\n    tag_223:\n        /* \"indentity_test_2.sol\":2278:2298  (taxAmount * 1) / 12 */\n      tag_224\n      swap2\n      swap1\n      tag_158\n      jump\t// in\n    tag_224:\n        /* \"indentity_test_2.sol\":2263:2317  TaxDistributed((taxAmount * 1) / 12, \"Emergency Fund\") */\n      mload(0x40)\n      tag_225\n      swap2\n      swap1\n      tag_226\n      jump\t// in\n    tag_225:\n      mload(0x40)\n      dup1\n      swap2\n      sub\n      swap1\n      log1\n        /* \"indentity_test_2.sol\":2328:2390  super._transfer(sender, marketingWallet, (taxAmount * 4) / 12) */\n      tag_227\n        /* \"indentity_test_2.sol\":2344:2350  sender */\n      dup6\n        /* \"indentity_test_2.sol\":2352:2367  marketingWallet */\n      0x09\n      0x00\n      swap1\n      sload\n      swap1\n      0x0100\n      exp\n      swap1\n      div\n      0xffffffffffffffffffffffffffffffffffffffff\n      and\n        /* \"indentity_test_2.sol\":2387:2389  12 */\n      0x0c\n        /* \"indentity_test_2.sol\":2382:2383  4 */\n      0x04\n        /* \"indentity_test_2.sol\":2370:2379  taxAmount */\n      dup7\n        /* \"indentity_test_2.sol\":2370:2383  taxAmount * 4 */\n      tag_228\n      swap2\n      swap1\n      tag_156\n      jump\t// in\n    tag_228:\n        /* \"indentity_test_2.sol\":2369:2389  (taxAmount * 4) / 12 */\n      tag_229\n      swap2\n      swap1\n      tag_158\n      jump\t// in\n    tag_229:\n        /* \"indentity_test_2.sol\":2328:2343  super._transfer */\n      tag_135\n        /* \"indentity_test_2.sol\":2328:2390  super._transfer(sender, marketingWallet, (taxAmount * 4) / 12) */\n      jump\t// in\n    tag_227:\n        /* \"indentity_test_2.sol\":2405:2454  TaxDistributed((taxAmount * 4) / 12, \"Marketing\") */\n      0x6e232b0acf46272dacf889af6767574775a324b133d42b3b8cffa9cd13159984\n        /* \"indentity_test_2.sol\":2438:2440  12 */\n      0x0c\n        /* \"indentity_test_2.sol\":2433:2434  4 */\n      0x04\n        /* \"indentity_test_2.sol\":2421:2430  taxAmount */\n      dup5\n        /* \"indentity_test_2.sol\":2421:2434  taxAmount * 4 */\n      tag_230\n      swap2\n      swap1\n      tag_156\n      jump\t// in\n    tag_230:\n        /* \"indentity_test_2.sol\":2420:2440  (taxAmount * 4) / 12 */\n      tag_231\n      swap2\n      swap1\n      tag_158\n      jump\t// in\n    tag_231:\n        /* \"indentity_test_2.sol\":2405:2454  TaxDistributed((taxAmount * 4) / 12, \"Marketing\") */\n      mload(0x40)\n      tag_232\n      swap2\n      swap1\n      tag_233\n      jump\t// in\n    tag_232:\n      mload(0x40)\n      dup1\n      swap2\n      sub\n      swap1\n      log1\n        /* \"indentity_test_2.sol\":2465:2525  super._transfer(sender, stakingWallet, (taxAmount * 3) / 12) */\n      tag_234\n        /* \"indentity_test_2.sol\":2481:2487  sender */\n      dup6\n        /* \"indentity_test_2.sol\":2489:2502  stakingWallet */\n      0x0a\n      0x00\n      swap1\n      sload\n      swap1\n      0x0100\n      exp\n      swap1\n      div\n      0xffffffffffffffffffffffffffffffffffffffff\n      and\n        /* \"indentity_test_2.sol\":2522:2524  12 */\n      0x0c\n        /* \"indentity_test_2.sol\":2517:2518  3 */\n      0x03\n        /* \"indentity_test_2.sol\":2505:2514  taxAmount */\n      dup7\n        /* \"indentity_test_2.sol\":2505:2518  taxAmount * 3 */\n      tag_235\n      swap2\n      swap1\n      tag_156\n      jump\t// in\n    tag_235:\n        /* \"indentity_test_2.sol\":2504:2524  (taxAmount * 3) / 12 */\n      tag_236\n      swap2\n      swap1\n      tag_158\n      jump\t// in\n    tag_236:\n        /* \"indentity_test_2.sol\":2465:2480  super._transfer */\n      tag_135\n        /* \"indentity_test_2.sol\":2465:2525  super._transfer(sender, stakingWallet, (taxAmount * 3) / 12) */\n      jump\t// in\n    tag_234:\n        /* \"indentity_test_2.sol\":2540:2587  TaxDistributed((taxAmount * 3) / 12, \"Staking\") */\n      0x6e232b0acf46272dacf889af6767574775a324b133d42b3b8cffa9cd13159984\n        /* \"indentity_test_2.sol\":2573:2575  12 */\n      0x0c\n        /* \"indentity_test_2.sol\":2568:2569  3 */\n      0x03\n        /* \"indentity_test_2.sol\":2556:2565  taxAmount */\n      dup5\n        /* \"indentity_test_2.sol\":2556:2569  taxAmount * 3 */\n      tag_237\n      swap2\n      swap1\n      tag_156\n      jump\t// in\n    tag_237:\n        /* \"indentity_test_2.sol\":2555:2575  (taxAmount * 3) / 12 */\n      tag_238\n      swap2\n      swap1\n      tag_158\n      jump\t// in\n    tag_238:\n        /* \"indentity_test_2.sol\":2540:2587  TaxDistributed((taxAmount * 3) / 12, \"Staking\") */\n      mload(0x40)\n      tag_239\n      swap2\n      swap1\n      tag_240\n      jump\t// in\n    tag_239:\n      mload(0x40)\n      dup1\n      swap2\n      sub\n      swap1\n      log1\n        /* \"indentity_test_2.sol\":2598:2644  super._transfer(sender, recipient, sendAmount) */\n      tag_241\n        /* \"indentity_test_2.sol\":2614:2620  sender */\n      dup6\n        /* \"indentity_test_2.sol\":2622:2631  recipient */\n      dup6\n        /* \"indentity_test_2.sol\":2633:2643  sendAmount */\n      dup4\n        /* \"indentity_test_2.sol\":2598:2613  super._transfer */\n      tag_135\n        /* \"indentity_test_2.sol\":2598:2644  super._transfer(sender, recipient, sendAmount) */\n      jump\t// in\n    tag_241:\n        /* \"indentity_test_2.sol\":1925:2651  {... */\n      pop\n      pop\n        /* \"indentity_test_2.sol\":1807:2651  function _transferWithTaxes(... */\n      pop\n      pop\n      pop\n      jump\t// out\n        /* \"@openzeppelin/contracts/token/ERC20/ERC20.sol\":9701:10133  function _approve(address owner, address spender, uint256 value, bool emitEvent) internal virtual {... */\n    tag_186:\n        /* \"@openzeppelin/contracts/token/ERC20/ERC20.sol\":9830:9831  0 */\n      0x00\n        /* \"@openzeppelin/contracts/token/ERC20/ERC20.sol\":9813:9832  owner == address(0) */\n      0xffffffffffffffffffffffffffffffffffffffff\n      and\n        /* \"@openzeppelin/contracts/token/ERC20/ERC20.sol\":9813:9818  owner */\n      dup5\n        /* \"@openzeppelin/contracts/token/ERC20/ERC20.sol\":9813:9832  owner == address(0) */\n      0xffffffffffffffffffffffffffffffffffffffff\n      and\n      sub\n        /* \"@openzeppelin/contracts/token/ERC20/ERC20.sol\":9809:9898  if (owner == address(0)) {... */\n      tag_243\n      jumpi\n        /* \"@openzeppelin/contracts/token/ERC20/ERC20.sol\":9884:9885  0 */\n      0x00\n        /* \"@openzeppelin/contracts/token/ERC20/ERC20.sol\":9855:9887  ERC20InvalidApprover(address(0)) */\n      mload(0x40)\n      0xe602df0500000000000000000000000000000000000000000000000000000000\n      dup2\n      mstore\n      0x04\n      add\n      tag_244\n      swap2\n      swap1\n      tag_37\n      jump\t// in\n    tag_244:\n      mload(0x40)\n      dup1\n      swap2\n      sub\n      swap1\n      revert\n        /* \"@openzeppelin/contracts/token/ERC20/ERC20.sol\":9809:9898  if (owner == address(0)) {... */\n    tag_243:\n        /* \"@openzeppelin/contracts/token/ERC20/ERC20.sol\":9930:9931  0 */\n      0x00\n        /* \"@openzeppelin/contracts/token/ERC20/ERC20.sol\":9911:9932  spender == address(0) */\n      0xffffffffffffffffffffffffffffffffffffffff\n      and\n        /* \"@openzeppelin/contracts/token/ERC20/ERC20.sol\":9911:9918  spender */\n      dup4\n        /* \"@openzeppelin/contracts/token/ERC20/ERC20.sol\":9911:9932  spender == address(0) */\n      0xffffffffffffffffffffffffffffffffffffffff\n      and\n      sub\n        /* \"@openzeppelin/contracts/token/ERC20/ERC20.sol\":9907:9997  if (spender == address(0)) {... */\n      tag_245\n      jumpi\n        /* \"@openzeppelin/contracts/token/ERC20/ERC20.sol\":9983:9984  0 */\n      0x00\n        /* \"@openzeppelin/contracts/token/ERC20/ERC20.sol\":9955:9986  ERC20InvalidSpender(address(0)) */\n      mload(0x40)\n      0x94280d6200000000000000000000000000000000000000000000000000000000\n      dup2\n      mstore\n      0x04\n      add\n      tag_246\n      swap2\n      swap1\n      tag_37\n      jump\t// in\n    tag_246:\n      mload(0x40)\n      dup1\n      swap2\n      sub\n      swap1\n      revert\n        /* \"@openzeppelin/contracts/token/ERC20/ERC20.sol\":9907:9997  if (spender == address(0)) {... */\n    tag_245:\n        /* \"@openzeppelin/contracts/token/ERC20/ERC20.sol\":10036:10041  value */\n      dup2\n        /* \"@openzeppelin/contracts/token/ERC20/ERC20.sol\":10006:10017  _allowances */\n      0x01\n        /* \"@openzeppelin/contracts/token/ERC20/ERC20.sol\":10006:10024  _allowances[owner] */\n      0x00\n        /* \"@openzeppelin/contracts/token/ERC20/ERC20.sol\":10018:10023  owner */\n      dup7\n        /* \"@openzeppelin/contracts/token/ERC20/ERC20.sol\":10006:10024  _allowances[owner] */\n      0xffffffffffffffffffffffffffffffffffffffff\n      and\n      0xffffffffffffffffffffffffffffffffffffffff\n      and\n      dup2\n      mstore\n      0x20\n      add\n      swap1\n      dup2\n      mstore\n      0x20\n      add\n      0x00\n      keccak256\n        /* \"@openzeppelin/contracts/token/ERC20/ERC20.sol\":10006:10033  _allowances[owner][spender] */\n      0x00\n        /* \"@openzeppelin/contracts/token/ERC20/ERC20.sol\":10025:10032  spender */\n      dup6\n        /* \"@openzeppelin/contracts/token/ERC20/ERC20.sol\":10006:10033  _allowances[owner][spender] */\n      0xffffffffffffffffffffffffffffffffffffffff\n      and\n      0xffffffffffffffffffffffffffffffffffffffff\n      and\n      dup2\n      mstore\n      0x20\n      add\n      swap1\n      dup2\n      mstore\n      0x20\n      add\n      0x00\n      keccak256\n        /* \"@openzeppelin/contracts/token/ERC20/ERC20.sol\":10006:10041  _allowances[owner][spender] = value */\n      dup2\n      swap1\n      sstore\n      pop\n        /* \"@openzeppelin/contracts/token/ERC20/ERC20.sol\":10055:10064  emitEvent */\n      dup1\n        /* \"@openzeppelin/contracts/token/ERC20/ERC20.sol\":10051:10127  if (emitEvent) {... */\n      iszero\n      tag_247\n      jumpi\n        /* \"@openzeppelin/contracts/token/ERC20/ERC20.sol\":10101:10108  spender */\n      dup3\n        /* \"@openzeppelin/contracts/token/ERC20/ERC20.sol\":10085:10116  Approval(owner, spender, value) */\n      0xffffffffffffffffffffffffffffffffffffffff\n      and\n        /* \"@openzeppelin/contracts/token/ERC20/ERC20.sol\":10094:10099  owner */\n      dup5\n        /* \"@openzeppelin/contracts/token/ERC20/ERC20.sol\":10085:10116  Approval(owner, spender, value) */\n      0xffffffffffffffffffffffffffffffffffffffff\n      and\n      0x8c5be1e5ebec7d5bd14f71427d1e84f3dd0314c0f7b2291e5b200ac8c7c3b925\n        /* \"@openzeppelin/contracts/token/ERC20/ERC20.sol\":10110:10115  value */\n      dup5\n        /* \"@openzeppelin/contracts/token/ERC20/ERC20.sol\":10085:10116  Approval(owner, spender, value) */\n      mload(0x40)\n      tag_248\n      swap2\n      swap1\n      tag_33\n      jump\t// in\n    tag_248:\n      mload(0x40)\n      dup1\n      swap2\n      sub\n      swap1\n      log3\n        /* \"@openzeppelin/contracts/token/ERC20/ERC20.sol\":10051:10127  if (emitEvent) {... */\n    tag_247:\n        /* \"@openzeppelin/contracts/token/ERC20/ERC20.sol\":9701:10133  function _approve(address owner, address spender, uint256 value, bool emitEvent) internal virtual {... */\n      pop\n      pop\n      pop\n      pop\n      jump\t// out\n        /* \"@openzeppelin/contracts/token/ERC20/ERC20.sol\":6008:7115  function _update(address from, address to, uint256 value) internal virtual {... */\n    tag_200:\n        /* \"@openzeppelin/contracts/token/ERC20/ERC20.sol\":6113:6114  0 */\n      0x00\n        /* \"@openzeppelin/contracts/token/ERC20/ERC20.sol\":6097:6115  from == address(0) */\n      0xffffffffffffffffffffffffffffffffffffffff\n      and\n        /* \"@openzeppelin/contracts/token/ERC20/ERC20.sol\":6097:6101  from */\n      dup4\n        /* \"@openzeppelin/contracts/token/ERC20/ERC20.sol\":6097:6115  from == address(0) */\n      0xffffffffffffffffffffffffffffffffffffffff\n      and\n      sub\n        /* \"@openzeppelin/contracts/token/ERC20/ERC20.sol\":6093:6633  if (from == address(0)) {... */\n      tag_250\n      jumpi\n        /* \"@openzeppelin/contracts/token/ERC20/ERC20.sol\":6249:6254  value */\n      dup1\n        /* \"@openzeppelin/contracts/token/ERC20/ERC20.sol\":6233:6245  _totalSupply */\n      0x02\n      0x00\n        /* \"@openzeppelin/contracts/token/ERC20/ERC20.sol\":6233:6254  _totalSupply += value */\n      dup3\n      dup3\n      sload\n      tag_251\n      swap2\n      swap1\n      tag_161\n      jump\t// in\n    tag_251:\n      swap3\n      pop\n      pop\n      dup2\n      swap1\n      sstore\n      pop\n        /* \"@openzeppelin/contracts/token/ERC20/ERC20.sol\":6093:6633  if (from == address(0)) {... */\n      jump(tag_252)\n    tag_250:\n        /* \"@openzeppelin/contracts/token/ERC20/ERC20.sol\":6285:6304  uint256 fromBalance */\n      0x00\n        /* \"@openzeppelin/contracts/token/ERC20/ERC20.sol\":6307:6316  _balances */\n      dup1\n        /* \"@openzeppelin/contracts/token/ERC20/ERC20.sol\":6307:6322  _balances[from] */\n      0x00\n        /* \"@openzeppelin/contracts/token/ERC20/ERC20.sol\":6317:6321  from */\n      dup6\n        /* \"@openzeppelin/contracts/token/ERC20/ERC20.sol\":6307:6322  _balances[from] */\n      0xffffffffffffffffffffffffffffffffffffffff\n      and\n      0xffffffffffffffffffffffffffffffffffffffff\n      and\n      dup2\n      mstore\n      0x20\n      add\n      swap1\n      dup2\n      mstore\n      0x20\n      add\n      0x00\n      keccak256\n      sload\n        /* \"@openzeppelin/contracts/token/ERC20/ERC20.sol\":6285:6322  uint256 fromBalance = _balances[from] */\n      swap1\n      pop\n        /* \"@openzeppelin/contracts/token/ERC20/ERC20.sol\":6354:6359  value */\n      dup2\n        /* \"@openzeppelin/contracts/token/ERC20/ERC20.sol\":6340:6351  fromBalance */\n      dup2\n        /* \"@openzeppelin/contracts/token/ERC20/ERC20.sol\":6340:6359  fromBalance < value */\n      lt\n        /* \"@openzeppelin/contracts/token/ERC20/ERC20.sol\":6336:6451  if (fromBalance < value) {... */\n      iszero\n      tag_253\n      jumpi\n        /* \"@openzeppelin/contracts/token/ERC20/ERC20.sol\":6411:6415  from */\n      dup4\n        /* \"@openzeppelin/contracts/token/ERC20/ERC20.sol\":6417:6428  fromBalance */\n      dup2\n        /* \"@openzeppelin/contracts/token/ERC20/ERC20.sol\":6430:6435  value */\n      dup4\n        /* \"@openzeppelin/contracts/token/ERC20/ERC20.sol\":6386:6436  ERC20InsufficientBalance(from, fromBalance, value) */\n      mload(0x40)\n      0xe450d38c00000000000000000000000000000000000000000000000000000000\n      dup2\n      mstore\n      0x04\n      add\n      tag_254\n      swap4\n      swap3\n      swap2\n      swap1\n      tag_192\n      jump\t// in\n    tag_254:\n      mload(0x40)\n      dup1\n      swap2\n      sub\n      swap1\n      revert\n        /* \"@openzeppelin/contracts/token/ERC20/ERC20.sol\":6336:6451  if (fromBalance < value) {... */\n    tag_253:\n        /* \"@openzeppelin/contracts/token/ERC20/ERC20.sol\":6603:6608  value */\n      dup2\n        /* \"@openzeppelin/contracts/token/ERC20/ERC20.sol\":6589:6600  fromBalance */\n      dup2\n        /* \"@openzeppelin/contracts/token/ERC20/ERC20.sol\":6589:6608  fromBalance - value */\n      sub\n        /* \"@openzeppelin/contracts/token/ERC20/ERC20.sol\":6571:6580  _balances */\n      0x00\n        /* \"@openzeppelin/contracts/token/ERC20/ERC20.sol\":6571:6586  _balances[from] */\n      dup1\n        /* \"@openzeppelin/contracts/token/ERC20/ERC20.sol\":6581:6585  from */\n      dup7\n        /* \"@openzeppelin/contracts/token/ERC20/ERC20.sol\":6571:6586  _balances[from] */\n      0xffffffffffffffffffffffffffffffffffffffff\n      and\n      0xffffffffffffffffffffffffffffffffffffffff\n      and\n      dup2\n      mstore\n      0x20\n      add\n      swap1\n      dup2\n      mstore\n      0x20\n      add\n      0x00\n      keccak256\n        /* \"@openzeppelin/contracts/token/ERC20/ERC20.sol\":6571:6608  _balances[from] = fromBalance - value */\n      dup2\n      swap1\n      sstore\n      pop\n        /* \"@openzeppelin/contracts/token/ERC20/ERC20.sol\":6271:6633  {... */\n      pop\n        /* \"@openzeppelin/contracts/token/ERC20/ERC20.sol\":6093:6633  if (from == address(0)) {... */\n    tag_252:\n        /* \"@openzeppelin/contracts/token/ERC20/ERC20.sol\":6661:6662  0 */\n      0x00\n        /* \"@openzeppelin/contracts/token/ERC20/ERC20.sol\":6647:6663  to == address(0) */\n      0xffffffffffffffffffffffffffffffffffffffff\n      and\n        /* \"@openzeppelin/contracts/token/ERC20/ERC20.sol\":6647:6649  to */\n      dup3\n        /* \"@openzeppelin/contracts/token/ERC20/ERC20.sol\":6647:6663  to == address(0) */\n      0xffffffffffffffffffffffffffffffffffffffff\n      and\n      sub\n        /* \"@openzeppelin/contracts/token/ERC20/ERC20.sol\":6643:7068  if (to == address(0)) {... */\n      tag_255\n      jumpi\n        /* \"@openzeppelin/contracts/token/ERC20/ERC20.sol\":6826:6831  value */\n      dup1\n        /* \"@openzeppelin/contracts/token/ERC20/ERC20.sol\":6810:6822  _totalSupply */\n      0x02\n      0x00\n        /* \"@openzeppelin/contracts/token/ERC20/ERC20.sol\":6810:6831  _totalSupply -= value */\n      dup3\n      dup3\n      sload\n      sub\n      swap3\n      pop\n      pop\n      dup2\n      swap1\n      sstore\n      pop\n        /* \"@openzeppelin/contracts/token/ERC20/ERC20.sol\":6643:7068  if (to == address(0)) {... */\n      jump(tag_256)\n    tag_255:\n        /* \"@openzeppelin/contracts/token/ERC20/ERC20.sol\":7038:7043  value */\n      dup1\n        /* \"@openzeppelin/contracts/token/ERC20/ERC20.sol\":7021:7030  _balances */\n      0x00\n        /* \"@openzeppelin/contracts/token/ERC20/ERC20.sol\":7021:7034  _balances[to] */\n      dup1\n        /* \"@openzeppelin/contracts/token/ERC20/ERC20.sol\":7031:7033  to */\n      dup5\n        /* \"@openzeppelin/contracts/token/ERC20/ERC20.sol\":7021:7034  _balances[to] */\n      0xffffffffffffffffffffffffffffffffffffffff\n      and\n      0xffffffffffffffffffffffffffffffffffffffff\n      and\n      dup2\n      mstore\n      0x20\n      add\n      swap1\n      dup2\n      mstore\n      0x20\n      add\n      0x00\n      keccak256\n      0x00\n        /* \"@openzeppelin/contracts/token/ERC20/ERC20.sol\":7021:7043  _balances[to] += value */\n      dup3\n      dup3\n      sload\n      add\n      swap3\n      pop\n      pop\n      dup2\n      swap1\n      sstore\n      pop\n        /* \"@openzeppelin/contracts/token/ERC20/ERC20.sol\":6643:7068  if (to == address(0)) {... */\n    tag_256:\n        /* \"@openzeppelin/contracts/token/ERC20/ERC20.sol\":7098:7100  to */\n      dup2\n        /* \"@openzeppelin/contracts/token/ERC20/ERC20.sol\":7083:7108  Transfer(from, to, value) */\n      0xffffffffffffffffffffffffffffffffffffffff\n      and\n        /* \"@openzeppelin/contracts/token/ERC20/ERC20.sol\":7092:7096  from */\n      dup4\n        /* \"@openzeppelin/contracts/token/ERC20/ERC20.sol\":7083:7108  Transfer(from, to, value) */\n      0xffffffffffffffffffffffffffffffffffffffff\n      and\n      0xddf252ad1be2c89b69c2b068fc378daa952ba7f163c4a11628f55a4df523b3ef\n        /* \"@openzeppelin/contracts/token/ERC20/ERC20.sol\":7102:7107  value */\n      dup4\n        /* \"@openzeppelin/contracts/token/ERC20/ERC20.sol\":7083:7108  Transfer(from, to, value) */\n      mload(0x40)\n      tag_257\n      swap2\n      swap1\n      tag_33\n      jump\t// in\n    tag_257:\n      mload(0x40)\n      dup1\n      swap2\n      sub\n      swap1\n      log3\n        /* \"@openzeppelin/contracts/token/ERC20/ERC20.sol\":6008:7115  function _update(address from, address to, uint256 value) internal virtual {... */\n      pop\n      pop\n      pop\n      jump\t// out\n        /* \"#utility.yul\":7:84   */\n    tag_258:\n        /* \"#utility.yul\":44:51   */\n      0x00\n        /* \"#utility.yul\":73:78   */\n      dup2\n        /* \"#utility.yul\":62:78   */\n      swap1\n      pop\n        /* \"#utility.yul\":7:84   */\n      swap2\n      swap1\n      pop\n      jump\t// out\n        /* \"#utility.yul\":90:208   */\n    tag_259:\n        /* \"#utility.yul\":177:201   */\n      tag_299\n        /* \"#utility.yul\":195:200   */\n      dup2\n        /* \"#utility.yul\":177:201   */\n      tag_258\n      jump\t// in\n    tag_299:\n        /* \"#utility.yul\":172:175   */\n      dup3\n        /* \"#utility.yul\":165:202   */\n      mstore\n        /* \"#utility.yul\":90:208   */\n      pop\n      pop\n      jump\t// out\n        /* \"#utility.yul\":214:436   */\n    tag_33:\n        /* \"#utility.yul\":307:311   */\n      0x00\n        /* \"#utility.yul\":345:347   */\n      0x20\n        /* \"#utility.yul\":334:343   */\n      dup3\n        /* \"#utility.yul\":330:348   */\n      add\n        /* \"#utility.yul\":322:348   */\n      swap1\n      pop\n        /* \"#utility.yul\":358:429   */\n      tag_301\n        /* \"#utility.yul\":426:427   */\n      0x00\n        /* \"#utility.yul\":415:424   */\n      dup4\n        /* \"#utility.yul\":411:428   */\n      add\n        /* \"#utility.yul\":402:408   */\n      dup5\n        /* \"#utility.yul\":358:429   */\n      tag_259\n      jump\t// in\n    tag_301:\n        /* \"#utility.yul\":214:436   */\n      swap3\n      swap2\n      pop\n      pop\n      jump\t// out\n        /* \"#utility.yul\":442:568   */\n    tag_260:\n        /* \"#utility.yul\":479:486   */\n      0x00\n        /* \"#utility.yul\":519:561   */\n      0xffffffffffffffffffffffffffffffffffffffff\n        /* \"#utility.yul\":512:517   */\n      dup3\n        /* \"#utility.yul\":508:562   */\n      and\n        /* \"#utility.yul\":497:562   */\n      swap1\n      pop\n        /* \"#utility.yul\":442:568   */\n      swap2\n      swap1\n      pop\n      jump\t// out\n        /* \"#utility.yul\":574:670   */\n    tag_261:\n        /* \"#utility.yul\":611:618   */\n      0x00\n        /* \"#utility.yul\":640:664   */\n      tag_304\n        /* \"#utility.yul\":658:663   */\n      dup3\n        /* \"#utility.yul\":640:664   */\n      tag_260\n      jump\t// in\n    tag_304:\n        /* \"#utility.yul\":629:664   */\n      swap1\n      pop\n        /* \"#utility.yul\":574:670   */\n      swap2\n      swap1\n      pop\n      jump\t// out\n        /* \"#utility.yul\":676:794   */\n    tag_262:\n        /* \"#utility.yul\":763:787   */\n      tag_306\n        /* \"#utility.yul\":781:786   */\n      dup2\n        /* \"#utility.yul\":763:787   */\n      tag_261\n      jump\t// in\n    tag_306:\n        /* \"#utility.yul\":758:761   */\n      dup3\n        /* \"#utility.yul\":751:788   */\n      mstore\n        /* \"#utility.yul\":676:794   */\n      pop\n      pop\n      jump\t// out\n        /* \"#utility.yul\":800:1022   */\n    tag_37:\n        /* \"#utility.yul\":893:897   */\n      0x00\n        /* \"#utility.yul\":931:933   */\n      0x20\n        /* \"#utility.yul\":920:929   */\n      dup3\n        /* \"#utility.yul\":916:934   */\n      add\n        /* \"#utility.yul\":908:934   */\n      swap1\n      pop\n        /* \"#utility.yul\":944:1015   */\n      tag_308\n        /* \"#utility.yul\":1012:1013   */\n      0x00\n        /* \"#utility.yul\":1001:1010   */\n      dup4\n        /* \"#utility.yul\":997:1014   */\n      add\n        /* \"#utility.yul\":988:994   */\n      dup5\n        /* \"#utility.yul\":944:1015   */\n      tag_262\n      jump\t// in\n    tag_308:\n        /* \"#utility.yul\":800:1022   */\n      swap3\n      swap2\n      pop\n      pop\n      jump\t// out\n        /* \"#utility.yul\":1028:1127   */\n    tag_263:\n        /* \"#utility.yul\":1080:1086   */\n      0x00\n        /* \"#utility.yul\":1114:1119   */\n      dup2\n        /* \"#utility.yul\":1108:1120   */\n      mload\n        /* \"#utility.yul\":1098:1120   */\n      swap1\n      pop\n        /* \"#utility.yul\":1028:1127   */\n      swap2\n      swap1\n      pop\n      jump\t// out\n        /* \"#utility.yul\":1133:1302   */\n    tag_264:\n        /* \"#utility.yul\":1217:1228   */\n      0x00\n        /* \"#utility.yul\":1251:1257   */\n      dup3\n        /* \"#utility.yul\":1246:1249   */\n      dup3\n        /* \"#utility.yul\":1239:1258   */\n      mstore\n        /* \"#utility.yul\":1291:1295   */\n      0x20\n        /* \"#utility.yul\":1286:1289   */\n      dup3\n        /* \"#utility.yul\":1282:1296   */\n      add\n        /* \"#utility.yul\":1267:1296   */\n      swap1\n      pop\n        /* \"#utility.yul\":1133:1302   */\n      swap3\n      swap2\n      pop\n      pop\n      jump\t// out\n        /* \"#utility.yul\":1308:1447   */\n    tag_265:\n        /* \"#utility.yul\":1397:1403   */\n      dup3\n        /* \"#utility.yul\":1392:1395   */\n      dup2\n        /* \"#utility.yul\":1387:1390   */\n      dup4\n        /* \"#utility.yul\":1381:1404   */\n      mcopy\n        /* \"#utility.yul\":1438:1439   */\n      0x00\n        /* \"#utility.yul\":1429:1435   */\n      dup4\n        /* \"#utility.yul\":1424:1427   */\n      dup4\n        /* \"#utility.yul\":1420:1436   */\n      add\n        /* \"#utility.yul\":1413:1440   */\n      mstore\n        /* \"#utility.yul\":1308:1447   */\n      pop\n      pop\n      pop\n      jump\t// out\n        /* \"#utility.yul\":1453:1555   */\n    tag_266:\n        /* \"#utility.yul\":1494:1500   */\n      0x00\n        /* \"#utility.yul\":1545:1547   */\n      0x1f\n        /* \"#utility.yul\":1541:1548   */\n      not\n        /* \"#utility.yul\":1536:1538   */\n      0x1f\n        /* \"#utility.yul\":1529:1534   */\n      dup4\n        /* \"#utility.yul\":1525:1539   */\n      add\n        /* \"#utility.yul\":1521:1549   */\n      and\n        /* \"#utility.yul\":1511:1549   */\n      swap1\n      pop\n        /* \"#utility.yul\":1453:1555   */\n      swap2\n      swap1\n      pop\n      jump\t// out\n        /* \"#utility.yul\":1561:1938   */\n    tag_267:\n        /* \"#utility.yul\":1649:1652   */\n      0x00\n        /* \"#utility.yul\":1677:1716   */\n      tag_314\n        /* \"#utility.yul\":1710:1715   */\n      dup3\n        /* \"#utility.yul\":1677:1716   */\n      tag_263\n      jump\t// in\n    tag_314:\n        /* \"#utility.yul\":1732:1803   */\n      tag_315\n        /* \"#utility.yul\":1796:1802   */\n      dup2\n        /* \"#utility.yul\":1791:1794   */\n      dup6\n        /* \"#utility.yul\":1732:1803   */\n      tag_264\n      jump\t// in\n    tag_315:\n        /* \"#utility.yul\":1725:1803   */\n      swap4\n      pop\n        /* \"#utility.yul\":1812:1877   */\n      tag_316\n        /* \"#utility.yul\":1870:1876   */\n      dup2\n        /* \"#utility.yul\":1865:1868   */\n      dup6\n        /* \"#utility.yul\":1858:1862   */\n      0x20\n        /* \"#utility.yul\":1851:1856   */\n      dup7\n        /* \"#utility.yul\":1847:1863   */\n      add\n        /* \"#utility.yul\":1812:1877   */\n      tag_265\n      jump\t// in\n    tag_316:\n        /* \"#utility.yul\":1902:1931   */\n      tag_317\n        /* \"#utility.yul\":1924:1930   */\n      dup2\n        /* \"#utility.yul\":1902:1931   */\n      tag_266\n      jump\t// in\n    tag_317:\n        /* \"#utility.yul\":1897:1900   */\n      dup5\n        /* \"#utility.yul\":1893:1932   */\n      add\n        /* \"#utility.yul\":1886:1932   */\n      swap2\n      pop\n        /* \"#utility.yul\":1653:1938   */\n      pop\n        /* \"#utility.yul\":1561:1938   */\n      swap3\n      swap2\n      pop\n      pop\n      jump\t// out\n        /* \"#utility.yul\":1944:2257   */\n    tag_41:\n        /* \"#utility.yul\":2057:2061   */\n      0x00\n        /* \"#utility.yul\":2095:2097   */\n      0x20\n        /* \"#utility.yul\":2084:2093   */\n      dup3\n        /* \"#utility.yul\":2080:2098   */\n      add\n        /* \"#utility.yul\":2072:2098   */\n      swap1\n      pop\n        /* \"#utility.yul\":2144:2153   */\n      dup2\n        /* \"#utility.yul\":2138:2142   */\n      dup2\n        /* \"#utility.yul\":2134:2154   */\n      sub\n        /* \"#utility.yul\":2130:2131   */\n      0x00\n        /* \"#utility.yul\":2119:2128   */\n      dup4\n        /* \"#utility.yul\":2115:2132   */\n      add\n        /* \"#utility.yul\":2108:2155   */\n      mstore\n        /* \"#utility.yul\":2172:2250   */\n      tag_319\n        /* \"#utility.yul\":2245:2249   */\n      dup2\n        /* \"#utility.yul\":2236:2242   */\n      dup5\n        /* \"#utility.yul\":2172:2250   */\n      tag_267\n      jump\t// in\n    tag_319:\n        /* \"#utility.yul\":2164:2250   */\n      swap1\n      pop\n        /* \"#utility.yul\":1944:2257   */\n      swap3\n      swap2\n      pop\n      pop\n      jump\t// out\n        /* \"#utility.yul\":2344:2461   */\n    tag_269:\n        /* \"#utility.yul\":2453:2454   */\n      0x00\n        /* \"#utility.yul\":2450:2451   */\n      dup1\n        /* \"#utility.yul\":2443:2455   */\n      revert\n        /* \"#utility.yul\":2590:2712   */\n    tag_271:\n        /* \"#utility.yul\":2663:2687   */\n      tag_324\n        /* \"#utility.yul\":2681:2686   */\n      dup2\n        /* \"#utility.yul\":2663:2687   */\n      tag_261\n      jump\t// in\n    tag_324:\n        /* \"#utility.yul\":2656:2661   */\n      dup2\n        /* \"#utility.yul\":2653:2688   */\n      eq\n        /* \"#utility.yul\":2643:2706   */\n      tag_325\n      jumpi\n        /* \"#utility.yul\":2702:2703   */\n      0x00\n        /* \"#utility.yul\":2699:2700   */\n      dup1\n        /* \"#utility.yul\":2692:2704   */\n      revert\n        /* \"#utility.yul\":2643:2706   */\n    tag_325:\n        /* \"#utility.yul\":2590:2712   */\n      pop\n      jump\t// out\n        /* \"#utility.yul\":2718:2857   */\n    tag_272:\n        /* \"#utility.yul\":2764:2769   */\n      0x00\n        /* \"#utility.yul\":2802:2808   */\n      dup2\n        /* \"#utility.yul\":2789:2809   */\n      calldataload\n        /* \"#utility.yul\":2780:2809   */\n      swap1\n      pop\n        /* \"#utility.yul\":2818:2851   */\n      tag_327\n        /* \"#utility.yul\":2845:2850   */\n      dup2\n        /* \"#utility.yul\":2818:2851   */\n      tag_271\n      jump\t// in\n    tag_327:\n        /* \"#utility.yul\":2718:2857   */\n      swap3\n      swap2\n      pop\n      pop\n      jump\t// out\n        /* \"#utility.yul\":2863:2985   */\n    tag_273:\n        /* \"#utility.yul\":2936:2960   */\n      tag_329\n        /* \"#utility.yul\":2954:2959   */\n      dup2\n        /* \"#utility.yul\":2936:2960   */\n      tag_258\n      jump\t// in\n    tag_329:\n        /* \"#utility.yul\":2929:2934   */\n      dup2\n        /* \"#utility.yul\":2926:2961   */\n      eq\n        /* \"#utility.yul\":2916:2979   */\n      tag_330\n      jumpi\n        /* \"#utility.yul\":2975:2976   */\n      0x00\n        /* \"#utility.yul\":2972:2973   */\n      dup1\n        /* \"#utility.yul\":2965:2977   */\n      revert\n        /* \"#utility.yul\":2916:2979   */\n    tag_330:\n        /* \"#utility.yul\":2863:2985   */\n      pop\n      jump\t// out\n        /* \"#utility.yul\":2991:3130   */\n    tag_274:\n        /* \"#utility.yul\":3037:3042   */\n      0x00\n        /* \"#utility.yul\":3075:3081   */\n      dup2\n        /* \"#utility.yul\":3062:3082   */\n      calldataload\n        /* \"#utility.yul\":3053:3082   */\n      swap1\n      pop\n        /* \"#utility.yul\":3091:3124   */\n      tag_332\n        /* \"#utility.yul\":3118:3123   */\n      dup2\n        /* \"#utility.yul\":3091:3124   */\n      tag_273\n      jump\t// in\n    tag_332:\n        /* \"#utility.yul\":2991:3130   */\n      swap3\n      swap2\n      pop\n      pop\n      jump\t// out\n        /* \"#utility.yul\":3136:3610   */\n    tag_44:\n        /* \"#utility.yul\":3204:3210   */\n      0x00\n        /* \"#utility.yul\":3212:3218   */\n      dup1\n        /* \"#utility.yul\":3261:3263   */\n      0x40\n        /* \"#utility.yul\":3249:3258   */\n      dup4\n        /* \"#utility.yul\":3240:3247   */\n      dup6\n        /* \"#utility.yul\":3236:3259   */\n      sub\n        /* \"#utility.yul\":3232:3264   */\n      slt\n        /* \"#utility.yul\":3229:3348   */\n      iszero\n      tag_334\n      jumpi\n        /* \"#utility.yul\":3267:3346   */\n      tag_335\n      tag_269\n      jump\t// in\n    tag_335:\n        /* \"#utility.yul\":3229:3348   */\n    tag_334:\n        /* \"#utility.yul\":3387:3388   */\n      0x00\n        /* \"#utility.yul\":3412:3465   */\n      tag_336\n        /* \"#utility.yul\":3457:3464   */\n      dup6\n        /* \"#utility.yul\":3448:3454   */\n      dup3\n        /* \"#utility.yul\":3437:3446   */\n      dup7\n        /* \"#utility.yul\":3433:3455   */\n      add\n        /* \"#utility.yul\":3412:3465   */\n      tag_272\n      jump\t// in\n    tag_336:\n        /* \"#utility.yul\":3402:3465   */\n      swap3\n      pop\n        /* \"#utility.yul\":3358:3475   */\n      pop\n        /* \"#utility.yul\":3514:3516   */\n      0x20\n        /* \"#utility.yul\":3540:3593   */\n      tag_337\n        /* \"#utility.yul\":3585:3592   */\n      dup6\n        /* \"#utility.yul\":3576:3582   */\n      dup3\n        /* \"#utility.yul\":3565:3574   */\n      dup7\n        /* \"#utility.yul\":3561:3583   */\n      add\n        /* \"#utility.yul\":3540:3593   */\n      tag_274\n      jump\t// in\n    tag_337:\n        /* \"#utility.yul\":3530:3593   */\n      swap2\n      pop\n        /* \"#utility.yul\":3485:3603   */\n      pop\n        /* \"#utility.yul\":3136:3610   */\n      swap3\n      pop\n      swap3\n      swap1\n      pop\n      jump\t// out\n        /* \"#utility.yul\":3616:3706   */\n    tag_275:\n        /* \"#utility.yul\":3650:3657   */\n      0x00\n        /* \"#utility.yul\":3693:3698   */\n      dup2\n        /* \"#utility.yul\":3686:3699   */\n      iszero\n        /* \"#utility.yul\":3679:3700   */\n      iszero\n        /* \"#utility.yul\":3668:3700   */\n      swap1\n      pop\n        /* \"#utility.yul\":3616:3706   */\n      swap2\n      swap1\n      pop\n      jump\t// out\n        /* \"#utility.yul\":3712:3821   */\n    tag_276:\n        /* \"#utility.yul\":3793:3814   */\n      tag_340\n        /* \"#utility.yul\":3808:3813   */\n      dup2\n        /* \"#utility.yul\":3793:3814   */\n      tag_275\n      jump\t// in\n    tag_340:\n        /* \"#utility.yul\":3788:3791   */\n      dup3\n        /* \"#utility.yul\":3781:3815   */\n      mstore\n        /* \"#utility.yul\":3712:3821   */\n      pop\n      pop\n      jump\t// out\n        /* \"#utility.yul\":3827:4037   */\n    tag_47:\n        /* \"#utility.yul\":3914:3918   */\n      0x00\n        /* \"#utility.yul\":3952:3954   */\n      0x20\n        /* \"#utility.yul\":3941:3950   */\n      dup3\n        /* \"#utility.yul\":3937:3955   */\n      add\n        /* \"#utility.yul\":3929:3955   */\n      swap1\n      pop\n        /* \"#utility.yul\":3965:4030   */\n      tag_342\n        /* \"#utility.yul\":4027:4028   */\n      0x00\n        /* \"#utility.yul\":4016:4025   */\n      dup4\n        /* \"#utility.yul\":4012:4029   */\n      add\n        /* \"#utility.yul\":4003:4009   */\n      dup5\n        /* \"#utility.yul\":3965:4030   */\n      tag_276\n      jump\t// in\n    tag_342:\n        /* \"#utility.yul\":3827:4037   */\n      swap3\n      swap2\n      pop\n      pop\n      jump\t// out\n        /* \"#utility.yul\":4043:4662   */\n    tag_53:\n        /* \"#utility.yul\":4120:4126   */\n      0x00\n        /* \"#utility.yul\":4128:4134   */\n      dup1\n        /* \"#utility.yul\":4136:4142   */\n      0x00\n        /* \"#utility.yul\":4185:4187   */\n      0x60\n        /* \"#utility.yul\":4173:4182   */\n      dup5\n        /* \"#utility.yul\":4164:4171   */\n      dup7\n        /* \"#utility.yul\":4160:4183   */\n      sub\n        /* \"#utility.yul\":4156:4188   */\n      slt\n        /* \"#utility.yul\":4153:4272   */\n      iszero\n      tag_344\n      jumpi\n        /* \"#utility.yul\":4191:4270   */\n      tag_345\n      tag_269\n      jump\t// in\n    tag_345:\n        /* \"#utility.yul\":4153:4272   */\n    tag_344:\n        /* \"#utility.yul\":4311:4312   */\n      0x00\n        /* \"#utility.yul\":4336:4389   */\n      tag_346\n        /* \"#utility.yul\":4381:4388   */\n      dup7\n        /* \"#utility.yul\":4372:4378   */\n      dup3\n        /* \"#utility.yul\":4361:4370   */\n      dup8\n        /* \"#utility.yul\":4357:4379   */\n      add\n        /* \"#utility.yul\":4336:4389   */\n      tag_272\n      jump\t// in\n    tag_346:\n        /* \"#utility.yul\":4326:4389   */\n      swap4\n      pop\n        /* \"#utility.yul\":4282:4399   */\n      pop\n        /* \"#utility.yul\":4438:4440   */\n      0x20\n        /* \"#utility.yul\":4464:4517   */\n      tag_347\n        /* \"#utility.yul\":4509:4516   */\n      dup7\n        /* \"#utility.yul\":4500:4506   */\n      dup3\n        /* \"#utility.yul\":4489:4498   */\n      dup8\n        /* \"#utility.yul\":4485:4507   */\n      add\n        /* \"#utility.yul\":4464:4517   */\n      tag_272\n      jump\t// in\n    tag_347:\n        /* \"#utility.yul\":4454:4517   */\n      swap3\n      pop\n        /* \"#utility.yul\":4409:4527   */\n      pop\n        /* \"#utility.yul\":4566:4568   */\n      0x40\n        /* \"#utility.yul\":4592:4645   */\n      tag_348\n        /* \"#utility.yul\":4637:4644   */\n      dup7\n        /* \"#utility.yul\":4628:4634   */\n      dup3\n        /* \"#utility.yul\":4617:4626   */\n      dup8\n        /* \"#utility.yul\":4613:4635   */\n      add\n        /* \"#utility.yul\":4592:4645   */\n      tag_274\n      jump\t// in\n    tag_348:\n        /* \"#utility.yul\":4582:4645   */\n      swap2\n      pop\n        /* \"#utility.yul\":4537:4655   */\n      pop\n        /* \"#utility.yul\":4043:4662   */\n      swap3\n      pop\n      swap3\n      pop\n      swap3\n      jump\t// out\n        /* \"#utility.yul\":4668:4754   */\n    tag_277:\n        /* \"#utility.yul\":4703:4710   */\n      0x00\n        /* \"#utility.yul\":4743:4747   */\n      0xff\n        /* \"#utility.yul\":4736:4741   */\n      dup3\n        /* \"#utility.yul\":4732:4748   */\n      and\n        /* \"#utility.yul\":4721:4748   */\n      swap1\n      pop\n        /* \"#utility.yul\":4668:4754   */\n      swap2\n      swap1\n      pop\n      jump\t// out\n        /* \"#utility.yul\":4760:4872   */\n    tag_278:\n        /* \"#utility.yul\":4843:4865   */\n      tag_351\n        /* \"#utility.yul\":4859:4864   */\n      dup2\n        /* \"#utility.yul\":4843:4865   */\n      tag_277\n      jump\t// in\n    tag_351:\n        /* \"#utility.yul\":4838:4841   */\n      dup3\n        /* \"#utility.yul\":4831:4866   */\n      mstore\n        /* \"#utility.yul\":4760:4872   */\n      pop\n      pop\n      jump\t// out\n        /* \"#utility.yul\":4878:5092   */\n    tag_62:\n        /* \"#utility.yul\":4967:4971   */\n      0x00\n        /* \"#utility.yul\":5005:5007   */\n      0x20\n        /* \"#utility.yul\":4994:5003   */\n      dup3\n        /* \"#utility.yul\":4990:5008   */\n      add\n        /* \"#utility.yul\":4982:5008   */\n      swap1\n      pop\n        /* \"#utility.yul\":5018:5085   */\n      tag_353\n        /* \"#utility.yul\":5082:5083   */\n      0x00\n        /* \"#utility.yul\":5071:5080   */\n      dup4\n        /* \"#utility.yul\":5067:5084   */\n      add\n        /* \"#utility.yul\":5058:5064   */\n      dup5\n        /* \"#utility.yul\":5018:5085   */\n      tag_278\n      jump\t// in\n    tag_353:\n        /* \"#utility.yul\":4878:5092   */\n      swap3\n      swap2\n      pop\n      pop\n      jump\t// out\n        /* \"#utility.yul\":5098:5427   */\n    tag_68:\n        /* \"#utility.yul\":5157:5163   */\n      0x00\n        /* \"#utility.yul\":5206:5208   */\n      0x20\n        /* \"#utility.yul\":5194:5203   */\n      dup3\n        /* \"#utility.yul\":5185:5192   */\n      dup5\n        /* \"#utility.yul\":5181:5204   */\n      sub\n        /* \"#utility.yul\":5177:5209   */\n      slt\n        /* \"#utility.yul\":5174:5293   */\n      iszero\n      tag_355\n      jumpi\n        /* \"#utility.yul\":5212:5291   */\n      tag_356\n      tag_269\n      jump\t// in\n    tag_356:\n        /* \"#utility.yul\":5174:5293   */\n    tag_355:\n        /* \"#utility.yul\":5332:5333   */\n      0x00\n        /* \"#utility.yul\":5357:5410   */\n      tag_357\n        /* \"#utility.yul\":5402:5409   */\n      dup5\n        /* \"#utility.yul\":5393:5399   */\n      dup3\n        /* \"#utility.yul\":5382:5391   */\n      dup6\n        /* \"#utility.yul\":5378:5400   */\n      add\n        /* \"#utility.yul\":5357:5410   */\n      tag_272\n      jump\t// in\n    tag_357:\n        /* \"#utility.yul\":5347:5410   */\n      swap2\n      pop\n        /* \"#utility.yul\":5303:5420   */\n      pop\n        /* \"#utility.yul\":5098:5427   */\n      swap3\n      swap2\n      pop\n      pop\n      jump\t// out\n        /* \"#utility.yul\":5433:5549   */\n    tag_279:\n        /* \"#utility.yul\":5503:5524   */\n      tag_359\n        /* \"#utility.yul\":5518:5523   */\n      dup2\n        /* \"#utility.yul\":5503:5524   */\n      tag_275\n      jump\t// in\n    tag_359:\n        /* \"#utility.yul\":5496:5501   */\n      dup2\n        /* \"#utility.yul\":5493:5525   */\n      eq\n        /* \"#utility.yul\":5483:5543   */\n      tag_360\n      jumpi\n        /* \"#utility.yul\":5539:5540   */\n      0x00\n        /* \"#utility.yul\":5536:5537   */\n      dup1\n        /* \"#utility.yul\":5529:5541   */\n      revert\n        /* \"#utility.yul\":5483:5543   */\n    tag_360:\n        /* \"#utility.yul\":5433:5549   */\n      pop\n      jump\t// out\n        /* \"#utility.yul\":5555:5688   */\n    tag_280:\n        /* \"#utility.yul\":5598:5603   */\n      0x00\n        /* \"#utility.yul\":5636:5642   */\n      dup2\n        /* \"#utility.yul\":5623:5643   */\n      calldataload\n        /* \"#utility.yul\":5614:5643   */\n      swap1\n      pop\n        /* \"#utility.yul\":5652:5682   */\n      tag_362\n        /* \"#utility.yul\":5676:5681   */\n      dup2\n        /* \"#utility.yul\":5652:5682   */\n      tag_279\n      jump\t// in\n    tag_362:\n        /* \"#utility.yul\":5555:5688   */\n      swap3\n      swap2\n      pop\n      pop\n      jump\t// out\n        /* \"#utility.yul\":5694:6162   */\n    tag_85:\n        /* \"#utility.yul\":5759:5765   */\n      0x00\n        /* \"#utility.yul\":5767:5773   */\n      dup1\n        /* \"#utility.yul\":5816:5818   */\n      0x40\n        /* \"#utility.yul\":5804:5813   */\n      dup4\n        /* \"#utility.yul\":5795:5802   */\n      dup6\n        /* \"#utility.yul\":5791:5814   */\n      sub\n        /* \"#utility.yul\":5787:5819   */\n      slt\n        /* \"#utility.yul\":5784:5903   */\n      iszero\n      tag_364\n      jumpi\n        /* \"#utility.yul\":5822:5901   */\n      tag_365\n      tag_269\n      jump\t// in\n    tag_365:\n        /* \"#utility.yul\":5784:5903   */\n    tag_364:\n        /* \"#utility.yul\":5942:5943   */\n      0x00\n        /* \"#utility.yul\":5967:6020   */\n      tag_366\n        /* \"#utility.yul\":6012:6019   */\n      dup6\n        /* \"#utility.yul\":6003:6009   */\n      dup3\n        /* \"#utility.yul\":5992:6001   */\n      dup7\n        /* \"#utility.yul\":5988:6010   */\n      add\n        /* \"#utility.yul\":5967:6020   */\n      tag_272\n      jump\t// in\n    tag_366:\n        /* \"#utility.yul\":5957:6020   */\n      swap3\n      pop\n        /* \"#utility.yul\":5913:6030   */\n      pop\n        /* \"#utility.yul\":6069:6071   */\n      0x20\n        /* \"#utility.yul\":6095:6145   */\n      tag_367\n        /* \"#utility.yul\":6137:6144   */\n      dup6\n        /* \"#utility.yul\":6128:6134   */\n      dup3\n        /* \"#utility.yul\":6117:6126   */\n      dup7\n        /* \"#utility.yul\":6113:6135   */\n      add\n        /* \"#utility.yul\":6095:6145   */\n      tag_280\n      jump\t// in\n    tag_367:\n        /* \"#utility.yul\":6085:6145   */\n      swap2\n      pop\n        /* \"#utility.yul\":6040:6155   */\n      pop\n        /* \"#utility.yul\":5694:6162   */\n      swap3\n      pop\n      swap3\n      swap1\n      pop\n      jump\t// out\n        /* \"#utility.yul\":6168:6642   */\n    tag_105:\n        /* \"#utility.yul\":6236:6242   */\n      0x00\n        /* \"#utility.yul\":6244:6250   */\n      dup1\n        /* \"#utility.yul\":6293:6295   */\n      0x40\n        /* \"#utility.yul\":6281:6290   */\n      dup4\n        /* \"#utility.yul\":6272:6279   */\n      dup6\n        /* \"#utility.yul\":6268:6291   */\n      sub\n        /* \"#utility.yul\":6264:6296   */\n      slt\n        /* \"#utility.yul\":6261:6380   */\n      iszero\n      tag_369\n      jumpi\n        /* \"#utility.yul\":6299:6378   */\n      tag_370\n      tag_269\n      jump\t// in\n    tag_370:\n        /* \"#utility.yul\":6261:6380   */\n    tag_369:\n        /* \"#utility.yul\":6419:6420   */\n      0x00\n        /* \"#utility.yul\":6444:6497   */\n      tag_371\n        /* \"#utility.yul\":6489:6496   */\n      dup6\n        /* \"#utility.yul\":6480:6486   */\n      dup3\n        /* \"#utility.yul\":6469:6478   */\n      dup7\n        /* \"#utility.yul\":6465:6487   */\n      add\n        /* \"#utility.yul\":6444:6497   */\n      tag_272\n      jump\t// in\n    tag_371:\n        /* \"#utility.yul\":6434:6497   */\n      swap3\n      pop\n        /* \"#utility.yul\":6390:6507   */\n      pop\n        /* \"#utility.yul\":6546:6548   */\n      0x20\n        /* \"#utility.yul\":6572:6625   */\n      tag_372\n        /* \"#utility.yul\":6617:6624   */\n      dup6\n        /* \"#utility.yul\":6608:6614   */\n      dup3\n        /* \"#utility.yul\":6597:6606   */\n      dup7\n        /* \"#utility.yul\":6593:6615   */\n      add\n        /* \"#utility.yul\":6572:6625   */\n      tag_272\n      jump\t// in\n    tag_372:\n        /* \"#utility.yul\":6562:6625   */\n      swap2\n      pop\n        /* \"#utility.yul\":6517:6635   */\n      pop\n        /* \"#utility.yul\":6168:6642   */\n      swap3\n      pop\n      swap3\n      swap1\n      pop\n      jump\t// out\n        /* \"#utility.yul\":6648:6828   */\n    tag_281:\n        /* \"#utility.yul\":6696:6773   */\n      0x4e487b7100000000000000000000000000000000000000000000000000000000\n        /* \"#utility.yul\":6693:6694   */\n      0x00\n        /* \"#utility.yul\":6686:6774   */\n      mstore\n        /* \"#utility.yul\":6793:6797   */\n      0x22\n        /* \"#utility.yul\":6790:6791   */\n      0x04\n        /* \"#utility.yul\":6783:6798   */\n      mstore\n        /* \"#utility.yul\":6817:6821   */\n      0x24\n        /* \"#utility.yul\":6814:6815   */\n      0x00\n        /* \"#utility.yul\":6807:6822   */\n      revert\n        /* \"#utility.yul\":6834:7154   */\n    tag_119:\n        /* \"#utility.yul\":6878:6884   */\n      0x00\n        /* \"#utility.yul\":6915:6916   */\n      0x02\n        /* \"#utility.yul\":6909:6913   */\n      dup3\n        /* \"#utility.yul\":6905:6917   */\n      div\n        /* \"#utility.yul\":6895:6917   */\n      swap1\n      pop\n        /* \"#utility.yul\":6962:6963   */\n      0x01\n        /* \"#utility.yul\":6956:6960   */\n      dup3\n        /* \"#utility.yul\":6952:6964   */\n      and\n        /* \"#utility.yul\":6983:7001   */\n      dup1\n        /* \"#utility.yul\":6973:7054   */\n      tag_375\n      jumpi\n        /* \"#utility.yul\":7039:7043   */\n      0x7f\n        /* \"#utility.yul\":7031:7037   */\n      dup3\n        /* \"#utility.yul\":7027:7044   */\n      and\n        /* \"#utility.yul\":7017:7044   */\n      swap2\n      pop\n        /* \"#utility.yul\":6973:7054   */\n    tag_375:\n        /* \"#utility.yul\":7101:7103   */\n      0x20\n        /* \"#utility.yul\":7093:7099   */\n      dup3\n        /* \"#utility.yul\":7090:7104   */\n      lt\n        /* \"#utility.yul\":7070:7088   */\n      dup2\n        /* \"#utility.yul\":7067:7105   */\n      sub\n        /* \"#utility.yul\":7064:7148   */\n      tag_376\n      jumpi\n        /* \"#utility.yul\":7120:7138   */\n      tag_377\n      tag_281\n      jump\t// in\n    tag_377:\n        /* \"#utility.yul\":7064:7148   */\n    tag_376:\n        /* \"#utility.yul\":6885:7154   */\n      pop\n        /* \"#utility.yul\":6834:7154   */\n      swap2\n      swap1\n      pop\n      jump\t// out\n        /* \"#utility.yul\":7160:7340   */\n    tag_282:\n        /* \"#utility.yul\":7208:7285   */\n      0x4e487b7100000000000000000000000000000000000000000000000000000000\n        /* \"#utility.yul\":7205:7206   */\n      0x00\n        /* \"#utility.yul\":7198:7286   */\n      mstore\n        /* \"#utility.yul\":7305:7309   */\n      0x11\n        /* \"#utility.yul\":7302:7303   */\n      0x04\n        /* \"#utility.yul\":7295:7310   */\n      mstore\n        /* \"#utility.yul\":7329:7333   */\n      0x24\n        /* \"#utility.yul\":7326:7327   */\n      0x00\n        /* \"#utility.yul\":7319:7334   */\n      revert\n        /* \"#utility.yul\":7346:7756   */\n    tag_156:\n        /* \"#utility.yul\":7386:7393   */\n      0x00\n        /* \"#utility.yul\":7409:7429   */\n      tag_380\n        /* \"#utility.yul\":7427:7428   */\n      dup3\n        /* \"#utility.yul\":7409:7429   */\n      tag_258\n      jump\t// in\n    tag_380:\n        /* \"#utility.yul\":7404:7429   */\n      swap2\n      pop\n        /* \"#utility.yul\":7443:7463   */\n      tag_381\n        /* \"#utility.yul\":7461:7462   */\n      dup4\n        /* \"#utility.yul\":7443:7463   */\n      tag_258\n      jump\t// in\n    tag_381:\n        /* \"#utility.yul\":7438:7463   */\n      swap3\n      pop\n        /* \"#utility.yul\":7498:7499   */\n      dup3\n        /* \"#utility.yul\":7495:7496   */\n      dup3\n        /* \"#utility.yul\":7491:7500   */\n      mul\n        /* \"#utility.yul\":7520:7550   */\n      tag_382\n        /* \"#utility.yul\":7538:7549   */\n      dup2\n        /* \"#utility.yul\":7520:7550   */\n      tag_258\n      jump\t// in\n    tag_382:\n        /* \"#utility.yul\":7509:7550   */\n      swap2\n      pop\n        /* \"#utility.yul\":7699:7700   */\n      dup3\n        /* \"#utility.yul\":7690:7697   */\n      dup3\n        /* \"#utility.yul\":7686:7701   */\n      div\n        /* \"#utility.yul\":7683:7684   */\n      dup5\n        /* \"#utility.yul\":7680:7702   */\n      eq\n        /* \"#utility.yul\":7660:7661   */\n      dup4\n        /* \"#utility.yul\":7653:7662   */\n      iszero\n        /* \"#utility.yul\":7633:7716   */\n      or\n        /* \"#utility.yul\":7610:7749   */\n      tag_383\n      jumpi\n        /* \"#utility.yul\":7729:7747   */\n      tag_384\n      tag_282\n      jump\t// in\n    tag_384:\n        /* \"#utility.yul\":7610:7749   */\n    tag_383:\n        /* \"#utility.yul\":7394:7756   */\n      pop\n        /* \"#utility.yul\":7346:7756   */\n      swap3\n      swap2\n      pop\n      pop\n      jump\t// out\n        /* \"#utility.yul\":7762:7942   */\n    tag_283:\n        /* \"#utility.yul\":7810:7887   */\n      0x4e487b7100000000000000000000000000000000000000000000000000000000\n        /* \"#utility.yul\":7807:7808   */\n      0x00\n        /* \"#utility.yul\":7800:7888   */\n      mstore\n        /* \"#utility.yul\":7907:7911   */\n      0x12\n        /* \"#utility.yul\":7904:7905   */\n      0x04\n        /* \"#utility.yul\":7897:7912   */\n      mstore\n        /* \"#utility.yul\":7931:7935   */\n      0x24\n        /* \"#utility.yul\":7928:7929   */\n      0x00\n        /* \"#utility.yul\":7921:7936   */\n      revert\n        /* \"#utility.yul\":7948:8133   */\n    tag_158:\n        /* \"#utility.yul\":7988:7989   */\n      0x00\n        /* \"#utility.yul\":8005:8025   */\n      tag_387\n        /* \"#utility.yul\":8023:8024   */\n      dup3\n        /* \"#utility.yul\":8005:8025   */\n      tag_258\n      jump\t// in\n    tag_387:\n        /* \"#utility.yul\":8000:8025   */\n      swap2\n      pop\n        /* \"#utility.yul\":8039:8059   */\n      tag_388\n        /* \"#utility.yul\":8057:8058   */\n      dup4\n        /* \"#utility.yul\":8039:8059   */\n      tag_258\n      jump\t// in\n    tag_388:\n        /* \"#utility.yul\":8034:8059   */\n      swap3\n      pop\n        /* \"#utility.yul\":8078:8079   */\n      dup3\n        /* \"#utility.yul\":8068:8103   */\n      tag_389\n      jumpi\n        /* \"#utility.yul\":8083:8101   */\n      tag_390\n      tag_283\n      jump\t// in\n    tag_390:\n        /* \"#utility.yul\":8068:8103   */\n    tag_389:\n        /* \"#utility.yul\":8125:8126   */\n      dup3\n        /* \"#utility.yul\":8122:8123   */\n      dup3\n        /* \"#utility.yul\":8118:8127   */\n      div\n        /* \"#utility.yul\":8113:8127   */\n      swap1\n      pop\n        /* \"#utility.yul\":7948:8133   */\n      swap3\n      swap2\n      pop\n      pop\n      jump\t// out\n        /* \"#utility.yul\":8139:8330   */\n    tag_161:\n        /* \"#utility.yul\":8179:8182   */\n      0x00\n        /* \"#utility.yul\":8198:8218   */\n      tag_392\n        /* \"#utility.yul\":8216:8217   */\n      dup3\n        /* \"#utility.yul\":8198:8218   */\n      tag_258\n      jump\t// in\n    tag_392:\n        /* \"#utility.yul\":8193:8218   */\n      swap2\n      pop\n        /* \"#utility.yul\":8232:8252   */\n      tag_393\n        /* \"#utility.yul\":8250:8251   */\n      dup4\n        /* \"#utility.yul\":8232:8252   */\n      tag_258\n      jump\t// in\n    tag_393:\n        /* \"#utility.yul\":8227:8252   */\n      swap3\n      pop\n        /* \"#utility.yul\":8275:8276   */\n      dup3\n        /* \"#utility.yul\":8272:8273   */\n      dup3\n        /* \"#utility.yul\":8268:8277   */\n      add\n        /* \"#utility.yul\":8261:8277   */\n      swap1\n      pop\n        /* \"#utility.yul\":8296:8299   */\n      dup1\n        /* \"#utility.yul\":8293:8294   */\n      dup3\n        /* \"#utility.yul\":8290:8300   */\n      gt\n        /* \"#utility.yul\":8287:8323   */\n      iszero\n      tag_394\n      jumpi\n        /* \"#utility.yul\":8303:8321   */\n      tag_395\n      tag_282\n      jump\t// in\n    tag_395:\n        /* \"#utility.yul\":8287:8323   */\n    tag_394:\n        /* \"#utility.yul\":8139:8330   */\n      swap3\n      swap2\n      pop\n      pop\n      jump\t// out\n        /* \"#utility.yul\":8336:8510   */\n    tag_284:\n        /* \"#utility.yul\":8476:8502   */\n      0x45786365656473206d61782077616c6c6574206c696d69740000000000000000\n        /* \"#utility.yul\":8472:8473   */\n      0x00\n        /* \"#utility.yul\":8464:8470   */\n      dup3\n        /* \"#utility.yul\":8460:8474   */\n      add\n        /* \"#utility.yul\":8453:8503   */\n      mstore\n        /* \"#utility.yul\":8336:8510   */\n      pop\n      jump\t// out\n        /* \"#utility.yul\":8516:8882   */\n    tag_285:\n        /* \"#utility.yul\":8658:8661   */\n      0x00\n        /* \"#utility.yul\":8679:8746   */\n      tag_398\n        /* \"#utility.yul\":8743:8745   */\n      0x18\n        /* \"#utility.yul\":8738:8741   */\n      dup4\n        /* \"#utility.yul\":8679:8746   */\n      tag_264\n      jump\t// in\n    tag_398:\n        /* \"#utility.yul\":8672:8746   */\n      swap2\n      pop\n        /* \"#utility.yul\":8755:8848   */\n      tag_399\n        /* \"#utility.yul\":8844:8847   */\n      dup3\n        /* \"#utility.yul\":8755:8848   */\n      tag_284\n      jump\t// in\n    tag_399:\n        /* \"#utility.yul\":8873:8875   */\n      0x20\n        /* \"#utility.yul\":8868:8871   */\n      dup3\n        /* \"#utility.yul\":8864:8876   */\n      add\n        /* \"#utility.yul\":8857:8876   */\n      swap1\n      pop\n        /* \"#utility.yul\":8516:8882   */\n      swap2\n      swap1\n      pop\n      jump\t// out\n        /* \"#utility.yul\":8888:9307   */\n    tag_164:\n        /* \"#utility.yul\":9054:9058   */\n      0x00\n        /* \"#utility.yul\":9092:9094   */\n      0x20\n        /* \"#utility.yul\":9081:9090   */\n      dup3\n        /* \"#utility.yul\":9077:9095   */\n      add\n        /* \"#utility.yul\":9069:9095   */\n      swap1\n      pop\n        /* \"#utility.yul\":9141:9150   */\n      dup2\n        /* \"#utility.yul\":9135:9139   */\n      dup2\n        /* \"#utility.yul\":9131:9151   */\n      sub\n        /* \"#utility.yul\":9127:9128   */\n      0x00\n        /* \"#utility.yul\":9116:9125   */\n      dup4\n        /* \"#utility.yul\":9112:9129   */\n      add\n        /* \"#utility.yul\":9105:9152   */\n      mstore\n        /* \"#utility.yul\":9169:9300   */\n      tag_401\n        /* \"#utility.yul\":9295:9299   */\n      dup2\n        /* \"#utility.yul\":9169:9300   */\n      tag_285\n      jump\t// in\n    tag_401:\n        /* \"#utility.yul\":9161:9300   */\n      swap1\n      pop\n        /* \"#utility.yul\":8888:9307   */\n      swap2\n      swap1\n      pop\n      jump\t// out\n        /* \"#utility.yul\":9313:9492   */\n    tag_286:\n        /* \"#utility.yul\":9453:9484   */\n      0x45786365656473206d6178207472616e73616374696f6e206c696d6974000000\n        /* \"#utility.yul\":9449:9450   */\n      0x00\n        /* \"#utility.yul\":9441:9447   */\n      dup3\n        /* \"#utility.yul\":9437:9451   */\n      add\n        /* \"#utility.yul\":9430:9485   */\n      mstore\n        /* \"#utility.yul\":9313:9492   */\n      pop\n      jump\t// out\n        /* \"#utility.yul\":9498:9864   */\n    tag_287:\n        /* \"#utility.yul\":9640:9643   */\n      0x00\n        /* \"#utility.yul\":9661:9728   */\n      tag_404\n        /* \"#utility.yul\":9725:9727   */\n      0x1d\n        /* \"#utility.yul\":9720:9723   */\n      dup4\n        /* \"#utility.yul\":9661:9728   */\n      tag_264\n      jump\t// in\n    tag_404:\n        /* \"#utility.yul\":9654:9728   */\n      swap2\n      pop\n        /* \"#utility.yul\":9737:9830   */\n      tag_405\n        /* \"#utility.yul\":9826:9829   */\n      dup3\n        /* \"#utility.yul\":9737:9830   */\n      tag_286\n      jump\t// in\n    tag_405:\n        /* \"#utility.yul\":9855:9857   */\n      0x20\n        /* \"#utility.yul\":9850:9853   */\n      dup3\n        /* \"#utility.yul\":9846:9858   */\n      add\n        /* \"#utility.yul\":9839:9858   */\n      swap1\n      pop\n        /* \"#utility.yul\":9498:9864   */\n      swap2\n      swap1\n      pop\n      jump\t// out\n        /* \"#utility.yul\":9870:10289   */\n    tag_169:\n        /* \"#utility.yul\":10036:10040   */\n      0x00\n        /* \"#utility.yul\":10074:10076   */\n      0x20\n        /* \"#utility.yul\":10063:10072   */\n      dup3\n        /* \"#utility.yul\":10059:10077   */\n      add\n        /* \"#utility.yul\":10051:10077   */\n      swap1\n      pop\n        /* \"#utility.yul\":10123:10132   */\n      dup2\n        /* \"#utility.yul\":10117:10121   */\n      dup2\n        /* \"#utility.yul\":10113:10133   */\n      sub\n        /* \"#utility.yul\":10109:10110   */\n      0x00\n        /* \"#utility.yul\":10098:10107   */\n      dup4\n        /* \"#utility.yul\":10094:10111   */\n      add\n        /* \"#utility.yul\":10087:10134   */\n      mstore\n        /* \"#utility.yul\":10151:10282   */\n      tag_407\n        /* \"#utility.yul\":10277:10281   */\n      dup2\n        /* \"#utility.yul\":10151:10282   */\n      tag_287\n      jump\t// in\n    tag_407:\n        /* \"#utility.yul\":10143:10282   */\n      swap1\n      pop\n        /* \"#utility.yul\":9870:10289   */\n      swap2\n      swap1\n      pop\n      jump\t// out\n        /* \"#utility.yul\":10295:10737   */\n    tag_192:\n        /* \"#utility.yul\":10444:10448   */\n      0x00\n        /* \"#utility.yul\":10482:10484   */\n      0x60\n        /* \"#utility.yul\":10471:10480   */\n      dup3\n        /* \"#utility.yul\":10467:10485   */\n      add\n        /* \"#utility.yul\":10459:10485   */\n      swap1\n      pop\n        /* \"#utility.yul\":10495:10566   */\n      tag_409\n        /* \"#utility.yul\":10563:10564   */\n      0x00\n        /* \"#utility.yul\":10552:10561   */\n      dup4\n        /* \"#utility.yul\":10548:10565   */\n      add\n        /* \"#utility.yul\":10539:10545   */\n      dup7\n        /* \"#utility.yul\":10495:10566   */\n      tag_262\n      jump\t// in\n    tag_409:\n        /* \"#utility.yul\":10576:10648   */\n      tag_410\n        /* \"#utility.yul\":10644:10646   */\n      0x20\n        /* \"#utility.yul\":10633:10642   */\n      dup4\n        /* \"#utility.yul\":10629:10647   */\n      add\n        /* \"#utility.yul\":10620:10626   */\n      dup6\n        /* \"#utility.yul\":10576:10648   */\n      tag_259\n      jump\t// in\n    tag_410:\n        /* \"#utility.yul\":10658:10730   */\n      tag_411\n        /* \"#utility.yul\":10726:10728   */\n      0x40\n        /* \"#utility.yul\":10715:10724   */\n      dup4\n        /* \"#utility.yul\":10711:10729   */\n      add\n        /* \"#utility.yul\":10702:10708   */\n      dup5\n        /* \"#utility.yul\":10658:10730   */\n      tag_259\n      jump\t// in\n    tag_411:\n        /* \"#utility.yul\":10295:10737   */\n      swap5\n      swap4\n      pop\n      pop\n      pop\n      pop\n      jump\t// out\n        /* \"#utility.yul\":10743:10937   */\n    tag_212:\n        /* \"#utility.yul\":10783:10787   */\n      0x00\n        /* \"#utility.yul\":10803:10823   */\n      tag_413\n        /* \"#utility.yul\":10821:10822   */\n      dup3\n        /* \"#utility.yul\":10803:10823   */\n      tag_258\n      jump\t// in\n    tag_413:\n        /* \"#utility.yul\":10798:10823   */\n      swap2\n      pop\n        /* \"#utility.yul\":10837:10857   */\n      tag_414\n        /* \"#utility.yul\":10855:10856   */\n      dup4\n        /* \"#utility.yul\":10837:10857   */\n      tag_258\n      jump\t// in\n    tag_414:\n        /* \"#utility.yul\":10832:10857   */\n      swap3\n      pop\n        /* \"#utility.yul\":10881:10882   */\n      dup3\n        /* \"#utility.yul\":10878:10879   */\n      dup3\n        /* \"#utility.yul\":10874:10883   */\n      sub\n        /* \"#utility.yul\":10866:10883   */\n      swap1\n      pop\n        /* \"#utility.yul\":10905:10906   */\n      dup2\n        /* \"#utility.yul\":10899:10903   */\n      dup2\n        /* \"#utility.yul\":10896:10907   */\n      gt\n        /* \"#utility.yul\":10893:10930   */\n      iszero\n      tag_415\n      jumpi\n        /* \"#utility.yul\":10910:10928   */\n      tag_416\n      tag_282\n      jump\t// in\n    tag_416:\n        /* \"#utility.yul\":10893:10930   */\n    tag_415:\n        /* \"#utility.yul\":10743:10937   */\n      swap3\n      swap2\n      pop\n      pop\n      jump\t// out\n        /* \"#utility.yul\":10943:11111   */\n    tag_288:\n        /* \"#utility.yul\":11083:11103   */\n      0x456e636f75726167656d656e742046756e640000000000000000000000000000\n        /* \"#utility.yul\":11079:11080   */\n      0x00\n        /* \"#utility.yul\":11071:11077   */\n      dup3\n        /* \"#utility.yul\":11067:11081   */\n      add\n        /* \"#utility.yul\":11060:11104   */\n      mstore\n        /* \"#utility.yul\":10943:11111   */\n      pop\n      jump\t// out\n        /* \"#utility.yul\":11117:11483   */\n    tag_289:\n        /* \"#utility.yul\":11259:11262   */\n      0x00\n        /* \"#utility.yul\":11280:11347   */\n      tag_419\n        /* \"#utility.yul\":11344:11346   */\n      0x12\n        /* \"#utility.yul\":11339:11342   */\n      dup4\n        /* \"#utility.yul\":11280:11347   */\n      tag_264\n      jump\t// in\n    tag_419:\n        /* \"#utility.yul\":11273:11347   */\n      swap2\n      pop\n        /* \"#utility.yul\":11356:11449   */\n      tag_420\n        /* \"#utility.yul\":11445:11448   */\n      dup3\n        /* \"#utility.yul\":11356:11449   */\n      tag_288\n      jump\t// in\n    tag_420:\n        /* \"#utility.yul\":11474:11476   */\n      0x20\n        /* \"#utility.yul\":11469:11472   */\n      dup3\n        /* \"#utility.yul\":11465:11477   */\n      add\n        /* \"#utility.yul\":11458:11477   */\n      swap1\n      pop\n        /* \"#utility.yul\":11117:11483   */\n      swap2\n      swap1\n      pop\n      jump\t// out\n        /* \"#utility.yul\":11489:12018   */\n    tag_219:\n        /* \"#utility.yul\":11683:11687   */\n      0x00\n        /* \"#utility.yul\":11721:11723   */\n      0x40\n        /* \"#utility.yul\":11710:11719   */\n      dup3\n        /* \"#utility.yul\":11706:11724   */\n      add\n        /* \"#utility.yul\":11698:11724   */\n      swap1\n      pop\n        /* \"#utility.yul\":11734:11805   */\n      tag_422\n        /* \"#utility.yul\":11802:11803   */\n      0x00\n        /* \"#utility.yul\":11791:11800   */\n      dup4\n        /* \"#utility.yul\":11787:11804   */\n      add\n        /* \"#utility.yul\":11778:11784   */\n      dup5\n        /* \"#utility.yul\":11734:11805   */\n      tag_259\n      jump\t// in\n    tag_422:\n        /* \"#utility.yul\":11852:11861   */\n      dup2\n        /* \"#utility.yul\":11846:11850   */\n      dup2\n        /* \"#utility.yul\":11842:11862   */\n      sub\n        /* \"#utility.yul\":11837:11839   */\n      0x20\n        /* \"#utility.yul\":11826:11835   */\n      dup4\n        /* \"#utility.yul\":11822:11840   */\n      add\n        /* \"#utility.yul\":11815:11863   */\n      mstore\n        /* \"#utility.yul\":11880:12011   */\n      tag_423\n        /* \"#utility.yul\":12006:12010   */\n      dup2\n        /* \"#utility.yul\":11880:12011   */\n      tag_289\n      jump\t// in\n    tag_423:\n        /* \"#utility.yul\":11872:12011   */\n      swap1\n      pop\n        /* \"#utility.yul\":11489:12018   */\n      swap3\n      swap2\n      pop\n      pop\n      jump\t// out\n        /* \"#utility.yul\":12024:12188   */\n    tag_290:\n        /* \"#utility.yul\":12164:12180   */\n      0x456d657267656e63792046756e64000000000000000000000000000000000000\n        /* \"#utility.yul\":12160:12161   */\n      0x00\n        /* \"#utility.yul\":12152:12158   */\n      dup3\n        /* \"#utility.yul\":12148:12162   */\n      add\n        /* \"#utility.yul\":12141:12181   */\n      mstore\n        /* \"#utility.yul\":12024:12188   */\n      pop\n      jump\t// out\n        /* \"#utility.yul\":12194:12560   */\n    tag_291:\n        /* \"#utility.yul\":12336:12339   */\n      0x00\n        /* \"#utility.yul\":12357:12424   */\n      tag_426\n        /* \"#utility.yul\":12421:12423   */\n      0x0e\n        /* \"#utility.yul\":12416:12419   */\n      dup4\n        /* \"#utility.yul\":12357:12424   */\n      tag_264\n      jump\t// in\n    tag_426:\n        /* \"#utility.yul\":12350:12424   */\n      swap2\n      pop\n        /* \"#utility.yul\":12433:12526   */\n      tag_427\n        /* \"#utility.yul\":12522:12525   */\n      dup3\n        /* \"#utility.yul\":12433:12526   */\n      tag_290\n      jump\t// in\n    tag_427:\n        /* \"#utility.yul\":12551:12553   */\n      0x20\n        /* \"#utility.yul\":12546:12549   */\n      dup3\n        /* \"#utility.yul\":12542:12554   */\n      add\n        /* \"#utility.yul\":12535:12554   */\n      swap1\n      pop\n        /* \"#utility.yul\":12194:12560   */\n      swap2\n      swap1\n      pop\n      jump\t// out\n        /* \"#utility.yul\":12566:13095   */\n    tag_226:\n        /* \"#utility.yul\":12760:12764   */\n      0x00\n        /* \"#utility.yul\":12798:12800   */\n      0x40\n        /* \"#utility.yul\":12787:12796   */\n      dup3\n        /* \"#utility.yul\":12783:12801   */\n      add\n        /* \"#utility.yul\":12775:12801   */\n      swap1\n      pop\n        /* \"#utility.yul\":12811:12882   */\n      tag_429\n        /* \"#utility.yul\":12879:12880   */\n      0x00\n        /* \"#utility.yul\":12868:12877   */\n      dup4\n        /* \"#utility.yul\":12864:12881   */\n      add\n        /* \"#utility.yul\":12855:12861   */\n      dup5\n        /* \"#utility.yul\":12811:12882   */\n      tag_259\n      jump\t// in\n    tag_429:\n        /* \"#utility.yul\":12929:12938   */\n      dup2\n        /* \"#utility.yul\":12923:12927   */\n      dup2\n        /* \"#utility.yul\":12919:12939   */\n      sub\n        /* \"#utility.yul\":12914:12916   */\n      0x20\n        /* \"#utility.yul\":12903:12912   */\n      dup4\n        /* \"#utility.yul\":12899:12917   */\n      add\n        /* \"#utility.yul\":12892:12940   */\n      mstore\n        /* \"#utility.yul\":12957:13088   */\n      tag_430\n        /* \"#utility.yul\":13083:13087   */\n      dup2\n        /* \"#utility.yul\":12957:13088   */\n      tag_291\n      jump\t// in\n    tag_430:\n        /* \"#utility.yul\":12949:13088   */\n      swap1\n      pop\n        /* \"#utility.yul\":12566:13095   */\n      swap3\n      swap2\n      pop\n      pop\n      jump\t// out\n        /* \"#utility.yul\":13101:13260   */\n    tag_292:\n        /* \"#utility.yul\":13241:13252   */\n      0x4d61726b6574696e670000000000000000000000000000000000000000000000\n        /* \"#utility.yul\":13237:13238   */\n      0x00\n        /* \"#utility.yul\":13229:13235   */\n      dup3\n        /* \"#utility.yul\":13225:13239   */\n      add\n        /* \"#utility.yul\":13218:13253   */\n      mstore\n        /* \"#utility.yul\":13101:13260   */\n      pop\n      jump\t// out\n        /* \"#utility.yul\":13266:13631   */\n    tag_293:\n        /* \"#utility.yul\":13408:13411   */\n      0x00\n        /* \"#utility.yul\":13429:13495   */\n      tag_433\n        /* \"#utility.yul\":13493:13494   */\n      0x09\n        /* \"#utility.yul\":13488:13491   */\n      dup4\n        /* \"#utility.yul\":13429:13495   */\n      tag_264\n      jump\t// in\n    tag_433:\n        /* \"#utility.yul\":13422:13495   */\n      swap2\n      pop\n        /* \"#utility.yul\":13504:13597   */\n      tag_434\n        /* \"#utility.yul\":13593:13596   */\n      dup3\n        /* \"#utility.yul\":13504:13597   */\n      tag_292\n      jump\t// in\n    tag_434:\n        /* \"#utility.yul\":13622:13624   */\n      0x20\n        /* \"#utility.yul\":13617:13620   */\n      dup3\n        /* \"#utility.yul\":13613:13625   */\n      add\n        /* \"#utility.yul\":13606:13625   */\n      swap1\n      pop\n        /* \"#utility.yul\":13266:13631   */\n      swap2\n      swap1\n      pop\n      jump\t// out\n        /* \"#utility.yul\":13637:14166   */\n    tag_233:\n        /* \"#utility.yul\":13831:13835   */\n      0x00\n        /* \"#utility.yul\":13869:13871   */\n      0x40\n        /* \"#utility.yul\":13858:13867   */\n      dup3\n        /* \"#utility.yul\":13854:13872   */\n      add\n        /* \"#utility.yul\":13846:13872   */\n      swap1\n      pop\n        /* \"#utility.yul\":13882:13953   */\n      tag_436\n        /* \"#utility.yul\":13950:13951   */\n      0x00\n        /* \"#utility.yul\":13939:13948   */\n      dup4\n        /* \"#utility.yul\":13935:13952   */\n      add\n        /* \"#utility.yul\":13926:13932   */\n      dup5\n        /* \"#utility.yul\":13882:13953   */\n      tag_259\n      jump\t// in\n    tag_436:\n        /* \"#utility.yul\":14000:14009   */\n      dup2\n        /* \"#utility.yul\":13994:13998   */\n      dup2\n        /* \"#utility.yul\":13990:14010   */\n      sub\n        /* \"#utility.yul\":13985:13987   */\n      0x20\n        /* \"#utility.yul\":13974:13983   */\n      dup4\n        /* \"#utility.yul\":13970:13988   */\n      add\n        /* \"#utility.yul\":13963:14011   */\n      mstore\n        /* \"#utility.yul\":14028:14159   */\n      tag_437\n        /* \"#utility.yul\":14154:14158   */\n      dup2\n        /* \"#utility.yul\":14028:14159   */\n      tag_293\n      jump\t// in\n    tag_437:\n        /* \"#utility.yul\":14020:14159   */\n      swap1\n      pop\n        /* \"#utility.yul\":13637:14166   */\n      swap3\n      swap2\n      pop\n      pop\n      jump\t// out\n        /* \"#utility.yul\":14172:14329   */\n    tag_294:\n        /* \"#utility.yul\":14312:14321   */\n      0x5374616b696e6700000000000000000000000000000000000000000000000000\n        /* \"#utility.yul\":14308:14309   */\n      0x00\n        /* \"#utility.yul\":14300:14306   */\n      dup3\n        /* \"#utility.yul\":14296:14310   */\n      add\n        /* \"#utility.yul\":14289:14322   */\n      mstore\n        /* \"#utility.yul\":14172:14329   */\n      pop\n      jump\t// out\n        /* \"#utility.yul\":14335:14700   */\n    tag_295:\n        /* \"#utility.yul\":14477:14480   */\n      0x00\n        /* \"#utility.yul\":14498:14564   */\n      tag_440\n        /* \"#utility.yul\":14562:14563   */\n      0x07\n        /* \"#utility.yul\":14557:14560   */\n      dup4\n        /* \"#utility.yul\":14498:14564   */\n      tag_264\n      jump\t// in\n    tag_440:\n        /* \"#utility.yul\":14491:14564   */\n      swap2\n      pop\n        /* \"#utility.yul\":14573:14666   */\n      tag_441\n        /* \"#utility.yul\":14662:14665   */\n      dup3\n        /* \"#utility.yul\":14573:14666   */\n      tag_294\n      jump\t// in\n    tag_441:\n        /* \"#utility.yul\":14691:14693   */\n      0x20\n        /* \"#utility.yul\":14686:14689   */\n      dup3\n        /* \"#utility.yul\":14682:14694   */\n      add\n        /* \"#utility.yul\":14675:14694   */\n      swap1\n      pop\n        /* \"#utility.yul\":14335:14700   */\n      swap2\n      swap1\n      pop\n      jump\t// out\n        /* \"#utility.yul\":14706:15235   */\n    tag_240:\n        /* \"#utility.yul\":14900:14904   */\n      0x00\n        /* \"#utility.yul\":14938:14940   */\n      0x40\n        /* \"#utility.yul\":14927:14936   */\n      dup3\n        /* \"#utility.yul\":14923:14941   */\n      add\n        /* \"#utility.yul\":14915:14941   */\n      swap1\n      pop\n        /* \"#utility.yul\":14951:15022   */\n      tag_443\n        /* \"#utility.yul\":15019:15020   */\n      0x00\n        /* \"#utility.yul\":15008:15017   */\n      dup4\n        /* \"#utility.yul\":15004:15021   */\n      add\n        /* \"#utility.yul\":14995:15001   */\n      dup5\n        /* \"#utility.yul\":14951:15022   */\n      tag_259\n      jump\t// in\n    tag_443:\n        /* \"#utility.yul\":15069:15078   */\n      dup2\n        /* \"#utility.yul\":15063:15067   */\n      dup2\n        /* \"#utility.yul\":15059:15079   */\n      sub\n        /* \"#utility.yul\":15054:15056   */\n      0x20\n        /* \"#utility.yul\":15043:15052   */\n      dup4\n        /* \"#utility.yul\":15039:15057   */\n      add\n        /* \"#utility.yul\":15032:15080   */\n      mstore\n        /* \"#utility.yul\":15097:15228   */\n      tag_444\n        /* \"#utility.yul\":15223:15227   */\n      dup2\n        /* \"#utility.yul\":15097:15228   */\n      tag_295\n      jump\t// in\n    tag_444:\n        /* \"#utility.yul\":15089:15228   */\n      swap1\n      pop\n        /* \"#utility.yul\":14706:15235   */\n      swap3\n      swap2\n      pop\n      pop\n      jump\t// out\n\n    auxdata: 0xa26469706673582212202f539147d1aa460302257203a4071938a6c19322fd2fb02c721b1379cff1ac1064736f6c634300081a0033\n}\n",
				"bytecode": {
					"linkReferences": {},
					"object": "608060405234801561000f575f80fd5b5060405161260738038061260783398181016040528101906100319190610680565b336040518060400160405280600a81526020017f5845414d20546f6b656e000000000000000000000000000000000000000000008152506040518060400160405280600481526020017f5845414d0000000000000000000000000000000000000000000000000000000081525081600390816100ad919061091e565b5080600490816100bd919061091e565b5050505f73ffffffffffffffffffffffffffffffffffffffff168173ffffffffffffffffffffffffffffffffffffffff1603610130575f6040517f1e4fbdf700000000000000000000000000000000000000000000000000000000815260040161012791906109fc565b60405180910390fd5b61013f816102c160201b60201c565b5060016006819055508360075f6101000a81548173ffffffffffffffffffffffffffffffffffffffff021916908373ffffffffffffffffffffffffffffffffffffffff1602179055508260085f6101000a81548173ffffffffffffffffffffffffffffffffffffffff021916908373ffffffffffffffffffffffffffffffffffffffff1602179055508160095f6101000a81548173ffffffffffffffffffffffffffffffffffffffff021916908373ffffffffffffffffffffffffffffffffffffffff16021790555080600a5f6101000a81548173ffffffffffffffffffffffffffffffffffffffff021916908373ffffffffffffffffffffffffffffffffffffffff160217905550610263336a01a784379d99db4200000061038460201b60201c565b6001600b5f3373ffffffffffffffffffffffffffffffffffffffff1673ffffffffffffffffffffffffffffffffffffffff1681526020019081526020015f205f6101000a81548160ff02191690831515021790555050505050610ad2565b5f60055f9054906101000a900473ffffffffffffffffffffffffffffffffffffffff1690508160055f6101000a81548173ffffffffffffffffffffffffffffffffffffffff021916908373ffffffffffffffffffffffffffffffffffffffff1602179055508173ffffffffffffffffffffffffffffffffffffffff168173ffffffffffffffffffffffffffffffffffffffff167f8be0079c531659141344cd1fd0a4f28419497f9722a3daafe3b4186f6b6457e060405160405180910390a35050565b5f73ffffffffffffffffffffffffffffffffffffffff168273ffffffffffffffffffffffffffffffffffffffff16036103f4575f6040517fec442f050000000000000000000000000000000000000000000000000000000081526004016103eb91906109fc565b60405180910390fd5b6104055f838361040960201b60201c565b5050565b5f73ffffffffffffffffffffffffffffffffffffffff168373ffffffffffffffffffffffffffffffffffffffff1603610459578060025f82825461044d9190610a42565b92505081905550610527565b5f805f8573ffffffffffffffffffffffffffffffffffffffff1673ffffffffffffffffffffffffffffffffffffffff1681526020019081526020015f20549050818110156104e2578381836040517fe450d38c0000000000000000000000000000000000000000000000000000000081526004016104d993929190610a84565b60405180910390fd5b8181035f808673ffffffffffffffffffffffffffffffffffffffff1673ffffffffffffffffffffffffffffffffffffffff1681526020019081526020015f2081905550505b5f73ffffffffffffffffffffffffffffffffffffffff168273ffffffffffffffffffffffffffffffffffffffff160361056e578060025f82825403925050819055506105b8565b805f808473ffffffffffffffffffffffffffffffffffffffff1673ffffffffffffffffffffffffffffffffffffffff1681526020019081526020015f205f82825401925050819055505b8173ffffffffffffffffffffffffffffffffffffffff168373ffffffffffffffffffffffffffffffffffffffff167fddf252ad1be2c89b69c2b068fc378daa952ba7f163c4a11628f55a4df523b3ef836040516106159190610ab9565b60405180910390a3505050565b5f80fd5b5f73ffffffffffffffffffffffffffffffffffffffff82169050919050565b5f61064f82610626565b9050919050565b61065f81610645565b8114610669575f80fd5b50565b5f8151905061067a81610656565b92915050565b5f805f806080858703121561069857610697610622565b5b5f6106a58782880161066c565b94505060206106b68782880161066c565b93505060406106c78782880161066c565b92505060606106d88782880161066c565b91505092959194509250565b5f81519050919050565b7f4e487b71000000000000000000000000000000000000000000000000000000005f52604160045260245ffd5b7f4e487b71000000000000000000000000000000000000000000000000000000005f52602260045260245ffd5b5f600282049050600182168061075f57607f821691505b6020821081036107725761077161071b565b5b50919050565b5f819050815f5260205f209050919050565b5f6020601f8301049050919050565b5f82821b905092915050565b5f600883026107d47fffffffffffffffffffffffffffffffffffffffffffffffffffffffffffffffff82610799565b6107de8683610799565b95508019841693508086168417925050509392505050565b5f819050919050565b5f819050919050565b5f61082261081d610818846107f6565b6107ff565b6107f6565b9050919050565b5f819050919050565b61083b83610808565b61084f61084782610829565b8484546107a5565b825550505050565b5f90565b610863610857565b61086e818484610832565b505050565b5b81811015610891576108865f8261085b565b600181019050610874565b5050565b601f8211156108d6576108a781610778565b6108b08461078a565b810160208510156108bf578190505b6108d36108cb8561078a565b830182610873565b50505b505050565b5f82821c905092915050565b5f6108f65f19846008026108db565b1980831691505092915050565b5f61090e83836108e7565b9150826002028217905092915050565b610927826106e4565b67ffffffffffffffff8111156109405761093f6106ee565b5b61094a8254610748565b610955828285610895565b5f60209050601f831160018114610986575f8415610974578287015190505b61097e8582610903565b8655506109e5565b601f19841661099486610778565b5f5b828110156109bb57848901518255600182019150602085019450602081019050610996565b868310156109d857848901516109d4601f8916826108e7565b8355505b6001600288020188555050505b505050505050565b6109f681610645565b82525050565b5f602082019050610a0f5f8301846109ed565b92915050565b7f4e487b71000000000000000000000000000000000000000000000000000000005f52601160045260245ffd5b5f610a4c826107f6565b9150610a57836107f6565b9250828201905080821115610a6f57610a6e610a15565b5b92915050565b610a7e816107f6565b82525050565b5f606082019050610a975f8301866109ed565b610aa46020830185610a75565b610ab16040830184610a75565b949350505050565b5f602082019050610acc5f830184610a75565b92915050565b611b2880610adf5f395ff3fe608060405234801561000f575f80fd5b5060043610610156575f3560e01c806370a08231116100c1578063a9059cbb1161007a578063a9059cbb146103a8578063cc859378146103d8578063dd62ed3e146103f6578063df7787a414610426578063f2fde38b14610444578063f3b2db3f1461046057610156565b806370a08231146102f8578063715018a614610328578063753cafc31461033257806375f0a8741461034e5780638da5cb5b1461036c57806395d89b411461038a57610156565b80632ff2e9dc116101135780632ff2e9dc14610232578063313ce5671461025057806336b4134a1461026e5780634fbee1931461028c57806352a6a9ec146102bc57806354ad8aee146102da57610156565b806302af37bb1461015a57806306ee6ad81461017857806306fdde0314610196578063095ea7b3146101b457806318160ddd146101e457806323b872dd14610202575b5f80fd5b61016261047e565b60405161016f9190611368565b60405180910390f35b610180610483565b60405161018d91906113c0565b60405180910390f35b61019e6104a8565b6040516101ab9190611449565b60405180910390f35b6101ce60048036038101906101c991906114c1565b610538565b6040516101db9190611519565b60405180910390f35b6101ec61055a565b6040516101f99190611368565b60405180910390f35b61021c60048036038101906102179190611532565b610563565b6040516102299190611519565b60405180910390f35b61023a610591565b6040516102479190611368565b60405180910390f35b6102586105a0565b604051610265919061159d565b60405180910390f35b6102766105a8565b6040516102839190611368565b60405180910390f35b6102a660048036038101906102a191906115b6565b6105ad565b6040516102b39190611519565b60405180910390f35b6102c46105ca565b6040516102d191906113c0565b60405180910390f35b6102e26105ef565b6040516102ef9190611368565b60405180910390f35b610312600480360381019061030d91906115b6565b6105f4565b60405161031f9190611368565b60405180910390f35b610330610639565b005b61034c6004803603810190610347919061160b565b61064c565b005b6103566106ac565b60405161036391906113c0565b60405180910390f35b6103746106d1565b60405161038191906113c0565b60405180910390f35b6103926106f9565b60405161039f9190611449565b60405180910390f35b6103c260048036038101906103bd91906114c1565b610789565b6040516103cf9190611519565b60405180910390f35b6103e061087f565b6040516103ed91906113c0565b60405180910390f35b610410600480360381019061040b9190611649565b6108a4565b60405161041d9190611368565b60405180910390f35b61042e610926565b60405161043b9190611368565b60405180910390f35b61045e600480360381019061045991906115b6565b61094d565b005b6104686109d1565b6040516104759190611368565b60405180910390f35b600a81565b600a5f9054906101000a900473ffffffffffffffffffffffffffffffffffffffff1681565b6060600380546104b7906116b4565b80601f01602080910402602001604051908101604052809291908181526020018280546104e3906116b4565b801561052e5780601f106105055761010080835404028352916020019161052e565b820191905f5260205f20905b81548152906001019060200180831161051157829003601f168201915b5050505050905090565b5f806105426109f9565b905061054f818585610a00565b600191505092915050565b5f600254905090565b5f8061056d6109f9565b905061057a858285610a12565b610585858585610aa5565b60019150509392505050565b6a01a784379d99db4200000081565b5f6012905090565b600d81565b600b602052805f5260405f205f915054906101000a900460ff1681565b60075f9054906101000a900473ffffffffffffffffffffffffffffffffffffffff1681565b600c81565b5f805f8373ffffffffffffffffffffffffffffffffffffffff1673ffffffffffffffffffffffffffffffffffffffff1681526020019081526020015f20549050919050565b610641610b95565b61064a5f610c1c565b565b610654610b95565b80600b5f8473ffffffffffffffffffffffffffffffffffffffff1673ffffffffffffffffffffffffffffffffffffffff1681526020019081526020015f205f6101000a81548160ff0219169083151502179055505050565b60095f9054906101000a900473ffffffffffffffffffffffffffffffffffffffff1681565b5f60055f9054906101000a900473ffffffffffffffffffffffffffffffffffffffff16905090565b606060048054610708906116b4565b80601f0160208091040260200160405190810160405280929190818152602001828054610734906116b4565b801561077f5780601f106107565761010080835404028352916020019161077f565b820191905f5260205f20905b81548152906001019060200180831161076257829003601f168201915b5050505050905090565b5f606460016a01a784379d99db420000006107a49190611711565b6107ae919061177f565b826107b8856105f4565b6107c291906117af565b1115610803576040517f08c379a00000000000000000000000000000000000000000000000000000000081526004016107fa9061182c565b60405180910390fd5b61271060056a01a784379d99db4200000061081e9190611711565b610828919061177f565b82111561086a576040517f08c379a000000000000000000000000000000000000000000000000000000000815260040161086190611894565b60405180910390fd5b610875338484610cdf565b6001905092915050565b60085f9054906101000a900473ffffffffffffffffffffffffffffffffffffffff1681565b5f60015f8473ffffffffffffffffffffffffffffffffffffffff1673ffffffffffffffffffffffffffffffffffffffff1681526020019081526020015f205f8373ffffffffffffffffffffffffffffffffffffffff1673ffffffffffffffffffffffffffffffffffffffff1681526020019081526020015f2054905092915050565b606460016a01a784379d99db420000006109409190611711565b61094a919061177f565b81565b610955610b95565b5f73ffffffffffffffffffffffffffffffffffffffff168173ffffffffffffffffffffffffffffffffffffffff16036109c5575f6040517f1e4fbdf70000000000000000000000000000000000000000000000000000000081526004016109bc91906113c0565b60405180910390fd5b6109ce81610c1c565b50565b61271060056a01a784379d99db420000006109ec9190611711565b6109f6919061177f565b81565b5f33905090565b610a0d8383836001610f68565b505050565b5f610a1d84846108a4565b90507fffffffffffffffffffffffffffffffffffffffffffffffffffffffffffffffff811015610a9f5781811015610a90578281836040517ffb8f41b2000000000000000000000000000000000000000000000000000000008152600401610a87939291906118b2565b60405180910390fd5b610a9e84848484035f610f68565b5b50505050565b5f73ffffffffffffffffffffffffffffffffffffffff168373ffffffffffffffffffffffffffffffffffffffff1603610b15575f6040517f96c6fd1e000000000000000000000000000000000000000000000000000000008152600401610b0c91906113c0565b60405180910390fd5b5f73ffffffffffffffffffffffffffffffffffffffff168273ffffffffffffffffffffffffffffffffffffffff1603610b85575f6040517fec442f05000000000000000000000000000000000000000000000000000000008152600401610b7c91906113c0565b60405180910390fd5b610b90838383611137565b505050565b610b9d6109f9565b73ffffffffffffffffffffffffffffffffffffffff16610bbb6106d1565b73ffffffffffffffffffffffffffffffffffffffff1614610c1a57610bde6109f9565b6040517f118cdaa7000000000000000000000000000000000000000000000000000000008152600401610c1191906113c0565b60405180910390fd5b565b5f60055f9054906101000a900473ffffffffffffffffffffffffffffffffffffffff1690508160055f6101000a81548173ffffffffffffffffffffffffffffffffffffffff021916908373ffffffffffffffffffffffffffffffffffffffff1602179055508173ffffffffffffffffffffffffffffffffffffffff168173ffffffffffffffffffffffffffffffffffffffff167f8be0079c531659141344cd1fd0a4f28419497f9722a3daafe3b4186f6b6457e060405160405180910390a35050565b5f6064600c83610cef9190611711565b610cf9919061177f565b90505f8183610d0891906118e7565b9050610d4e8560075f9054906101000a900473ffffffffffffffffffffffffffffffffffffffff16600c600486610d3f9190611711565b610d49919061177f565b610aa5565b7f6e232b0acf46272dacf889af6767574775a324b133d42b3b8cffa9cd13159984600c600484610d7e9190611711565b610d88919061177f565b604051610d959190611964565b60405180910390a1610de18560085f9054906101000a900473ffffffffffffffffffffffffffffffffffffffff16600c600186610dd29190611711565b610ddc919061177f565b610aa5565b7f6e232b0acf46272dacf889af6767574775a324b133d42b3b8cffa9cd13159984600c600184610e119190611711565b610e1b919061177f565b604051610e2891906119da565b60405180910390a1610e748560095f9054906101000a900473ffffffffffffffffffffffffffffffffffffffff16600c600486610e659190611711565b610e6f919061177f565b610aa5565b7f6e232b0acf46272dacf889af6767574775a324b133d42b3b8cffa9cd13159984600c600484610ea49190611711565b610eae919061177f565b604051610ebb9190611a50565b60405180910390a1610f0785600a5f9054906101000a900473ffffffffffffffffffffffffffffffffffffffff16600c600386610ef89190611711565b610f02919061177f565b610aa5565b7f6e232b0acf46272dacf889af6767574775a324b133d42b3b8cffa9cd13159984600c600384610f379190611711565b610f41919061177f565b604051610f4e9190611ac6565b60405180910390a1610f61858583610aa5565b5050505050565b5f73ffffffffffffffffffffffffffffffffffffffff168473ffffffffffffffffffffffffffffffffffffffff1603610fd8575f6040517fe602df05000000000000000000000000000000000000000000000000000000008152600401610fcf91906113c0565b60405180910390fd5b5f73ffffffffffffffffffffffffffffffffffffffff168373ffffffffffffffffffffffffffffffffffffffff1603611048575f6040517f94280d6200000000000000000000000000000000000000000000000000000000815260040161103f91906113c0565b60405180910390fd5b8160015f8673ffffffffffffffffffffffffffffffffffffffff1673ffffffffffffffffffffffffffffffffffffffff1681526020019081526020015f205f8573ffffffffffffffffffffffffffffffffffffffff1673ffffffffffffffffffffffffffffffffffffffff1681526020019081526020015f20819055508015611131578273ffffffffffffffffffffffffffffffffffffffff168473ffffffffffffffffffffffffffffffffffffffff167f8c5be1e5ebec7d5bd14f71427d1e84f3dd0314c0f7b2291e5b200ac8c7c3b925846040516111289190611368565b60405180910390a35b50505050565b5f73ffffffffffffffffffffffffffffffffffffffff168373ffffffffffffffffffffffffffffffffffffffff1603611187578060025f82825461117b91906117af565b92505081905550611255565b5f805f8573ffffffffffffffffffffffffffffffffffffffff1673ffffffffffffffffffffffffffffffffffffffff1681526020019081526020015f2054905081811015611210578381836040517fe450d38c000000000000000000000000000000000000000000000000000000008152600401611207939291906118b2565b60405180910390fd5b8181035f808673ffffffffffffffffffffffffffffffffffffffff1673ffffffffffffffffffffffffffffffffffffffff1681526020019081526020015f2081905550505b5f73ffffffffffffffffffffffffffffffffffffffff168273ffffffffffffffffffffffffffffffffffffffff160361129c578060025f82825403925050819055506112e6565b805f808473ffffffffffffffffffffffffffffffffffffffff1673ffffffffffffffffffffffffffffffffffffffff1681526020019081526020015f205f82825401925050819055505b8173ffffffffffffffffffffffffffffffffffffffff168373ffffffffffffffffffffffffffffffffffffffff167fddf252ad1be2c89b69c2b068fc378daa952ba7f163c4a11628f55a4df523b3ef836040516113439190611368565b60405180910390a3505050565b5f819050919050565b61136281611350565b82525050565b5f60208201905061137b5f830184611359565b92915050565b5f73ffffffffffffffffffffffffffffffffffffffff82169050919050565b5f6113aa82611381565b9050919050565b6113ba816113a0565b82525050565b5f6020820190506113d35f8301846113b1565b92915050565b5f81519050919050565b5f82825260208201905092915050565b8281835e5f83830152505050565b5f601f19601f8301169050919050565b5f61141b826113d9565b61142581856113e3565b93506114358185602086016113f3565b61143e81611401565b840191505092915050565b5f6020820190508181035f8301526114618184611411565b905092915050565b5f80fd5b611476816113a0565b8114611480575f80fd5b50565b5f813590506114918161146d565b92915050565b6114a081611350565b81146114aa575f80fd5b50565b5f813590506114bb81611497565b92915050565b5f80604083850312156114d7576114d6611469565b5b5f6114e485828601611483565b92505060206114f5858286016114ad565b9150509250929050565b5f8115159050919050565b611513816114ff565b82525050565b5f60208201905061152c5f83018461150a565b92915050565b5f805f6060848603121561154957611548611469565b5b5f61155686828701611483565b935050602061156786828701611483565b9250506040611578868287016114ad565b9150509250925092565b5f60ff82169050919050565b61159781611582565b82525050565b5f6020820190506115b05f83018461158e565b92915050565b5f602082840312156115cb576115ca611469565b5b5f6115d884828501611483565b91505092915050565b6115ea816114ff565b81146115f4575f80fd5b50565b5f81359050611605816115e1565b92915050565b5f806040838503121561162157611620611469565b5b5f61162e85828601611483565b925050602061163f858286016115f7565b9150509250929050565b5f806040838503121561165f5761165e611469565b5b5f61166c85828601611483565b925050602061167d85828601611483565b9150509250929050565b7f4e487b71000000000000000000000000000000000000000000000000000000005f52602260045260245ffd5b5f60028204905060018216806116cb57607f821691505b6020821081036116de576116dd611687565b5b50919050565b7f4e487b71000000000000000000000000000000000000000000000000000000005f52601160045260245ffd5b5f61171b82611350565b915061172683611350565b925082820261173481611350565b9150828204841483151761174b5761174a6116e4565b5b5092915050565b7f4e487b71000000000000000000000000000000000000000000000000000000005f52601260045260245ffd5b5f61178982611350565b915061179483611350565b9250826117a4576117a3611752565b5b828204905092915050565b5f6117b982611350565b91506117c483611350565b92508282019050808211156117dc576117db6116e4565b5b92915050565b7f45786365656473206d61782077616c6c6574206c696d697400000000000000005f82015250565b5f6118166018836113e3565b9150611821826117e2565b602082019050919050565b5f6020820190508181035f8301526118438161180a565b9050919050565b7f45786365656473206d6178207472616e73616374696f6e206c696d69740000005f82015250565b5f61187e601d836113e3565b91506118898261184a565b602082019050919050565b5f6020820190508181035f8301526118ab81611872565b9050919050565b5f6060820190506118c55f8301866113b1565b6118d26020830185611359565b6118df6040830184611359565b949350505050565b5f6118f182611350565b91506118fc83611350565b9250828203905081811115611914576119136116e4565b5b92915050565b7f456e636f75726167656d656e742046756e6400000000000000000000000000005f82015250565b5f61194e6012836113e3565b91506119598261191a565b602082019050919050565b5f6040820190506119775f830184611359565b818103602083015261198881611942565b905092915050565b7f456d657267656e63792046756e640000000000000000000000000000000000005f82015250565b5f6119c4600e836113e3565b91506119cf82611990565b602082019050919050565b5f6040820190506119ed5f830184611359565b81810360208301526119fe816119b8565b905092915050565b7f4d61726b6574696e6700000000000000000000000000000000000000000000005f82015250565b5f611a3a6009836113e3565b9150611a4582611a06565b602082019050919050565b5f604082019050611a635f830184611359565b8181036020830152611a7481611a2e565b905092915050565b7f5374616b696e67000000000000000000000000000000000000000000000000005f82015250565b5f611ab06007836113e3565b9150611abb82611a7c565b602082019050919050565b5f604082019050611ad95f830184611359565b8181036020830152611aea81611aa4565b90509291505056fea26469706673582212202f539147d1aa460302257203a4071938a6c19322fd2fb02c721b1379cff1ac1064736f6c634300081a0033",
					"opcodes": "PUSH1 0x80 PUSH1 0x40 MSTORE CALLVALUE DUP1 ISZERO PUSH2 0xF JUMPI PUSH0 DUP1 REVERT JUMPDEST POP PUSH1 0x40 MLOAD PUSH2 0x2607 CODESIZE SUB DUP1 PUSH2 0x2607 DUP4 CODECOPY DUP2 DUP2 ADD PUSH1 0x40 MSTORE DUP2 ADD SWAP1 PUSH2 0x31 SWAP2 SWAP1 PUSH2 0x680 JUMP JUMPDEST CALLER PUSH1 0x40 MLOAD DUP1 PUSH1 0x40 ADD PUSH1 0x40 MSTORE DUP1 PUSH1 0xA DUP2 MSTORE PUSH1 0x20 ADD PUSH32 0x5845414D20546F6B656E00000000000000000000000000000000000000000000 DUP2 MSTORE POP PUSH1 0x40 MLOAD DUP1 PUSH1 0x40 ADD PUSH1 0x40 MSTORE DUP1 PUSH1 0x4 DUP2 MSTORE PUSH1 0x20 ADD PUSH32 0x5845414D00000000000000000000000000000000000000000000000000000000 DUP2 MSTORE POP DUP2 PUSH1 0x3 SWAP1 DUP2 PUSH2 0xAD SWAP2 SWAP1 PUSH2 0x91E JUMP JUMPDEST POP DUP1 PUSH1 0x4 SWAP1 DUP2 PUSH2 0xBD SWAP2 SWAP1 PUSH2 0x91E JUMP JUMPDEST POP POP POP PUSH0 PUSH20 0xFFFFFFFFFFFFFFFFFFFFFFFFFFFFFFFFFFFFFFFF AND DUP2 PUSH20 0xFFFFFFFFFFFFFFFFFFFFFFFFFFFFFFFFFFFFFFFF AND SUB PUSH2 0x130 JUMPI PUSH0 PUSH1 0x40 MLOAD PUSH32 0x1E4FBDF700000000000000000000000000000000000000000000000000000000 DUP2 MSTORE PUSH1 0x4 ADD PUSH2 0x127 SWAP2 SWAP1 PUSH2 0x9FC JUMP JUMPDEST PUSH1 0x40 MLOAD DUP1 SWAP2 SUB SWAP1 REVERT JUMPDEST PUSH2 0x13F DUP2 PUSH2 0x2C1 PUSH1 0x20 SHL PUSH1 0x20 SHR JUMP JUMPDEST POP PUSH1 0x1 PUSH1 0x6 DUP2 SWAP1 SSTORE POP DUP4 PUSH1 0x7 PUSH0 PUSH2 0x100 EXP DUP2 SLOAD DUP2 PUSH20 0xFFFFFFFFFFFFFFFFFFFFFFFFFFFFFFFFFFFFFFFF MUL NOT AND SWAP1 DUP4 PUSH20 0xFFFFFFFFFFFFFFFFFFFFFFFFFFFFFFFFFFFFFFFF AND MUL OR SWAP1 SSTORE POP DUP3 PUSH1 0x8 PUSH0 PUSH2 0x100 EXP DUP2 SLOAD DUP2 PUSH20 0xFFFFFFFFFFFFFFFFFFFFFFFFFFFFFFFFFFFFFFFF MUL NOT AND SWAP1 DUP4 PUSH20 0xFFFFFFFFFFFFFFFFFFFFFFFFFFFFFFFFFFFFFFFF AND MUL OR SWAP1 SSTORE POP DUP2 PUSH1 0x9 PUSH0 PUSH2 0x100 EXP DUP2 SLOAD DUP2 PUSH20 0xFFFFFFFFFFFFFFFFFFFFFFFFFFFFFFFFFFFFFFFF MUL NOT AND SWAP1 DUP4 PUSH20 0xFFFFFFFFFFFFFFFFFFFFFFFFFFFFFFFFFFFFFFFF AND MUL OR SWAP1 SSTORE POP DUP1 PUSH1 0xA PUSH0 PUSH2 0x100 EXP DUP2 SLOAD DUP2 PUSH20 0xFFFFFFFFFFFFFFFFFFFFFFFFFFFFFFFFFFFFFFFF MUL NOT AND SWAP1 DUP4 PUSH20 0xFFFFFFFFFFFFFFFFFFFFFFFFFFFFFFFFFFFFFFFF AND MUL OR SWAP1 SSTORE POP PUSH2 0x263 CALLER PUSH11 0x1A784379D99DB42000000 PUSH2 0x384 PUSH1 0x20 SHL PUSH1 0x20 SHR JUMP JUMPDEST PUSH1 0x1 PUSH1 0xB PUSH0 CALLER PUSH20 0xFFFFFFFFFFFFFFFFFFFFFFFFFFFFFFFFFFFFFFFF AND PUSH20 0xFFFFFFFFFFFFFFFFFFFFFFFFFFFFFFFFFFFFFFFF AND DUP2 MSTORE PUSH1 0x20 ADD SWAP1 DUP2 MSTORE PUSH1 0x20 ADD PUSH0 KECCAK256 PUSH0 PUSH2 0x100 EXP DUP2 SLOAD DUP2 PUSH1 0xFF MUL NOT AND SWAP1 DUP4 ISZERO ISZERO MUL OR SWAP1 SSTORE POP POP POP POP POP PUSH2 0xAD2 JUMP JUMPDEST PUSH0 PUSH1 0x5 PUSH0 SWAP1 SLOAD SWAP1 PUSH2 0x100 EXP SWAP1 DIV PUSH20 0xFFFFFFFFFFFFFFFFFFFFFFFFFFFFFFFFFFFFFFFF AND SWAP1 POP DUP2 PUSH1 0x5 PUSH0 PUSH2 0x100 EXP DUP2 SLOAD DUP2 PUSH20 0xFFFFFFFFFFFFFFFFFFFFFFFFFFFFFFFFFFFFFFFF MUL NOT AND SWAP1 DUP4 PUSH20 0xFFFFFFFFFFFFFFFFFFFFFFFFFFFFFFFFFFFFFFFF AND MUL OR SWAP1 SSTORE POP DUP2 PUSH20 0xFFFFFFFFFFFFFFFFFFFFFFFFFFFFFFFFFFFFFFFF AND DUP2 PUSH20 0xFFFFFFFFFFFFFFFFFFFFFFFFFFFFFFFFFFFFFFFF AND PUSH32 0x8BE0079C531659141344CD1FD0A4F28419497F9722A3DAAFE3B4186F6B6457E0 PUSH1 0x40 MLOAD PUSH1 0x40 MLOAD DUP1 SWAP2 SUB SWAP1 LOG3 POP POP JUMP JUMPDEST PUSH0 PUSH20 0xFFFFFFFFFFFFFFFFFFFFFFFFFFFFFFFFFFFFFFFF AND DUP3 PUSH20 0xFFFFFFFFFFFFFFFFFFFFFFFFFFFFFFFFFFFFFFFF AND SUB PUSH2 0x3F4 JUMPI PUSH0 PUSH1 0x40 MLOAD PUSH32 0xEC442F0500000000000000000000000000000000000000000000000000000000 DUP2 MSTORE PUSH1 0x4 ADD PUSH2 0x3EB SWAP2 SWAP1 PUSH2 0x9FC JUMP JUMPDEST PUSH1 0x40 MLOAD DUP1 SWAP2 SUB SWAP1 REVERT JUMPDEST PUSH2 0x405 PUSH0 DUP4 DUP4 PUSH2 0x409 PUSH1 0x20 SHL PUSH1 0x20 SHR JUMP JUMPDEST POP POP JUMP JUMPDEST PUSH0 PUSH20 0xFFFFFFFFFFFFFFFFFFFFFFFFFFFFFFFFFFFFFFFF AND DUP4 PUSH20 0xFFFFFFFFFFFFFFFFFFFFFFFFFFFFFFFFFFFFFFFF AND SUB PUSH2 0x459 JUMPI DUP1 PUSH1 0x2 PUSH0 DUP3 DUP3 SLOAD PUSH2 0x44D SWAP2 SWAP1 PUSH2 0xA42 JUMP JUMPDEST SWAP3 POP POP DUP2 SWAP1 SSTORE POP PUSH2 0x527 JUMP JUMPDEST PUSH0 DUP1 PUSH0 DUP6 PUSH20 0xFFFFFFFFFFFFFFFFFFFFFFFFFFFFFFFFFFFFFFFF AND PUSH20 0xFFFFFFFFFFFFFFFFFFFFFFFFFFFFFFFFFFFFFFFF AND DUP2 MSTORE PUSH1 0x20 ADD SWAP1 DUP2 MSTORE PUSH1 0x20 ADD PUSH0 KECCAK256 SLOAD SWAP1 POP DUP2 DUP2 LT ISZERO PUSH2 0x4E2 JUMPI DUP4 DUP2 DUP4 PUSH1 0x40 MLOAD PUSH32 0xE450D38C00000000000000000000000000000000000000000000000000000000 DUP2 MSTORE PUSH1 0x4 ADD PUSH2 0x4D9 SWAP4 SWAP3 SWAP2 SWAP1 PUSH2 0xA84 JUMP JUMPDEST PUSH1 0x40 MLOAD DUP1 SWAP2 SUB SWAP1 REVERT JUMPDEST DUP2 DUP2 SUB PUSH0 DUP1 DUP7 PUSH20 0xFFFFFFFFFFFFFFFFFFFFFFFFFFFFFFFFFFFFFFFF AND PUSH20 0xFFFFFFFFFFFFFFFFFFFFFFFFFFFFFFFFFFFFFFFF AND DUP2 MSTORE PUSH1 0x20 ADD SWAP1 DUP2 MSTORE PUSH1 0x20 ADD PUSH0 KECCAK256 DUP2 SWAP1 SSTORE POP POP JUMPDEST PUSH0 PUSH20 0xFFFFFFFFFFFFFFFFFFFFFFFFFFFFFFFFFFFFFFFF AND DUP3 PUSH20 0xFFFFFFFFFFFFFFFFFFFFFFFFFFFFFFFFFFFFFFFF AND SUB PUSH2 0x56E JUMPI DUP1 PUSH1 0x2 PUSH0 DUP3 DUP3 SLOAD SUB SWAP3 POP POP DUP2 SWAP1 SSTORE POP PUSH2 0x5B8 JUMP JUMPDEST DUP1 PUSH0 DUP1 DUP5 PUSH20 0xFFFFFFFFFFFFFFFFFFFFFFFFFFFFFFFFFFFFFFFF AND PUSH20 0xFFFFFFFFFFFFFFFFFFFFFFFFFFFFFFFFFFFFFFFF AND DUP2 MSTORE PUSH1 0x20 ADD SWAP1 DUP2 MSTORE PUSH1 0x20 ADD PUSH0 KECCAK256 PUSH0 DUP3 DUP3 SLOAD ADD SWAP3 POP POP DUP2 SWAP1 SSTORE POP JUMPDEST DUP2 PUSH20 0xFFFFFFFFFFFFFFFFFFFFFFFFFFFFFFFFFFFFFFFF AND DUP4 PUSH20 0xFFFFFFFFFFFFFFFFFFFFFFFFFFFFFFFFFFFFFFFF AND PUSH32 0xDDF252AD1BE2C89B69C2B068FC378DAA952BA7F163C4A11628F55A4DF523B3EF DUP4 PUSH1 0x40 MLOAD PUSH2 0x615 SWAP2 SWAP1 PUSH2 0xAB9 JUMP JUMPDEST PUSH1 0x40 MLOAD DUP1 SWAP2 SUB SWAP1 LOG3 POP POP POP JUMP JUMPDEST PUSH0 DUP1 REVERT JUMPDEST PUSH0 PUSH20 0xFFFFFFFFFFFFFFFFFFFFFFFFFFFFFFFFFFFFFFFF DUP3 AND SWAP1 POP SWAP2 SWAP1 POP JUMP JUMPDEST PUSH0 PUSH2 0x64F DUP3 PUSH2 0x626 JUMP JUMPDEST SWAP1 POP SWAP2 SWAP1 POP JUMP JUMPDEST PUSH2 0x65F DUP2 PUSH2 0x645 JUMP JUMPDEST DUP2 EQ PUSH2 0x669 JUMPI PUSH0 DUP1 REVERT JUMPDEST POP JUMP JUMPDEST PUSH0 DUP2 MLOAD SWAP1 POP PUSH2 0x67A DUP2 PUSH2 0x656 JUMP JUMPDEST SWAP3 SWAP2 POP POP JUMP JUMPDEST PUSH0 DUP1 PUSH0 DUP1 PUSH1 0x80 DUP6 DUP8 SUB SLT ISZERO PUSH2 0x698 JUMPI PUSH2 0x697 PUSH2 0x622 JUMP JUMPDEST JUMPDEST PUSH0 PUSH2 0x6A5 DUP8 DUP3 DUP9 ADD PUSH2 0x66C JUMP JUMPDEST SWAP5 POP POP PUSH1 0x20 PUSH2 0x6B6 DUP8 DUP3 DUP9 ADD PUSH2 0x66C JUMP JUMPDEST SWAP4 POP POP PUSH1 0x40 PUSH2 0x6C7 DUP8 DUP3 DUP9 ADD PUSH2 0x66C JUMP JUMPDEST SWAP3 POP POP PUSH1 0x60 PUSH2 0x6D8 DUP8 DUP3 DUP9 ADD PUSH2 0x66C JUMP JUMPDEST SWAP2 POP POP SWAP3 SWAP6 SWAP2 SWAP5 POP SWAP3 POP JUMP JUMPDEST PUSH0 DUP2 MLOAD SWAP1 POP SWAP2 SWAP1 POP JUMP JUMPDEST PUSH32 0x4E487B7100000000000000000000000000000000000000000000000000000000 PUSH0 MSTORE PUSH1 0x41 PUSH1 0x4 MSTORE PUSH1 0x24 PUSH0 REVERT JUMPDEST PUSH32 0x4E487B7100000000000000000000000000000000000000000000000000000000 PUSH0 MSTORE PUSH1 0x22 PUSH1 0x4 MSTORE PUSH1 0x24 PUSH0 REVERT JUMPDEST PUSH0 PUSH1 0x2 DUP3 DIV SWAP1 POP PUSH1 0x1 DUP3 AND DUP1 PUSH2 0x75F JUMPI PUSH1 0x7F DUP3 AND SWAP2 POP JUMPDEST PUSH1 0x20 DUP3 LT DUP2 SUB PUSH2 0x772 JUMPI PUSH2 0x771 PUSH2 0x71B JUMP JUMPDEST JUMPDEST POP SWAP2 SWAP1 POP JUMP JUMPDEST PUSH0 DUP2 SWAP1 POP DUP2 PUSH0 MSTORE PUSH1 0x20 PUSH0 KECCAK256 SWAP1 POP SWAP2 SWAP1 POP JUMP JUMPDEST PUSH0 PUSH1 0x20 PUSH1 0x1F DUP4 ADD DIV SWAP1 POP SWAP2 SWAP1 POP JUMP JUMPDEST PUSH0 DUP3 DUP3 SHL SWAP1 POP SWAP3 SWAP2 POP POP JUMP JUMPDEST PUSH0 PUSH1 0x8 DUP4 MUL PUSH2 0x7D4 PUSH32 0xFFFFFFFFFFFFFFFFFFFFFFFFFFFFFFFFFFFFFFFFFFFFFFFFFFFFFFFFFFFFFFFF DUP3 PUSH2 0x799 JUMP JUMPDEST PUSH2 0x7DE DUP7 DUP4 PUSH2 0x799 JUMP JUMPDEST SWAP6 POP DUP1 NOT DUP5 AND SWAP4 POP DUP1 DUP7 AND DUP5 OR SWAP3 POP POP POP SWAP4 SWAP3 POP POP POP JUMP JUMPDEST PUSH0 DUP2 SWAP1 POP SWAP2 SWAP1 POP JUMP JUMPDEST PUSH0 DUP2 SWAP1 POP SWAP2 SWAP1 POP JUMP JUMPDEST PUSH0 PUSH2 0x822 PUSH2 0x81D PUSH2 0x818 DUP5 PUSH2 0x7F6 JUMP JUMPDEST PUSH2 0x7FF JUMP JUMPDEST PUSH2 0x7F6 JUMP JUMPDEST SWAP1 POP SWAP2 SWAP1 POP JUMP JUMPDEST PUSH0 DUP2 SWAP1 POP SWAP2 SWAP1 POP JUMP JUMPDEST PUSH2 0x83B DUP4 PUSH2 0x808 JUMP JUMPDEST PUSH2 0x84F PUSH2 0x847 DUP3 PUSH2 0x829 JUMP JUMPDEST DUP5 DUP5 SLOAD PUSH2 0x7A5 JUMP JUMPDEST DUP3 SSTORE POP POP POP POP JUMP JUMPDEST PUSH0 SWAP1 JUMP JUMPDEST PUSH2 0x863 PUSH2 0x857 JUMP JUMPDEST PUSH2 0x86E DUP2 DUP5 DUP5 PUSH2 0x832 JUMP JUMPDEST POP POP POP JUMP JUMPDEST JUMPDEST DUP2 DUP2 LT ISZERO PUSH2 0x891 JUMPI PUSH2 0x886 PUSH0 DUP3 PUSH2 0x85B JUMP JUMPDEST PUSH1 0x1 DUP2 ADD SWAP1 POP PUSH2 0x874 JUMP JUMPDEST POP POP JUMP JUMPDEST PUSH1 0x1F DUP3 GT ISZERO PUSH2 0x8D6 JUMPI PUSH2 0x8A7 DUP2 PUSH2 0x778 JUMP JUMPDEST PUSH2 0x8B0 DUP5 PUSH2 0x78A JUMP JUMPDEST DUP2 ADD PUSH1 0x20 DUP6 LT ISZERO PUSH2 0x8BF JUMPI DUP2 SWAP1 POP JUMPDEST PUSH2 0x8D3 PUSH2 0x8CB DUP6 PUSH2 0x78A JUMP JUMPDEST DUP4 ADD DUP3 PUSH2 0x873 JUMP JUMPDEST POP POP JUMPDEST POP POP POP JUMP JUMPDEST PUSH0 DUP3 DUP3 SHR SWAP1 POP SWAP3 SWAP2 POP POP JUMP JUMPDEST PUSH0 PUSH2 0x8F6 PUSH0 NOT DUP5 PUSH1 0x8 MUL PUSH2 0x8DB JUMP JUMPDEST NOT DUP1 DUP4 AND SWAP2 POP POP SWAP3 SWAP2 POP POP JUMP JUMPDEST PUSH0 PUSH2 0x90E DUP4 DUP4 PUSH2 0x8E7 JUMP JUMPDEST SWAP2 POP DUP3 PUSH1 0x2 MUL DUP3 OR SWAP1 POP SWAP3 SWAP2 POP POP JUMP JUMPDEST PUSH2 0x927 DUP3 PUSH2 0x6E4 JUMP JUMPDEST PUSH8 0xFFFFFFFFFFFFFFFF DUP2 GT ISZERO PUSH2 0x940 JUMPI PUSH2 0x93F PUSH2 0x6EE JUMP JUMPDEST JUMPDEST PUSH2 0x94A DUP3 SLOAD PUSH2 0x748 JUMP JUMPDEST PUSH2 0x955 DUP3 DUP3 DUP6 PUSH2 0x895 JUMP JUMPDEST PUSH0 PUSH1 0x20 SWAP1 POP PUSH1 0x1F DUP4 GT PUSH1 0x1 DUP2 EQ PUSH2 0x986 JUMPI PUSH0 DUP5 ISZERO PUSH2 0x974 JUMPI DUP3 DUP8 ADD MLOAD SWAP1 POP JUMPDEST PUSH2 0x97E DUP6 DUP3 PUSH2 0x903 JUMP JUMPDEST DUP7 SSTORE POP PUSH2 0x9E5 JUMP JUMPDEST PUSH1 0x1F NOT DUP5 AND PUSH2 0x994 DUP7 PUSH2 0x778 JUMP JUMPDEST PUSH0 JUMPDEST DUP3 DUP2 LT ISZERO PUSH2 0x9BB JUMPI DUP5 DUP10 ADD MLOAD DUP3 SSTORE PUSH1 0x1 DUP3 ADD SWAP2 POP PUSH1 0x20 DUP6 ADD SWAP5 POP PUSH1 0x20 DUP2 ADD SWAP1 POP PUSH2 0x996 JUMP JUMPDEST DUP7 DUP4 LT ISZERO PUSH2 0x9D8 JUMPI DUP5 DUP10 ADD MLOAD PUSH2 0x9D4 PUSH1 0x1F DUP10 AND DUP3 PUSH2 0x8E7 JUMP JUMPDEST DUP4 SSTORE POP JUMPDEST PUSH1 0x1 PUSH1 0x2 DUP9 MUL ADD DUP9 SSTORE POP POP POP JUMPDEST POP POP POP POP POP POP JUMP JUMPDEST PUSH2 0x9F6 DUP2 PUSH2 0x645 JUMP JUMPDEST DUP3 MSTORE POP POP JUMP JUMPDEST PUSH0 PUSH1 0x20 DUP3 ADD SWAP1 POP PUSH2 0xA0F PUSH0 DUP4 ADD DUP5 PUSH2 0x9ED JUMP JUMPDEST SWAP3 SWAP2 POP POP JUMP JUMPDEST PUSH32 0x4E487B7100000000000000000000000000000000000000000000000000000000 PUSH0 MSTORE PUSH1 0x11 PUSH1 0x4 MSTORE PUSH1 0x24 PUSH0 REVERT JUMPDEST PUSH0 PUSH2 0xA4C DUP3 PUSH2 0x7F6 JUMP JUMPDEST SWAP2 POP PUSH2 0xA57 DUP4 PUSH2 0x7F6 JUMP JUMPDEST SWAP3 POP DUP3 DUP3 ADD SWAP1 POP DUP1 DUP3 GT ISZERO PUSH2 0xA6F JUMPI PUSH2 0xA6E PUSH2 0xA15 JUMP JUMPDEST JUMPDEST SWAP3 SWAP2 POP POP JUMP JUMPDEST PUSH2 0xA7E DUP2 PUSH2 0x7F6 JUMP JUMPDEST DUP3 MSTORE POP POP JUMP JUMPDEST PUSH0 PUSH1 0x60 DUP3 ADD SWAP1 POP PUSH2 0xA97 PUSH0 DUP4 ADD DUP7 PUSH2 0x9ED JUMP JUMPDEST PUSH2 0xAA4 PUSH1 0x20 DUP4 ADD DUP6 PUSH2 0xA75 JUMP JUMPDEST PUSH2 0xAB1 PUSH1 0x40 DUP4 ADD DUP5 PUSH2 0xA75 JUMP JUMPDEST SWAP5 SWAP4 POP POP POP POP JUMP JUMPDEST PUSH0 PUSH1 0x20 DUP3 ADD SWAP1 POP PUSH2 0xACC PUSH0 DUP4 ADD DUP5 PUSH2 0xA75 JUMP JUMPDEST SWAP3 SWAP2 POP POP JUMP JUMPDEST PUSH2 0x1B28 DUP1 PUSH2 0xADF PUSH0 CODECOPY PUSH0 RETURN INVALID PUSH1 0x80 PUSH1 0x40 MSTORE CALLVALUE DUP1 ISZERO PUSH2 0xF JUMPI PUSH0 DUP1 REVERT JUMPDEST POP PUSH1 0x4 CALLDATASIZE LT PUSH2 0x156 JUMPI PUSH0 CALLDATALOAD PUSH1 0xE0 SHR DUP1 PUSH4 0x70A08231 GT PUSH2 0xC1 JUMPI DUP1 PUSH4 0xA9059CBB GT PUSH2 0x7A JUMPI DUP1 PUSH4 0xA9059CBB EQ PUSH2 0x3A8 JUMPI DUP1 PUSH4 0xCC859378 EQ PUSH2 0x3D8 JUMPI DUP1 PUSH4 0xDD62ED3E EQ PUSH2 0x3F6 JUMPI DUP1 PUSH4 0xDF7787A4 EQ PUSH2 0x426 JUMPI DUP1 PUSH4 0xF2FDE38B EQ PUSH2 0x444 JUMPI DUP1 PUSH4 0xF3B2DB3F EQ PUSH2 0x460 JUMPI PUSH2 0x156 JUMP JUMPDEST DUP1 PUSH4 0x70A08231 EQ PUSH2 0x2F8 JUMPI DUP1 PUSH4 0x715018A6 EQ PUSH2 0x328 JUMPI DUP1 PUSH4 0x753CAFC3 EQ PUSH2 0x332 JUMPI DUP1 PUSH4 0x75F0A874 EQ PUSH2 0x34E JUMPI DUP1 PUSH4 0x8DA5CB5B EQ PUSH2 0x36C JUMPI DUP1 PUSH4 0x95D89B41 EQ PUSH2 0x38A JUMPI PUSH2 0x156 JUMP JUMPDEST DUP1 PUSH4 0x2FF2E9DC GT PUSH2 0x113 JUMPI DUP1 PUSH4 0x2FF2E9DC EQ PUSH2 0x232 JUMPI DUP1 PUSH4 0x313CE567 EQ PUSH2 0x250 JUMPI DUP1 PUSH4 0x36B4134A EQ PUSH2 0x26E JUMPI DUP1 PUSH4 0x4FBEE193 EQ PUSH2 0x28C JUMPI DUP1 PUSH4 0x52A6A9EC EQ PUSH2 0x2BC JUMPI DUP1 PUSH4 0x54AD8AEE EQ PUSH2 0x2DA JUMPI PUSH2 0x156 JUMP JUMPDEST DUP1 PUSH4 0x2AF37BB EQ PUSH2 0x15A JUMPI DUP1 PUSH4 0x6EE6AD8 EQ PUSH2 0x178 JUMPI DUP1 PUSH4 0x6FDDE03 EQ PUSH2 0x196 JUMPI DUP1 PUSH4 0x95EA7B3 EQ PUSH2 0x1B4 JUMPI DUP1 PUSH4 0x18160DDD EQ PUSH2 0x1E4 JUMPI DUP1 PUSH4 0x23B872DD EQ PUSH2 0x202 JUMPI JUMPDEST PUSH0 DUP1 REVERT JUMPDEST PUSH2 0x162 PUSH2 0x47E JUMP JUMPDEST PUSH1 0x40 MLOAD PUSH2 0x16F SWAP2 SWAP1 PUSH2 0x1368 JUMP JUMPDEST PUSH1 0x40 MLOAD DUP1 SWAP2 SUB SWAP1 RETURN JUMPDEST PUSH2 0x180 PUSH2 0x483 JUMP JUMPDEST PUSH1 0x40 MLOAD PUSH2 0x18D SWAP2 SWAP1 PUSH2 0x13C0 JUMP JUMPDEST PUSH1 0x40 MLOAD DUP1 SWAP2 SUB SWAP1 RETURN JUMPDEST PUSH2 0x19E PUSH2 0x4A8 JUMP JUMPDEST PUSH1 0x40 MLOAD PUSH2 0x1AB SWAP2 SWAP1 PUSH2 0x1449 JUMP JUMPDEST PUSH1 0x40 MLOAD DUP1 SWAP2 SUB SWAP1 RETURN JUMPDEST PUSH2 0x1CE PUSH1 0x4 DUP1 CALLDATASIZE SUB DUP2 ADD SWAP1 PUSH2 0x1C9 SWAP2 SWAP1 PUSH2 0x14C1 JUMP JUMPDEST PUSH2 0x538 JUMP JUMPDEST PUSH1 0x40 MLOAD PUSH2 0x1DB SWAP2 SWAP1 PUSH2 0x1519 JUMP JUMPDEST PUSH1 0x40 MLOAD DUP1 SWAP2 SUB SWAP1 RETURN JUMPDEST PUSH2 0x1EC PUSH2 0x55A JUMP JUMPDEST PUSH1 0x40 MLOAD PUSH2 0x1F9 SWAP2 SWAP1 PUSH2 0x1368 JUMP JUMPDEST PUSH1 0x40 MLOAD DUP1 SWAP2 SUB SWAP1 RETURN JUMPDEST PUSH2 0x21C PUSH1 0x4 DUP1 CALLDATASIZE SUB DUP2 ADD SWAP1 PUSH2 0x217 SWAP2 SWAP1 PUSH2 0x1532 JUMP JUMPDEST PUSH2 0x563 JUMP JUMPDEST PUSH1 0x40 MLOAD PUSH2 0x229 SWAP2 SWAP1 PUSH2 0x1519 JUMP JUMPDEST PUSH1 0x40 MLOAD DUP1 SWAP2 SUB SWAP1 RETURN JUMPDEST PUSH2 0x23A PUSH2 0x591 JUMP JUMPDEST PUSH1 0x40 MLOAD PUSH2 0x247 SWAP2 SWAP1 PUSH2 0x1368 JUMP JUMPDEST PUSH1 0x40 MLOAD DUP1 SWAP2 SUB SWAP1 RETURN JUMPDEST PUSH2 0x258 PUSH2 0x5A0 JUMP JUMPDEST PUSH1 0x40 MLOAD PUSH2 0x265 SWAP2 SWAP1 PUSH2 0x159D JUMP JUMPDEST PUSH1 0x40 MLOAD DUP1 SWAP2 SUB SWAP1 RETURN JUMPDEST PUSH2 0x276 PUSH2 0x5A8 JUMP JUMPDEST PUSH1 0x40 MLOAD PUSH2 0x283 SWAP2 SWAP1 PUSH2 0x1368 JUMP JUMPDEST PUSH1 0x40 MLOAD DUP1 SWAP2 SUB SWAP1 RETURN JUMPDEST PUSH2 0x2A6 PUSH1 0x4 DUP1 CALLDATASIZE SUB DUP2 ADD SWAP1 PUSH2 0x2A1 SWAP2 SWAP1 PUSH2 0x15B6 JUMP JUMPDEST PUSH2 0x5AD JUMP JUMPDEST PUSH1 0x40 MLOAD PUSH2 0x2B3 SWAP2 SWAP1 PUSH2 0x1519 JUMP JUMPDEST PUSH1 0x40 MLOAD DUP1 SWAP2 SUB SWAP1 RETURN JUMPDEST PUSH2 0x2C4 PUSH2 0x5CA JUMP JUMPDEST PUSH1 0x40 MLOAD PUSH2 0x2D1 SWAP2 SWAP1 PUSH2 0x13C0 JUMP JUMPDEST PUSH1 0x40 MLOAD DUP1 SWAP2 SUB SWAP1 RETURN JUMPDEST PUSH2 0x2E2 PUSH2 0x5EF JUMP JUMPDEST PUSH1 0x40 MLOAD PUSH2 0x2EF SWAP2 SWAP1 PUSH2 0x1368 JUMP JUMPDEST PUSH1 0x40 MLOAD DUP1 SWAP2 SUB SWAP1 RETURN JUMPDEST PUSH2 0x312 PUSH1 0x4 DUP1 CALLDATASIZE SUB DUP2 ADD SWAP1 PUSH2 0x30D SWAP2 SWAP1 PUSH2 0x15B6 JUMP JUMPDEST PUSH2 0x5F4 JUMP JUMPDEST PUSH1 0x40 MLOAD PUSH2 0x31F SWAP2 SWAP1 PUSH2 0x1368 JUMP JUMPDEST PUSH1 0x40 MLOAD DUP1 SWAP2 SUB SWAP1 RETURN JUMPDEST PUSH2 0x330 PUSH2 0x639 JUMP JUMPDEST STOP JUMPDEST PUSH2 0x34C PUSH1 0x4 DUP1 CALLDATASIZE SUB DUP2 ADD SWAP1 PUSH2 0x347 SWAP2 SWAP1 PUSH2 0x160B JUMP JUMPDEST PUSH2 0x64C JUMP JUMPDEST STOP JUMPDEST PUSH2 0x356 PUSH2 0x6AC JUMP JUMPDEST PUSH1 0x40 MLOAD PUSH2 0x363 SWAP2 SWAP1 PUSH2 0x13C0 JUMP JUMPDEST PUSH1 0x40 MLOAD DUP1 SWAP2 SUB SWAP1 RETURN JUMPDEST PUSH2 0x374 PUSH2 0x6D1 JUMP JUMPDEST PUSH1 0x40 MLOAD PUSH2 0x381 SWAP2 SWAP1 PUSH2 0x13C0 JUMP JUMPDEST PUSH1 0x40 MLOAD DUP1 SWAP2 SUB SWAP1 RETURN JUMPDEST PUSH2 0x392 PUSH2 0x6F9 JUMP JUMPDEST PUSH1 0x40 MLOAD PUSH2 0x39F SWAP2 SWAP1 PUSH2 0x1449 JUMP JUMPDEST PUSH1 0x40 MLOAD DUP1 SWAP2 SUB SWAP1 RETURN JUMPDEST PUSH2 0x3C2 PUSH1 0x4 DUP1 CALLDATASIZE SUB DUP2 ADD SWAP1 PUSH2 0x3BD SWAP2 SWAP1 PUSH2 0x14C1 JUMP JUMPDEST PUSH2 0x789 JUMP JUMPDEST PUSH1 0x40 MLOAD PUSH2 0x3CF SWAP2 SWAP1 PUSH2 0x1519 JUMP JUMPDEST PUSH1 0x40 MLOAD DUP1 SWAP2 SUB SWAP1 RETURN JUMPDEST PUSH2 0x3E0 PUSH2 0x87F JUMP JUMPDEST PUSH1 0x40 MLOAD PUSH2 0x3ED SWAP2 SWAP1 PUSH2 0x13C0 JUMP JUMPDEST PUSH1 0x40 MLOAD DUP1 SWAP2 SUB SWAP1 RETURN JUMPDEST PUSH2 0x410 PUSH1 0x4 DUP1 CALLDATASIZE SUB DUP2 ADD SWAP1 PUSH2 0x40B SWAP2 SWAP1 PUSH2 0x1649 JUMP JUMPDEST PUSH2 0x8A4 JUMP JUMPDEST PUSH1 0x40 MLOAD PUSH2 0x41D SWAP2 SWAP1 PUSH2 0x1368 JUMP JUMPDEST PUSH1 0x40 MLOAD DUP1 SWAP2 SUB SWAP1 RETURN JUMPDEST PUSH2 0x42E PUSH2 0x926 JUMP JUMPDEST PUSH1 0x40 MLOAD PUSH2 0x43B SWAP2 SWAP1 PUSH2 0x1368 JUMP JUMPDEST PUSH1 0x40 MLOAD DUP1 SWAP2 SUB SWAP1 RETURN JUMPDEST PUSH2 0x45E PUSH1 0x4 DUP1 CALLDATASIZE SUB DUP2 ADD SWAP1 PUSH2 0x459 SWAP2 SWAP1 PUSH2 0x15B6 JUMP JUMPDEST PUSH2 0x94D JUMP JUMPDEST STOP JUMPDEST PUSH2 0x468 PUSH2 0x9D1 JUMP JUMPDEST PUSH1 0x40 MLOAD PUSH2 0x475 SWAP2 SWAP1 PUSH2 0x1368 JUMP JUMPDEST PUSH1 0x40 MLOAD DUP1 SWAP2 SUB SWAP1 RETURN JUMPDEST PUSH1 0xA DUP2 JUMP JUMPDEST PUSH1 0xA PUSH0 SWAP1 SLOAD SWAP1 PUSH2 0x100 EXP SWAP1 DIV PUSH20 0xFFFFFFFFFFFFFFFFFFFFFFFFFFFFFFFFFFFFFFFF AND DUP2 JUMP JUMPDEST PUSH1 0x60 PUSH1 0x3 DUP1 SLOAD PUSH2 0x4B7 SWAP1 PUSH2 0x16B4 JUMP JUMPDEST DUP1 PUSH1 0x1F ADD PUSH1 0x20 DUP1 SWAP2 DIV MUL PUSH1 0x20 ADD PUSH1 0x40 MLOAD SWAP1 DUP2 ADD PUSH1 0x40 MSTORE DUP1 SWAP3 SWAP2 SWAP1 DUP2 DUP2 MSTORE PUSH1 0x20 ADD DUP3 DUP1 SLOAD PUSH2 0x4E3 SWAP1 PUSH2 0x16B4 JUMP JUMPDEST DUP1 ISZERO PUSH2 0x52E JUMPI DUP1 PUSH1 0x1F LT PUSH2 0x505 JUMPI PUSH2 0x100 DUP1 DUP4 SLOAD DIV MUL DUP4 MSTORE SWAP2 PUSH1 0x20 ADD SWAP2 PUSH2 0x52E JUMP JUMPDEST DUP3 ADD SWAP2 SWAP1 PUSH0 MSTORE PUSH1 0x20 PUSH0 KECCAK256 SWAP1 JUMPDEST DUP2 SLOAD DUP2 MSTORE SWAP1 PUSH1 0x1 ADD SWAP1 PUSH1 0x20 ADD DUP1 DUP4 GT PUSH2 0x511 JUMPI DUP3 SWAP1 SUB PUSH1 0x1F AND DUP3 ADD SWAP2 JUMPDEST POP POP POP POP POP SWAP1 POP SWAP1 JUMP JUMPDEST PUSH0 DUP1 PUSH2 0x542 PUSH2 0x9F9 JUMP JUMPDEST SWAP1 POP PUSH2 0x54F DUP2 DUP6 DUP6 PUSH2 0xA00 JUMP JUMPDEST PUSH1 0x1 SWAP2 POP POP SWAP3 SWAP2 POP POP JUMP JUMPDEST PUSH0 PUSH1 0x2 SLOAD SWAP1 POP SWAP1 JUMP JUMPDEST PUSH0 DUP1 PUSH2 0x56D PUSH2 0x9F9 JUMP JUMPDEST SWAP1 POP PUSH2 0x57A DUP6 DUP3 DUP6 PUSH2 0xA12 JUMP JUMPDEST PUSH2 0x585 DUP6 DUP6 DUP6 PUSH2 0xAA5 JUMP JUMPDEST PUSH1 0x1 SWAP2 POP POP SWAP4 SWAP3 POP POP POP JUMP JUMPDEST PUSH11 0x1A784379D99DB42000000 DUP2 JUMP JUMPDEST PUSH0 PUSH1 0x12 SWAP1 POP SWAP1 JUMP JUMPDEST PUSH1 0xD DUP2 JUMP JUMPDEST PUSH1 0xB PUSH1 0x20 MSTORE DUP1 PUSH0 MSTORE PUSH1 0x40 PUSH0 KECCAK256 PUSH0 SWAP2 POP SLOAD SWAP1 PUSH2 0x100 EXP SWAP1 DIV PUSH1 0xFF AND DUP2 JUMP JUMPDEST PUSH1 0x7 PUSH0 SWAP1 SLOAD SWAP1 PUSH2 0x100 EXP SWAP1 DIV PUSH20 0xFFFFFFFFFFFFFFFFFFFFFFFFFFFFFFFFFFFFFFFF AND DUP2 JUMP JUMPDEST PUSH1 0xC DUP2 JUMP JUMPDEST PUSH0 DUP1 PUSH0 DUP4 PUSH20 0xFFFFFFFFFFFFFFFFFFFFFFFFFFFFFFFFFFFFFFFF AND PUSH20 0xFFFFFFFFFFFFFFFFFFFFFFFFFFFFFFFFFFFFFFFF AND DUP2 MSTORE PUSH1 0x20 ADD SWAP1 DUP2 MSTORE PUSH1 0x20 ADD PUSH0 KECCAK256 SLOAD SWAP1 POP SWAP2 SWAP1 POP JUMP JUMPDEST PUSH2 0x641 PUSH2 0xB95 JUMP JUMPDEST PUSH2 0x64A PUSH0 PUSH2 0xC1C JUMP JUMPDEST JUMP JUMPDEST PUSH2 0x654 PUSH2 0xB95 JUMP JUMPDEST DUP1 PUSH1 0xB PUSH0 DUP5 PUSH20 0xFFFFFFFFFFFFFFFFFFFFFFFFFFFFFFFFFFFFFFFF AND PUSH20 0xFFFFFFFFFFFFFFFFFFFFFFFFFFFFFFFFFFFFFFFF AND DUP2 MSTORE PUSH1 0x20 ADD SWAP1 DUP2 MSTORE PUSH1 0x20 ADD PUSH0 KECCAK256 PUSH0 PUSH2 0x100 EXP DUP2 SLOAD DUP2 PUSH1 0xFF MUL NOT AND SWAP1 DUP4 ISZERO ISZERO MUL OR SWAP1 SSTORE POP POP POP JUMP JUMPDEST PUSH1 0x9 PUSH0 SWAP1 SLOAD SWAP1 PUSH2 0x100 EXP SWAP1 DIV PUSH20 0xFFFFFFFFFFFFFFFFFFFFFFFFFFFFFFFFFFFFFFFF AND DUP2 JUMP JUMPDEST PUSH0 PUSH1 0x5 PUSH0 SWAP1 SLOAD SWAP1 PUSH2 0x100 EXP SWAP1 DIV PUSH20 0xFFFFFFFFFFFFFFFFFFFFFFFFFFFFFFFFFFFFFFFF AND SWAP1 POP SWAP1 JUMP JUMPDEST PUSH1 0x60 PUSH1 0x4 DUP1 SLOAD PUSH2 0x708 SWAP1 PUSH2 0x16B4 JUMP JUMPDEST DUP1 PUSH1 0x1F ADD PUSH1 0x20 DUP1 SWAP2 DIV MUL PUSH1 0x20 ADD PUSH1 0x40 MLOAD SWAP1 DUP2 ADD PUSH1 0x40 MSTORE DUP1 SWAP3 SWAP2 SWAP1 DUP2 DUP2 MSTORE PUSH1 0x20 ADD DUP3 DUP1 SLOAD PUSH2 0x734 SWAP1 PUSH2 0x16B4 JUMP JUMPDEST DUP1 ISZERO PUSH2 0x77F JUMPI DUP1 PUSH1 0x1F LT PUSH2 0x756 JUMPI PUSH2 0x100 DUP1 DUP4 SLOAD DIV MUL DUP4 MSTORE SWAP2 PUSH1 0x20 ADD SWAP2 PUSH2 0x77F JUMP JUMPDEST DUP3 ADD SWAP2 SWAP1 PUSH0 MSTORE PUSH1 0x20 PUSH0 KECCAK256 SWAP1 JUMPDEST DUP2 SLOAD DUP2 MSTORE SWAP1 PUSH1 0x1 ADD SWAP1 PUSH1 0x20 ADD DUP1 DUP4 GT PUSH2 0x762 JUMPI DUP3 SWAP1 SUB PUSH1 0x1F AND DUP3 ADD SWAP2 JUMPDEST POP POP POP POP POP SWAP1 POP SWAP1 JUMP JUMPDEST PUSH0 PUSH1 0x64 PUSH1 0x1 PUSH11 0x1A784379D99DB42000000 PUSH2 0x7A4 SWAP2 SWAP1 PUSH2 0x1711 JUMP JUMPDEST PUSH2 0x7AE SWAP2 SWAP1 PUSH2 0x177F JUMP JUMPDEST DUP3 PUSH2 0x7B8 DUP6 PUSH2 0x5F4 JUMP JUMPDEST PUSH2 0x7C2 SWAP2 SWAP1 PUSH2 0x17AF JUMP JUMPDEST GT ISZERO PUSH2 0x803 JUMPI PUSH1 0x40 MLOAD PUSH32 0x8C379A000000000000000000000000000000000000000000000000000000000 DUP2 MSTORE PUSH1 0x4 ADD PUSH2 0x7FA SWAP1 PUSH2 0x182C JUMP JUMPDEST PUSH1 0x40 MLOAD DUP1 SWAP2 SUB SWAP1 REVERT JUMPDEST PUSH2 0x2710 PUSH1 0x5 PUSH11 0x1A784379D99DB42000000 PUSH2 0x81E SWAP2 SWAP1 PUSH2 0x1711 JUMP JUMPDEST PUSH2 0x828 SWAP2 SWAP1 PUSH2 0x177F JUMP JUMPDEST DUP3 GT ISZERO PUSH2 0x86A JUMPI PUSH1 0x40 MLOAD PUSH32 0x8C379A000000000000000000000000000000000000000000000000000000000 DUP2 MSTORE PUSH1 0x4 ADD PUSH2 0x861 SWAP1 PUSH2 0x1894 JUMP JUMPDEST PUSH1 0x40 MLOAD DUP1 SWAP2 SUB SWAP1 REVERT JUMPDEST PUSH2 0x875 CALLER DUP5 DUP5 PUSH2 0xCDF JUMP JUMPDEST PUSH1 0x1 SWAP1 POP SWAP3 SWAP2 POP POP JUMP JUMPDEST PUSH1 0x8 PUSH0 SWAP1 SLOAD SWAP1 PUSH2 0x100 EXP SWAP1 DIV PUSH20 0xFFFFFFFFFFFFFFFFFFFFFFFFFFFFFFFFFFFFFFFF AND DUP2 JUMP JUMPDEST PUSH0 PUSH1 0x1 PUSH0 DUP5 PUSH20 0xFFFFFFFFFFFFFFFFFFFFFFFFFFFFFFFFFFFFFFFF AND PUSH20 0xFFFFFFFFFFFFFFFFFFFFFFFFFFFFFFFFFFFFFFFF AND DUP2 MSTORE PUSH1 0x20 ADD SWAP1 DUP2 MSTORE PUSH1 0x20 ADD PUSH0 KECCAK256 PUSH0 DUP4 PUSH20 0xFFFFFFFFFFFFFFFFFFFFFFFFFFFFFFFFFFFFFFFF AND PUSH20 0xFFFFFFFFFFFFFFFFFFFFFFFFFFFFFFFFFFFFFFFF AND DUP2 MSTORE PUSH1 0x20 ADD SWAP1 DUP2 MSTORE PUSH1 0x20 ADD PUSH0 KECCAK256 SLOAD SWAP1 POP SWAP3 SWAP2 POP POP JUMP JUMPDEST PUSH1 0x64 PUSH1 0x1 PUSH11 0x1A784379D99DB42000000 PUSH2 0x940 SWAP2 SWAP1 PUSH2 0x1711 JUMP JUMPDEST PUSH2 0x94A SWAP2 SWAP1 PUSH2 0x177F JUMP JUMPDEST DUP2 JUMP JUMPDEST PUSH2 0x955 PUSH2 0xB95 JUMP JUMPDEST PUSH0 PUSH20 0xFFFFFFFFFFFFFFFFFFFFFFFFFFFFFFFFFFFFFFFF AND DUP2 PUSH20 0xFFFFFFFFFFFFFFFFFFFFFFFFFFFFFFFFFFFFFFFF AND SUB PUSH2 0x9C5 JUMPI PUSH0 PUSH1 0x40 MLOAD PUSH32 0x1E4FBDF700000000000000000000000000000000000000000000000000000000 DUP2 MSTORE PUSH1 0x4 ADD PUSH2 0x9BC SWAP2 SWAP1 PUSH2 0x13C0 JUMP JUMPDEST PUSH1 0x40 MLOAD DUP1 SWAP2 SUB SWAP1 REVERT JUMPDEST PUSH2 0x9CE DUP2 PUSH2 0xC1C JUMP JUMPDEST POP JUMP JUMPDEST PUSH2 0x2710 PUSH1 0x5 PUSH11 0x1A784379D99DB42000000 PUSH2 0x9EC SWAP2 SWAP1 PUSH2 0x1711 JUMP JUMPDEST PUSH2 0x9F6 SWAP2 SWAP1 PUSH2 0x177F JUMP JUMPDEST DUP2 JUMP JUMPDEST PUSH0 CALLER SWAP1 POP SWAP1 JUMP JUMPDEST PUSH2 0xA0D DUP4 DUP4 DUP4 PUSH1 0x1 PUSH2 0xF68 JUMP JUMPDEST POP POP POP JUMP JUMPDEST PUSH0 PUSH2 0xA1D DUP5 DUP5 PUSH2 0x8A4 JUMP JUMPDEST SWAP1 POP PUSH32 0xFFFFFFFFFFFFFFFFFFFFFFFFFFFFFFFFFFFFFFFFFFFFFFFFFFFFFFFFFFFFFFFF DUP2 LT ISZERO PUSH2 0xA9F JUMPI DUP2 DUP2 LT ISZERO PUSH2 0xA90 JUMPI DUP3 DUP2 DUP4 PUSH1 0x40 MLOAD PUSH32 0xFB8F41B200000000000000000000000000000000000000000000000000000000 DUP2 MSTORE PUSH1 0x4 ADD PUSH2 0xA87 SWAP4 SWAP3 SWAP2 SWAP1 PUSH2 0x18B2 JUMP JUMPDEST PUSH1 0x40 MLOAD DUP1 SWAP2 SUB SWAP1 REVERT JUMPDEST PUSH2 0xA9E DUP5 DUP5 DUP5 DUP5 SUB PUSH0 PUSH2 0xF68 JUMP JUMPDEST JUMPDEST POP POP POP POP JUMP JUMPDEST PUSH0 PUSH20 0xFFFFFFFFFFFFFFFFFFFFFFFFFFFFFFFFFFFFFFFF AND DUP4 PUSH20 0xFFFFFFFFFFFFFFFFFFFFFFFFFFFFFFFFFFFFFFFF AND SUB PUSH2 0xB15 JUMPI PUSH0 PUSH1 0x40 MLOAD PUSH32 0x96C6FD1E00000000000000000000000000000000000000000000000000000000 DUP2 MSTORE PUSH1 0x4 ADD PUSH2 0xB0C SWAP2 SWAP1 PUSH2 0x13C0 JUMP JUMPDEST PUSH1 0x40 MLOAD DUP1 SWAP2 SUB SWAP1 REVERT JUMPDEST PUSH0 PUSH20 0xFFFFFFFFFFFFFFFFFFFFFFFFFFFFFFFFFFFFFFFF AND DUP3 PUSH20 0xFFFFFFFFFFFFFFFFFFFFFFFFFFFFFFFFFFFFFFFF AND SUB PUSH2 0xB85 JUMPI PUSH0 PUSH1 0x40 MLOAD PUSH32 0xEC442F0500000000000000000000000000000000000000000000000000000000 DUP2 MSTORE PUSH1 0x4 ADD PUSH2 0xB7C SWAP2 SWAP1 PUSH2 0x13C0 JUMP JUMPDEST PUSH1 0x40 MLOAD DUP1 SWAP2 SUB SWAP1 REVERT JUMPDEST PUSH2 0xB90 DUP4 DUP4 DUP4 PUSH2 0x1137 JUMP JUMPDEST POP POP POP JUMP JUMPDEST PUSH2 0xB9D PUSH2 0x9F9 JUMP JUMPDEST PUSH20 0xFFFFFFFFFFFFFFFFFFFFFFFFFFFFFFFFFFFFFFFF AND PUSH2 0xBBB PUSH2 0x6D1 JUMP JUMPDEST PUSH20 0xFFFFFFFFFFFFFFFFFFFFFFFFFFFFFFFFFFFFFFFF AND EQ PUSH2 0xC1A JUMPI PUSH2 0xBDE PUSH2 0x9F9 JUMP JUMPDEST PUSH1 0x40 MLOAD PUSH32 0x118CDAA700000000000000000000000000000000000000000000000000000000 DUP2 MSTORE PUSH1 0x4 ADD PUSH2 0xC11 SWAP2 SWAP1 PUSH2 0x13C0 JUMP JUMPDEST PUSH1 0x40 MLOAD DUP1 SWAP2 SUB SWAP1 REVERT JUMPDEST JUMP JUMPDEST PUSH0 PUSH1 0x5 PUSH0 SWAP1 SLOAD SWAP1 PUSH2 0x100 EXP SWAP1 DIV PUSH20 0xFFFFFFFFFFFFFFFFFFFFFFFFFFFFFFFFFFFFFFFF AND SWAP1 POP DUP2 PUSH1 0x5 PUSH0 PUSH2 0x100 EXP DUP2 SLOAD DUP2 PUSH20 0xFFFFFFFFFFFFFFFFFFFFFFFFFFFFFFFFFFFFFFFF MUL NOT AND SWAP1 DUP4 PUSH20 0xFFFFFFFFFFFFFFFFFFFFFFFFFFFFFFFFFFFFFFFF AND MUL OR SWAP1 SSTORE POP DUP2 PUSH20 0xFFFFFFFFFFFFFFFFFFFFFFFFFFFFFFFFFFFFFFFF AND DUP2 PUSH20 0xFFFFFFFFFFFFFFFFFFFFFFFFFFFFFFFFFFFFFFFF AND PUSH32 0x8BE0079C531659141344CD1FD0A4F28419497F9722A3DAAFE3B4186F6B6457E0 PUSH1 0x40 MLOAD PUSH1 0x40 MLOAD DUP1 SWAP2 SUB SWAP1 LOG3 POP POP JUMP JUMPDEST PUSH0 PUSH1 0x64 PUSH1 0xC DUP4 PUSH2 0xCEF SWAP2 SWAP1 PUSH2 0x1711 JUMP JUMPDEST PUSH2 0xCF9 SWAP2 SWAP1 PUSH2 0x177F JUMP JUMPDEST SWAP1 POP PUSH0 DUP2 DUP4 PUSH2 0xD08 SWAP2 SWAP1 PUSH2 0x18E7 JUMP JUMPDEST SWAP1 POP PUSH2 0xD4E DUP6 PUSH1 0x7 PUSH0 SWAP1 SLOAD SWAP1 PUSH2 0x100 EXP SWAP1 DIV PUSH20 0xFFFFFFFFFFFFFFFFFFFFFFFFFFFFFFFFFFFFFFFF AND PUSH1 0xC PUSH1 0x4 DUP7 PUSH2 0xD3F SWAP2 SWAP1 PUSH2 0x1711 JUMP JUMPDEST PUSH2 0xD49 SWAP2 SWAP1 PUSH2 0x177F JUMP JUMPDEST PUSH2 0xAA5 JUMP JUMPDEST PUSH32 0x6E232B0ACF46272DACF889AF6767574775A324B133D42B3B8CFFA9CD13159984 PUSH1 0xC PUSH1 0x4 DUP5 PUSH2 0xD7E SWAP2 SWAP1 PUSH2 0x1711 JUMP JUMPDEST PUSH2 0xD88 SWAP2 SWAP1 PUSH2 0x177F JUMP JUMPDEST PUSH1 0x40 MLOAD PUSH2 0xD95 SWAP2 SWAP1 PUSH2 0x1964 JUMP JUMPDEST PUSH1 0x40 MLOAD DUP1 SWAP2 SUB SWAP1 LOG1 PUSH2 0xDE1 DUP6 PUSH1 0x8 PUSH0 SWAP1 SLOAD SWAP1 PUSH2 0x100 EXP SWAP1 DIV PUSH20 0xFFFFFFFFFFFFFFFFFFFFFFFFFFFFFFFFFFFFFFFF AND PUSH1 0xC PUSH1 0x1 DUP7 PUSH2 0xDD2 SWAP2 SWAP1 PUSH2 0x1711 JUMP JUMPDEST PUSH2 0xDDC SWAP2 SWAP1 PUSH2 0x177F JUMP JUMPDEST PUSH2 0xAA5 JUMP JUMPDEST PUSH32 0x6E232B0ACF46272DACF889AF6767574775A324B133D42B3B8CFFA9CD13159984 PUSH1 0xC PUSH1 0x1 DUP5 PUSH2 0xE11 SWAP2 SWAP1 PUSH2 0x1711 JUMP JUMPDEST PUSH2 0xE1B SWAP2 SWAP1 PUSH2 0x177F JUMP JUMPDEST PUSH1 0x40 MLOAD PUSH2 0xE28 SWAP2 SWAP1 PUSH2 0x19DA JUMP JUMPDEST PUSH1 0x40 MLOAD DUP1 SWAP2 SUB SWAP1 LOG1 PUSH2 0xE74 DUP6 PUSH1 0x9 PUSH0 SWAP1 SLOAD SWAP1 PUSH2 0x100 EXP SWAP1 DIV PUSH20 0xFFFFFFFFFFFFFFFFFFFFFFFFFFFFFFFFFFFFFFFF AND PUSH1 0xC PUSH1 0x4 DUP7 PUSH2 0xE65 SWAP2 SWAP1 PUSH2 0x1711 JUMP JUMPDEST PUSH2 0xE6F SWAP2 SWAP1 PUSH2 0x177F JUMP JUMPDEST PUSH2 0xAA5 JUMP JUMPDEST PUSH32 0x6E232B0ACF46272DACF889AF6767574775A324B133D42B3B8CFFA9CD13159984 PUSH1 0xC PUSH1 0x4 DUP5 PUSH2 0xEA4 SWAP2 SWAP1 PUSH2 0x1711 JUMP JUMPDEST PUSH2 0xEAE SWAP2 SWAP1 PUSH2 0x177F JUMP JUMPDEST PUSH1 0x40 MLOAD PUSH2 0xEBB SWAP2 SWAP1 PUSH2 0x1A50 JUMP JUMPDEST PUSH1 0x40 MLOAD DUP1 SWAP2 SUB SWAP1 LOG1 PUSH2 0xF07 DUP6 PUSH1 0xA PUSH0 SWAP1 SLOAD SWAP1 PUSH2 0x100 EXP SWAP1 DIV PUSH20 0xFFFFFFFFFFFFFFFFFFFFFFFFFFFFFFFFFFFFFFFF AND PUSH1 0xC PUSH1 0x3 DUP7 PUSH2 0xEF8 SWAP2 SWAP1 PUSH2 0x1711 JUMP JUMPDEST PUSH2 0xF02 SWAP2 SWAP1 PUSH2 0x177F JUMP JUMPDEST PUSH2 0xAA5 JUMP JUMPDEST PUSH32 0x6E232B0ACF46272DACF889AF6767574775A324B133D42B3B8CFFA9CD13159984 PUSH1 0xC PUSH1 0x3 DUP5 PUSH2 0xF37 SWAP2 SWAP1 PUSH2 0x1711 JUMP JUMPDEST PUSH2 0xF41 SWAP2 SWAP1 PUSH2 0x177F JUMP JUMPDEST PUSH1 0x40 MLOAD PUSH2 0xF4E SWAP2 SWAP1 PUSH2 0x1AC6 JUMP JUMPDEST PUSH1 0x40 MLOAD DUP1 SWAP2 SUB SWAP1 LOG1 PUSH2 0xF61 DUP6 DUP6 DUP4 PUSH2 0xAA5 JUMP JUMPDEST POP POP POP POP POP JUMP JUMPDEST PUSH0 PUSH20 0xFFFFFFFFFFFFFFFFFFFFFFFFFFFFFFFFFFFFFFFF AND DUP5 PUSH20 0xFFFFFFFFFFFFFFFFFFFFFFFFFFFFFFFFFFFFFFFF AND SUB PUSH2 0xFD8 JUMPI PUSH0 PUSH1 0x40 MLOAD PUSH32 0xE602DF0500000000000000000000000000000000000000000000000000000000 DUP2 MSTORE PUSH1 0x4 ADD PUSH2 0xFCF SWAP2 SWAP1 PUSH2 0x13C0 JUMP JUMPDEST PUSH1 0x40 MLOAD DUP1 SWAP2 SUB SWAP1 REVERT JUMPDEST PUSH0 PUSH20 0xFFFFFFFFFFFFFFFFFFFFFFFFFFFFFFFFFFFFFFFF AND DUP4 PUSH20 0xFFFFFFFFFFFFFFFFFFFFFFFFFFFFFFFFFFFFFFFF AND SUB PUSH2 0x1048 JUMPI PUSH0 PUSH1 0x40 MLOAD PUSH32 0x94280D6200000000000000000000000000000000000000000000000000000000 DUP2 MSTORE PUSH1 0x4 ADD PUSH2 0x103F SWAP2 SWAP1 PUSH2 0x13C0 JUMP JUMPDEST PUSH1 0x40 MLOAD DUP1 SWAP2 SUB SWAP1 REVERT JUMPDEST DUP2 PUSH1 0x1 PUSH0 DUP7 PUSH20 0xFFFFFFFFFFFFFFFFFFFFFFFFFFFFFFFFFFFFFFFF AND PUSH20 0xFFFFFFFFFFFFFFFFFFFFFFFFFFFFFFFFFFFFFFFF AND DUP2 MSTORE PUSH1 0x20 ADD SWAP1 DUP2 MSTORE PUSH1 0x20 ADD PUSH0 KECCAK256 PUSH0 DUP6 PUSH20 0xFFFFFFFFFFFFFFFFFFFFFFFFFFFFFFFFFFFFFFFF AND PUSH20 0xFFFFFFFFFFFFFFFFFFFFFFFFFFFFFFFFFFFFFFFF AND DUP2 MSTORE PUSH1 0x20 ADD SWAP1 DUP2 MSTORE PUSH1 0x20 ADD PUSH0 KECCAK256 DUP2 SWAP1 SSTORE POP DUP1 ISZERO PUSH2 0x1131 JUMPI DUP3 PUSH20 0xFFFFFFFFFFFFFFFFFFFFFFFFFFFFFFFFFFFFFFFF AND DUP5 PUSH20 0xFFFFFFFFFFFFFFFFFFFFFFFFFFFFFFFFFFFFFFFF AND PUSH32 0x8C5BE1E5EBEC7D5BD14F71427D1E84F3DD0314C0F7B2291E5B200AC8C7C3B925 DUP5 PUSH1 0x40 MLOAD PUSH2 0x1128 SWAP2 SWAP1 PUSH2 0x1368 JUMP JUMPDEST PUSH1 0x40 MLOAD DUP1 SWAP2 SUB SWAP1 LOG3 JUMPDEST POP POP POP POP JUMP JUMPDEST PUSH0 PUSH20 0xFFFFFFFFFFFFFFFFFFFFFFFFFFFFFFFFFFFFFFFF AND DUP4 PUSH20 0xFFFFFFFFFFFFFFFFFFFFFFFFFFFFFFFFFFFFFFFF AND SUB PUSH2 0x1187 JUMPI DUP1 PUSH1 0x2 PUSH0 DUP3 DUP3 SLOAD PUSH2 0x117B SWAP2 SWAP1 PUSH2 0x17AF JUMP JUMPDEST SWAP3 POP POP DUP2 SWAP1 SSTORE POP PUSH2 0x1255 JUMP JUMPDEST PUSH0 DUP1 PUSH0 DUP6 PUSH20 0xFFFFFFFFFFFFFFFFFFFFFFFFFFFFFFFFFFFFFFFF AND PUSH20 0xFFFFFFFFFFFFFFFFFFFFFFFFFFFFFFFFFFFFFFFF AND DUP2 MSTORE PUSH1 0x20 ADD SWAP1 DUP2 MSTORE PUSH1 0x20 ADD PUSH0 KECCAK256 SLOAD SWAP1 POP DUP2 DUP2 LT ISZERO PUSH2 0x1210 JUMPI DUP4 DUP2 DUP4 PUSH1 0x40 MLOAD PUSH32 0xE450D38C00000000000000000000000000000000000000000000000000000000 DUP2 MSTORE PUSH1 0x4 ADD PUSH2 0x1207 SWAP4 SWAP3 SWAP2 SWAP1 PUSH2 0x18B2 JUMP JUMPDEST PUSH1 0x40 MLOAD DUP1 SWAP2 SUB SWAP1 REVERT JUMPDEST DUP2 DUP2 SUB PUSH0 DUP1 DUP7 PUSH20 0xFFFFFFFFFFFFFFFFFFFFFFFFFFFFFFFFFFFFFFFF AND PUSH20 0xFFFFFFFFFFFFFFFFFFFFFFFFFFFFFFFFFFFFFFFF AND DUP2 MSTORE PUSH1 0x20 ADD SWAP1 DUP2 MSTORE PUSH1 0x20 ADD PUSH0 KECCAK256 DUP2 SWAP1 SSTORE POP POP JUMPDEST PUSH0 PUSH20 0xFFFFFFFFFFFFFFFFFFFFFFFFFFFFFFFFFFFFFFFF AND DUP3 PUSH20 0xFFFFFFFFFFFFFFFFFFFFFFFFFFFFFFFFFFFFFFFF AND SUB PUSH2 0x129C JUMPI DUP1 PUSH1 0x2 PUSH0 DUP3 DUP3 SLOAD SUB SWAP3 POP POP DUP2 SWAP1 SSTORE POP PUSH2 0x12E6 JUMP JUMPDEST DUP1 PUSH0 DUP1 DUP5 PUSH20 0xFFFFFFFFFFFFFFFFFFFFFFFFFFFFFFFFFFFFFFFF AND PUSH20 0xFFFFFFFFFFFFFFFFFFFFFFFFFFFFFFFFFFFFFFFF AND DUP2 MSTORE PUSH1 0x20 ADD SWAP1 DUP2 MSTORE PUSH1 0x20 ADD PUSH0 KECCAK256 PUSH0 DUP3 DUP3 SLOAD ADD SWAP3 POP POP DUP2 SWAP1 SSTORE POP JUMPDEST DUP2 PUSH20 0xFFFFFFFFFFFFFFFFFFFFFFFFFFFFFFFFFFFFFFFF AND DUP4 PUSH20 0xFFFFFFFFFFFFFFFFFFFFFFFFFFFFFFFFFFFFFFFF AND PUSH32 0xDDF252AD1BE2C89B69C2B068FC378DAA952BA7F163C4A11628F55A4DF523B3EF DUP4 PUSH1 0x40 MLOAD PUSH2 0x1343 SWAP2 SWAP1 PUSH2 0x1368 JUMP JUMPDEST PUSH1 0x40 MLOAD DUP1 SWAP2 SUB SWAP1 LOG3 POP POP POP JUMP JUMPDEST PUSH0 DUP2 SWAP1 POP SWAP2 SWAP1 POP JUMP JUMPDEST PUSH2 0x1362 DUP2 PUSH2 0x1350 JUMP JUMPDEST DUP3 MSTORE POP POP JUMP JUMPDEST PUSH0 PUSH1 0x20 DUP3 ADD SWAP1 POP PUSH2 0x137B PUSH0 DUP4 ADD DUP5 PUSH2 0x1359 JUMP JUMPDEST SWAP3 SWAP2 POP POP JUMP JUMPDEST PUSH0 PUSH20 0xFFFFFFFFFFFFFFFFFFFFFFFFFFFFFFFFFFFFFFFF DUP3 AND SWAP1 POP SWAP2 SWAP1 POP JUMP JUMPDEST PUSH0 PUSH2 0x13AA DUP3 PUSH2 0x1381 JUMP JUMPDEST SWAP1 POP SWAP2 SWAP1 POP JUMP JUMPDEST PUSH2 0x13BA DUP2 PUSH2 0x13A0 JUMP JUMPDEST DUP3 MSTORE POP POP JUMP JUMPDEST PUSH0 PUSH1 0x20 DUP3 ADD SWAP1 POP PUSH2 0x13D3 PUSH0 DUP4 ADD DUP5 PUSH2 0x13B1 JUMP JUMPDEST SWAP3 SWAP2 POP POP JUMP JUMPDEST PUSH0 DUP2 MLOAD SWAP1 POP SWAP2 SWAP1 POP JUMP JUMPDEST PUSH0 DUP3 DUP3 MSTORE PUSH1 0x20 DUP3 ADD SWAP1 POP SWAP3 SWAP2 POP POP JUMP JUMPDEST DUP3 DUP2 DUP4 MCOPY PUSH0 DUP4 DUP4 ADD MSTORE POP POP POP JUMP JUMPDEST PUSH0 PUSH1 0x1F NOT PUSH1 0x1F DUP4 ADD AND SWAP1 POP SWAP2 SWAP1 POP JUMP JUMPDEST PUSH0 PUSH2 0x141B DUP3 PUSH2 0x13D9 JUMP JUMPDEST PUSH2 0x1425 DUP2 DUP6 PUSH2 0x13E3 JUMP JUMPDEST SWAP4 POP PUSH2 0x1435 DUP2 DUP6 PUSH1 0x20 DUP7 ADD PUSH2 0x13F3 JUMP JUMPDEST PUSH2 0x143E DUP2 PUSH2 0x1401 JUMP JUMPDEST DUP5 ADD SWAP2 POP POP SWAP3 SWAP2 POP POP JUMP JUMPDEST PUSH0 PUSH1 0x20 DUP3 ADD SWAP1 POP DUP2 DUP2 SUB PUSH0 DUP4 ADD MSTORE PUSH2 0x1461 DUP2 DUP5 PUSH2 0x1411 JUMP JUMPDEST SWAP1 POP SWAP3 SWAP2 POP POP JUMP JUMPDEST PUSH0 DUP1 REVERT JUMPDEST PUSH2 0x1476 DUP2 PUSH2 0x13A0 JUMP JUMPDEST DUP2 EQ PUSH2 0x1480 JUMPI PUSH0 DUP1 REVERT JUMPDEST POP JUMP JUMPDEST PUSH0 DUP2 CALLDATALOAD SWAP1 POP PUSH2 0x1491 DUP2 PUSH2 0x146D JUMP JUMPDEST SWAP3 SWAP2 POP POP JUMP JUMPDEST PUSH2 0x14A0 DUP2 PUSH2 0x1350 JUMP JUMPDEST DUP2 EQ PUSH2 0x14AA JUMPI PUSH0 DUP1 REVERT JUMPDEST POP JUMP JUMPDEST PUSH0 DUP2 CALLDATALOAD SWAP1 POP PUSH2 0x14BB DUP2 PUSH2 0x1497 JUMP JUMPDEST SWAP3 SWAP2 POP POP JUMP JUMPDEST PUSH0 DUP1 PUSH1 0x40 DUP4 DUP6 SUB SLT ISZERO PUSH2 0x14D7 JUMPI PUSH2 0x14D6 PUSH2 0x1469 JUMP JUMPDEST JUMPDEST PUSH0 PUSH2 0x14E4 DUP6 DUP3 DUP7 ADD PUSH2 0x1483 JUMP JUMPDEST SWAP3 POP POP PUSH1 0x20 PUSH2 0x14F5 DUP6 DUP3 DUP7 ADD PUSH2 0x14AD JUMP JUMPDEST SWAP2 POP POP SWAP3 POP SWAP3 SWAP1 POP JUMP JUMPDEST PUSH0 DUP2 ISZERO ISZERO SWAP1 POP SWAP2 SWAP1 POP JUMP JUMPDEST PUSH2 0x1513 DUP2 PUSH2 0x14FF JUMP JUMPDEST DUP3 MSTORE POP POP JUMP JUMPDEST PUSH0 PUSH1 0x20 DUP3 ADD SWAP1 POP PUSH2 0x152C PUSH0 DUP4 ADD DUP5 PUSH2 0x150A JUMP JUMPDEST SWAP3 SWAP2 POP POP JUMP JUMPDEST PUSH0 DUP1 PUSH0 PUSH1 0x60 DUP5 DUP7 SUB SLT ISZERO PUSH2 0x1549 JUMPI PUSH2 0x1548 PUSH2 0x1469 JUMP JUMPDEST JUMPDEST PUSH0 PUSH2 0x1556 DUP7 DUP3 DUP8 ADD PUSH2 0x1483 JUMP JUMPDEST SWAP4 POP POP PUSH1 0x20 PUSH2 0x1567 DUP7 DUP3 DUP8 ADD PUSH2 0x1483 JUMP JUMPDEST SWAP3 POP POP PUSH1 0x40 PUSH2 0x1578 DUP7 DUP3 DUP8 ADD PUSH2 0x14AD JUMP JUMPDEST SWAP2 POP POP SWAP3 POP SWAP3 POP SWAP3 JUMP JUMPDEST PUSH0 PUSH1 0xFF DUP3 AND SWAP1 POP SWAP2 SWAP1 POP JUMP JUMPDEST PUSH2 0x1597 DUP2 PUSH2 0x1582 JUMP JUMPDEST DUP3 MSTORE POP POP JUMP JUMPDEST PUSH0 PUSH1 0x20 DUP3 ADD SWAP1 POP PUSH2 0x15B0 PUSH0 DUP4 ADD DUP5 PUSH2 0x158E JUMP JUMPDEST SWAP3 SWAP2 POP POP JUMP JUMPDEST PUSH0 PUSH1 0x20 DUP3 DUP5 SUB SLT ISZERO PUSH2 0x15CB JUMPI PUSH2 0x15CA PUSH2 0x1469 JUMP JUMPDEST JUMPDEST PUSH0 PUSH2 0x15D8 DUP5 DUP3 DUP6 ADD PUSH2 0x1483 JUMP JUMPDEST SWAP2 POP POP SWAP3 SWAP2 POP POP JUMP JUMPDEST PUSH2 0x15EA DUP2 PUSH2 0x14FF JUMP JUMPDEST DUP2 EQ PUSH2 0x15F4 JUMPI PUSH0 DUP1 REVERT JUMPDEST POP JUMP JUMPDEST PUSH0 DUP2 CALLDATALOAD SWAP1 POP PUSH2 0x1605 DUP2 PUSH2 0x15E1 JUMP JUMPDEST SWAP3 SWAP2 POP POP JUMP JUMPDEST PUSH0 DUP1 PUSH1 0x40 DUP4 DUP6 SUB SLT ISZERO PUSH2 0x1621 JUMPI PUSH2 0x1620 PUSH2 0x1469 JUMP JUMPDEST JUMPDEST PUSH0 PUSH2 0x162E DUP6 DUP3 DUP7 ADD PUSH2 0x1483 JUMP JUMPDEST SWAP3 POP POP PUSH1 0x20 PUSH2 0x163F DUP6 DUP3 DUP7 ADD PUSH2 0x15F7 JUMP JUMPDEST SWAP2 POP POP SWAP3 POP SWAP3 SWAP1 POP JUMP JUMPDEST PUSH0 DUP1 PUSH1 0x40 DUP4 DUP6 SUB SLT ISZERO PUSH2 0x165F JUMPI PUSH2 0x165E PUSH2 0x1469 JUMP JUMPDEST JUMPDEST PUSH0 PUSH2 0x166C DUP6 DUP3 DUP7 ADD PUSH2 0x1483 JUMP JUMPDEST SWAP3 POP POP PUSH1 0x20 PUSH2 0x167D DUP6 DUP3 DUP7 ADD PUSH2 0x1483 JUMP JUMPDEST SWAP2 POP POP SWAP3 POP SWAP3 SWAP1 POP JUMP JUMPDEST PUSH32 0x4E487B7100000000000000000000000000000000000000000000000000000000 PUSH0 MSTORE PUSH1 0x22 PUSH1 0x4 MSTORE PUSH1 0x24 PUSH0 REVERT JUMPDEST PUSH0 PUSH1 0x2 DUP3 DIV SWAP1 POP PUSH1 0x1 DUP3 AND DUP1 PUSH2 0x16CB JUMPI PUSH1 0x7F DUP3 AND SWAP2 POP JUMPDEST PUSH1 0x20 DUP3 LT DUP2 SUB PUSH2 0x16DE JUMPI PUSH2 0x16DD PUSH2 0x1687 JUMP JUMPDEST JUMPDEST POP SWAP2 SWAP1 POP JUMP JUMPDEST PUSH32 0x4E487B7100000000000000000000000000000000000000000000000000000000 PUSH0 MSTORE PUSH1 0x11 PUSH1 0x4 MSTORE PUSH1 0x24 PUSH0 REVERT JUMPDEST PUSH0 PUSH2 0x171B DUP3 PUSH2 0x1350 JUMP JUMPDEST SWAP2 POP PUSH2 0x1726 DUP4 PUSH2 0x1350 JUMP JUMPDEST SWAP3 POP DUP3 DUP3 MUL PUSH2 0x1734 DUP2 PUSH2 0x1350 JUMP JUMPDEST SWAP2 POP DUP3 DUP3 DIV DUP5 EQ DUP4 ISZERO OR PUSH2 0x174B JUMPI PUSH2 0x174A PUSH2 0x16E4 JUMP JUMPDEST JUMPDEST POP SWAP3 SWAP2 POP POP JUMP JUMPDEST PUSH32 0x4E487B7100000000000000000000000000000000000000000000000000000000 PUSH0 MSTORE PUSH1 0x12 PUSH1 0x4 MSTORE PUSH1 0x24 PUSH0 REVERT JUMPDEST PUSH0 PUSH2 0x1789 DUP3 PUSH2 0x1350 JUMP JUMPDEST SWAP2 POP PUSH2 0x1794 DUP4 PUSH2 0x1350 JUMP JUMPDEST SWAP3 POP DUP3 PUSH2 0x17A4 JUMPI PUSH2 0x17A3 PUSH2 0x1752 JUMP JUMPDEST JUMPDEST DUP3 DUP3 DIV SWAP1 POP SWAP3 SWAP2 POP POP JUMP JUMPDEST PUSH0 PUSH2 0x17B9 DUP3 PUSH2 0x1350 JUMP JUMPDEST SWAP2 POP PUSH2 0x17C4 DUP4 PUSH2 0x1350 JUMP JUMPDEST SWAP3 POP DUP3 DUP3 ADD SWAP1 POP DUP1 DUP3 GT ISZERO PUSH2 0x17DC JUMPI PUSH2 0x17DB PUSH2 0x16E4 JUMP JUMPDEST JUMPDEST SWAP3 SWAP2 POP POP JUMP JUMPDEST PUSH32 0x45786365656473206D61782077616C6C6574206C696D69740000000000000000 PUSH0 DUP3 ADD MSTORE POP JUMP JUMPDEST PUSH0 PUSH2 0x1816 PUSH1 0x18 DUP4 PUSH2 0x13E3 JUMP JUMPDEST SWAP2 POP PUSH2 0x1821 DUP3 PUSH2 0x17E2 JUMP JUMPDEST PUSH1 0x20 DUP3 ADD SWAP1 POP SWAP2 SWAP1 POP JUMP JUMPDEST PUSH0 PUSH1 0x20 DUP3 ADD SWAP1 POP DUP2 DUP2 SUB PUSH0 DUP4 ADD MSTORE PUSH2 0x1843 DUP2 PUSH2 0x180A JUMP JUMPDEST SWAP1 POP SWAP2 SWAP1 POP JUMP JUMPDEST PUSH32 0x45786365656473206D6178207472616E73616374696F6E206C696D6974000000 PUSH0 DUP3 ADD MSTORE POP JUMP JUMPDEST PUSH0 PUSH2 0x187E PUSH1 0x1D DUP4 PUSH2 0x13E3 JUMP JUMPDEST SWAP2 POP PUSH2 0x1889 DUP3 PUSH2 0x184A JUMP JUMPDEST PUSH1 0x20 DUP3 ADD SWAP1 POP SWAP2 SWAP1 POP JUMP JUMPDEST PUSH0 PUSH1 0x20 DUP3 ADD SWAP1 POP DUP2 DUP2 SUB PUSH0 DUP4 ADD MSTORE PUSH2 0x18AB DUP2 PUSH2 0x1872 JUMP JUMPDEST SWAP1 POP SWAP2 SWAP1 POP JUMP JUMPDEST PUSH0 PUSH1 0x60 DUP3 ADD SWAP1 POP PUSH2 0x18C5 PUSH0 DUP4 ADD DUP7 PUSH2 0x13B1 JUMP JUMPDEST PUSH2 0x18D2 PUSH1 0x20 DUP4 ADD DUP6 PUSH2 0x1359 JUMP JUMPDEST PUSH2 0x18DF PUSH1 0x40 DUP4 ADD DUP5 PUSH2 0x1359 JUMP JUMPDEST SWAP5 SWAP4 POP POP POP POP JUMP JUMPDEST PUSH0 PUSH2 0x18F1 DUP3 PUSH2 0x1350 JUMP JUMPDEST SWAP2 POP PUSH2 0x18FC DUP4 PUSH2 0x1350 JUMP JUMPDEST SWAP3 POP DUP3 DUP3 SUB SWAP1 POP DUP2 DUP2 GT ISZERO PUSH2 0x1914 JUMPI PUSH2 0x1913 PUSH2 0x16E4 JUMP JUMPDEST JUMPDEST SWAP3 SWAP2 POP POP JUMP JUMPDEST PUSH32 0x456E636F75726167656D656E742046756E640000000000000000000000000000 PUSH0 DUP3 ADD MSTORE POP JUMP JUMPDEST PUSH0 PUSH2 0x194E PUSH1 0x12 DUP4 PUSH2 0x13E3 JUMP JUMPDEST SWAP2 POP PUSH2 0x1959 DUP3 PUSH2 0x191A JUMP JUMPDEST PUSH1 0x20 DUP3 ADD SWAP1 POP SWAP2 SWAP1 POP JUMP JUMPDEST PUSH0 PUSH1 0x40 DUP3 ADD SWAP1 POP PUSH2 0x1977 PUSH0 DUP4 ADD DUP5 PUSH2 0x1359 JUMP JUMPDEST DUP2 DUP2 SUB PUSH1 0x20 DUP4 ADD MSTORE PUSH2 0x1988 DUP2 PUSH2 0x1942 JUMP JUMPDEST SWAP1 POP SWAP3 SWAP2 POP POP JUMP JUMPDEST PUSH32 0x456D657267656E63792046756E64000000000000000000000000000000000000 PUSH0 DUP3 ADD MSTORE POP JUMP JUMPDEST PUSH0 PUSH2 0x19C4 PUSH1 0xE DUP4 PUSH2 0x13E3 JUMP JUMPDEST SWAP2 POP PUSH2 0x19CF DUP3 PUSH2 0x1990 JUMP JUMPDEST PUSH1 0x20 DUP3 ADD SWAP1 POP SWAP2 SWAP1 POP JUMP JUMPDEST PUSH0 PUSH1 0x40 DUP3 ADD SWAP1 POP PUSH2 0x19ED PUSH0 DUP4 ADD DUP5 PUSH2 0x1359 JUMP JUMPDEST DUP2 DUP2 SUB PUSH1 0x20 DUP4 ADD MSTORE PUSH2 0x19FE DUP2 PUSH2 0x19B8 JUMP JUMPDEST SWAP1 POP SWAP3 SWAP2 POP POP JUMP JUMPDEST PUSH32 0x4D61726B6574696E670000000000000000000000000000000000000000000000 PUSH0 DUP3 ADD MSTORE POP JUMP JUMPDEST PUSH0 PUSH2 0x1A3A PUSH1 0x9 DUP4 PUSH2 0x13E3 JUMP JUMPDEST SWAP2 POP PUSH2 0x1A45 DUP3 PUSH2 0x1A06 JUMP JUMPDEST PUSH1 0x20 DUP3 ADD SWAP1 POP SWAP2 SWAP1 POP JUMP JUMPDEST PUSH0 PUSH1 0x40 DUP3 ADD SWAP1 POP PUSH2 0x1A63 PUSH0 DUP4 ADD DUP5 PUSH2 0x1359 JUMP JUMPDEST DUP2 DUP2 SUB PUSH1 0x20 DUP4 ADD MSTORE PUSH2 0x1A74 DUP2 PUSH2 0x1A2E JUMP JUMPDEST SWAP1 POP SWAP3 SWAP2 POP POP JUMP JUMPDEST PUSH32 0x5374616B696E6700000000000000000000000000000000000000000000000000 PUSH0 DUP3 ADD MSTORE POP JUMP JUMPDEST PUSH0 PUSH2 0x1AB0 PUSH1 0x7 DUP4 PUSH2 0x13E3 JUMP JUMPDEST SWAP2 POP PUSH2 0x1ABB DUP3 PUSH2 0x1A7C JUMP JUMPDEST PUSH1 0x20 DUP3 ADD SWAP1 POP SWAP2 SWAP1 POP JUMP JUMPDEST PUSH0 PUSH1 0x40 DUP3 ADD SWAP1 POP PUSH2 0x1AD9 PUSH0 DUP4 ADD DUP5 PUSH2 0x1359 JUMP JUMPDEST DUP2 DUP2 SUB PUSH1 0x20 DUP4 ADD MSTORE PUSH2 0x1AEA DUP2 PUSH2 0x1AA4 JUMP JUMPDEST SWAP1 POP SWAP3 SWAP2 POP POP JUMP INVALID LOG2 PUSH5 0x6970667358 0x22 SLT KECCAK256 0x2F MSTORE8 SWAP2 SELFBALANCE 0xD1 0xAA CHAINID SUB MUL 0x25 PUSH19 0x3A4071938A6C19322FD2FB02C721B1379CFF1 0xAC LT PUSH5 0x736F6C6343 STOP ADDMOD BYTE STOP CALLER "
				},
				"gasEstimates": {
					"creation": {
						"codeDepositCost": "1390400",
						"executionCost": "infinite",
						"totalCost": "infinite"
					},
					"external": {
						"BUY_TAX()": "349",
						"INITIAL_SUPPLY()": "348",
						"MAX_TX()": "infinite",
						"MAX_WALLET()": "infinite",
						"SELL_TAX()": "458",
						"SLIPPAGE()": "392",
						"allowance(address,address)": "infinite",
						"approve(address,uint256)": "infinite",
						"balanceOf(address)": "2852",
						"decimals()": "383",
						"emergencyFund()": "2552",
						"encouragementFund()": "2619",
						"isExcludedFromFees(address)": "2922",
						"marketingWallet()": "2597",
						"name()": "infinite",
						"owner()": "2626",
						"renounceOwnership()": "infinite",
						"stakingWallet()": "2554",
						"symbol()": "infinite",
						"totalSupply()": "2544",
						"transfer(address,uint256)": "infinite",
						"transferFrom(address,address,uint256)": "infinite",
						"transferOwnership(address)": "infinite",
						"updateExcludedAccountStatus(address,bool)": "infinite"
					},
					"internal": {
						"_transferWithTaxes(address,address,uint256)": "infinite"
					}
				},
				"methodIdentifiers": {
					"BUY_TAX()": "02af37bb",
					"INITIAL_SUPPLY()": "2ff2e9dc",
					"MAX_TX()": "f3b2db3f",
					"MAX_WALLET()": "df7787a4",
					"SELL_TAX()": "54ad8aee",
					"SLIPPAGE()": "36b4134a",
					"allowance(address,address)": "dd62ed3e",
					"approve(address,uint256)": "095ea7b3",
					"balanceOf(address)": "70a08231",
					"decimals()": "313ce567",
					"emergencyFund()": "cc859378",
					"encouragementFund()": "52a6a9ec",
					"isExcludedFromFees(address)": "4fbee193",
					"marketingWallet()": "75f0a874",
					"name()": "06fdde03",
					"owner()": "8da5cb5b",
					"renounceOwnership()": "715018a6",
					"stakingWallet()": "06ee6ad8",
					"symbol()": "95d89b41",
					"totalSupply()": "18160ddd",
					"transfer(address,uint256)": "a9059cbb",
					"transferFrom(address,address,uint256)": "23b872dd",
					"transferOwnership(address)": "f2fde38b",
					"updateExcludedAccountStatus(address,bool)": "753cafc3"
				}
			},
			"storageLayout": {
				"storage": [
					{
						"astId": 372,
						"contract": "indentity_test_2.sol:XEAMToken",
						"label": "_balances",
						"offset": 0,
						"slot": "0",
						"type": "t_mapping(t_address,t_uint256)"
					},
					{
						"astId": 378,
						"contract": "indentity_test_2.sol:XEAMToken",
						"label": "_allowances",
						"offset": 0,
						"slot": "1",
						"type": "t_mapping(t_address,t_mapping(t_address,t_uint256))"
					},
					{
						"astId": 380,
						"contract": "indentity_test_2.sol:XEAMToken",
						"label": "_totalSupply",
						"offset": 0,
						"slot": "2",
						"type": "t_uint256"
					},
					{
						"astId": 382,
						"contract": "indentity_test_2.sol:XEAMToken",
						"label": "_name",
						"offset": 0,
						"slot": "3",
						"type": "t_string_storage"
					},
					{
						"astId": 384,
						"contract": "indentity_test_2.sol:XEAMToken",
						"label": "_symbol",
						"offset": 0,
						"slot": "4",
						"type": "t_string_storage"
					},
					{
						"astId": 8,
						"contract": "indentity_test_2.sol:XEAMToken",
						"label": "_owner",
						"offset": 0,
						"slot": "5",
						"type": "t_address"
					},
					{
						"astId": 295,
						"contract": "indentity_test_2.sol:XEAMToken",
						"label": "_status",
						"offset": 0,
						"slot": "6",
						"type": "t_uint256"
					},
					{
						"astId": 1034,
						"contract": "indentity_test_2.sol:XEAMToken",
						"label": "encouragementFund",
						"offset": 0,
						"slot": "7",
						"type": "t_address"
					},
					{
						"astId": 1036,
						"contract": "indentity_test_2.sol:XEAMToken",
						"label": "emergencyFund",
						"offset": 0,
						"slot": "8",
						"type": "t_address"
					},
					{
						"astId": 1038,
						"contract": "indentity_test_2.sol:XEAMToken",
						"label": "marketingWallet",
						"offset": 0,
						"slot": "9",
						"type": "t_address"
					},
					{
						"astId": 1040,
						"contract": "indentity_test_2.sol:XEAMToken",
						"label": "stakingWallet",
						"offset": 0,
						"slot": "10",
						"type": "t_address"
					},
					{
						"astId": 1053,
						"contract": "indentity_test_2.sol:XEAMToken",
						"label": "isExcludedFromFees",
						"offset": 0,
						"slot": "11",
						"type": "t_mapping(t_address,t_bool)"
					}
				],
				"types": {
					"t_address": {
						"encoding": "inplace",
						"label": "address",
						"numberOfBytes": "20"
					},
					"t_bool": {
						"encoding": "inplace",
						"label": "bool",
						"numberOfBytes": "1"
					},
					"t_mapping(t_address,t_bool)": {
						"encoding": "mapping",
						"key": "t_address",
						"label": "mapping(address => bool)",
						"numberOfBytes": "32",
						"value": "t_bool"
					},
					"t_mapping(t_address,t_mapping(t_address,t_uint256))": {
						"encoding": "mapping",
						"key": "t_address",
						"label": "mapping(address => mapping(address => uint256))",
						"numberOfBytes": "32",
						"value": "t_mapping(t_address,t_uint256)"
					},
					"t_mapping(t_address,t_uint256)": {
						"encoding": "mapping",
						"key": "t_address",
						"label": "mapping(address => uint256)",
						"numberOfBytes": "32",
						"value": "t_uint256"
					},
					"t_string_storage": {
						"encoding": "bytes",
						"label": "string",
						"numberOfBytes": "32"
					},
					"t_uint256": {
						"encoding": "inplace",
						"label": "uint256",
						"numberOfBytes": "32"
					}
				}
			},
			"userdoc": {
				"kind": "user",
				"methods": {},
				"version": 1
			}
		}
	}
}