{
	"indentity_test_3_flattened.sol": {
		"XEAMToken": {
			"abi": [
				{
					"inputs": [
						{
							"internalType": "address",
							"name": "_encouragementFund",
							"type": "address"
						},
						{
							"internalType": "address",
							"name": "_emergencyFund",
							"type": "address"
						},
						{
							"internalType": "address",
							"name": "_marketingWallet",
							"type": "address"
						},
						{
							"internalType": "address",
							"name": "_stakingWallet",
							"type": "address"
						},
						{
							"internalType": "address",
							"name": "_initialUniswapPair",
							"type": "address"
						}
					],
					"stateMutability": "nonpayable",
					"type": "constructor"
				},
				{
					"inputs": [
						{
							"internalType": "address",
							"name": "spender",
							"type": "address"
						},
						{
							"internalType": "uint256",
							"name": "allowance",
							"type": "uint256"
						},
						{
							"internalType": "uint256",
							"name": "needed",
							"type": "uint256"
						}
					],
					"name": "ERC20InsufficientAllowance",
					"type": "error"
				},
				{
					"inputs": [
						{
							"internalType": "address",
							"name": "sender",
							"type": "address"
						},
						{
							"internalType": "uint256",
							"name": "balance",
							"type": "uint256"
						},
						{
							"internalType": "uint256",
							"name": "needed",
							"type": "uint256"
						}
					],
					"name": "ERC20InsufficientBalance",
					"type": "error"
				},
				{
					"inputs": [
						{
							"internalType": "address",
							"name": "approver",
							"type": "address"
						}
					],
					"name": "ERC20InvalidApprover",
					"type": "error"
				},
				{
					"inputs": [
						{
							"internalType": "address",
							"name": "receiver",
							"type": "address"
						}
					],
					"name": "ERC20InvalidReceiver",
					"type": "error"
				},
				{
					"inputs": [
						{
							"internalType": "address",
							"name": "sender",
							"type": "address"
						}
					],
					"name": "ERC20InvalidSender",
					"type": "error"
				},
				{
					"inputs": [
						{
							"internalType": "address",
							"name": "spender",
							"type": "address"
						}
					],
					"name": "ERC20InvalidSpender",
					"type": "error"
				},
				{
					"inputs": [
						{
							"internalType": "address",
							"name": "owner",
							"type": "address"
						}
					],
					"name": "OwnableInvalidOwner",
					"type": "error"
				},
				{
					"inputs": [
						{
							"internalType": "address",
							"name": "account",
							"type": "address"
						}
					],
					"name": "OwnableUnauthorizedAccount",
					"type": "error"
				},
				{
					"anonymous": false,
					"inputs": [
						{
							"indexed": true,
							"internalType": "address",
							"name": "owner",
							"type": "address"
						},
						{
							"indexed": true,
							"internalType": "address",
							"name": "spender",
							"type": "address"
						},
						{
							"indexed": false,
							"internalType": "uint256",
							"name": "value",
							"type": "uint256"
						}
					],
					"name": "Approval",
					"type": "event"
				},
				{
					"anonymous": false,
					"inputs": [
						{
							"indexed": true,
							"internalType": "address",
							"name": "previousOwner",
							"type": "address"
						},
						{
							"indexed": true,
							"internalType": "address",
							"name": "newOwner",
							"type": "address"
						}
					],
					"name": "OwnershipTransferred",
					"type": "event"
				},
				{
					"anonymous": false,
					"inputs": [
						{
							"indexed": false,
							"internalType": "uint256",
							"name": "amount",
							"type": "uint256"
						},
						{
							"indexed": false,
							"internalType": "string",
							"name": "category",
							"type": "string"
						}
					],
					"name": "TaxDistributed",
					"type": "event"
				},
				{
					"anonymous": false,
					"inputs": [
						{
							"indexed": true,
							"internalType": "address",
							"name": "from",
							"type": "address"
						},
						{
							"indexed": true,
							"internalType": "address",
							"name": "to",
							"type": "address"
						},
						{
							"indexed": false,
							"internalType": "uint256",
							"name": "value",
							"type": "uint256"
						}
					],
					"name": "Transfer",
					"type": "event"
				},
				{
					"anonymous": false,
					"inputs": [
						{
							"indexed": false,
							"internalType": "address",
							"name": "newPair",
							"type": "address"
						}
					],
					"name": "UniswapPairUpdated",
					"type": "event"
				},
				{
					"inputs": [],
					"name": "BUY_TAX",
					"outputs": [
						{
							"internalType": "uint256",
							"name": "",
							"type": "uint256"
						}
					],
					"stateMutability": "view",
					"type": "function"
				},
				{
					"inputs": [],
					"name": "INITIAL_SUPPLY",
					"outputs": [
						{
							"internalType": "uint256",
							"name": "",
							"type": "uint256"
						}
					],
					"stateMutability": "view",
					"type": "function"
				},
				{
					"inputs": [],
					"name": "MAX_TX",
					"outputs": [
						{
							"internalType": "uint256",
							"name": "",
							"type": "uint256"
						}
					],
					"stateMutability": "view",
					"type": "function"
				},
				{
					"inputs": [],
					"name": "MAX_WALLET",
					"outputs": [
						{
							"internalType": "uint256",
							"name": "",
							"type": "uint256"
						}
					],
					"stateMutability": "view",
					"type": "function"
				},
				{
					"inputs": [],
					"name": "SELL_TAX",
					"outputs": [
						{
							"internalType": "uint256",
							"name": "",
							"type": "uint256"
						}
					],
					"stateMutability": "view",
					"type": "function"
				},
				{
					"inputs": [],
					"name": "SLIPPAGE",
					"outputs": [
						{
							"internalType": "uint256",
							"name": "",
							"type": "uint256"
						}
					],
					"stateMutability": "view",
					"type": "function"
				},
				{
					"inputs": [
						{
							"internalType": "address",
							"name": "owner",
							"type": "address"
						},
						{
							"internalType": "address",
							"name": "spender",
							"type": "address"
						}
					],
					"name": "allowance",
					"outputs": [
						{
							"internalType": "uint256",
							"name": "",
							"type": "uint256"
						}
					],
					"stateMutability": "view",
					"type": "function"
				},
				{
					"inputs": [
						{
							"internalType": "address",
							"name": "spender",
							"type": "address"
						},
						{
							"internalType": "uint256",
							"name": "value",
							"type": "uint256"
						}
					],
					"name": "approve",
					"outputs": [
						{
							"internalType": "bool",
							"name": "",
							"type": "bool"
						}
					],
					"stateMutability": "nonpayable",
					"type": "function"
				},
				{
					"inputs": [
						{
							"internalType": "address",
							"name": "account",
							"type": "address"
						}
					],
					"name": "balanceOf",
					"outputs": [
						{
							"internalType": "uint256",
							"name": "",
							"type": "uint256"
						}
					],
					"stateMutability": "view",
					"type": "function"
				},
				{
					"inputs": [],
					"name": "decimals",
					"outputs": [
						{
							"internalType": "uint8",
							"name": "",
							"type": "uint8"
						}
					],
					"stateMutability": "view",
					"type": "function"
				},
				{
					"inputs": [],
					"name": "emergencyFund",
					"outputs": [
						{
							"internalType": "address",
							"name": "",
							"type": "address"
						}
					],
					"stateMutability": "view",
					"type": "function"
				},
				{
					"inputs": [],
					"name": "encouragementFund",
					"outputs": [
						{
							"internalType": "address",
							"name": "",
							"type": "address"
						}
					],
					"stateMutability": "view",
					"type": "function"
				},
				{
					"inputs": [
						{
							"internalType": "address",
							"name": "",
							"type": "address"
						}
					],
					"name": "isExcludedFromFees",
					"outputs": [
						{
							"internalType": "bool",
							"name": "",
							"type": "bool"
						}
					],
					"stateMutability": "view",
					"type": "function"
				},
				{
					"inputs": [],
					"name": "marketingWallet",
					"outputs": [
						{
							"internalType": "address",
							"name": "",
							"type": "address"
						}
					],
					"stateMutability": "view",
					"type": "function"
				},
				{
					"inputs": [],
					"name": "name",
					"outputs": [
						{
							"internalType": "string",
							"name": "",
							"type": "string"
						}
					],
					"stateMutability": "view",
					"type": "function"
				},
				{
					"inputs": [],
					"name": "owner",
					"outputs": [
						{
							"internalType": "address",
							"name": "",
							"type": "address"
						}
					],
					"stateMutability": "view",
					"type": "function"
				},
				{
					"inputs": [],
					"name": "renounceOwnership",
					"outputs": [],
					"stateMutability": "nonpayable",
					"type": "function"
				},
				{
					"inputs": [],
					"name": "stakingWallet",
					"outputs": [
						{
							"internalType": "address",
							"name": "",
							"type": "address"
						}
					],
					"stateMutability": "view",
					"type": "function"
				},
				{
					"inputs": [],
					"name": "symbol",
					"outputs": [
						{
							"internalType": "string",
							"name": "",
							"type": "string"
						}
					],
					"stateMutability": "view",
					"type": "function"
				},
				{
					"inputs": [],
					"name": "totalSupply",
					"outputs": [
						{
							"internalType": "uint256",
							"name": "",
							"type": "uint256"
						}
					],
					"stateMutability": "view",
					"type": "function"
				},
				{
					"inputs": [
						{
							"internalType": "address",
							"name": "recipient",
							"type": "address"
						},
						{
							"internalType": "uint256",
							"name": "amount",
							"type": "uint256"
						}
					],
					"name": "transfer",
					"outputs": [
						{
							"internalType": "bool",
							"name": "",
							"type": "bool"
						}
					],
					"stateMutability": "nonpayable",
					"type": "function"
				},
				{
					"inputs": [
						{
							"internalType": "address",
							"name": "from",
							"type": "address"
						},
						{
							"internalType": "address",
							"name": "to",
							"type": "address"
						},
						{
							"internalType": "uint256",
							"name": "value",
							"type": "uint256"
						}
					],
					"name": "transferFrom",
					"outputs": [
						{
							"internalType": "bool",
							"name": "",
							"type": "bool"
						}
					],
					"stateMutability": "nonpayable",
					"type": "function"
				},
				{
					"inputs": [
						{
							"internalType": "address",
							"name": "newOwner",
							"type": "address"
						}
					],
					"name": "transferOwnership",
					"outputs": [],
					"stateMutability": "nonpayable",
					"type": "function"
				},
				{
					"inputs": [],
					"name": "uniswapPair",
					"outputs": [
						{
							"internalType": "address",
							"name": "",
							"type": "address"
						}
					],
					"stateMutability": "view",
					"type": "function"
				},
				{
					"inputs": [
						{
							"internalType": "address",
							"name": "account",
							"type": "address"
						},
						{
							"internalType": "bool",
							"name": "excluded",
							"type": "bool"
						}
					],
					"name": "updateExcludedAccountStatus",
					"outputs": [],
					"stateMutability": "nonpayable",
					"type": "function"
				},
				{
					"inputs": [
						{
							"internalType": "address",
							"name": "newPair",
							"type": "address"
						}
					],
					"name": "updateUniswapPair",
					"outputs": [],
					"stateMutability": "nonpayable",
					"type": "function"
				}
			],
			"devdoc": {
				"errors": {
					"ERC20InsufficientAllowance(address,uint256,uint256)": [
						{
							"details": "Indicates a failure with the `spender`’s `allowance`. Used in transfers.",
							"params": {
								"allowance": "Amount of tokens a `spender` is allowed to operate with.",
								"needed": "Minimum amount required to perform a transfer.",
								"spender": "Address that may be allowed to operate on tokens without being their owner."
							}
						}
					],
					"ERC20InsufficientBalance(address,uint256,uint256)": [
						{
							"details": "Indicates an error related to the current `balance` of a `sender`. Used in transfers.",
							"params": {
								"balance": "Current balance for the interacting account.",
								"needed": "Minimum amount required to perform a transfer.",
								"sender": "Address whose tokens are being transferred."
							}
						}
					],
					"ERC20InvalidApprover(address)": [
						{
							"details": "Indicates a failure with the `approver` of a token to be approved. Used in approvals.",
							"params": {
								"approver": "Address initiating an approval operation."
							}
						}
					],
					"ERC20InvalidReceiver(address)": [
						{
							"details": "Indicates a failure with the token `receiver`. Used in transfers.",
							"params": {
								"receiver": "Address to which tokens are being transferred."
							}
						}
					],
					"ERC20InvalidSender(address)": [
						{
							"details": "Indicates a failure with the token `sender`. Used in transfers.",
							"params": {
								"sender": "Address whose tokens are being transferred."
							}
						}
					],
					"ERC20InvalidSpender(address)": [
						{
							"details": "Indicates a failure with the `spender` to be approved. Used in approvals.",
							"params": {
								"spender": "Address that may be allowed to operate on tokens without being their owner."
							}
						}
					],
					"OwnableInvalidOwner(address)": [
						{
							"details": "The owner is not a valid owner account. (eg. `address(0)`)"
						}
					],
					"OwnableUnauthorizedAccount(address)": [
						{
							"details": "The caller account is not authorized to perform an operation."
						}
					]
				},
				"events": {
					"Approval(address,address,uint256)": {
						"details": "Emitted when the allowance of a `spender` for an `owner` is set by a call to {approve}. `value` is the new allowance."
					},
					"Transfer(address,address,uint256)": {
						"details": "Emitted when `value` tokens are moved from one account (`from`) to another (`to`). Note that `value` may be zero."
					}
				},
				"kind": "dev",
				"methods": {
					"allowance(address,address)": {
						"details": "See {IERC20-allowance}."
					},
					"approve(address,uint256)": {
						"details": "See {IERC20-approve}. NOTE: If `value` is the maximum `uint256`, the allowance is not updated on `transferFrom`. This is semantically equivalent to an infinite approval. Requirements: - `spender` cannot be the zero address."
					},
					"balanceOf(address)": {
						"details": "See {IERC20-balanceOf}."
					},
					"decimals()": {
						"details": "Returns the number of decimals used to get its user representation. For example, if `decimals` equals `2`, a balance of `505` tokens should be displayed to a user as `5.05` (`505 / 10 ** 2`). Tokens usually opt for a value of 18, imitating the relationship between Ether and Wei. This is the default value returned by this function, unless it's overridden. NOTE: This information is only used for _display_ purposes: it in no way affects any of the arithmetic of the contract, including {IERC20-balanceOf} and {IERC20-transfer}."
					},
					"name()": {
						"details": "Returns the name of the token."
					},
					"owner()": {
						"details": "Returns the address of the current owner."
					},
					"renounceOwnership()": {
						"details": "Leaves the contract without owner. It will not be possible to call `onlyOwner` functions. Can only be called by the current owner. NOTE: Renouncing ownership will leave the contract without an owner, thereby disabling any functionality that is only available to the owner."
					},
					"symbol()": {
						"details": "Returns the symbol of the token, usually a shorter version of the name."
					},
					"totalSupply()": {
						"details": "See {IERC20-totalSupply}."
					},
					"transferFrom(address,address,uint256)": {
						"details": "See {IERC20-transferFrom}. Skips emitting an {Approval} event indicating an allowance update. This is not required by the ERC. See {xref-ERC20-_approve-address-address-uint256-bool-}[_approve]. NOTE: Does not update the allowance if the current allowance is the maximum `uint256`. Requirements: - `from` and `to` cannot be the zero address. - `from` must have a balance of at least `value`. - the caller must have allowance for ``from``'s tokens of at least `value`."
					},
					"transferOwnership(address)": {
						"details": "Transfers ownership of the contract to a new account (`newOwner`). Can only be called by the current owner."
					}
				},
				"version": 1
			},
			"evm": {
				"assembly": "    /* \"indentity_test_3_flattened.sol\":28095:32507  contract XEAMToken is ERC20, Ownable, ReentrancyGuard {... */\n  mstore(0x40, 0x80)\n    /* \"indentity_test_3_flattened.sol\":28915:29465  constructor(... */\n  callvalue\n  dup1\n  iszero\n  tag_1\n  jumpi\n  0x00\n  dup1\n  revert\ntag_1:\n  pop\n  mload(0x40)\n  sub(codesize, bytecodeSize)\n  dup1\n  bytecodeSize\n  dup4\n  codecopy\n  dup2\n  add\n  0x40\n  dup2\n  swap1\n  mstore\n  tag_2\n  swap2\n  tag_3\n  jump\t// in\ntag_2:\n    /* \"indentity_test_3_flattened.sol\":29140:29150  msg.sender */\n  caller\n    /* \"indentity_test_3_flattened.sol\":12501:12614  constructor(string memory name_, string memory symbol_) {... */\n  mload(0x40)\n  dup1\n  0x40\n  add\n  0x40\n  mstore\n  dup1\n  0x0a\n  dup2\n  mstore\n  0x20\n  add\n  shl(0xb1, 0x2c22a0a6902a37b5b2b7)\n  dup2\n  mstore\n  pop\n  mload(0x40)\n  dup1\n  0x40\n  add\n  0x40\n  mstore\n  dup1\n  0x04\n  dup2\n  mstore\n  0x20\n  add\n  shl(0xe0, 0x5845414d)\n  dup2\n  mstore\n  pop\n    /* \"indentity_test_3_flattened.sol\":12575:12580  name_ */\n  dup2\n    /* \"indentity_test_3_flattened.sol\":12567:12572  _name */\n  0x03\n    /* \"indentity_test_3_flattened.sol\":12567:12580  _name = name_ */\n  swap1\n  dup2\n  tag_9\n  swap2\n  swap1\n  tag_10\n  jump\t// in\ntag_9:\n  pop\n    /* \"indentity_test_3_flattened.sol\":12590:12597  _symbol */\n  0x04\n    /* \"indentity_test_3_flattened.sol\":12590:12607  _symbol = symbol_ */\n  tag_11\n    /* \"indentity_test_3_flattened.sol\":12600:12607  symbol_ */\n  dup3\n    /* \"indentity_test_3_flattened.sol\":12590:12597  _symbol */\n  dup3\n    /* \"indentity_test_3_flattened.sol\":12590:12607  _symbol = symbol_ */\n  tag_10\n  jump\t// in\ntag_11:\n  pop\n  pop\n  pop\n  sub(shl(0xa0, 0x01), 0x01)\n    /* \"indentity_test_3_flattened.sol\":23044:23070  initialOwner == address(0) */\n  dup2\n  and\n    /* \"indentity_test_3_flattened.sol\":23040:23135  if (initialOwner == address(0)) {... */\n  tag_13\n  jumpi\n    /* \"indentity_test_3_flattened.sol\":23093:23124  OwnableInvalidOwner(address(0)) */\n  mload(0x40)\n  shl(0xe0, 0x1e4fbdf7)\n  dup2\n  mstore\n    /* \"indentity_test_3_flattened.sol\":23121:23122  0 */\n  0x00\n    /* \"indentity_test_3_flattened.sol\":23093:23124  OwnableInvalidOwner(address(0)) */\n  0x04\n  dup3\n  add\n    /* \"#utility.yul\":3538:3589   */\n  mstore\n    /* \"#utility.yul\":3511:3529   */\n  0x24\n  add\n    /* \"indentity_test_3_flattened.sol\":23093:23124  OwnableInvalidOwner(address(0)) */\ntag_14:\n  mload(0x40)\n  dup1\n  swap2\n  sub\n  swap1\n  revert\n    /* \"indentity_test_3_flattened.sol\":23040:23135  if (initialOwner == address(0)) {... */\ntag_13:\n    /* \"indentity_test_3_flattened.sol\":23144:23176  _transferOwnership(initialOwner) */\n  tag_16\n    /* \"indentity_test_3_flattened.sol\":23163:23175  initialOwner */\n  dup2\n    /* \"indentity_test_3_flattened.sol\":23144:23162  _transferOwnership */\n  tag_17\n    /* \"indentity_test_3_flattened.sol\":23144:23176  _transferOwnership(initialOwner) */\n  jump\t// in\ntag_16:\n  pop\n    /* \"indentity_test_3_flattened.sol\":26622:26623  1 */\n  0x01\n    /* \"indentity_test_3_flattened.sol\":26727:26734  _status */\n  0x06\n    /* \"indentity_test_3_flattened.sol\":26727:26749  _status = _NOT_ENTERED */\n  sstore\n    /* \"indentity_test_3_flattened.sol\":29162:29179  encouragementFund */\n  0x07\n    /* \"indentity_test_3_flattened.sol\":29162:29200  encouragementFund = _encouragementFund */\n  dup1\n  sload\n  not(sub(shl(0xa0, 0x01), 0x01))\n  swap1\n  dup2\n  and\n  sub(shl(0xa0, 0x01), 0x01)\n  dup9\n  dup2\n  and\n  swap2\n  swap1\n  swap2\n  or\n  swap1\n  swap3\n  sstore\n    /* \"indentity_test_3_flattened.sol\":29210:29223  emergencyFund */\n  0x08\n    /* \"indentity_test_3_flattened.sol\":29210:29240  emergencyFund = _emergencyFund */\n  dup1\n  sload\n  dup3\n  and\n  dup8\n  dup5\n  and\n  or\n  swap1\n  sstore\n    /* \"indentity_test_3_flattened.sol\":29250:29265  marketingWallet */\n  0x09\n    /* \"indentity_test_3_flattened.sol\":29250:29284  marketingWallet = _marketingWallet */\n  dup1\n  sload\n  dup3\n  and\n  dup7\n  dup5\n  and\n  or\n  swap1\n  sstore\n    /* \"indentity_test_3_flattened.sol\":29294:29307  stakingWallet */\n  0x0a\n    /* \"indentity_test_3_flattened.sol\":29294:29324  stakingWallet = _stakingWallet */\n  dup1\n  sload\n  dup3\n  and\n  dup6\n  dup5\n  and\n  or\n  swap1\n  sstore\n    /* \"indentity_test_3_flattened.sol\":29334:29345  uniswapPair */\n  0x0b\n    /* \"indentity_test_3_flattened.sol\":29334:29367  uniswapPair = _initialUniswapPair */\n  dup1\n  sload\n  swap1\n  swap2\n  and\n  swap2\n  dup4\n  and\n  swap2\n  swap1\n  swap2\n  or\n  swap1\n  sstore\n    /* \"indentity_test_3_flattened.sol\":29378:29411  _mint(msg.sender, INITIAL_SUPPLY) */\n  tag_20\n    /* \"indentity_test_3_flattened.sol\":29384:29394  msg.sender */\n  caller\n    /* \"indentity_test_3_flattened.sol\":28196:28214  2_000_000 * 10**18 */\n  0x01a784379d99db42000000\n    /* \"indentity_test_3_flattened.sol\":29378:29383  _mint */\n  tag_21\n    /* \"indentity_test_3_flattened.sol\":29378:29411  _mint(msg.sender, INITIAL_SUPPLY) */\n  jump\t// in\ntag_20:\n  pop\n  pop\n    /* \"indentity_test_3_flattened.sol\":29440:29450  msg.sender */\n  caller\n    /* \"indentity_test_3_flattened.sol\":29421:29451  isExcludedFromFees[msg.sender] */\n  0x00\n  swap1\n  dup2\n  mstore\n    /* \"indentity_test_3_flattened.sol\":29421:29439  isExcludedFromFees */\n  0x0c\n    /* \"indentity_test_3_flattened.sol\":29421:29451  isExcludedFromFees[msg.sender] */\n  0x20\n  mstore\n  0x40\n  swap1\n  keccak256\n    /* \"indentity_test_3_flattened.sol\":29421:29458  isExcludedFromFees[msg.sender] = true */\n  dup1\n  sload\n  not(0xff)\n  and\n    /* \"indentity_test_3_flattened.sol\":29454:29458  true */\n  0x01\n    /* \"indentity_test_3_flattened.sol\":29421:29458  isExcludedFromFees[msg.sender] = true */\n  or\n  swap1\n  sstore\n  pop\n    /* \"indentity_test_3_flattened.sol\":28095:32507  contract XEAMToken is ERC20, Ownable, ReentrancyGuard {... */\n  tag_47\n  swap2\n  pop\n  pop\n  jump\n    /* \"indentity_test_3_flattened.sol\":24683:24870  function _transferOwnership(address newOwner) internal virtual {... */\ntag_17:\n    /* \"indentity_test_3_flattened.sol\":24775:24781  _owner */\n  0x05\n  dup1\n  sload\n  sub(shl(0xa0, 0x01), 0x01)\n    /* \"indentity_test_3_flattened.sol\":24791:24808  _owner = newOwner */\n  dup4\n  dup2\n  and\n  not(sub(shl(0xa0, 0x01), 0x01))\n  dup4\n  and\n  dup2\n  or\n  swap1\n  swap4\n  sstore\n    /* \"indentity_test_3_flattened.sol\":24823:24863  OwnershipTransferred(oldOwner, newOwner) */\n  mload(0x40)\n    /* \"indentity_test_3_flattened.sol\":24775:24781  _owner */\n  swap2\n  and\n  swap2\n    /* \"indentity_test_3_flattened.sol\":24791:24808  _owner = newOwner */\n  swap1\n    /* \"indentity_test_3_flattened.sol\":24775:24781  _owner */\n  dup3\n  swap1\n    /* \"indentity_test_3_flattened.sol\":24823:24863  OwnershipTransferred(oldOwner, newOwner) */\n  0x8be0079c531659141344cd1fd0a4f28419497f9722a3daafe3b4186f6b6457e0\n  swap1\n    /* \"indentity_test_3_flattened.sol\":24756:24772  address oldOwner */\n  0x00\n  swap1\n    /* \"indentity_test_3_flattened.sol\":24823:24863  OwnershipTransferred(oldOwner, newOwner) */\n  log3\n    /* \"indentity_test_3_flattened.sol\":24746:24870  {... */\n  pop\n    /* \"indentity_test_3_flattened.sol\":24683:24870  function _transferOwnership(address newOwner) internal virtual {... */\n  pop\n  jump\t// out\n    /* \"indentity_test_3_flattened.sol\":18358:18566  function _mint(address account, uint256 value) internal {... */\ntag_21:\n  sub(shl(0xa0, 0x01), 0x01)\n    /* \"indentity_test_3_flattened.sol\":18428:18449  account == address(0) */\n  dup3\n  and\n    /* \"indentity_test_3_flattened.sol\":18424:18515  if (account == address(0)) {... */\n  tag_25\n  jumpi\n    /* \"indentity_test_3_flattened.sol\":18472:18504  ERC20InvalidReceiver(address(0)) */\n  mload(0x40)\n  shl(0xe0, 0xec442f05)\n  dup2\n  mstore\n    /* \"indentity_test_3_flattened.sol\":18501:18502  0 */\n  0x00\n    /* \"indentity_test_3_flattened.sol\":18472:18504  ERC20InvalidReceiver(address(0)) */\n  0x04\n  dup3\n  add\n    /* \"#utility.yul\":3538:3589   */\n  mstore\n    /* \"#utility.yul\":3511:3529   */\n  0x24\n  add\n    /* \"indentity_test_3_flattened.sol\":18472:18504  ERC20InvalidReceiver(address(0)) */\n  tag_14\n    /* \"#utility.yul\":3392:3595   */\n  jump\n    /* \"indentity_test_3_flattened.sol\":18424:18515  if (account == address(0)) {... */\ntag_25:\n    /* \"indentity_test_3_flattened.sol\":18524:18559  _update(address(0), account, value) */\n  tag_27\n    /* \"indentity_test_3_flattened.sol\":18540:18541  0 */\n  0x00\n    /* \"indentity_test_3_flattened.sol\":18544:18551  account */\n  dup4\n    /* \"indentity_test_3_flattened.sol\":18553:18558  value */\n  dup4\n    /* \"indentity_test_3_flattened.sol\":18524:18531  _update */\n  tag_28\n    /* \"indentity_test_3_flattened.sol\":18524:18559  _update(address(0), account, value) */\n  jump\t// in\ntag_27:\n    /* \"indentity_test_3_flattened.sol\":18358:18566  function _mint(address account, uint256 value) internal {... */\n  pop\n  pop\n  jump\t// out\n    /* \"indentity_test_3_flattened.sol\":16908:18015  function _update(address from, address to, uint256 value) internal virtual {... */\ntag_28:\n  sub(shl(0xa0, 0x01), 0x01)\n    /* \"indentity_test_3_flattened.sol\":16997:17015  from == address(0) */\n  dup4\n  and\n    /* \"indentity_test_3_flattened.sol\":16993:17533  if (from == address(0)) {... */\n  tag_30\n  jumpi\n    /* \"indentity_test_3_flattened.sol\":17149:17154  value */\n  dup1\n    /* \"indentity_test_3_flattened.sol\":17133:17145  _totalSupply */\n  0x02\n  0x00\n    /* \"indentity_test_3_flattened.sol\":17133:17154  _totalSupply += value */\n  dup3\n  dup3\n  sload\n  tag_31\n  swap2\n  swap1\n  tag_32\n  jump\t// in\ntag_31:\n  swap1\n  swap2\n  sstore\n  pop\n    /* \"indentity_test_3_flattened.sol\":16993:17533  if (from == address(0)) {... */\n  tag_33\n  swap1\n  pop\n  jump\ntag_30:\n  sub(shl(0xa0, 0x01), 0x01)\n    /* \"indentity_test_3_flattened.sol\":17207:17222  _balances[from] */\n  dup4\n  and\n    /* \"indentity_test_3_flattened.sol\":17185:17204  uint256 fromBalance */\n  0x00\n    /* \"indentity_test_3_flattened.sol\":17207:17222  _balances[from] */\n  swap1\n  dup2\n  mstore\n  0x20\n  dup2\n  swap1\n  mstore\n  0x40\n  swap1\n  keccak256\n  sload\n    /* \"indentity_test_3_flattened.sol\":17240:17259  fromBalance < value */\n  dup2\n  dup2\n  lt\n    /* \"indentity_test_3_flattened.sol\":17236:17351  if (fromBalance < value) {... */\n  iszero\n  tag_34\n  jumpi\n    /* \"indentity_test_3_flattened.sol\":17286:17336  ERC20InsufficientBalance(from, fromBalance, value) */\n  mload(0x40)\n  shl(0xe2, 0x391434e3)\n  dup2\n  mstore\n  sub(shl(0xa0, 0x01), 0x01)\n    /* \"#utility.yul\":4047:4079   */\n  dup6\n  and\n    /* \"indentity_test_3_flattened.sol\":17286:17336  ERC20InsufficientBalance(from, fromBalance, value) */\n  0x04\n  dup3\n  add\n    /* \"#utility.yul\":4029:4080   */\n  mstore\n    /* \"#utility.yul\":4096:4114   */\n  0x24\n  dup2\n  add\n    /* \"#utility.yul\":4089:4123   */\n  dup3\n  swap1\n  mstore\n    /* \"#utility.yul\":4139:4157   */\n  0x44\n  dup2\n  add\n    /* \"#utility.yul\":4132:4166   */\n  dup4\n  swap1\n  mstore\n    /* \"#utility.yul\":4002:4020   */\n  0x64\n  add\n    /* \"indentity_test_3_flattened.sol\":17286:17336  ERC20InsufficientBalance(from, fromBalance, value) */\n  tag_14\n    /* \"#utility.yul\":3827:4172   */\n  jump\n    /* \"indentity_test_3_flattened.sol\":17236:17351  if (fromBalance < value) {... */\ntag_34:\n  sub(shl(0xa0, 0x01), 0x01)\n    /* \"indentity_test_3_flattened.sol\":17471:17486  _balances[from] */\n  dup5\n  and\n    /* \"indentity_test_3_flattened.sol\":17471:17480  _balances */\n  0x00\n    /* \"indentity_test_3_flattened.sol\":17471:17486  _balances[from] */\n  swap1\n  dup2\n  mstore\n  0x20\n  dup2\n  swap1\n  mstore\n  0x40\n  swap1\n  keccak256\n    /* \"indentity_test_3_flattened.sol\":17489:17508  fromBalance - value */\n  swap1\n  dup3\n  swap1\n  sub\n    /* \"indentity_test_3_flattened.sol\":17471:17508  _balances[from] = fromBalance - value */\n  swap1\n  sstore\n    /* \"indentity_test_3_flattened.sol\":16993:17533  if (from == address(0)) {... */\ntag_33:\n  sub(shl(0xa0, 0x01), 0x01)\n    /* \"indentity_test_3_flattened.sol\":17547:17563  to == address(0) */\n  dup3\n  and\n    /* \"indentity_test_3_flattened.sol\":17543:17968  if (to == address(0)) {... */\n  tag_37\n  jumpi\n    /* \"indentity_test_3_flattened.sol\":17710:17722  _totalSupply */\n  0x02\n    /* \"indentity_test_3_flattened.sol\":17710:17731  _totalSupply -= value */\n  dup1\n  sload\n  dup3\n  swap1\n  sub\n  swap1\n  sstore\n    /* \"indentity_test_3_flattened.sol\":17543:17968  if (to == address(0)) {... */\n  jump(tag_38)\ntag_37:\n  sub(shl(0xa0, 0x01), 0x01)\n    /* \"indentity_test_3_flattened.sol\":17921:17934  _balances[to] */\n  dup3\n  and\n    /* \"indentity_test_3_flattened.sol\":17921:17930  _balances */\n  0x00\n    /* \"indentity_test_3_flattened.sol\":17921:17934  _balances[to] */\n  swap1\n  dup2\n  mstore\n  0x20\n  dup2\n  swap1\n  mstore\n  0x40\n  swap1\n  keccak256\n    /* \"indentity_test_3_flattened.sol\":17921:17943  _balances[to] += value */\n  dup1\n  sload\n  dup3\n  add\n  swap1\n  sstore\n    /* \"indentity_test_3_flattened.sol\":17543:17968  if (to == address(0)) {... */\ntag_38:\n    /* \"indentity_test_3_flattened.sol\":17998:18000  to */\n  dup2\n  sub(shl(0xa0, 0x01), 0x01)\n    /* \"indentity_test_3_flattened.sol\":17983:18008  Transfer(from, to, value) */\n  and\n    /* \"indentity_test_3_flattened.sol\":17992:17996  from */\n  dup4\n  sub(shl(0xa0, 0x01), 0x01)\n    /* \"indentity_test_3_flattened.sol\":17983:18008  Transfer(from, to, value) */\n  and\n  0xddf252ad1be2c89b69c2b068fc378daa952ba7f163c4a11628f55a4df523b3ef\n    /* \"indentity_test_3_flattened.sol\":18002:18007  value */\n  dup4\n    /* \"indentity_test_3_flattened.sol\":17983:18008  Transfer(from, to, value) */\n  mload(0x40)\n  tag_39\n  swap2\n    /* \"#utility.yul\":4323:4348   */\n  dup2\n  mstore\n    /* \"#utility.yul\":4311:4313   */\n  0x20\n    /* \"#utility.yul\":4296:4314   */\n  add\n  swap1\n    /* \"#utility.yul\":4177:4354   */\n  jump\n    /* \"indentity_test_3_flattened.sol\":17983:18008  Transfer(from, to, value) */\ntag_39:\n  mload(0x40)\n  dup1\n  swap2\n  sub\n  swap1\n  log3\n    /* \"indentity_test_3_flattened.sol\":16908:18015  function _update(address from, address to, uint256 value) internal virtual {... */\n  pop\n  pop\n  pop\n  jump\t// out\n    /* \"#utility.yul\":14:191   */\ntag_41:\n    /* \"#utility.yul\":93:106   */\n  dup1\n  mload\n  sub(shl(0xa0, 0x01), 0x01)\n    /* \"#utility.yul\":135:166   */\n  dup2\n  and\n    /* \"#utility.yul\":125:167   */\n  dup2\n  eq\n    /* \"#utility.yul\":115:185   */\n  tag_49\n  jumpi\n    /* \"#utility.yul\":181:182   */\n  0x00\n    /* \"#utility.yul\":178:179   */\n  dup1\n    /* \"#utility.yul\":171:183   */\n  revert\n    /* \"#utility.yul\":115:185   */\ntag_49:\n    /* \"#utility.yul\":14:191   */\n  swap2\n  swap1\n  pop\n  jump\t// out\n    /* \"#utility.yul\":196:746   */\ntag_3:\n    /* \"#utility.yul\":302:308   */\n  0x00\n    /* \"#utility.yul\":310:316   */\n  dup1\n    /* \"#utility.yul\":318:324   */\n  0x00\n    /* \"#utility.yul\":326:332   */\n  dup1\n    /* \"#utility.yul\":334:340   */\n  0x00\n    /* \"#utility.yul\":387:390   */\n  0xa0\n    /* \"#utility.yul\":375:384   */\n  dup7\n    /* \"#utility.yul\":366:373   */\n  dup9\n    /* \"#utility.yul\":362:385   */\n  sub\n    /* \"#utility.yul\":358:391   */\n  slt\n    /* \"#utility.yul\":355:408   */\n  iszero\n  tag_51\n  jumpi\n    /* \"#utility.yul\":404:405   */\n  0x00\n    /* \"#utility.yul\":401:402   */\n  dup1\n    /* \"#utility.yul\":394:406   */\n  revert\n    /* \"#utility.yul\":355:408   */\ntag_51:\n    /* \"#utility.yul\":427:467   */\n  tag_52\n    /* \"#utility.yul\":457:466   */\n  dup7\n    /* \"#utility.yul\":427:467   */\n  tag_41\n  jump\t// in\ntag_52:\n    /* \"#utility.yul\":417:467   */\n  swap5\n  pop\n    /* \"#utility.yul\":486:535   */\n  tag_53\n    /* \"#utility.yul\":531:533   */\n  0x20\n    /* \"#utility.yul\":520:529   */\n  dup8\n    /* \"#utility.yul\":516:534   */\n  add\n    /* \"#utility.yul\":486:535   */\n  tag_41\n  jump\t// in\ntag_53:\n    /* \"#utility.yul\":476:535   */\n  swap4\n  pop\n    /* \"#utility.yul\":554:603   */\n  tag_54\n    /* \"#utility.yul\":599:601   */\n  0x40\n    /* \"#utility.yul\":588:597   */\n  dup8\n    /* \"#utility.yul\":584:602   */\n  add\n    /* \"#utility.yul\":554:603   */\n  tag_41\n  jump\t// in\ntag_54:\n    /* \"#utility.yul\":544:603   */\n  swap3\n  pop\n    /* \"#utility.yul\":622:671   */\n  tag_55\n    /* \"#utility.yul\":667:669   */\n  0x60\n    /* \"#utility.yul\":656:665   */\n  dup8\n    /* \"#utility.yul\":652:670   */\n  add\n    /* \"#utility.yul\":622:671   */\n  tag_41\n  jump\t// in\ntag_55:\n    /* \"#utility.yul\":612:671   */\n  swap2\n  pop\n    /* \"#utility.yul\":690:740   */\n  tag_56\n    /* \"#utility.yul\":735:738   */\n  0x80\n    /* \"#utility.yul\":724:733   */\n  dup8\n    /* \"#utility.yul\":720:739   */\n  add\n    /* \"#utility.yul\":690:740   */\n  tag_41\n  jump\t// in\ntag_56:\n    /* \"#utility.yul\":680:740   */\n  swap1\n  pop\n    /* \"#utility.yul\":196:746   */\n  swap3\n  swap6\n  pop\n  swap3\n  swap6\n  swap1\n  swap4\n  pop\n  jump\t// out\n    /* \"#utility.yul\":751:878   */\ntag_42:\n    /* \"#utility.yul\":812:822   */\n  0x4e487b71\n    /* \"#utility.yul\":807:810   */\n  0xe0\n    /* \"#utility.yul\":803:823   */\n  shl\n    /* \"#utility.yul\":800:801   */\n  0x00\n    /* \"#utility.yul\":793:824   */\n  mstore\n    /* \"#utility.yul\":843:847   */\n  0x41\n    /* \"#utility.yul\":840:841   */\n  0x04\n    /* \"#utility.yul\":833:848   */\n  mstore\n    /* \"#utility.yul\":867:871   */\n  0x24\n    /* \"#utility.yul\":864:865   */\n  0x00\n    /* \"#utility.yul\":857:872   */\n  revert\n    /* \"#utility.yul\":883:1263   */\ntag_43:\n    /* \"#utility.yul\":962:963   */\n  0x01\n    /* \"#utility.yul\":958:970   */\n  dup2\n  dup2\n  shr\n  swap1\n    /* \"#utility.yul\":1005:1017   */\n  dup3\n  and\n  dup1\n    /* \"#utility.yul\":1026:1087   */\n  tag_59\n  jumpi\n    /* \"#utility.yul\":1080:1084   */\n  0x7f\n    /* \"#utility.yul\":1072:1078   */\n  dup3\n    /* \"#utility.yul\":1068:1085   */\n  and\n    /* \"#utility.yul\":1058:1085   */\n  swap2\n  pop\n    /* \"#utility.yul\":1026:1087   */\ntag_59:\n    /* \"#utility.yul\":1133:1135   */\n  0x20\n    /* \"#utility.yul\":1125:1131   */\n  dup3\n    /* \"#utility.yul\":1122:1136   */\n  lt\n    /* \"#utility.yul\":1102:1120   */\n  dup2\n    /* \"#utility.yul\":1099:1137   */\n  sub\n    /* \"#utility.yul\":1096:1257   */\n  tag_60\n  jumpi\n    /* \"#utility.yul\":1179:1189   */\n  0x4e487b71\n    /* \"#utility.yul\":1174:1177   */\n  0xe0\n    /* \"#utility.yul\":1170:1190   */\n  shl\n    /* \"#utility.yul\":1167:1168   */\n  0x00\n    /* \"#utility.yul\":1160:1191   */\n  mstore\n    /* \"#utility.yul\":1214:1218   */\n  0x22\n    /* \"#utility.yul\":1211:1212   */\n  0x04\n    /* \"#utility.yul\":1204:1219   */\n  mstore\n    /* \"#utility.yul\":1242:1246   */\n  0x24\n    /* \"#utility.yul\":1239:1240   */\n  0x00\n    /* \"#utility.yul\":1232:1247   */\n  revert\n    /* \"#utility.yul\":1096:1257   */\ntag_60:\n  pop\n    /* \"#utility.yul\":883:1263   */\n  swap2\n  swap1\n  pop\n  jump\t// out\n    /* \"#utility.yul\":1394:1912   */\ntag_45:\n    /* \"#utility.yul\":1496:1498   */\n  0x1f\n    /* \"#utility.yul\":1491:1494   */\n  dup3\n    /* \"#utility.yul\":1488:1499   */\n  gt\n    /* \"#utility.yul\":1485:1906   */\n  iszero\n  tag_63\n  jumpi\n    /* \"#utility.yul\":1532:1537   */\n  dup1\n    /* \"#utility.yul\":1529:1530   */\n  0x00\n    /* \"#utility.yul\":1522:1538   */\n  mstore\n    /* \"#utility.yul\":1576:1580   */\n  0x20\n    /* \"#utility.yul\":1573:1574   */\n  0x00\n    /* \"#utility.yul\":1563:1581   */\n  keccak256\n    /* \"#utility.yul\":1646:1648   */\n  0x1f\n    /* \"#utility.yul\":1634:1644   */\n  dup5\n    /* \"#utility.yul\":1630:1649   */\n  add\n    /* \"#utility.yul\":1627:1628   */\n  0x05\n    /* \"#utility.yul\":1623:1650   */\n  shr\n    /* \"#utility.yul\":1617:1621   */\n  dup2\n    /* \"#utility.yul\":1613:1651   */\n  add\n    /* \"#utility.yul\":1682:1686   */\n  0x20\n    /* \"#utility.yul\":1670:1680   */\n  dup6\n    /* \"#utility.yul\":1667:1687   */\n  lt\n    /* \"#utility.yul\":1664:1711   */\n  iszero\n  tag_64\n  jumpi\n  pop\n    /* \"#utility.yul\":1705:1709   */\n  dup1\n    /* \"#utility.yul\":1664:1711   */\ntag_64:\n    /* \"#utility.yul\":1760:1762   */\n  0x1f\n    /* \"#utility.yul\":1755:1758   */\n  dup5\n    /* \"#utility.yul\":1751:1763   */\n  add\n    /* \"#utility.yul\":1748:1749   */\n  0x05\n    /* \"#utility.yul\":1744:1764   */\n  shr\n    /* \"#utility.yul\":1738:1742   */\n  dup3\n    /* \"#utility.yul\":1734:1765   */\n  add\n    /* \"#utility.yul\":1724:1765   */\n  swap2\n  pop\n    /* \"#utility.yul\":1815:1896   */\ntag_65:\n    /* \"#utility.yul\":1833:1835   */\n  dup2\n    /* \"#utility.yul\":1826:1831   */\n  dup2\n    /* \"#utility.yul\":1823:1836   */\n  lt\n    /* \"#utility.yul\":1815:1896   */\n  iszero\n  tag_67\n  jumpi\n    /* \"#utility.yul\":1892:1893   */\n  0x00\n    /* \"#utility.yul\":1878:1894   */\n  dup2\n  sstore\n    /* \"#utility.yul\":1859:1860   */\n  0x01\n    /* \"#utility.yul\":1848:1861   */\n  add\n    /* \"#utility.yul\":1815:1896   */\n  jump(tag_65)\ntag_67:\n    /* \"#utility.yul\":1819:1822   */\n  pop\n  pop\n    /* \"#utility.yul\":1485:1906   */\ntag_63:\n    /* \"#utility.yul\":1394:1912   */\n  pop\n  pop\n  pop\n  jump\t// out\n    /* \"#utility.yul\":2088:3387   */\ntag_10:\n    /* \"#utility.yul\":2208:2218   */\n  dup2\n  mload\n  sub(shl(0x40, 0x01), 0x01)\n    /* \"#utility.yul\":2230:2260   */\n  dup2\n  gt\n    /* \"#utility.yul\":2227:2283   */\n  iszero\n  tag_71\n  jumpi\n    /* \"#utility.yul\":2263:2281   */\n  tag_71\n  tag_42\n  jump\t// in\ntag_71:\n    /* \"#utility.yul\":2292:2389   */\n  tag_72\n    /* \"#utility.yul\":2382:2388   */\n  dup2\n    /* \"#utility.yul\":2342:2380   */\n  tag_73\n    /* \"#utility.yul\":2374:2378   */\n  dup5\n    /* \"#utility.yul\":2368:2379   */\n  sload\n    /* \"#utility.yul\":2342:2380   */\n  tag_43\n  jump\t// in\ntag_73:\n    /* \"#utility.yul\":2336:2340   */\n  dup5\n    /* \"#utility.yul\":2292:2389   */\n  tag_45\n  jump\t// in\ntag_72:\n    /* \"#utility.yul\":2438:2442   */\n  0x20\n    /* \"#utility.yul\":2469:2471   */\n  0x1f\n    /* \"#utility.yul\":2458:2472   */\n  dup3\n  gt\n    /* \"#utility.yul\":2486:2487   */\n  0x01\n    /* \"#utility.yul\":2481:3130   */\n  dup2\n  eq\n  tag_75\n  jumpi\n    /* \"#utility.yul\":3174:3175   */\n  0x00\n    /* \"#utility.yul\":3191:3197   */\n  dup4\n    /* \"#utility.yul\":3188:3277   */\n  iszero\n  tag_76\n  jumpi\n  pop\n    /* \"#utility.yul\":3243:3262   */\n  dup5\n  dup3\n  add\n    /* \"#utility.yul\":3237:3263   */\n  mload\n    /* \"#utility.yul\":3188:3277   */\ntag_76:\n  not(0x00)\n    /* \"#utility.yul\":2045:2046   */\n  0x03\n    /* \"#utility.yul\":2041:2052   */\n  dup6\n  swap1\n  shl\n    /* \"#utility.yul\":2037:2061   */\n  shr\n    /* \"#utility.yul\":2033:2062   */\n  not\n    /* \"#utility.yul\":2023:2063   */\n  and\n    /* \"#utility.yul\":2069:2070   */\n  0x01\n    /* \"#utility.yul\":2065:2076   */\n  dup5\n  swap1\n  shl\n    /* \"#utility.yul\":2020:2077   */\n  or\n    /* \"#utility.yul\":3290:3371   */\n  dup5\n  sstore\n    /* \"#utility.yul\":2451:3381   */\n  jump(tag_67)\n    /* \"#utility.yul\":2481:3130   */\ntag_75:\n    /* \"#utility.yul\":1341:1342   */\n  0x00\n    /* \"#utility.yul\":1334:1348   */\n  dup5\n  dup2\n  mstore\n    /* \"#utility.yul\":1378:1382   */\n  0x20\n    /* \"#utility.yul\":1365:1383   */\n  dup2\n  keccak256\n  not(0x1f)\n    /* \"#utility.yul\":2517:2537   */\n  dup6\n  and\n  swap2\n    /* \"#utility.yul\":2635:2857   */\ntag_79:\n    /* \"#utility.yul\":2649:2656   */\n  dup3\n    /* \"#utility.yul\":2646:2647   */\n  dup2\n    /* \"#utility.yul\":2643:2657   */\n  lt\n    /* \"#utility.yul\":2635:2857   */\n  iszero\n  tag_81\n  jumpi\n    /* \"#utility.yul\":2731:2750   */\n  dup8\n  dup6\n  add\n    /* \"#utility.yul\":2725:2751   */\n  mload\n    /* \"#utility.yul\":2710:2752   */\n  dup3\n  sstore\n    /* \"#utility.yul\":2838:2842   */\n  0x20\n    /* \"#utility.yul\":2823:2843   */\n  swap5\n  dup6\n  add\n  swap5\n    /* \"#utility.yul\":2791:2792   */\n  0x01\n    /* \"#utility.yul\":2779:2793   */\n  swap1\n  swap3\n  add\n  swap2\n    /* \"#utility.yul\":2665:2677   */\n  add\n    /* \"#utility.yul\":2635:2857   */\n  jump(tag_79)\ntag_81:\n    /* \"#utility.yul\":2639:2642   */\n  pop\n    /* \"#utility.yul\":2885:2891   */\n  dup5\n    /* \"#utility.yul\":2876:2883   */\n  dup3\n    /* \"#utility.yul\":2873:2892   */\n  lt\n    /* \"#utility.yul\":2870:3071   */\n  iszero\n  tag_82\n  jumpi\n    /* \"#utility.yul\":2946:2965   */\n  dup7\n  dup5\n  add\n    /* \"#utility.yul\":2940:2966   */\n  mload\n  not(0x00)\n    /* \"#utility.yul\":3029:3030   */\n  0x03\n    /* \"#utility.yul\":3025:3039   */\n  dup8\n  swap1\n  shl\n    /* \"#utility.yul\":3041:3044   */\n  0xf8\n    /* \"#utility.yul\":3021:3045   */\n  and\n    /* \"#utility.yul\":3017:3054   */\n  shr\n    /* \"#utility.yul\":3013:3055   */\n  not\n    /* \"#utility.yul\":2998:3056   */\n  and\n    /* \"#utility.yul\":2983:3057   */\n  dup2\n  sstore\n    /* \"#utility.yul\":2870:3071   */\ntag_82:\n  pop\n  pop\n  pop\n  pop\n    /* \"#utility.yul\":3117:3118   */\n  0x01\n    /* \"#utility.yul\":3101:3115   */\n  swap1\n  dup2\n  shl\n    /* \"#utility.yul\":3097:3119   */\n  add\n    /* \"#utility.yul\":3084:3120   */\n  swap1\n  sstore\n  pop\n    /* \"#utility.yul\":2088:3387   */\n  jump\t// out\n    /* \"#utility.yul\":3600:3822   */\ntag_32:\n    /* \"#utility.yul\":3665:3674   */\n  dup1\n  dup3\n  add\n    /* \"#utility.yul\":3686:3696   */\n  dup1\n  dup3\n  gt\n    /* \"#utility.yul\":3683:3816   */\n  iszero\n  tag_85\n  jumpi\n    /* \"#utility.yul\":3738:3748   */\n  0x4e487b71\n    /* \"#utility.yul\":3733:3736   */\n  0xe0\n    /* \"#utility.yul\":3729:3749   */\n  shl\n    /* \"#utility.yul\":3726:3727   */\n  0x00\n    /* \"#utility.yul\":3719:3750   */\n  mstore\n    /* \"#utility.yul\":3773:3777   */\n  0x11\n    /* \"#utility.yul\":3770:3771   */\n  0x04\n    /* \"#utility.yul\":3763:3778   */\n  mstore\n    /* \"#utility.yul\":3801:3805   */\n  0x24\n    /* \"#utility.yul\":3798:3799   */\n  0x00\n    /* \"#utility.yul\":3791:3806   */\n  revert\n    /* \"#utility.yul\":3683:3816   */\ntag_85:\n    /* \"#utility.yul\":3600:3822   */\n  swap3\n  swap2\n  pop\n  pop\n  jump\t// out\n    /* \"#utility.yul\":4177:4354   */\ntag_47:\n    /* \"indentity_test_3_flattened.sol\":28095:32507  contract XEAMToken is ERC20, Ownable, ReentrancyGuard {... */\n  dataSize(sub_0)\n  dup1\n  dataOffset(sub_0)\n  0x00\n  codecopy\n  0x00\n  return\nstop\n\nsub_0: assembly {\n        /* \"indentity_test_3_flattened.sol\":28095:32507  contract XEAMToken is ERC20, Ownable, ReentrancyGuard {... */\n      mstore(0x40, 0x80)\n      callvalue\n      dup1\n      iszero\n      tag_1\n      jumpi\n      0x00\n      dup1\n      revert\n    tag_1:\n      pop\n      jumpi(tag_2, lt(calldatasize, 0x04))\n      shr(0xe0, calldataload(0x00))\n      dup1\n      0x715018a6\n      gt\n      tag_29\n      jumpi\n      dup1\n      0xc12b7c4e\n      gt\n      tag_30\n      jumpi\n      dup1\n      0xdd62ed3e\n      gt\n      tag_31\n      jumpi\n      dup1\n      0xdd62ed3e\n      eq\n      tag_25\n      jumpi\n      dup1\n      0xdf7787a4\n      eq\n      tag_26\n      jumpi\n      dup1\n      0xf2fde38b\n      eq\n      tag_27\n      jumpi\n      dup1\n      0xf3b2db3f\n      eq\n      tag_28\n      jumpi\n      0x00\n      dup1\n      revert\n    tag_31:\n      dup1\n      0xc12b7c4e\n      eq\n      tag_22\n      jumpi\n      dup1\n      0xc816841b\n      eq\n      tag_23\n      jumpi\n      dup1\n      0xcc859378\n      eq\n      tag_24\n      jumpi\n      0x00\n      dup1\n      revert\n    tag_30:\n      dup1\n      0x715018a6\n      eq\n      tag_16\n      jumpi\n      dup1\n      0x753cafc3\n      eq\n      tag_17\n      jumpi\n      dup1\n      0x75f0a874\n      eq\n      tag_18\n      jumpi\n      dup1\n      0x8da5cb5b\n      eq\n      tag_19\n      jumpi\n      dup1\n      0x95d89b41\n      eq\n      tag_20\n      jumpi\n      dup1\n      0xa9059cbb\n      eq\n      tag_21\n      jumpi\n      0x00\n      dup1\n      revert\n    tag_29:\n      dup1\n      0x2ff2e9dc\n      gt\n      tag_32\n      jumpi\n      dup1\n      0x4fbee193\n      gt\n      tag_33\n      jumpi\n      dup1\n      0x4fbee193\n      eq\n      tag_12\n      jumpi\n      dup1\n      0x52a6a9ec\n      eq\n      tag_13\n      jumpi\n      dup1\n      0x54ad8aee\n      eq\n      tag_14\n      jumpi\n      dup1\n      0x70a08231\n      eq\n      tag_15\n      jumpi\n      0x00\n      dup1\n      revert\n    tag_33:\n      dup1\n      0x2ff2e9dc\n      eq\n      tag_9\n      jumpi\n      dup1\n      0x313ce567\n      eq\n      tag_10\n      jumpi\n      dup1\n      0x36b4134a\n      eq\n      tag_11\n      jumpi\n      0x00\n      dup1\n      revert\n    tag_32:\n      dup1\n      0x02af37bb\n      eq\n      tag_3\n      jumpi\n      dup1\n      0x06ee6ad8\n      eq\n      tag_4\n      jumpi\n      dup1\n      0x06fdde03\n      eq\n      tag_5\n      jumpi\n      dup1\n      0x095ea7b3\n      eq\n      tag_6\n      jumpi\n      dup1\n      0x18160ddd\n      eq\n      tag_7\n      jumpi\n      dup1\n      0x23b872dd\n      eq\n      tag_8\n      jumpi\n    tag_2:\n      0x00\n      dup1\n      revert\n        /* \"indentity_test_3_flattened.sol\":28599:28635  uint256 public constant BUY_TAX = 10 */\n    tag_3:\n      tag_34\n        /* \"indentity_test_3_flattened.sol\":28633:28635  10 */\n      0x0a\n        /* \"indentity_test_3_flattened.sol\":28599:28635  uint256 public constant BUY_TAX = 10 */\n      dup2\n      jump\n    tag_34:\n      mload(0x40)\n        /* \"#utility.yul\":160:185   */\n      swap1\n      dup2\n      mstore\n        /* \"#utility.yul\":148:150   */\n      0x20\n        /* \"#utility.yul\":133:151   */\n      add\n        /* \"indentity_test_3_flattened.sol\":28599:28635  uint256 public constant BUY_TAX = 10 */\n    tag_36:\n      mload(0x40)\n      dup1\n      swap2\n      sub\n      swap1\n      return\n        /* \"indentity_test_3_flattened.sol\":28480:28508  address public stakingWallet */\n    tag_4:\n      sload(0x0a)\n      tag_38\n      swap1\n      sub(shl(0xa0, 0x01), 0x01)\n      and\n      dup2\n      jump\n    tag_38:\n      mload(0x40)\n      sub(shl(0xa0, 0x01), 0x01)\n        /* \"#utility.yul\":360:392   */\n      swap1\n      swap2\n      and\n        /* \"#utility.yul\":342:393   */\n      dup2\n      mstore\n        /* \"#utility.yul\":330:332   */\n      0x20\n        /* \"#utility.yul\":315:333   */\n      add\n        /* \"indentity_test_3_flattened.sol\":28480:28508  address public stakingWallet */\n      tag_36\n        /* \"#utility.yul\":196:399   */\n      jump\n        /* \"indentity_test_3_flattened.sol\":12679:12768  function name() public view virtual returns (string memory) {... */\n    tag_5:\n      tag_42\n      tag_43\n      jump\t// in\n    tag_42:\n      mload(0x40)\n      tag_36\n      swap2\n      swap1\n      tag_45\n      jump\t// in\n        /* \"indentity_test_3_flattened.sol\":14898:15084  function approve(address spender, uint256 value) public virtual returns (bool) {... */\n    tag_6:\n      tag_46\n      tag_47\n      calldatasize\n      0x04\n      tag_48\n      jump\t// in\n    tag_47:\n      tag_49\n      jump\t// in\n    tag_46:\n      mload(0x40)\n        /* \"#utility.yul\":1475:1489   */\n      swap1\n      iszero\n        /* \"#utility.yul\":1468:1490   */\n      iszero\n        /* \"#utility.yul\":1450:1491   */\n      dup2\n      mstore\n        /* \"#utility.yul\":1438:1440   */\n      0x20\n        /* \"#utility.yul\":1423:1441   */\n      add\n        /* \"indentity_test_3_flattened.sol\":14898:15084  function approve(address spender, uint256 value) public virtual returns (bool) {... */\n      tag_36\n        /* \"#utility.yul\":1310:1497   */\n      jump\n        /* \"indentity_test_3_flattened.sol\":13749:13846  function totalSupply() public view virtual returns (uint256) {... */\n    tag_7:\n        /* \"indentity_test_3_flattened.sol\":13827:13839  _totalSupply */\n      sload(0x02)\n        /* \"indentity_test_3_flattened.sol\":13749:13846  function totalSupply() public view virtual returns (uint256) {... */\n      jump(tag_34)\n        /* \"indentity_test_3_flattened.sol\":15676:15920  function transferFrom(address from, address to, uint256 value) public virtual returns (bool) {... */\n    tag_8:\n      tag_46\n      tag_56\n      calldatasize\n      0x04\n      tag_57\n      jump\t// in\n    tag_56:\n      tag_58\n      jump\t// in\n        /* \"indentity_test_3_flattened.sol\":28155:28214  uint256 public constant INITIAL_SUPPLY = 2_000_000 * 10**18 */\n    tag_9:\n      tag_34\n        /* \"indentity_test_3_flattened.sol\":28196:28214  2_000_000 * 10**18 */\n      0x01a784379d99db42000000\n        /* \"indentity_test_3_flattened.sol\":28155:28214  uint256 public constant INITIAL_SUPPLY = 2_000_000 * 10**18 */\n      dup2\n      jump\n        /* \"indentity_test_3_flattened.sol\":13607:13689  function decimals() public view virtual returns (uint8) {... */\n    tag_10:\n      mload(0x40)\n        /* \"indentity_test_3_flattened.sol\":13680:13682  18 */\n      0x12\n        /* \"#utility.yul\":2023:2059   */\n      dup2\n      mstore\n        /* \"#utility.yul\":2011:2013   */\n      0x20\n        /* \"#utility.yul\":1996:2014   */\n      add\n        /* \"indentity_test_3_flattened.sol\":13607:13689  function decimals() public view virtual returns (uint8) {... */\n      tag_36\n        /* \"#utility.yul\":1881:2065   */\n      jump\n        /* \"indentity_test_3_flattened.sol\":28684:28721  uint256 public constant SLIPPAGE = 13 */\n    tag_11:\n      tag_34\n        /* \"indentity_test_3_flattened.sol\":28719:28721  13 */\n      0x0d\n        /* \"indentity_test_3_flattened.sol\":28684:28721  uint256 public constant SLIPPAGE = 13 */\n      dup2\n      jump\n        /* \"indentity_test_3_flattened.sol\":28751:28801  mapping(address => bool) public isExcludedFromFees */\n    tag_12:\n      tag_46\n      tag_71\n      calldatasize\n      0x04\n      tag_72\n      jump\t// in\n    tag_71:\n      mstore(0x20, 0x0c)\n      0x00\n      swap1\n      dup2\n      mstore\n      0x40\n      swap1\n      keccak256\n      sload\n      0xff\n      and\n      dup2\n      jump\n        /* \"indentity_test_3_flattened.sol\":28372:28404  address public encouragementFund */\n    tag_13:\n      sload(0x07)\n      tag_38\n      swap1\n      sub(shl(0xa0, 0x01), 0x01)\n      and\n      dup2\n      jump\n        /* \"indentity_test_3_flattened.sol\":28641:28678  uint256 public constant SELL_TAX = 12 */\n    tag_14:\n      tag_34\n        /* \"indentity_test_3_flattened.sol\":28676:28678  12 */\n      0x0c\n        /* \"indentity_test_3_flattened.sol\":28641:28678  uint256 public constant SELL_TAX = 12 */\n      dup2\n      jump\n        /* \"indentity_test_3_flattened.sol\":13904:14020  function balanceOf(address account) public view virtual returns (uint256) {... */\n    tag_15:\n      tag_34\n      tag_82\n      calldatasize\n      0x04\n      tag_72\n      jump\t// in\n    tag_82:\n      sub(shl(0xa0, 0x01), 0x01)\n        /* \"indentity_test_3_flattened.sol\":13995:14013  _balances[account] */\n      and\n        /* \"indentity_test_3_flattened.sol\":13969:13976  uint256 */\n      0x00\n        /* \"indentity_test_3_flattened.sol\":13995:14013  _balances[account] */\n      swap1\n      dup2\n      mstore\n      0x20\n      dup2\n      swap1\n      mstore\n      0x40\n      swap1\n      keccak256\n      sload\n      swap1\n        /* \"indentity_test_3_flattened.sol\":13904:14020  function balanceOf(address account) public view virtual returns (uint256) {... */\n      jump\n        /* \"indentity_test_3_flattened.sol\":24064:24165  function renounceOwnership() public virtual onlyOwner {... */\n    tag_16:\n      tag_85\n      tag_86\n      jump\t// in\n    tag_85:\n      stop\n        /* \"indentity_test_3_flattened.sol\":32033:32196  function updateExcludedAccountStatus(address account, bool excluded)... */\n    tag_17:\n      tag_85\n      tag_88\n      calldatasize\n      0x04\n      tag_89\n      jump\t// in\n    tag_88:\n      tag_90\n      jump\t// in\n        /* \"indentity_test_3_flattened.sol\":28444:28474  address public marketingWallet */\n    tag_18:\n      sload(0x09)\n      tag_38\n      swap1\n      sub(shl(0xa0, 0x01), 0x01)\n      and\n      dup2\n      jump\n        /* \"indentity_test_3_flattened.sol\":23409:23494  function owner() public view virtual returns (address) {... */\n    tag_19:\n        /* \"indentity_test_3_flattened.sol\":23481:23487  _owner */\n      and(sub(shl(0xa0, 0x01), 0x01), sload(0x05))\n        /* \"indentity_test_3_flattened.sol\":23409:23494  function owner() public view virtual returns (address) {... */\n      jump(tag_38)\n        /* \"indentity_test_3_flattened.sol\":12881:12974  function symbol() public view virtual returns (string memory) {... */\n    tag_20:\n      tag_42\n      tag_98\n      jump\t// in\n        /* \"indentity_test_3_flattened.sol\":29471:29940  function transfer(address recipient, uint256 amount)... */\n    tag_21:\n      tag_46\n      tag_101\n      calldatasize\n      0x04\n      tag_48\n      jump\t// in\n    tag_101:\n      tag_102\n      jump\t// in\n        /* \"indentity_test_3_flattened.sol\":32287:32505  function updateUniswapPair(address newPair) external onlyOwner {... */\n    tag_22:\n      tag_85\n      tag_105\n      calldatasize\n      0x04\n      tag_72\n      jump\t// in\n    tag_105:\n      tag_106\n      jump\t// in\n        /* \"indentity_test_3_flattened.sol\":28514:28540  address public uniswapPair */\n    tag_23:\n      sload(0x0b)\n      tag_38\n      swap1\n      sub(shl(0xa0, 0x01), 0x01)\n      and\n      dup2\n      jump\n        /* \"indentity_test_3_flattened.sol\":28410:28438  address public emergencyFund */\n    tag_24:\n      sload(0x08)\n      tag_38\n      swap1\n      sub(shl(0xa0, 0x01), 0x01)\n      and\n      dup2\n      jump\n        /* \"indentity_test_3_flattened.sol\":14451:14591  function allowance(address owner, address spender) public view virtual returns (uint256) {... */\n    tag_25:\n      tag_34\n      tag_114\n      calldatasize\n      0x04\n      tag_115\n      jump\t// in\n    tag_114:\n      sub(shl(0xa0, 0x01), 0x01)\n        /* \"indentity_test_3_flattened.sol\":14557:14575  _allowances[owner] */\n      swap2\n      dup3\n      and\n        /* \"indentity_test_3_flattened.sol\":14531:14538  uint256 */\n      0x00\n        /* \"indentity_test_3_flattened.sol\":14557:14575  _allowances[owner] */\n      swap1\n      dup2\n      mstore\n        /* \"indentity_test_3_flattened.sol\":14557:14568  _allowances */\n      0x01\n        /* \"indentity_test_3_flattened.sol\":14557:14575  _allowances[owner] */\n      0x20\n      swap1\n      dup2\n      mstore\n      0x40\n      dup1\n      dup4\n      keccak256\n        /* \"indentity_test_3_flattened.sol\":14557:14584  _allowances[owner][spender] */\n      swap4\n      swap1\n      swap5\n      and\n      dup3\n      mstore\n      swap2\n      swap1\n      swap2\n      mstore\n      keccak256\n      sload\n      swap1\n        /* \"indentity_test_3_flattened.sol\":14451:14591  function allowance(address owner, address spender) public view virtual returns (uint256) {... */\n      jump\n        /* \"indentity_test_3_flattened.sol\":28220:28283  uint256 public constant MAX_WALLET = (INITIAL_SUPPLY * 1) / 100 */\n    tag_26:\n      tag_34\n      tag_119\n      jump\t// in\n        /* \"indentity_test_3_flattened.sol\":24314:24529  function transferOwnership(address newOwner) public virtual onlyOwner {... */\n    tag_27:\n      tag_85\n      tag_122\n      calldatasize\n      0x04\n      tag_72\n      jump\t// in\n    tag_122:\n      tag_123\n      jump\t// in\n        /* \"indentity_test_3_flattened.sol\":28295:28356  uint256 public constant MAX_TX = (INITIAL_SUPPLY * 5) / 10000 */\n    tag_28:\n      tag_34\n      tag_125\n      jump\t// in\n        /* \"indentity_test_3_flattened.sol\":12679:12768  function name() public view virtual returns (string memory) {... */\n    tag_43:\n        /* \"indentity_test_3_flattened.sol\":12724:12737  string memory */\n      0x60\n        /* \"indentity_test_3_flattened.sol\":12756:12761  _name */\n      0x03\n        /* \"indentity_test_3_flattened.sol\":12749:12761  return _name */\n      dup1\n      sload\n      tag_128\n      swap1\n      tag_129\n      jump\t// in\n    tag_128:\n      dup1\n      0x1f\n      add\n      0x20\n      dup1\n      swap2\n      div\n      mul\n      0x20\n      add\n      mload(0x40)\n      swap1\n      dup2\n      add\n      0x40\n      mstore\n      dup1\n      swap3\n      swap2\n      swap1\n      dup2\n      dup2\n      mstore\n      0x20\n      add\n      dup3\n      dup1\n      sload\n      tag_130\n      swap1\n      tag_129\n      jump\t// in\n    tag_130:\n      dup1\n      iszero\n      tag_131\n      jumpi\n      dup1\n      0x1f\n      lt\n      tag_132\n      jumpi\n      0x0100\n      dup1\n      dup4\n      sload\n      div\n      mul\n      dup4\n      mstore\n      swap2\n      0x20\n      add\n      swap2\n      jump(tag_131)\n    tag_132:\n      dup3\n      add\n      swap2\n      swap1\n      0x00\n      mstore\n      keccak256(0x00, 0x20)\n      swap1\n    tag_133:\n      dup2\n      sload\n      dup2\n      mstore\n      swap1\n      0x01\n      add\n      swap1\n      0x20\n      add\n      dup1\n      dup4\n      gt\n      tag_133\n      jumpi\n      dup3\n      swap1\n      sub\n      0x1f\n      and\n      dup3\n      add\n      swap2\n    tag_131:\n      pop\n      pop\n      pop\n      pop\n      pop\n      swap1\n      pop\n        /* \"indentity_test_3_flattened.sol\":12679:12768  function name() public view virtual returns (string memory) {... */\n      swap1\n      jump\t// out\n        /* \"indentity_test_3_flattened.sol\":14898:15084  function approve(address spender, uint256 value) public virtual returns (bool) {... */\n    tag_49:\n        /* \"indentity_test_3_flattened.sol\":14971:14975  bool */\n      0x00\n        /* \"indentity_test_3_flattened.sol\":4287:4297  msg.sender */\n      caller\n        /* \"indentity_test_3_flattened.sol\":15025:15056  _approve(owner, spender, value) */\n      tag_137\n        /* \"indentity_test_3_flattened.sol\":4287:4297  msg.sender */\n      dup2\n        /* \"indentity_test_3_flattened.sol\":15041:15048  spender */\n      dup6\n        /* \"indentity_test_3_flattened.sol\":15050:15055  value */\n      dup6\n        /* \"indentity_test_3_flattened.sol\":15025:15033  _approve */\n      tag_138\n        /* \"indentity_test_3_flattened.sol\":15025:15056  _approve(owner, spender, value) */\n      jump\t// in\n    tag_137:\n        /* \"indentity_test_3_flattened.sol\":15073:15077  true */\n      0x01\n        /* \"indentity_test_3_flattened.sol\":15066:15077  return true */\n      swap2\n      pop\n      pop\n        /* \"indentity_test_3_flattened.sol\":14898:15084  function approve(address spender, uint256 value) public virtual returns (bool) {... */\n    tag_134:\n      swap3\n      swap2\n      pop\n      pop\n      jump\t// out\n        /* \"indentity_test_3_flattened.sol\":15676:15920  function transferFrom(address from, address to, uint256 value) public virtual returns (bool) {... */\n    tag_58:\n        /* \"indentity_test_3_flattened.sol\":15763:15767  bool */\n      0x00\n        /* \"indentity_test_3_flattened.sol\":4287:4297  msg.sender */\n      caller\n        /* \"indentity_test_3_flattened.sol\":15819:15856  _spendAllowance(from, spender, value) */\n      tag_142\n        /* \"indentity_test_3_flattened.sol\":15835:15839  from */\n      dup6\n        /* \"indentity_test_3_flattened.sol\":4287:4297  msg.sender */\n      dup3\n        /* \"indentity_test_3_flattened.sol\":15850:15855  value */\n      dup6\n        /* \"indentity_test_3_flattened.sol\":15819:15834  _spendAllowance */\n      tag_143\n        /* \"indentity_test_3_flattened.sol\":15819:15856  _spendAllowance(from, spender, value) */\n      jump\t// in\n    tag_142:\n        /* \"indentity_test_3_flattened.sol\":15866:15892  _transfer(from, to, value) */\n      tag_144\n        /* \"indentity_test_3_flattened.sol\":15876:15880  from */\n      dup6\n        /* \"indentity_test_3_flattened.sol\":15882:15884  to */\n      dup6\n        /* \"indentity_test_3_flattened.sol\":15886:15891  value */\n      dup6\n        /* \"indentity_test_3_flattened.sol\":15866:15875  _transfer */\n      tag_145\n        /* \"indentity_test_3_flattened.sol\":15866:15892  _transfer(from, to, value) */\n      jump\t// in\n    tag_144:\n      pop\n        /* \"indentity_test_3_flattened.sol\":15909:15913  true */\n      0x01\n      swap5\n        /* \"indentity_test_3_flattened.sol\":15676:15920  function transferFrom(address from, address to, uint256 value) public virtual returns (bool) {... */\n      swap4\n      pop\n      pop\n      pop\n      pop\n      jump\t// out\n        /* \"indentity_test_3_flattened.sol\":24064:24165  function renounceOwnership() public virtual onlyOwner {... */\n    tag_86:\n        /* \"indentity_test_3_flattened.sol\":23302:23315  _checkOwner() */\n      tag_149\n        /* \"indentity_test_3_flattened.sol\":23302:23313  _checkOwner */\n      tag_150\n        /* \"indentity_test_3_flattened.sol\":23302:23315  _checkOwner() */\n      jump\t// in\n    tag_149:\n        /* \"indentity_test_3_flattened.sol\":24128:24158  _transferOwnership(address(0)) */\n      tag_152\n        /* \"indentity_test_3_flattened.sol\":24155:24156  0 */\n      0x00\n        /* \"indentity_test_3_flattened.sol\":24128:24146  _transferOwnership */\n      tag_153\n        /* \"indentity_test_3_flattened.sol\":24128:24158  _transferOwnership(address(0)) */\n      jump\t// in\n    tag_152:\n        /* \"indentity_test_3_flattened.sol\":24064:24165  function renounceOwnership() public virtual onlyOwner {... */\n      jump\t// out\n        /* \"indentity_test_3_flattened.sol\":32033:32196  function updateExcludedAccountStatus(address account, bool excluded)... */\n    tag_90:\n        /* \"indentity_test_3_flattened.sol\":23302:23315  _checkOwner() */\n      tag_155\n        /* \"indentity_test_3_flattened.sol\":23302:23313  _checkOwner */\n      tag_150\n        /* \"indentity_test_3_flattened.sol\":23302:23315  _checkOwner() */\n      jump\t// in\n    tag_155:\n      sub(shl(0xa0, 0x01), 0x01)\n        /* \"indentity_test_3_flattened.sol\":32151:32178  isExcludedFromFees[account] */\n      swap2\n      swap1\n      swap2\n      and\n      0x00\n      swap1\n      dup2\n      mstore\n        /* \"indentity_test_3_flattened.sol\":32151:32169  isExcludedFromFees */\n      0x0c\n        /* \"indentity_test_3_flattened.sol\":32151:32178  isExcludedFromFees[account] */\n      0x20\n      mstore\n      0x40\n      swap1\n      keccak256\n        /* \"indentity_test_3_flattened.sol\":32151:32189  isExcludedFromFees[account] = excluded */\n      dup1\n      sload\n      not(0xff)\n      and\n      swap2\n      iszero\n      iszero\n      swap2\n      swap1\n      swap2\n      or\n      swap1\n      sstore\n        /* \"indentity_test_3_flattened.sol\":32033:32196  function updateExcludedAccountStatus(address account, bool excluded)... */\n      jump\t// out\n        /* \"indentity_test_3_flattened.sol\":12881:12974  function symbol() public view virtual returns (string memory) {... */\n    tag_98:\n        /* \"indentity_test_3_flattened.sol\":12928:12941  string memory */\n      0x60\n        /* \"indentity_test_3_flattened.sol\":12960:12967  _symbol */\n      0x04\n        /* \"indentity_test_3_flattened.sol\":12953:12967  return _symbol */\n      dup1\n      sload\n      tag_128\n      swap1\n      tag_129\n      jump\t// in\n        /* \"indentity_test_3_flattened.sol\":29471:29940  function transfer(address recipient, uint256 amount)... */\n    tag_102:\n        /* \"indentity_test_3_flattened.sol\":29617:29627  msg.sender */\n      caller\n        /* \"indentity_test_3_flattened.sol\":29573:29577  bool */\n      0x00\n        /* \"indentity_test_3_flattened.sol\":29598:29628  isExcludedFromFees[msg.sender] */\n      swap1\n      dup2\n      mstore\n        /* \"indentity_test_3_flattened.sol\":29598:29616  isExcludedFromFees */\n      0x0c\n        /* \"indentity_test_3_flattened.sol\":29598:29628  isExcludedFromFees[msg.sender] */\n      0x20\n      mstore\n      0x40\n      dup2\n      keccak256\n      sload\n      0xff\n      and\n        /* \"indentity_test_3_flattened.sol\":29593:29853  if (!isExcludedFromFees[msg.sender]) {... */\n      tag_178\n      jumpi\n        /* \"indentity_test_3_flattened.sol\":28280:28283  100 */\n      0x64\n        /* \"indentity_test_3_flattened.sol\":28258:28276  INITIAL_SUPPLY * 1 */\n      tag_166\n        /* \"indentity_test_3_flattened.sol\":28196:28214  2_000_000 * 10**18 */\n      0x01a784379d99db42000000\n        /* \"indentity_test_3_flattened.sol\":28275:28276  1 */\n      0x01\n        /* \"indentity_test_3_flattened.sol\":28258:28276  INITIAL_SUPPLY * 1 */\n      tag_167\n      jump\t// in\n    tag_166:\n        /* \"indentity_test_3_flattened.sol\":28257:28283  (INITIAL_SUPPLY * 1) / 100 */\n      tag_168\n      swap2\n      swap1\n      tag_169\n      jump\t// in\n    tag_168:\n        /* \"indentity_test_3_flattened.sol\":29692:29698  amount */\n      dup3\n        /* \"indentity_test_3_flattened.sol\":29669:29689  balanceOf(recipient) */\n      tag_170\n        /* \"indentity_test_3_flattened.sol\":29679:29688  recipient */\n      dup6\n      sub(shl(0xa0, 0x01), 0x01)\n        /* \"indentity_test_3_flattened.sol\":13995:14013  _balances[account] */\n      and\n        /* \"indentity_test_3_flattened.sol\":13969:13976  uint256 */\n      0x00\n        /* \"indentity_test_3_flattened.sol\":13995:14013  _balances[account] */\n      swap1\n      dup2\n      mstore\n      0x20\n      dup2\n      swap1\n      mstore\n      0x40\n      swap1\n      keccak256\n      sload\n      swap1\n        /* \"indentity_test_3_flattened.sol\":13904:14020  function balanceOf(address account) public view virtual returns (uint256) {... */\n      jump\n        /* \"indentity_test_3_flattened.sol\":29669:29689  balanceOf(recipient) */\n    tag_170:\n        /* \"indentity_test_3_flattened.sol\":29669:29698  balanceOf(recipient) + amount */\n      tag_171\n      swap2\n      swap1\n      tag_172\n      jump\t// in\n    tag_171:\n        /* \"indentity_test_3_flattened.sol\":29669:29712  balanceOf(recipient) + amount <= MAX_WALLET */\n      gt\n      iszero\n        /* \"indentity_test_3_flattened.sol\":29644:29770  require(... */\n      tag_173\n      jumpi\n      mload(0x40)\n      shl(0xe5, 0x461bcd)\n      dup2\n      mstore\n        /* \"#utility.yul\":4122:4124   */\n      0x20\n        /* \"indentity_test_3_flattened.sol\":29644:29770  require(... */\n      0x04\n      dup3\n      add\n        /* \"#utility.yul\":4104:4125   */\n      mstore\n        /* \"#utility.yul\":4161:4163   */\n      0x18\n        /* \"#utility.yul\":4141:4159   */\n      0x24\n      dup3\n      add\n        /* \"#utility.yul\":4134:4164   */\n      mstore\n        /* \"#utility.yul\":4200:4226   */\n      0x45786365656473206d61782077616c6c6574206c696d69740000000000000000\n        /* \"#utility.yul\":4180:4198   */\n      0x44\n      dup3\n      add\n        /* \"#utility.yul\":4173:4227   */\n      mstore\n        /* \"#utility.yul\":4244:4262   */\n      0x64\n      add\n        /* \"indentity_test_3_flattened.sol\":29644:29770  require(... */\n    tag_174:\n      mload(0x40)\n      dup1\n      swap2\n      sub\n      swap1\n      revert\n    tag_173:\n        /* \"indentity_test_3_flattened.sol\":28351:28356  10000 */\n      0x2710\n        /* \"indentity_test_3_flattened.sol\":28329:28347  INITIAL_SUPPLY * 5 */\n      tag_176\n        /* \"indentity_test_3_flattened.sol\":28196:28214  2_000_000 * 10**18 */\n      0x01a784379d99db42000000\n        /* \"indentity_test_3_flattened.sol\":28346:28347  5 */\n      0x05\n        /* \"indentity_test_3_flattened.sol\":28329:28347  INITIAL_SUPPLY * 5 */\n      tag_167\n      jump\t// in\n    tag_176:\n        /* \"indentity_test_3_flattened.sol\":28328:28356  (INITIAL_SUPPLY * 5) / 10000 */\n      tag_177\n      swap2\n      swap1\n      tag_169\n      jump\t// in\n    tag_177:\n        /* \"indentity_test_3_flattened.sol\":29792:29798  amount */\n      dup3\n        /* \"indentity_test_3_flattened.sol\":29792:29808  amount <= MAX_TX */\n      gt\n      iszero\n        /* \"indentity_test_3_flattened.sol\":29784:29842  require(amount <= MAX_TX, \"Exceeds max transaction limit\") */\n      tag_178\n      jumpi\n      mload(0x40)\n      shl(0xe5, 0x461bcd)\n      dup2\n      mstore\n        /* \"#utility.yul\":4475:4477   */\n      0x20\n        /* \"indentity_test_3_flattened.sol\":29784:29842  require(amount <= MAX_TX, \"Exceeds max transaction limit\") */\n      0x04\n      dup3\n      add\n        /* \"#utility.yul\":4457:4478   */\n      mstore\n        /* \"#utility.yul\":4514:4516   */\n      0x1d\n        /* \"#utility.yul\":4494:4512   */\n      0x24\n      dup3\n      add\n        /* \"#utility.yul\":4487:4517   */\n      mstore\n        /* \"#utility.yul\":4553:4584   */\n      0x45786365656473206d6178207472616e73616374696f6e206c696d6974000000\n        /* \"#utility.yul\":4533:4551   */\n      0x44\n      dup3\n      add\n        /* \"#utility.yul\":4526:4585   */\n      mstore\n        /* \"#utility.yul\":4602:4620   */\n      0x64\n      add\n        /* \"indentity_test_3_flattened.sol\":29784:29842  require(amount <= MAX_TX, \"Exceeds max transaction limit\") */\n      tag_174\n        /* \"#utility.yul\":4273:4626   */\n      jump\n        /* \"indentity_test_3_flattened.sol\":29784:29842  require(amount <= MAX_TX, \"Exceeds max transaction limit\") */\n    tag_178:\n        /* \"indentity_test_3_flattened.sol\":29863:29912  _transferWithTaxes(msg.sender, recipient, amount) */\n      tag_181\n        /* \"indentity_test_3_flattened.sol\":29882:29892  msg.sender */\n      caller\n        /* \"indentity_test_3_flattened.sol\":29894:29903  recipient */\n      dup5\n        /* \"indentity_test_3_flattened.sol\":29905:29911  amount */\n      dup5\n        /* \"indentity_test_3_flattened.sol\":29863:29881  _transferWithTaxes */\n      tag_182\n        /* \"indentity_test_3_flattened.sol\":29863:29912  _transferWithTaxes(msg.sender, recipient, amount) */\n      jump\t// in\n    tag_181:\n      pop\n        /* \"indentity_test_3_flattened.sol\":29929:29933  true */\n      0x01\n        /* \"indentity_test_3_flattened.sol\":29471:29940  function transfer(address recipient, uint256 amount)... */\n      swap3\n      swap2\n      pop\n      pop\n      jump\t// out\n        /* \"indentity_test_3_flattened.sol\":32287:32505  function updateUniswapPair(address newPair) external onlyOwner {... */\n    tag_106:\n        /* \"indentity_test_3_flattened.sol\":23302:23315  _checkOwner() */\n      tag_184\n        /* \"indentity_test_3_flattened.sol\":23302:23313  _checkOwner */\n      tag_150\n        /* \"indentity_test_3_flattened.sol\":23302:23315  _checkOwner() */\n      jump\t// in\n    tag_184:\n      sub(shl(0xa0, 0x01), 0x01)\n        /* \"indentity_test_3_flattened.sol\":32368:32389  newPair != address(0) */\n      dup2\n      and\n        /* \"indentity_test_3_flattened.sol\":32360:32425  require(newPair != address(0), \"New pair address cannot be zero\") */\n      tag_186\n      jumpi\n      mload(0x40)\n      shl(0xe5, 0x461bcd)\n      dup2\n      mstore\n        /* \"#utility.yul\":4833:4835   */\n      0x20\n        /* \"indentity_test_3_flattened.sol\":32360:32425  require(newPair != address(0), \"New pair address cannot be zero\") */\n      0x04\n      dup3\n      add\n        /* \"#utility.yul\":4815:4836   */\n      mstore\n        /* \"#utility.yul\":4872:4874   */\n      0x1f\n        /* \"#utility.yul\":4852:4870   */\n      0x24\n      dup3\n      add\n        /* \"#utility.yul\":4845:4875   */\n      mstore\n        /* \"#utility.yul\":4911:4944   */\n      0x4e6577207061697220616464726573732063616e6e6f74206265207a65726f00\n        /* \"#utility.yul\":4891:4909   */\n      0x44\n      dup3\n      add\n        /* \"#utility.yul\":4884:4945   */\n      mstore\n        /* \"#utility.yul\":4962:4980   */\n      0x64\n      add\n        /* \"indentity_test_3_flattened.sol\":32360:32425  require(newPair != address(0), \"New pair address cannot be zero\") */\n      tag_174\n        /* \"#utility.yul\":4631:4986   */\n      jump\n        /* \"indentity_test_3_flattened.sol\":32360:32425  require(newPair != address(0), \"New pair address cannot be zero\") */\n    tag_186:\n        /* \"indentity_test_3_flattened.sol\":32435:32446  uniswapPair */\n      0x0b\n        /* \"indentity_test_3_flattened.sol\":32435:32456  uniswapPair = newPair */\n      dup1\n      sload\n      not(sub(shl(0xa0, 0x01), 0x01))\n      and\n      sub(shl(0xa0, 0x01), 0x01)\n      dup4\n      and\n      swap1\n      dup2\n      or\n      swap1\n      swap2\n      sstore\n        /* \"indentity_test_3_flattened.sol\":32471:32498  UniswapPairUpdated(newPair) */\n      mload(0x40)\n        /* \"#utility.yul\":342:393   */\n      swap1\n      dup2\n      mstore\n        /* \"indentity_test_3_flattened.sol\":32471:32498  UniswapPairUpdated(newPair) */\n      0xdd2689cb5e1ca91bab290e22ada24c52705073cf17bacb82133714fa84271344\n      swap1\n        /* \"#utility.yul\":330:332   */\n      0x20\n        /* \"#utility.yul\":315:333   */\n      add\n        /* \"indentity_test_3_flattened.sol\":32471:32498  UniswapPairUpdated(newPair) */\n      mload(0x40)\n      dup1\n      swap2\n      sub\n      swap1\n      log1\n        /* \"indentity_test_3_flattened.sol\":32287:32505  function updateUniswapPair(address newPair) external onlyOwner {... */\n      pop\n      jump\t// out\n        /* \"indentity_test_3_flattened.sol\":28220:28283  uint256 public constant MAX_WALLET = (INITIAL_SUPPLY * 1) / 100 */\n    tag_119:\n        /* \"indentity_test_3_flattened.sol\":28280:28283  100 */\n      0x64\n        /* \"indentity_test_3_flattened.sol\":28258:28276  INITIAL_SUPPLY * 1 */\n      tag_191\n        /* \"indentity_test_3_flattened.sol\":28196:28214  2_000_000 * 10**18 */\n      0x01a784379d99db42000000\n        /* \"indentity_test_3_flattened.sol\":28275:28276  1 */\n      0x01\n        /* \"indentity_test_3_flattened.sol\":28258:28276  INITIAL_SUPPLY * 1 */\n      tag_167\n      jump\t// in\n    tag_191:\n        /* \"indentity_test_3_flattened.sol\":28257:28283  (INITIAL_SUPPLY * 1) / 100 */\n      tag_192\n      swap2\n      swap1\n      tag_169\n      jump\t// in\n    tag_192:\n        /* \"indentity_test_3_flattened.sol\":28220:28283  uint256 public constant MAX_WALLET = (INITIAL_SUPPLY * 1) / 100 */\n      dup2\n      jump\t// out\n        /* \"indentity_test_3_flattened.sol\":24314:24529  function transferOwnership(address newOwner) public virtual onlyOwner {... */\n    tag_123:\n        /* \"indentity_test_3_flattened.sol\":23302:23315  _checkOwner() */\n      tag_194\n        /* \"indentity_test_3_flattened.sol\":23302:23313  _checkOwner */\n      tag_150\n        /* \"indentity_test_3_flattened.sol\":23302:23315  _checkOwner() */\n      jump\t// in\n    tag_194:\n      sub(shl(0xa0, 0x01), 0x01)\n        /* \"indentity_test_3_flattened.sol\":24398:24420  newOwner == address(0) */\n      dup2\n      and\n        /* \"indentity_test_3_flattened.sol\":24394:24485  if (newOwner == address(0)) {... */\n      tag_196\n      jumpi\n        /* \"indentity_test_3_flattened.sol\":24443:24474  OwnableInvalidOwner(address(0)) */\n      mload(0x40)\n      shl(0xe0, 0x1e4fbdf7)\n      dup2\n      mstore\n        /* \"indentity_test_3_flattened.sol\":24471:24472  0 */\n      0x00\n        /* \"indentity_test_3_flattened.sol\":24443:24474  OwnableInvalidOwner(address(0)) */\n      0x04\n      dup3\n      add\n        /* \"#utility.yul\":342:393   */\n      mstore\n        /* \"#utility.yul\":315:333   */\n      0x24\n      add\n        /* \"indentity_test_3_flattened.sol\":24443:24474  OwnableInvalidOwner(address(0)) */\n      tag_174\n        /* \"#utility.yul\":196:399   */\n      jump\n        /* \"indentity_test_3_flattened.sol\":24394:24485  if (newOwner == address(0)) {... */\n    tag_196:\n        /* \"indentity_test_3_flattened.sol\":24494:24522  _transferOwnership(newOwner) */\n      tag_198\n        /* \"indentity_test_3_flattened.sol\":24513:24521  newOwner */\n      dup2\n        /* \"indentity_test_3_flattened.sol\":24494:24512  _transferOwnership */\n      tag_153\n        /* \"indentity_test_3_flattened.sol\":24494:24522  _transferOwnership(newOwner) */\n      jump\t// in\n    tag_198:\n        /* \"indentity_test_3_flattened.sol\":24314:24529  function transferOwnership(address newOwner) public virtual onlyOwner {... */\n      pop\n      jump\t// out\n        /* \"indentity_test_3_flattened.sol\":28295:28356  uint256 public constant MAX_TX = (INITIAL_SUPPLY * 5) / 10000 */\n    tag_125:\n        /* \"indentity_test_3_flattened.sol\":28351:28356  10000 */\n      0x2710\n        /* \"indentity_test_3_flattened.sol\":28329:28347  INITIAL_SUPPLY * 5 */\n      tag_191\n        /* \"indentity_test_3_flattened.sol\":28196:28214  2_000_000 * 10**18 */\n      0x01a784379d99db42000000\n        /* \"indentity_test_3_flattened.sol\":28346:28347  5 */\n      0x05\n        /* \"indentity_test_3_flattened.sol\":28329:28347  INITIAL_SUPPLY * 5 */\n      tag_167\n      jump\t// in\n        /* \"indentity_test_3_flattened.sol\":19626:19754  function _approve(address owner, address spender, uint256 value) internal {... */\n    tag_138:\n        /* \"indentity_test_3_flattened.sol\":19710:19747  _approve(owner, spender, value, true) */\n      tag_203\n        /* \"indentity_test_3_flattened.sol\":19719:19724  owner */\n      dup4\n        /* \"indentity_test_3_flattened.sol\":19726:19733  spender */\n      dup4\n        /* \"indentity_test_3_flattened.sol\":19735:19740  value */\n      dup4\n        /* \"indentity_test_3_flattened.sol\":19742:19746  true */\n      0x01\n        /* \"indentity_test_3_flattened.sol\":19710:19718  _approve */\n      tag_204\n        /* \"indentity_test_3_flattened.sol\":19710:19747  _approve(owner, spender, value, true) */\n      jump\t// in\n    tag_203:\n        /* \"indentity_test_3_flattened.sol\":19626:19754  function _approve(address owner, address spender, uint256 value) internal {... */\n      pop\n      pop\n      pop\n      jump\t// out\n        /* \"indentity_test_3_flattened.sol\":21315:21791  function _spendAllowance(address owner, address spender, uint256 value) internal virtual {... */\n    tag_143:\n      sub(shl(0xa0, 0x01), 0x01)\n        /* \"indentity_test_3_flattened.sol\":14557:14575  _allowances[owner] */\n      dup4\n      dup2\n      and\n        /* \"indentity_test_3_flattened.sol\":21414:21438  uint256 currentAllowance */\n      0x00\n        /* \"indentity_test_3_flattened.sol\":14557:14575  _allowances[owner] */\n      swap1\n      dup2\n      mstore\n        /* \"indentity_test_3_flattened.sol\":14557:14568  _allowances */\n      0x01\n        /* \"indentity_test_3_flattened.sol\":14557:14575  _allowances[owner] */\n      0x20\n      swap1\n      dup2\n      mstore\n      0x40\n      dup1\n      dup4\n      keccak256\n        /* \"indentity_test_3_flattened.sol\":14557:14584  _allowances[owner][spender] */\n      swap4\n      dup7\n      and\n      dup4\n      mstore\n      swap3\n      swap1\n      mstore\n      keccak256\n      sload\n      not(0x00)\n        /* \"indentity_test_3_flattened.sol\":21480:21516  currentAllowance < type(uint256).max */\n      dup2\n      lt\n        /* \"indentity_test_3_flattened.sol\":21476:21785  if (currentAllowance < type(uint256).max) {... */\n      iszero\n      tag_211\n      jumpi\n        /* \"indentity_test_3_flattened.sol\":21555:21560  value */\n      dup2\n        /* \"indentity_test_3_flattened.sol\":21536:21552  currentAllowance */\n      dup2\n        /* \"indentity_test_3_flattened.sol\":21536:21560  currentAllowance < value */\n      lt\n        /* \"indentity_test_3_flattened.sol\":21532:21662  if (currentAllowance < value) {... */\n      iszero\n      tag_208\n      jumpi\n        /* \"indentity_test_3_flattened.sol\":21587:21647  ERC20InsufficientAllowance(spender, currentAllowance, value) */\n      mload(0x40)\n      shl(0xe1, 0x7dc7a0d9)\n      dup2\n      mstore\n      sub(shl(0xa0, 0x01), 0x01)\n        /* \"#utility.yul\":5211:5243   */\n      dup5\n      and\n        /* \"indentity_test_3_flattened.sol\":21587:21647  ERC20InsufficientAllowance(spender, currentAllowance, value) */\n      0x04\n      dup3\n      add\n        /* \"#utility.yul\":5193:5244   */\n      mstore\n        /* \"#utility.yul\":5260:5278   */\n      0x24\n      dup2\n      add\n        /* \"#utility.yul\":5253:5287   */\n      dup3\n      swap1\n      mstore\n        /* \"#utility.yul\":5303:5321   */\n      0x44\n      dup2\n      add\n        /* \"#utility.yul\":5296:5330   */\n      dup4\n      swap1\n      mstore\n        /* \"#utility.yul\":5166:5184   */\n      0x64\n      add\n        /* \"indentity_test_3_flattened.sol\":21587:21647  ERC20InsufficientAllowance(spender, currentAllowance, value) */\n      tag_174\n        /* \"#utility.yul\":4991:5336   */\n      jump\n        /* \"indentity_test_3_flattened.sol\":21532:21662  if (currentAllowance < value) {... */\n    tag_208:\n        /* \"indentity_test_3_flattened.sol\":21703:21760  _approve(owner, spender, currentAllowance - value, false) */\n      tag_211\n        /* \"indentity_test_3_flattened.sol\":21712:21717  owner */\n      dup5\n        /* \"indentity_test_3_flattened.sol\":21719:21726  spender */\n      dup5\n        /* \"indentity_test_3_flattened.sol\":21747:21752  value */\n      dup5\n        /* \"indentity_test_3_flattened.sol\":21728:21744  currentAllowance */\n      dup5\n        /* \"indentity_test_3_flattened.sol\":21728:21752  currentAllowance - value */\n      sub\n        /* \"indentity_test_3_flattened.sol\":21754:21759  false */\n      0x00\n        /* \"indentity_test_3_flattened.sol\":21703:21711  _approve */\n      tag_204\n        /* \"indentity_test_3_flattened.sol\":21703:21760  _approve(owner, spender, currentAllowance - value, false) */\n      jump\t// in\n    tag_211:\n        /* \"indentity_test_3_flattened.sol\":21404:21791  {... */\n      pop\n        /* \"indentity_test_3_flattened.sol\":21315:21791  function _spendAllowance(address owner, address spender, uint256 value) internal virtual {... */\n      pop\n      pop\n      pop\n      jump\t// out\n        /* \"indentity_test_3_flattened.sol\":16293:16593  function _transfer(address from, address to, uint256 value) internal {... */\n    tag_145:\n      sub(shl(0xa0, 0x01), 0x01)\n        /* \"indentity_test_3_flattened.sol\":16376:16394  from == address(0) */\n      dup4\n      and\n        /* \"indentity_test_3_flattened.sol\":16372:16458  if (from == address(0)) {... */\n      tag_213\n      jumpi\n        /* \"indentity_test_3_flattened.sol\":16417:16447  ERC20InvalidSender(address(0)) */\n      mload(0x40)\n      shl(0xe1, 0x4b637e8f)\n      dup2\n      mstore\n        /* \"indentity_test_3_flattened.sol\":16444:16445  0 */\n      0x00\n        /* \"indentity_test_3_flattened.sol\":16417:16447  ERC20InvalidSender(address(0)) */\n      0x04\n      dup3\n      add\n        /* \"#utility.yul\":342:393   */\n      mstore\n        /* \"#utility.yul\":315:333   */\n      0x24\n      add\n        /* \"indentity_test_3_flattened.sol\":16417:16447  ERC20InvalidSender(address(0)) */\n      tag_174\n        /* \"#utility.yul\":196:399   */\n      jump\n        /* \"indentity_test_3_flattened.sol\":16372:16458  if (from == address(0)) {... */\n    tag_213:\n      sub(shl(0xa0, 0x01), 0x01)\n        /* \"indentity_test_3_flattened.sol\":16471:16487  to == address(0) */\n      dup3\n      and\n        /* \"indentity_test_3_flattened.sol\":16467:16553  if (to == address(0)) {... */\n      tag_215\n      jumpi\n        /* \"indentity_test_3_flattened.sol\":16510:16542  ERC20InvalidReceiver(address(0)) */\n      mload(0x40)\n      shl(0xe0, 0xec442f05)\n      dup2\n      mstore\n        /* \"indentity_test_3_flattened.sol\":16539:16540  0 */\n      0x00\n        /* \"indentity_test_3_flattened.sol\":16510:16542  ERC20InvalidReceiver(address(0)) */\n      0x04\n      dup3\n      add\n        /* \"#utility.yul\":342:393   */\n      mstore\n        /* \"#utility.yul\":315:333   */\n      0x24\n      add\n        /* \"indentity_test_3_flattened.sol\":16510:16542  ERC20InvalidReceiver(address(0)) */\n      tag_174\n        /* \"#utility.yul\":196:399   */\n      jump\n        /* \"indentity_test_3_flattened.sol\":16467:16553  if (to == address(0)) {... */\n    tag_215:\n        /* \"indentity_test_3_flattened.sol\":16562:16586  _update(from, to, value) */\n      tag_203\n        /* \"indentity_test_3_flattened.sol\":16570:16574  from */\n      dup4\n        /* \"indentity_test_3_flattened.sol\":16576:16578  to */\n      dup4\n        /* \"indentity_test_3_flattened.sol\":16580:16585  value */\n      dup4\n        /* \"indentity_test_3_flattened.sol\":16562:16569  _update */\n      tag_218\n        /* \"indentity_test_3_flattened.sol\":16562:16586  _update(from, to, value) */\n      jump\t// in\n        /* \"indentity_test_3_flattened.sol\":23567:23729  function _checkOwner() internal view virtual {... */\n    tag_150:\n        /* \"indentity_test_3_flattened.sol\":23481:23487  _owner */\n      and(sub(shl(0xa0, 0x01), 0x01), sload(0x05))\n        /* \"indentity_test_3_flattened.sol\":4287:4297  msg.sender */\n      caller\n        /* \"indentity_test_3_flattened.sol\":23626:23649  owner() != _msgSender() */\n      eq\n        /* \"indentity_test_3_flattened.sol\":23622:23723  if (owner() != _msgSender()) {... */\n      tag_152\n      jumpi\n        /* \"indentity_test_3_flattened.sol\":23672:23712  OwnableUnauthorizedAccount(_msgSender()) */\n      mload(0x40)\n      shl(0xe0, 0x118cdaa7)\n      dup2\n      mstore\n        /* \"indentity_test_3_flattened.sol\":4287:4297  msg.sender */\n      caller\n        /* \"indentity_test_3_flattened.sol\":23672:23712  OwnableUnauthorizedAccount(_msgSender()) */\n      0x04\n      dup3\n      add\n        /* \"#utility.yul\":342:393   */\n      mstore\n        /* \"#utility.yul\":315:333   */\n      0x24\n      add\n        /* \"indentity_test_3_flattened.sol\":23672:23712  OwnableUnauthorizedAccount(_msgSender()) */\n      tag_174\n        /* \"#utility.yul\":196:399   */\n      jump\n        /* \"indentity_test_3_flattened.sol\":24683:24870  function _transferOwnership(address newOwner) internal virtual {... */\n    tag_153:\n        /* \"indentity_test_3_flattened.sol\":24775:24781  _owner */\n      0x05\n      dup1\n      sload\n      sub(shl(0xa0, 0x01), 0x01)\n        /* \"indentity_test_3_flattened.sol\":24791:24808  _owner = newOwner */\n      dup4\n      dup2\n      and\n      not(sub(shl(0xa0, 0x01), 0x01))\n      dup4\n      and\n      dup2\n      or\n      swap1\n      swap4\n      sstore\n        /* \"indentity_test_3_flattened.sol\":24823:24863  OwnershipTransferred(oldOwner, newOwner) */\n      mload(0x40)\n        /* \"indentity_test_3_flattened.sol\":24775:24781  _owner */\n      swap2\n      and\n      swap2\n        /* \"indentity_test_3_flattened.sol\":24791:24808  _owner = newOwner */\n      swap1\n        /* \"indentity_test_3_flattened.sol\":24775:24781  _owner */\n      dup3\n      swap1\n        /* \"indentity_test_3_flattened.sol\":24823:24863  OwnershipTransferred(oldOwner, newOwner) */\n      0x8be0079c531659141344cd1fd0a4f28419497f9722a3daafe3b4186f6b6457e0\n      swap1\n        /* \"indentity_test_3_flattened.sol\":24756:24772  address oldOwner */\n      0x00\n      swap1\n        /* \"indentity_test_3_flattened.sol\":24823:24863  OwnershipTransferred(oldOwner, newOwner) */\n      log3\n        /* \"indentity_test_3_flattened.sol\":24746:24870  {... */\n      pop\n        /* \"indentity_test_3_flattened.sol\":24683:24870  function _transferOwnership(address newOwner) internal virtual {... */\n      pop\n      jump\t// out\n        /* \"indentity_test_3_flattened.sol\":29946:32027  function _transferWithTaxes(... */\n    tag_182:\n        /* \"indentity_test_3_flattened.sol\":30319:30330  uniswapPair */\n      sload(0x0b)\n        /* \"indentity_test_3_flattened.sol\":30074:30085  uint256 tax */\n      0x00\n      swap1\n      dup2\n      swap1\n      dup2\n      swap1\n      dup2\n      swap1\n      dup2\n      swap1\n      dup2\n      swap1\n      sub(shl(0xa0, 0x01), 0x01)\n        /* \"indentity_test_3_flattened.sol\":30319:30330  uniswapPair */\n      swap1\n      dup2\n      and\n        /* \"indentity_test_3_flattened.sol\":30306:30330  recipient == uniswapPair */\n      swap1\n      dup10\n      and\n      sub\n        /* \"indentity_test_3_flattened.sol\":30302:31226  if (recipient == uniswapPair) {... */\n      tag_227\n      jumpi\n        /* \"indentity_test_3_flattened.sol\":30416:30419  100 */\n      0x64\n        /* \"indentity_test_3_flattened.sol\":30395:30412  amount * SELL_TAX */\n      tag_228\n        /* \"indentity_test_3_flattened.sol\":28676:28678  12 */\n      0x0c\n        /* \"indentity_test_3_flattened.sol\":30395:30401  amount */\n      dup10\n        /* \"indentity_test_3_flattened.sol\":30395:30412  amount * SELL_TAX */\n      tag_167\n      jump\t// in\n    tag_228:\n        /* \"indentity_test_3_flattened.sol\":30394:30419  (amount * SELL_TAX) / 100 */\n      tag_229\n      swap2\n      swap1\n      tag_169\n      jump\t// in\n    tag_229:\n        /* \"indentity_test_3_flattened.sol\":30388:30419  tax = (amount * SELL_TAX) / 100 */\n      swap6\n      pop\n        /* \"indentity_test_3_flattened.sol\":30455:30457  12 */\n      0x0c\n        /* \"indentity_test_3_flattened.sol\":30444:30451  tax * 4 */\n      tag_230\n        /* \"indentity_test_3_flattened.sol\":30388:30419  tax = (amount * SELL_TAX) / 100 */\n      dup8\n        /* \"indentity_test_3_flattened.sol\":30450:30451  4 */\n      0x04\n        /* \"indentity_test_3_flattened.sol\":30444:30451  tax * 4 */\n      tag_167\n      jump\t// in\n    tag_230:\n        /* \"indentity_test_3_flattened.sol\":30443:30457  (tax * 4) / 12 */\n      tag_231\n      swap2\n      swap1\n      tag_169\n      jump\t// in\n    tag_231:\n        /* \"indentity_test_3_flattened.sol\":30433:30457  lpShare = (tax * 4) / 12 */\n      swap5\n      pop\n        /* \"indentity_test_3_flattened.sol\":30526:30528  12 */\n      0x0c\n        /* \"indentity_test_3_flattened.sol\":30515:30522  tax * 4 */\n      tag_232\n        /* \"indentity_test_3_flattened.sol\":30515:30518  tax */\n      dup8\n        /* \"indentity_test_3_flattened.sol\":30521:30522  4 */\n      0x04\n        /* \"indentity_test_3_flattened.sol\":30515:30522  tax * 4 */\n      tag_167\n      jump\t// in\n    tag_232:\n        /* \"indentity_test_3_flattened.sol\":30514:30528  (tax * 4) / 12 */\n      tag_233\n      swap2\n      swap1\n      tag_169\n      jump\t// in\n    tag_233:\n        /* \"indentity_test_3_flattened.sol\":30493:30528  encouragementShare = (tax * 4) / 12 */\n      swap4\n      pop\n        /* \"indentity_test_3_flattened.sol\":30600:30602  12 */\n      0x0c\n        /* \"indentity_test_3_flattened.sol\":30589:30596  tax * 1 */\n      tag_234\n        /* \"indentity_test_3_flattened.sol\":30589:30592  tax */\n      dup8\n        /* \"indentity_test_3_flattened.sol\":30595:30596  1 */\n      0x01\n        /* \"indentity_test_3_flattened.sol\":30589:30596  tax * 1 */\n      tag_167\n      jump\t// in\n    tag_234:\n        /* \"indentity_test_3_flattened.sol\":30588:30602  (tax * 1) / 12 */\n      tag_235\n      swap2\n      swap1\n      tag_169\n      jump\t// in\n    tag_235:\n        /* \"indentity_test_3_flattened.sol\":30571:30602  emergencyShare = (tax * 1) / 12 */\n      swap3\n      pop\n        /* \"indentity_test_3_flattened.sol\":30674:30676  12 */\n      0x0c\n        /* \"indentity_test_3_flattened.sol\":30663:30670  tax * 2 */\n      tag_236\n        /* \"indentity_test_3_flattened.sol\":30663:30666  tax */\n      dup8\n        /* \"indentity_test_3_flattened.sol\":30669:30670  2 */\n      0x02\n        /* \"indentity_test_3_flattened.sol\":30663:30670  tax * 2 */\n      tag_167\n      jump\t// in\n    tag_236:\n        /* \"indentity_test_3_flattened.sol\":30662:30676  (tax * 2) / 12 */\n      tag_237\n      swap2\n      swap1\n      tag_169\n      jump\t// in\n    tag_237:\n        /* \"indentity_test_3_flattened.sol\":30645:30676  marketingShare = (tax * 2) / 12 */\n      swap2\n      pop\n        /* \"indentity_test_3_flattened.sol\":30741:30743  12 */\n      0x0c\n        /* \"indentity_test_3_flattened.sol\":30730:30737  tax * 1 */\n      tag_238\n        /* \"indentity_test_3_flattened.sol\":30730:30733  tax */\n      dup8\n        /* \"indentity_test_3_flattened.sol\":30736:30737  1 */\n      0x01\n        /* \"indentity_test_3_flattened.sol\":30730:30737  tax * 1 */\n      tag_167\n      jump\t// in\n    tag_238:\n        /* \"indentity_test_3_flattened.sol\":30729:30743  (tax * 1) / 12 */\n      tag_239\n      swap2\n      swap1\n      tag_169\n      jump\t// in\n    tag_239:\n        /* \"indentity_test_3_flattened.sol\":30714:30743  stakingShare = (tax * 1) / 12 */\n      swap1\n      pop\n        /* \"indentity_test_3_flattened.sol\":30302:31226  if (recipient == uniswapPair) {... */\n      jump(tag_240)\n    tag_227:\n        /* \"indentity_test_3_flattened.sol\":30865:30868  100 */\n      0x64\n        /* \"indentity_test_3_flattened.sol\":30845:30861  amount * BUY_TAX */\n      tag_241\n        /* \"indentity_test_3_flattened.sol\":28633:28635  10 */\n      0x0a\n        /* \"indentity_test_3_flattened.sol\":30845:30851  amount */\n      dup10\n        /* \"indentity_test_3_flattened.sol\":30845:30861  amount * BUY_TAX */\n      tag_167\n      jump\t// in\n    tag_241:\n        /* \"indentity_test_3_flattened.sol\":30844:30868  (amount * BUY_TAX) / 100 */\n      tag_242\n      swap2\n      swap1\n      tag_169\n      jump\t// in\n    tag_242:\n        /* \"indentity_test_3_flattened.sol\":30838:30868  tax = (amount * BUY_TAX) / 100 */\n      swap6\n      pop\n        /* \"indentity_test_3_flattened.sol\":30904:30906  10 */\n      0x0a\n        /* \"indentity_test_3_flattened.sol\":30893:30900  tax * 3 */\n      tag_243\n        /* \"indentity_test_3_flattened.sol\":30838:30868  tax = (amount * BUY_TAX) / 100 */\n      dup8\n        /* \"indentity_test_3_flattened.sol\":30899:30900  3 */\n      0x03\n        /* \"indentity_test_3_flattened.sol\":30893:30900  tax * 3 */\n      tag_167\n      jump\t// in\n    tag_243:\n        /* \"indentity_test_3_flattened.sol\":30892:30906  (tax * 3) / 10 */\n      tag_244\n      swap2\n      swap1\n      tag_169\n      jump\t// in\n    tag_244:\n        /* \"indentity_test_3_flattened.sol\":30882:30906  lpShare = (tax * 3) / 10 */\n      swap5\n      pop\n        /* \"indentity_test_3_flattened.sol\":30975:30977  10 */\n      0x0a\n        /* \"indentity_test_3_flattened.sol\":30964:30971  tax * 4 */\n      tag_245\n        /* \"indentity_test_3_flattened.sol\":30964:30967  tax */\n      dup8\n        /* \"indentity_test_3_flattened.sol\":30970:30971  4 */\n      0x04\n        /* \"indentity_test_3_flattened.sol\":30964:30971  tax * 4 */\n      tag_167\n      jump\t// in\n    tag_245:\n        /* \"indentity_test_3_flattened.sol\":30963:30977  (tax * 4) / 10 */\n      tag_246\n      swap2\n      swap1\n      tag_169\n      jump\t// in\n    tag_246:\n        /* \"indentity_test_3_flattened.sol\":30942:30977  encouragementShare = (tax * 4) / 10 */\n      swap4\n      pop\n        /* \"indentity_test_3_flattened.sol\":31049:31051  10 */\n      0x0a\n        /* \"indentity_test_3_flattened.sol\":31038:31045  tax * 1 */\n      tag_247\n        /* \"indentity_test_3_flattened.sol\":31038:31041  tax */\n      dup8\n        /* \"indentity_test_3_flattened.sol\":31044:31045  1 */\n      0x01\n        /* \"indentity_test_3_flattened.sol\":31038:31045  tax * 1 */\n      tag_167\n      jump\t// in\n    tag_247:\n        /* \"indentity_test_3_flattened.sol\":31037:31051  (tax * 1) / 10 */\n      tag_248\n      swap2\n      swap1\n      tag_169\n      jump\t// in\n    tag_248:\n        /* \"indentity_test_3_flattened.sol\":31020:31051  emergencyShare = (tax * 1) / 10 */\n      swap3\n      pop\n        /* \"indentity_test_3_flattened.sol\":31123:31125  10 */\n      0x0a\n        /* \"indentity_test_3_flattened.sol\":31112:31119  tax * 1 */\n      tag_249\n        /* \"indentity_test_3_flattened.sol\":31112:31115  tax */\n      dup8\n        /* \"indentity_test_3_flattened.sol\":31118:31119  1 */\n      0x01\n        /* \"indentity_test_3_flattened.sol\":31112:31119  tax * 1 */\n      tag_167\n      jump\t// in\n    tag_249:\n        /* \"indentity_test_3_flattened.sol\":31111:31125  (tax * 1) / 10 */\n      tag_250\n      swap2\n      swap1\n      tag_169\n      jump\t// in\n    tag_250:\n        /* \"indentity_test_3_flattened.sol\":31094:31125  marketingShare = (tax * 1) / 10 */\n      swap2\n      pop\n        /* \"indentity_test_3_flattened.sol\":31190:31192  10 */\n      0x0a\n        /* \"indentity_test_3_flattened.sol\":31179:31186  tax * 1 */\n      tag_251\n        /* \"indentity_test_3_flattened.sol\":31179:31182  tax */\n      dup8\n        /* \"indentity_test_3_flattened.sol\":31185:31186  1 */\n      0x01\n        /* \"indentity_test_3_flattened.sol\":31179:31186  tax * 1 */\n      tag_167\n      jump\t// in\n    tag_251:\n        /* \"indentity_test_3_flattened.sol\":31178:31192  (tax * 1) / 10 */\n      tag_252\n      swap2\n      swap1\n      tag_169\n      jump\t// in\n    tag_252:\n        /* \"indentity_test_3_flattened.sol\":31163:31192  stakingShare = (tax * 1) / 10 */\n      swap1\n      pop\n        /* \"indentity_test_3_flattened.sol\":30302:31226  if (recipient == uniswapPair) {... */\n    tag_240:\n        /* \"indentity_test_3_flattened.sol\":31236:31253  uint256 netAmount */\n      0x00\n        /* \"indentity_test_3_flattened.sol\":31256:31268  amount - tax */\n      tag_253\n        /* \"indentity_test_3_flattened.sol\":31265:31268  tax */\n      dup8\n        /* \"indentity_test_3_flattened.sol\":31256:31262  amount */\n      dup10\n        /* \"indentity_test_3_flattened.sol\":31256:31268  amount - tax */\n      tag_254\n      jump\t// in\n    tag_253:\n        /* \"indentity_test_3_flattened.sol\":31333:31350  encouragementFund */\n      sload(0x07)\n        /* \"indentity_test_3_flattened.sol\":31236:31268  uint256 netAmount = amount - tax */\n      swap1\n      swap2\n      pop\n        /* \"indentity_test_3_flattened.sol\":31309:31371  super._transfer(sender, encouragementFund, encouragementShare) */\n      tag_255\n      swap1\n        /* \"indentity_test_3_flattened.sol\":31325:31331  sender */\n      dup12\n      swap1\n      sub(shl(0xa0, 0x01), 0x01)\n        /* \"indentity_test_3_flattened.sol\":31333:31350  encouragementFund */\n      and\n        /* \"indentity_test_3_flattened.sol\":31352:31370  encouragementShare */\n      dup8\n        /* \"indentity_test_3_flattened.sol\":31309:31324  super._transfer */\n      tag_145\n        /* \"indentity_test_3_flattened.sol\":31309:31371  super._transfer(sender, encouragementFund, encouragementShare) */\n      jump\t// in\n    tag_255:\n      0x00\n      dup1\n      mload\n      0x20\n      data_859952f8ad95bf3b9d6ec6d5182f93b209cbb9a33d14bac6f48292b740d5a146\n      dup4\n      codecopy\n      dup2\n      mload\n      swap2\n      mstore\n        /* \"indentity_test_3_flattened.sol\":31401:31419  encouragementShare */\n      dup6\n        /* \"indentity_test_3_flattened.sol\":31386:31442  TaxDistributed(encouragementShare, \"Encouragement Fund\") */\n      mload(0x40)\n      tag_256\n      swap2\n        /* \"#utility.yul\":5686:5711   */\n      dup2\n      mstore\n        /* \"#utility.yul\":5747:5749   */\n      0x40\n        /* \"#utility.yul\":5742:5744   */\n      0x20\n        /* \"#utility.yul\":5727:5745   */\n      dup3\n      add\n        /* \"#utility.yul\":5720:5750   */\n      dup2\n      swap1\n      mstore\n        /* \"#utility.yul\":5786:5788   */\n      0x12\n        /* \"#utility.yul\":5766:5784   */\n      swap1\n      dup3\n      add\n        /* \"#utility.yul\":5759:5789   */\n      mstore\n      shl(0x72, 0x115b98dbdd5c9859d95b595b9d08119d5b99)\n        /* \"#utility.yul\":5820:5822   */\n      0x60\n        /* \"#utility.yul\":5805:5823   */\n      dup3\n      add\n        /* \"#utility.yul\":5798:5846   */\n      mstore\n        /* \"#utility.yul\":5878:5881   */\n      0x80\n        /* \"#utility.yul\":5863:5882   */\n      add\n      swap1\n        /* \"#utility.yul\":5474:5888   */\n      jump\n        /* \"indentity_test_3_flattened.sol\":31386:31442  TaxDistributed(encouragementShare, \"Encouragement Fund\") */\n    tag_256:\n      mload(0x40)\n      dup1\n      swap2\n      sub\n      swap1\n      log1\n        /* \"indentity_test_3_flattened.sol\":31477:31490  emergencyFund */\n      sload(0x08)\n        /* \"indentity_test_3_flattened.sol\":31453:31507  super._transfer(sender, emergencyFund, emergencyShare) */\n      tag_258\n      swap1\n        /* \"indentity_test_3_flattened.sol\":31469:31475  sender */\n      dup12\n      swap1\n      sub(shl(0xa0, 0x01), 0x01)\n        /* \"indentity_test_3_flattened.sol\":31477:31490  emergencyFund */\n      and\n        /* \"indentity_test_3_flattened.sol\":31492:31506  emergencyShare */\n      dup7\n        /* \"indentity_test_3_flattened.sol\":31453:31468  super._transfer */\n      tag_145\n        /* \"indentity_test_3_flattened.sol\":31453:31507  super._transfer(sender, emergencyFund, emergencyShare) */\n      jump\t// in\n    tag_258:\n      0x00\n      dup1\n      mload\n      0x20\n      data_859952f8ad95bf3b9d6ec6d5182f93b209cbb9a33d14bac6f48292b740d5a146\n      dup4\n      codecopy\n      dup2\n      mload\n      swap2\n      mstore\n        /* \"indentity_test_3_flattened.sol\":31537:31551  emergencyShare */\n      dup5\n        /* \"indentity_test_3_flattened.sol\":31522:31570  TaxDistributed(emergencyShare, \"Emergency Fund\") */\n      mload(0x40)\n      tag_259\n      swap2\n        /* \"#utility.yul\":6105:6130   */\n      dup2\n      mstore\n        /* \"#utility.yul\":6166:6168   */\n      0x40\n        /* \"#utility.yul\":6161:6163   */\n      0x20\n        /* \"#utility.yul\":6146:6164   */\n      dup3\n      add\n        /* \"#utility.yul\":6139:6169   */\n      dup2\n      swap1\n      mstore\n        /* \"#utility.yul\":6205:6207   */\n      0x0e\n        /* \"#utility.yul\":6185:6203   */\n      swap1\n      dup3\n      add\n        /* \"#utility.yul\":6178:6208   */\n      mstore\n      shl(0x92, 0x115b595c99d95b98de48119d5b99)\n        /* \"#utility.yul\":6239:6241   */\n      0x60\n        /* \"#utility.yul\":6224:6242   */\n      dup3\n      add\n        /* \"#utility.yul\":6217:6261   */\n      mstore\n        /* \"#utility.yul\":6293:6296   */\n      0x80\n        /* \"#utility.yul\":6278:6297   */\n      add\n      swap1\n        /* \"#utility.yul\":5893:6303   */\n      jump\n        /* \"indentity_test_3_flattened.sol\":31522:31570  TaxDistributed(emergencyShare, \"Emergency Fund\") */\n    tag_259:\n      mload(0x40)\n      dup1\n      swap2\n      sub\n      swap1\n      log1\n        /* \"indentity_test_3_flattened.sol\":31605:31620  marketingWallet */\n      sload(0x09)\n        /* \"indentity_test_3_flattened.sol\":31581:31637  super._transfer(sender, marketingWallet, marketingShare) */\n      tag_261\n      swap1\n        /* \"indentity_test_3_flattened.sol\":31597:31603  sender */\n      dup12\n      swap1\n      sub(shl(0xa0, 0x01), 0x01)\n        /* \"indentity_test_3_flattened.sol\":31605:31620  marketingWallet */\n      and\n        /* \"indentity_test_3_flattened.sol\":31622:31636  marketingShare */\n      dup6\n        /* \"indentity_test_3_flattened.sol\":31581:31596  super._transfer */\n      tag_145\n        /* \"indentity_test_3_flattened.sol\":31581:31637  super._transfer(sender, marketingWallet, marketingShare) */\n      jump\t// in\n    tag_261:\n      0x00\n      dup1\n      mload\n      0x20\n      data_859952f8ad95bf3b9d6ec6d5182f93b209cbb9a33d14bac6f48292b740d5a146\n      dup4\n      codecopy\n      dup2\n      mload\n      swap2\n      mstore\n        /* \"indentity_test_3_flattened.sol\":31667:31681  marketingShare */\n      dup4\n        /* \"indentity_test_3_flattened.sol\":31652:31695  TaxDistributed(marketingShare, \"Marketing\") */\n      mload(0x40)\n      tag_262\n      swap2\n        /* \"#utility.yul\":6520:6545   */\n      dup2\n      mstore\n        /* \"#utility.yul\":6581:6583   */\n      0x40\n        /* \"#utility.yul\":6576:6578   */\n      0x20\n        /* \"#utility.yul\":6561:6579   */\n      dup3\n      add\n        /* \"#utility.yul\":6554:6584   */\n      dup2\n      swap1\n      mstore\n        /* \"#utility.yul\":6620:6621   */\n      0x09\n        /* \"#utility.yul\":6600:6618   */\n      swap1\n      dup3\n      add\n        /* \"#utility.yul\":6593:6622   */\n      mstore\n      shl(0xb8, 0x4d61726b6574696e67)\n        /* \"#utility.yul\":6653:6655   */\n      0x60\n        /* \"#utility.yul\":6638:6656   */\n      dup3\n      add\n        /* \"#utility.yul\":6631:6670   */\n      mstore\n        /* \"#utility.yul\":6702:6705   */\n      0x80\n        /* \"#utility.yul\":6687:6706   */\n      add\n      swap1\n        /* \"#utility.yul\":6308:6712   */\n      jump\n        /* \"indentity_test_3_flattened.sol\":31652:31695  TaxDistributed(marketingShare, \"Marketing\") */\n    tag_262:\n      mload(0x40)\n      dup1\n      swap2\n      sub\n      swap1\n      log1\n        /* \"indentity_test_3_flattened.sol\":31730:31743  stakingWallet */\n      sload(0x0a)\n        /* \"indentity_test_3_flattened.sol\":31706:31758  super._transfer(sender, stakingWallet, stakingShare) */\n      tag_264\n      swap1\n        /* \"indentity_test_3_flattened.sol\":31722:31728  sender */\n      dup12\n      swap1\n      sub(shl(0xa0, 0x01), 0x01)\n        /* \"indentity_test_3_flattened.sol\":31730:31743  stakingWallet */\n      and\n        /* \"indentity_test_3_flattened.sol\":31745:31757  stakingShare */\n      dup5\n        /* \"indentity_test_3_flattened.sol\":31706:31721  super._transfer */\n      tag_145\n        /* \"indentity_test_3_flattened.sol\":31706:31758  super._transfer(sender, stakingWallet, stakingShare) */\n      jump\t// in\n    tag_264:\n      0x00\n      dup1\n      mload\n      0x20\n      data_859952f8ad95bf3b9d6ec6d5182f93b209cbb9a33d14bac6f48292b740d5a146\n      dup4\n      codecopy\n      dup2\n      mload\n      swap2\n      mstore\n        /* \"indentity_test_3_flattened.sol\":31788:31800  stakingShare */\n      dup3\n        /* \"indentity_test_3_flattened.sol\":31773:31812  TaxDistributed(stakingShare, \"Staking\") */\n      mload(0x40)\n      tag_265\n      swap2\n        /* \"#utility.yul\":6929:6954   */\n      dup2\n      mstore\n        /* \"#utility.yul\":6990:6992   */\n      0x40\n        /* \"#utility.yul\":6985:6987   */\n      0x20\n        /* \"#utility.yul\":6970:6988   */\n      dup3\n      add\n        /* \"#utility.yul\":6963:6993   */\n      dup2\n      swap1\n      mstore\n        /* \"#utility.yul\":7029:7030   */\n      0x07\n        /* \"#utility.yul\":7009:7027   */\n      swap1\n      dup3\n      add\n        /* \"#utility.yul\":7002:7031   */\n      mstore\n      shl(0xc8, 0x5374616b696e67)\n        /* \"#utility.yul\":7062:7064   */\n      0x60\n        /* \"#utility.yul\":7047:7065   */\n      dup3\n      add\n        /* \"#utility.yul\":7040:7077   */\n      mstore\n        /* \"#utility.yul\":7109:7112   */\n      0x80\n        /* \"#utility.yul\":7094:7113   */\n      add\n      swap1\n        /* \"#utility.yul\":6717:7119   */\n      jump\n        /* \"indentity_test_3_flattened.sol\":31773:31812  TaxDistributed(stakingShare, \"Staking\") */\n    tag_265:\n      mload(0x40)\n      dup1\n      swap2\n      sub\n      swap1\n      log1\n        /* \"indentity_test_3_flattened.sol\":31823:31870  super._transfer(sender, address(this), lpShare) */\n      tag_267\n        /* \"indentity_test_3_flattened.sol\":31839:31845  sender */\n      dup11\n        /* \"indentity_test_3_flattened.sol\":31855:31859  this */\n      address\n        /* \"indentity_test_3_flattened.sol\":31862:31869  lpShare */\n      dup9\n        /* \"indentity_test_3_flattened.sol\":31823:31838  super._transfer */\n      tag_145\n        /* \"indentity_test_3_flattened.sol\":31823:31870  super._transfer(sender, address(this), lpShare) */\n      jump\t// in\n    tag_267:\n      0x00\n      dup1\n      mload\n      0x20\n      data_859952f8ad95bf3b9d6ec6d5182f93b209cbb9a33d14bac6f48292b740d5a146\n      dup4\n      codecopy\n      dup2\n      mload\n      swap2\n      mstore\n        /* \"indentity_test_3_flattened.sol\":31938:31945  lpShare */\n      dup7\n        /* \"indentity_test_3_flattened.sol\":31923:31964  TaxDistributed(lpShare, \"Liquidity Pool\") */\n      mload(0x40)\n      tag_268\n      swap2\n        /* \"#utility.yul\":7336:7361   */\n      dup2\n      mstore\n        /* \"#utility.yul\":7397:7399   */\n      0x40\n        /* \"#utility.yul\":7392:7394   */\n      0x20\n        /* \"#utility.yul\":7377:7395   */\n      dup3\n      add\n        /* \"#utility.yul\":7370:7400   */\n      dup2\n      swap1\n      mstore\n        /* \"#utility.yul\":7436:7438   */\n      0x0e\n        /* \"#utility.yul\":7416:7434   */\n      swap1\n      dup3\n      add\n        /* \"#utility.yul\":7409:7439   */\n      mstore\n      shl(0x92, 0x131a5c5d5a591a5d1e48141bdbdb)\n        /* \"#utility.yul\":7470:7472   */\n      0x60\n        /* \"#utility.yul\":7455:7473   */\n      dup3\n      add\n        /* \"#utility.yul\":7448:7492   */\n      mstore\n        /* \"#utility.yul\":7524:7527   */\n      0x80\n        /* \"#utility.yul\":7509:7528   */\n      add\n      swap1\n        /* \"#utility.yul\":7124:7534   */\n      jump\n        /* \"indentity_test_3_flattened.sol\":31923:31964  TaxDistributed(lpShare, \"Liquidity Pool\") */\n    tag_268:\n      mload(0x40)\n      dup1\n      swap2\n      sub\n      swap1\n      log1\n        /* \"indentity_test_3_flattened.sol\":31975:32020  super._transfer(sender, recipient, netAmount) */\n      tag_270\n        /* \"indentity_test_3_flattened.sol\":31991:31997  sender */\n      dup11\n        /* \"indentity_test_3_flattened.sol\":31999:32008  recipient */\n      dup11\n        /* \"indentity_test_3_flattened.sol\":32010:32019  netAmount */\n      dup4\n        /* \"indentity_test_3_flattened.sol\":31975:31990  super._transfer */\n      tag_145\n        /* \"indentity_test_3_flattened.sol\":31975:32020  super._transfer(sender, recipient, netAmount) */\n      jump\t// in\n    tag_270:\n        /* \"indentity_test_3_flattened.sol\":30064:32027  {... */\n      pop\n      pop\n      pop\n      pop\n      pop\n      pop\n      pop\n        /* \"indentity_test_3_flattened.sol\":29946:32027  function _transferWithTaxes(... */\n      pop\n      pop\n      pop\n      jump\t// out\n        /* \"indentity_test_3_flattened.sol\":20601:21033  function _approve(address owner, address spender, uint256 value, bool emitEvent) internal virtual {... */\n    tag_204:\n      sub(shl(0xa0, 0x01), 0x01)\n        /* \"indentity_test_3_flattened.sol\":20713:20732  owner == address(0) */\n      dup5\n      and\n        /* \"indentity_test_3_flattened.sol\":20709:20798  if (owner == address(0)) {... */\n      tag_272\n      jumpi\n        /* \"indentity_test_3_flattened.sol\":20755:20787  ERC20InvalidApprover(address(0)) */\n      mload(0x40)\n      shl(0xe0, 0xe602df05)\n      dup2\n      mstore\n        /* \"indentity_test_3_flattened.sol\":20784:20785  0 */\n      0x00\n        /* \"indentity_test_3_flattened.sol\":20755:20787  ERC20InvalidApprover(address(0)) */\n      0x04\n      dup3\n      add\n        /* \"#utility.yul\":342:393   */\n      mstore\n        /* \"#utility.yul\":315:333   */\n      0x24\n      add\n        /* \"indentity_test_3_flattened.sol\":20755:20787  ERC20InvalidApprover(address(0)) */\n      tag_174\n        /* \"#utility.yul\":196:399   */\n      jump\n        /* \"indentity_test_3_flattened.sol\":20709:20798  if (owner == address(0)) {... */\n    tag_272:\n      sub(shl(0xa0, 0x01), 0x01)\n        /* \"indentity_test_3_flattened.sol\":20811:20832  spender == address(0) */\n      dup4\n      and\n        /* \"indentity_test_3_flattened.sol\":20807:20897  if (spender == address(0)) {... */\n      tag_274\n      jumpi\n        /* \"indentity_test_3_flattened.sol\":20855:20886  ERC20InvalidSpender(address(0)) */\n      mload(0x40)\n      shl(0xe1, 0x4a1406b1)\n      dup2\n      mstore\n        /* \"indentity_test_3_flattened.sol\":20883:20884  0 */\n      0x00\n        /* \"indentity_test_3_flattened.sol\":20855:20886  ERC20InvalidSpender(address(0)) */\n      0x04\n      dup3\n      add\n        /* \"#utility.yul\":342:393   */\n      mstore\n        /* \"#utility.yul\":315:333   */\n      0x24\n      add\n        /* \"indentity_test_3_flattened.sol\":20855:20886  ERC20InvalidSpender(address(0)) */\n      tag_174\n        /* \"#utility.yul\":196:399   */\n      jump\n        /* \"indentity_test_3_flattened.sol\":20807:20897  if (spender == address(0)) {... */\n    tag_274:\n      sub(shl(0xa0, 0x01), 0x01)\n        /* \"indentity_test_3_flattened.sol\":20906:20924  _allowances[owner] */\n      dup1\n      dup6\n      and\n      0x00\n      swap1\n      dup2\n      mstore\n        /* \"indentity_test_3_flattened.sol\":20906:20917  _allowances */\n      0x01\n        /* \"indentity_test_3_flattened.sol\":20906:20924  _allowances[owner] */\n      0x20\n      swap1\n      dup2\n      mstore\n      0x40\n      dup1\n      dup4\n      keccak256\n        /* \"indentity_test_3_flattened.sol\":20906:20933  _allowances[owner][spender] */\n      swap4\n      dup8\n      and\n      dup4\n      mstore\n      swap3\n      swap1\n      mstore\n      keccak256\n        /* \"indentity_test_3_flattened.sol\":20906:20941  _allowances[owner][spender] = value */\n      dup3\n      swap1\n      sstore\n        /* \"indentity_test_3_flattened.sol\":20951:21027  if (emitEvent) {... */\n      dup1\n      iszero\n      tag_211\n      jumpi\n        /* \"indentity_test_3_flattened.sol\":21001:21008  spender */\n      dup3\n      sub(shl(0xa0, 0x01), 0x01)\n        /* \"indentity_test_3_flattened.sol\":20985:21016  Approval(owner, spender, value) */\n      and\n        /* \"indentity_test_3_flattened.sol\":20994:20999  owner */\n      dup5\n      sub(shl(0xa0, 0x01), 0x01)\n        /* \"indentity_test_3_flattened.sol\":20985:21016  Approval(owner, spender, value) */\n      and\n      0x8c5be1e5ebec7d5bd14f71427d1e84f3dd0314c0f7b2291e5b200ac8c7c3b925\n        /* \"indentity_test_3_flattened.sol\":21010:21015  value */\n      dup5\n        /* \"indentity_test_3_flattened.sol\":20985:21016  Approval(owner, spender, value) */\n      mload(0x40)\n      tag_277\n      swap2\n        /* \"#utility.yul\":160:185   */\n      dup2\n      mstore\n        /* \"#utility.yul\":148:150   */\n      0x20\n        /* \"#utility.yul\":133:151   */\n      add\n      swap1\n        /* \"#utility.yul\":14:191   */\n      jump\n        /* \"indentity_test_3_flattened.sol\":20985:21016  Approval(owner, spender, value) */\n    tag_277:\n      mload(0x40)\n      dup1\n      swap2\n      sub\n      swap1\n      log3\n        /* \"indentity_test_3_flattened.sol\":20601:21033  function _approve(address owner, address spender, uint256 value, bool emitEvent) internal virtual {... */\n      pop\n      pop\n      pop\n      pop\n      jump\t// out\n        /* \"indentity_test_3_flattened.sol\":16908:18015  function _update(address from, address to, uint256 value) internal virtual {... */\n    tag_218:\n      sub(shl(0xa0, 0x01), 0x01)\n        /* \"indentity_test_3_flattened.sol\":16997:17015  from == address(0) */\n      dup4\n      and\n        /* \"indentity_test_3_flattened.sol\":16993:17533  if (from == address(0)) {... */\n      tag_279\n      jumpi\n        /* \"indentity_test_3_flattened.sol\":17149:17154  value */\n      dup1\n        /* \"indentity_test_3_flattened.sol\":17133:17145  _totalSupply */\n      0x02\n      0x00\n        /* \"indentity_test_3_flattened.sol\":17133:17154  _totalSupply += value */\n      dup3\n      dup3\n      sload\n      tag_280\n      swap2\n      swap1\n      tag_172\n      jump\t// in\n    tag_280:\n      swap1\n      swap2\n      sstore\n      pop\n        /* \"indentity_test_3_flattened.sol\":16993:17533  if (from == address(0)) {... */\n      tag_281\n      swap1\n      pop\n      jump\n    tag_279:\n      sub(shl(0xa0, 0x01), 0x01)\n        /* \"indentity_test_3_flattened.sol\":17207:17222  _balances[from] */\n      dup4\n      and\n        /* \"indentity_test_3_flattened.sol\":17185:17204  uint256 fromBalance */\n      0x00\n        /* \"indentity_test_3_flattened.sol\":17207:17222  _balances[from] */\n      swap1\n      dup2\n      mstore\n      0x20\n      dup2\n      swap1\n      mstore\n      0x40\n      swap1\n      keccak256\n      sload\n        /* \"indentity_test_3_flattened.sol\":17240:17259  fromBalance < value */\n      dup2\n      dup2\n      lt\n        /* \"indentity_test_3_flattened.sol\":17236:17351  if (fromBalance < value) {... */\n      iszero\n      tag_282\n      jumpi\n        /* \"indentity_test_3_flattened.sol\":17286:17336  ERC20InsufficientBalance(from, fromBalance, value) */\n      mload(0x40)\n      shl(0xe2, 0x391434e3)\n      dup2\n      mstore\n      sub(shl(0xa0, 0x01), 0x01)\n        /* \"#utility.yul\":5211:5243   */\n      dup6\n      and\n        /* \"indentity_test_3_flattened.sol\":17286:17336  ERC20InsufficientBalance(from, fromBalance, value) */\n      0x04\n      dup3\n      add\n        /* \"#utility.yul\":5193:5244   */\n      mstore\n        /* \"#utility.yul\":5260:5278   */\n      0x24\n      dup2\n      add\n        /* \"#utility.yul\":5253:5287   */\n      dup3\n      swap1\n      mstore\n        /* \"#utility.yul\":5303:5321   */\n      0x44\n      dup2\n      add\n        /* \"#utility.yul\":5296:5330   */\n      dup4\n      swap1\n      mstore\n        /* \"#utility.yul\":5166:5184   */\n      0x64\n      add\n        /* \"indentity_test_3_flattened.sol\":17286:17336  ERC20InsufficientBalance(from, fromBalance, value) */\n      tag_174\n        /* \"#utility.yul\":4991:5336   */\n      jump\n        /* \"indentity_test_3_flattened.sol\":17236:17351  if (fromBalance < value) {... */\n    tag_282:\n      sub(shl(0xa0, 0x01), 0x01)\n        /* \"indentity_test_3_flattened.sol\":17471:17486  _balances[from] */\n      dup5\n      and\n        /* \"indentity_test_3_flattened.sol\":17471:17480  _balances */\n      0x00\n        /* \"indentity_test_3_flattened.sol\":17471:17486  _balances[from] */\n      swap1\n      dup2\n      mstore\n      0x20\n      dup2\n      swap1\n      mstore\n      0x40\n      swap1\n      keccak256\n        /* \"indentity_test_3_flattened.sol\":17489:17508  fromBalance - value */\n      swap1\n      dup3\n      swap1\n      sub\n        /* \"indentity_test_3_flattened.sol\":17471:17508  _balances[from] = fromBalance - value */\n      swap1\n      sstore\n        /* \"indentity_test_3_flattened.sol\":16993:17533  if (from == address(0)) {... */\n    tag_281:\n      sub(shl(0xa0, 0x01), 0x01)\n        /* \"indentity_test_3_flattened.sol\":17547:17563  to == address(0) */\n      dup3\n      and\n        /* \"indentity_test_3_flattened.sol\":17543:17968  if (to == address(0)) {... */\n      tag_284\n      jumpi\n        /* \"indentity_test_3_flattened.sol\":17710:17722  _totalSupply */\n      0x02\n        /* \"indentity_test_3_flattened.sol\":17710:17731  _totalSupply -= value */\n      dup1\n      sload\n      dup3\n      swap1\n      sub\n      swap1\n      sstore\n        /* \"indentity_test_3_flattened.sol\":17543:17968  if (to == address(0)) {... */\n      jump(tag_285)\n    tag_284:\n      sub(shl(0xa0, 0x01), 0x01)\n        /* \"indentity_test_3_flattened.sol\":17921:17934  _balances[to] */\n      dup3\n      and\n        /* \"indentity_test_3_flattened.sol\":17921:17930  _balances */\n      0x00\n        /* \"indentity_test_3_flattened.sol\":17921:17934  _balances[to] */\n      swap1\n      dup2\n      mstore\n      0x20\n      dup2\n      swap1\n      mstore\n      0x40\n      swap1\n      keccak256\n        /* \"indentity_test_3_flattened.sol\":17921:17943  _balances[to] += value */\n      dup1\n      sload\n      dup3\n      add\n      swap1\n      sstore\n        /* \"indentity_test_3_flattened.sol\":17543:17968  if (to == address(0)) {... */\n    tag_285:\n        /* \"indentity_test_3_flattened.sol\":17998:18000  to */\n      dup2\n      sub(shl(0xa0, 0x01), 0x01)\n        /* \"indentity_test_3_flattened.sol\":17983:18008  Transfer(from, to, value) */\n      and\n        /* \"indentity_test_3_flattened.sol\":17992:17996  from */\n      dup4\n      sub(shl(0xa0, 0x01), 0x01)\n        /* \"indentity_test_3_flattened.sol\":17983:18008  Transfer(from, to, value) */\n      and\n      0xddf252ad1be2c89b69c2b068fc378daa952ba7f163c4a11628f55a4df523b3ef\n        /* \"indentity_test_3_flattened.sol\":18002:18007  value */\n      dup4\n        /* \"indentity_test_3_flattened.sol\":17983:18008  Transfer(from, to, value) */\n      mload(0x40)\n      tag_286\n      swap2\n        /* \"#utility.yul\":160:185   */\n      dup2\n      mstore\n        /* \"#utility.yul\":148:150   */\n      0x20\n        /* \"#utility.yul\":133:151   */\n      add\n      swap1\n        /* \"#utility.yul\":14:191   */\n      jump\n        /* \"indentity_test_3_flattened.sol\":17983:18008  Transfer(from, to, value) */\n    tag_286:\n      mload(0x40)\n      dup1\n      swap2\n      sub\n      swap1\n      log3\n        /* \"indentity_test_3_flattened.sol\":16908:18015  function _update(address from, address to, uint256 value) internal virtual {... */\n      pop\n      pop\n      pop\n      jump\t// out\n        /* \"#utility.yul\":404:822   */\n    tag_45:\n        /* \"#utility.yul\":553:555   */\n      0x20\n        /* \"#utility.yul\":542:551   */\n      dup2\n        /* \"#utility.yul\":535:556   */\n      mstore\n        /* \"#utility.yul\":516:520   */\n      0x00\n        /* \"#utility.yul\":585:591   */\n      dup3\n        /* \"#utility.yul\":579:592   */\n      mload\n        /* \"#utility.yul\":628:634   */\n      dup1\n        /* \"#utility.yul\":623:625   */\n      0x20\n        /* \"#utility.yul\":612:621   */\n      dup5\n        /* \"#utility.yul\":608:626   */\n      add\n        /* \"#utility.yul\":601:635   */\n      mstore\n        /* \"#utility.yul\":687:693   */\n      dup1\n        /* \"#utility.yul\":682:684   */\n      0x20\n        /* \"#utility.yul\":674:680   */\n      dup6\n        /* \"#utility.yul\":670:685   */\n      add\n        /* \"#utility.yul\":665:667   */\n      0x40\n        /* \"#utility.yul\":654:663   */\n      dup6\n        /* \"#utility.yul\":650:668   */\n      add\n        /* \"#utility.yul\":644:694   */\n      mcopy\n        /* \"#utility.yul\":743:744   */\n      0x00\n        /* \"#utility.yul\":738:740   */\n      0x40\n        /* \"#utility.yul\":729:735   */\n      dup3\n        /* \"#utility.yul\":718:727   */\n      dup6\n        /* \"#utility.yul\":714:736   */\n      add\n        /* \"#utility.yul\":710:741   */\n      add\n        /* \"#utility.yul\":703:745   */\n      mstore\n        /* \"#utility.yul\":813:815   */\n      0x40\n        /* \"#utility.yul\":806:808   */\n      0x1f\n        /* \"#utility.yul\":802:809   */\n      not\n        /* \"#utility.yul\":797:799   */\n      0x1f\n        /* \"#utility.yul\":789:795   */\n      dup4\n        /* \"#utility.yul\":785:800   */\n      add\n        /* \"#utility.yul\":781:810   */\n      and\n        /* \"#utility.yul\":770:779   */\n      dup5\n        /* \"#utility.yul\":766:811   */\n      add\n        /* \"#utility.yul\":762:816   */\n      add\n        /* \"#utility.yul\":754:816   */\n      swap2\n      pop\n      pop\n        /* \"#utility.yul\":404:822   */\n      swap3\n      swap2\n      pop\n      pop\n      jump\t// out\n        /* \"#utility.yul\":827:1000   */\n    tag_287:\n        /* \"#utility.yul\":895:915   */\n      dup1\n      calldataload\n      sub(shl(0xa0, 0x01), 0x01)\n        /* \"#utility.yul\":944:975   */\n      dup2\n      and\n        /* \"#utility.yul\":934:976   */\n      dup2\n      eq\n        /* \"#utility.yul\":924:994   */\n      tag_294\n      jumpi\n        /* \"#utility.yul\":990:991   */\n      0x00\n        /* \"#utility.yul\":987:988   */\n      dup1\n        /* \"#utility.yul\":980:992   */\n      revert\n        /* \"#utility.yul\":924:994   */\n    tag_294:\n        /* \"#utility.yul\":827:1000   */\n      swap2\n      swap1\n      pop\n      jump\t// out\n        /* \"#utility.yul\":1005:1305   */\n    tag_48:\n        /* \"#utility.yul\":1073:1079   */\n      0x00\n        /* \"#utility.yul\":1081:1087   */\n      dup1\n        /* \"#utility.yul\":1134:1136   */\n      0x40\n        /* \"#utility.yul\":1122:1131   */\n      dup4\n        /* \"#utility.yul\":1113:1120   */\n      dup6\n        /* \"#utility.yul\":1109:1132   */\n      sub\n        /* \"#utility.yul\":1105:1137   */\n      slt\n        /* \"#utility.yul\":1102:1154   */\n      iszero\n      tag_296\n      jumpi\n        /* \"#utility.yul\":1150:1151   */\n      0x00\n        /* \"#utility.yul\":1147:1148   */\n      dup1\n        /* \"#utility.yul\":1140:1152   */\n      revert\n        /* \"#utility.yul\":1102:1154   */\n    tag_296:\n        /* \"#utility.yul\":1173:1202   */\n      tag_297\n        /* \"#utility.yul\":1192:1201   */\n      dup4\n        /* \"#utility.yul\":1173:1202   */\n      tag_287\n      jump\t// in\n    tag_297:\n        /* \"#utility.yul\":1163:1202   */\n      swap5\n        /* \"#utility.yul\":1271:1273   */\n      0x20\n        /* \"#utility.yul\":1256:1274   */\n      swap4\n      swap1\n      swap4\n      add\n        /* \"#utility.yul\":1243:1275   */\n      calldataload\n      swap4\n      pop\n      pop\n      pop\n        /* \"#utility.yul\":1005:1305   */\n      jump\t// out\n        /* \"#utility.yul\":1502:1876   */\n    tag_57:\n        /* \"#utility.yul\":1579:1585   */\n      0x00\n        /* \"#utility.yul\":1587:1593   */\n      dup1\n        /* \"#utility.yul\":1595:1601   */\n      0x00\n        /* \"#utility.yul\":1648:1650   */\n      0x60\n        /* \"#utility.yul\":1636:1645   */\n      dup5\n        /* \"#utility.yul\":1627:1634   */\n      dup7\n        /* \"#utility.yul\":1623:1646   */\n      sub\n        /* \"#utility.yul\":1619:1651   */\n      slt\n        /* \"#utility.yul\":1616:1668   */\n      iszero\n      tag_300\n      jumpi\n        /* \"#utility.yul\":1664:1665   */\n      0x00\n        /* \"#utility.yul\":1661:1662   */\n      dup1\n        /* \"#utility.yul\":1654:1666   */\n      revert\n        /* \"#utility.yul\":1616:1668   */\n    tag_300:\n        /* \"#utility.yul\":1687:1716   */\n      tag_301\n        /* \"#utility.yul\":1706:1715   */\n      dup5\n        /* \"#utility.yul\":1687:1716   */\n      tag_287\n      jump\t// in\n    tag_301:\n        /* \"#utility.yul\":1677:1716   */\n      swap3\n      pop\n        /* \"#utility.yul\":1735:1773   */\n      tag_302\n        /* \"#utility.yul\":1769:1771   */\n      0x20\n        /* \"#utility.yul\":1758:1767   */\n      dup6\n        /* \"#utility.yul\":1754:1772   */\n      add\n        /* \"#utility.yul\":1735:1773   */\n      tag_287\n      jump\t// in\n    tag_302:\n        /* \"#utility.yul\":1502:1876   */\n      swap3\n      swap6\n        /* \"#utility.yul\":1725:1773   */\n      swap3\n      swap5\n      pop\n      pop\n      pop\n        /* \"#utility.yul\":1842:1844   */\n      0x40\n        /* \"#utility.yul\":1827:1845   */\n      swap2\n      swap1\n      swap2\n      add\n        /* \"#utility.yul\":1814:1846   */\n      calldataload\n      swap1\n        /* \"#utility.yul\":1502:1876   */\n      jump\t// out\n        /* \"#utility.yul\":2070:2256   */\n    tag_72:\n        /* \"#utility.yul\":2129:2135   */\n      0x00\n        /* \"#utility.yul\":2182:2184   */\n      0x20\n        /* \"#utility.yul\":2170:2179   */\n      dup3\n        /* \"#utility.yul\":2161:2168   */\n      dup5\n        /* \"#utility.yul\":2157:2180   */\n      sub\n        /* \"#utility.yul\":2153:2185   */\n      slt\n        /* \"#utility.yul\":2150:2202   */\n      iszero\n      tag_305\n      jumpi\n        /* \"#utility.yul\":2198:2199   */\n      0x00\n        /* \"#utility.yul\":2195:2196   */\n      dup1\n        /* \"#utility.yul\":2188:2200   */\n      revert\n        /* \"#utility.yul\":2150:2202   */\n    tag_305:\n        /* \"#utility.yul\":2221:2250   */\n      tag_306\n        /* \"#utility.yul\":2240:2249   */\n      dup3\n        /* \"#utility.yul\":2221:2250   */\n      tag_287\n      jump\t// in\n    tag_306:\n        /* \"#utility.yul\":2211:2250   */\n      swap4\n        /* \"#utility.yul\":2070:2256   */\n      swap3\n      pop\n      pop\n      pop\n      jump\t// out\n        /* \"#utility.yul\":2261:2608   */\n    tag_89:\n        /* \"#utility.yul\":2326:2332   */\n      0x00\n        /* \"#utility.yul\":2334:2340   */\n      dup1\n        /* \"#utility.yul\":2387:2389   */\n      0x40\n        /* \"#utility.yul\":2375:2384   */\n      dup4\n        /* \"#utility.yul\":2366:2373   */\n      dup6\n        /* \"#utility.yul\":2362:2385   */\n      sub\n        /* \"#utility.yul\":2358:2390   */\n      slt\n        /* \"#utility.yul\":2355:2407   */\n      iszero\n      tag_308\n      jumpi\n        /* \"#utility.yul\":2403:2404   */\n      0x00\n        /* \"#utility.yul\":2400:2401   */\n      dup1\n        /* \"#utility.yul\":2393:2405   */\n      revert\n        /* \"#utility.yul\":2355:2407   */\n    tag_308:\n        /* \"#utility.yul\":2426:2455   */\n      tag_309\n        /* \"#utility.yul\":2445:2454   */\n      dup4\n        /* \"#utility.yul\":2426:2455   */\n      tag_287\n      jump\t// in\n    tag_309:\n        /* \"#utility.yul\":2416:2455   */\n      swap2\n      pop\n        /* \"#utility.yul\":2505:2507   */\n      0x20\n        /* \"#utility.yul\":2494:2503   */\n      dup4\n        /* \"#utility.yul\":2490:2508   */\n      add\n        /* \"#utility.yul\":2477:2509   */\n      calldataload\n        /* \"#utility.yul\":2552:2557   */\n      dup1\n        /* \"#utility.yul\":2545:2558   */\n      iszero\n        /* \"#utility.yul\":2538:2559   */\n      iszero\n        /* \"#utility.yul\":2531:2536   */\n      dup2\n        /* \"#utility.yul\":2528:2560   */\n      eq\n        /* \"#utility.yul\":2518:2578   */\n      tag_310\n      jumpi\n        /* \"#utility.yul\":2574:2575   */\n      0x00\n        /* \"#utility.yul\":2571:2572   */\n      dup1\n        /* \"#utility.yul\":2564:2576   */\n      revert\n        /* \"#utility.yul\":2518:2578   */\n    tag_310:\n        /* \"#utility.yul\":2597:2602   */\n      dup1\n        /* \"#utility.yul\":2587:2602   */\n      swap2\n      pop\n      pop\n        /* \"#utility.yul\":2261:2608   */\n      swap3\n      pop\n      swap3\n      swap1\n      pop\n      jump\t// out\n        /* \"#utility.yul\":2613:2873   */\n    tag_115:\n        /* \"#utility.yul\":2681:2687   */\n      0x00\n        /* \"#utility.yul\":2689:2695   */\n      dup1\n        /* \"#utility.yul\":2742:2744   */\n      0x40\n        /* \"#utility.yul\":2730:2739   */\n      dup4\n        /* \"#utility.yul\":2721:2728   */\n      dup6\n        /* \"#utility.yul\":2717:2740   */\n      sub\n        /* \"#utility.yul\":2713:2745   */\n      slt\n        /* \"#utility.yul\":2710:2762   */\n      iszero\n      tag_312\n      jumpi\n        /* \"#utility.yul\":2758:2759   */\n      0x00\n        /* \"#utility.yul\":2755:2756   */\n      dup1\n        /* \"#utility.yul\":2748:2760   */\n      revert\n        /* \"#utility.yul\":2710:2762   */\n    tag_312:\n        /* \"#utility.yul\":2781:2810   */\n      tag_313\n        /* \"#utility.yul\":2800:2809   */\n      dup4\n        /* \"#utility.yul\":2781:2810   */\n      tag_287\n      jump\t// in\n    tag_313:\n        /* \"#utility.yul\":2771:2810   */\n      swap2\n      pop\n        /* \"#utility.yul\":2829:2867   */\n      tag_314\n        /* \"#utility.yul\":2863:2865   */\n      0x20\n        /* \"#utility.yul\":2852:2861   */\n      dup5\n        /* \"#utility.yul\":2848:2866   */\n      add\n        /* \"#utility.yul\":2829:2867   */\n      tag_287\n      jump\t// in\n    tag_314:\n        /* \"#utility.yul\":2819:2867   */\n      swap1\n      pop\n        /* \"#utility.yul\":2613:2873   */\n      swap3\n      pop\n      swap3\n      swap1\n      pop\n      jump\t// out\n        /* \"#utility.yul\":2878:3258   */\n    tag_129:\n        /* \"#utility.yul\":2957:2958   */\n      0x01\n        /* \"#utility.yul\":2953:2965   */\n      dup2\n      dup2\n      shr\n      swap1\n        /* \"#utility.yul\":3000:3012   */\n      dup3\n      and\n      dup1\n        /* \"#utility.yul\":3021:3082   */\n      tag_316\n      jumpi\n        /* \"#utility.yul\":3075:3079   */\n      0x7f\n        /* \"#utility.yul\":3067:3073   */\n      dup3\n        /* \"#utility.yul\":3063:3080   */\n      and\n        /* \"#utility.yul\":3053:3080   */\n      swap2\n      pop\n        /* \"#utility.yul\":3021:3082   */\n    tag_316:\n        /* \"#utility.yul\":3128:3130   */\n      0x20\n        /* \"#utility.yul\":3120:3126   */\n      dup3\n        /* \"#utility.yul\":3117:3131   */\n      lt\n        /* \"#utility.yul\":3097:3115   */\n      dup2\n        /* \"#utility.yul\":3094:3132   */\n      sub\n        /* \"#utility.yul\":3091:3252   */\n      tag_317\n      jumpi\n        /* \"#utility.yul\":3174:3184   */\n      0x4e487b71\n        /* \"#utility.yul\":3169:3172   */\n      0xe0\n        /* \"#utility.yul\":3165:3185   */\n      shl\n        /* \"#utility.yul\":3162:3163   */\n      0x00\n        /* \"#utility.yul\":3155:3186   */\n      mstore\n        /* \"#utility.yul\":3209:3213   */\n      0x22\n        /* \"#utility.yul\":3206:3207   */\n      0x04\n        /* \"#utility.yul\":3199:3214   */\n      mstore\n        /* \"#utility.yul\":3237:3241   */\n      0x24\n        /* \"#utility.yul\":3234:3235   */\n      0x00\n        /* \"#utility.yul\":3227:3242   */\n      revert\n        /* \"#utility.yul\":3091:3252   */\n    tag_317:\n      pop\n        /* \"#utility.yul\":2878:3258   */\n      swap2\n      swap1\n      pop\n      jump\t// out\n        /* \"#utility.yul\":3263:3390   */\n    tag_288:\n        /* \"#utility.yul\":3324:3334   */\n      0x4e487b71\n        /* \"#utility.yul\":3319:3322   */\n      0xe0\n        /* \"#utility.yul\":3315:3335   */\n      shl\n        /* \"#utility.yul\":3312:3313   */\n      0x00\n        /* \"#utility.yul\":3305:3336   */\n      mstore\n        /* \"#utility.yul\":3355:3359   */\n      0x11\n        /* \"#utility.yul\":3352:3353   */\n      0x04\n        /* \"#utility.yul\":3345:3360   */\n      mstore\n        /* \"#utility.yul\":3379:3383   */\n      0x24\n        /* \"#utility.yul\":3376:3377   */\n      0x00\n        /* \"#utility.yul\":3369:3384   */\n      revert\n        /* \"#utility.yul\":3395:3563   */\n    tag_167:\n        /* \"#utility.yul\":3468:3477   */\n      dup1\n      dup3\n      mul\n        /* \"#utility.yul\":3499:3508   */\n      dup2\n      iszero\n        /* \"#utility.yul\":3516:3531   */\n      dup3\n      dup3\n      div\n        /* \"#utility.yul\":3510:3532   */\n      dup5\n      eq\n        /* \"#utility.yul\":3496:3533   */\n      or\n        /* \"#utility.yul\":3486:3557   */\n      tag_134\n      jumpi\n        /* \"#utility.yul\":3537:3555   */\n      tag_134\n      tag_288\n      jump\t// in\n        /* \"#utility.yul\":3568:3785   */\n    tag_169:\n        /* \"#utility.yul\":3608:3609   */\n      0x00\n        /* \"#utility.yul\":3634:3635   */\n      dup3\n        /* \"#utility.yul\":3624:3756   */\n      tag_323\n      jumpi\n        /* \"#utility.yul\":3678:3688   */\n      0x4e487b71\n        /* \"#utility.yul\":3673:3676   */\n      0xe0\n        /* \"#utility.yul\":3669:3689   */\n      shl\n        /* \"#utility.yul\":3666:3667   */\n      0x00\n        /* \"#utility.yul\":3659:3690   */\n      mstore\n        /* \"#utility.yul\":3713:3717   */\n      0x12\n        /* \"#utility.yul\":3710:3711   */\n      0x04\n        /* \"#utility.yul\":3703:3718   */\n      mstore\n        /* \"#utility.yul\":3741:3745   */\n      0x24\n        /* \"#utility.yul\":3738:3739   */\n      0x00\n        /* \"#utility.yul\":3731:3746   */\n      revert\n        /* \"#utility.yul\":3624:3756   */\n    tag_323:\n      pop\n        /* \"#utility.yul\":3770:3779   */\n      div\n      swap1\n        /* \"#utility.yul\":3568:3785   */\n      jump\t// out\n        /* \"#utility.yul\":3790:3915   */\n    tag_172:\n        /* \"#utility.yul\":3855:3864   */\n      dup1\n      dup3\n      add\n        /* \"#utility.yul\":3876:3886   */\n      dup1\n      dup3\n      gt\n        /* \"#utility.yul\":3873:3909   */\n      iszero\n      tag_134\n      jumpi\n        /* \"#utility.yul\":3889:3907   */\n      tag_134\n      tag_288\n      jump\t// in\n        /* \"#utility.yul\":5341:5469   */\n    tag_254:\n        /* \"#utility.yul\":5408:5417   */\n      dup2\n      dup2\n      sub\n        /* \"#utility.yul\":5429:5440   */\n      dup2\n      dup2\n      gt\n        /* \"#utility.yul\":5426:5463   */\n      iszero\n      tag_134\n      jumpi\n        /* \"#utility.yul\":5443:5461   */\n      tag_134\n      tag_288\n      jump\t// in\n    stop\n    data_859952f8ad95bf3b9d6ec6d5182f93b209cbb9a33d14bac6f48292b740d5a146 6e232b0acf46272dacf889af6767574775a324b133d42b3b8cffa9cd13159984\n\n    auxdata: 0xa26469706673582212204af43fdf31500a4b4e7051e891d241240e96188837a19f1fbe29640622f5409d64736f6c634300081a0033\n}\n",
				"bytecode": {
					"linkReferences": {},
					"object": "608060405234801561000f575f80fd5b5060405161152538038061152583398101604081905261002e91610324565b336040518060400160405280600a8152602001692c22a0a6902a37b5b2b760b11b815250604051806040016040528060048152602001635845414d60e01b815250816003908161007e919061041d565b50600461008b828261041d565b5050506001600160a01b0381166100bc57604051631e4fbdf760e01b81525f60048201526024015b60405180910390fd5b6100c58161015a565b506001600655600780546001600160a01b03199081166001600160a01b0388811691909117909255600880548216878416179055600980548216868416179055600a80548216858416179055600b8054909116918316919091179055610136336a01a784379d99db420000006101ab565b5050335f908152600c60205260409020805460ff19166001179055506104fc915050565b600580546001600160a01b038381166001600160a01b0319831681179093556040519116919082907f8be0079c531659141344cd1fd0a4f28419497f9722a3daafe3b4186f6b6457e0905f90a35050565b6001600160a01b0382166101d45760405163ec442f0560e01b81525f60048201526024016100b3565b6101df5f83836101e3565b5050565b6001600160a01b03831661020d578060025f82825461020291906104d7565b9091555061027d9050565b6001600160a01b0383165f908152602081905260409020548181101561025f5760405163391434e360e21b81526001600160a01b038516600482015260248101829052604481018390526064016100b3565b6001600160a01b0384165f9081526020819052604090209082900390555b6001600160a01b038216610299576002805482900390556102b7565b6001600160a01b0382165f9081526020819052604090208054820190555b816001600160a01b0316836001600160a01b03167fddf252ad1be2c89b69c2b068fc378daa952ba7f163c4a11628f55a4df523b3ef836040516102fc91815260200190565b60405180910390a3505050565b80516001600160a01b038116811461031f575f80fd5b919050565b5f805f805f60a08688031215610338575f80fd5b61034186610309565b945061034f60208701610309565b935061035d60408701610309565b925061036b60608701610309565b915061037960808701610309565b90509295509295909350565b634e487b7160e01b5f52604160045260245ffd5b600181811c908216806103ad57607f821691505b6020821081036103cb57634e487b7160e01b5f52602260045260245ffd5b50919050565b601f82111561041857805f5260205f20601f840160051c810160208510156103f65750805b601f840160051c820191505b81811015610415575f8155600101610402565b50505b505050565b81516001600160401b0381111561043657610436610385565b61044a816104448454610399565b846103d1565b6020601f82116001811461047c575f83156104655750848201515b5f19600385901b1c1916600184901b178455610415565b5f84815260208120601f198516915b828110156104ab578785015182556020948501946001909201910161048b565b50848210156104c857868401515f19600387901b60f8161c191681555b50505050600190811b01905550565b808201808211156104f657634e487b7160e01b5f52601160045260245ffd5b92915050565b61101c806105095f395ff3fe608060405234801561000f575f80fd5b5060043610610187575f3560e01c8063715018a6116100d9578063c12b7c4e11610093578063dd62ed3e1161006e578063dd62ed3e14610347578063df7787a41461037f578063f2fde38b14610387578063f3b2db3f1461039a575f80fd5b8063c12b7c4e1461030e578063c816841b14610321578063cc85937814610334575f80fd5b8063715018a6146102b2578063753cafc3146102bc57806375f0a874146102cf5780638da5cb5b146102e257806395d89b41146102f3578063a9059cbb146102fb575f80fd5b80632ff2e9dc116101445780634fbee1931161011f5780634fbee1931461024d57806352a6a9ec1461026f57806354ad8aee1461028257806370a082311461028a575f80fd5b80632ff2e9dc14610224578063313ce5671461023657806336b4134a14610245575f80fd5b806302af37bb1461018b57806306ee6ad8146101a657806306fdde03146101d1578063095ea7b3146101e657806318160ddd1461020957806323b872dd14610211575b5f80fd5b610193600a81565b6040519081526020015b60405180910390f35b600a546101b9906001600160a01b031681565b6040516001600160a01b03909116815260200161019d565b6101d96103a2565b60405161019d9190610de2565b6101f96101f4366004610e32565b610432565b604051901515815260200161019d565b600254610193565b6101f961021f366004610e5a565b61044b565b6101936a01a784379d99db4200000081565b6040516012815260200161019d565b610193600d81565b6101f961025b366004610e94565b600c6020525f908152604090205460ff1681565b6007546101b9906001600160a01b031681565b610193600c81565b610193610298366004610e94565b6001600160a01b03165f9081526020819052604090205490565b6102ba61046e565b005b6102ba6102ca366004610eb4565b610481565b6009546101b9906001600160a01b031681565b6005546001600160a01b03166101b9565b6101d96104b3565b6101f9610309366004610e32565b6104c2565b6102ba61031c366004610e94565b6105fc565b600b546101b9906001600160a01b031681565b6008546101b9906001600160a01b031681565b610193610355366004610eed565b6001600160a01b039182165f90815260016020908152604080832093909416825291909152205490565b6101936106ae565b6102ba610395366004610e94565b6106d3565b610193610710565b6060600380546103b190610f1e565b80601f01602080910402602001604051908101604052809291908181526020018280546103dd90610f1e565b80156104285780601f106103ff57610100808354040283529160200191610428565b820191905f5260205f20905b81548152906001019060200180831161040b57829003601f168201915b5050505050905090565b5f3361043f818585610729565b60019150505b92915050565b5f3361045885828561073b565b6104638585856107b7565b506001949350505050565b610476610814565b61047f5f610841565b565b610489610814565b6001600160a01b03919091165f908152600c60205260409020805460ff1916911515919091179055565b6060600480546103b190610f1e565b335f908152600c602052604081205460ff166105e85760646104f06a01a784379d99db420000006001610f6a565b6104fa9190610f81565b82610519856001600160a01b03165f9081526020819052604090205490565b6105239190610fa0565b11156105765760405162461bcd60e51b815260206004820152601860248201527f45786365656473206d61782077616c6c6574206c696d6974000000000000000060448201526064015b60405180910390fd5b61271061058f6a01a784379d99db420000006005610f6a565b6105999190610f81565b8211156105e85760405162461bcd60e51b815260206004820152601d60248201527f45786365656473206d6178207472616e73616374696f6e206c696d6974000000604482015260640161056d565b6105f3338484610892565b50600192915050565b610604610814565b6001600160a01b03811661065a5760405162461bcd60e51b815260206004820152601f60248201527f4e6577207061697220616464726573732063616e6e6f74206265207a65726f00604482015260640161056d565b600b80546001600160a01b0319166001600160a01b0383169081179091556040519081527fdd2689cb5e1ca91bab290e22ada24c52705073cf17bacb82133714fa842713449060200160405180910390a150565b60646106c66a01a784379d99db420000006001610f6a565b6106d09190610f81565b81565b6106db610814565b6001600160a01b03811661070457604051631e4fbdf760e01b81525f600482015260240161056d565b61070d81610841565b50565b6127106106c66a01a784379d99db420000006005610f6a565b6107368383836001610bea565b505050565b6001600160a01b038381165f908152600160209081526040808320938616835292905220545f198110156107b157818110156107a357604051637dc7a0d960e11b81526001600160a01b0384166004820152602481018290526044810183905260640161056d565b6107b184848484035f610bea565b50505050565b6001600160a01b0383166107e057604051634b637e8f60e11b81525f600482015260240161056d565b6001600160a01b0382166108095760405163ec442f0560e01b81525f600482015260240161056d565b610736838383610cbc565b6005546001600160a01b0316331461047f5760405163118cdaa760e01b815233600482015260240161056d565b600580546001600160a01b038381166001600160a01b0319831681179093556040519116919082907f8be0079c531659141344cd1fd0a4f28419497f9722a3daafe3b4186f6b6457e0905f90a35050565b600b545f90819081908190819081906001600160a01b039081169089160361094f5760646108c1600c89610f6a565b6108cb9190610f81565b9550600c6108da876004610f6a565b6108e49190610f81565b9450600c6108f3876004610f6a565b6108fd9190610f81565b9350600c61090c876001610f6a565b6109169190610f81565b9250600c610925876002610f6a565b61092f9190610f81565b9150600c61093e876001610f6a565b6109489190610f81565b90506109e6565b606461095c600a89610f6a565b6109669190610f81565b9550600a610975876003610f6a565b61097f9190610f81565b9450600a61098e876004610f6a565b6109989190610f81565b9350600a6109a7876001610f6a565b6109b19190610f81565b9250600a6109c0876001610f6a565b6109ca9190610f81565b9150600a6109d9876001610f6a565b6109e39190610f81565b90505b5f6109f18789610fb3565b600754909150610a0c908b906001600160a01b0316876107b7565b5f80516020610fc783398151915285604051610a5491815260406020820181905260129082015271115b98dbdd5c9859d95b595b9d08119d5b9960721b606082015260800190565b60405180910390a1600854610a74908b906001600160a01b0316866107b7565b5f80516020610fc783398151915284604051610ab8918152604060208201819052600e908201526d115b595c99d95b98de48119d5b9960921b606082015260800190565b60405180910390a1600954610ad8908b906001600160a01b0316856107b7565b5f80516020610fc783398151915283604051610b17918152604060208201819052600990820152684d61726b6574696e6760b81b606082015260800190565b60405180910390a1600a54610b37908b906001600160a01b0316846107b7565b5f80516020610fc783398151915282604051610b74918152604060208201819052600790820152665374616b696e6760c81b606082015260800190565b60405180910390a1610b878a30886107b7565b5f80516020610fc783398151915286604051610bcb918152604060208201819052600e908201526d131a5c5d5a591a5d1e48141bdbdb60921b606082015260800190565b60405180910390a1610bde8a8a836107b7565b50505050505050505050565b6001600160a01b038416610c135760405163e602df0560e01b81525f600482015260240161056d565b6001600160a01b038316610c3c57604051634a1406b160e11b81525f600482015260240161056d565b6001600160a01b038085165f90815260016020908152604080832093871683529290522082905580156107b157826001600160a01b0316846001600160a01b03167f8c5be1e5ebec7d5bd14f71427d1e84f3dd0314c0f7b2291e5b200ac8c7c3b92584604051610cae91815260200190565b60405180910390a350505050565b6001600160a01b038316610ce6578060025f828254610cdb9190610fa0565b90915550610d569050565b6001600160a01b0383165f9081526020819052604090205481811015610d385760405163391434e360e21b81526001600160a01b0385166004820152602481018290526044810183905260640161056d565b6001600160a01b0384165f9081526020819052604090209082900390555b6001600160a01b038216610d7257600280548290039055610d90565b6001600160a01b0382165f9081526020819052604090208054820190555b816001600160a01b0316836001600160a01b03167fddf252ad1be2c89b69c2b068fc378daa952ba7f163c4a11628f55a4df523b3ef83604051610dd591815260200190565b60405180910390a3505050565b602081525f82518060208401528060208501604085015e5f604082850101526040601f19601f83011684010191505092915050565b80356001600160a01b0381168114610e2d575f80fd5b919050565b5f8060408385031215610e43575f80fd5b610e4c83610e17565b946020939093013593505050565b5f805f60608486031215610e6c575f80fd5b610e7584610e17565b9250610e8360208501610e17565b929592945050506040919091013590565b5f60208284031215610ea4575f80fd5b610ead82610e17565b9392505050565b5f8060408385031215610ec5575f80fd5b610ece83610e17565b915060208301358015158114610ee2575f80fd5b809150509250929050565b5f8060408385031215610efe575f80fd5b610f0783610e17565b9150610f1560208401610e17565b90509250929050565b600181811c90821680610f3257607f821691505b602082108103610f5057634e487b7160e01b5f52602260045260245ffd5b50919050565b634e487b7160e01b5f52601160045260245ffd5b808202811582820484141761044557610445610f56565b5f82610f9b57634e487b7160e01b5f52601260045260245ffd5b500490565b8082018082111561044557610445610f56565b8181038181111561044557610445610f5656fe6e232b0acf46272dacf889af6767574775a324b133d42b3b8cffa9cd13159984a26469706673582212204af43fdf31500a4b4e7051e891d241240e96188837a19f1fbe29640622f5409d64736f6c634300081a0033",
					"opcodes": "PUSH1 0x80 PUSH1 0x40 MSTORE CALLVALUE DUP1 ISZERO PUSH2 0xF JUMPI PUSH0 DUP1 REVERT JUMPDEST POP PUSH1 0x40 MLOAD PUSH2 0x1525 CODESIZE SUB DUP1 PUSH2 0x1525 DUP4 CODECOPY DUP2 ADD PUSH1 0x40 DUP2 SWAP1 MSTORE PUSH2 0x2E SWAP2 PUSH2 0x324 JUMP JUMPDEST CALLER PUSH1 0x40 MLOAD DUP1 PUSH1 0x40 ADD PUSH1 0x40 MSTORE DUP1 PUSH1 0xA DUP2 MSTORE PUSH1 0x20 ADD PUSH10 0x2C22A0A6902A37B5B2B7 PUSH1 0xB1 SHL DUP2 MSTORE POP PUSH1 0x40 MLOAD DUP1 PUSH1 0x40 ADD PUSH1 0x40 MSTORE DUP1 PUSH1 0x4 DUP2 MSTORE PUSH1 0x20 ADD PUSH4 0x5845414D PUSH1 0xE0 SHL DUP2 MSTORE POP DUP2 PUSH1 0x3 SWAP1 DUP2 PUSH2 0x7E SWAP2 SWAP1 PUSH2 0x41D JUMP JUMPDEST POP PUSH1 0x4 PUSH2 0x8B DUP3 DUP3 PUSH2 0x41D JUMP JUMPDEST POP POP POP PUSH1 0x1 PUSH1 0x1 PUSH1 0xA0 SHL SUB DUP2 AND PUSH2 0xBC JUMPI PUSH1 0x40 MLOAD PUSH4 0x1E4FBDF7 PUSH1 0xE0 SHL DUP2 MSTORE PUSH0 PUSH1 0x4 DUP3 ADD MSTORE PUSH1 0x24 ADD JUMPDEST PUSH1 0x40 MLOAD DUP1 SWAP2 SUB SWAP1 REVERT JUMPDEST PUSH2 0xC5 DUP2 PUSH2 0x15A JUMP JUMPDEST POP PUSH1 0x1 PUSH1 0x6 SSTORE PUSH1 0x7 DUP1 SLOAD PUSH1 0x1 PUSH1 0x1 PUSH1 0xA0 SHL SUB NOT SWAP1 DUP2 AND PUSH1 0x1 PUSH1 0x1 PUSH1 0xA0 SHL SUB DUP9 DUP2 AND SWAP2 SWAP1 SWAP2 OR SWAP1 SWAP3 SSTORE PUSH1 0x8 DUP1 SLOAD DUP3 AND DUP8 DUP5 AND OR SWAP1 SSTORE PUSH1 0x9 DUP1 SLOAD DUP3 AND DUP7 DUP5 AND OR SWAP1 SSTORE PUSH1 0xA DUP1 SLOAD DUP3 AND DUP6 DUP5 AND OR SWAP1 SSTORE PUSH1 0xB DUP1 SLOAD SWAP1 SWAP2 AND SWAP2 DUP4 AND SWAP2 SWAP1 SWAP2 OR SWAP1 SSTORE PUSH2 0x136 CALLER PUSH11 0x1A784379D99DB42000000 PUSH2 0x1AB JUMP JUMPDEST POP POP CALLER PUSH0 SWAP1 DUP2 MSTORE PUSH1 0xC PUSH1 0x20 MSTORE PUSH1 0x40 SWAP1 KECCAK256 DUP1 SLOAD PUSH1 0xFF NOT AND PUSH1 0x1 OR SWAP1 SSTORE POP PUSH2 0x4FC SWAP2 POP POP JUMP JUMPDEST PUSH1 0x5 DUP1 SLOAD PUSH1 0x1 PUSH1 0x1 PUSH1 0xA0 SHL SUB DUP4 DUP2 AND PUSH1 0x1 PUSH1 0x1 PUSH1 0xA0 SHL SUB NOT DUP4 AND DUP2 OR SWAP1 SWAP4 SSTORE PUSH1 0x40 MLOAD SWAP2 AND SWAP2 SWAP1 DUP3 SWAP1 PUSH32 0x8BE0079C531659141344CD1FD0A4F28419497F9722A3DAAFE3B4186F6B6457E0 SWAP1 PUSH0 SWAP1 LOG3 POP POP JUMP JUMPDEST PUSH1 0x1 PUSH1 0x1 PUSH1 0xA0 SHL SUB DUP3 AND PUSH2 0x1D4 JUMPI PUSH1 0x40 MLOAD PUSH4 0xEC442F05 PUSH1 0xE0 SHL DUP2 MSTORE PUSH0 PUSH1 0x4 DUP3 ADD MSTORE PUSH1 0x24 ADD PUSH2 0xB3 JUMP JUMPDEST PUSH2 0x1DF PUSH0 DUP4 DUP4 PUSH2 0x1E3 JUMP JUMPDEST POP POP JUMP JUMPDEST PUSH1 0x1 PUSH1 0x1 PUSH1 0xA0 SHL SUB DUP4 AND PUSH2 0x20D JUMPI DUP1 PUSH1 0x2 PUSH0 DUP3 DUP3 SLOAD PUSH2 0x202 SWAP2 SWAP1 PUSH2 0x4D7 JUMP JUMPDEST SWAP1 SWAP2 SSTORE POP PUSH2 0x27D SWAP1 POP JUMP JUMPDEST PUSH1 0x1 PUSH1 0x1 PUSH1 0xA0 SHL SUB DUP4 AND PUSH0 SWAP1 DUP2 MSTORE PUSH1 0x20 DUP2 SWAP1 MSTORE PUSH1 0x40 SWAP1 KECCAK256 SLOAD DUP2 DUP2 LT ISZERO PUSH2 0x25F JUMPI PUSH1 0x40 MLOAD PUSH4 0x391434E3 PUSH1 0xE2 SHL DUP2 MSTORE PUSH1 0x1 PUSH1 0x1 PUSH1 0xA0 SHL SUB DUP6 AND PUSH1 0x4 DUP3 ADD MSTORE PUSH1 0x24 DUP2 ADD DUP3 SWAP1 MSTORE PUSH1 0x44 DUP2 ADD DUP4 SWAP1 MSTORE PUSH1 0x64 ADD PUSH2 0xB3 JUMP JUMPDEST PUSH1 0x1 PUSH1 0x1 PUSH1 0xA0 SHL SUB DUP5 AND PUSH0 SWAP1 DUP2 MSTORE PUSH1 0x20 DUP2 SWAP1 MSTORE PUSH1 0x40 SWAP1 KECCAK256 SWAP1 DUP3 SWAP1 SUB SWAP1 SSTORE JUMPDEST PUSH1 0x1 PUSH1 0x1 PUSH1 0xA0 SHL SUB DUP3 AND PUSH2 0x299 JUMPI PUSH1 0x2 DUP1 SLOAD DUP3 SWAP1 SUB SWAP1 SSTORE PUSH2 0x2B7 JUMP JUMPDEST PUSH1 0x1 PUSH1 0x1 PUSH1 0xA0 SHL SUB DUP3 AND PUSH0 SWAP1 DUP2 MSTORE PUSH1 0x20 DUP2 SWAP1 MSTORE PUSH1 0x40 SWAP1 KECCAK256 DUP1 SLOAD DUP3 ADD SWAP1 SSTORE JUMPDEST DUP2 PUSH1 0x1 PUSH1 0x1 PUSH1 0xA0 SHL SUB AND DUP4 PUSH1 0x1 PUSH1 0x1 PUSH1 0xA0 SHL SUB AND PUSH32 0xDDF252AD1BE2C89B69C2B068FC378DAA952BA7F163C4A11628F55A4DF523B3EF DUP4 PUSH1 0x40 MLOAD PUSH2 0x2FC SWAP2 DUP2 MSTORE PUSH1 0x20 ADD SWAP1 JUMP JUMPDEST PUSH1 0x40 MLOAD DUP1 SWAP2 SUB SWAP1 LOG3 POP POP POP JUMP JUMPDEST DUP1 MLOAD PUSH1 0x1 PUSH1 0x1 PUSH1 0xA0 SHL SUB DUP2 AND DUP2 EQ PUSH2 0x31F JUMPI PUSH0 DUP1 REVERT JUMPDEST SWAP2 SWAP1 POP JUMP JUMPDEST PUSH0 DUP1 PUSH0 DUP1 PUSH0 PUSH1 0xA0 DUP7 DUP9 SUB SLT ISZERO PUSH2 0x338 JUMPI PUSH0 DUP1 REVERT JUMPDEST PUSH2 0x341 DUP7 PUSH2 0x309 JUMP JUMPDEST SWAP5 POP PUSH2 0x34F PUSH1 0x20 DUP8 ADD PUSH2 0x309 JUMP JUMPDEST SWAP4 POP PUSH2 0x35D PUSH1 0x40 DUP8 ADD PUSH2 0x309 JUMP JUMPDEST SWAP3 POP PUSH2 0x36B PUSH1 0x60 DUP8 ADD PUSH2 0x309 JUMP JUMPDEST SWAP2 POP PUSH2 0x379 PUSH1 0x80 DUP8 ADD PUSH2 0x309 JUMP JUMPDEST SWAP1 POP SWAP3 SWAP6 POP SWAP3 SWAP6 SWAP1 SWAP4 POP JUMP JUMPDEST PUSH4 0x4E487B71 PUSH1 0xE0 SHL PUSH0 MSTORE PUSH1 0x41 PUSH1 0x4 MSTORE PUSH1 0x24 PUSH0 REVERT JUMPDEST PUSH1 0x1 DUP2 DUP2 SHR SWAP1 DUP3 AND DUP1 PUSH2 0x3AD JUMPI PUSH1 0x7F DUP3 AND SWAP2 POP JUMPDEST PUSH1 0x20 DUP3 LT DUP2 SUB PUSH2 0x3CB JUMPI PUSH4 0x4E487B71 PUSH1 0xE0 SHL PUSH0 MSTORE PUSH1 0x22 PUSH1 0x4 MSTORE PUSH1 0x24 PUSH0 REVERT JUMPDEST POP SWAP2 SWAP1 POP JUMP JUMPDEST PUSH1 0x1F DUP3 GT ISZERO PUSH2 0x418 JUMPI DUP1 PUSH0 MSTORE PUSH1 0x20 PUSH0 KECCAK256 PUSH1 0x1F DUP5 ADD PUSH1 0x5 SHR DUP2 ADD PUSH1 0x20 DUP6 LT ISZERO PUSH2 0x3F6 JUMPI POP DUP1 JUMPDEST PUSH1 0x1F DUP5 ADD PUSH1 0x5 SHR DUP3 ADD SWAP2 POP JUMPDEST DUP2 DUP2 LT ISZERO PUSH2 0x415 JUMPI PUSH0 DUP2 SSTORE PUSH1 0x1 ADD PUSH2 0x402 JUMP JUMPDEST POP POP JUMPDEST POP POP POP JUMP JUMPDEST DUP2 MLOAD PUSH1 0x1 PUSH1 0x1 PUSH1 0x40 SHL SUB DUP2 GT ISZERO PUSH2 0x436 JUMPI PUSH2 0x436 PUSH2 0x385 JUMP JUMPDEST PUSH2 0x44A DUP2 PUSH2 0x444 DUP5 SLOAD PUSH2 0x399 JUMP JUMPDEST DUP5 PUSH2 0x3D1 JUMP JUMPDEST PUSH1 0x20 PUSH1 0x1F DUP3 GT PUSH1 0x1 DUP2 EQ PUSH2 0x47C JUMPI PUSH0 DUP4 ISZERO PUSH2 0x465 JUMPI POP DUP5 DUP3 ADD MLOAD JUMPDEST PUSH0 NOT PUSH1 0x3 DUP6 SWAP1 SHL SHR NOT AND PUSH1 0x1 DUP5 SWAP1 SHL OR DUP5 SSTORE PUSH2 0x415 JUMP JUMPDEST PUSH0 DUP5 DUP2 MSTORE PUSH1 0x20 DUP2 KECCAK256 PUSH1 0x1F NOT DUP6 AND SWAP2 JUMPDEST DUP3 DUP2 LT ISZERO PUSH2 0x4AB JUMPI DUP8 DUP6 ADD MLOAD DUP3 SSTORE PUSH1 0x20 SWAP5 DUP6 ADD SWAP5 PUSH1 0x1 SWAP1 SWAP3 ADD SWAP2 ADD PUSH2 0x48B JUMP JUMPDEST POP DUP5 DUP3 LT ISZERO PUSH2 0x4C8 JUMPI DUP7 DUP5 ADD MLOAD PUSH0 NOT PUSH1 0x3 DUP8 SWAP1 SHL PUSH1 0xF8 AND SHR NOT AND DUP2 SSTORE JUMPDEST POP POP POP POP PUSH1 0x1 SWAP1 DUP2 SHL ADD SWAP1 SSTORE POP JUMP JUMPDEST DUP1 DUP3 ADD DUP1 DUP3 GT ISZERO PUSH2 0x4F6 JUMPI PUSH4 0x4E487B71 PUSH1 0xE0 SHL PUSH0 MSTORE PUSH1 0x11 PUSH1 0x4 MSTORE PUSH1 0x24 PUSH0 REVERT JUMPDEST SWAP3 SWAP2 POP POP JUMP JUMPDEST PUSH2 0x101C DUP1 PUSH2 0x509 PUSH0 CODECOPY PUSH0 RETURN INVALID PUSH1 0x80 PUSH1 0x40 MSTORE CALLVALUE DUP1 ISZERO PUSH2 0xF JUMPI PUSH0 DUP1 REVERT JUMPDEST POP PUSH1 0x4 CALLDATASIZE LT PUSH2 0x187 JUMPI PUSH0 CALLDATALOAD PUSH1 0xE0 SHR DUP1 PUSH4 0x715018A6 GT PUSH2 0xD9 JUMPI DUP1 PUSH4 0xC12B7C4E GT PUSH2 0x93 JUMPI DUP1 PUSH4 0xDD62ED3E GT PUSH2 0x6E JUMPI DUP1 PUSH4 0xDD62ED3E EQ PUSH2 0x347 JUMPI DUP1 PUSH4 0xDF7787A4 EQ PUSH2 0x37F JUMPI DUP1 PUSH4 0xF2FDE38B EQ PUSH2 0x387 JUMPI DUP1 PUSH4 0xF3B2DB3F EQ PUSH2 0x39A JUMPI PUSH0 DUP1 REVERT JUMPDEST DUP1 PUSH4 0xC12B7C4E EQ PUSH2 0x30E JUMPI DUP1 PUSH4 0xC816841B EQ PUSH2 0x321 JUMPI DUP1 PUSH4 0xCC859378 EQ PUSH2 0x334 JUMPI PUSH0 DUP1 REVERT JUMPDEST DUP1 PUSH4 0x715018A6 EQ PUSH2 0x2B2 JUMPI DUP1 PUSH4 0x753CAFC3 EQ PUSH2 0x2BC JUMPI DUP1 PUSH4 0x75F0A874 EQ PUSH2 0x2CF JUMPI DUP1 PUSH4 0x8DA5CB5B EQ PUSH2 0x2E2 JUMPI DUP1 PUSH4 0x95D89B41 EQ PUSH2 0x2F3 JUMPI DUP1 PUSH4 0xA9059CBB EQ PUSH2 0x2FB JUMPI PUSH0 DUP1 REVERT JUMPDEST DUP1 PUSH4 0x2FF2E9DC GT PUSH2 0x144 JUMPI DUP1 PUSH4 0x4FBEE193 GT PUSH2 0x11F JUMPI DUP1 PUSH4 0x4FBEE193 EQ PUSH2 0x24D JUMPI DUP1 PUSH4 0x52A6A9EC EQ PUSH2 0x26F JUMPI DUP1 PUSH4 0x54AD8AEE EQ PUSH2 0x282 JUMPI DUP1 PUSH4 0x70A08231 EQ PUSH2 0x28A JUMPI PUSH0 DUP1 REVERT JUMPDEST DUP1 PUSH4 0x2FF2E9DC EQ PUSH2 0x224 JUMPI DUP1 PUSH4 0x313CE567 EQ PUSH2 0x236 JUMPI DUP1 PUSH4 0x36B4134A EQ PUSH2 0x245 JUMPI PUSH0 DUP1 REVERT JUMPDEST DUP1 PUSH4 0x2AF37BB EQ PUSH2 0x18B JUMPI DUP1 PUSH4 0x6EE6AD8 EQ PUSH2 0x1A6 JUMPI DUP1 PUSH4 0x6FDDE03 EQ PUSH2 0x1D1 JUMPI DUP1 PUSH4 0x95EA7B3 EQ PUSH2 0x1E6 JUMPI DUP1 PUSH4 0x18160DDD EQ PUSH2 0x209 JUMPI DUP1 PUSH4 0x23B872DD EQ PUSH2 0x211 JUMPI JUMPDEST PUSH0 DUP1 REVERT JUMPDEST PUSH2 0x193 PUSH1 0xA DUP2 JUMP JUMPDEST PUSH1 0x40 MLOAD SWAP1 DUP2 MSTORE PUSH1 0x20 ADD JUMPDEST PUSH1 0x40 MLOAD DUP1 SWAP2 SUB SWAP1 RETURN JUMPDEST PUSH1 0xA SLOAD PUSH2 0x1B9 SWAP1 PUSH1 0x1 PUSH1 0x1 PUSH1 0xA0 SHL SUB AND DUP2 JUMP JUMPDEST PUSH1 0x40 MLOAD PUSH1 0x1 PUSH1 0x1 PUSH1 0xA0 SHL SUB SWAP1 SWAP2 AND DUP2 MSTORE PUSH1 0x20 ADD PUSH2 0x19D JUMP JUMPDEST PUSH2 0x1D9 PUSH2 0x3A2 JUMP JUMPDEST PUSH1 0x40 MLOAD PUSH2 0x19D SWAP2 SWAP1 PUSH2 0xDE2 JUMP JUMPDEST PUSH2 0x1F9 PUSH2 0x1F4 CALLDATASIZE PUSH1 0x4 PUSH2 0xE32 JUMP JUMPDEST PUSH2 0x432 JUMP JUMPDEST PUSH1 0x40 MLOAD SWAP1 ISZERO ISZERO DUP2 MSTORE PUSH1 0x20 ADD PUSH2 0x19D JUMP JUMPDEST PUSH1 0x2 SLOAD PUSH2 0x193 JUMP JUMPDEST PUSH2 0x1F9 PUSH2 0x21F CALLDATASIZE PUSH1 0x4 PUSH2 0xE5A JUMP JUMPDEST PUSH2 0x44B JUMP JUMPDEST PUSH2 0x193 PUSH11 0x1A784379D99DB42000000 DUP2 JUMP JUMPDEST PUSH1 0x40 MLOAD PUSH1 0x12 DUP2 MSTORE PUSH1 0x20 ADD PUSH2 0x19D JUMP JUMPDEST PUSH2 0x193 PUSH1 0xD DUP2 JUMP JUMPDEST PUSH2 0x1F9 PUSH2 0x25B CALLDATASIZE PUSH1 0x4 PUSH2 0xE94 JUMP JUMPDEST PUSH1 0xC PUSH1 0x20 MSTORE PUSH0 SWAP1 DUP2 MSTORE PUSH1 0x40 SWAP1 KECCAK256 SLOAD PUSH1 0xFF AND DUP2 JUMP JUMPDEST PUSH1 0x7 SLOAD PUSH2 0x1B9 SWAP1 PUSH1 0x1 PUSH1 0x1 PUSH1 0xA0 SHL SUB AND DUP2 JUMP JUMPDEST PUSH2 0x193 PUSH1 0xC DUP2 JUMP JUMPDEST PUSH2 0x193 PUSH2 0x298 CALLDATASIZE PUSH1 0x4 PUSH2 0xE94 JUMP JUMPDEST PUSH1 0x1 PUSH1 0x1 PUSH1 0xA0 SHL SUB AND PUSH0 SWAP1 DUP2 MSTORE PUSH1 0x20 DUP2 SWAP1 MSTORE PUSH1 0x40 SWAP1 KECCAK256 SLOAD SWAP1 JUMP JUMPDEST PUSH2 0x2BA PUSH2 0x46E JUMP JUMPDEST STOP JUMPDEST PUSH2 0x2BA PUSH2 0x2CA CALLDATASIZE PUSH1 0x4 PUSH2 0xEB4 JUMP JUMPDEST PUSH2 0x481 JUMP JUMPDEST PUSH1 0x9 SLOAD PUSH2 0x1B9 SWAP1 PUSH1 0x1 PUSH1 0x1 PUSH1 0xA0 SHL SUB AND DUP2 JUMP JUMPDEST PUSH1 0x5 SLOAD PUSH1 0x1 PUSH1 0x1 PUSH1 0xA0 SHL SUB AND PUSH2 0x1B9 JUMP JUMPDEST PUSH2 0x1D9 PUSH2 0x4B3 JUMP JUMPDEST PUSH2 0x1F9 PUSH2 0x309 CALLDATASIZE PUSH1 0x4 PUSH2 0xE32 JUMP JUMPDEST PUSH2 0x4C2 JUMP JUMPDEST PUSH2 0x2BA PUSH2 0x31C CALLDATASIZE PUSH1 0x4 PUSH2 0xE94 JUMP JUMPDEST PUSH2 0x5FC JUMP JUMPDEST PUSH1 0xB SLOAD PUSH2 0x1B9 SWAP1 PUSH1 0x1 PUSH1 0x1 PUSH1 0xA0 SHL SUB AND DUP2 JUMP JUMPDEST PUSH1 0x8 SLOAD PUSH2 0x1B9 SWAP1 PUSH1 0x1 PUSH1 0x1 PUSH1 0xA0 SHL SUB AND DUP2 JUMP JUMPDEST PUSH2 0x193 PUSH2 0x355 CALLDATASIZE PUSH1 0x4 PUSH2 0xEED JUMP JUMPDEST PUSH1 0x1 PUSH1 0x1 PUSH1 0xA0 SHL SUB SWAP2 DUP3 AND PUSH0 SWAP1 DUP2 MSTORE PUSH1 0x1 PUSH1 0x20 SWAP1 DUP2 MSTORE PUSH1 0x40 DUP1 DUP4 KECCAK256 SWAP4 SWAP1 SWAP5 AND DUP3 MSTORE SWAP2 SWAP1 SWAP2 MSTORE KECCAK256 SLOAD SWAP1 JUMP JUMPDEST PUSH2 0x193 PUSH2 0x6AE JUMP JUMPDEST PUSH2 0x2BA PUSH2 0x395 CALLDATASIZE PUSH1 0x4 PUSH2 0xE94 JUMP JUMPDEST PUSH2 0x6D3 JUMP JUMPDEST PUSH2 0x193 PUSH2 0x710 JUMP JUMPDEST PUSH1 0x60 PUSH1 0x3 DUP1 SLOAD PUSH2 0x3B1 SWAP1 PUSH2 0xF1E JUMP JUMPDEST DUP1 PUSH1 0x1F ADD PUSH1 0x20 DUP1 SWAP2 DIV MUL PUSH1 0x20 ADD PUSH1 0x40 MLOAD SWAP1 DUP2 ADD PUSH1 0x40 MSTORE DUP1 SWAP3 SWAP2 SWAP1 DUP2 DUP2 MSTORE PUSH1 0x20 ADD DUP3 DUP1 SLOAD PUSH2 0x3DD SWAP1 PUSH2 0xF1E JUMP JUMPDEST DUP1 ISZERO PUSH2 0x428 JUMPI DUP1 PUSH1 0x1F LT PUSH2 0x3FF JUMPI PUSH2 0x100 DUP1 DUP4 SLOAD DIV MUL DUP4 MSTORE SWAP2 PUSH1 0x20 ADD SWAP2 PUSH2 0x428 JUMP JUMPDEST DUP3 ADD SWAP2 SWAP1 PUSH0 MSTORE PUSH1 0x20 PUSH0 KECCAK256 SWAP1 JUMPDEST DUP2 SLOAD DUP2 MSTORE SWAP1 PUSH1 0x1 ADD SWAP1 PUSH1 0x20 ADD DUP1 DUP4 GT PUSH2 0x40B JUMPI DUP3 SWAP1 SUB PUSH1 0x1F AND DUP3 ADD SWAP2 JUMPDEST POP POP POP POP POP SWAP1 POP SWAP1 JUMP JUMPDEST PUSH0 CALLER PUSH2 0x43F DUP2 DUP6 DUP6 PUSH2 0x729 JUMP JUMPDEST PUSH1 0x1 SWAP2 POP POP JUMPDEST SWAP3 SWAP2 POP POP JUMP JUMPDEST PUSH0 CALLER PUSH2 0x458 DUP6 DUP3 DUP6 PUSH2 0x73B JUMP JUMPDEST PUSH2 0x463 DUP6 DUP6 DUP6 PUSH2 0x7B7 JUMP JUMPDEST POP PUSH1 0x1 SWAP5 SWAP4 POP POP POP POP JUMP JUMPDEST PUSH2 0x476 PUSH2 0x814 JUMP JUMPDEST PUSH2 0x47F PUSH0 PUSH2 0x841 JUMP JUMPDEST JUMP JUMPDEST PUSH2 0x489 PUSH2 0x814 JUMP JUMPDEST PUSH1 0x1 PUSH1 0x1 PUSH1 0xA0 SHL SUB SWAP2 SWAP1 SWAP2 AND PUSH0 SWAP1 DUP2 MSTORE PUSH1 0xC PUSH1 0x20 MSTORE PUSH1 0x40 SWAP1 KECCAK256 DUP1 SLOAD PUSH1 0xFF NOT AND SWAP2 ISZERO ISZERO SWAP2 SWAP1 SWAP2 OR SWAP1 SSTORE JUMP JUMPDEST PUSH1 0x60 PUSH1 0x4 DUP1 SLOAD PUSH2 0x3B1 SWAP1 PUSH2 0xF1E JUMP JUMPDEST CALLER PUSH0 SWAP1 DUP2 MSTORE PUSH1 0xC PUSH1 0x20 MSTORE PUSH1 0x40 DUP2 KECCAK256 SLOAD PUSH1 0xFF AND PUSH2 0x5E8 JUMPI PUSH1 0x64 PUSH2 0x4F0 PUSH11 0x1A784379D99DB42000000 PUSH1 0x1 PUSH2 0xF6A JUMP JUMPDEST PUSH2 0x4FA SWAP2 SWAP1 PUSH2 0xF81 JUMP JUMPDEST DUP3 PUSH2 0x519 DUP6 PUSH1 0x1 PUSH1 0x1 PUSH1 0xA0 SHL SUB AND PUSH0 SWAP1 DUP2 MSTORE PUSH1 0x20 DUP2 SWAP1 MSTORE PUSH1 0x40 SWAP1 KECCAK256 SLOAD SWAP1 JUMP JUMPDEST PUSH2 0x523 SWAP2 SWAP1 PUSH2 0xFA0 JUMP JUMPDEST GT ISZERO PUSH2 0x576 JUMPI PUSH1 0x40 MLOAD PUSH3 0x461BCD PUSH1 0xE5 SHL DUP2 MSTORE PUSH1 0x20 PUSH1 0x4 DUP3 ADD MSTORE PUSH1 0x18 PUSH1 0x24 DUP3 ADD MSTORE PUSH32 0x45786365656473206D61782077616C6C6574206C696D69740000000000000000 PUSH1 0x44 DUP3 ADD MSTORE PUSH1 0x64 ADD JUMPDEST PUSH1 0x40 MLOAD DUP1 SWAP2 SUB SWAP1 REVERT JUMPDEST PUSH2 0x2710 PUSH2 0x58F PUSH11 0x1A784379D99DB42000000 PUSH1 0x5 PUSH2 0xF6A JUMP JUMPDEST PUSH2 0x599 SWAP2 SWAP1 PUSH2 0xF81 JUMP JUMPDEST DUP3 GT ISZERO PUSH2 0x5E8 JUMPI PUSH1 0x40 MLOAD PUSH3 0x461BCD PUSH1 0xE5 SHL DUP2 MSTORE PUSH1 0x20 PUSH1 0x4 DUP3 ADD MSTORE PUSH1 0x1D PUSH1 0x24 DUP3 ADD MSTORE PUSH32 0x45786365656473206D6178207472616E73616374696F6E206C696D6974000000 PUSH1 0x44 DUP3 ADD MSTORE PUSH1 0x64 ADD PUSH2 0x56D JUMP JUMPDEST PUSH2 0x5F3 CALLER DUP5 DUP5 PUSH2 0x892 JUMP JUMPDEST POP PUSH1 0x1 SWAP3 SWAP2 POP POP JUMP JUMPDEST PUSH2 0x604 PUSH2 0x814 JUMP JUMPDEST PUSH1 0x1 PUSH1 0x1 PUSH1 0xA0 SHL SUB DUP2 AND PUSH2 0x65A JUMPI PUSH1 0x40 MLOAD PUSH3 0x461BCD PUSH1 0xE5 SHL DUP2 MSTORE PUSH1 0x20 PUSH1 0x4 DUP3 ADD MSTORE PUSH1 0x1F PUSH1 0x24 DUP3 ADD MSTORE PUSH32 0x4E6577207061697220616464726573732063616E6E6F74206265207A65726F00 PUSH1 0x44 DUP3 ADD MSTORE PUSH1 0x64 ADD PUSH2 0x56D JUMP JUMPDEST PUSH1 0xB DUP1 SLOAD PUSH1 0x1 PUSH1 0x1 PUSH1 0xA0 SHL SUB NOT AND PUSH1 0x1 PUSH1 0x1 PUSH1 0xA0 SHL SUB DUP4 AND SWAP1 DUP2 OR SWAP1 SWAP2 SSTORE PUSH1 0x40 MLOAD SWAP1 DUP2 MSTORE PUSH32 0xDD2689CB5E1CA91BAB290E22ADA24C52705073CF17BACB82133714FA84271344 SWAP1 PUSH1 0x20 ADD PUSH1 0x40 MLOAD DUP1 SWAP2 SUB SWAP1 LOG1 POP JUMP JUMPDEST PUSH1 0x64 PUSH2 0x6C6 PUSH11 0x1A784379D99DB42000000 PUSH1 0x1 PUSH2 0xF6A JUMP JUMPDEST PUSH2 0x6D0 SWAP2 SWAP1 PUSH2 0xF81 JUMP JUMPDEST DUP2 JUMP JUMPDEST PUSH2 0x6DB PUSH2 0x814 JUMP JUMPDEST PUSH1 0x1 PUSH1 0x1 PUSH1 0xA0 SHL SUB DUP2 AND PUSH2 0x704 JUMPI PUSH1 0x40 MLOAD PUSH4 0x1E4FBDF7 PUSH1 0xE0 SHL DUP2 MSTORE PUSH0 PUSH1 0x4 DUP3 ADD MSTORE PUSH1 0x24 ADD PUSH2 0x56D JUMP JUMPDEST PUSH2 0x70D DUP2 PUSH2 0x841 JUMP JUMPDEST POP JUMP JUMPDEST PUSH2 0x2710 PUSH2 0x6C6 PUSH11 0x1A784379D99DB42000000 PUSH1 0x5 PUSH2 0xF6A JUMP JUMPDEST PUSH2 0x736 DUP4 DUP4 DUP4 PUSH1 0x1 PUSH2 0xBEA JUMP JUMPDEST POP POP POP JUMP JUMPDEST PUSH1 0x1 PUSH1 0x1 PUSH1 0xA0 SHL SUB DUP4 DUP2 AND PUSH0 SWAP1 DUP2 MSTORE PUSH1 0x1 PUSH1 0x20 SWAP1 DUP2 MSTORE PUSH1 0x40 DUP1 DUP4 KECCAK256 SWAP4 DUP7 AND DUP4 MSTORE SWAP3 SWAP1 MSTORE KECCAK256 SLOAD PUSH0 NOT DUP2 LT ISZERO PUSH2 0x7B1 JUMPI DUP2 DUP2 LT ISZERO PUSH2 0x7A3 JUMPI PUSH1 0x40 MLOAD PUSH4 0x7DC7A0D9 PUSH1 0xE1 SHL DUP2 MSTORE PUSH1 0x1 PUSH1 0x1 PUSH1 0xA0 SHL SUB DUP5 AND PUSH1 0x4 DUP3 ADD MSTORE PUSH1 0x24 DUP2 ADD DUP3 SWAP1 MSTORE PUSH1 0x44 DUP2 ADD DUP4 SWAP1 MSTORE PUSH1 0x64 ADD PUSH2 0x56D JUMP JUMPDEST PUSH2 0x7B1 DUP5 DUP5 DUP5 DUP5 SUB PUSH0 PUSH2 0xBEA JUMP JUMPDEST POP POP POP POP JUMP JUMPDEST PUSH1 0x1 PUSH1 0x1 PUSH1 0xA0 SHL SUB DUP4 AND PUSH2 0x7E0 JUMPI PUSH1 0x40 MLOAD PUSH4 0x4B637E8F PUSH1 0xE1 SHL DUP2 MSTORE PUSH0 PUSH1 0x4 DUP3 ADD MSTORE PUSH1 0x24 ADD PUSH2 0x56D JUMP JUMPDEST PUSH1 0x1 PUSH1 0x1 PUSH1 0xA0 SHL SUB DUP3 AND PUSH2 0x809 JUMPI PUSH1 0x40 MLOAD PUSH4 0xEC442F05 PUSH1 0xE0 SHL DUP2 MSTORE PUSH0 PUSH1 0x4 DUP3 ADD MSTORE PUSH1 0x24 ADD PUSH2 0x56D JUMP JUMPDEST PUSH2 0x736 DUP4 DUP4 DUP4 PUSH2 0xCBC JUMP JUMPDEST PUSH1 0x5 SLOAD PUSH1 0x1 PUSH1 0x1 PUSH1 0xA0 SHL SUB AND CALLER EQ PUSH2 0x47F JUMPI PUSH1 0x40 MLOAD PUSH4 0x118CDAA7 PUSH1 0xE0 SHL DUP2 MSTORE CALLER PUSH1 0x4 DUP3 ADD MSTORE PUSH1 0x24 ADD PUSH2 0x56D JUMP JUMPDEST PUSH1 0x5 DUP1 SLOAD PUSH1 0x1 PUSH1 0x1 PUSH1 0xA0 SHL SUB DUP4 DUP2 AND PUSH1 0x1 PUSH1 0x1 PUSH1 0xA0 SHL SUB NOT DUP4 AND DUP2 OR SWAP1 SWAP4 SSTORE PUSH1 0x40 MLOAD SWAP2 AND SWAP2 SWAP1 DUP3 SWAP1 PUSH32 0x8BE0079C531659141344CD1FD0A4F28419497F9722A3DAAFE3B4186F6B6457E0 SWAP1 PUSH0 SWAP1 LOG3 POP POP JUMP JUMPDEST PUSH1 0xB SLOAD PUSH0 SWAP1 DUP2 SWAP1 DUP2 SWAP1 DUP2 SWAP1 DUP2 SWAP1 DUP2 SWAP1 PUSH1 0x1 PUSH1 0x1 PUSH1 0xA0 SHL SUB SWAP1 DUP2 AND SWAP1 DUP10 AND SUB PUSH2 0x94F JUMPI PUSH1 0x64 PUSH2 0x8C1 PUSH1 0xC DUP10 PUSH2 0xF6A JUMP JUMPDEST PUSH2 0x8CB SWAP2 SWAP1 PUSH2 0xF81 JUMP JUMPDEST SWAP6 POP PUSH1 0xC PUSH2 0x8DA DUP8 PUSH1 0x4 PUSH2 0xF6A JUMP JUMPDEST PUSH2 0x8E4 SWAP2 SWAP1 PUSH2 0xF81 JUMP JUMPDEST SWAP5 POP PUSH1 0xC PUSH2 0x8F3 DUP8 PUSH1 0x4 PUSH2 0xF6A JUMP JUMPDEST PUSH2 0x8FD SWAP2 SWAP1 PUSH2 0xF81 JUMP JUMPDEST SWAP4 POP PUSH1 0xC PUSH2 0x90C DUP8 PUSH1 0x1 PUSH2 0xF6A JUMP JUMPDEST PUSH2 0x916 SWAP2 SWAP1 PUSH2 0xF81 JUMP JUMPDEST SWAP3 POP PUSH1 0xC PUSH2 0x925 DUP8 PUSH1 0x2 PUSH2 0xF6A JUMP JUMPDEST PUSH2 0x92F SWAP2 SWAP1 PUSH2 0xF81 JUMP JUMPDEST SWAP2 POP PUSH1 0xC PUSH2 0x93E DUP8 PUSH1 0x1 PUSH2 0xF6A JUMP JUMPDEST PUSH2 0x948 SWAP2 SWAP1 PUSH2 0xF81 JUMP JUMPDEST SWAP1 POP PUSH2 0x9E6 JUMP JUMPDEST PUSH1 0x64 PUSH2 0x95C PUSH1 0xA DUP10 PUSH2 0xF6A JUMP JUMPDEST PUSH2 0x966 SWAP2 SWAP1 PUSH2 0xF81 JUMP JUMPDEST SWAP6 POP PUSH1 0xA PUSH2 0x975 DUP8 PUSH1 0x3 PUSH2 0xF6A JUMP JUMPDEST PUSH2 0x97F SWAP2 SWAP1 PUSH2 0xF81 JUMP JUMPDEST SWAP5 POP PUSH1 0xA PUSH2 0x98E DUP8 PUSH1 0x4 PUSH2 0xF6A JUMP JUMPDEST PUSH2 0x998 SWAP2 SWAP1 PUSH2 0xF81 JUMP JUMPDEST SWAP4 POP PUSH1 0xA PUSH2 0x9A7 DUP8 PUSH1 0x1 PUSH2 0xF6A JUMP JUMPDEST PUSH2 0x9B1 SWAP2 SWAP1 PUSH2 0xF81 JUMP JUMPDEST SWAP3 POP PUSH1 0xA PUSH2 0x9C0 DUP8 PUSH1 0x1 PUSH2 0xF6A JUMP JUMPDEST PUSH2 0x9CA SWAP2 SWAP1 PUSH2 0xF81 JUMP JUMPDEST SWAP2 POP PUSH1 0xA PUSH2 0x9D9 DUP8 PUSH1 0x1 PUSH2 0xF6A JUMP JUMPDEST PUSH2 0x9E3 SWAP2 SWAP1 PUSH2 0xF81 JUMP JUMPDEST SWAP1 POP JUMPDEST PUSH0 PUSH2 0x9F1 DUP8 DUP10 PUSH2 0xFB3 JUMP JUMPDEST PUSH1 0x7 SLOAD SWAP1 SWAP2 POP PUSH2 0xA0C SWAP1 DUP12 SWAP1 PUSH1 0x1 PUSH1 0x1 PUSH1 0xA0 SHL SUB AND DUP8 PUSH2 0x7B7 JUMP JUMPDEST PUSH0 DUP1 MLOAD PUSH1 0x20 PUSH2 0xFC7 DUP4 CODECOPY DUP2 MLOAD SWAP2 MSTORE DUP6 PUSH1 0x40 MLOAD PUSH2 0xA54 SWAP2 DUP2 MSTORE PUSH1 0x40 PUSH1 0x20 DUP3 ADD DUP2 SWAP1 MSTORE PUSH1 0x12 SWAP1 DUP3 ADD MSTORE PUSH18 0x115B98DBDD5C9859D95B595B9D08119D5B99 PUSH1 0x72 SHL PUSH1 0x60 DUP3 ADD MSTORE PUSH1 0x80 ADD SWAP1 JUMP JUMPDEST PUSH1 0x40 MLOAD DUP1 SWAP2 SUB SWAP1 LOG1 PUSH1 0x8 SLOAD PUSH2 0xA74 SWAP1 DUP12 SWAP1 PUSH1 0x1 PUSH1 0x1 PUSH1 0xA0 SHL SUB AND DUP7 PUSH2 0x7B7 JUMP JUMPDEST PUSH0 DUP1 MLOAD PUSH1 0x20 PUSH2 0xFC7 DUP4 CODECOPY DUP2 MLOAD SWAP2 MSTORE DUP5 PUSH1 0x40 MLOAD PUSH2 0xAB8 SWAP2 DUP2 MSTORE PUSH1 0x40 PUSH1 0x20 DUP3 ADD DUP2 SWAP1 MSTORE PUSH1 0xE SWAP1 DUP3 ADD MSTORE PUSH14 0x115B595C99D95B98DE48119D5B99 PUSH1 0x92 SHL PUSH1 0x60 DUP3 ADD MSTORE PUSH1 0x80 ADD SWAP1 JUMP JUMPDEST PUSH1 0x40 MLOAD DUP1 SWAP2 SUB SWAP1 LOG1 PUSH1 0x9 SLOAD PUSH2 0xAD8 SWAP1 DUP12 SWAP1 PUSH1 0x1 PUSH1 0x1 PUSH1 0xA0 SHL SUB AND DUP6 PUSH2 0x7B7 JUMP JUMPDEST PUSH0 DUP1 MLOAD PUSH1 0x20 PUSH2 0xFC7 DUP4 CODECOPY DUP2 MLOAD SWAP2 MSTORE DUP4 PUSH1 0x40 MLOAD PUSH2 0xB17 SWAP2 DUP2 MSTORE PUSH1 0x40 PUSH1 0x20 DUP3 ADD DUP2 SWAP1 MSTORE PUSH1 0x9 SWAP1 DUP3 ADD MSTORE PUSH9 0x4D61726B6574696E67 PUSH1 0xB8 SHL PUSH1 0x60 DUP3 ADD MSTORE PUSH1 0x80 ADD SWAP1 JUMP JUMPDEST PUSH1 0x40 MLOAD DUP1 SWAP2 SUB SWAP1 LOG1 PUSH1 0xA SLOAD PUSH2 0xB37 SWAP1 DUP12 SWAP1 PUSH1 0x1 PUSH1 0x1 PUSH1 0xA0 SHL SUB AND DUP5 PUSH2 0x7B7 JUMP JUMPDEST PUSH0 DUP1 MLOAD PUSH1 0x20 PUSH2 0xFC7 DUP4 CODECOPY DUP2 MLOAD SWAP2 MSTORE DUP3 PUSH1 0x40 MLOAD PUSH2 0xB74 SWAP2 DUP2 MSTORE PUSH1 0x40 PUSH1 0x20 DUP3 ADD DUP2 SWAP1 MSTORE PUSH1 0x7 SWAP1 DUP3 ADD MSTORE PUSH7 0x5374616B696E67 PUSH1 0xC8 SHL PUSH1 0x60 DUP3 ADD MSTORE PUSH1 0x80 ADD SWAP1 JUMP JUMPDEST PUSH1 0x40 MLOAD DUP1 SWAP2 SUB SWAP1 LOG1 PUSH2 0xB87 DUP11 ADDRESS DUP9 PUSH2 0x7B7 JUMP JUMPDEST PUSH0 DUP1 MLOAD PUSH1 0x20 PUSH2 0xFC7 DUP4 CODECOPY DUP2 MLOAD SWAP2 MSTORE DUP7 PUSH1 0x40 MLOAD PUSH2 0xBCB SWAP2 DUP2 MSTORE PUSH1 0x40 PUSH1 0x20 DUP3 ADD DUP2 SWAP1 MSTORE PUSH1 0xE SWAP1 DUP3 ADD MSTORE PUSH14 0x131A5C5D5A591A5D1E48141BDBDB PUSH1 0x92 SHL PUSH1 0x60 DUP3 ADD MSTORE PUSH1 0x80 ADD SWAP1 JUMP JUMPDEST PUSH1 0x40 MLOAD DUP1 SWAP2 SUB SWAP1 LOG1 PUSH2 0xBDE DUP11 DUP11 DUP4 PUSH2 0x7B7 JUMP JUMPDEST POP POP POP POP POP POP POP POP POP POP JUMP JUMPDEST PUSH1 0x1 PUSH1 0x1 PUSH1 0xA0 SHL SUB DUP5 AND PUSH2 0xC13 JUMPI PUSH1 0x40 MLOAD PUSH4 0xE602DF05 PUSH1 0xE0 SHL DUP2 MSTORE PUSH0 PUSH1 0x4 DUP3 ADD MSTORE PUSH1 0x24 ADD PUSH2 0x56D JUMP JUMPDEST PUSH1 0x1 PUSH1 0x1 PUSH1 0xA0 SHL SUB DUP4 AND PUSH2 0xC3C JUMPI PUSH1 0x40 MLOAD PUSH4 0x4A1406B1 PUSH1 0xE1 SHL DUP2 MSTORE PUSH0 PUSH1 0x4 DUP3 ADD MSTORE PUSH1 0x24 ADD PUSH2 0x56D JUMP JUMPDEST PUSH1 0x1 PUSH1 0x1 PUSH1 0xA0 SHL SUB DUP1 DUP6 AND PUSH0 SWAP1 DUP2 MSTORE PUSH1 0x1 PUSH1 0x20 SWAP1 DUP2 MSTORE PUSH1 0x40 DUP1 DUP4 KECCAK256 SWAP4 DUP8 AND DUP4 MSTORE SWAP3 SWAP1 MSTORE KECCAK256 DUP3 SWAP1 SSTORE DUP1 ISZERO PUSH2 0x7B1 JUMPI DUP3 PUSH1 0x1 PUSH1 0x1 PUSH1 0xA0 SHL SUB AND DUP5 PUSH1 0x1 PUSH1 0x1 PUSH1 0xA0 SHL SUB AND PUSH32 0x8C5BE1E5EBEC7D5BD14F71427D1E84F3DD0314C0F7B2291E5B200AC8C7C3B925 DUP5 PUSH1 0x40 MLOAD PUSH2 0xCAE SWAP2 DUP2 MSTORE PUSH1 0x20 ADD SWAP1 JUMP JUMPDEST PUSH1 0x40 MLOAD DUP1 SWAP2 SUB SWAP1 LOG3 POP POP POP POP JUMP JUMPDEST PUSH1 0x1 PUSH1 0x1 PUSH1 0xA0 SHL SUB DUP4 AND PUSH2 0xCE6 JUMPI DUP1 PUSH1 0x2 PUSH0 DUP3 DUP3 SLOAD PUSH2 0xCDB SWAP2 SWAP1 PUSH2 0xFA0 JUMP JUMPDEST SWAP1 SWAP2 SSTORE POP PUSH2 0xD56 SWAP1 POP JUMP JUMPDEST PUSH1 0x1 PUSH1 0x1 PUSH1 0xA0 SHL SUB DUP4 AND PUSH0 SWAP1 DUP2 MSTORE PUSH1 0x20 DUP2 SWAP1 MSTORE PUSH1 0x40 SWAP1 KECCAK256 SLOAD DUP2 DUP2 LT ISZERO PUSH2 0xD38 JUMPI PUSH1 0x40 MLOAD PUSH4 0x391434E3 PUSH1 0xE2 SHL DUP2 MSTORE PUSH1 0x1 PUSH1 0x1 PUSH1 0xA0 SHL SUB DUP6 AND PUSH1 0x4 DUP3 ADD MSTORE PUSH1 0x24 DUP2 ADD DUP3 SWAP1 MSTORE PUSH1 0x44 DUP2 ADD DUP4 SWAP1 MSTORE PUSH1 0x64 ADD PUSH2 0x56D JUMP JUMPDEST PUSH1 0x1 PUSH1 0x1 PUSH1 0xA0 SHL SUB DUP5 AND PUSH0 SWAP1 DUP2 MSTORE PUSH1 0x20 DUP2 SWAP1 MSTORE PUSH1 0x40 SWAP1 KECCAK256 SWAP1 DUP3 SWAP1 SUB SWAP1 SSTORE JUMPDEST PUSH1 0x1 PUSH1 0x1 PUSH1 0xA0 SHL SUB DUP3 AND PUSH2 0xD72 JUMPI PUSH1 0x2 DUP1 SLOAD DUP3 SWAP1 SUB SWAP1 SSTORE PUSH2 0xD90 JUMP JUMPDEST PUSH1 0x1 PUSH1 0x1 PUSH1 0xA0 SHL SUB DUP3 AND PUSH0 SWAP1 DUP2 MSTORE PUSH1 0x20 DUP2 SWAP1 MSTORE PUSH1 0x40 SWAP1 KECCAK256 DUP1 SLOAD DUP3 ADD SWAP1 SSTORE JUMPDEST DUP2 PUSH1 0x1 PUSH1 0x1 PUSH1 0xA0 SHL SUB AND DUP4 PUSH1 0x1 PUSH1 0x1 PUSH1 0xA0 SHL SUB AND PUSH32 0xDDF252AD1BE2C89B69C2B068FC378DAA952BA7F163C4A11628F55A4DF523B3EF DUP4 PUSH1 0x40 MLOAD PUSH2 0xDD5 SWAP2 DUP2 MSTORE PUSH1 0x20 ADD SWAP1 JUMP JUMPDEST PUSH1 0x40 MLOAD DUP1 SWAP2 SUB SWAP1 LOG3 POP POP POP JUMP JUMPDEST PUSH1 0x20 DUP2 MSTORE PUSH0 DUP3 MLOAD DUP1 PUSH1 0x20 DUP5 ADD MSTORE DUP1 PUSH1 0x20 DUP6 ADD PUSH1 0x40 DUP6 ADD MCOPY PUSH0 PUSH1 0x40 DUP3 DUP6 ADD ADD MSTORE PUSH1 0x40 PUSH1 0x1F NOT PUSH1 0x1F DUP4 ADD AND DUP5 ADD ADD SWAP2 POP POP SWAP3 SWAP2 POP POP JUMP JUMPDEST DUP1 CALLDATALOAD PUSH1 0x1 PUSH1 0x1 PUSH1 0xA0 SHL SUB DUP2 AND DUP2 EQ PUSH2 0xE2D JUMPI PUSH0 DUP1 REVERT JUMPDEST SWAP2 SWAP1 POP JUMP JUMPDEST PUSH0 DUP1 PUSH1 0x40 DUP4 DUP6 SUB SLT ISZERO PUSH2 0xE43 JUMPI PUSH0 DUP1 REVERT JUMPDEST PUSH2 0xE4C DUP4 PUSH2 0xE17 JUMP JUMPDEST SWAP5 PUSH1 0x20 SWAP4 SWAP1 SWAP4 ADD CALLDATALOAD SWAP4 POP POP POP JUMP JUMPDEST PUSH0 DUP1 PUSH0 PUSH1 0x60 DUP5 DUP7 SUB SLT ISZERO PUSH2 0xE6C JUMPI PUSH0 DUP1 REVERT JUMPDEST PUSH2 0xE75 DUP5 PUSH2 0xE17 JUMP JUMPDEST SWAP3 POP PUSH2 0xE83 PUSH1 0x20 DUP6 ADD PUSH2 0xE17 JUMP JUMPDEST SWAP3 SWAP6 SWAP3 SWAP5 POP POP POP PUSH1 0x40 SWAP2 SWAP1 SWAP2 ADD CALLDATALOAD SWAP1 JUMP JUMPDEST PUSH0 PUSH1 0x20 DUP3 DUP5 SUB SLT ISZERO PUSH2 0xEA4 JUMPI PUSH0 DUP1 REVERT JUMPDEST PUSH2 0xEAD DUP3 PUSH2 0xE17 JUMP JUMPDEST SWAP4 SWAP3 POP POP POP JUMP JUMPDEST PUSH0 DUP1 PUSH1 0x40 DUP4 DUP6 SUB SLT ISZERO PUSH2 0xEC5 JUMPI PUSH0 DUP1 REVERT JUMPDEST PUSH2 0xECE DUP4 PUSH2 0xE17 JUMP JUMPDEST SWAP2 POP PUSH1 0x20 DUP4 ADD CALLDATALOAD DUP1 ISZERO ISZERO DUP2 EQ PUSH2 0xEE2 JUMPI PUSH0 DUP1 REVERT JUMPDEST DUP1 SWAP2 POP POP SWAP3 POP SWAP3 SWAP1 POP JUMP JUMPDEST PUSH0 DUP1 PUSH1 0x40 DUP4 DUP6 SUB SLT ISZERO PUSH2 0xEFE JUMPI PUSH0 DUP1 REVERT JUMPDEST PUSH2 0xF07 DUP4 PUSH2 0xE17 JUMP JUMPDEST SWAP2 POP PUSH2 0xF15 PUSH1 0x20 DUP5 ADD PUSH2 0xE17 JUMP JUMPDEST SWAP1 POP SWAP3 POP SWAP3 SWAP1 POP JUMP JUMPDEST PUSH1 0x1 DUP2 DUP2 SHR SWAP1 DUP3 AND DUP1 PUSH2 0xF32 JUMPI PUSH1 0x7F DUP3 AND SWAP2 POP JUMPDEST PUSH1 0x20 DUP3 LT DUP2 SUB PUSH2 0xF50 JUMPI PUSH4 0x4E487B71 PUSH1 0xE0 SHL PUSH0 MSTORE PUSH1 0x22 PUSH1 0x4 MSTORE PUSH1 0x24 PUSH0 REVERT JUMPDEST POP SWAP2 SWAP1 POP JUMP JUMPDEST PUSH4 0x4E487B71 PUSH1 0xE0 SHL PUSH0 MSTORE PUSH1 0x11 PUSH1 0x4 MSTORE PUSH1 0x24 PUSH0 REVERT JUMPDEST DUP1 DUP3 MUL DUP2 ISZERO DUP3 DUP3 DIV DUP5 EQ OR PUSH2 0x445 JUMPI PUSH2 0x445 PUSH2 0xF56 JUMP JUMPDEST PUSH0 DUP3 PUSH2 0xF9B JUMPI PUSH4 0x4E487B71 PUSH1 0xE0 SHL PUSH0 MSTORE PUSH1 0x12 PUSH1 0x4 MSTORE PUSH1 0x24 PUSH0 REVERT JUMPDEST POP DIV SWAP1 JUMP JUMPDEST DUP1 DUP3 ADD DUP1 DUP3 GT ISZERO PUSH2 0x445 JUMPI PUSH2 0x445 PUSH2 0xF56 JUMP JUMPDEST DUP2 DUP2 SUB DUP2 DUP2 GT ISZERO PUSH2 0x445 JUMPI PUSH2 0x445 PUSH2 0xF56 JUMP INVALID PUSH15 0x232B0ACF46272DACF889AF67675747 PUSH22 0xA324B133D42B3B8CFFA9CD13159984A2646970667358 0x22 SLT KECCAK256 BLOBBASEFEE DELEGATECALL EXTCODEHASH 0xDF BALANCE POP EXP 0x4B 0x4E PUSH17 0x51E891D241240E96188837A19F1FBE2964 MOD 0x22 CREATE2 BLOCKHASH SWAP14 PUSH5 0x736F6C6343 STOP ADDMOD BYTE STOP CALLER "
				},
				"gasEstimates": {
					"creation": {
						"codeDepositCost": "824800",
						"executionCost": "infinite",
						"totalCost": "infinite"
					},
					"external": {
						"BUY_TAX()": "207",
						"INITIAL_SUPPLY()": "229",
						"MAX_TX()": "455",
						"MAX_WALLET()": "411",
						"SELL_TAX()": "272",
						"SLIPPAGE()": "273",
						"allowance(address,address)": "infinite",
						"approve(address,uint256)": "24802",
						"balanceOf(address)": "2637",
						"decimals()": "244",
						"emergencyFund()": "2425",
						"encouragementFund()": "2403",
						"isExcludedFromFees(address)": "2573",
						"marketingWallet()": "2403",
						"name()": "infinite",
						"owner()": "2419",
						"renounceOwnership()": "infinite",
						"stakingWallet()": "2382",
						"symbol()": "infinite",
						"totalSupply()": "2392",
						"transfer(address,uint256)": "infinite",
						"transferFrom(address,address,uint256)": "infinite",
						"transferOwnership(address)": "28421",
						"uniswapPair()": "2403",
						"updateExcludedAccountStatus(address,bool)": "26900",
						"updateUniswapPair(address)": "27866"
					},
					"internal": {
						"_transferWithTaxes(address,address,uint256)": "infinite"
					}
				},
				"methodIdentifiers": {
					"BUY_TAX()": "02af37bb",
					"INITIAL_SUPPLY()": "2ff2e9dc",
					"MAX_TX()": "f3b2db3f",
					"MAX_WALLET()": "df7787a4",
					"SELL_TAX()": "54ad8aee",
					"SLIPPAGE()": "36b4134a",
					"allowance(address,address)": "dd62ed3e",
					"approve(address,uint256)": "095ea7b3",
					"balanceOf(address)": "70a08231",
					"decimals()": "313ce567",
					"emergencyFund()": "cc859378",
					"encouragementFund()": "52a6a9ec",
					"isExcludedFromFees(address)": "4fbee193",
					"marketingWallet()": "75f0a874",
					"name()": "06fdde03",
					"owner()": "8da5cb5b",
					"renounceOwnership()": "715018a6",
					"stakingWallet()": "06ee6ad8",
					"symbol()": "95d89b41",
					"totalSupply()": "18160ddd",
					"transfer(address,uint256)": "a9059cbb",
					"transferFrom(address,address,uint256)": "23b872dd",
					"transferOwnership(address)": "f2fde38b",
					"uniswapPair()": "c816841b",
					"updateExcludedAccountStatus(address,bool)": "753cafc3",
					"updateUniswapPair(address)": "c12b7c4e"
				}
			},
			"storageLayout": {
				"storage": [
					{
						"astId": 279,
						"contract": "indentity_test_3_flattened.sol:XEAMToken",
						"label": "_balances",
						"offset": 0,
						"slot": "0",
						"type": "t_mapping(t_address,t_uint256)"
					},
					{
						"astId": 285,
						"contract": "indentity_test_3_flattened.sol:XEAMToken",
						"label": "_allowances",
						"offset": 0,
						"slot": "1",
						"type": "t_mapping(t_address,t_mapping(t_address,t_uint256))"
					},
					{
						"astId": 287,
						"contract": "indentity_test_3_flattened.sol:XEAMToken",
						"label": "_totalSupply",
						"offset": 0,
						"slot": "2",
						"type": "t_uint256"
					},
					{
						"astId": 289,
						"contract": "indentity_test_3_flattened.sol:XEAMToken",
						"label": "_name",
						"offset": 0,
						"slot": "3",
						"type": "t_string_storage"
					},
					{
						"astId": 291,
						"contract": "indentity_test_3_flattened.sol:XEAMToken",
						"label": "_symbol",
						"offset": 0,
						"slot": "4",
						"type": "t_string_storage"
					},
					{
						"astId": 777,
						"contract": "indentity_test_3_flattened.sol:XEAMToken",
						"label": "_owner",
						"offset": 0,
						"slot": "5",
						"type": "t_address"
					},
					{
						"astId": 926,
						"contract": "indentity_test_3_flattened.sol:XEAMToken",
						"label": "_status",
						"offset": 0,
						"slot": "6",
						"type": "t_uint256"
					},
					{
						"astId": 1012,
						"contract": "indentity_test_3_flattened.sol:XEAMToken",
						"label": "encouragementFund",
						"offset": 0,
						"slot": "7",
						"type": "t_address"
					},
					{
						"astId": 1014,
						"contract": "indentity_test_3_flattened.sol:XEAMToken",
						"label": "emergencyFund",
						"offset": 0,
						"slot": "8",
						"type": "t_address"
					},
					{
						"astId": 1016,
						"contract": "indentity_test_3_flattened.sol:XEAMToken",
						"label": "marketingWallet",
						"offset": 0,
						"slot": "9",
						"type": "t_address"
					},
					{
						"astId": 1018,
						"contract": "indentity_test_3_flattened.sol:XEAMToken",
						"label": "stakingWallet",
						"offset": 0,
						"slot": "10",
						"type": "t_address"
					},
					{
						"astId": 1020,
						"contract": "indentity_test_3_flattened.sol:XEAMToken",
						"label": "uniswapPair",
						"offset": 0,
						"slot": "11",
						"type": "t_address"
					},
					{
						"astId": 1033,
						"contract": "indentity_test_3_flattened.sol:XEAMToken",
						"label": "isExcludedFromFees",
						"offset": 0,
						"slot": "12",
						"type": "t_mapping(t_address,t_bool)"
					}
				],
				"types": {
					"t_address": {
						"encoding": "inplace",
						"label": "address",
						"numberOfBytes": "20"
					},
					"t_bool": {
						"encoding": "inplace",
						"label": "bool",
						"numberOfBytes": "1"
					},
					"t_mapping(t_address,t_bool)": {
						"encoding": "mapping",
						"key": "t_address",
						"label": "mapping(address => bool)",
						"numberOfBytes": "32",
						"value": "t_bool"
					},
					"t_mapping(t_address,t_mapping(t_address,t_uint256))": {
						"encoding": "mapping",
						"key": "t_address",
						"label": "mapping(address => mapping(address => uint256))",
						"numberOfBytes": "32",
						"value": "t_mapping(t_address,t_uint256)"
					},
					"t_mapping(t_address,t_uint256)": {
						"encoding": "mapping",
						"key": "t_address",
						"label": "mapping(address => uint256)",
						"numberOfBytes": "32",
						"value": "t_uint256"
					},
					"t_string_storage": {
						"encoding": "bytes",
						"label": "string",
						"numberOfBytes": "32"
					},
					"t_uint256": {
						"encoding": "inplace",
						"label": "uint256",
						"numberOfBytes": "32"
					}
				}
			},
			"userdoc": {
				"kind": "user",
				"methods": {},
				"version": 1
			}
		}
	}
}