{
	"data": {
		"bytecode": {
			"linkReferences": {},
			"object": "6080604052348015600e575f80fd5b503380603357604051631e4fbdf760e01b81525f600482015260240160405180910390fd5b603a81604b565b505f805460ff60a01b19169055609a565b5f80546001600160a01b038381166001600160a01b0319831681178455604051919092169283917f8be0079c531659141344cd1fd0a4f28419497f9722a3daafe3b4186f6b6457e09190a35050565b6104df806100a75f395ff3fe608060405234801561000f575f80fd5b5060043610610090575f3560e01c8063715018a611610063578063715018a6146100f75780638456cb59146100ff5780638da5cb5b14610107578063c92dbf8514610121578063f2fde38b14610129575f80fd5b806305691ec8146100945780632b76364e1461009e5780633f4ba83a146100de5780635c975abb146100e6575b5f80fd5b61009c61013c565b005b6100c96100ac36600461047c565b6001600160a01b03165f9081526001602052604090205460ff1690565b60405190151581526020015b60405180910390f35b61009c6101ec565b5f54600160a01b900460ff166100c9565b61009c6101fe565b61009c61020f565b5f546040516001600160a01b0390911681526020016100d5565b61009c61021f565b61009c61013736600461047c565b610293565b6101446102d0565b335f9081526001602052604090205460ff16156101a85760405162461bcd60e51b815260206004820152601760248201527f4164647265737320616c726561647920636c61696d656400000000000000000060448201526064015b60405180910390fd5b335f818152600160208190526040808320805460ff1916909217909155517f724e7ff186adc07f81795071386876998e66855c287fc3a53b5dec08e7b6bbd99190a2565b6101f461031c565b6101fc610348565b565b61020661031c565b6101fc5f61039c565b61021761031c565b6101fc6103eb565b6102276102d0565b335f9081526001602052604090205460ff1661027b5760405162461bcd60e51b81526020600482015260136024820152721059191c995cdcc81b9bdd0818db185a5b5959606a1b604482015260640161019f565b335f908152600160205260409020805460ff19169055565b61029b61031c565b6001600160a01b0381166102c457604051631e4fbdf760e01b81525f600482015260240161019f565b6102cd8161039c565b50565b5f54600160a01b900460ff16156101fc5760405162461bcd60e51b815260206004820152601060248201526f14185d5cd8589b194e881c185d5cd95960821b604482015260640161019f565b5f546001600160a01b031633146101fc5760405163118cdaa760e01b815233600482015260240161019f565b61035061042d565b5f805460ff60a01b191690557f5db9ee0a495bf2e6ff9c91a7834c1ba4fdd244a5e8aa4e537bd38aeae4b073aa335b6040516001600160a01b03909116815260200160405180910390a1565b5f80546001600160a01b038381166001600160a01b0319831681178455604051919092169283917f8be0079c531659141344cd1fd0a4f28419497f9722a3daafe3b4186f6b6457e09190a35050565b6103f36102d0565b5f805460ff60a01b1916600160a01b1790557f62e78cea01bee320cd4e420270b5ea74000d11b0c9f74754ebdbfc544b05a25861037f3390565b5f54600160a01b900460ff166101fc5760405162461bcd60e51b815260206004820152601460248201527314185d5cd8589b194e881b9bdd081c185d5cd95960621b604482015260640161019f565b5f6020828403121561048c575f80fd5b81356001600160a01b03811681146104a2575f80fd5b939250505056fea26469706673582212209557c4077cb133bb13ecf6cfb0d7475a5cd7df2ac2f8e02dc4229afdc261370764736f6c634300081a0033",
			"opcodes": "PUSH1 0x80 PUSH1 0x40 MSTORE CALLVALUE DUP1 ISZERO PUSH1 0xE JUMPI PUSH0 DUP1 REVERT JUMPDEST POP CALLER DUP1 PUSH1 0x33 JUMPI PUSH1 0x40 MLOAD PUSH4 0x1E4FBDF7 PUSH1 0xE0 SHL DUP2 MSTORE PUSH0 PUSH1 0x4 DUP3 ADD MSTORE PUSH1 0x24 ADD PUSH1 0x40 MLOAD DUP1 SWAP2 SUB SWAP1 REVERT JUMPDEST PUSH1 0x3A DUP2 PUSH1 0x4B JUMP JUMPDEST POP PUSH0 DUP1 SLOAD PUSH1 0xFF PUSH1 0xA0 SHL NOT AND SWAP1 SSTORE PUSH1 0x9A JUMP JUMPDEST PUSH0 DUP1 SLOAD PUSH1 0x1 PUSH1 0x1 PUSH1 0xA0 SHL SUB DUP4 DUP2 AND PUSH1 0x1 PUSH1 0x1 PUSH1 0xA0 SHL SUB NOT DUP4 AND DUP2 OR DUP5 SSTORE PUSH1 0x40 MLOAD SWAP2 SWAP1 SWAP3 AND SWAP3 DUP4 SWAP2 PUSH32 0x8BE0079C531659141344CD1FD0A4F28419497F9722A3DAAFE3B4186F6B6457E0 SWAP2 SWAP1 LOG3 POP POP JUMP JUMPDEST PUSH2 0x4DF DUP1 PUSH2 0xA7 PUSH0 CODECOPY PUSH0 RETURN INVALID PUSH1 0x80 PUSH1 0x40 MSTORE CALLVALUE DUP1 ISZERO PUSH2 0xF JUMPI PUSH0 DUP1 REVERT JUMPDEST POP PUSH1 0x4 CALLDATASIZE LT PUSH2 0x90 JUMPI PUSH0 CALLDATALOAD PUSH1 0xE0 SHR DUP1 PUSH4 0x715018A6 GT PUSH2 0x63 JUMPI DUP1 PUSH4 0x715018A6 EQ PUSH2 0xF7 JUMPI DUP1 PUSH4 0x8456CB59 EQ PUSH2 0xFF JUMPI DUP1 PUSH4 0x8DA5CB5B EQ PUSH2 0x107 JUMPI DUP1 PUSH4 0xC92DBF85 EQ PUSH2 0x121 JUMPI DUP1 PUSH4 0xF2FDE38B EQ PUSH2 0x129 JUMPI PUSH0 DUP1 REVERT JUMPDEST DUP1 PUSH4 0x5691EC8 EQ PUSH2 0x94 JUMPI DUP1 PUSH4 0x2B76364E EQ PUSH2 0x9E JUMPI DUP1 PUSH4 0x3F4BA83A EQ PUSH2 0xDE JUMPI DUP1 PUSH4 0x5C975ABB EQ PUSH2 0xE6 JUMPI JUMPDEST PUSH0 DUP1 REVERT JUMPDEST PUSH2 0x9C PUSH2 0x13C JUMP JUMPDEST STOP JUMPDEST PUSH2 0xC9 PUSH2 0xAC CALLDATASIZE PUSH1 0x4 PUSH2 0x47C JUMP JUMPDEST PUSH1 0x1 PUSH1 0x1 PUSH1 0xA0 SHL SUB AND PUSH0 SWAP1 DUP2 MSTORE PUSH1 0x1 PUSH1 0x20 MSTORE PUSH1 0x40 SWAP1 KECCAK256 SLOAD PUSH1 0xFF AND SWAP1 JUMP JUMPDEST PUSH1 0x40 MLOAD SWAP1 ISZERO ISZERO DUP2 MSTORE PUSH1 0x20 ADD JUMPDEST PUSH1 0x40 MLOAD DUP1 SWAP2 SUB SWAP1 RETURN JUMPDEST PUSH2 0x9C PUSH2 0x1EC JUMP JUMPDEST PUSH0 SLOAD PUSH1 0x1 PUSH1 0xA0 SHL SWAP1 DIV PUSH1 0xFF AND PUSH2 0xC9 JUMP JUMPDEST PUSH2 0x9C PUSH2 0x1FE JUMP JUMPDEST PUSH2 0x9C PUSH2 0x20F JUMP JUMPDEST PUSH0 SLOAD PUSH1 0x40 MLOAD PUSH1 0x1 PUSH1 0x1 PUSH1 0xA0 SHL SUB SWAP1 SWAP2 AND DUP2 MSTORE PUSH1 0x20 ADD PUSH2 0xD5 JUMP JUMPDEST PUSH2 0x9C PUSH2 0x21F JUMP JUMPDEST PUSH2 0x9C PUSH2 0x137 CALLDATASIZE PUSH1 0x4 PUSH2 0x47C JUMP JUMPDEST PUSH2 0x293 JUMP JUMPDEST PUSH2 0x144 PUSH2 0x2D0 JUMP JUMPDEST CALLER PUSH0 SWAP1 DUP2 MSTORE PUSH1 0x1 PUSH1 0x20 MSTORE PUSH1 0x40 SWAP1 KECCAK256 SLOAD PUSH1 0xFF AND ISZERO PUSH2 0x1A8 JUMPI PUSH1 0x40 MLOAD PUSH3 0x461BCD PUSH1 0xE5 SHL DUP2 MSTORE PUSH1 0x20 PUSH1 0x4 DUP3 ADD MSTORE PUSH1 0x17 PUSH1 0x24 DUP3 ADD MSTORE PUSH32 0x4164647265737320616C726561647920636C61696D6564000000000000000000 PUSH1 0x44 DUP3 ADD MSTORE PUSH1 0x64 ADD JUMPDEST PUSH1 0x40 MLOAD DUP1 SWAP2 SUB SWAP1 REVERT JUMPDEST CALLER PUSH0 DUP2 DUP2 MSTORE PUSH1 0x1 PUSH1 0x20 DUP2 SWAP1 MSTORE PUSH1 0x40 DUP1 DUP4 KECCAK256 DUP1 SLOAD PUSH1 0xFF NOT AND SWAP1 SWAP3 OR SWAP1 SWAP2 SSTORE MLOAD PUSH32 0x724E7FF186ADC07F81795071386876998E66855C287FC3A53B5DEC08E7B6BBD9 SWAP2 SWAP1 LOG2 JUMP JUMPDEST PUSH2 0x1F4 PUSH2 0x31C JUMP JUMPDEST PUSH2 0x1FC PUSH2 0x348 JUMP JUMPDEST JUMP JUMPDEST PUSH2 0x206 PUSH2 0x31C JUMP JUMPDEST PUSH2 0x1FC PUSH0 PUSH2 0x39C JUMP JUMPDEST PUSH2 0x217 PUSH2 0x31C JUMP JUMPDEST PUSH2 0x1FC PUSH2 0x3EB JUMP JUMPDEST PUSH2 0x227 PUSH2 0x2D0 JUMP JUMPDEST CALLER PUSH0 SWAP1 DUP2 MSTORE PUSH1 0x1 PUSH1 0x20 MSTORE PUSH1 0x40 SWAP1 KECCAK256 SLOAD PUSH1 0xFF AND PUSH2 0x27B JUMPI PUSH1 0x40 MLOAD PUSH3 0x461BCD PUSH1 0xE5 SHL DUP2 MSTORE PUSH1 0x20 PUSH1 0x4 DUP3 ADD MSTORE PUSH1 0x13 PUSH1 0x24 DUP3 ADD MSTORE PUSH19 0x1059191C995CDCC81B9BDD0818DB185A5B5959 PUSH1 0x6A SHL PUSH1 0x44 DUP3 ADD MSTORE PUSH1 0x64 ADD PUSH2 0x19F JUMP JUMPDEST CALLER PUSH0 SWAP1 DUP2 MSTORE PUSH1 0x1 PUSH1 0x20 MSTORE PUSH1 0x40 SWAP1 KECCAK256 DUP1 SLOAD PUSH1 0xFF NOT AND SWAP1 SSTORE JUMP JUMPDEST PUSH2 0x29B PUSH2 0x31C JUMP JUMPDEST PUSH1 0x1 PUSH1 0x1 PUSH1 0xA0 SHL SUB DUP2 AND PUSH2 0x2C4 JUMPI PUSH1 0x40 MLOAD PUSH4 0x1E4FBDF7 PUSH1 0xE0 SHL DUP2 MSTORE PUSH0 PUSH1 0x4 DUP3 ADD MSTORE PUSH1 0x24 ADD PUSH2 0x19F JUMP JUMPDEST PUSH2 0x2CD DUP2 PUSH2 0x39C JUMP JUMPDEST POP JUMP JUMPDEST PUSH0 SLOAD PUSH1 0x1 PUSH1 0xA0 SHL SWAP1 DIV PUSH1 0xFF AND ISZERO PUSH2 0x1FC JUMPI PUSH1 0x40 MLOAD PUSH3 0x461BCD PUSH1 0xE5 SHL DUP2 MSTORE PUSH1 0x20 PUSH1 0x4 DUP3 ADD MSTORE PUSH1 0x10 PUSH1 0x24 DUP3 ADD MSTORE PUSH16 0x14185D5CD8589B194E881C185D5CD959 PUSH1 0x82 SHL PUSH1 0x44 DUP3 ADD MSTORE PUSH1 0x64 ADD PUSH2 0x19F JUMP JUMPDEST PUSH0 SLOAD PUSH1 0x1 PUSH1 0x1 PUSH1 0xA0 SHL SUB AND CALLER EQ PUSH2 0x1FC JUMPI PUSH1 0x40 MLOAD PUSH4 0x118CDAA7 PUSH1 0xE0 SHL DUP2 MSTORE CALLER PUSH1 0x4 DUP3 ADD MSTORE PUSH1 0x24 ADD PUSH2 0x19F JUMP JUMPDEST PUSH2 0x350 PUSH2 0x42D JUMP JUMPDEST PUSH0 DUP1 SLOAD PUSH1 0xFF PUSH1 0xA0 SHL NOT AND SWAP1 SSTORE PUSH32 0x5DB9EE0A495BF2E6FF9C91A7834C1BA4FDD244A5E8AA4E537BD38AEAE4B073AA CALLER JUMPDEST PUSH1 0x40 MLOAD PUSH1 0x1 PUSH1 0x1 PUSH1 0xA0 SHL SUB SWAP1 SWAP2 AND DUP2 MSTORE PUSH1 0x20 ADD PUSH1 0x40 MLOAD DUP1 SWAP2 SUB SWAP1 LOG1 JUMP JUMPDEST PUSH0 DUP1 SLOAD PUSH1 0x1 PUSH1 0x1 PUSH1 0xA0 SHL SUB DUP4 DUP2 AND PUSH1 0x1 PUSH1 0x1 PUSH1 0xA0 SHL SUB NOT DUP4 AND DUP2 OR DUP5 SSTORE PUSH1 0x40 MLOAD SWAP2 SWAP1 SWAP3 AND SWAP3 DUP4 SWAP2 PUSH32 0x8BE0079C531659141344CD1FD0A4F28419497F9722A3DAAFE3B4186F6B6457E0 SWAP2 SWAP1 LOG3 POP POP JUMP JUMPDEST PUSH2 0x3F3 PUSH2 0x2D0 JUMP JUMPDEST PUSH0 DUP1 SLOAD PUSH1 0xFF PUSH1 0xA0 SHL NOT AND PUSH1 0x1 PUSH1 0xA0 SHL OR SWAP1 SSTORE PUSH32 0x62E78CEA01BEE320CD4E420270B5EA74000D11B0C9F74754EBDBFC544B05A258 PUSH2 0x37F CALLER SWAP1 JUMP JUMPDEST PUSH0 SLOAD PUSH1 0x1 PUSH1 0xA0 SHL SWAP1 DIV PUSH1 0xFF AND PUSH2 0x1FC JUMPI PUSH1 0x40 MLOAD PUSH3 0x461BCD PUSH1 0xE5 SHL DUP2 MSTORE PUSH1 0x20 PUSH1 0x4 DUP3 ADD MSTORE PUSH1 0x14 PUSH1 0x24 DUP3 ADD MSTORE PUSH20 0x14185D5CD8589B194E881B9BDD081C185D5CD959 PUSH1 0x62 SHL PUSH1 0x44 DUP3 ADD MSTORE PUSH1 0x64 ADD PUSH2 0x19F JUMP JUMPDEST PUSH0 PUSH1 0x20 DUP3 DUP5 SUB SLT ISZERO PUSH2 0x48C JUMPI PUSH0 DUP1 REVERT JUMPDEST DUP2 CALLDATALOAD PUSH1 0x1 PUSH1 0x1 PUSH1 0xA0 SHL SUB DUP2 AND DUP2 EQ PUSH2 0x4A2 JUMPI PUSH0 DUP1 REVERT JUMPDEST SWAP4 SWAP3 POP POP POP JUMP INVALID LOG2 PUSH5 0x6970667358 0x22 SLT KECCAK256 SWAP6 JUMPI 0xC4 SMOD PUSH29 0xB133BB13ECF6CFB0D7475A5CD7DF2AC2F8E02DC4229AFDC26137076473 PUSH16 0x6C634300081A00330000000000000000 "
		},
		"gasEstimates": {
			"creation": {
				"codeDepositCost": "249400",
				"executionCost": "50370",
				"totalCost": "299770"
			},
			"external": {
				"claimAddress()": "29946",
				"isAddressClaimed(address)": "2523",
				"owner()": "2343",
				"pause()": "infinite",
				"paused()": "2375",
				"renounceOwnership()": "infinite",
				"transferOwnership(address)": "28382",
				"unclaimAddress()": "28850",
				"unpause()": "infinite"
			}
		},
		"methodIdentifiers": {
			"claimAddress()": "05691ec8",
			"isAddressClaimed(address)": "2b76364e",
			"owner()": "8da5cb5b",
			"pause()": "8456cb59",
			"paused()": "5c975abb",
			"renounceOwnership()": "715018a6",
			"transferOwnership(address)": "f2fde38b",
			"unclaimAddress()": "c92dbf85",
			"unpause()": "3f4ba83a"
		}
	},
	"abi": [
		{
			"inputs": [],
			"stateMutability": "nonpayable",
			"type": "constructor"
		},
		{
			"inputs": [
				{
					"internalType": "address",
					"name": "owner",
					"type": "address"
				}
			],
			"name": "OwnableInvalidOwner",
			"type": "error"
		},
		{
			"inputs": [
				{
					"internalType": "address",
					"name": "account",
					"type": "address"
				}
			],
			"name": "OwnableUnauthorizedAccount",
			"type": "error"
		},
		{
			"anonymous": false,
			"inputs": [
				{
					"indexed": true,
					"internalType": "address",
					"name": "claimant",
					"type": "address"
				}
			],
			"name": "AddressClaimedEvent",
			"type": "event"
		},
		{
			"anonymous": false,
			"inputs": [
				{
					"indexed": true,
					"internalType": "address",
					"name": "previousOwner",
					"type": "address"
				},
				{
					"indexed": true,
					"internalType": "address",
					"name": "newOwner",
					"type": "address"
				}
			],
			"name": "OwnershipTransferred",
			"type": "event"
		},
		{
			"anonymous": false,
			"inputs": [
				{
					"indexed": false,
					"internalType": "address",
					"name": "account",
					"type": "address"
				}
			],
			"name": "Paused",
			"type": "event"
		},
		{
			"anonymous": false,
			"inputs": [
				{
					"indexed": false,
					"internalType": "address",
					"name": "account",
					"type": "address"
				}
			],
			"name": "Unpaused",
			"type": "event"
		},
		{
			"inputs": [],
			"name": "claimAddress",
			"outputs": [],
			"stateMutability": "nonpayable",
			"type": "function"
		},
		{
			"inputs": [
				{
					"internalType": "address",
					"name": "claimant",
					"type": "address"
				}
			],
			"name": "isAddressClaimed",
			"outputs": [
				{
					"internalType": "bool",
					"name": "",
					"type": "bool"
				}
			],
			"stateMutability": "view",
			"type": "function"
		},
		{
			"inputs": [],
			"name": "owner",
			"outputs": [
				{
					"internalType": "address",
					"name": "",
					"type": "address"
				}
			],
			"stateMutability": "view",
			"type": "function"
		},
		{
			"inputs": [],
			"name": "pause",
			"outputs": [],
			"stateMutability": "nonpayable",
			"type": "function"
		},
		{
			"inputs": [],
			"name": "paused",
			"outputs": [
				{
					"internalType": "bool",
					"name": "",
					"type": "bool"
				}
			],
			"stateMutability": "view",
			"type": "function"
		},
		{
			"inputs": [],
			"name": "renounceOwnership",
			"outputs": [],
			"stateMutability": "nonpayable",
			"type": "function"
		},
		{
			"inputs": [
				{
					"internalType": "address",
					"name": "newOwner",
					"type": "address"
				}
			],
			"name": "transferOwnership",
			"outputs": [],
			"stateMutability": "nonpayable",
			"type": "function"
		},
		{
			"inputs": [],
			"name": "unclaimAddress",
			"outputs": [],
			"stateMutability": "nonpayable",
			"type": "function"
		},
		{
			"inputs": [],
			"name": "unpause",
			"outputs": [],
			"stateMutability": "nonpayable",
			"type": "function"
		}
	]
}