{
	"data": {
		"bytecode": {
			"linkReferences": {},
			"object": "6080604052600a600c55600c600d55348015610019575f80fd5b506040516118163803806118168339810160408190526100389161033e565b336040518060400160405280600a8152602001692c22a0a6902a37b5b2b760b11b815250604051806040016040528060048152602001635845414d60e01b81525081600390816100889190610437565b5060046100958282610437565b5050506001600160a01b0381166100c657604051631e4fbdf760e01b81525f60048201526024015b60405180910390fd5b6100cf81610174565b506001600655600780546001600160a81b0319166101006001600160a01b038881169190910291909117909155600880546001600160a01b031990811687841617909155600980548216868416179055600a80548216858416179055600b8054909116918316919091179055610150336a01a784379d99db420000006101c5565b5050335f908152600e60205260409020805460ff1916600117905550610516915050565b600580546001600160a01b038381166001600160a01b0319831681179093556040519116919082907f8be0079c531659141344cd1fd0a4f28419497f9722a3daafe3b4186f6b6457e0905f90a35050565b6001600160a01b0382166101ee5760405163ec442f0560e01b81525f60048201526024016100bd565b6101f95f83836101fd565b5050565b6001600160a01b038316610227578060025f82825461021c91906104f1565b909155506102979050565b6001600160a01b0383165f90815260208190526040902054818110156102795760405163391434e360e21b81526001600160a01b038516600482015260248101829052604481018390526064016100bd565b6001600160a01b0384165f9081526020819052604090209082900390555b6001600160a01b0382166102b3576002805482900390556102d1565b6001600160a01b0382165f9081526020819052604090208054820190555b816001600160a01b0316836001600160a01b03167fddf252ad1be2c89b69c2b068fc378daa952ba7f163c4a11628f55a4df523b3ef8360405161031691815260200190565b60405180910390a3505050565b80516001600160a01b0381168114610339575f80fd5b919050565b5f805f805f60a08688031215610352575f80fd5b61035b86610323565b945061036960208701610323565b935061037760408701610323565b925061038560608701610323565b915061039360808701610323565b90509295509295909350565b634e487b7160e01b5f52604160045260245ffd5b600181811c908216806103c757607f821691505b6020821081036103e557634e487b7160e01b5f52602260045260245ffd5b50919050565b601f82111561043257805f5260205f20601f840160051c810160208510156104105750805b601f840160051c820191505b8181101561042f575f815560010161041c565b50505b505050565b81516001600160401b038111156104505761045061039f565b6104648161045e84546103b3565b846103eb565b6020601f821160018114610496575f831561047f5750848201515b5f19600385901b1c1916600184901b17845561042f565b5f84815260208120601f198516915b828110156104c557878501518255602094850194600190920191016104a5565b50848210156104e257868401515f19600387901b60f8161c191681555b50505050600190811b01905550565b8082018082111561051057634e487b7160e01b5f52601160045260245ffd5b92915050565b6112f3806105235f395ff3fe608060405234801561000f575f80fd5b50600436106101d1575f3560e01c8063753cafc3116100fe578063c12b7c4e1161009e578063dd62ed3e1161006e578063dd62ed3e146103c2578063df7787a4146103fa578063f2fde38b14610402578063f3b2db3f14610415575f80fd5b8063c12b7c4e14610380578063c816841b14610393578063cc1776d3146103a6578063cc859378146103af575f80fd5b80638da5cb5b116100d95780638da5cb5b1461034c57806395d89b411461035d578063a9059cbb14610365578063bea9ea6214610378575f80fd5b8063753cafc31461031e57806375f0a874146103315780638456cb5914610344575f80fd5b8063313ce5671161017457806352a6a9ec1161014457806352a6a9ec146102cb5780635c975abb146102e357806370a08231146102ee578063715018a614610316575f80fd5b8063313ce567146102895780633f4ba83a146102985780634f7041a5146102a05780634fbee193146102a9575f80fd5b80631006ee0c116101af5780631006ee0c1461023d57806318160ddd1461025257806323b872dd146102645780632ff2e9dc14610277575f80fd5b806306ee6ad8146101d557806306fdde0314610205578063095ea7b31461021a575b5f80fd5b600a546101e8906001600160a01b031681565b6040516001600160a01b0390911681526020015b60405180910390f35b61020d61041d565b6040516101fc9190611099565b61022d6102283660046110e9565b6104ad565b60405190151581526020016101fc565b61025061024b366004611111565b6104c6565b005b6002545b6040519081526020016101fc565b61022d610272366004611131565b610567565b6102566a01a784379d99db4200000081565b604051601281526020016101fc565b6102506105ca565b610256600c5481565b61022d6102b736600461116b565b600e6020525f908152604090205460ff1681565b6007546101e89061010090046001600160a01b031681565b60075460ff1661022d565b6102566102fc36600461116b565b6001600160a01b03165f9081526020819052604090205490565b6102506105dc565b61025061032c36600461118b565b6105ed565b6009546101e8906001600160a01b031681565b61025061061f565b6005546001600160a01b03166101e8565b61020d61062f565b61022d6103733660046110e9565b61063e565b610250610666565b61025061038e36600461116b565b610715565b600b546101e8906001600160a01b031681565b610256600d5481565b6008546101e8906001600160a01b031681565b6102566103d03660046111c4565b6001600160a01b039182165f90815260016020908152604080832093909416825291909152205490565b6102566107c1565b61025061041036600461116b565b6107e6565b610256610823565b60606003805461042c906111f5565b80601f0160208091040260200160405190810160405280929190818152602001828054610458906111f5565b80156104a35780601f1061047a576101008083540402835291602001916104a3565b820191905f5260205f20905b81548152906001019060200180831161048657829003601f168201915b5050505050905090565b5f336104ba81858561083c565b60019150505b92915050565b6104ce61084e565b600f82111580156104e0575060148111155b6105205760405162461bcd60e51b815260206004820152600c60248201526b0a8c2f040e8dede40d0d2ced60a31b60448201526064015b60405180910390fd5b600c829055600d81905560408051838152602081018390527f35d461df023e70886ad5e68610133ecb7d637c2263453f6ea50daf699cb31ed4910160405180910390a15050565b5f61057061087b565b61057b8484846108c1565b6105868484846109eb565b6001600160a01b0384165f908152600160209081526040808320338085529252909120546105c09186916105bb908690611241565b61083c565b5060019392505050565b6105d261084e565b6105da610d1a565b565b6105e461084e565b6105da5f610d6c565b6105f561084e565b6001600160a01b03919091165f908152600e60205260409020805460ff1916911515919091179055565b61062761084e565b6105da610dbd565b60606004805461042c906111f5565b5f61064761087b565b6106523384846108c1565b61065d3384846109eb565b50600192915050565b61066e61084e565b305f90815260208190526040902054806106c25760405162461bcd60e51b81526020600482015260156024820152744e6f204c502066756e647320617661696c61626c6560581b6044820152606401610517565b6106de306106d86005546001600160a01b031690565b83610dfa565b6040518181527fbba45ff8bcb537fdedce576e22fc876a23312f65b5166c004136ece621f3ea93906020015b60405180910390a150565b61071d61084e565b6001600160a01b0381166107735760405162461bcd60e51b815260206004820152601f60248201527f4e6577207061697220616464726573732063616e6e6f74206265207a65726f006044820152606401610517565b600b80546001600160a01b0319166001600160a01b0383169081179091556040519081527fdd2689cb5e1ca91bab290e22ada24c52705073cf17bacb82133714fa842713449060200161070a565b60646107d96a01a784379d99db420000006001611254565b6107e3919061126b565b81565b6107ee61084e565b6001600160a01b03811661081757604051631e4fbdf760e01b81525f6004820152602401610517565b61082081610d6c565b50565b6127106107d96a01a784379d99db420000006005611254565b6108498383836001610e57565b505050565b6005546001600160a01b031633146105da5760405163118cdaa760e01b8152336004820152602401610517565b60075460ff16156105da5760405162461bcd60e51b815260206004820152601060248201526f14185d5cd8589b194e881c185d5cd95960821b6044820152606401610517565b6001600160a01b0383165f908152600e602052604090205460ff166108495760646108f86a01a784379d99db420000006001611254565b610902919061126b565b81610921846001600160a01b03165f9081526020819052604090205490565b61092b919061128a565b11156109795760405162461bcd60e51b815260206004820152601860248201527f45786365656473206d61782077616c6c6574206c696d697400000000000000006044820152606401610517565b6127106109926a01a784379d99db420000006005611254565b61099c919061126b565b8111156108495760405162461bcd60e51b815260206004820152601d60248201527f45786365656473206d6178207472616e73616374696f6e206c696d69740000006044820152606401610517565b600b545f906001600160a01b03848116911614610a21576064600c5483610a129190611254565b610a1c919061126b565b610a3b565b6064600d5483610a319190611254565b610a3b919061126b565b905080821015610a8d5760405162461bcd60e51b815260206004820152601b60248201527f5461782065786365656473207472616e7366657220616d6f756e7400000000006044820152606401610517565b5f610a988284611241565b90505f600c610aa8846004611254565b610ab2919061126b565b90505f600c610ac2856004611254565b610acc919061126b565b90505f600c610adc866001611254565b610ae6919061126b565b90505f600c610af6876002611254565b610b00919061126b565b90505f600c610b10886001611254565b610b1a919061126b565b9050610b3c8a600760019054906101000a90046001600160a01b031686610dfa565b5f8051602061129e83398151915284604051610b8491815260406020820181905260129082015271115b98dbdd5c9859d95b595b9d08119d5b9960721b606082015260800190565b60405180910390a1600854610ba4908b906001600160a01b031685610dfa565b5f8051602061129e83398151915283604051610be8918152604060208201819052600e908201526d115b595c99d95b98de48119d5b9960921b606082015260800190565b60405180910390a1600954610c08908b906001600160a01b031684610dfa565b5f8051602061129e83398151915282604051610c47918152604060208201819052600990820152684d61726b6574696e6760b81b606082015260800190565b60405180910390a1600a54610c67908b906001600160a01b031683610dfa565b5f8051602061129e83398151915281604051610ca4918152604060208201819052600790820152665374616b696e6760c81b606082015260800190565b60405180910390a1610cb78a3087610dfa565b5f8051602061129e83398151915285604051610cfb918152604060208201819052600e908201526d131a5c5d5a591a5d1e48141bdbdb60921b606082015260800190565b60405180910390a1610d0e8a8a88610dfa565b50505050505050505050565b610d22610f2a565b6007805460ff191690557f5db9ee0a495bf2e6ff9c91a7834c1ba4fdd244a5e8aa4e537bd38aeae4b073aa335b6040516001600160a01b03909116815260200160405180910390a1565b600580546001600160a01b038381166001600160a01b0319831681179093556040519116919082907f8be0079c531659141344cd1fd0a4f28419497f9722a3daafe3b4186f6b6457e0905f90a35050565b610dc561087b565b6007805460ff191660011790557f62e78cea01bee320cd4e420270b5ea74000d11b0c9f74754ebdbfc544b05a258610d4f3390565b6001600160a01b038316610e2357604051634b637e8f60e11b81525f6004820152602401610517565b6001600160a01b038216610e4c5760405163ec442f0560e01b81525f6004820152602401610517565b610849838383610f73565b6001600160a01b038416610e805760405163e602df0560e01b81525f6004820152602401610517565b6001600160a01b038316610ea957604051634a1406b160e11b81525f6004820152602401610517565b6001600160a01b038085165f9081526001602090815260408083209387168352929052208290558015610f2457826001600160a01b0316846001600160a01b03167f8c5be1e5ebec7d5bd14f71427d1e84f3dd0314c0f7b2291e5b200ac8c7c3b92584604051610f1b91815260200190565b60405180910390a35b50505050565b60075460ff166105da5760405162461bcd60e51b815260206004820152601460248201527314185d5cd8589b194e881b9bdd081c185d5cd95960621b6044820152606401610517565b6001600160a01b038316610f9d578060025f828254610f92919061128a565b9091555061100d9050565b6001600160a01b0383165f9081526020819052604090205481811015610fef5760405163391434e360e21b81526001600160a01b03851660048201526024810182905260448101839052606401610517565b6001600160a01b0384165f9081526020819052604090209082900390555b6001600160a01b03821661102957600280548290039055611047565b6001600160a01b0382165f9081526020819052604090208054820190555b816001600160a01b0316836001600160a01b03167fddf252ad1be2c89b69c2b068fc378daa952ba7f163c4a11628f55a4df523b3ef8360405161108c91815260200190565b60405180910390a3505050565b602081525f82518060208401528060208501604085015e5f604082850101526040601f19601f83011684010191505092915050565b80356001600160a01b03811681146110e4575f80fd5b919050565b5f80604083850312156110fa575f80fd5b611103836110ce565b946020939093013593505050565b5f8060408385031215611122575f80fd5b50508035926020909101359150565b5f805f60608486031215611143575f80fd5b61114c846110ce565b925061115a602085016110ce565b929592945050506040919091013590565b5f6020828403121561117b575f80fd5b611184826110ce565b9392505050565b5f806040838503121561119c575f80fd5b6111a5836110ce565b9150602083013580151581146111b9575f80fd5b809150509250929050565b5f80604083850312156111d5575f80fd5b6111de836110ce565b91506111ec602084016110ce565b90509250929050565b600181811c9082168061120957607f821691505b60208210810361122757634e487b7160e01b5f52602260045260245ffd5b50919050565b634e487b7160e01b5f52601160045260245ffd5b818103818111156104c0576104c061122d565b80820281158282048414176104c0576104c061122d565b5f8261128557634e487b7160e01b5f52601260045260245ffd5b500490565b808201808211156104c0576104c061122d56fe6e232b0acf46272dacf889af6767574775a324b133d42b3b8cffa9cd13159984a26469706673582212205d7f440aafe1ba8988fe8525874d7a3e000e88547da5f40029ddc05e024349cb64736f6c634300081a0033",
			"opcodes": "PUSH1 0x80 PUSH1 0x40 MSTORE PUSH1 0xA PUSH1 0xC SSTORE PUSH1 0xC PUSH1 0xD SSTORE CALLVALUE DUP1 ISZERO PUSH2 0x19 JUMPI PUSH0 DUP1 REVERT JUMPDEST POP PUSH1 0x40 MLOAD PUSH2 0x1816 CODESIZE SUB DUP1 PUSH2 0x1816 DUP4 CODECOPY DUP2 ADD PUSH1 0x40 DUP2 SWAP1 MSTORE PUSH2 0x38 SWAP2 PUSH2 0x33E JUMP JUMPDEST CALLER PUSH1 0x40 MLOAD DUP1 PUSH1 0x40 ADD PUSH1 0x40 MSTORE DUP1 PUSH1 0xA DUP2 MSTORE PUSH1 0x20 ADD PUSH10 0x2C22A0A6902A37B5B2B7 PUSH1 0xB1 SHL DUP2 MSTORE POP PUSH1 0x40 MLOAD DUP1 PUSH1 0x40 ADD PUSH1 0x40 MSTORE DUP1 PUSH1 0x4 DUP2 MSTORE PUSH1 0x20 ADD PUSH4 0x5845414D PUSH1 0xE0 SHL DUP2 MSTORE POP DUP2 PUSH1 0x3 SWAP1 DUP2 PUSH2 0x88 SWAP2 SWAP1 PUSH2 0x437 JUMP JUMPDEST POP PUSH1 0x4 PUSH2 0x95 DUP3 DUP3 PUSH2 0x437 JUMP JUMPDEST POP POP POP PUSH1 0x1 PUSH1 0x1 PUSH1 0xA0 SHL SUB DUP2 AND PUSH2 0xC6 JUMPI PUSH1 0x40 MLOAD PUSH4 0x1E4FBDF7 PUSH1 0xE0 SHL DUP2 MSTORE PUSH0 PUSH1 0x4 DUP3 ADD MSTORE PUSH1 0x24 ADD JUMPDEST PUSH1 0x40 MLOAD DUP1 SWAP2 SUB SWAP1 REVERT JUMPDEST PUSH2 0xCF DUP2 PUSH2 0x174 JUMP JUMPDEST POP PUSH1 0x1 PUSH1 0x6 SSTORE PUSH1 0x7 DUP1 SLOAD PUSH1 0x1 PUSH1 0x1 PUSH1 0xA8 SHL SUB NOT AND PUSH2 0x100 PUSH1 0x1 PUSH1 0x1 PUSH1 0xA0 SHL SUB DUP9 DUP2 AND SWAP2 SWAP1 SWAP2 MUL SWAP2 SWAP1 SWAP2 OR SWAP1 SWAP2 SSTORE PUSH1 0x8 DUP1 SLOAD PUSH1 0x1 PUSH1 0x1 PUSH1 0xA0 SHL SUB NOT SWAP1 DUP2 AND DUP8 DUP5 AND OR SWAP1 SWAP2 SSTORE PUSH1 0x9 DUP1 SLOAD DUP3 AND DUP7 DUP5 AND OR SWAP1 SSTORE PUSH1 0xA DUP1 SLOAD DUP3 AND DUP6 DUP5 AND OR SWAP1 SSTORE PUSH1 0xB DUP1 SLOAD SWAP1 SWAP2 AND SWAP2 DUP4 AND SWAP2 SWAP1 SWAP2 OR SWAP1 SSTORE PUSH2 0x150 CALLER PUSH11 0x1A784379D99DB42000000 PUSH2 0x1C5 JUMP JUMPDEST POP POP CALLER PUSH0 SWAP1 DUP2 MSTORE PUSH1 0xE PUSH1 0x20 MSTORE PUSH1 0x40 SWAP1 KECCAK256 DUP1 SLOAD PUSH1 0xFF NOT AND PUSH1 0x1 OR SWAP1 SSTORE POP PUSH2 0x516 SWAP2 POP POP JUMP JUMPDEST PUSH1 0x5 DUP1 SLOAD PUSH1 0x1 PUSH1 0x1 PUSH1 0xA0 SHL SUB DUP4 DUP2 AND PUSH1 0x1 PUSH1 0x1 PUSH1 0xA0 SHL SUB NOT DUP4 AND DUP2 OR SWAP1 SWAP4 SSTORE PUSH1 0x40 MLOAD SWAP2 AND SWAP2 SWAP1 DUP3 SWAP1 PUSH32 0x8BE0079C531659141344CD1FD0A4F28419497F9722A3DAAFE3B4186F6B6457E0 SWAP1 PUSH0 SWAP1 LOG3 POP POP JUMP JUMPDEST PUSH1 0x1 PUSH1 0x1 PUSH1 0xA0 SHL SUB DUP3 AND PUSH2 0x1EE JUMPI PUSH1 0x40 MLOAD PUSH4 0xEC442F05 PUSH1 0xE0 SHL DUP2 MSTORE PUSH0 PUSH1 0x4 DUP3 ADD MSTORE PUSH1 0x24 ADD PUSH2 0xBD JUMP JUMPDEST PUSH2 0x1F9 PUSH0 DUP4 DUP4 PUSH2 0x1FD JUMP JUMPDEST POP POP JUMP JUMPDEST PUSH1 0x1 PUSH1 0x1 PUSH1 0xA0 SHL SUB DUP4 AND PUSH2 0x227 JUMPI DUP1 PUSH1 0x2 PUSH0 DUP3 DUP3 SLOAD PUSH2 0x21C SWAP2 SWAP1 PUSH2 0x4F1 JUMP JUMPDEST SWAP1 SWAP2 SSTORE POP PUSH2 0x297 SWAP1 POP JUMP JUMPDEST PUSH1 0x1 PUSH1 0x1 PUSH1 0xA0 SHL SUB DUP4 AND PUSH0 SWAP1 DUP2 MSTORE PUSH1 0x20 DUP2 SWAP1 MSTORE PUSH1 0x40 SWAP1 KECCAK256 SLOAD DUP2 DUP2 LT ISZERO PUSH2 0x279 JUMPI PUSH1 0x40 MLOAD PUSH4 0x391434E3 PUSH1 0xE2 SHL DUP2 MSTORE PUSH1 0x1 PUSH1 0x1 PUSH1 0xA0 SHL SUB DUP6 AND PUSH1 0x4 DUP3 ADD MSTORE PUSH1 0x24 DUP2 ADD DUP3 SWAP1 MSTORE PUSH1 0x44 DUP2 ADD DUP4 SWAP1 MSTORE PUSH1 0x64 ADD PUSH2 0xBD JUMP JUMPDEST PUSH1 0x1 PUSH1 0x1 PUSH1 0xA0 SHL SUB DUP5 AND PUSH0 SWAP1 DUP2 MSTORE PUSH1 0x20 DUP2 SWAP1 MSTORE PUSH1 0x40 SWAP1 KECCAK256 SWAP1 DUP3 SWAP1 SUB SWAP1 SSTORE JUMPDEST PUSH1 0x1 PUSH1 0x1 PUSH1 0xA0 SHL SUB DUP3 AND PUSH2 0x2B3 JUMPI PUSH1 0x2 DUP1 SLOAD DUP3 SWAP1 SUB SWAP1 SSTORE PUSH2 0x2D1 JUMP JUMPDEST PUSH1 0x1 PUSH1 0x1 PUSH1 0xA0 SHL SUB DUP3 AND PUSH0 SWAP1 DUP2 MSTORE PUSH1 0x20 DUP2 SWAP1 MSTORE PUSH1 0x40 SWAP1 KECCAK256 DUP1 SLOAD DUP3 ADD SWAP1 SSTORE JUMPDEST DUP2 PUSH1 0x1 PUSH1 0x1 PUSH1 0xA0 SHL SUB AND DUP4 PUSH1 0x1 PUSH1 0x1 PUSH1 0xA0 SHL SUB AND PUSH32 0xDDF252AD1BE2C89B69C2B068FC378DAA952BA7F163C4A11628F55A4DF523B3EF DUP4 PUSH1 0x40 MLOAD PUSH2 0x316 SWAP2 DUP2 MSTORE PUSH1 0x20 ADD SWAP1 JUMP JUMPDEST PUSH1 0x40 MLOAD DUP1 SWAP2 SUB SWAP1 LOG3 POP POP POP JUMP JUMPDEST DUP1 MLOAD PUSH1 0x1 PUSH1 0x1 PUSH1 0xA0 SHL SUB DUP2 AND DUP2 EQ PUSH2 0x339 JUMPI PUSH0 DUP1 REVERT JUMPDEST SWAP2 SWAP1 POP JUMP JUMPDEST PUSH0 DUP1 PUSH0 DUP1 PUSH0 PUSH1 0xA0 DUP7 DUP9 SUB SLT ISZERO PUSH2 0x352 JUMPI PUSH0 DUP1 REVERT JUMPDEST PUSH2 0x35B DUP7 PUSH2 0x323 JUMP JUMPDEST SWAP5 POP PUSH2 0x369 PUSH1 0x20 DUP8 ADD PUSH2 0x323 JUMP JUMPDEST SWAP4 POP PUSH2 0x377 PUSH1 0x40 DUP8 ADD PUSH2 0x323 JUMP JUMPDEST SWAP3 POP PUSH2 0x385 PUSH1 0x60 DUP8 ADD PUSH2 0x323 JUMP JUMPDEST SWAP2 POP PUSH2 0x393 PUSH1 0x80 DUP8 ADD PUSH2 0x323 JUMP JUMPDEST SWAP1 POP SWAP3 SWAP6 POP SWAP3 SWAP6 SWAP1 SWAP4 POP JUMP JUMPDEST PUSH4 0x4E487B71 PUSH1 0xE0 SHL PUSH0 MSTORE PUSH1 0x41 PUSH1 0x4 MSTORE PUSH1 0x24 PUSH0 REVERT JUMPDEST PUSH1 0x1 DUP2 DUP2 SHR SWAP1 DUP3 AND DUP1 PUSH2 0x3C7 JUMPI PUSH1 0x7F DUP3 AND SWAP2 POP JUMPDEST PUSH1 0x20 DUP3 LT DUP2 SUB PUSH2 0x3E5 JUMPI PUSH4 0x4E487B71 PUSH1 0xE0 SHL PUSH0 MSTORE PUSH1 0x22 PUSH1 0x4 MSTORE PUSH1 0x24 PUSH0 REVERT JUMPDEST POP SWAP2 SWAP1 POP JUMP JUMPDEST PUSH1 0x1F DUP3 GT ISZERO PUSH2 0x432 JUMPI DUP1 PUSH0 MSTORE PUSH1 0x20 PUSH0 KECCAK256 PUSH1 0x1F DUP5 ADD PUSH1 0x5 SHR DUP2 ADD PUSH1 0x20 DUP6 LT ISZERO PUSH2 0x410 JUMPI POP DUP1 JUMPDEST PUSH1 0x1F DUP5 ADD PUSH1 0x5 SHR DUP3 ADD SWAP2 POP JUMPDEST DUP2 DUP2 LT ISZERO PUSH2 0x42F JUMPI PUSH0 DUP2 SSTORE PUSH1 0x1 ADD PUSH2 0x41C JUMP JUMPDEST POP POP JUMPDEST POP POP POP JUMP JUMPDEST DUP2 MLOAD PUSH1 0x1 PUSH1 0x1 PUSH1 0x40 SHL SUB DUP2 GT ISZERO PUSH2 0x450 JUMPI PUSH2 0x450 PUSH2 0x39F JUMP JUMPDEST PUSH2 0x464 DUP2 PUSH2 0x45E DUP5 SLOAD PUSH2 0x3B3 JUMP JUMPDEST DUP5 PUSH2 0x3EB JUMP JUMPDEST PUSH1 0x20 PUSH1 0x1F DUP3 GT PUSH1 0x1 DUP2 EQ PUSH2 0x496 JUMPI PUSH0 DUP4 ISZERO PUSH2 0x47F JUMPI POP DUP5 DUP3 ADD MLOAD JUMPDEST PUSH0 NOT PUSH1 0x3 DUP6 SWAP1 SHL SHR NOT AND PUSH1 0x1 DUP5 SWAP1 SHL OR DUP5 SSTORE PUSH2 0x42F JUMP JUMPDEST PUSH0 DUP5 DUP2 MSTORE PUSH1 0x20 DUP2 KECCAK256 PUSH1 0x1F NOT DUP6 AND SWAP2 JUMPDEST DUP3 DUP2 LT ISZERO PUSH2 0x4C5 JUMPI DUP8 DUP6 ADD MLOAD DUP3 SSTORE PUSH1 0x20 SWAP5 DUP6 ADD SWAP5 PUSH1 0x1 SWAP1 SWAP3 ADD SWAP2 ADD PUSH2 0x4A5 JUMP JUMPDEST POP DUP5 DUP3 LT ISZERO PUSH2 0x4E2 JUMPI DUP7 DUP5 ADD MLOAD PUSH0 NOT PUSH1 0x3 DUP8 SWAP1 SHL PUSH1 0xF8 AND SHR NOT AND DUP2 SSTORE JUMPDEST POP POP POP POP PUSH1 0x1 SWAP1 DUP2 SHL ADD SWAP1 SSTORE POP JUMP JUMPDEST DUP1 DUP3 ADD DUP1 DUP3 GT ISZERO PUSH2 0x510 JUMPI PUSH4 0x4E487B71 PUSH1 0xE0 SHL PUSH0 MSTORE PUSH1 0x11 PUSH1 0x4 MSTORE PUSH1 0x24 PUSH0 REVERT JUMPDEST SWAP3 SWAP2 POP POP JUMP JUMPDEST PUSH2 0x12F3 DUP1 PUSH2 0x523 PUSH0 CODECOPY PUSH0 RETURN INVALID PUSH1 0x80 PUSH1 0x40 MSTORE CALLVALUE DUP1 ISZERO PUSH2 0xF JUMPI PUSH0 DUP1 REVERT JUMPDEST POP PUSH1 0x4 CALLDATASIZE LT PUSH2 0x1D1 JUMPI PUSH0 CALLDATALOAD PUSH1 0xE0 SHR DUP1 PUSH4 0x753CAFC3 GT PUSH2 0xFE JUMPI DUP1 PUSH4 0xC12B7C4E GT PUSH2 0x9E JUMPI DUP1 PUSH4 0xDD62ED3E GT PUSH2 0x6E JUMPI DUP1 PUSH4 0xDD62ED3E EQ PUSH2 0x3C2 JUMPI DUP1 PUSH4 0xDF7787A4 EQ PUSH2 0x3FA JUMPI DUP1 PUSH4 0xF2FDE38B EQ PUSH2 0x402 JUMPI DUP1 PUSH4 0xF3B2DB3F EQ PUSH2 0x415 JUMPI PUSH0 DUP1 REVERT JUMPDEST DUP1 PUSH4 0xC12B7C4E EQ PUSH2 0x380 JUMPI DUP1 PUSH4 0xC816841B EQ PUSH2 0x393 JUMPI DUP1 PUSH4 0xCC1776D3 EQ PUSH2 0x3A6 JUMPI DUP1 PUSH4 0xCC859378 EQ PUSH2 0x3AF JUMPI PUSH0 DUP1 REVERT JUMPDEST DUP1 PUSH4 0x8DA5CB5B GT PUSH2 0xD9 JUMPI DUP1 PUSH4 0x8DA5CB5B EQ PUSH2 0x34C JUMPI DUP1 PUSH4 0x95D89B41 EQ PUSH2 0x35D JUMPI DUP1 PUSH4 0xA9059CBB EQ PUSH2 0x365 JUMPI DUP1 PUSH4 0xBEA9EA62 EQ PUSH2 0x378 JUMPI PUSH0 DUP1 REVERT JUMPDEST DUP1 PUSH4 0x753CAFC3 EQ PUSH2 0x31E JUMPI DUP1 PUSH4 0x75F0A874 EQ PUSH2 0x331 JUMPI DUP1 PUSH4 0x8456CB59 EQ PUSH2 0x344 JUMPI PUSH0 DUP1 REVERT JUMPDEST DUP1 PUSH4 0x313CE567 GT PUSH2 0x174 JUMPI DUP1 PUSH4 0x52A6A9EC GT PUSH2 0x144 JUMPI DUP1 PUSH4 0x52A6A9EC EQ PUSH2 0x2CB JUMPI DUP1 PUSH4 0x5C975ABB EQ PUSH2 0x2E3 JUMPI DUP1 PUSH4 0x70A08231 EQ PUSH2 0x2EE JUMPI DUP1 PUSH4 0x715018A6 EQ PUSH2 0x316 JUMPI PUSH0 DUP1 REVERT JUMPDEST DUP1 PUSH4 0x313CE567 EQ PUSH2 0x289 JUMPI DUP1 PUSH4 0x3F4BA83A EQ PUSH2 0x298 JUMPI DUP1 PUSH4 0x4F7041A5 EQ PUSH2 0x2A0 JUMPI DUP1 PUSH4 0x4FBEE193 EQ PUSH2 0x2A9 JUMPI PUSH0 DUP1 REVERT JUMPDEST DUP1 PUSH4 0x1006EE0C GT PUSH2 0x1AF JUMPI DUP1 PUSH4 0x1006EE0C EQ PUSH2 0x23D JUMPI DUP1 PUSH4 0x18160DDD EQ PUSH2 0x252 JUMPI DUP1 PUSH4 0x23B872DD EQ PUSH2 0x264 JUMPI DUP1 PUSH4 0x2FF2E9DC EQ PUSH2 0x277 JUMPI PUSH0 DUP1 REVERT JUMPDEST DUP1 PUSH4 0x6EE6AD8 EQ PUSH2 0x1D5 JUMPI DUP1 PUSH4 0x6FDDE03 EQ PUSH2 0x205 JUMPI DUP1 PUSH4 0x95EA7B3 EQ PUSH2 0x21A JUMPI JUMPDEST PUSH0 DUP1 REVERT JUMPDEST PUSH1 0xA SLOAD PUSH2 0x1E8 SWAP1 PUSH1 0x1 PUSH1 0x1 PUSH1 0xA0 SHL SUB AND DUP2 JUMP JUMPDEST PUSH1 0x40 MLOAD PUSH1 0x1 PUSH1 0x1 PUSH1 0xA0 SHL SUB SWAP1 SWAP2 AND DUP2 MSTORE PUSH1 0x20 ADD JUMPDEST PUSH1 0x40 MLOAD DUP1 SWAP2 SUB SWAP1 RETURN JUMPDEST PUSH2 0x20D PUSH2 0x41D JUMP JUMPDEST PUSH1 0x40 MLOAD PUSH2 0x1FC SWAP2 SWAP1 PUSH2 0x1099 JUMP JUMPDEST PUSH2 0x22D PUSH2 0x228 CALLDATASIZE PUSH1 0x4 PUSH2 0x10E9 JUMP JUMPDEST PUSH2 0x4AD JUMP JUMPDEST PUSH1 0x40 MLOAD SWAP1 ISZERO ISZERO DUP2 MSTORE PUSH1 0x20 ADD PUSH2 0x1FC JUMP JUMPDEST PUSH2 0x250 PUSH2 0x24B CALLDATASIZE PUSH1 0x4 PUSH2 0x1111 JUMP JUMPDEST PUSH2 0x4C6 JUMP JUMPDEST STOP JUMPDEST PUSH1 0x2 SLOAD JUMPDEST PUSH1 0x40 MLOAD SWAP1 DUP2 MSTORE PUSH1 0x20 ADD PUSH2 0x1FC JUMP JUMPDEST PUSH2 0x22D PUSH2 0x272 CALLDATASIZE PUSH1 0x4 PUSH2 0x1131 JUMP JUMPDEST PUSH2 0x567 JUMP JUMPDEST PUSH2 0x256 PUSH11 0x1A784379D99DB42000000 DUP2 JUMP JUMPDEST PUSH1 0x40 MLOAD PUSH1 0x12 DUP2 MSTORE PUSH1 0x20 ADD PUSH2 0x1FC JUMP JUMPDEST PUSH2 0x250 PUSH2 0x5CA JUMP JUMPDEST PUSH2 0x256 PUSH1 0xC SLOAD DUP2 JUMP JUMPDEST PUSH2 0x22D PUSH2 0x2B7 CALLDATASIZE PUSH1 0x4 PUSH2 0x116B JUMP JUMPDEST PUSH1 0xE PUSH1 0x20 MSTORE PUSH0 SWAP1 DUP2 MSTORE PUSH1 0x40 SWAP1 KECCAK256 SLOAD PUSH1 0xFF AND DUP2 JUMP JUMPDEST PUSH1 0x7 SLOAD PUSH2 0x1E8 SWAP1 PUSH2 0x100 SWAP1 DIV PUSH1 0x1 PUSH1 0x1 PUSH1 0xA0 SHL SUB AND DUP2 JUMP JUMPDEST PUSH1 0x7 SLOAD PUSH1 0xFF AND PUSH2 0x22D JUMP JUMPDEST PUSH2 0x256 PUSH2 0x2FC CALLDATASIZE PUSH1 0x4 PUSH2 0x116B JUMP JUMPDEST PUSH1 0x1 PUSH1 0x1 PUSH1 0xA0 SHL SUB AND PUSH0 SWAP1 DUP2 MSTORE PUSH1 0x20 DUP2 SWAP1 MSTORE PUSH1 0x40 SWAP1 KECCAK256 SLOAD SWAP1 JUMP JUMPDEST PUSH2 0x250 PUSH2 0x5DC JUMP JUMPDEST PUSH2 0x250 PUSH2 0x32C CALLDATASIZE PUSH1 0x4 PUSH2 0x118B JUMP JUMPDEST PUSH2 0x5ED JUMP JUMPDEST PUSH1 0x9 SLOAD PUSH2 0x1E8 SWAP1 PUSH1 0x1 PUSH1 0x1 PUSH1 0xA0 SHL SUB AND DUP2 JUMP JUMPDEST PUSH2 0x250 PUSH2 0x61F JUMP JUMPDEST PUSH1 0x5 SLOAD PUSH1 0x1 PUSH1 0x1 PUSH1 0xA0 SHL SUB AND PUSH2 0x1E8 JUMP JUMPDEST PUSH2 0x20D PUSH2 0x62F JUMP JUMPDEST PUSH2 0x22D PUSH2 0x373 CALLDATASIZE PUSH1 0x4 PUSH2 0x10E9 JUMP JUMPDEST PUSH2 0x63E JUMP JUMPDEST PUSH2 0x250 PUSH2 0x666 JUMP JUMPDEST PUSH2 0x250 PUSH2 0x38E CALLDATASIZE PUSH1 0x4 PUSH2 0x116B JUMP JUMPDEST PUSH2 0x715 JUMP JUMPDEST PUSH1 0xB SLOAD PUSH2 0x1E8 SWAP1 PUSH1 0x1 PUSH1 0x1 PUSH1 0xA0 SHL SUB AND DUP2 JUMP JUMPDEST PUSH2 0x256 PUSH1 0xD SLOAD DUP2 JUMP JUMPDEST PUSH1 0x8 SLOAD PUSH2 0x1E8 SWAP1 PUSH1 0x1 PUSH1 0x1 PUSH1 0xA0 SHL SUB AND DUP2 JUMP JUMPDEST PUSH2 0x256 PUSH2 0x3D0 CALLDATASIZE PUSH1 0x4 PUSH2 0x11C4 JUMP JUMPDEST PUSH1 0x1 PUSH1 0x1 PUSH1 0xA0 SHL SUB SWAP2 DUP3 AND PUSH0 SWAP1 DUP2 MSTORE PUSH1 0x1 PUSH1 0x20 SWAP1 DUP2 MSTORE PUSH1 0x40 DUP1 DUP4 KECCAK256 SWAP4 SWAP1 SWAP5 AND DUP3 MSTORE SWAP2 SWAP1 SWAP2 MSTORE KECCAK256 SLOAD SWAP1 JUMP JUMPDEST PUSH2 0x256 PUSH2 0x7C1 JUMP JUMPDEST PUSH2 0x250 PUSH2 0x410 CALLDATASIZE PUSH1 0x4 PUSH2 0x116B JUMP JUMPDEST PUSH2 0x7E6 JUMP JUMPDEST PUSH2 0x256 PUSH2 0x823 JUMP JUMPDEST PUSH1 0x60 PUSH1 0x3 DUP1 SLOAD PUSH2 0x42C SWAP1 PUSH2 0x11F5 JUMP JUMPDEST DUP1 PUSH1 0x1F ADD PUSH1 0x20 DUP1 SWAP2 DIV MUL PUSH1 0x20 ADD PUSH1 0x40 MLOAD SWAP1 DUP2 ADD PUSH1 0x40 MSTORE DUP1 SWAP3 SWAP2 SWAP1 DUP2 DUP2 MSTORE PUSH1 0x20 ADD DUP3 DUP1 SLOAD PUSH2 0x458 SWAP1 PUSH2 0x11F5 JUMP JUMPDEST DUP1 ISZERO PUSH2 0x4A3 JUMPI DUP1 PUSH1 0x1F LT PUSH2 0x47A JUMPI PUSH2 0x100 DUP1 DUP4 SLOAD DIV MUL DUP4 MSTORE SWAP2 PUSH1 0x20 ADD SWAP2 PUSH2 0x4A3 JUMP JUMPDEST DUP3 ADD SWAP2 SWAP1 PUSH0 MSTORE PUSH1 0x20 PUSH0 KECCAK256 SWAP1 JUMPDEST DUP2 SLOAD DUP2 MSTORE SWAP1 PUSH1 0x1 ADD SWAP1 PUSH1 0x20 ADD DUP1 DUP4 GT PUSH2 0x486 JUMPI DUP3 SWAP1 SUB PUSH1 0x1F AND DUP3 ADD SWAP2 JUMPDEST POP POP POP POP POP SWAP1 POP SWAP1 JUMP JUMPDEST PUSH0 CALLER PUSH2 0x4BA DUP2 DUP6 DUP6 PUSH2 0x83C JUMP JUMPDEST PUSH1 0x1 SWAP2 POP POP JUMPDEST SWAP3 SWAP2 POP POP JUMP JUMPDEST PUSH2 0x4CE PUSH2 0x84E JUMP JUMPDEST PUSH1 0xF DUP3 GT ISZERO DUP1 ISZERO PUSH2 0x4E0 JUMPI POP PUSH1 0x14 DUP2 GT ISZERO JUMPDEST PUSH2 0x520 JUMPI PUSH1 0x40 MLOAD PUSH3 0x461BCD PUSH1 0xE5 SHL DUP2 MSTORE PUSH1 0x20 PUSH1 0x4 DUP3 ADD MSTORE PUSH1 0xC PUSH1 0x24 DUP3 ADD MSTORE PUSH12 0xA8C2F040E8DEDE40D0D2CED PUSH1 0xA3 SHL PUSH1 0x44 DUP3 ADD MSTORE PUSH1 0x64 ADD JUMPDEST PUSH1 0x40 MLOAD DUP1 SWAP2 SUB SWAP1 REVERT JUMPDEST PUSH1 0xC DUP3 SWAP1 SSTORE PUSH1 0xD DUP2 SWAP1 SSTORE PUSH1 0x40 DUP1 MLOAD DUP4 DUP2 MSTORE PUSH1 0x20 DUP2 ADD DUP4 SWAP1 MSTORE PUSH32 0x35D461DF023E70886AD5E68610133ECB7D637C2263453F6EA50DAF699CB31ED4 SWAP2 ADD PUSH1 0x40 MLOAD DUP1 SWAP2 SUB SWAP1 LOG1 POP POP JUMP JUMPDEST PUSH0 PUSH2 0x570 PUSH2 0x87B JUMP JUMPDEST PUSH2 0x57B DUP5 DUP5 DUP5 PUSH2 0x8C1 JUMP JUMPDEST PUSH2 0x586 DUP5 DUP5 DUP5 PUSH2 0x9EB JUMP JUMPDEST PUSH1 0x1 PUSH1 0x1 PUSH1 0xA0 SHL SUB DUP5 AND PUSH0 SWAP1 DUP2 MSTORE PUSH1 0x1 PUSH1 0x20 SWAP1 DUP2 MSTORE PUSH1 0x40 DUP1 DUP4 KECCAK256 CALLER DUP1 DUP6 MSTORE SWAP3 MSTORE SWAP1 SWAP2 KECCAK256 SLOAD PUSH2 0x5C0 SWAP2 DUP7 SWAP2 PUSH2 0x5BB SWAP1 DUP7 SWAP1 PUSH2 0x1241 JUMP JUMPDEST PUSH2 0x83C JUMP JUMPDEST POP PUSH1 0x1 SWAP4 SWAP3 POP POP POP JUMP JUMPDEST PUSH2 0x5D2 PUSH2 0x84E JUMP JUMPDEST PUSH2 0x5DA PUSH2 0xD1A JUMP JUMPDEST JUMP JUMPDEST PUSH2 0x5E4 PUSH2 0x84E JUMP JUMPDEST PUSH2 0x5DA PUSH0 PUSH2 0xD6C JUMP JUMPDEST PUSH2 0x5F5 PUSH2 0x84E JUMP JUMPDEST PUSH1 0x1 PUSH1 0x1 PUSH1 0xA0 SHL SUB SWAP2 SWAP1 SWAP2 AND PUSH0 SWAP1 DUP2 MSTORE PUSH1 0xE PUSH1 0x20 MSTORE PUSH1 0x40 SWAP1 KECCAK256 DUP1 SLOAD PUSH1 0xFF NOT AND SWAP2 ISZERO ISZERO SWAP2 SWAP1 SWAP2 OR SWAP1 SSTORE JUMP JUMPDEST PUSH2 0x627 PUSH2 0x84E JUMP JUMPDEST PUSH2 0x5DA PUSH2 0xDBD JUMP JUMPDEST PUSH1 0x60 PUSH1 0x4 DUP1 SLOAD PUSH2 0x42C SWAP1 PUSH2 0x11F5 JUMP JUMPDEST PUSH0 PUSH2 0x647 PUSH2 0x87B JUMP JUMPDEST PUSH2 0x652 CALLER DUP5 DUP5 PUSH2 0x8C1 JUMP JUMPDEST PUSH2 0x65D CALLER DUP5 DUP5 PUSH2 0x9EB JUMP JUMPDEST POP PUSH1 0x1 SWAP3 SWAP2 POP POP JUMP JUMPDEST PUSH2 0x66E PUSH2 0x84E JUMP JUMPDEST ADDRESS PUSH0 SWAP1 DUP2 MSTORE PUSH1 0x20 DUP2 SWAP1 MSTORE PUSH1 0x40 SWAP1 KECCAK256 SLOAD DUP1 PUSH2 0x6C2 JUMPI PUSH1 0x40 MLOAD PUSH3 0x461BCD PUSH1 0xE5 SHL DUP2 MSTORE PUSH1 0x20 PUSH1 0x4 DUP3 ADD MSTORE PUSH1 0x15 PUSH1 0x24 DUP3 ADD MSTORE PUSH21 0x4E6F204C502066756E647320617661696C61626C65 PUSH1 0x58 SHL PUSH1 0x44 DUP3 ADD MSTORE PUSH1 0x64 ADD PUSH2 0x517 JUMP JUMPDEST PUSH2 0x6DE ADDRESS PUSH2 0x6D8 PUSH1 0x5 SLOAD PUSH1 0x1 PUSH1 0x1 PUSH1 0xA0 SHL SUB AND SWAP1 JUMP JUMPDEST DUP4 PUSH2 0xDFA JUMP JUMPDEST PUSH1 0x40 MLOAD DUP2 DUP2 MSTORE PUSH32 0xBBA45FF8BCB537FDEDCE576E22FC876A23312F65B5166C004136ECE621F3EA93 SWAP1 PUSH1 0x20 ADD JUMPDEST PUSH1 0x40 MLOAD DUP1 SWAP2 SUB SWAP1 LOG1 POP JUMP JUMPDEST PUSH2 0x71D PUSH2 0x84E JUMP JUMPDEST PUSH1 0x1 PUSH1 0x1 PUSH1 0xA0 SHL SUB DUP2 AND PUSH2 0x773 JUMPI PUSH1 0x40 MLOAD PUSH3 0x461BCD PUSH1 0xE5 SHL DUP2 MSTORE PUSH1 0x20 PUSH1 0x4 DUP3 ADD MSTORE PUSH1 0x1F PUSH1 0x24 DUP3 ADD MSTORE PUSH32 0x4E6577207061697220616464726573732063616E6E6F74206265207A65726F00 PUSH1 0x44 DUP3 ADD MSTORE PUSH1 0x64 ADD PUSH2 0x517 JUMP JUMPDEST PUSH1 0xB DUP1 SLOAD PUSH1 0x1 PUSH1 0x1 PUSH1 0xA0 SHL SUB NOT AND PUSH1 0x1 PUSH1 0x1 PUSH1 0xA0 SHL SUB DUP4 AND SWAP1 DUP2 OR SWAP1 SWAP2 SSTORE PUSH1 0x40 MLOAD SWAP1 DUP2 MSTORE PUSH32 0xDD2689CB5E1CA91BAB290E22ADA24C52705073CF17BACB82133714FA84271344 SWAP1 PUSH1 0x20 ADD PUSH2 0x70A JUMP JUMPDEST PUSH1 0x64 PUSH2 0x7D9 PUSH11 0x1A784379D99DB42000000 PUSH1 0x1 PUSH2 0x1254 JUMP JUMPDEST PUSH2 0x7E3 SWAP2 SWAP1 PUSH2 0x126B JUMP JUMPDEST DUP2 JUMP JUMPDEST PUSH2 0x7EE PUSH2 0x84E JUMP JUMPDEST PUSH1 0x1 PUSH1 0x1 PUSH1 0xA0 SHL SUB DUP2 AND PUSH2 0x817 JUMPI PUSH1 0x40 MLOAD PUSH4 0x1E4FBDF7 PUSH1 0xE0 SHL DUP2 MSTORE PUSH0 PUSH1 0x4 DUP3 ADD MSTORE PUSH1 0x24 ADD PUSH2 0x517 JUMP JUMPDEST PUSH2 0x820 DUP2 PUSH2 0xD6C JUMP JUMPDEST POP JUMP JUMPDEST PUSH2 0x2710 PUSH2 0x7D9 PUSH11 0x1A784379D99DB42000000 PUSH1 0x5 PUSH2 0x1254 JUMP JUMPDEST PUSH2 0x849 DUP4 DUP4 DUP4 PUSH1 0x1 PUSH2 0xE57 JUMP JUMPDEST POP POP POP JUMP JUMPDEST PUSH1 0x5 SLOAD PUSH1 0x1 PUSH1 0x1 PUSH1 0xA0 SHL SUB AND CALLER EQ PUSH2 0x5DA JUMPI PUSH1 0x40 MLOAD PUSH4 0x118CDAA7 PUSH1 0xE0 SHL DUP2 MSTORE CALLER PUSH1 0x4 DUP3 ADD MSTORE PUSH1 0x24 ADD PUSH2 0x517 JUMP JUMPDEST PUSH1 0x7 SLOAD PUSH1 0xFF AND ISZERO PUSH2 0x5DA JUMPI PUSH1 0x40 MLOAD PUSH3 0x461BCD PUSH1 0xE5 SHL DUP2 MSTORE PUSH1 0x20 PUSH1 0x4 DUP3 ADD MSTORE PUSH1 0x10 PUSH1 0x24 DUP3 ADD MSTORE PUSH16 0x14185D5CD8589B194E881C185D5CD959 PUSH1 0x82 SHL PUSH1 0x44 DUP3 ADD MSTORE PUSH1 0x64 ADD PUSH2 0x517 JUMP JUMPDEST PUSH1 0x1 PUSH1 0x1 PUSH1 0xA0 SHL SUB DUP4 AND PUSH0 SWAP1 DUP2 MSTORE PUSH1 0xE PUSH1 0x20 MSTORE PUSH1 0x40 SWAP1 KECCAK256 SLOAD PUSH1 0xFF AND PUSH2 0x849 JUMPI PUSH1 0x64 PUSH2 0x8F8 PUSH11 0x1A784379D99DB42000000 PUSH1 0x1 PUSH2 0x1254 JUMP JUMPDEST PUSH2 0x902 SWAP2 SWAP1 PUSH2 0x126B JUMP JUMPDEST DUP2 PUSH2 0x921 DUP5 PUSH1 0x1 PUSH1 0x1 PUSH1 0xA0 SHL SUB AND PUSH0 SWAP1 DUP2 MSTORE PUSH1 0x20 DUP2 SWAP1 MSTORE PUSH1 0x40 SWAP1 KECCAK256 SLOAD SWAP1 JUMP JUMPDEST PUSH2 0x92B SWAP2 SWAP1 PUSH2 0x128A JUMP JUMPDEST GT ISZERO PUSH2 0x979 JUMPI PUSH1 0x40 MLOAD PUSH3 0x461BCD PUSH1 0xE5 SHL DUP2 MSTORE PUSH1 0x20 PUSH1 0x4 DUP3 ADD MSTORE PUSH1 0x18 PUSH1 0x24 DUP3 ADD MSTORE PUSH32 0x45786365656473206D61782077616C6C6574206C696D69740000000000000000 PUSH1 0x44 DUP3 ADD MSTORE PUSH1 0x64 ADD PUSH2 0x517 JUMP JUMPDEST PUSH2 0x2710 PUSH2 0x992 PUSH11 0x1A784379D99DB42000000 PUSH1 0x5 PUSH2 0x1254 JUMP JUMPDEST PUSH2 0x99C SWAP2 SWAP1 PUSH2 0x126B JUMP JUMPDEST DUP2 GT ISZERO PUSH2 0x849 JUMPI PUSH1 0x40 MLOAD PUSH3 0x461BCD PUSH1 0xE5 SHL DUP2 MSTORE PUSH1 0x20 PUSH1 0x4 DUP3 ADD MSTORE PUSH1 0x1D PUSH1 0x24 DUP3 ADD MSTORE PUSH32 0x45786365656473206D6178207472616E73616374696F6E206C696D6974000000 PUSH1 0x44 DUP3 ADD MSTORE PUSH1 0x64 ADD PUSH2 0x517 JUMP JUMPDEST PUSH1 0xB SLOAD PUSH0 SWAP1 PUSH1 0x1 PUSH1 0x1 PUSH1 0xA0 SHL SUB DUP5 DUP2 AND SWAP2 AND EQ PUSH2 0xA21 JUMPI PUSH1 0x64 PUSH1 0xC SLOAD DUP4 PUSH2 0xA12 SWAP2 SWAP1 PUSH2 0x1254 JUMP JUMPDEST PUSH2 0xA1C SWAP2 SWAP1 PUSH2 0x126B JUMP JUMPDEST PUSH2 0xA3B JUMP JUMPDEST PUSH1 0x64 PUSH1 0xD SLOAD DUP4 PUSH2 0xA31 SWAP2 SWAP1 PUSH2 0x1254 JUMP JUMPDEST PUSH2 0xA3B SWAP2 SWAP1 PUSH2 0x126B JUMP JUMPDEST SWAP1 POP DUP1 DUP3 LT ISZERO PUSH2 0xA8D JUMPI PUSH1 0x40 MLOAD PUSH3 0x461BCD PUSH1 0xE5 SHL DUP2 MSTORE PUSH1 0x20 PUSH1 0x4 DUP3 ADD MSTORE PUSH1 0x1B PUSH1 0x24 DUP3 ADD MSTORE PUSH32 0x5461782065786365656473207472616E7366657220616D6F756E740000000000 PUSH1 0x44 DUP3 ADD MSTORE PUSH1 0x64 ADD PUSH2 0x517 JUMP JUMPDEST PUSH0 PUSH2 0xA98 DUP3 DUP5 PUSH2 0x1241 JUMP JUMPDEST SWAP1 POP PUSH0 PUSH1 0xC PUSH2 0xAA8 DUP5 PUSH1 0x4 PUSH2 0x1254 JUMP JUMPDEST PUSH2 0xAB2 SWAP2 SWAP1 PUSH2 0x126B JUMP JUMPDEST SWAP1 POP PUSH0 PUSH1 0xC PUSH2 0xAC2 DUP6 PUSH1 0x4 PUSH2 0x1254 JUMP JUMPDEST PUSH2 0xACC SWAP2 SWAP1 PUSH2 0x126B JUMP JUMPDEST SWAP1 POP PUSH0 PUSH1 0xC PUSH2 0xADC DUP7 PUSH1 0x1 PUSH2 0x1254 JUMP JUMPDEST PUSH2 0xAE6 SWAP2 SWAP1 PUSH2 0x126B JUMP JUMPDEST SWAP1 POP PUSH0 PUSH1 0xC PUSH2 0xAF6 DUP8 PUSH1 0x2 PUSH2 0x1254 JUMP JUMPDEST PUSH2 0xB00 SWAP2 SWAP1 PUSH2 0x126B JUMP JUMPDEST SWAP1 POP PUSH0 PUSH1 0xC PUSH2 0xB10 DUP9 PUSH1 0x1 PUSH2 0x1254 JUMP JUMPDEST PUSH2 0xB1A SWAP2 SWAP1 PUSH2 0x126B JUMP JUMPDEST SWAP1 POP PUSH2 0xB3C DUP11 PUSH1 0x7 PUSH1 0x1 SWAP1 SLOAD SWAP1 PUSH2 0x100 EXP SWAP1 DIV PUSH1 0x1 PUSH1 0x1 PUSH1 0xA0 SHL SUB AND DUP7 PUSH2 0xDFA JUMP JUMPDEST PUSH0 DUP1 MLOAD PUSH1 0x20 PUSH2 0x129E DUP4 CODECOPY DUP2 MLOAD SWAP2 MSTORE DUP5 PUSH1 0x40 MLOAD PUSH2 0xB84 SWAP2 DUP2 MSTORE PUSH1 0x40 PUSH1 0x20 DUP3 ADD DUP2 SWAP1 MSTORE PUSH1 0x12 SWAP1 DUP3 ADD MSTORE PUSH18 0x115B98DBDD5C9859D95B595B9D08119D5B99 PUSH1 0x72 SHL PUSH1 0x60 DUP3 ADD MSTORE PUSH1 0x80 ADD SWAP1 JUMP JUMPDEST PUSH1 0x40 MLOAD DUP1 SWAP2 SUB SWAP1 LOG1 PUSH1 0x8 SLOAD PUSH2 0xBA4 SWAP1 DUP12 SWAP1 PUSH1 0x1 PUSH1 0x1 PUSH1 0xA0 SHL SUB AND DUP6 PUSH2 0xDFA JUMP JUMPDEST PUSH0 DUP1 MLOAD PUSH1 0x20 PUSH2 0x129E DUP4 CODECOPY DUP2 MLOAD SWAP2 MSTORE DUP4 PUSH1 0x40 MLOAD PUSH2 0xBE8 SWAP2 DUP2 MSTORE PUSH1 0x40 PUSH1 0x20 DUP3 ADD DUP2 SWAP1 MSTORE PUSH1 0xE SWAP1 DUP3 ADD MSTORE PUSH14 0x115B595C99D95B98DE48119D5B99 PUSH1 0x92 SHL PUSH1 0x60 DUP3 ADD MSTORE PUSH1 0x80 ADD SWAP1 JUMP JUMPDEST PUSH1 0x40 MLOAD DUP1 SWAP2 SUB SWAP1 LOG1 PUSH1 0x9 SLOAD PUSH2 0xC08 SWAP1 DUP12 SWAP1 PUSH1 0x1 PUSH1 0x1 PUSH1 0xA0 SHL SUB AND DUP5 PUSH2 0xDFA JUMP JUMPDEST PUSH0 DUP1 MLOAD PUSH1 0x20 PUSH2 0x129E DUP4 CODECOPY DUP2 MLOAD SWAP2 MSTORE DUP3 PUSH1 0x40 MLOAD PUSH2 0xC47 SWAP2 DUP2 MSTORE PUSH1 0x40 PUSH1 0x20 DUP3 ADD DUP2 SWAP1 MSTORE PUSH1 0x9 SWAP1 DUP3 ADD MSTORE PUSH9 0x4D61726B6574696E67 PUSH1 0xB8 SHL PUSH1 0x60 DUP3 ADD MSTORE PUSH1 0x80 ADD SWAP1 JUMP JUMPDEST PUSH1 0x40 MLOAD DUP1 SWAP2 SUB SWAP1 LOG1 PUSH1 0xA SLOAD PUSH2 0xC67 SWAP1 DUP12 SWAP1 PUSH1 0x1 PUSH1 0x1 PUSH1 0xA0 SHL SUB AND DUP4 PUSH2 0xDFA JUMP JUMPDEST PUSH0 DUP1 MLOAD PUSH1 0x20 PUSH2 0x129E DUP4 CODECOPY DUP2 MLOAD SWAP2 MSTORE DUP2 PUSH1 0x40 MLOAD PUSH2 0xCA4 SWAP2 DUP2 MSTORE PUSH1 0x40 PUSH1 0x20 DUP3 ADD DUP2 SWAP1 MSTORE PUSH1 0x7 SWAP1 DUP3 ADD MSTORE PUSH7 0x5374616B696E67 PUSH1 0xC8 SHL PUSH1 0x60 DUP3 ADD MSTORE PUSH1 0x80 ADD SWAP1 JUMP JUMPDEST PUSH1 0x40 MLOAD DUP1 SWAP2 SUB SWAP1 LOG1 PUSH2 0xCB7 DUP11 ADDRESS DUP8 PUSH2 0xDFA JUMP JUMPDEST PUSH0 DUP1 MLOAD PUSH1 0x20 PUSH2 0x129E DUP4 CODECOPY DUP2 MLOAD SWAP2 MSTORE DUP6 PUSH1 0x40 MLOAD PUSH2 0xCFB SWAP2 DUP2 MSTORE PUSH1 0x40 PUSH1 0x20 DUP3 ADD DUP2 SWAP1 MSTORE PUSH1 0xE SWAP1 DUP3 ADD MSTORE PUSH14 0x131A5C5D5A591A5D1E48141BDBDB PUSH1 0x92 SHL PUSH1 0x60 DUP3 ADD MSTORE PUSH1 0x80 ADD SWAP1 JUMP JUMPDEST PUSH1 0x40 MLOAD DUP1 SWAP2 SUB SWAP1 LOG1 PUSH2 0xD0E DUP11 DUP11 DUP9 PUSH2 0xDFA JUMP JUMPDEST POP POP POP POP POP POP POP POP POP POP JUMP JUMPDEST PUSH2 0xD22 PUSH2 0xF2A JUMP JUMPDEST PUSH1 0x7 DUP1 SLOAD PUSH1 0xFF NOT AND SWAP1 SSTORE PUSH32 0x5DB9EE0A495BF2E6FF9C91A7834C1BA4FDD244A5E8AA4E537BD38AEAE4B073AA CALLER JUMPDEST PUSH1 0x40 MLOAD PUSH1 0x1 PUSH1 0x1 PUSH1 0xA0 SHL SUB SWAP1 SWAP2 AND DUP2 MSTORE PUSH1 0x20 ADD PUSH1 0x40 MLOAD DUP1 SWAP2 SUB SWAP1 LOG1 JUMP JUMPDEST PUSH1 0x5 DUP1 SLOAD PUSH1 0x1 PUSH1 0x1 PUSH1 0xA0 SHL SUB DUP4 DUP2 AND PUSH1 0x1 PUSH1 0x1 PUSH1 0xA0 SHL SUB NOT DUP4 AND DUP2 OR SWAP1 SWAP4 SSTORE PUSH1 0x40 MLOAD SWAP2 AND SWAP2 SWAP1 DUP3 SWAP1 PUSH32 0x8BE0079C531659141344CD1FD0A4F28419497F9722A3DAAFE3B4186F6B6457E0 SWAP1 PUSH0 SWAP1 LOG3 POP POP JUMP JUMPDEST PUSH2 0xDC5 PUSH2 0x87B JUMP JUMPDEST PUSH1 0x7 DUP1 SLOAD PUSH1 0xFF NOT AND PUSH1 0x1 OR SWAP1 SSTORE PUSH32 0x62E78CEA01BEE320CD4E420270B5EA74000D11B0C9F74754EBDBFC544B05A258 PUSH2 0xD4F CALLER SWAP1 JUMP JUMPDEST PUSH1 0x1 PUSH1 0x1 PUSH1 0xA0 SHL SUB DUP4 AND PUSH2 0xE23 JUMPI PUSH1 0x40 MLOAD PUSH4 0x4B637E8F PUSH1 0xE1 SHL DUP2 MSTORE PUSH0 PUSH1 0x4 DUP3 ADD MSTORE PUSH1 0x24 ADD PUSH2 0x517 JUMP JUMPDEST PUSH1 0x1 PUSH1 0x1 PUSH1 0xA0 SHL SUB DUP3 AND PUSH2 0xE4C JUMPI PUSH1 0x40 MLOAD PUSH4 0xEC442F05 PUSH1 0xE0 SHL DUP2 MSTORE PUSH0 PUSH1 0x4 DUP3 ADD MSTORE PUSH1 0x24 ADD PUSH2 0x517 JUMP JUMPDEST PUSH2 0x849 DUP4 DUP4 DUP4 PUSH2 0xF73 JUMP JUMPDEST PUSH1 0x1 PUSH1 0x1 PUSH1 0xA0 SHL SUB DUP5 AND PUSH2 0xE80 JUMPI PUSH1 0x40 MLOAD PUSH4 0xE602DF05 PUSH1 0xE0 SHL DUP2 MSTORE PUSH0 PUSH1 0x4 DUP3 ADD MSTORE PUSH1 0x24 ADD PUSH2 0x517 JUMP JUMPDEST PUSH1 0x1 PUSH1 0x1 PUSH1 0xA0 SHL SUB DUP4 AND PUSH2 0xEA9 JUMPI PUSH1 0x40 MLOAD PUSH4 0x4A1406B1 PUSH1 0xE1 SHL DUP2 MSTORE PUSH0 PUSH1 0x4 DUP3 ADD MSTORE PUSH1 0x24 ADD PUSH2 0x517 JUMP JUMPDEST PUSH1 0x1 PUSH1 0x1 PUSH1 0xA0 SHL SUB DUP1 DUP6 AND PUSH0 SWAP1 DUP2 MSTORE PUSH1 0x1 PUSH1 0x20 SWAP1 DUP2 MSTORE PUSH1 0x40 DUP1 DUP4 KECCAK256 SWAP4 DUP8 AND DUP4 MSTORE SWAP3 SWAP1 MSTORE KECCAK256 DUP3 SWAP1 SSTORE DUP1 ISZERO PUSH2 0xF24 JUMPI DUP3 PUSH1 0x1 PUSH1 0x1 PUSH1 0xA0 SHL SUB AND DUP5 PUSH1 0x1 PUSH1 0x1 PUSH1 0xA0 SHL SUB AND PUSH32 0x8C5BE1E5EBEC7D5BD14F71427D1E84F3DD0314C0F7B2291E5B200AC8C7C3B925 DUP5 PUSH1 0x40 MLOAD PUSH2 0xF1B SWAP2 DUP2 MSTORE PUSH1 0x20 ADD SWAP1 JUMP JUMPDEST PUSH1 0x40 MLOAD DUP1 SWAP2 SUB SWAP1 LOG3 JUMPDEST POP POP POP POP JUMP JUMPDEST PUSH1 0x7 SLOAD PUSH1 0xFF AND PUSH2 0x5DA JUMPI PUSH1 0x40 MLOAD PUSH3 0x461BCD PUSH1 0xE5 SHL DUP2 MSTORE PUSH1 0x20 PUSH1 0x4 DUP3 ADD MSTORE PUSH1 0x14 PUSH1 0x24 DUP3 ADD MSTORE PUSH20 0x14185D5CD8589B194E881B9BDD081C185D5CD959 PUSH1 0x62 SHL PUSH1 0x44 DUP3 ADD MSTORE PUSH1 0x64 ADD PUSH2 0x517 JUMP JUMPDEST PUSH1 0x1 PUSH1 0x1 PUSH1 0xA0 SHL SUB DUP4 AND PUSH2 0xF9D JUMPI DUP1 PUSH1 0x2 PUSH0 DUP3 DUP3 SLOAD PUSH2 0xF92 SWAP2 SWAP1 PUSH2 0x128A JUMP JUMPDEST SWAP1 SWAP2 SSTORE POP PUSH2 0x100D SWAP1 POP JUMP JUMPDEST PUSH1 0x1 PUSH1 0x1 PUSH1 0xA0 SHL SUB DUP4 AND PUSH0 SWAP1 DUP2 MSTORE PUSH1 0x20 DUP2 SWAP1 MSTORE PUSH1 0x40 SWAP1 KECCAK256 SLOAD DUP2 DUP2 LT ISZERO PUSH2 0xFEF JUMPI PUSH1 0x40 MLOAD PUSH4 0x391434E3 PUSH1 0xE2 SHL DUP2 MSTORE PUSH1 0x1 PUSH1 0x1 PUSH1 0xA0 SHL SUB DUP6 AND PUSH1 0x4 DUP3 ADD MSTORE PUSH1 0x24 DUP2 ADD DUP3 SWAP1 MSTORE PUSH1 0x44 DUP2 ADD DUP4 SWAP1 MSTORE PUSH1 0x64 ADD PUSH2 0x517 JUMP JUMPDEST PUSH1 0x1 PUSH1 0x1 PUSH1 0xA0 SHL SUB DUP5 AND PUSH0 SWAP1 DUP2 MSTORE PUSH1 0x20 DUP2 SWAP1 MSTORE PUSH1 0x40 SWAP1 KECCAK256 SWAP1 DUP3 SWAP1 SUB SWAP1 SSTORE JUMPDEST PUSH1 0x1 PUSH1 0x1 PUSH1 0xA0 SHL SUB DUP3 AND PUSH2 0x1029 JUMPI PUSH1 0x2 DUP1 SLOAD DUP3 SWAP1 SUB SWAP1 SSTORE PUSH2 0x1047 JUMP JUMPDEST PUSH1 0x1 PUSH1 0x1 PUSH1 0xA0 SHL SUB DUP3 AND PUSH0 SWAP1 DUP2 MSTORE PUSH1 0x20 DUP2 SWAP1 MSTORE PUSH1 0x40 SWAP1 KECCAK256 DUP1 SLOAD DUP3 ADD SWAP1 SSTORE JUMPDEST DUP2 PUSH1 0x1 PUSH1 0x1 PUSH1 0xA0 SHL SUB AND DUP4 PUSH1 0x1 PUSH1 0x1 PUSH1 0xA0 SHL SUB AND PUSH32 0xDDF252AD1BE2C89B69C2B068FC378DAA952BA7F163C4A11628F55A4DF523B3EF DUP4 PUSH1 0x40 MLOAD PUSH2 0x108C SWAP2 DUP2 MSTORE PUSH1 0x20 ADD SWAP1 JUMP JUMPDEST PUSH1 0x40 MLOAD DUP1 SWAP2 SUB SWAP1 LOG3 POP POP POP JUMP JUMPDEST PUSH1 0x20 DUP2 MSTORE PUSH0 DUP3 MLOAD DUP1 PUSH1 0x20 DUP5 ADD MSTORE DUP1 PUSH1 0x20 DUP6 ADD PUSH1 0x40 DUP6 ADD MCOPY PUSH0 PUSH1 0x40 DUP3 DUP6 ADD ADD MSTORE PUSH1 0x40 PUSH1 0x1F NOT PUSH1 0x1F DUP4 ADD AND DUP5 ADD ADD SWAP2 POP POP SWAP3 SWAP2 POP POP JUMP JUMPDEST DUP1 CALLDATALOAD PUSH1 0x1 PUSH1 0x1 PUSH1 0xA0 SHL SUB DUP2 AND DUP2 EQ PUSH2 0x10E4 JUMPI PUSH0 DUP1 REVERT JUMPDEST SWAP2 SWAP1 POP JUMP JUMPDEST PUSH0 DUP1 PUSH1 0x40 DUP4 DUP6 SUB SLT ISZERO PUSH2 0x10FA JUMPI PUSH0 DUP1 REVERT JUMPDEST PUSH2 0x1103 DUP4 PUSH2 0x10CE JUMP JUMPDEST SWAP5 PUSH1 0x20 SWAP4 SWAP1 SWAP4 ADD CALLDATALOAD SWAP4 POP POP POP JUMP JUMPDEST PUSH0 DUP1 PUSH1 0x40 DUP4 DUP6 SUB SLT ISZERO PUSH2 0x1122 JUMPI PUSH0 DUP1 REVERT JUMPDEST POP POP DUP1 CALLDATALOAD SWAP3 PUSH1 0x20 SWAP1 SWAP2 ADD CALLDATALOAD SWAP2 POP JUMP JUMPDEST PUSH0 DUP1 PUSH0 PUSH1 0x60 DUP5 DUP7 SUB SLT ISZERO PUSH2 0x1143 JUMPI PUSH0 DUP1 REVERT JUMPDEST PUSH2 0x114C DUP5 PUSH2 0x10CE JUMP JUMPDEST SWAP3 POP PUSH2 0x115A PUSH1 0x20 DUP6 ADD PUSH2 0x10CE JUMP JUMPDEST SWAP3 SWAP6 SWAP3 SWAP5 POP POP POP PUSH1 0x40 SWAP2 SWAP1 SWAP2 ADD CALLDATALOAD SWAP1 JUMP JUMPDEST PUSH0 PUSH1 0x20 DUP3 DUP5 SUB SLT ISZERO PUSH2 0x117B JUMPI PUSH0 DUP1 REVERT JUMPDEST PUSH2 0x1184 DUP3 PUSH2 0x10CE JUMP JUMPDEST SWAP4 SWAP3 POP POP POP JUMP JUMPDEST PUSH0 DUP1 PUSH1 0x40 DUP4 DUP6 SUB SLT ISZERO PUSH2 0x119C JUMPI PUSH0 DUP1 REVERT JUMPDEST PUSH2 0x11A5 DUP4 PUSH2 0x10CE JUMP JUMPDEST SWAP2 POP PUSH1 0x20 DUP4 ADD CALLDATALOAD DUP1 ISZERO ISZERO DUP2 EQ PUSH2 0x11B9 JUMPI PUSH0 DUP1 REVERT JUMPDEST DUP1 SWAP2 POP POP SWAP3 POP SWAP3 SWAP1 POP JUMP JUMPDEST PUSH0 DUP1 PUSH1 0x40 DUP4 DUP6 SUB SLT ISZERO PUSH2 0x11D5 JUMPI PUSH0 DUP1 REVERT JUMPDEST PUSH2 0x11DE DUP4 PUSH2 0x10CE JUMP JUMPDEST SWAP2 POP PUSH2 0x11EC PUSH1 0x20 DUP5 ADD PUSH2 0x10CE JUMP JUMPDEST SWAP1 POP SWAP3 POP SWAP3 SWAP1 POP JUMP JUMPDEST PUSH1 0x1 DUP2 DUP2 SHR SWAP1 DUP3 AND DUP1 PUSH2 0x1209 JUMPI PUSH1 0x7F DUP3 AND SWAP2 POP JUMPDEST PUSH1 0x20 DUP3 LT DUP2 SUB PUSH2 0x1227 JUMPI PUSH4 0x4E487B71 PUSH1 0xE0 SHL PUSH0 MSTORE PUSH1 0x22 PUSH1 0x4 MSTORE PUSH1 0x24 PUSH0 REVERT JUMPDEST POP SWAP2 SWAP1 POP JUMP JUMPDEST PUSH4 0x4E487B71 PUSH1 0xE0 SHL PUSH0 MSTORE PUSH1 0x11 PUSH1 0x4 MSTORE PUSH1 0x24 PUSH0 REVERT JUMPDEST DUP2 DUP2 SUB DUP2 DUP2 GT ISZERO PUSH2 0x4C0 JUMPI PUSH2 0x4C0 PUSH2 0x122D JUMP JUMPDEST DUP1 DUP3 MUL DUP2 ISZERO DUP3 DUP3 DIV DUP5 EQ OR PUSH2 0x4C0 JUMPI PUSH2 0x4C0 PUSH2 0x122D JUMP JUMPDEST PUSH0 DUP3 PUSH2 0x1285 JUMPI PUSH4 0x4E487B71 PUSH1 0xE0 SHL PUSH0 MSTORE PUSH1 0x12 PUSH1 0x4 MSTORE PUSH1 0x24 PUSH0 REVERT JUMPDEST POP DIV SWAP1 JUMP JUMPDEST DUP1 DUP3 ADD DUP1 DUP3 GT ISZERO PUSH2 0x4C0 JUMPI PUSH2 0x4C0 PUSH2 0x122D JUMP INVALID PUSH15 0x232B0ACF46272DACF889AF67675747 PUSH22 0xA324B133D42B3B8CFFA9CD13159984A2646970667358 0x22 SLT KECCAK256 TSTORE PUSH32 0x440AAFE1BA8988FE8525874D7A3E000E88547DA5F40029DDC05E024349CB6473 PUSH16 0x6C634300081A00330000000000000000 "
		},
		"gasEstimates": {
			"creation": {
				"codeDepositCost": "970200",
				"executionCost": "infinite",
				"totalCost": "infinite"
			},
			"external": {
				"INITIAL_SUPPLY()": "306",
				"MAX_TX()": "466",
				"MAX_WALLET()": "422",
				"allowance(address,address)": "infinite",
				"approve(address,uint256)": "24804",
				"balanceOf(address)": "2626",
				"buyTax()": "2384",
				"decimals()": "222",
				"emergencyFund()": "2436",
				"encouragementFund()": "2381",
				"isExcludedFromFees(address)": "2640",
				"marketingWallet()": "2393",
				"name()": "infinite",
				"owner()": "2364",
				"pause()": "infinite",
				"paused()": "2370",
				"renounceOwnership()": "infinite",
				"sellTax()": "2383",
				"stakingWallet()": "2372",
				"symbol()": "infinite",
				"totalSupply()": "2348",
				"transfer(address,uint256)": "infinite",
				"transferFrom(address,address,uint256)": "infinite",
				"transferOwnership(address)": "28421",
				"uniswapPair()": "2392",
				"unpause()": "infinite",
				"updateExcludedAccountStatus(address,bool)": "26901",
				"updateTaxes(uint256,uint256)": "48068",
				"updateUniswapPair(address)": "27878",
				"withdrawLPFunds()": "58494"
			},
			"internal": {
				"_applyTransferLimits(address,address,uint256)": "infinite",
				"_transferWithTaxes(address,address,uint256)": "infinite"
			}
		},
		"methodIdentifiers": {
			"INITIAL_SUPPLY()": "2ff2e9dc",
			"MAX_TX()": "f3b2db3f",
			"MAX_WALLET()": "df7787a4",
			"allowance(address,address)": "dd62ed3e",
			"approve(address,uint256)": "095ea7b3",
			"balanceOf(address)": "70a08231",
			"buyTax()": "4f7041a5",
			"decimals()": "313ce567",
			"emergencyFund()": "cc859378",
			"encouragementFund()": "52a6a9ec",
			"isExcludedFromFees(address)": "4fbee193",
			"marketingWallet()": "75f0a874",
			"name()": "06fdde03",
			"owner()": "8da5cb5b",
			"pause()": "8456cb59",
			"paused()": "5c975abb",
			"renounceOwnership()": "715018a6",
			"sellTax()": "cc1776d3",
			"stakingWallet()": "06ee6ad8",
			"symbol()": "95d89b41",
			"totalSupply()": "18160ddd",
			"transfer(address,uint256)": "a9059cbb",
			"transferFrom(address,address,uint256)": "23b872dd",
			"transferOwnership(address)": "f2fde38b",
			"uniswapPair()": "c816841b",
			"unpause()": "3f4ba83a",
			"updateExcludedAccountStatus(address,bool)": "753cafc3",
			"updateTaxes(uint256,uint256)": "1006ee0c",
			"updateUniswapPair(address)": "c12b7c4e",
			"withdrawLPFunds()": "bea9ea62"
		}
	},
	"abi": [
		{
			"inputs": [
				{
					"internalType": "address",
					"name": "_encouragementFund",
					"type": "address"
				},
				{
					"internalType": "address",
					"name": "_emergencyFund",
					"type": "address"
				},
				{
					"internalType": "address",
					"name": "_marketingWallet",
					"type": "address"
				},
				{
					"internalType": "address",
					"name": "_stakingWallet",
					"type": "address"
				},
				{
					"internalType": "address",
					"name": "_initialUniswapPair",
					"type": "address"
				}
			],
			"stateMutability": "nonpayable",
			"type": "constructor"
		},
		{
			"inputs": [
				{
					"internalType": "address",
					"name": "spender",
					"type": "address"
				},
				{
					"internalType": "uint256",
					"name": "allowance",
					"type": "uint256"
				},
				{
					"internalType": "uint256",
					"name": "needed",
					"type": "uint256"
				}
			],
			"name": "ERC20InsufficientAllowance",
			"type": "error"
		},
		{
			"inputs": [
				{
					"internalType": "address",
					"name": "sender",
					"type": "address"
				},
				{
					"internalType": "uint256",
					"name": "balance",
					"type": "uint256"
				},
				{
					"internalType": "uint256",
					"name": "needed",
					"type": "uint256"
				}
			],
			"name": "ERC20InsufficientBalance",
			"type": "error"
		},
		{
			"inputs": [
				{
					"internalType": "address",
					"name": "approver",
					"type": "address"
				}
			],
			"name": "ERC20InvalidApprover",
			"type": "error"
		},
		{
			"inputs": [
				{
					"internalType": "address",
					"name": "receiver",
					"type": "address"
				}
			],
			"name": "ERC20InvalidReceiver",
			"type": "error"
		},
		{
			"inputs": [
				{
					"internalType": "address",
					"name": "sender",
					"type": "address"
				}
			],
			"name": "ERC20InvalidSender",
			"type": "error"
		},
		{
			"inputs": [
				{
					"internalType": "address",
					"name": "spender",
					"type": "address"
				}
			],
			"name": "ERC20InvalidSpender",
			"type": "error"
		},
		{
			"inputs": [
				{
					"internalType": "address",
					"name": "owner",
					"type": "address"
				}
			],
			"name": "OwnableInvalidOwner",
			"type": "error"
		},
		{
			"inputs": [
				{
					"internalType": "address",
					"name": "account",
					"type": "address"
				}
			],
			"name": "OwnableUnauthorizedAccount",
			"type": "error"
		},
		{
			"anonymous": false,
			"inputs": [
				{
					"indexed": true,
					"internalType": "address",
					"name": "owner",
					"type": "address"
				},
				{
					"indexed": true,
					"internalType": "address",
					"name": "spender",
					"type": "address"
				},
				{
					"indexed": false,
					"internalType": "uint256",
					"name": "value",
					"type": "uint256"
				}
			],
			"name": "Approval",
			"type": "event"
		},
		{
			"anonymous": false,
			"inputs": [
				{
					"indexed": false,
					"internalType": "uint256",
					"name": "amount",
					"type": "uint256"
				}
			],
			"name": "LPFundsWithdrawn",
			"type": "event"
		},
		{
			"anonymous": false,
			"inputs": [
				{
					"indexed": true,
					"internalType": "address",
					"name": "previousOwner",
					"type": "address"
				},
				{
					"indexed": true,
					"internalType": "address",
					"name": "newOwner",
					"type": "address"
				}
			],
			"name": "OwnershipTransferred",
			"type": "event"
		},
		{
			"anonymous": false,
			"inputs": [
				{
					"indexed": false,
					"internalType": "address",
					"name": "account",
					"type": "address"
				}
			],
			"name": "Paused",
			"type": "event"
		},
		{
			"anonymous": false,
			"inputs": [
				{
					"indexed": false,
					"internalType": "uint256",
					"name": "amount",
					"type": "uint256"
				},
				{
					"indexed": false,
					"internalType": "string",
					"name": "category",
					"type": "string"
				}
			],
			"name": "TaxDistributed",
			"type": "event"
		},
		{
			"anonymous": false,
			"inputs": [
				{
					"indexed": false,
					"internalType": "uint256",
					"name": "newBuyTax",
					"type": "uint256"
				},
				{
					"indexed": false,
					"internalType": "uint256",
					"name": "newSellTax",
					"type": "uint256"
				}
			],
			"name": "TaxesUpdated",
			"type": "event"
		},
		{
			"anonymous": false,
			"inputs": [
				{
					"indexed": true,
					"internalType": "address",
					"name": "from",
					"type": "address"
				},
				{
					"indexed": true,
					"internalType": "address",
					"name": "to",
					"type": "address"
				},
				{
					"indexed": false,
					"internalType": "uint256",
					"name": "value",
					"type": "uint256"
				}
			],
			"name": "Transfer",
			"type": "event"
		},
		{
			"anonymous": false,
			"inputs": [
				{
					"indexed": false,
					"internalType": "address",
					"name": "newPair",
					"type": "address"
				}
			],
			"name": "UniswapPairUpdated",
			"type": "event"
		},
		{
			"anonymous": false,
			"inputs": [
				{
					"indexed": false,
					"internalType": "address",
					"name": "account",
					"type": "address"
				}
			],
			"name": "Unpaused",
			"type": "event"
		},
		{
			"inputs": [],
			"name": "INITIAL_SUPPLY",
			"outputs": [
				{
					"internalType": "uint256",
					"name": "",
					"type": "uint256"
				}
			],
			"stateMutability": "view",
			"type": "function"
		},
		{
			"inputs": [],
			"name": "MAX_TX",
			"outputs": [
				{
					"internalType": "uint256",
					"name": "",
					"type": "uint256"
				}
			],
			"stateMutability": "view",
			"type": "function"
		},
		{
			"inputs": [],
			"name": "MAX_WALLET",
			"outputs": [
				{
					"internalType": "uint256",
					"name": "",
					"type": "uint256"
				}
			],
			"stateMutability": "view",
			"type": "function"
		},
		{
			"inputs": [
				{
					"internalType": "address",
					"name": "owner",
					"type": "address"
				},
				{
					"internalType": "address",
					"name": "spender",
					"type": "address"
				}
			],
			"name": "allowance",
			"outputs": [
				{
					"internalType": "uint256",
					"name": "",
					"type": "uint256"
				}
			],
			"stateMutability": "view",
			"type": "function"
		},
		{
			"inputs": [
				{
					"internalType": "address",
					"name": "spender",
					"type": "address"
				},
				{
					"internalType": "uint256",
					"name": "value",
					"type": "uint256"
				}
			],
			"name": "approve",
			"outputs": [
				{
					"internalType": "bool",
					"name": "",
					"type": "bool"
				}
			],
			"stateMutability": "nonpayable",
			"type": "function"
		},
		{
			"inputs": [
				{
					"internalType": "address",
					"name": "account",
					"type": "address"
				}
			],
			"name": "balanceOf",
			"outputs": [
				{
					"internalType": "uint256",
					"name": "",
					"type": "uint256"
				}
			],
			"stateMutability": "view",
			"type": "function"
		},
		{
			"inputs": [],
			"name": "buyTax",
			"outputs": [
				{
					"internalType": "uint256",
					"name": "",
					"type": "uint256"
				}
			],
			"stateMutability": "view",
			"type": "function"
		},
		{
			"inputs": [],
			"name": "decimals",
			"outputs": [
				{
					"internalType": "uint8",
					"name": "",
					"type": "uint8"
				}
			],
			"stateMutability": "view",
			"type": "function"
		},
		{
			"inputs": [],
			"name": "emergencyFund",
			"outputs": [
				{
					"internalType": "address",
					"name": "",
					"type": "address"
				}
			],
			"stateMutability": "view",
			"type": "function"
		},
		{
			"inputs": [],
			"name": "encouragementFund",
			"outputs": [
				{
					"internalType": "address",
					"name": "",
					"type": "address"
				}
			],
			"stateMutability": "view",
			"type": "function"
		},
		{
			"inputs": [
				{
					"internalType": "address",
					"name": "",
					"type": "address"
				}
			],
			"name": "isExcludedFromFees",
			"outputs": [
				{
					"internalType": "bool",
					"name": "",
					"type": "bool"
				}
			],
			"stateMutability": "view",
			"type": "function"
		},
		{
			"inputs": [],
			"name": "marketingWallet",
			"outputs": [
				{
					"internalType": "address",
					"name": "",
					"type": "address"
				}
			],
			"stateMutability": "view",
			"type": "function"
		},
		{
			"inputs": [],
			"name": "name",
			"outputs": [
				{
					"internalType": "string",
					"name": "",
					"type": "string"
				}
			],
			"stateMutability": "view",
			"type": "function"
		},
		{
			"inputs": [],
			"name": "owner",
			"outputs": [
				{
					"internalType": "address",
					"name": "",
					"type": "address"
				}
			],
			"stateMutability": "view",
			"type": "function"
		},
		{
			"inputs": [],
			"name": "pause",
			"outputs": [],
			"stateMutability": "nonpayable",
			"type": "function"
		},
		{
			"inputs": [],
			"name": "paused",
			"outputs": [
				{
					"internalType": "bool",
					"name": "",
					"type": "bool"
				}
			],
			"stateMutability": "view",
			"type": "function"
		},
		{
			"inputs": [],
			"name": "renounceOwnership",
			"outputs": [],
			"stateMutability": "nonpayable",
			"type": "function"
		},
		{
			"inputs": [],
			"name": "sellTax",
			"outputs": [
				{
					"internalType": "uint256",
					"name": "",
					"type": "uint256"
				}
			],
			"stateMutability": "view",
			"type": "function"
		},
		{
			"inputs": [],
			"name": "stakingWallet",
			"outputs": [
				{
					"internalType": "address",
					"name": "",
					"type": "address"
				}
			],
			"stateMutability": "view",
			"type": "function"
		},
		{
			"inputs": [],
			"name": "symbol",
			"outputs": [
				{
					"internalType": "string",
					"name": "",
					"type": "string"
				}
			],
			"stateMutability": "view",
			"type": "function"
		},
		{
			"inputs": [],
			"name": "totalSupply",
			"outputs": [
				{
					"internalType": "uint256",
					"name": "",
					"type": "uint256"
				}
			],
			"stateMutability": "view",
			"type": "function"
		},
		{
			"inputs": [
				{
					"internalType": "address",
					"name": "recipient",
					"type": "address"
				},
				{
					"internalType": "uint256",
					"name": "amount",
					"type": "uint256"
				}
			],
			"name": "transfer",
			"outputs": [
				{
					"internalType": "bool",
					"name": "",
					"type": "bool"
				}
			],
			"stateMutability": "nonpayable",
			"type": "function"
		},
		{
			"inputs": [
				{
					"internalType": "address",
					"name": "sender",
					"type": "address"
				},
				{
					"internalType": "address",
					"name": "recipient",
					"type": "address"
				},
				{
					"internalType": "uint256",
					"name": "amount",
					"type": "uint256"
				}
			],
			"name": "transferFrom",
			"outputs": [
				{
					"internalType": "bool",
					"name": "",
					"type": "bool"
				}
			],
			"stateMutability": "nonpayable",
			"type": "function"
		},
		{
			"inputs": [
				{
					"internalType": "address",
					"name": "newOwner",
					"type": "address"
				}
			],
			"name": "transferOwnership",
			"outputs": [],
			"stateMutability": "nonpayable",
			"type": "function"
		},
		{
			"inputs": [],
			"name": "uniswapPair",
			"outputs": [
				{
					"internalType": "address",
					"name": "",
					"type": "address"
				}
			],
			"stateMutability": "view",
			"type": "function"
		},
		{
			"inputs": [],
			"name": "unpause",
			"outputs": [],
			"stateMutability": "nonpayable",
			"type": "function"
		},
		{
			"inputs": [
				{
					"internalType": "address",
					"name": "account",
					"type": "address"
				},
				{
					"internalType": "bool",
					"name": "excluded",
					"type": "bool"
				}
			],
			"name": "updateExcludedAccountStatus",
			"outputs": [],
			"stateMutability": "nonpayable",
			"type": "function"
		},
		{
			"inputs": [
				{
					"internalType": "uint256",
					"name": "_buyTax",
					"type": "uint256"
				},
				{
					"internalType": "uint256",
					"name": "_sellTax",
					"type": "uint256"
				}
			],
			"name": "updateTaxes",
			"outputs": [],
			"stateMutability": "nonpayable",
			"type": "function"
		},
		{
			"inputs": [
				{
					"internalType": "address",
					"name": "newPair",
					"type": "address"
				}
			],
			"name": "updateUniswapPair",
			"outputs": [],
			"stateMutability": "nonpayable",
			"type": "function"
		},
		{
			"inputs": [],
			"name": "withdrawLPFunds",
			"outputs": [],
			"stateMutability": "nonpayable",
			"type": "function"
		}
	]
}