{
	"data": {
		"bytecode": {
			"linkReferences": {},
			"object": "608060405234801561000f575f80fd5b5060405161260738038061260783398181016040528101906100319190610680565b336040518060400160405280600a81526020017f5845414d20546f6b656e000000000000000000000000000000000000000000008152506040518060400160405280600481526020017f5845414d0000000000000000000000000000000000000000000000000000000081525081600390816100ad919061091e565b5080600490816100bd919061091e565b5050505f73ffffffffffffffffffffffffffffffffffffffff168173ffffffffffffffffffffffffffffffffffffffff1603610130575f6040517f1e4fbdf700000000000000000000000000000000000000000000000000000000815260040161012791906109fc565b60405180910390fd5b61013f816102c160201b60201c565b5060016006819055508360075f6101000a81548173ffffffffffffffffffffffffffffffffffffffff021916908373ffffffffffffffffffffffffffffffffffffffff1602179055508260085f6101000a81548173ffffffffffffffffffffffffffffffffffffffff021916908373ffffffffffffffffffffffffffffffffffffffff1602179055508160095f6101000a81548173ffffffffffffffffffffffffffffffffffffffff021916908373ffffffffffffffffffffffffffffffffffffffff16021790555080600a5f6101000a81548173ffffffffffffffffffffffffffffffffffffffff021916908373ffffffffffffffffffffffffffffffffffffffff160217905550610263336a01a784379d99db4200000061038460201b60201c565b6001600b5f3373ffffffffffffffffffffffffffffffffffffffff1673ffffffffffffffffffffffffffffffffffffffff1681526020019081526020015f205f6101000a81548160ff02191690831515021790555050505050610ad2565b5f60055f9054906101000a900473ffffffffffffffffffffffffffffffffffffffff1690508160055f6101000a81548173ffffffffffffffffffffffffffffffffffffffff021916908373ffffffffffffffffffffffffffffffffffffffff1602179055508173ffffffffffffffffffffffffffffffffffffffff168173ffffffffffffffffffffffffffffffffffffffff167f8be0079c531659141344cd1fd0a4f28419497f9722a3daafe3b4186f6b6457e060405160405180910390a35050565b5f73ffffffffffffffffffffffffffffffffffffffff168273ffffffffffffffffffffffffffffffffffffffff16036103f4575f6040517fec442f050000000000000000000000000000000000000000000000000000000081526004016103eb91906109fc565b60405180910390fd5b6104055f838361040960201b60201c565b5050565b5f73ffffffffffffffffffffffffffffffffffffffff168373ffffffffffffffffffffffffffffffffffffffff1603610459578060025f82825461044d9190610a42565b92505081905550610527565b5f805f8573ffffffffffffffffffffffffffffffffffffffff1673ffffffffffffffffffffffffffffffffffffffff1681526020019081526020015f20549050818110156104e2578381836040517fe450d38c0000000000000000000000000000000000000000000000000000000081526004016104d993929190610a84565b60405180910390fd5b8181035f808673ffffffffffffffffffffffffffffffffffffffff1673ffffffffffffffffffffffffffffffffffffffff1681526020019081526020015f2081905550505b5f73ffffffffffffffffffffffffffffffffffffffff168273ffffffffffffffffffffffffffffffffffffffff160361056e578060025f82825403925050819055506105b8565b805f808473ffffffffffffffffffffffffffffffffffffffff1673ffffffffffffffffffffffffffffffffffffffff1681526020019081526020015f205f82825401925050819055505b8173ffffffffffffffffffffffffffffffffffffffff168373ffffffffffffffffffffffffffffffffffffffff167fddf252ad1be2c89b69c2b068fc378daa952ba7f163c4a11628f55a4df523b3ef836040516106159190610ab9565b60405180910390a3505050565b5f80fd5b5f73ffffffffffffffffffffffffffffffffffffffff82169050919050565b5f61064f82610626565b9050919050565b61065f81610645565b8114610669575f80fd5b50565b5f8151905061067a81610656565b92915050565b5f805f806080858703121561069857610697610622565b5b5f6106a58782880161066c565b94505060206106b68782880161066c565b93505060406106c78782880161066c565b92505060606106d88782880161066c565b91505092959194509250565b5f81519050919050565b7f4e487b71000000000000000000000000000000000000000000000000000000005f52604160045260245ffd5b7f4e487b71000000000000000000000000000000000000000000000000000000005f52602260045260245ffd5b5f600282049050600182168061075f57607f821691505b6020821081036107725761077161071b565b5b50919050565b5f819050815f5260205f209050919050565b5f6020601f8301049050919050565b5f82821b905092915050565b5f600883026107d47fffffffffffffffffffffffffffffffffffffffffffffffffffffffffffffffff82610799565b6107de8683610799565b95508019841693508086168417925050509392505050565b5f819050919050565b5f819050919050565b5f61082261081d610818846107f6565b6107ff565b6107f6565b9050919050565b5f819050919050565b61083b83610808565b61084f61084782610829565b8484546107a5565b825550505050565b5f90565b610863610857565b61086e818484610832565b505050565b5b81811015610891576108865f8261085b565b600181019050610874565b5050565b601f8211156108d6576108a781610778565b6108b08461078a565b810160208510156108bf578190505b6108d36108cb8561078a565b830182610873565b50505b505050565b5f82821c905092915050565b5f6108f65f19846008026108db565b1980831691505092915050565b5f61090e83836108e7565b9150826002028217905092915050565b610927826106e4565b67ffffffffffffffff8111156109405761093f6106ee565b5b61094a8254610748565b610955828285610895565b5f60209050601f831160018114610986575f8415610974578287015190505b61097e8582610903565b8655506109e5565b601f19841661099486610778565b5f5b828110156109bb57848901518255600182019150602085019450602081019050610996565b868310156109d857848901516109d4601f8916826108e7565b8355505b6001600288020188555050505b505050505050565b6109f681610645565b82525050565b5f602082019050610a0f5f8301846109ed565b92915050565b7f4e487b71000000000000000000000000000000000000000000000000000000005f52601160045260245ffd5b5f610a4c826107f6565b9150610a57836107f6565b9250828201905080821115610a6f57610a6e610a15565b5b92915050565b610a7e816107f6565b82525050565b5f606082019050610a975f8301866109ed565b610aa46020830185610a75565b610ab16040830184610a75565b949350505050565b5f602082019050610acc5f830184610a75565b92915050565b611b2880610adf5f395ff3fe608060405234801561000f575f80fd5b5060043610610156575f3560e01c806370a08231116100c1578063a9059cbb1161007a578063a9059cbb146103a8578063cc859378146103d8578063dd62ed3e146103f6578063df7787a414610426578063f2fde38b14610444578063f3b2db3f1461046057610156565b806370a08231146102f8578063715018a614610328578063753cafc31461033257806375f0a8741461034e5780638da5cb5b1461036c57806395d89b411461038a57610156565b80632ff2e9dc116101135780632ff2e9dc14610232578063313ce5671461025057806336b4134a1461026e5780634fbee1931461028c57806352a6a9ec146102bc57806354ad8aee146102da57610156565b806302af37bb1461015a57806306ee6ad81461017857806306fdde0314610196578063095ea7b3146101b457806318160ddd146101e457806323b872dd14610202575b5f80fd5b61016261047e565b60405161016f9190611368565b60405180910390f35b610180610483565b60405161018d91906113c0565b60405180910390f35b61019e6104a8565b6040516101ab9190611449565b60405180910390f35b6101ce60048036038101906101c991906114c1565b610538565b6040516101db9190611519565b60405180910390f35b6101ec61055a565b6040516101f99190611368565b60405180910390f35b61021c60048036038101906102179190611532565b610563565b6040516102299190611519565b60405180910390f35b61023a610591565b6040516102479190611368565b60405180910390f35b6102586105a0565b604051610265919061159d565b60405180910390f35b6102766105a8565b6040516102839190611368565b60405180910390f35b6102a660048036038101906102a191906115b6565b6105ad565b6040516102b39190611519565b60405180910390f35b6102c46105ca565b6040516102d191906113c0565b60405180910390f35b6102e26105ef565b6040516102ef9190611368565b60405180910390f35b610312600480360381019061030d91906115b6565b6105f4565b60405161031f9190611368565b60405180910390f35b610330610639565b005b61034c6004803603810190610347919061160b565b61064c565b005b6103566106ac565b60405161036391906113c0565b60405180910390f35b6103746106d1565b60405161038191906113c0565b60405180910390f35b6103926106f9565b60405161039f9190611449565b60405180910390f35b6103c260048036038101906103bd91906114c1565b610789565b6040516103cf9190611519565b60405180910390f35b6103e061087f565b6040516103ed91906113c0565b60405180910390f35b610410600480360381019061040b9190611649565b6108a4565b60405161041d9190611368565b60405180910390f35b61042e610926565b60405161043b9190611368565b60405180910390f35b61045e600480360381019061045991906115b6565b61094d565b005b6104686109d1565b6040516104759190611368565b60405180910390f35b600a81565b600a5f9054906101000a900473ffffffffffffffffffffffffffffffffffffffff1681565b6060600380546104b7906116b4565b80601f01602080910402602001604051908101604052809291908181526020018280546104e3906116b4565b801561052e5780601f106105055761010080835404028352916020019161052e565b820191905f5260205f20905b81548152906001019060200180831161051157829003601f168201915b5050505050905090565b5f806105426109f9565b905061054f818585610a00565b600191505092915050565b5f600254905090565b5f8061056d6109f9565b905061057a858285610a12565b610585858585610aa5565b60019150509392505050565b6a01a784379d99db4200000081565b5f6012905090565b600d81565b600b602052805f5260405f205f915054906101000a900460ff1681565b60075f9054906101000a900473ffffffffffffffffffffffffffffffffffffffff1681565b600c81565b5f805f8373ffffffffffffffffffffffffffffffffffffffff1673ffffffffffffffffffffffffffffffffffffffff1681526020019081526020015f20549050919050565b610641610b95565b61064a5f610c1c565b565b610654610b95565b80600b5f8473ffffffffffffffffffffffffffffffffffffffff1673ffffffffffffffffffffffffffffffffffffffff1681526020019081526020015f205f6101000a81548160ff0219169083151502179055505050565b60095f9054906101000a900473ffffffffffffffffffffffffffffffffffffffff1681565b5f60055f9054906101000a900473ffffffffffffffffffffffffffffffffffffffff16905090565b606060048054610708906116b4565b80601f0160208091040260200160405190810160405280929190818152602001828054610734906116b4565b801561077f5780601f106107565761010080835404028352916020019161077f565b820191905f5260205f20905b81548152906001019060200180831161076257829003601f168201915b5050505050905090565b5f606460016a01a784379d99db420000006107a49190611711565b6107ae919061177f565b826107b8856105f4565b6107c291906117af565b1115610803576040517f08c379a00000000000000000000000000000000000000000000000000000000081526004016107fa9061182c565b60405180910390fd5b61271060056a01a784379d99db4200000061081e9190611711565b610828919061177f565b82111561086a576040517f08c379a000000000000000000000000000000000000000000000000000000000815260040161086190611894565b60405180910390fd5b610875338484610cdf565b6001905092915050565b60085f9054906101000a900473ffffffffffffffffffffffffffffffffffffffff1681565b5f60015f8473ffffffffffffffffffffffffffffffffffffffff1673ffffffffffffffffffffffffffffffffffffffff1681526020019081526020015f205f8373ffffffffffffffffffffffffffffffffffffffff1673ffffffffffffffffffffffffffffffffffffffff1681526020019081526020015f2054905092915050565b606460016a01a784379d99db420000006109409190611711565b61094a919061177f565b81565b610955610b95565b5f73ffffffffffffffffffffffffffffffffffffffff168173ffffffffffffffffffffffffffffffffffffffff16036109c5575f6040517f1e4fbdf70000000000000000000000000000000000000000000000000000000081526004016109bc91906113c0565b60405180910390fd5b6109ce81610c1c565b50565b61271060056a01a784379d99db420000006109ec9190611711565b6109f6919061177f565b81565b5f33905090565b610a0d8383836001610f68565b505050565b5f610a1d84846108a4565b90507fffffffffffffffffffffffffffffffffffffffffffffffffffffffffffffffff811015610a9f5781811015610a90578281836040517ffb8f41b2000000000000000000000000000000000000000000000000000000008152600401610a87939291906118b2565b60405180910390fd5b610a9e84848484035f610f68565b5b50505050565b5f73ffffffffffffffffffffffffffffffffffffffff168373ffffffffffffffffffffffffffffffffffffffff1603610b15575f6040517f96c6fd1e000000000000000000000000000000000000000000000000000000008152600401610b0c91906113c0565b60405180910390fd5b5f73ffffffffffffffffffffffffffffffffffffffff168273ffffffffffffffffffffffffffffffffffffffff1603610b85575f6040517fec442f05000000000000000000000000000000000000000000000000000000008152600401610b7c91906113c0565b60405180910390fd5b610b90838383611137565b505050565b610b9d6109f9565b73ffffffffffffffffffffffffffffffffffffffff16610bbb6106d1565b73ffffffffffffffffffffffffffffffffffffffff1614610c1a57610bde6109f9565b6040517f118cdaa7000000000000000000000000000000000000000000000000000000008152600401610c1191906113c0565b60405180910390fd5b565b5f60055f9054906101000a900473ffffffffffffffffffffffffffffffffffffffff1690508160055f6101000a81548173ffffffffffffffffffffffffffffffffffffffff021916908373ffffffffffffffffffffffffffffffffffffffff1602179055508173ffffffffffffffffffffffffffffffffffffffff168173ffffffffffffffffffffffffffffffffffffffff167f8be0079c531659141344cd1fd0a4f28419497f9722a3daafe3b4186f6b6457e060405160405180910390a35050565b5f6064600c83610cef9190611711565b610cf9919061177f565b90505f8183610d0891906118e7565b9050610d4e8560075f9054906101000a900473ffffffffffffffffffffffffffffffffffffffff16600c600486610d3f9190611711565b610d49919061177f565b610aa5565b7f6e232b0acf46272dacf889af6767574775a324b133d42b3b8cffa9cd13159984600c600484610d7e9190611711565b610d88919061177f565b604051610d959190611964565b60405180910390a1610de18560085f9054906101000a900473ffffffffffffffffffffffffffffffffffffffff16600c600186610dd29190611711565b610ddc919061177f565b610aa5565b7f6e232b0acf46272dacf889af6767574775a324b133d42b3b8cffa9cd13159984600c600184610e119190611711565b610e1b919061177f565b604051610e2891906119da565b60405180910390a1610e748560095f9054906101000a900473ffffffffffffffffffffffffffffffffffffffff16600c600486610e659190611711565b610e6f919061177f565b610aa5565b7f6e232b0acf46272dacf889af6767574775a324b133d42b3b8cffa9cd13159984600c600484610ea49190611711565b610eae919061177f565b604051610ebb9190611a50565b60405180910390a1610f0785600a5f9054906101000a900473ffffffffffffffffffffffffffffffffffffffff16600c600386610ef89190611711565b610f02919061177f565b610aa5565b7f6e232b0acf46272dacf889af6767574775a324b133d42b3b8cffa9cd13159984600c600384610f379190611711565b610f41919061177f565b604051610f4e9190611ac6565b60405180910390a1610f61858583610aa5565b5050505050565b5f73ffffffffffffffffffffffffffffffffffffffff168473ffffffffffffffffffffffffffffffffffffffff1603610fd8575f6040517fe602df05000000000000000000000000000000000000000000000000000000008152600401610fcf91906113c0565b60405180910390fd5b5f73ffffffffffffffffffffffffffffffffffffffff168373ffffffffffffffffffffffffffffffffffffffff1603611048575f6040517f94280d6200000000000000000000000000000000000000000000000000000000815260040161103f91906113c0565b60405180910390fd5b8160015f8673ffffffffffffffffffffffffffffffffffffffff1673ffffffffffffffffffffffffffffffffffffffff1681526020019081526020015f205f8573ffffffffffffffffffffffffffffffffffffffff1673ffffffffffffffffffffffffffffffffffffffff1681526020019081526020015f20819055508015611131578273ffffffffffffffffffffffffffffffffffffffff168473ffffffffffffffffffffffffffffffffffffffff167f8c5be1e5ebec7d5bd14f71427d1e84f3dd0314c0f7b2291e5b200ac8c7c3b925846040516111289190611368565b60405180910390a35b50505050565b5f73ffffffffffffffffffffffffffffffffffffffff168373ffffffffffffffffffffffffffffffffffffffff1603611187578060025f82825461117b91906117af565b92505081905550611255565b5f805f8573ffffffffffffffffffffffffffffffffffffffff1673ffffffffffffffffffffffffffffffffffffffff1681526020019081526020015f2054905081811015611210578381836040517fe450d38c000000000000000000000000000000000000000000000000000000008152600401611207939291906118b2565b60405180910390fd5b8181035f808673ffffffffffffffffffffffffffffffffffffffff1673ffffffffffffffffffffffffffffffffffffffff1681526020019081526020015f2081905550505b5f73ffffffffffffffffffffffffffffffffffffffff168273ffffffffffffffffffffffffffffffffffffffff160361129c578060025f82825403925050819055506112e6565b805f808473ffffffffffffffffffffffffffffffffffffffff1673ffffffffffffffffffffffffffffffffffffffff1681526020019081526020015f205f82825401925050819055505b8173ffffffffffffffffffffffffffffffffffffffff168373ffffffffffffffffffffffffffffffffffffffff167fddf252ad1be2c89b69c2b068fc378daa952ba7f163c4a11628f55a4df523b3ef836040516113439190611368565b60405180910390a3505050565b5f819050919050565b61136281611350565b82525050565b5f60208201905061137b5f830184611359565b92915050565b5f73ffffffffffffffffffffffffffffffffffffffff82169050919050565b5f6113aa82611381565b9050919050565b6113ba816113a0565b82525050565b5f6020820190506113d35f8301846113b1565b92915050565b5f81519050919050565b5f82825260208201905092915050565b8281835e5f83830152505050565b5f601f19601f8301169050919050565b5f61141b826113d9565b61142581856113e3565b93506114358185602086016113f3565b61143e81611401565b840191505092915050565b5f6020820190508181035f8301526114618184611411565b905092915050565b5f80fd5b611476816113a0565b8114611480575f80fd5b50565b5f813590506114918161146d565b92915050565b6114a081611350565b81146114aa575f80fd5b50565b5f813590506114bb81611497565b92915050565b5f80604083850312156114d7576114d6611469565b5b5f6114e485828601611483565b92505060206114f5858286016114ad565b9150509250929050565b5f8115159050919050565b611513816114ff565b82525050565b5f60208201905061152c5f83018461150a565b92915050565b5f805f6060848603121561154957611548611469565b5b5f61155686828701611483565b935050602061156786828701611483565b9250506040611578868287016114ad565b9150509250925092565b5f60ff82169050919050565b61159781611582565b82525050565b5f6020820190506115b05f83018461158e565b92915050565b5f602082840312156115cb576115ca611469565b5b5f6115d884828501611483565b91505092915050565b6115ea816114ff565b81146115f4575f80fd5b50565b5f81359050611605816115e1565b92915050565b5f806040838503121561162157611620611469565b5b5f61162e85828601611483565b925050602061163f858286016115f7565b9150509250929050565b5f806040838503121561165f5761165e611469565b5b5f61166c85828601611483565b925050602061167d85828601611483565b9150509250929050565b7f4e487b71000000000000000000000000000000000000000000000000000000005f52602260045260245ffd5b5f60028204905060018216806116cb57607f821691505b6020821081036116de576116dd611687565b5b50919050565b7f4e487b71000000000000000000000000000000000000000000000000000000005f52601160045260245ffd5b5f61171b82611350565b915061172683611350565b925082820261173481611350565b9150828204841483151761174b5761174a6116e4565b5b5092915050565b7f4e487b71000000000000000000000000000000000000000000000000000000005f52601260045260245ffd5b5f61178982611350565b915061179483611350565b9250826117a4576117a3611752565b5b828204905092915050565b5f6117b982611350565b91506117c483611350565b92508282019050808211156117dc576117db6116e4565b5b92915050565b7f45786365656473206d61782077616c6c6574206c696d697400000000000000005f82015250565b5f6118166018836113e3565b9150611821826117e2565b602082019050919050565b5f6020820190508181035f8301526118438161180a565b9050919050565b7f45786365656473206d6178207472616e73616374696f6e206c696d69740000005f82015250565b5f61187e601d836113e3565b91506118898261184a565b602082019050919050565b5f6020820190508181035f8301526118ab81611872565b9050919050565b5f6060820190506118c55f8301866113b1565b6118d26020830185611359565b6118df6040830184611359565b949350505050565b5f6118f182611350565b91506118fc83611350565b9250828203905081811115611914576119136116e4565b5b92915050565b7f456e636f75726167656d656e742046756e6400000000000000000000000000005f82015250565b5f61194e6012836113e3565b91506119598261191a565b602082019050919050565b5f6040820190506119775f830184611359565b818103602083015261198881611942565b905092915050565b7f456d657267656e63792046756e640000000000000000000000000000000000005f82015250565b5f6119c4600e836113e3565b91506119cf82611990565b602082019050919050565b5f6040820190506119ed5f830184611359565b81810360208301526119fe816119b8565b905092915050565b7f4d61726b6574696e6700000000000000000000000000000000000000000000005f82015250565b5f611a3a6009836113e3565b9150611a4582611a06565b602082019050919050565b5f604082019050611a635f830184611359565b8181036020830152611a7481611a2e565b905092915050565b7f5374616b696e67000000000000000000000000000000000000000000000000005f82015250565b5f611ab06007836113e3565b9150611abb82611a7c565b602082019050919050565b5f604082019050611ad95f830184611359565b8181036020830152611aea81611aa4565b90509291505056fea26469706673582212202f539147d1aa460302257203a4071938a6c19322fd2fb02c721b1379cff1ac1064736f6c634300081a0033",
			"opcodes": "PUSH1 0x80 PUSH1 0x40 MSTORE CALLVALUE DUP1 ISZERO PUSH2 0xF JUMPI PUSH0 DUP1 REVERT JUMPDEST POP PUSH1 0x40 MLOAD PUSH2 0x2607 CODESIZE SUB DUP1 PUSH2 0x2607 DUP4 CODECOPY DUP2 DUP2 ADD PUSH1 0x40 MSTORE DUP2 ADD SWAP1 PUSH2 0x31 SWAP2 SWAP1 PUSH2 0x680 JUMP JUMPDEST CALLER PUSH1 0x40 MLOAD DUP1 PUSH1 0x40 ADD PUSH1 0x40 MSTORE DUP1 PUSH1 0xA DUP2 MSTORE PUSH1 0x20 ADD PUSH32 0x5845414D20546F6B656E00000000000000000000000000000000000000000000 DUP2 MSTORE POP PUSH1 0x40 MLOAD DUP1 PUSH1 0x40 ADD PUSH1 0x40 MSTORE DUP1 PUSH1 0x4 DUP2 MSTORE PUSH1 0x20 ADD PUSH32 0x5845414D00000000000000000000000000000000000000000000000000000000 DUP2 MSTORE POP DUP2 PUSH1 0x3 SWAP1 DUP2 PUSH2 0xAD SWAP2 SWAP1 PUSH2 0x91E JUMP JUMPDEST POP DUP1 PUSH1 0x4 SWAP1 DUP2 PUSH2 0xBD SWAP2 SWAP1 PUSH2 0x91E JUMP JUMPDEST POP POP POP PUSH0 PUSH20 0xFFFFFFFFFFFFFFFFFFFFFFFFFFFFFFFFFFFFFFFF AND DUP2 PUSH20 0xFFFFFFFFFFFFFFFFFFFFFFFFFFFFFFFFFFFFFFFF AND SUB PUSH2 0x130 JUMPI PUSH0 PUSH1 0x40 MLOAD PUSH32 0x1E4FBDF700000000000000000000000000000000000000000000000000000000 DUP2 MSTORE PUSH1 0x4 ADD PUSH2 0x127 SWAP2 SWAP1 PUSH2 0x9FC JUMP JUMPDEST PUSH1 0x40 MLOAD DUP1 SWAP2 SUB SWAP1 REVERT JUMPDEST PUSH2 0x13F DUP2 PUSH2 0x2C1 PUSH1 0x20 SHL PUSH1 0x20 SHR JUMP JUMPDEST POP PUSH1 0x1 PUSH1 0x6 DUP2 SWAP1 SSTORE POP DUP4 PUSH1 0x7 PUSH0 PUSH2 0x100 EXP DUP2 SLOAD DUP2 PUSH20 0xFFFFFFFFFFFFFFFFFFFFFFFFFFFFFFFFFFFFFFFF MUL NOT AND SWAP1 DUP4 PUSH20 0xFFFFFFFFFFFFFFFFFFFFFFFFFFFFFFFFFFFFFFFF AND MUL OR SWAP1 SSTORE POP DUP3 PUSH1 0x8 PUSH0 PUSH2 0x100 EXP DUP2 SLOAD DUP2 PUSH20 0xFFFFFFFFFFFFFFFFFFFFFFFFFFFFFFFFFFFFFFFF MUL NOT AND SWAP1 DUP4 PUSH20 0xFFFFFFFFFFFFFFFFFFFFFFFFFFFFFFFFFFFFFFFF AND MUL OR SWAP1 SSTORE POP DUP2 PUSH1 0x9 PUSH0 PUSH2 0x100 EXP DUP2 SLOAD DUP2 PUSH20 0xFFFFFFFFFFFFFFFFFFFFFFFFFFFFFFFFFFFFFFFF MUL NOT AND SWAP1 DUP4 PUSH20 0xFFFFFFFFFFFFFFFFFFFFFFFFFFFFFFFFFFFFFFFF AND MUL OR SWAP1 SSTORE POP DUP1 PUSH1 0xA PUSH0 PUSH2 0x100 EXP DUP2 SLOAD DUP2 PUSH20 0xFFFFFFFFFFFFFFFFFFFFFFFFFFFFFFFFFFFFFFFF MUL NOT AND SWAP1 DUP4 PUSH20 0xFFFFFFFFFFFFFFFFFFFFFFFFFFFFFFFFFFFFFFFF AND MUL OR SWAP1 SSTORE POP PUSH2 0x263 CALLER PUSH11 0x1A784379D99DB42000000 PUSH2 0x384 PUSH1 0x20 SHL PUSH1 0x20 SHR JUMP JUMPDEST PUSH1 0x1 PUSH1 0xB PUSH0 CALLER PUSH20 0xFFFFFFFFFFFFFFFFFFFFFFFFFFFFFFFFFFFFFFFF AND PUSH20 0xFFFFFFFFFFFFFFFFFFFFFFFFFFFFFFFFFFFFFFFF AND DUP2 MSTORE PUSH1 0x20 ADD SWAP1 DUP2 MSTORE PUSH1 0x20 ADD PUSH0 KECCAK256 PUSH0 PUSH2 0x100 EXP DUP2 SLOAD DUP2 PUSH1 0xFF MUL NOT AND SWAP1 DUP4 ISZERO ISZERO MUL OR SWAP1 SSTORE POP POP POP POP POP PUSH2 0xAD2 JUMP JUMPDEST PUSH0 PUSH1 0x5 PUSH0 SWAP1 SLOAD SWAP1 PUSH2 0x100 EXP SWAP1 DIV PUSH20 0xFFFFFFFFFFFFFFFFFFFFFFFFFFFFFFFFFFFFFFFF AND SWAP1 POP DUP2 PUSH1 0x5 PUSH0 PUSH2 0x100 EXP DUP2 SLOAD DUP2 PUSH20 0xFFFFFFFFFFFFFFFFFFFFFFFFFFFFFFFFFFFFFFFF MUL NOT AND SWAP1 DUP4 PUSH20 0xFFFFFFFFFFFFFFFFFFFFFFFFFFFFFFFFFFFFFFFF AND MUL OR SWAP1 SSTORE POP DUP2 PUSH20 0xFFFFFFFFFFFFFFFFFFFFFFFFFFFFFFFFFFFFFFFF AND DUP2 PUSH20 0xFFFFFFFFFFFFFFFFFFFFFFFFFFFFFFFFFFFFFFFF AND PUSH32 0x8BE0079C531659141344CD1FD0A4F28419497F9722A3DAAFE3B4186F6B6457E0 PUSH1 0x40 MLOAD PUSH1 0x40 MLOAD DUP1 SWAP2 SUB SWAP1 LOG3 POP POP JUMP JUMPDEST PUSH0 PUSH20 0xFFFFFFFFFFFFFFFFFFFFFFFFFFFFFFFFFFFFFFFF AND DUP3 PUSH20 0xFFFFFFFFFFFFFFFFFFFFFFFFFFFFFFFFFFFFFFFF AND SUB PUSH2 0x3F4 JUMPI PUSH0 PUSH1 0x40 MLOAD PUSH32 0xEC442F0500000000000000000000000000000000000000000000000000000000 DUP2 MSTORE PUSH1 0x4 ADD PUSH2 0x3EB SWAP2 SWAP1 PUSH2 0x9FC JUMP JUMPDEST PUSH1 0x40 MLOAD DUP1 SWAP2 SUB SWAP1 REVERT JUMPDEST PUSH2 0x405 PUSH0 DUP4 DUP4 PUSH2 0x409 PUSH1 0x20 SHL PUSH1 0x20 SHR JUMP JUMPDEST POP POP JUMP JUMPDEST PUSH0 PUSH20 0xFFFFFFFFFFFFFFFFFFFFFFFFFFFFFFFFFFFFFFFF AND DUP4 PUSH20 0xFFFFFFFFFFFFFFFFFFFFFFFFFFFFFFFFFFFFFFFF AND SUB PUSH2 0x459 JUMPI DUP1 PUSH1 0x2 PUSH0 DUP3 DUP3 SLOAD PUSH2 0x44D SWAP2 SWAP1 PUSH2 0xA42 JUMP JUMPDEST SWAP3 POP POP DUP2 SWAP1 SSTORE POP PUSH2 0x527 JUMP JUMPDEST PUSH0 DUP1 PUSH0 DUP6 PUSH20 0xFFFFFFFFFFFFFFFFFFFFFFFFFFFFFFFFFFFFFFFF AND PUSH20 0xFFFFFFFFFFFFFFFFFFFFFFFFFFFFFFFFFFFFFFFF AND DUP2 MSTORE PUSH1 0x20 ADD SWAP1 DUP2 MSTORE PUSH1 0x20 ADD PUSH0 KECCAK256 SLOAD SWAP1 POP DUP2 DUP2 LT ISZERO PUSH2 0x4E2 JUMPI DUP4 DUP2 DUP4 PUSH1 0x40 MLOAD PUSH32 0xE450D38C00000000000000000000000000000000000000000000000000000000 DUP2 MSTORE PUSH1 0x4 ADD PUSH2 0x4D9 SWAP4 SWAP3 SWAP2 SWAP1 PUSH2 0xA84 JUMP JUMPDEST PUSH1 0x40 MLOAD DUP1 SWAP2 SUB SWAP1 REVERT JUMPDEST DUP2 DUP2 SUB PUSH0 DUP1 DUP7 PUSH20 0xFFFFFFFFFFFFFFFFFFFFFFFFFFFFFFFFFFFFFFFF AND PUSH20 0xFFFFFFFFFFFFFFFFFFFFFFFFFFFFFFFFFFFFFFFF AND DUP2 MSTORE PUSH1 0x20 ADD SWAP1 DUP2 MSTORE PUSH1 0x20 ADD PUSH0 KECCAK256 DUP2 SWAP1 SSTORE POP POP JUMPDEST PUSH0 PUSH20 0xFFFFFFFFFFFFFFFFFFFFFFFFFFFFFFFFFFFFFFFF AND DUP3 PUSH20 0xFFFFFFFFFFFFFFFFFFFFFFFFFFFFFFFFFFFFFFFF AND SUB PUSH2 0x56E JUMPI DUP1 PUSH1 0x2 PUSH0 DUP3 DUP3 SLOAD SUB SWAP3 POP POP DUP2 SWAP1 SSTORE POP PUSH2 0x5B8 JUMP JUMPDEST DUP1 PUSH0 DUP1 DUP5 PUSH20 0xFFFFFFFFFFFFFFFFFFFFFFFFFFFFFFFFFFFFFFFF AND PUSH20 0xFFFFFFFFFFFFFFFFFFFFFFFFFFFFFFFFFFFFFFFF AND DUP2 MSTORE PUSH1 0x20 ADD SWAP1 DUP2 MSTORE PUSH1 0x20 ADD PUSH0 KECCAK256 PUSH0 DUP3 DUP3 SLOAD ADD SWAP3 POP POP DUP2 SWAP1 SSTORE POP JUMPDEST DUP2 PUSH20 0xFFFFFFFFFFFFFFFFFFFFFFFFFFFFFFFFFFFFFFFF AND DUP4 PUSH20 0xFFFFFFFFFFFFFFFFFFFFFFFFFFFFFFFFFFFFFFFF AND PUSH32 0xDDF252AD1BE2C89B69C2B068FC378DAA952BA7F163C4A11628F55A4DF523B3EF DUP4 PUSH1 0x40 MLOAD PUSH2 0x615 SWAP2 SWAP1 PUSH2 0xAB9 JUMP JUMPDEST PUSH1 0x40 MLOAD DUP1 SWAP2 SUB SWAP1 LOG3 POP POP POP JUMP JUMPDEST PUSH0 DUP1 REVERT JUMPDEST PUSH0 PUSH20 0xFFFFFFFFFFFFFFFFFFFFFFFFFFFFFFFFFFFFFFFF DUP3 AND SWAP1 POP SWAP2 SWAP1 POP JUMP JUMPDEST PUSH0 PUSH2 0x64F DUP3 PUSH2 0x626 JUMP JUMPDEST SWAP1 POP SWAP2 SWAP1 POP JUMP JUMPDEST PUSH2 0x65F DUP2 PUSH2 0x645 JUMP JUMPDEST DUP2 EQ PUSH2 0x669 JUMPI PUSH0 DUP1 REVERT JUMPDEST POP JUMP JUMPDEST PUSH0 DUP2 MLOAD SWAP1 POP PUSH2 0x67A DUP2 PUSH2 0x656 JUMP JUMPDEST SWAP3 SWAP2 POP POP JUMP JUMPDEST PUSH0 DUP1 PUSH0 DUP1 PUSH1 0x80 DUP6 DUP8 SUB SLT ISZERO PUSH2 0x698 JUMPI PUSH2 0x697 PUSH2 0x622 JUMP JUMPDEST JUMPDEST PUSH0 PUSH2 0x6A5 DUP8 DUP3 DUP9 ADD PUSH2 0x66C JUMP JUMPDEST SWAP5 POP POP PUSH1 0x20 PUSH2 0x6B6 DUP8 DUP3 DUP9 ADD PUSH2 0x66C JUMP JUMPDEST SWAP4 POP POP PUSH1 0x40 PUSH2 0x6C7 DUP8 DUP3 DUP9 ADD PUSH2 0x66C JUMP JUMPDEST SWAP3 POP POP PUSH1 0x60 PUSH2 0x6D8 DUP8 DUP3 DUP9 ADD PUSH2 0x66C JUMP JUMPDEST SWAP2 POP POP SWAP3 SWAP6 SWAP2 SWAP5 POP SWAP3 POP JUMP JUMPDEST PUSH0 DUP2 MLOAD SWAP1 POP SWAP2 SWAP1 POP JUMP JUMPDEST PUSH32 0x4E487B7100000000000000000000000000000000000000000000000000000000 PUSH0 MSTORE PUSH1 0x41 PUSH1 0x4 MSTORE PUSH1 0x24 PUSH0 REVERT JUMPDEST PUSH32 0x4E487B7100000000000000000000000000000000000000000000000000000000 PUSH0 MSTORE PUSH1 0x22 PUSH1 0x4 MSTORE PUSH1 0x24 PUSH0 REVERT JUMPDEST PUSH0 PUSH1 0x2 DUP3 DIV SWAP1 POP PUSH1 0x1 DUP3 AND DUP1 PUSH2 0x75F JUMPI PUSH1 0x7F DUP3 AND SWAP2 POP JUMPDEST PUSH1 0x20 DUP3 LT DUP2 SUB PUSH2 0x772 JUMPI PUSH2 0x771 PUSH2 0x71B JUMP JUMPDEST JUMPDEST POP SWAP2 SWAP1 POP JUMP JUMPDEST PUSH0 DUP2 SWAP1 POP DUP2 PUSH0 MSTORE PUSH1 0x20 PUSH0 KECCAK256 SWAP1 POP SWAP2 SWAP1 POP JUMP JUMPDEST PUSH0 PUSH1 0x20 PUSH1 0x1F DUP4 ADD DIV SWAP1 POP SWAP2 SWAP1 POP JUMP JUMPDEST PUSH0 DUP3 DUP3 SHL SWAP1 POP SWAP3 SWAP2 POP POP JUMP JUMPDEST PUSH0 PUSH1 0x8 DUP4 MUL PUSH2 0x7D4 PUSH32 0xFFFFFFFFFFFFFFFFFFFFFFFFFFFFFFFFFFFFFFFFFFFFFFFFFFFFFFFFFFFFFFFF DUP3 PUSH2 0x799 JUMP JUMPDEST PUSH2 0x7DE DUP7 DUP4 PUSH2 0x799 JUMP JUMPDEST SWAP6 POP DUP1 NOT DUP5 AND SWAP4 POP DUP1 DUP7 AND DUP5 OR SWAP3 POP POP POP SWAP4 SWAP3 POP POP POP JUMP JUMPDEST PUSH0 DUP2 SWAP1 POP SWAP2 SWAP1 POP JUMP JUMPDEST PUSH0 DUP2 SWAP1 POP SWAP2 SWAP1 POP JUMP JUMPDEST PUSH0 PUSH2 0x822 PUSH2 0x81D PUSH2 0x818 DUP5 PUSH2 0x7F6 JUMP JUMPDEST PUSH2 0x7FF JUMP JUMPDEST PUSH2 0x7F6 JUMP JUMPDEST SWAP1 POP SWAP2 SWAP1 POP JUMP JUMPDEST PUSH0 DUP2 SWAP1 POP SWAP2 SWAP1 POP JUMP JUMPDEST PUSH2 0x83B DUP4 PUSH2 0x808 JUMP JUMPDEST PUSH2 0x84F PUSH2 0x847 DUP3 PUSH2 0x829 JUMP JUMPDEST DUP5 DUP5 SLOAD PUSH2 0x7A5 JUMP JUMPDEST DUP3 SSTORE POP POP POP POP JUMP JUMPDEST PUSH0 SWAP1 JUMP JUMPDEST PUSH2 0x863 PUSH2 0x857 JUMP JUMPDEST PUSH2 0x86E DUP2 DUP5 DUP5 PUSH2 0x832 JUMP JUMPDEST POP POP POP JUMP JUMPDEST JUMPDEST DUP2 DUP2 LT ISZERO PUSH2 0x891 JUMPI PUSH2 0x886 PUSH0 DUP3 PUSH2 0x85B JUMP JUMPDEST PUSH1 0x1 DUP2 ADD SWAP1 POP PUSH2 0x874 JUMP JUMPDEST POP POP JUMP JUMPDEST PUSH1 0x1F DUP3 GT ISZERO PUSH2 0x8D6 JUMPI PUSH2 0x8A7 DUP2 PUSH2 0x778 JUMP JUMPDEST PUSH2 0x8B0 DUP5 PUSH2 0x78A JUMP JUMPDEST DUP2 ADD PUSH1 0x20 DUP6 LT ISZERO PUSH2 0x8BF JUMPI DUP2 SWAP1 POP JUMPDEST PUSH2 0x8D3 PUSH2 0x8CB DUP6 PUSH2 0x78A JUMP JUMPDEST DUP4 ADD DUP3 PUSH2 0x873 JUMP JUMPDEST POP POP JUMPDEST POP POP POP JUMP JUMPDEST PUSH0 DUP3 DUP3 SHR SWAP1 POP SWAP3 SWAP2 POP POP JUMP JUMPDEST PUSH0 PUSH2 0x8F6 PUSH0 NOT DUP5 PUSH1 0x8 MUL PUSH2 0x8DB JUMP JUMPDEST NOT DUP1 DUP4 AND SWAP2 POP POP SWAP3 SWAP2 POP POP JUMP JUMPDEST PUSH0 PUSH2 0x90E DUP4 DUP4 PUSH2 0x8E7 JUMP JUMPDEST SWAP2 POP DUP3 PUSH1 0x2 MUL DUP3 OR SWAP1 POP SWAP3 SWAP2 POP POP JUMP JUMPDEST PUSH2 0x927 DUP3 PUSH2 0x6E4 JUMP JUMPDEST PUSH8 0xFFFFFFFFFFFFFFFF DUP2 GT ISZERO PUSH2 0x940 JUMPI PUSH2 0x93F PUSH2 0x6EE JUMP JUMPDEST JUMPDEST PUSH2 0x94A DUP3 SLOAD PUSH2 0x748 JUMP JUMPDEST PUSH2 0x955 DUP3 DUP3 DUP6 PUSH2 0x895 JUMP JUMPDEST PUSH0 PUSH1 0x20 SWAP1 POP PUSH1 0x1F DUP4 GT PUSH1 0x1 DUP2 EQ PUSH2 0x986 JUMPI PUSH0 DUP5 ISZERO PUSH2 0x974 JUMPI DUP3 DUP8 ADD MLOAD SWAP1 POP JUMPDEST PUSH2 0x97E DUP6 DUP3 PUSH2 0x903 JUMP JUMPDEST DUP7 SSTORE POP PUSH2 0x9E5 JUMP JUMPDEST PUSH1 0x1F NOT DUP5 AND PUSH2 0x994 DUP7 PUSH2 0x778 JUMP JUMPDEST PUSH0 JUMPDEST DUP3 DUP2 LT ISZERO PUSH2 0x9BB JUMPI DUP5 DUP10 ADD MLOAD DUP3 SSTORE PUSH1 0x1 DUP3 ADD SWAP2 POP PUSH1 0x20 DUP6 ADD SWAP5 POP PUSH1 0x20 DUP2 ADD SWAP1 POP PUSH2 0x996 JUMP JUMPDEST DUP7 DUP4 LT ISZERO PUSH2 0x9D8 JUMPI DUP5 DUP10 ADD MLOAD PUSH2 0x9D4 PUSH1 0x1F DUP10 AND DUP3 PUSH2 0x8E7 JUMP JUMPDEST DUP4 SSTORE POP JUMPDEST PUSH1 0x1 PUSH1 0x2 DUP9 MUL ADD DUP9 SSTORE POP POP POP JUMPDEST POP POP POP POP POP POP JUMP JUMPDEST PUSH2 0x9F6 DUP2 PUSH2 0x645 JUMP JUMPDEST DUP3 MSTORE POP POP JUMP JUMPDEST PUSH0 PUSH1 0x20 DUP3 ADD SWAP1 POP PUSH2 0xA0F PUSH0 DUP4 ADD DUP5 PUSH2 0x9ED JUMP JUMPDEST SWAP3 SWAP2 POP POP JUMP JUMPDEST PUSH32 0x4E487B7100000000000000000000000000000000000000000000000000000000 PUSH0 MSTORE PUSH1 0x11 PUSH1 0x4 MSTORE PUSH1 0x24 PUSH0 REVERT JUMPDEST PUSH0 PUSH2 0xA4C DUP3 PUSH2 0x7F6 JUMP JUMPDEST SWAP2 POP PUSH2 0xA57 DUP4 PUSH2 0x7F6 JUMP JUMPDEST SWAP3 POP DUP3 DUP3 ADD SWAP1 POP DUP1 DUP3 GT ISZERO PUSH2 0xA6F JUMPI PUSH2 0xA6E PUSH2 0xA15 JUMP JUMPDEST JUMPDEST SWAP3 SWAP2 POP POP JUMP JUMPDEST PUSH2 0xA7E DUP2 PUSH2 0x7F6 JUMP JUMPDEST DUP3 MSTORE POP POP JUMP JUMPDEST PUSH0 PUSH1 0x60 DUP3 ADD SWAP1 POP PUSH2 0xA97 PUSH0 DUP4 ADD DUP7 PUSH2 0x9ED JUMP JUMPDEST PUSH2 0xAA4 PUSH1 0x20 DUP4 ADD DUP6 PUSH2 0xA75 JUMP JUMPDEST PUSH2 0xAB1 PUSH1 0x40 DUP4 ADD DUP5 PUSH2 0xA75 JUMP JUMPDEST SWAP5 SWAP4 POP POP POP POP JUMP JUMPDEST PUSH0 PUSH1 0x20 DUP3 ADD SWAP1 POP PUSH2 0xACC PUSH0 DUP4 ADD DUP5 PUSH2 0xA75 JUMP JUMPDEST SWAP3 SWAP2 POP POP JUMP JUMPDEST PUSH2 0x1B28 DUP1 PUSH2 0xADF PUSH0 CODECOPY PUSH0 RETURN INVALID PUSH1 0x80 PUSH1 0x40 MSTORE CALLVALUE DUP1 ISZERO PUSH2 0xF JUMPI PUSH0 DUP1 REVERT JUMPDEST POP PUSH1 0x4 CALLDATASIZE LT PUSH2 0x156 JUMPI PUSH0 CALLDATALOAD PUSH1 0xE0 SHR DUP1 PUSH4 0x70A08231 GT PUSH2 0xC1 JUMPI DUP1 PUSH4 0xA9059CBB GT PUSH2 0x7A JUMPI DUP1 PUSH4 0xA9059CBB EQ PUSH2 0x3A8 JUMPI DUP1 PUSH4 0xCC859378 EQ PUSH2 0x3D8 JUMPI DUP1 PUSH4 0xDD62ED3E EQ PUSH2 0x3F6 JUMPI DUP1 PUSH4 0xDF7787A4 EQ PUSH2 0x426 JUMPI DUP1 PUSH4 0xF2FDE38B EQ PUSH2 0x444 JUMPI DUP1 PUSH4 0xF3B2DB3F EQ PUSH2 0x460 JUMPI PUSH2 0x156 JUMP JUMPDEST DUP1 PUSH4 0x70A08231 EQ PUSH2 0x2F8 JUMPI DUP1 PUSH4 0x715018A6 EQ PUSH2 0x328 JUMPI DUP1 PUSH4 0x753CAFC3 EQ PUSH2 0x332 JUMPI DUP1 PUSH4 0x75F0A874 EQ PUSH2 0x34E JUMPI DUP1 PUSH4 0x8DA5CB5B EQ PUSH2 0x36C JUMPI DUP1 PUSH4 0x95D89B41 EQ PUSH2 0x38A JUMPI PUSH2 0x156 JUMP JUMPDEST DUP1 PUSH4 0x2FF2E9DC GT PUSH2 0x113 JUMPI DUP1 PUSH4 0x2FF2E9DC EQ PUSH2 0x232 JUMPI DUP1 PUSH4 0x313CE567 EQ PUSH2 0x250 JUMPI DUP1 PUSH4 0x36B4134A EQ PUSH2 0x26E JUMPI DUP1 PUSH4 0x4FBEE193 EQ PUSH2 0x28C JUMPI DUP1 PUSH4 0x52A6A9EC EQ PUSH2 0x2BC JUMPI DUP1 PUSH4 0x54AD8AEE EQ PUSH2 0x2DA JUMPI PUSH2 0x156 JUMP JUMPDEST DUP1 PUSH4 0x2AF37BB EQ PUSH2 0x15A JUMPI DUP1 PUSH4 0x6EE6AD8 EQ PUSH2 0x178 JUMPI DUP1 PUSH4 0x6FDDE03 EQ PUSH2 0x196 JUMPI DUP1 PUSH4 0x95EA7B3 EQ PUSH2 0x1B4 JUMPI DUP1 PUSH4 0x18160DDD EQ PUSH2 0x1E4 JUMPI DUP1 PUSH4 0x23B872DD EQ PUSH2 0x202 JUMPI JUMPDEST PUSH0 DUP1 REVERT JUMPDEST PUSH2 0x162 PUSH2 0x47E JUMP JUMPDEST PUSH1 0x40 MLOAD PUSH2 0x16F SWAP2 SWAP1 PUSH2 0x1368 JUMP JUMPDEST PUSH1 0x40 MLOAD DUP1 SWAP2 SUB SWAP1 RETURN JUMPDEST PUSH2 0x180 PUSH2 0x483 JUMP JUMPDEST PUSH1 0x40 MLOAD PUSH2 0x18D SWAP2 SWAP1 PUSH2 0x13C0 JUMP JUMPDEST PUSH1 0x40 MLOAD DUP1 SWAP2 SUB SWAP1 RETURN JUMPDEST PUSH2 0x19E PUSH2 0x4A8 JUMP JUMPDEST PUSH1 0x40 MLOAD PUSH2 0x1AB SWAP2 SWAP1 PUSH2 0x1449 JUMP JUMPDEST PUSH1 0x40 MLOAD DUP1 SWAP2 SUB SWAP1 RETURN JUMPDEST PUSH2 0x1CE PUSH1 0x4 DUP1 CALLDATASIZE SUB DUP2 ADD SWAP1 PUSH2 0x1C9 SWAP2 SWAP1 PUSH2 0x14C1 JUMP JUMPDEST PUSH2 0x538 JUMP JUMPDEST PUSH1 0x40 MLOAD PUSH2 0x1DB SWAP2 SWAP1 PUSH2 0x1519 JUMP JUMPDEST PUSH1 0x40 MLOAD DUP1 SWAP2 SUB SWAP1 RETURN JUMPDEST PUSH2 0x1EC PUSH2 0x55A JUMP JUMPDEST PUSH1 0x40 MLOAD PUSH2 0x1F9 SWAP2 SWAP1 PUSH2 0x1368 JUMP JUMPDEST PUSH1 0x40 MLOAD DUP1 SWAP2 SUB SWAP1 RETURN JUMPDEST PUSH2 0x21C PUSH1 0x4 DUP1 CALLDATASIZE SUB DUP2 ADD SWAP1 PUSH2 0x217 SWAP2 SWAP1 PUSH2 0x1532 JUMP JUMPDEST PUSH2 0x563 JUMP JUMPDEST PUSH1 0x40 MLOAD PUSH2 0x229 SWAP2 SWAP1 PUSH2 0x1519 JUMP JUMPDEST PUSH1 0x40 MLOAD DUP1 SWAP2 SUB SWAP1 RETURN JUMPDEST PUSH2 0x23A PUSH2 0x591 JUMP JUMPDEST PUSH1 0x40 MLOAD PUSH2 0x247 SWAP2 SWAP1 PUSH2 0x1368 JUMP JUMPDEST PUSH1 0x40 MLOAD DUP1 SWAP2 SUB SWAP1 RETURN JUMPDEST PUSH2 0x258 PUSH2 0x5A0 JUMP JUMPDEST PUSH1 0x40 MLOAD PUSH2 0x265 SWAP2 SWAP1 PUSH2 0x159D JUMP JUMPDEST PUSH1 0x40 MLOAD DUP1 SWAP2 SUB SWAP1 RETURN JUMPDEST PUSH2 0x276 PUSH2 0x5A8 JUMP JUMPDEST PUSH1 0x40 MLOAD PUSH2 0x283 SWAP2 SWAP1 PUSH2 0x1368 JUMP JUMPDEST PUSH1 0x40 MLOAD DUP1 SWAP2 SUB SWAP1 RETURN JUMPDEST PUSH2 0x2A6 PUSH1 0x4 DUP1 CALLDATASIZE SUB DUP2 ADD SWAP1 PUSH2 0x2A1 SWAP2 SWAP1 PUSH2 0x15B6 JUMP JUMPDEST PUSH2 0x5AD JUMP JUMPDEST PUSH1 0x40 MLOAD PUSH2 0x2B3 SWAP2 SWAP1 PUSH2 0x1519 JUMP JUMPDEST PUSH1 0x40 MLOAD DUP1 SWAP2 SUB SWAP1 RETURN JUMPDEST PUSH2 0x2C4 PUSH2 0x5CA JUMP JUMPDEST PUSH1 0x40 MLOAD PUSH2 0x2D1 SWAP2 SWAP1 PUSH2 0x13C0 JUMP JUMPDEST PUSH1 0x40 MLOAD DUP1 SWAP2 SUB SWAP1 RETURN JUMPDEST PUSH2 0x2E2 PUSH2 0x5EF JUMP JUMPDEST PUSH1 0x40 MLOAD PUSH2 0x2EF SWAP2 SWAP1 PUSH2 0x1368 JUMP JUMPDEST PUSH1 0x40 MLOAD DUP1 SWAP2 SUB SWAP1 RETURN JUMPDEST PUSH2 0x312 PUSH1 0x4 DUP1 CALLDATASIZE SUB DUP2 ADD SWAP1 PUSH2 0x30D SWAP2 SWAP1 PUSH2 0x15B6 JUMP JUMPDEST PUSH2 0x5F4 JUMP JUMPDEST PUSH1 0x40 MLOAD PUSH2 0x31F SWAP2 SWAP1 PUSH2 0x1368 JUMP JUMPDEST PUSH1 0x40 MLOAD DUP1 SWAP2 SUB SWAP1 RETURN JUMPDEST PUSH2 0x330 PUSH2 0x639 JUMP JUMPDEST STOP JUMPDEST PUSH2 0x34C PUSH1 0x4 DUP1 CALLDATASIZE SUB DUP2 ADD SWAP1 PUSH2 0x347 SWAP2 SWAP1 PUSH2 0x160B JUMP JUMPDEST PUSH2 0x64C JUMP JUMPDEST STOP JUMPDEST PUSH2 0x356 PUSH2 0x6AC JUMP JUMPDEST PUSH1 0x40 MLOAD PUSH2 0x363 SWAP2 SWAP1 PUSH2 0x13C0 JUMP JUMPDEST PUSH1 0x40 MLOAD DUP1 SWAP2 SUB SWAP1 RETURN JUMPDEST PUSH2 0x374 PUSH2 0x6D1 JUMP JUMPDEST PUSH1 0x40 MLOAD PUSH2 0x381 SWAP2 SWAP1 PUSH2 0x13C0 JUMP JUMPDEST PUSH1 0x40 MLOAD DUP1 SWAP2 SUB SWAP1 RETURN JUMPDEST PUSH2 0x392 PUSH2 0x6F9 JUMP JUMPDEST PUSH1 0x40 MLOAD PUSH2 0x39F SWAP2 SWAP1 PUSH2 0x1449 JUMP JUMPDEST PUSH1 0x40 MLOAD DUP1 SWAP2 SUB SWAP1 RETURN JUMPDEST PUSH2 0x3C2 PUSH1 0x4 DUP1 CALLDATASIZE SUB DUP2 ADD SWAP1 PUSH2 0x3BD SWAP2 SWAP1 PUSH2 0x14C1 JUMP JUMPDEST PUSH2 0x789 JUMP JUMPDEST PUSH1 0x40 MLOAD PUSH2 0x3CF SWAP2 SWAP1 PUSH2 0x1519 JUMP JUMPDEST PUSH1 0x40 MLOAD DUP1 SWAP2 SUB SWAP1 RETURN JUMPDEST PUSH2 0x3E0 PUSH2 0x87F JUMP JUMPDEST PUSH1 0x40 MLOAD PUSH2 0x3ED SWAP2 SWAP1 PUSH2 0x13C0 JUMP JUMPDEST PUSH1 0x40 MLOAD DUP1 SWAP2 SUB SWAP1 RETURN JUMPDEST PUSH2 0x410 PUSH1 0x4 DUP1 CALLDATASIZE SUB DUP2 ADD SWAP1 PUSH2 0x40B SWAP2 SWAP1 PUSH2 0x1649 JUMP JUMPDEST PUSH2 0x8A4 JUMP JUMPDEST PUSH1 0x40 MLOAD PUSH2 0x41D SWAP2 SWAP1 PUSH2 0x1368 JUMP JUMPDEST PUSH1 0x40 MLOAD DUP1 SWAP2 SUB SWAP1 RETURN JUMPDEST PUSH2 0x42E PUSH2 0x926 JUMP JUMPDEST PUSH1 0x40 MLOAD PUSH2 0x43B SWAP2 SWAP1 PUSH2 0x1368 JUMP JUMPDEST PUSH1 0x40 MLOAD DUP1 SWAP2 SUB SWAP1 RETURN JUMPDEST PUSH2 0x45E PUSH1 0x4 DUP1 CALLDATASIZE SUB DUP2 ADD SWAP1 PUSH2 0x459 SWAP2 SWAP1 PUSH2 0x15B6 JUMP JUMPDEST PUSH2 0x94D JUMP JUMPDEST STOP JUMPDEST PUSH2 0x468 PUSH2 0x9D1 JUMP JUMPDEST PUSH1 0x40 MLOAD PUSH2 0x475 SWAP2 SWAP1 PUSH2 0x1368 JUMP JUMPDEST PUSH1 0x40 MLOAD DUP1 SWAP2 SUB SWAP1 RETURN JUMPDEST PUSH1 0xA DUP2 JUMP JUMPDEST PUSH1 0xA PUSH0 SWAP1 SLOAD SWAP1 PUSH2 0x100 EXP SWAP1 DIV PUSH20 0xFFFFFFFFFFFFFFFFFFFFFFFFFFFFFFFFFFFFFFFF AND DUP2 JUMP JUMPDEST PUSH1 0x60 PUSH1 0x3 DUP1 SLOAD PUSH2 0x4B7 SWAP1 PUSH2 0x16B4 JUMP JUMPDEST DUP1 PUSH1 0x1F ADD PUSH1 0x20 DUP1 SWAP2 DIV MUL PUSH1 0x20 ADD PUSH1 0x40 MLOAD SWAP1 DUP2 ADD PUSH1 0x40 MSTORE DUP1 SWAP3 SWAP2 SWAP1 DUP2 DUP2 MSTORE PUSH1 0x20 ADD DUP3 DUP1 SLOAD PUSH2 0x4E3 SWAP1 PUSH2 0x16B4 JUMP JUMPDEST DUP1 ISZERO PUSH2 0x52E JUMPI DUP1 PUSH1 0x1F LT PUSH2 0x505 JUMPI PUSH2 0x100 DUP1 DUP4 SLOAD DIV MUL DUP4 MSTORE SWAP2 PUSH1 0x20 ADD SWAP2 PUSH2 0x52E JUMP JUMPDEST DUP3 ADD SWAP2 SWAP1 PUSH0 MSTORE PUSH1 0x20 PUSH0 KECCAK256 SWAP1 JUMPDEST DUP2 SLOAD DUP2 MSTORE SWAP1 PUSH1 0x1 ADD SWAP1 PUSH1 0x20 ADD DUP1 DUP4 GT PUSH2 0x511 JUMPI DUP3 SWAP1 SUB PUSH1 0x1F AND DUP3 ADD SWAP2 JUMPDEST POP POP POP POP POP SWAP1 POP SWAP1 JUMP JUMPDEST PUSH0 DUP1 PUSH2 0x542 PUSH2 0x9F9 JUMP JUMPDEST SWAP1 POP PUSH2 0x54F DUP2 DUP6 DUP6 PUSH2 0xA00 JUMP JUMPDEST PUSH1 0x1 SWAP2 POP POP SWAP3 SWAP2 POP POP JUMP JUMPDEST PUSH0 PUSH1 0x2 SLOAD SWAP1 POP SWAP1 JUMP JUMPDEST PUSH0 DUP1 PUSH2 0x56D PUSH2 0x9F9 JUMP JUMPDEST SWAP1 POP PUSH2 0x57A DUP6 DUP3 DUP6 PUSH2 0xA12 JUMP JUMPDEST PUSH2 0x585 DUP6 DUP6 DUP6 PUSH2 0xAA5 JUMP JUMPDEST PUSH1 0x1 SWAP2 POP POP SWAP4 SWAP3 POP POP POP JUMP JUMPDEST PUSH11 0x1A784379D99DB42000000 DUP2 JUMP JUMPDEST PUSH0 PUSH1 0x12 SWAP1 POP SWAP1 JUMP JUMPDEST PUSH1 0xD DUP2 JUMP JUMPDEST PUSH1 0xB PUSH1 0x20 MSTORE DUP1 PUSH0 MSTORE PUSH1 0x40 PUSH0 KECCAK256 PUSH0 SWAP2 POP SLOAD SWAP1 PUSH2 0x100 EXP SWAP1 DIV PUSH1 0xFF AND DUP2 JUMP JUMPDEST PUSH1 0x7 PUSH0 SWAP1 SLOAD SWAP1 PUSH2 0x100 EXP SWAP1 DIV PUSH20 0xFFFFFFFFFFFFFFFFFFFFFFFFFFFFFFFFFFFFFFFF AND DUP2 JUMP JUMPDEST PUSH1 0xC DUP2 JUMP JUMPDEST PUSH0 DUP1 PUSH0 DUP4 PUSH20 0xFFFFFFFFFFFFFFFFFFFFFFFFFFFFFFFFFFFFFFFF AND PUSH20 0xFFFFFFFFFFFFFFFFFFFFFFFFFFFFFFFFFFFFFFFF AND DUP2 MSTORE PUSH1 0x20 ADD SWAP1 DUP2 MSTORE PUSH1 0x20 ADD PUSH0 KECCAK256 SLOAD SWAP1 POP SWAP2 SWAP1 POP JUMP JUMPDEST PUSH2 0x641 PUSH2 0xB95 JUMP JUMPDEST PUSH2 0x64A PUSH0 PUSH2 0xC1C JUMP JUMPDEST JUMP JUMPDEST PUSH2 0x654 PUSH2 0xB95 JUMP JUMPDEST DUP1 PUSH1 0xB PUSH0 DUP5 PUSH20 0xFFFFFFFFFFFFFFFFFFFFFFFFFFFFFFFFFFFFFFFF AND PUSH20 0xFFFFFFFFFFFFFFFFFFFFFFFFFFFFFFFFFFFFFFFF AND DUP2 MSTORE PUSH1 0x20 ADD SWAP1 DUP2 MSTORE PUSH1 0x20 ADD PUSH0 KECCAK256 PUSH0 PUSH2 0x100 EXP DUP2 SLOAD DUP2 PUSH1 0xFF MUL NOT AND SWAP1 DUP4 ISZERO ISZERO MUL OR SWAP1 SSTORE POP POP POP JUMP JUMPDEST PUSH1 0x9 PUSH0 SWAP1 SLOAD SWAP1 PUSH2 0x100 EXP SWAP1 DIV PUSH20 0xFFFFFFFFFFFFFFFFFFFFFFFFFFFFFFFFFFFFFFFF AND DUP2 JUMP JUMPDEST PUSH0 PUSH1 0x5 PUSH0 SWAP1 SLOAD SWAP1 PUSH2 0x100 EXP SWAP1 DIV PUSH20 0xFFFFFFFFFFFFFFFFFFFFFFFFFFFFFFFFFFFFFFFF AND SWAP1 POP SWAP1 JUMP JUMPDEST PUSH1 0x60 PUSH1 0x4 DUP1 SLOAD PUSH2 0x708 SWAP1 PUSH2 0x16B4 JUMP JUMPDEST DUP1 PUSH1 0x1F ADD PUSH1 0x20 DUP1 SWAP2 DIV MUL PUSH1 0x20 ADD PUSH1 0x40 MLOAD SWAP1 DUP2 ADD PUSH1 0x40 MSTORE DUP1 SWAP3 SWAP2 SWAP1 DUP2 DUP2 MSTORE PUSH1 0x20 ADD DUP3 DUP1 SLOAD PUSH2 0x734 SWAP1 PUSH2 0x16B4 JUMP JUMPDEST DUP1 ISZERO PUSH2 0x77F JUMPI DUP1 PUSH1 0x1F LT PUSH2 0x756 JUMPI PUSH2 0x100 DUP1 DUP4 SLOAD DIV MUL DUP4 MSTORE SWAP2 PUSH1 0x20 ADD SWAP2 PUSH2 0x77F JUMP JUMPDEST DUP3 ADD SWAP2 SWAP1 PUSH0 MSTORE PUSH1 0x20 PUSH0 KECCAK256 SWAP1 JUMPDEST DUP2 SLOAD DUP2 MSTORE SWAP1 PUSH1 0x1 ADD SWAP1 PUSH1 0x20 ADD DUP1 DUP4 GT PUSH2 0x762 JUMPI DUP3 SWAP1 SUB PUSH1 0x1F AND DUP3 ADD SWAP2 JUMPDEST POP POP POP POP POP SWAP1 POP SWAP1 JUMP JUMPDEST PUSH0 PUSH1 0x64 PUSH1 0x1 PUSH11 0x1A784379D99DB42000000 PUSH2 0x7A4 SWAP2 SWAP1 PUSH2 0x1711 JUMP JUMPDEST PUSH2 0x7AE SWAP2 SWAP1 PUSH2 0x177F JUMP JUMPDEST DUP3 PUSH2 0x7B8 DUP6 PUSH2 0x5F4 JUMP JUMPDEST PUSH2 0x7C2 SWAP2 SWAP1 PUSH2 0x17AF JUMP JUMPDEST GT ISZERO PUSH2 0x803 JUMPI PUSH1 0x40 MLOAD PUSH32 0x8C379A000000000000000000000000000000000000000000000000000000000 DUP2 MSTORE PUSH1 0x4 ADD PUSH2 0x7FA SWAP1 PUSH2 0x182C JUMP JUMPDEST PUSH1 0x40 MLOAD DUP1 SWAP2 SUB SWAP1 REVERT JUMPDEST PUSH2 0x2710 PUSH1 0x5 PUSH11 0x1A784379D99DB42000000 PUSH2 0x81E SWAP2 SWAP1 PUSH2 0x1711 JUMP JUMPDEST PUSH2 0x828 SWAP2 SWAP1 PUSH2 0x177F JUMP JUMPDEST DUP3 GT ISZERO PUSH2 0x86A JUMPI PUSH1 0x40 MLOAD PUSH32 0x8C379A000000000000000000000000000000000000000000000000000000000 DUP2 MSTORE PUSH1 0x4 ADD PUSH2 0x861 SWAP1 PUSH2 0x1894 JUMP JUMPDEST PUSH1 0x40 MLOAD DUP1 SWAP2 SUB SWAP1 REVERT JUMPDEST PUSH2 0x875 CALLER DUP5 DUP5 PUSH2 0xCDF JUMP JUMPDEST PUSH1 0x1 SWAP1 POP SWAP3 SWAP2 POP POP JUMP JUMPDEST PUSH1 0x8 PUSH0 SWAP1 SLOAD SWAP1 PUSH2 0x100 EXP SWAP1 DIV PUSH20 0xFFFFFFFFFFFFFFFFFFFFFFFFFFFFFFFFFFFFFFFF AND DUP2 JUMP JUMPDEST PUSH0 PUSH1 0x1 PUSH0 DUP5 PUSH20 0xFFFFFFFFFFFFFFFFFFFFFFFFFFFFFFFFFFFFFFFF AND PUSH20 0xFFFFFFFFFFFFFFFFFFFFFFFFFFFFFFFFFFFFFFFF AND DUP2 MSTORE PUSH1 0x20 ADD SWAP1 DUP2 MSTORE PUSH1 0x20 ADD PUSH0 KECCAK256 PUSH0 DUP4 PUSH20 0xFFFFFFFFFFFFFFFFFFFFFFFFFFFFFFFFFFFFFFFF AND PUSH20 0xFFFFFFFFFFFFFFFFFFFFFFFFFFFFFFFFFFFFFFFF AND DUP2 MSTORE PUSH1 0x20 ADD SWAP1 DUP2 MSTORE PUSH1 0x20 ADD PUSH0 KECCAK256 SLOAD SWAP1 POP SWAP3 SWAP2 POP POP JUMP JUMPDEST PUSH1 0x64 PUSH1 0x1 PUSH11 0x1A784379D99DB42000000 PUSH2 0x940 SWAP2 SWAP1 PUSH2 0x1711 JUMP JUMPDEST PUSH2 0x94A SWAP2 SWAP1 PUSH2 0x177F JUMP JUMPDEST DUP2 JUMP JUMPDEST PUSH2 0x955 PUSH2 0xB95 JUMP JUMPDEST PUSH0 PUSH20 0xFFFFFFFFFFFFFFFFFFFFFFFFFFFFFFFFFFFFFFFF AND DUP2 PUSH20 0xFFFFFFFFFFFFFFFFFFFFFFFFFFFFFFFFFFFFFFFF AND SUB PUSH2 0x9C5 JUMPI PUSH0 PUSH1 0x40 MLOAD PUSH32 0x1E4FBDF700000000000000000000000000000000000000000000000000000000 DUP2 MSTORE PUSH1 0x4 ADD PUSH2 0x9BC SWAP2 SWAP1 PUSH2 0x13C0 JUMP JUMPDEST PUSH1 0x40 MLOAD DUP1 SWAP2 SUB SWAP1 REVERT JUMPDEST PUSH2 0x9CE DUP2 PUSH2 0xC1C JUMP JUMPDEST POP JUMP JUMPDEST PUSH2 0x2710 PUSH1 0x5 PUSH11 0x1A784379D99DB42000000 PUSH2 0x9EC SWAP2 SWAP1 PUSH2 0x1711 JUMP JUMPDEST PUSH2 0x9F6 SWAP2 SWAP1 PUSH2 0x177F JUMP JUMPDEST DUP2 JUMP JUMPDEST PUSH0 CALLER SWAP1 POP SWAP1 JUMP JUMPDEST PUSH2 0xA0D DUP4 DUP4 DUP4 PUSH1 0x1 PUSH2 0xF68 JUMP JUMPDEST POP POP POP JUMP JUMPDEST PUSH0 PUSH2 0xA1D DUP5 DUP5 PUSH2 0x8A4 JUMP JUMPDEST SWAP1 POP PUSH32 0xFFFFFFFFFFFFFFFFFFFFFFFFFFFFFFFFFFFFFFFFFFFFFFFFFFFFFFFFFFFFFFFF DUP2 LT ISZERO PUSH2 0xA9F JUMPI DUP2 DUP2 LT ISZERO PUSH2 0xA90 JUMPI DUP3 DUP2 DUP4 PUSH1 0x40 MLOAD PUSH32 0xFB8F41B200000000000000000000000000000000000000000000000000000000 DUP2 MSTORE PUSH1 0x4 ADD PUSH2 0xA87 SWAP4 SWAP3 SWAP2 SWAP1 PUSH2 0x18B2 JUMP JUMPDEST PUSH1 0x40 MLOAD DUP1 SWAP2 SUB SWAP1 REVERT JUMPDEST PUSH2 0xA9E DUP5 DUP5 DUP5 DUP5 SUB PUSH0 PUSH2 0xF68 JUMP JUMPDEST JUMPDEST POP POP POP POP JUMP JUMPDEST PUSH0 PUSH20 0xFFFFFFFFFFFFFFFFFFFFFFFFFFFFFFFFFFFFFFFF AND DUP4 PUSH20 0xFFFFFFFFFFFFFFFFFFFFFFFFFFFFFFFFFFFFFFFF AND SUB PUSH2 0xB15 JUMPI PUSH0 PUSH1 0x40 MLOAD PUSH32 0x96C6FD1E00000000000000000000000000000000000000000000000000000000 DUP2 MSTORE PUSH1 0x4 ADD PUSH2 0xB0C SWAP2 SWAP1 PUSH2 0x13C0 JUMP JUMPDEST PUSH1 0x40 MLOAD DUP1 SWAP2 SUB SWAP1 REVERT JUMPDEST PUSH0 PUSH20 0xFFFFFFFFFFFFFFFFFFFFFFFFFFFFFFFFFFFFFFFF AND DUP3 PUSH20 0xFFFFFFFFFFFFFFFFFFFFFFFFFFFFFFFFFFFFFFFF AND SUB PUSH2 0xB85 JUMPI PUSH0 PUSH1 0x40 MLOAD PUSH32 0xEC442F0500000000000000000000000000000000000000000000000000000000 DUP2 MSTORE PUSH1 0x4 ADD PUSH2 0xB7C SWAP2 SWAP1 PUSH2 0x13C0 JUMP JUMPDEST PUSH1 0x40 MLOAD DUP1 SWAP2 SUB SWAP1 REVERT JUMPDEST PUSH2 0xB90 DUP4 DUP4 DUP4 PUSH2 0x1137 JUMP JUMPDEST POP POP POP JUMP JUMPDEST PUSH2 0xB9D PUSH2 0x9F9 JUMP JUMPDEST PUSH20 0xFFFFFFFFFFFFFFFFFFFFFFFFFFFFFFFFFFFFFFFF AND PUSH2 0xBBB PUSH2 0x6D1 JUMP JUMPDEST PUSH20 0xFFFFFFFFFFFFFFFFFFFFFFFFFFFFFFFFFFFFFFFF AND EQ PUSH2 0xC1A JUMPI PUSH2 0xBDE PUSH2 0x9F9 JUMP JUMPDEST PUSH1 0x40 MLOAD PUSH32 0x118CDAA700000000000000000000000000000000000000000000000000000000 DUP2 MSTORE PUSH1 0x4 ADD PUSH2 0xC11 SWAP2 SWAP1 PUSH2 0x13C0 JUMP JUMPDEST PUSH1 0x40 MLOAD DUP1 SWAP2 SUB SWAP1 REVERT JUMPDEST JUMP JUMPDEST PUSH0 PUSH1 0x5 PUSH0 SWAP1 SLOAD SWAP1 PUSH2 0x100 EXP SWAP1 DIV PUSH20 0xFFFFFFFFFFFFFFFFFFFFFFFFFFFFFFFFFFFFFFFF AND SWAP1 POP DUP2 PUSH1 0x5 PUSH0 PUSH2 0x100 EXP DUP2 SLOAD DUP2 PUSH20 0xFFFFFFFFFFFFFFFFFFFFFFFFFFFFFFFFFFFFFFFF MUL NOT AND SWAP1 DUP4 PUSH20 0xFFFFFFFFFFFFFFFFFFFFFFFFFFFFFFFFFFFFFFFF AND MUL OR SWAP1 SSTORE POP DUP2 PUSH20 0xFFFFFFFFFFFFFFFFFFFFFFFFFFFFFFFFFFFFFFFF AND DUP2 PUSH20 0xFFFFFFFFFFFFFFFFFFFFFFFFFFFFFFFFFFFFFFFF AND PUSH32 0x8BE0079C531659141344CD1FD0A4F28419497F9722A3DAAFE3B4186F6B6457E0 PUSH1 0x40 MLOAD PUSH1 0x40 MLOAD DUP1 SWAP2 SUB SWAP1 LOG3 POP POP JUMP JUMPDEST PUSH0 PUSH1 0x64 PUSH1 0xC DUP4 PUSH2 0xCEF SWAP2 SWAP1 PUSH2 0x1711 JUMP JUMPDEST PUSH2 0xCF9 SWAP2 SWAP1 PUSH2 0x177F JUMP JUMPDEST SWAP1 POP PUSH0 DUP2 DUP4 PUSH2 0xD08 SWAP2 SWAP1 PUSH2 0x18E7 JUMP JUMPDEST SWAP1 POP PUSH2 0xD4E DUP6 PUSH1 0x7 PUSH0 SWAP1 SLOAD SWAP1 PUSH2 0x100 EXP SWAP1 DIV PUSH20 0xFFFFFFFFFFFFFFFFFFFFFFFFFFFFFFFFFFFFFFFF AND PUSH1 0xC PUSH1 0x4 DUP7 PUSH2 0xD3F SWAP2 SWAP1 PUSH2 0x1711 JUMP JUMPDEST PUSH2 0xD49 SWAP2 SWAP1 PUSH2 0x177F JUMP JUMPDEST PUSH2 0xAA5 JUMP JUMPDEST PUSH32 0x6E232B0ACF46272DACF889AF6767574775A324B133D42B3B8CFFA9CD13159984 PUSH1 0xC PUSH1 0x4 DUP5 PUSH2 0xD7E SWAP2 SWAP1 PUSH2 0x1711 JUMP JUMPDEST PUSH2 0xD88 SWAP2 SWAP1 PUSH2 0x177F JUMP JUMPDEST PUSH1 0x40 MLOAD PUSH2 0xD95 SWAP2 SWAP1 PUSH2 0x1964 JUMP JUMPDEST PUSH1 0x40 MLOAD DUP1 SWAP2 SUB SWAP1 LOG1 PUSH2 0xDE1 DUP6 PUSH1 0x8 PUSH0 SWAP1 SLOAD SWAP1 PUSH2 0x100 EXP SWAP1 DIV PUSH20 0xFFFFFFFFFFFFFFFFFFFFFFFFFFFFFFFFFFFFFFFF AND PUSH1 0xC PUSH1 0x1 DUP7 PUSH2 0xDD2 SWAP2 SWAP1 PUSH2 0x1711 JUMP JUMPDEST PUSH2 0xDDC SWAP2 SWAP1 PUSH2 0x177F JUMP JUMPDEST PUSH2 0xAA5 JUMP JUMPDEST PUSH32 0x6E232B0ACF46272DACF889AF6767574775A324B133D42B3B8CFFA9CD13159984 PUSH1 0xC PUSH1 0x1 DUP5 PUSH2 0xE11 SWAP2 SWAP1 PUSH2 0x1711 JUMP JUMPDEST PUSH2 0xE1B SWAP2 SWAP1 PUSH2 0x177F JUMP JUMPDEST PUSH1 0x40 MLOAD PUSH2 0xE28 SWAP2 SWAP1 PUSH2 0x19DA JUMP JUMPDEST PUSH1 0x40 MLOAD DUP1 SWAP2 SUB SWAP1 LOG1 PUSH2 0xE74 DUP6 PUSH1 0x9 PUSH0 SWAP1 SLOAD SWAP1 PUSH2 0x100 EXP SWAP1 DIV PUSH20 0xFFFFFFFFFFFFFFFFFFFFFFFFFFFFFFFFFFFFFFFF AND PUSH1 0xC PUSH1 0x4 DUP7 PUSH2 0xE65 SWAP2 SWAP1 PUSH2 0x1711 JUMP JUMPDEST PUSH2 0xE6F SWAP2 SWAP1 PUSH2 0x177F JUMP JUMPDEST PUSH2 0xAA5 JUMP JUMPDEST PUSH32 0x6E232B0ACF46272DACF889AF6767574775A324B133D42B3B8CFFA9CD13159984 PUSH1 0xC PUSH1 0x4 DUP5 PUSH2 0xEA4 SWAP2 SWAP1 PUSH2 0x1711 JUMP JUMPDEST PUSH2 0xEAE SWAP2 SWAP1 PUSH2 0x177F JUMP JUMPDEST PUSH1 0x40 MLOAD PUSH2 0xEBB SWAP2 SWAP1 PUSH2 0x1A50 JUMP JUMPDEST PUSH1 0x40 MLOAD DUP1 SWAP2 SUB SWAP1 LOG1 PUSH2 0xF07 DUP6 PUSH1 0xA PUSH0 SWAP1 SLOAD SWAP1 PUSH2 0x100 EXP SWAP1 DIV PUSH20 0xFFFFFFFFFFFFFFFFFFFFFFFFFFFFFFFFFFFFFFFF AND PUSH1 0xC PUSH1 0x3 DUP7 PUSH2 0xEF8 SWAP2 SWAP1 PUSH2 0x1711 JUMP JUMPDEST PUSH2 0xF02 SWAP2 SWAP1 PUSH2 0x177F JUMP JUMPDEST PUSH2 0xAA5 JUMP JUMPDEST PUSH32 0x6E232B0ACF46272DACF889AF6767574775A324B133D42B3B8CFFA9CD13159984 PUSH1 0xC PUSH1 0x3 DUP5 PUSH2 0xF37 SWAP2 SWAP1 PUSH2 0x1711 JUMP JUMPDEST PUSH2 0xF41 SWAP2 SWAP1 PUSH2 0x177F JUMP JUMPDEST PUSH1 0x40 MLOAD PUSH2 0xF4E SWAP2 SWAP1 PUSH2 0x1AC6 JUMP JUMPDEST PUSH1 0x40 MLOAD DUP1 SWAP2 SUB SWAP1 LOG1 PUSH2 0xF61 DUP6 DUP6 DUP4 PUSH2 0xAA5 JUMP JUMPDEST POP POP POP POP POP JUMP JUMPDEST PUSH0 PUSH20 0xFFFFFFFFFFFFFFFFFFFFFFFFFFFFFFFFFFFFFFFF AND DUP5 PUSH20 0xFFFFFFFFFFFFFFFFFFFFFFFFFFFFFFFFFFFFFFFF AND SUB PUSH2 0xFD8 JUMPI PUSH0 PUSH1 0x40 MLOAD PUSH32 0xE602DF0500000000000000000000000000000000000000000000000000000000 DUP2 MSTORE PUSH1 0x4 ADD PUSH2 0xFCF SWAP2 SWAP1 PUSH2 0x13C0 JUMP JUMPDEST PUSH1 0x40 MLOAD DUP1 SWAP2 SUB SWAP1 REVERT JUMPDEST PUSH0 PUSH20 0xFFFFFFFFFFFFFFFFFFFFFFFFFFFFFFFFFFFFFFFF AND DUP4 PUSH20 0xFFFFFFFFFFFFFFFFFFFFFFFFFFFFFFFFFFFFFFFF AND SUB PUSH2 0x1048 JUMPI PUSH0 PUSH1 0x40 MLOAD PUSH32 0x94280D6200000000000000000000000000000000000000000000000000000000 DUP2 MSTORE PUSH1 0x4 ADD PUSH2 0x103F SWAP2 SWAP1 PUSH2 0x13C0 JUMP JUMPDEST PUSH1 0x40 MLOAD DUP1 SWAP2 SUB SWAP1 REVERT JUMPDEST DUP2 PUSH1 0x1 PUSH0 DUP7 PUSH20 0xFFFFFFFFFFFFFFFFFFFFFFFFFFFFFFFFFFFFFFFF AND PUSH20 0xFFFFFFFFFFFFFFFFFFFFFFFFFFFFFFFFFFFFFFFF AND DUP2 MSTORE PUSH1 0x20 ADD SWAP1 DUP2 MSTORE PUSH1 0x20 ADD PUSH0 KECCAK256 PUSH0 DUP6 PUSH20 0xFFFFFFFFFFFFFFFFFFFFFFFFFFFFFFFFFFFFFFFF AND PUSH20 0xFFFFFFFFFFFFFFFFFFFFFFFFFFFFFFFFFFFFFFFF AND DUP2 MSTORE PUSH1 0x20 ADD SWAP1 DUP2 MSTORE PUSH1 0x20 ADD PUSH0 KECCAK256 DUP2 SWAP1 SSTORE POP DUP1 ISZERO PUSH2 0x1131 JUMPI DUP3 PUSH20 0xFFFFFFFFFFFFFFFFFFFFFFFFFFFFFFFFFFFFFFFF AND DUP5 PUSH20 0xFFFFFFFFFFFFFFFFFFFFFFFFFFFFFFFFFFFFFFFF AND PUSH32 0x8C5BE1E5EBEC7D5BD14F71427D1E84F3DD0314C0F7B2291E5B200AC8C7C3B925 DUP5 PUSH1 0x40 MLOAD PUSH2 0x1128 SWAP2 SWAP1 PUSH2 0x1368 JUMP JUMPDEST PUSH1 0x40 MLOAD DUP1 SWAP2 SUB SWAP1 LOG3 JUMPDEST POP POP POP POP JUMP JUMPDEST PUSH0 PUSH20 0xFFFFFFFFFFFFFFFFFFFFFFFFFFFFFFFFFFFFFFFF AND DUP4 PUSH20 0xFFFFFFFFFFFFFFFFFFFFFFFFFFFFFFFFFFFFFFFF AND SUB PUSH2 0x1187 JUMPI DUP1 PUSH1 0x2 PUSH0 DUP3 DUP3 SLOAD PUSH2 0x117B SWAP2 SWAP1 PUSH2 0x17AF JUMP JUMPDEST SWAP3 POP POP DUP2 SWAP1 SSTORE POP PUSH2 0x1255 JUMP JUMPDEST PUSH0 DUP1 PUSH0 DUP6 PUSH20 0xFFFFFFFFFFFFFFFFFFFFFFFFFFFFFFFFFFFFFFFF AND PUSH20 0xFFFFFFFFFFFFFFFFFFFFFFFFFFFFFFFFFFFFFFFF AND DUP2 MSTORE PUSH1 0x20 ADD SWAP1 DUP2 MSTORE PUSH1 0x20 ADD PUSH0 KECCAK256 SLOAD SWAP1 POP DUP2 DUP2 LT ISZERO PUSH2 0x1210 JUMPI DUP4 DUP2 DUP4 PUSH1 0x40 MLOAD PUSH32 0xE450D38C00000000000000000000000000000000000000000000000000000000 DUP2 MSTORE PUSH1 0x4 ADD PUSH2 0x1207 SWAP4 SWAP3 SWAP2 SWAP1 PUSH2 0x18B2 JUMP JUMPDEST PUSH1 0x40 MLOAD DUP1 SWAP2 SUB SWAP1 REVERT JUMPDEST DUP2 DUP2 SUB PUSH0 DUP1 DUP7 PUSH20 0xFFFFFFFFFFFFFFFFFFFFFFFFFFFFFFFFFFFFFFFF AND PUSH20 0xFFFFFFFFFFFFFFFFFFFFFFFFFFFFFFFFFFFFFFFF AND DUP2 MSTORE PUSH1 0x20 ADD SWAP1 DUP2 MSTORE PUSH1 0x20 ADD PUSH0 KECCAK256 DUP2 SWAP1 SSTORE POP POP JUMPDEST PUSH0 PUSH20 0xFFFFFFFFFFFFFFFFFFFFFFFFFFFFFFFFFFFFFFFF AND DUP3 PUSH20 0xFFFFFFFFFFFFFFFFFFFFFFFFFFFFFFFFFFFFFFFF AND SUB PUSH2 0x129C JUMPI DUP1 PUSH1 0x2 PUSH0 DUP3 DUP3 SLOAD SUB SWAP3 POP POP DUP2 SWAP1 SSTORE POP PUSH2 0x12E6 JUMP JUMPDEST DUP1 PUSH0 DUP1 DUP5 PUSH20 0xFFFFFFFFFFFFFFFFFFFFFFFFFFFFFFFFFFFFFFFF AND PUSH20 0xFFFFFFFFFFFFFFFFFFFFFFFFFFFFFFFFFFFFFFFF AND DUP2 MSTORE PUSH1 0x20 ADD SWAP1 DUP2 MSTORE PUSH1 0x20 ADD PUSH0 KECCAK256 PUSH0 DUP3 DUP3 SLOAD ADD SWAP3 POP POP DUP2 SWAP1 SSTORE POP JUMPDEST DUP2 PUSH20 0xFFFFFFFFFFFFFFFFFFFFFFFFFFFFFFFFFFFFFFFF AND DUP4 PUSH20 0xFFFFFFFFFFFFFFFFFFFFFFFFFFFFFFFFFFFFFFFF AND PUSH32 0xDDF252AD1BE2C89B69C2B068FC378DAA952BA7F163C4A11628F55A4DF523B3EF DUP4 PUSH1 0x40 MLOAD PUSH2 0x1343 SWAP2 SWAP1 PUSH2 0x1368 JUMP JUMPDEST PUSH1 0x40 MLOAD DUP1 SWAP2 SUB SWAP1 LOG3 POP POP POP JUMP JUMPDEST PUSH0 DUP2 SWAP1 POP SWAP2 SWAP1 POP JUMP JUMPDEST PUSH2 0x1362 DUP2 PUSH2 0x1350 JUMP JUMPDEST DUP3 MSTORE POP POP JUMP JUMPDEST PUSH0 PUSH1 0x20 DUP3 ADD SWAP1 POP PUSH2 0x137B PUSH0 DUP4 ADD DUP5 PUSH2 0x1359 JUMP JUMPDEST SWAP3 SWAP2 POP POP JUMP JUMPDEST PUSH0 PUSH20 0xFFFFFFFFFFFFFFFFFFFFFFFFFFFFFFFFFFFFFFFF DUP3 AND SWAP1 POP SWAP2 SWAP1 POP JUMP JUMPDEST PUSH0 PUSH2 0x13AA DUP3 PUSH2 0x1381 JUMP JUMPDEST SWAP1 POP SWAP2 SWAP1 POP JUMP JUMPDEST PUSH2 0x13BA DUP2 PUSH2 0x13A0 JUMP JUMPDEST DUP3 MSTORE POP POP JUMP JUMPDEST PUSH0 PUSH1 0x20 DUP3 ADD SWAP1 POP PUSH2 0x13D3 PUSH0 DUP4 ADD DUP5 PUSH2 0x13B1 JUMP JUMPDEST SWAP3 SWAP2 POP POP JUMP JUMPDEST PUSH0 DUP2 MLOAD SWAP1 POP SWAP2 SWAP1 POP JUMP JUMPDEST PUSH0 DUP3 DUP3 MSTORE PUSH1 0x20 DUP3 ADD SWAP1 POP SWAP3 SWAP2 POP POP JUMP JUMPDEST DUP3 DUP2 DUP4 MCOPY PUSH0 DUP4 DUP4 ADD MSTORE POP POP POP JUMP JUMPDEST PUSH0 PUSH1 0x1F NOT PUSH1 0x1F DUP4 ADD AND SWAP1 POP SWAP2 SWAP1 POP JUMP JUMPDEST PUSH0 PUSH2 0x141B DUP3 PUSH2 0x13D9 JUMP JUMPDEST PUSH2 0x1425 DUP2 DUP6 PUSH2 0x13E3 JUMP JUMPDEST SWAP4 POP PUSH2 0x1435 DUP2 DUP6 PUSH1 0x20 DUP7 ADD PUSH2 0x13F3 JUMP JUMPDEST PUSH2 0x143E DUP2 PUSH2 0x1401 JUMP JUMPDEST DUP5 ADD SWAP2 POP POP SWAP3 SWAP2 POP POP JUMP JUMPDEST PUSH0 PUSH1 0x20 DUP3 ADD SWAP1 POP DUP2 DUP2 SUB PUSH0 DUP4 ADD MSTORE PUSH2 0x1461 DUP2 DUP5 PUSH2 0x1411 JUMP JUMPDEST SWAP1 POP SWAP3 SWAP2 POP POP JUMP JUMPDEST PUSH0 DUP1 REVERT JUMPDEST PUSH2 0x1476 DUP2 PUSH2 0x13A0 JUMP JUMPDEST DUP2 EQ PUSH2 0x1480 JUMPI PUSH0 DUP1 REVERT JUMPDEST POP JUMP JUMPDEST PUSH0 DUP2 CALLDATALOAD SWAP1 POP PUSH2 0x1491 DUP2 PUSH2 0x146D JUMP JUMPDEST SWAP3 SWAP2 POP POP JUMP JUMPDEST PUSH2 0x14A0 DUP2 PUSH2 0x1350 JUMP JUMPDEST DUP2 EQ PUSH2 0x14AA JUMPI PUSH0 DUP1 REVERT JUMPDEST POP JUMP JUMPDEST PUSH0 DUP2 CALLDATALOAD SWAP1 POP PUSH2 0x14BB DUP2 PUSH2 0x1497 JUMP JUMPDEST SWAP3 SWAP2 POP POP JUMP JUMPDEST PUSH0 DUP1 PUSH1 0x40 DUP4 DUP6 SUB SLT ISZERO PUSH2 0x14D7 JUMPI PUSH2 0x14D6 PUSH2 0x1469 JUMP JUMPDEST JUMPDEST PUSH0 PUSH2 0x14E4 DUP6 DUP3 DUP7 ADD PUSH2 0x1483 JUMP JUMPDEST SWAP3 POP POP PUSH1 0x20 PUSH2 0x14F5 DUP6 DUP3 DUP7 ADD PUSH2 0x14AD JUMP JUMPDEST SWAP2 POP POP SWAP3 POP SWAP3 SWAP1 POP JUMP JUMPDEST PUSH0 DUP2 ISZERO ISZERO SWAP1 POP SWAP2 SWAP1 POP JUMP JUMPDEST PUSH2 0x1513 DUP2 PUSH2 0x14FF JUMP JUMPDEST DUP3 MSTORE POP POP JUMP JUMPDEST PUSH0 PUSH1 0x20 DUP3 ADD SWAP1 POP PUSH2 0x152C PUSH0 DUP4 ADD DUP5 PUSH2 0x150A JUMP JUMPDEST SWAP3 SWAP2 POP POP JUMP JUMPDEST PUSH0 DUP1 PUSH0 PUSH1 0x60 DUP5 DUP7 SUB SLT ISZERO PUSH2 0x1549 JUMPI PUSH2 0x1548 PUSH2 0x1469 JUMP JUMPDEST JUMPDEST PUSH0 PUSH2 0x1556 DUP7 DUP3 DUP8 ADD PUSH2 0x1483 JUMP JUMPDEST SWAP4 POP POP PUSH1 0x20 PUSH2 0x1567 DUP7 DUP3 DUP8 ADD PUSH2 0x1483 JUMP JUMPDEST SWAP3 POP POP PUSH1 0x40 PUSH2 0x1578 DUP7 DUP3 DUP8 ADD PUSH2 0x14AD JUMP JUMPDEST SWAP2 POP POP SWAP3 POP SWAP3 POP SWAP3 JUMP JUMPDEST PUSH0 PUSH1 0xFF DUP3 AND SWAP1 POP SWAP2 SWAP1 POP JUMP JUMPDEST PUSH2 0x1597 DUP2 PUSH2 0x1582 JUMP JUMPDEST DUP3 MSTORE POP POP JUMP JUMPDEST PUSH0 PUSH1 0x20 DUP3 ADD SWAP1 POP PUSH2 0x15B0 PUSH0 DUP4 ADD DUP5 PUSH2 0x158E JUMP JUMPDEST SWAP3 SWAP2 POP POP JUMP JUMPDEST PUSH0 PUSH1 0x20 DUP3 DUP5 SUB SLT ISZERO PUSH2 0x15CB JUMPI PUSH2 0x15CA PUSH2 0x1469 JUMP JUMPDEST JUMPDEST PUSH0 PUSH2 0x15D8 DUP5 DUP3 DUP6 ADD PUSH2 0x1483 JUMP JUMPDEST SWAP2 POP POP SWAP3 SWAP2 POP POP JUMP JUMPDEST PUSH2 0x15EA DUP2 PUSH2 0x14FF JUMP JUMPDEST DUP2 EQ PUSH2 0x15F4 JUMPI PUSH0 DUP1 REVERT JUMPDEST POP JUMP JUMPDEST PUSH0 DUP2 CALLDATALOAD SWAP1 POP PUSH2 0x1605 DUP2 PUSH2 0x15E1 JUMP JUMPDEST SWAP3 SWAP2 POP POP JUMP JUMPDEST PUSH0 DUP1 PUSH1 0x40 DUP4 DUP6 SUB SLT ISZERO PUSH2 0x1621 JUMPI PUSH2 0x1620 PUSH2 0x1469 JUMP JUMPDEST JUMPDEST PUSH0 PUSH2 0x162E DUP6 DUP3 DUP7 ADD PUSH2 0x1483 JUMP JUMPDEST SWAP3 POP POP PUSH1 0x20 PUSH2 0x163F DUP6 DUP3 DUP7 ADD PUSH2 0x15F7 JUMP JUMPDEST SWAP2 POP POP SWAP3 POP SWAP3 SWAP1 POP JUMP JUMPDEST PUSH0 DUP1 PUSH1 0x40 DUP4 DUP6 SUB SLT ISZERO PUSH2 0x165F JUMPI PUSH2 0x165E PUSH2 0x1469 JUMP JUMPDEST JUMPDEST PUSH0 PUSH2 0x166C DUP6 DUP3 DUP7 ADD PUSH2 0x1483 JUMP JUMPDEST SWAP3 POP POP PUSH1 0x20 PUSH2 0x167D DUP6 DUP3 DUP7 ADD PUSH2 0x1483 JUMP JUMPDEST SWAP2 POP POP SWAP3 POP SWAP3 SWAP1 POP JUMP JUMPDEST PUSH32 0x4E487B7100000000000000000000000000000000000000000000000000000000 PUSH0 MSTORE PUSH1 0x22 PUSH1 0x4 MSTORE PUSH1 0x24 PUSH0 REVERT JUMPDEST PUSH0 PUSH1 0x2 DUP3 DIV SWAP1 POP PUSH1 0x1 DUP3 AND DUP1 PUSH2 0x16CB JUMPI PUSH1 0x7F DUP3 AND SWAP2 POP JUMPDEST PUSH1 0x20 DUP3 LT DUP2 SUB PUSH2 0x16DE JUMPI PUSH2 0x16DD PUSH2 0x1687 JUMP JUMPDEST JUMPDEST POP SWAP2 SWAP1 POP JUMP JUMPDEST PUSH32 0x4E487B7100000000000000000000000000000000000000000000000000000000 PUSH0 MSTORE PUSH1 0x11 PUSH1 0x4 MSTORE PUSH1 0x24 PUSH0 REVERT JUMPDEST PUSH0 PUSH2 0x171B DUP3 PUSH2 0x1350 JUMP JUMPDEST SWAP2 POP PUSH2 0x1726 DUP4 PUSH2 0x1350 JUMP JUMPDEST SWAP3 POP DUP3 DUP3 MUL PUSH2 0x1734 DUP2 PUSH2 0x1350 JUMP JUMPDEST SWAP2 POP DUP3 DUP3 DIV DUP5 EQ DUP4 ISZERO OR PUSH2 0x174B JUMPI PUSH2 0x174A PUSH2 0x16E4 JUMP JUMPDEST JUMPDEST POP SWAP3 SWAP2 POP POP JUMP JUMPDEST PUSH32 0x4E487B7100000000000000000000000000000000000000000000000000000000 PUSH0 MSTORE PUSH1 0x12 PUSH1 0x4 MSTORE PUSH1 0x24 PUSH0 REVERT JUMPDEST PUSH0 PUSH2 0x1789 DUP3 PUSH2 0x1350 JUMP JUMPDEST SWAP2 POP PUSH2 0x1794 DUP4 PUSH2 0x1350 JUMP JUMPDEST SWAP3 POP DUP3 PUSH2 0x17A4 JUMPI PUSH2 0x17A3 PUSH2 0x1752 JUMP JUMPDEST JUMPDEST DUP3 DUP3 DIV SWAP1 POP SWAP3 SWAP2 POP POP JUMP JUMPDEST PUSH0 PUSH2 0x17B9 DUP3 PUSH2 0x1350 JUMP JUMPDEST SWAP2 POP PUSH2 0x17C4 DUP4 PUSH2 0x1350 JUMP JUMPDEST SWAP3 POP DUP3 DUP3 ADD SWAP1 POP DUP1 DUP3 GT ISZERO PUSH2 0x17DC JUMPI PUSH2 0x17DB PUSH2 0x16E4 JUMP JUMPDEST JUMPDEST SWAP3 SWAP2 POP POP JUMP JUMPDEST PUSH32 0x45786365656473206D61782077616C6C6574206C696D69740000000000000000 PUSH0 DUP3 ADD MSTORE POP JUMP JUMPDEST PUSH0 PUSH2 0x1816 PUSH1 0x18 DUP4 PUSH2 0x13E3 JUMP JUMPDEST SWAP2 POP PUSH2 0x1821 DUP3 PUSH2 0x17E2 JUMP JUMPDEST PUSH1 0x20 DUP3 ADD SWAP1 POP SWAP2 SWAP1 POP JUMP JUMPDEST PUSH0 PUSH1 0x20 DUP3 ADD SWAP1 POP DUP2 DUP2 SUB PUSH0 DUP4 ADD MSTORE PUSH2 0x1843 DUP2 PUSH2 0x180A JUMP JUMPDEST SWAP1 POP SWAP2 SWAP1 POP JUMP JUMPDEST PUSH32 0x45786365656473206D6178207472616E73616374696F6E206C696D6974000000 PUSH0 DUP3 ADD MSTORE POP JUMP JUMPDEST PUSH0 PUSH2 0x187E PUSH1 0x1D DUP4 PUSH2 0x13E3 JUMP JUMPDEST SWAP2 POP PUSH2 0x1889 DUP3 PUSH2 0x184A JUMP JUMPDEST PUSH1 0x20 DUP3 ADD SWAP1 POP SWAP2 SWAP1 POP JUMP JUMPDEST PUSH0 PUSH1 0x20 DUP3 ADD SWAP1 POP DUP2 DUP2 SUB PUSH0 DUP4 ADD MSTORE PUSH2 0x18AB DUP2 PUSH2 0x1872 JUMP JUMPDEST SWAP1 POP SWAP2 SWAP1 POP JUMP JUMPDEST PUSH0 PUSH1 0x60 DUP3 ADD SWAP1 POP PUSH2 0x18C5 PUSH0 DUP4 ADD DUP7 PUSH2 0x13B1 JUMP JUMPDEST PUSH2 0x18D2 PUSH1 0x20 DUP4 ADD DUP6 PUSH2 0x1359 JUMP JUMPDEST PUSH2 0x18DF PUSH1 0x40 DUP4 ADD DUP5 PUSH2 0x1359 JUMP JUMPDEST SWAP5 SWAP4 POP POP POP POP JUMP JUMPDEST PUSH0 PUSH2 0x18F1 DUP3 PUSH2 0x1350 JUMP JUMPDEST SWAP2 POP PUSH2 0x18FC DUP4 PUSH2 0x1350 JUMP JUMPDEST SWAP3 POP DUP3 DUP3 SUB SWAP1 POP DUP2 DUP2 GT ISZERO PUSH2 0x1914 JUMPI PUSH2 0x1913 PUSH2 0x16E4 JUMP JUMPDEST JUMPDEST SWAP3 SWAP2 POP POP JUMP JUMPDEST PUSH32 0x456E636F75726167656D656E742046756E640000000000000000000000000000 PUSH0 DUP3 ADD MSTORE POP JUMP JUMPDEST PUSH0 PUSH2 0x194E PUSH1 0x12 DUP4 PUSH2 0x13E3 JUMP JUMPDEST SWAP2 POP PUSH2 0x1959 DUP3 PUSH2 0x191A JUMP JUMPDEST PUSH1 0x20 DUP3 ADD SWAP1 POP SWAP2 SWAP1 POP JUMP JUMPDEST PUSH0 PUSH1 0x40 DUP3 ADD SWAP1 POP PUSH2 0x1977 PUSH0 DUP4 ADD DUP5 PUSH2 0x1359 JUMP JUMPDEST DUP2 DUP2 SUB PUSH1 0x20 DUP4 ADD MSTORE PUSH2 0x1988 DUP2 PUSH2 0x1942 JUMP JUMPDEST SWAP1 POP SWAP3 SWAP2 POP POP JUMP JUMPDEST PUSH32 0x456D657267656E63792046756E64000000000000000000000000000000000000 PUSH0 DUP3 ADD MSTORE POP JUMP JUMPDEST PUSH0 PUSH2 0x19C4 PUSH1 0xE DUP4 PUSH2 0x13E3 JUMP JUMPDEST SWAP2 POP PUSH2 0x19CF DUP3 PUSH2 0x1990 JUMP JUMPDEST PUSH1 0x20 DUP3 ADD SWAP1 POP SWAP2 SWAP1 POP JUMP JUMPDEST PUSH0 PUSH1 0x40 DUP3 ADD SWAP1 POP PUSH2 0x19ED PUSH0 DUP4 ADD DUP5 PUSH2 0x1359 JUMP JUMPDEST DUP2 DUP2 SUB PUSH1 0x20 DUP4 ADD MSTORE PUSH2 0x19FE DUP2 PUSH2 0x19B8 JUMP JUMPDEST SWAP1 POP SWAP3 SWAP2 POP POP JUMP JUMPDEST PUSH32 0x4D61726B6574696E670000000000000000000000000000000000000000000000 PUSH0 DUP3 ADD MSTORE POP JUMP JUMPDEST PUSH0 PUSH2 0x1A3A PUSH1 0x9 DUP4 PUSH2 0x13E3 JUMP JUMPDEST SWAP2 POP PUSH2 0x1A45 DUP3 PUSH2 0x1A06 JUMP JUMPDEST PUSH1 0x20 DUP3 ADD SWAP1 POP SWAP2 SWAP1 POP JUMP JUMPDEST PUSH0 PUSH1 0x40 DUP3 ADD SWAP1 POP PUSH2 0x1A63 PUSH0 DUP4 ADD DUP5 PUSH2 0x1359 JUMP JUMPDEST DUP2 DUP2 SUB PUSH1 0x20 DUP4 ADD MSTORE PUSH2 0x1A74 DUP2 PUSH2 0x1A2E JUMP JUMPDEST SWAP1 POP SWAP3 SWAP2 POP POP JUMP JUMPDEST PUSH32 0x5374616B696E6700000000000000000000000000000000000000000000000000 PUSH0 DUP3 ADD MSTORE POP JUMP JUMPDEST PUSH0 PUSH2 0x1AB0 PUSH1 0x7 DUP4 PUSH2 0x13E3 JUMP JUMPDEST SWAP2 POP PUSH2 0x1ABB DUP3 PUSH2 0x1A7C JUMP JUMPDEST PUSH1 0x20 DUP3 ADD SWAP1 POP SWAP2 SWAP1 POP JUMP JUMPDEST PUSH0 PUSH1 0x40 DUP3 ADD SWAP1 POP PUSH2 0x1AD9 PUSH0 DUP4 ADD DUP5 PUSH2 0x1359 JUMP JUMPDEST DUP2 DUP2 SUB PUSH1 0x20 DUP4 ADD MSTORE PUSH2 0x1AEA DUP2 PUSH2 0x1AA4 JUMP JUMPDEST SWAP1 POP SWAP3 SWAP2 POP POP JUMP INVALID LOG2 PUSH5 0x6970667358 0x22 SLT KECCAK256 0x2F MSTORE8 SWAP2 SELFBALANCE 0xD1 0xAA CHAINID SUB MUL 0x25 PUSH19 0x3A4071938A6C19322FD2FB02C721B1379CFF1 0xAC LT PUSH5 0x736F6C6343 STOP ADDMOD BYTE STOP CALLER "
		},
		"gasEstimates": {
			"creation": {
				"codeDepositCost": "1390400",
				"executionCost": "infinite",
				"totalCost": "infinite"
			},
			"external": {
				"BUY_TAX()": "349",
				"INITIAL_SUPPLY()": "348",
				"MAX_TX()": "infinite",
				"MAX_WALLET()": "infinite",
				"SELL_TAX()": "458",
				"SLIPPAGE()": "392",
				"allowance(address,address)": "infinite",
				"approve(address,uint256)": "infinite",
				"balanceOf(address)": "2852",
				"decimals()": "383",
				"emergencyFund()": "2552",
				"encouragementFund()": "2619",
				"isExcludedFromFees(address)": "2922",
				"marketingWallet()": "2597",
				"name()": "infinite",
				"owner()": "2626",
				"renounceOwnership()": "infinite",
				"stakingWallet()": "2554",
				"symbol()": "infinite",
				"totalSupply()": "2544",
				"transfer(address,uint256)": "infinite",
				"transferFrom(address,address,uint256)": "infinite",
				"transferOwnership(address)": "infinite",
				"updateExcludedAccountStatus(address,bool)": "infinite"
			},
			"internal": {
				"_transferWithTaxes(address,address,uint256)": "infinite"
			}
		},
		"methodIdentifiers": {
			"BUY_TAX()": "02af37bb",
			"INITIAL_SUPPLY()": "2ff2e9dc",
			"MAX_TX()": "f3b2db3f",
			"MAX_WALLET()": "df7787a4",
			"SELL_TAX()": "54ad8aee",
			"SLIPPAGE()": "36b4134a",
			"allowance(address,address)": "dd62ed3e",
			"approve(address,uint256)": "095ea7b3",
			"balanceOf(address)": "70a08231",
			"decimals()": "313ce567",
			"emergencyFund()": "cc859378",
			"encouragementFund()": "52a6a9ec",
			"isExcludedFromFees(address)": "4fbee193",
			"marketingWallet()": "75f0a874",
			"name()": "06fdde03",
			"owner()": "8da5cb5b",
			"renounceOwnership()": "715018a6",
			"stakingWallet()": "06ee6ad8",
			"symbol()": "95d89b41",
			"totalSupply()": "18160ddd",
			"transfer(address,uint256)": "a9059cbb",
			"transferFrom(address,address,uint256)": "23b872dd",
			"transferOwnership(address)": "f2fde38b",
			"updateExcludedAccountStatus(address,bool)": "753cafc3"
		}
	},
	"abi": [
		{
			"inputs": [
				{
					"internalType": "address",
					"name": "_encouragementFund",
					"type": "address"
				},
				{
					"internalType": "address",
					"name": "_emergencyFund",
					"type": "address"
				},
				{
					"internalType": "address",
					"name": "_marketingWallet",
					"type": "address"
				},
				{
					"internalType": "address",
					"name": "_stakingWallet",
					"type": "address"
				}
			],
			"stateMutability": "nonpayable",
			"type": "constructor"
		},
		{
			"inputs": [
				{
					"internalType": "address",
					"name": "spender",
					"type": "address"
				},
				{
					"internalType": "uint256",
					"name": "allowance",
					"type": "uint256"
				},
				{
					"internalType": "uint256",
					"name": "needed",
					"type": "uint256"
				}
			],
			"name": "ERC20InsufficientAllowance",
			"type": "error"
		},
		{
			"inputs": [
				{
					"internalType": "address",
					"name": "sender",
					"type": "address"
				},
				{
					"internalType": "uint256",
					"name": "balance",
					"type": "uint256"
				},
				{
					"internalType": "uint256",
					"name": "needed",
					"type": "uint256"
				}
			],
			"name": "ERC20InsufficientBalance",
			"type": "error"
		},
		{
			"inputs": [
				{
					"internalType": "address",
					"name": "approver",
					"type": "address"
				}
			],
			"name": "ERC20InvalidApprover",
			"type": "error"
		},
		{
			"inputs": [
				{
					"internalType": "address",
					"name": "receiver",
					"type": "address"
				}
			],
			"name": "ERC20InvalidReceiver",
			"type": "error"
		},
		{
			"inputs": [
				{
					"internalType": "address",
					"name": "sender",
					"type": "address"
				}
			],
			"name": "ERC20InvalidSender",
			"type": "error"
		},
		{
			"inputs": [
				{
					"internalType": "address",
					"name": "spender",
					"type": "address"
				}
			],
			"name": "ERC20InvalidSpender",
			"type": "error"
		},
		{
			"inputs": [
				{
					"internalType": "address",
					"name": "owner",
					"type": "address"
				}
			],
			"name": "OwnableInvalidOwner",
			"type": "error"
		},
		{
			"inputs": [
				{
					"internalType": "address",
					"name": "account",
					"type": "address"
				}
			],
			"name": "OwnableUnauthorizedAccount",
			"type": "error"
		},
		{
			"anonymous": false,
			"inputs": [
				{
					"indexed": true,
					"internalType": "address",
					"name": "owner",
					"type": "address"
				},
				{
					"indexed": true,
					"internalType": "address",
					"name": "spender",
					"type": "address"
				},
				{
					"indexed": false,
					"internalType": "uint256",
					"name": "value",
					"type": "uint256"
				}
			],
			"name": "Approval",
			"type": "event"
		},
		{
			"anonymous": false,
			"inputs": [
				{
					"indexed": true,
					"internalType": "address",
					"name": "previousOwner",
					"type": "address"
				},
				{
					"indexed": true,
					"internalType": "address",
					"name": "newOwner",
					"type": "address"
				}
			],
			"name": "OwnershipTransferred",
			"type": "event"
		},
		{
			"anonymous": false,
			"inputs": [
				{
					"indexed": false,
					"internalType": "uint256",
					"name": "amount",
					"type": "uint256"
				},
				{
					"indexed": false,
					"internalType": "string",
					"name": "category",
					"type": "string"
				}
			],
			"name": "TaxDistributed",
			"type": "event"
		},
		{
			"anonymous": false,
			"inputs": [
				{
					"indexed": true,
					"internalType": "address",
					"name": "from",
					"type": "address"
				},
				{
					"indexed": true,
					"internalType": "address",
					"name": "to",
					"type": "address"
				},
				{
					"indexed": false,
					"internalType": "uint256",
					"name": "value",
					"type": "uint256"
				}
			],
			"name": "Transfer",
			"type": "event"
		},
		{
			"inputs": [],
			"name": "BUY_TAX",
			"outputs": [
				{
					"internalType": "uint256",
					"name": "",
					"type": "uint256"
				}
			],
			"stateMutability": "view",
			"type": "function"
		},
		{
			"inputs": [],
			"name": "INITIAL_SUPPLY",
			"outputs": [
				{
					"internalType": "uint256",
					"name": "",
					"type": "uint256"
				}
			],
			"stateMutability": "view",
			"type": "function"
		},
		{
			"inputs": [],
			"name": "MAX_TX",
			"outputs": [
				{
					"internalType": "uint256",
					"name": "",
					"type": "uint256"
				}
			],
			"stateMutability": "view",
			"type": "function"
		},
		{
			"inputs": [],
			"name": "MAX_WALLET",
			"outputs": [
				{
					"internalType": "uint256",
					"name": "",
					"type": "uint256"
				}
			],
			"stateMutability": "view",
			"type": "function"
		},
		{
			"inputs": [],
			"name": "SELL_TAX",
			"outputs": [
				{
					"internalType": "uint256",
					"name": "",
					"type": "uint256"
				}
			],
			"stateMutability": "view",
			"type": "function"
		},
		{
			"inputs": [],
			"name": "SLIPPAGE",
			"outputs": [
				{
					"internalType": "uint256",
					"name": "",
					"type": "uint256"
				}
			],
			"stateMutability": "view",
			"type": "function"
		},
		{
			"inputs": [
				{
					"internalType": "address",
					"name": "owner",
					"type": "address"
				},
				{
					"internalType": "address",
					"name": "spender",
					"type": "address"
				}
			],
			"name": "allowance",
			"outputs": [
				{
					"internalType": "uint256",
					"name": "",
					"type": "uint256"
				}
			],
			"stateMutability": "view",
			"type": "function"
		},
		{
			"inputs": [
				{
					"internalType": "address",
					"name": "spender",
					"type": "address"
				},
				{
					"internalType": "uint256",
					"name": "value",
					"type": "uint256"
				}
			],
			"name": "approve",
			"outputs": [
				{
					"internalType": "bool",
					"name": "",
					"type": "bool"
				}
			],
			"stateMutability": "nonpayable",
			"type": "function"
		},
		{
			"inputs": [
				{
					"internalType": "address",
					"name": "account",
					"type": "address"
				}
			],
			"name": "balanceOf",
			"outputs": [
				{
					"internalType": "uint256",
					"name": "",
					"type": "uint256"
				}
			],
			"stateMutability": "view",
			"type": "function"
		},
		{
			"inputs": [],
			"name": "decimals",
			"outputs": [
				{
					"internalType": "uint8",
					"name": "",
					"type": "uint8"
				}
			],
			"stateMutability": "view",
			"type": "function"
		},
		{
			"inputs": [],
			"name": "emergencyFund",
			"outputs": [
				{
					"internalType": "address",
					"name": "",
					"type": "address"
				}
			],
			"stateMutability": "view",
			"type": "function"
		},
		{
			"inputs": [],
			"name": "encouragementFund",
			"outputs": [
				{
					"internalType": "address",
					"name": "",
					"type": "address"
				}
			],
			"stateMutability": "view",
			"type": "function"
		},
		{
			"inputs": [
				{
					"internalType": "address",
					"name": "",
					"type": "address"
				}
			],
			"name": "isExcludedFromFees",
			"outputs": [
				{
					"internalType": "bool",
					"name": "",
					"type": "bool"
				}
			],
			"stateMutability": "view",
			"type": "function"
		},
		{
			"inputs": [],
			"name": "marketingWallet",
			"outputs": [
				{
					"internalType": "address",
					"name": "",
					"type": "address"
				}
			],
			"stateMutability": "view",
			"type": "function"
		},
		{
			"inputs": [],
			"name": "name",
			"outputs": [
				{
					"internalType": "string",
					"name": "",
					"type": "string"
				}
			],
			"stateMutability": "view",
			"type": "function"
		},
		{
			"inputs": [],
			"name": "owner",
			"outputs": [
				{
					"internalType": "address",
					"name": "",
					"type": "address"
				}
			],
			"stateMutability": "view",
			"type": "function"
		},
		{
			"inputs": [],
			"name": "renounceOwnership",
			"outputs": [],
			"stateMutability": "nonpayable",
			"type": "function"
		},
		{
			"inputs": [],
			"name": "stakingWallet",
			"outputs": [
				{
					"internalType": "address",
					"name": "",
					"type": "address"
				}
			],
			"stateMutability": "view",
			"type": "function"
		},
		{
			"inputs": [],
			"name": "symbol",
			"outputs": [
				{
					"internalType": "string",
					"name": "",
					"type": "string"
				}
			],
			"stateMutability": "view",
			"type": "function"
		},
		{
			"inputs": [],
			"name": "totalSupply",
			"outputs": [
				{
					"internalType": "uint256",
					"name": "",
					"type": "uint256"
				}
			],
			"stateMutability": "view",
			"type": "function"
		},
		{
			"inputs": [
				{
					"internalType": "address",
					"name": "recipient",
					"type": "address"
				},
				{
					"internalType": "uint256",
					"name": "amount",
					"type": "uint256"
				}
			],
			"name": "transfer",
			"outputs": [
				{
					"internalType": "bool",
					"name": "",
					"type": "bool"
				}
			],
			"stateMutability": "nonpayable",
			"type": "function"
		},
		{
			"inputs": [
				{
					"internalType": "address",
					"name": "from",
					"type": "address"
				},
				{
					"internalType": "address",
					"name": "to",
					"type": "address"
				},
				{
					"internalType": "uint256",
					"name": "value",
					"type": "uint256"
				}
			],
			"name": "transferFrom",
			"outputs": [
				{
					"internalType": "bool",
					"name": "",
					"type": "bool"
				}
			],
			"stateMutability": "nonpayable",
			"type": "function"
		},
		{
			"inputs": [
				{
					"internalType": "address",
					"name": "newOwner",
					"type": "address"
				}
			],
			"name": "transferOwnership",
			"outputs": [],
			"stateMutability": "nonpayable",
			"type": "function"
		},
		{
			"inputs": [
				{
					"internalType": "address",
					"name": "account",
					"type": "address"
				},
				{
					"internalType": "bool",
					"name": "excluded",
					"type": "bool"
				}
			],
			"name": "updateExcludedAccountStatus",
			"outputs": [],
			"stateMutability": "nonpayable",
			"type": "function"
		}
	]
}